{
  "contractName": "Item",
  "abi": [
    {
      "inputs": [
        {
          "components": [
            {
              "internalType": "address",
              "name": "ownerUserContract",
              "type": "address"
            },
            {
              "internalType": "address payable",
              "name": "ownerAddress",
              "type": "address"
            },
            {
              "internalType": "string",
              "name": "name",
              "type": "string"
            },
            {
              "internalType": "string",
              "name": "description",
              "type": "string"
            },
            {
              "internalType": "string",
              "name": "collectionOrReturnAddress",
              "type": "string"
            },
            {
              "internalType": "uint256",
              "name": "rentPerDay",
              "type": "uint256"
            },
            {
              "internalType": "uint8",
              "name": "maxAllowableLateDays",
              "type": "uint8"
            },
            {
              "internalType": "uint8",
              "name": "multipleForLateFees",
              "type": "uint8"
            },
            {
              "internalType": "bool",
              "name": "isAvailableForRent",
              "type": "bool"
            },
            {
              "internalType": "string[]",
              "name": "imageIPFSUrl",
              "type": "string[]"
            }
          ],
          "internalType": "struct Structs.ItemDetails",
          "name": "_itemDetails",
          "type": "tuple"
        }
      ],
      "stateMutability": "nonpayable",
      "type": "constructor"
    },
    {
      "anonymous": false,
      "inputs": [
        {
          "indexed": false,
          "internalType": "address",
          "name": "item",
          "type": "address"
        },
        {
          "indexed": false,
          "internalType": "string",
          "name": "property",
          "type": "string"
        },
        {
          "indexed": false,
          "internalType": "string",
          "name": "newDetails",
          "type": "string"
        }
      ],
      "name": "itemDetailsChanged",
      "type": "event"
    },
    {
      "anonymous": false,
      "inputs": [
        {
          "indexed": false,
          "internalType": "address",
          "name": "item",
          "type": "address"
        },
        {
          "indexed": false,
          "internalType": "address",
          "name": "newOwnerUserContract",
          "type": "address"
        },
        {
          "indexed": false,
          "internalType": "address",
          "name": "newOwnerAddress",
          "type": "address"
        }
      ],
      "name": "itemOwnerChanged",
      "type": "event"
    },
    {
      "anonymous": false,
      "inputs": [
        {
          "indexed": false,
          "internalType": "address",
          "name": "item",
          "type": "address"
        },
        {
          "indexed": false,
          "internalType": "enum Item.ItemStatus",
          "name": "newStatus",
          "type": "uint8"
        }
      ],
      "name": "itemStatusChanged",
      "type": "event"
    },
    {
      "anonymous": false,
      "inputs": [
        {
          "indexed": true,
          "internalType": "address",
          "name": "from",
          "type": "address"
        },
        {
          "indexed": false,
          "internalType": "uint8",
          "name": "rate",
          "type": "uint8"
        },
        {
          "indexed": false,
          "internalType": "uint8",
          "name": "reviewCount",
          "type": "uint8"
        }
      ],
      "name": "newReviewInput",
      "type": "event"
    },
    {
      "inputs": [
        {
          "internalType": "address",
          "name": "",
          "type": "address"
        }
      ],
      "name": "isRenter",
      "outputs": [
        {
          "internalType": "bool",
          "name": "",
          "type": "bool"
        }
      ],
      "stateMutability": "view",
      "type": "function"
    },
    {
      "inputs": [],
      "name": "itemDetails",
      "outputs": [
        {
          "internalType": "address",
          "name": "ownerUserContract",
          "type": "address"
        },
        {
          "internalType": "address payable",
          "name": "ownerAddress",
          "type": "address"
        },
        {
          "internalType": "string",
          "name": "name",
          "type": "string"
        },
        {
          "internalType": "string",
          "name": "description",
          "type": "string"
        },
        {
          "internalType": "string",
          "name": "collectionOrReturnAddress",
          "type": "string"
        },
        {
          "internalType": "uint256",
          "name": "rentPerDay",
          "type": "uint256"
        },
        {
          "internalType": "uint8",
          "name": "maxAllowableLateDays",
          "type": "uint8"
        },
        {
          "internalType": "uint8",
          "name": "multipleForLateFees",
          "type": "uint8"
        },
        {
          "internalType": "bool",
          "name": "isAvailableForRent",
          "type": "bool"
        }
      ],
      "stateMutability": "view",
      "type": "function"
    },
    {
      "inputs": [],
      "name": "itemStatus",
      "outputs": [
        {
          "internalType": "enum Item.ItemStatus",
          "name": "",
          "type": "uint8"
        }
      ],
      "stateMutability": "view",
      "type": "function"
    },
    {
      "inputs": [],
      "name": "ownerAddress",
      "outputs": [
        {
          "internalType": "address",
          "name": "",
          "type": "address"
        }
      ],
      "stateMutability": "view",
      "type": "function"
    },
    {
      "inputs": [],
      "name": "ownerUserContract",
      "outputs": [
        {
          "internalType": "address",
          "name": "",
          "type": "address"
        }
      ],
      "stateMutability": "view",
      "type": "function"
    },
    {
      "inputs": [],
      "name": "rentalContractCount",
      "outputs": [
        {
          "internalType": "uint8",
          "name": "",
          "type": "uint8"
        }
      ],
      "stateMutability": "view",
      "type": "function"
    },
    {
      "inputs": [
        {
          "internalType": "uint256",
          "name": "",
          "type": "uint256"
        }
      ],
      "name": "rentalContracts",
      "outputs": [
        {
          "internalType": "address",
          "name": "",
          "type": "address"
        }
      ],
      "stateMutability": "view",
      "type": "function"
    },
    {
      "inputs": [
        {
          "internalType": "uint256",
          "name": "",
          "type": "uint256"
        }
      ],
      "name": "rentalPeriods",
      "outputs": [
        {
          "internalType": "uint256",
          "name": "start",
          "type": "uint256"
        },
        {
          "internalType": "uint256",
          "name": "end",
          "type": "uint256"
        }
      ],
      "stateMutability": "view",
      "type": "function"
    },
    {
      "inputs": [],
      "name": "renterCount",
      "outputs": [
        {
          "internalType": "uint8",
          "name": "",
          "type": "uint8"
        }
      ],
      "stateMutability": "view",
      "type": "function"
    },
    {
      "inputs": [
        {
          "internalType": "uint256",
          "name": "",
          "type": "uint256"
        }
      ],
      "name": "renters",
      "outputs": [
        {
          "internalType": "address",
          "name": "",
          "type": "address"
        }
      ],
      "stateMutability": "view",
      "type": "function"
    },
    {
      "inputs": [],
      "name": "reviewCount",
      "outputs": [
        {
          "internalType": "uint8",
          "name": "",
          "type": "uint8"
        }
      ],
      "stateMutability": "view",
      "type": "function"
    },
    {
      "inputs": [
        {
          "internalType": "uint256",
          "name": "",
          "type": "uint256"
        }
      ],
      "name": "reviews",
      "outputs": [
        {
          "internalType": "address",
          "name": "rentalContract",
          "type": "address"
        },
        {
          "internalType": "address",
          "name": "raterUserContract",
          "type": "address"
        },
        {
          "internalType": "uint8",
          "name": "rate",
          "type": "uint8"
        },
        {
          "internalType": "string",
          "name": "review",
          "type": "string"
        },
        {
          "internalType": "uint256",
          "name": "time",
          "type": "uint256"
        }
      ],
      "stateMutability": "view",
      "type": "function"
    },
    {
      "inputs": [],
      "name": "getItemDetails",
      "outputs": [
        {
          "components": [
            {
              "internalType": "address",
              "name": "ownerUserContract",
              "type": "address"
            },
            {
              "internalType": "address payable",
              "name": "ownerAddress",
              "type": "address"
            },
            {
              "internalType": "string",
              "name": "name",
              "type": "string"
            },
            {
              "internalType": "string",
              "name": "description",
              "type": "string"
            },
            {
              "internalType": "string",
              "name": "collectionOrReturnAddress",
              "type": "string"
            },
            {
              "internalType": "uint256",
              "name": "rentPerDay",
              "type": "uint256"
            },
            {
              "internalType": "uint8",
              "name": "maxAllowableLateDays",
              "type": "uint8"
            },
            {
              "internalType": "uint8",
              "name": "multipleForLateFees",
              "type": "uint8"
            },
            {
              "internalType": "bool",
              "name": "isAvailableForRent",
              "type": "bool"
            },
            {
              "internalType": "string[]",
              "name": "imageIPFSUrl",
              "type": "string[]"
            }
          ],
          "internalType": "struct Structs.ItemDetails",
          "name": "",
          "type": "tuple"
        }
      ],
      "stateMutability": "view",
      "type": "function"
    },
    {
      "inputs": [
        {
          "internalType": "address",
          "name": "_newOwnerUserContract",
          "type": "address"
        },
        {
          "internalType": "address payable",
          "name": "_newOwnerAddress",
          "type": "address"
        }
      ],
      "name": "changeOwner",
      "outputs": [],
      "stateMutability": "nonpayable",
      "type": "function"
    },
    {
      "inputs": [
        {
          "internalType": "uint8",
          "name": "_newStatus",
          "type": "uint8"
        }
      ],
      "name": "changeItemStatus",
      "outputs": [],
      "stateMutability": "nonpayable",
      "type": "function"
    },
    {
      "inputs": [
        {
          "internalType": "string",
          "name": "_newName",
          "type": "string"
        }
      ],
      "name": "changeItemName",
      "outputs": [],
      "stateMutability": "nonpayable",
      "type": "function"
    },
    {
      "inputs": [
        {
          "internalType": "string",
          "name": "_newAddress",
          "type": "string"
        }
      ],
      "name": "changeItemCollectionOrReturnAddress",
      "outputs": [],
      "stateMutability": "nonpayable",
      "type": "function"
    },
    {
      "inputs": [
        {
          "internalType": "string",
          "name": "_newDescription",
          "type": "string"
        }
      ],
      "name": "changeItemDescription",
      "outputs": [],
      "stateMutability": "nonpayable",
      "type": "function"
    },
    {
      "inputs": [
        {
          "internalType": "uint256",
          "name": "_newRentPerDay",
          "type": "uint256"
        }
      ],
      "name": "changeItemRentPerDay",
      "outputs": [],
      "stateMutability": "nonpayable",
      "type": "function"
    },
    {
      "inputs": [
        {
          "internalType": "uint8",
          "name": "_newMaxAllowableLateDays",
          "type": "uint8"
        }
      ],
      "name": "changeItemMaxAllowableLateDays",
      "outputs": [],
      "stateMutability": "nonpayable",
      "type": "function"
    },
    {
      "inputs": [
        {
          "internalType": "string[]",
          "name": "_newimageIPFSUrl",
          "type": "string[]"
        }
      ],
      "name": "changeItemImageIPFSUrl",
      "outputs": [],
      "stateMutability": "nonpayable",
      "type": "function"
    },
    {
      "inputs": [
        {
          "internalType": "address",
          "name": "_newRentalContract",
          "type": "address"
        },
        {
          "internalType": "uint256",
          "name": "_start",
          "type": "uint256"
        },
        {
          "internalType": "uint256",
          "name": "_end",
          "type": "uint256"
        },
        {
          "internalType": "address",
          "name": "_renterAddress",
          "type": "address"
        }
      ],
      "name": "handleNewRental",
      "outputs": [],
      "stateMutability": "nonpayable",
      "type": "function"
    },
    {
      "inputs": [
        {
          "internalType": "address",
          "name": "_rentalContract",
          "type": "address"
        },
        {
          "internalType": "address",
          "name": "_raterUserContract",
          "type": "address"
        },
        {
          "internalType": "uint8",
          "name": "_rate",
          "type": "uint8"
        },
        {
          "internalType": "string",
          "name": "_review",
          "type": "string"
        }
      ],
      "name": "inputReview",
      "outputs": [],
      "stateMutability": "nonpayable",
      "type": "function"
    },
    {
      "inputs": [],
      "name": "getRatingsSum",
      "outputs": [
        {
          "internalType": "uint256",
          "name": "",
          "type": "uint256"
        }
      ],
      "stateMutability": "view",
      "type": "function"
    }
  ],
  "bytecode": "0x60806040523480156200001157600080fd5b50604051620025413803806200254183398101604081905262000034916200050c565b8051600280546001600160a01b03199081166001600160a01b039384161782556020808501516003805490931694169390931790556040830151805184936200008392600492910190620001af565b5060608201518051620000a1916003840191602090910190620001af565b5060808201518051620000bf916004840191602090910190620001af565b5060a0820151600582015560c082015160068201805460e0850151610100808701511515620100000262ff00001960ff93841690920261ffff199094169290951691909117919091171691909117905561012082015180516200012d9160078401916020909101906200023e565b5050600254600080546001600160a01b039283166001600160a01b031991821617909155600354600180549190931691161790555060085462010000900460ff16156200018457600a805460ff1916905562000192565b600a805460ff191660011790555b50600c805460ff19908116909155601180549091169055620006a1565b828054620001bd9062000664565b90600052602060002090601f016020900481019282620001e157600085556200022c565b82601f10620001fc57805160ff19168380011785556200022c565b828001600101855582156200022c579182015b828111156200022c5782518255916020019190600101906200020f565b506200023a9291506200029e565b5090565b82805482825590600052602060002090810192821562000290579160200282015b828111156200029057825180516200027f918491602090910190620001af565b50916020019190600101906200025f565b506200023a929150620002b5565b5b808211156200023a57600081556001016200029f565b808211156200023a576000620002cc8282620002d6565b50600101620002b5565b508054620002e49062000664565b6000825580601f10620002f5575050565b601f0160209004906000526020600020908101906200031591906200029e565b50565b634e487b7160e01b600052604160045260246000fd5b60405161014081016001600160401b038111828210171562000354576200035462000318565b60405290565b604051601f8201601f191681016001600160401b038111828210171562000385576200038562000318565b604052919050565b80516001600160a01b0381168114620003a557600080fd5b919050565b600082601f830112620003bc57600080fd5b81516001600160401b03811115620003d857620003d862000318565b6020620003ee601f8301601f191682016200035a565b82815285828487010111156200040357600080fd5b60005b838110156200042357858101830151828201840152820162000406565b83811115620004355760008385840101525b5095945050505050565b805160ff81168114620003a557600080fd5b80518015158114620003a557600080fd5b600082601f8301126200047457600080fd5b815160206001600160401b038083111562000493576200049362000318565b8260051b620004a48382016200035a565b9384528581018301938381019088861115620004bf57600080fd5b84880192505b858310156200050057825184811115620004df5760008081fd5b620004ef8a87838c0101620003aa565b8352509184019190840190620004c5565b98975050505050505050565b6000602082840312156200051f57600080fd5b81516001600160401b03808211156200053757600080fd5b9083019061014082860312156200054d57600080fd5b620005576200032e565b62000562836200038d565b815262000572602084016200038d565b60208201526040830151828111156200058a57600080fd5b6200059887828601620003aa565b604083015250606083015182811115620005b157600080fd5b620005bf87828601620003aa565b606083015250608083015182811115620005d857600080fd5b620005e687828601620003aa565b60808301525060a083015160a08201526200060460c084016200043f565b60c08201526200061760e084016200043f565b60e08201526101006200062c81850162000451565b9082015261012083810151838111156200064557600080fd5b620006538882870162000462565b918301919091525095945050505050565b600181811c908216806200067957607f821691505b602082108114156200069b57634e487b7160e01b600052602260045260246000fd5b50919050565b611e9080620006b16000396000f3fe608060405234801561001057600080fd5b50600436106101585760003560e01c8063927584b9116100c3578063dce59d101161007c578063dce59d1014610323578063e3d0c9d214610336578063e83ddcea14610349578063eff5924f1461036d578063f00d4b5d1461037a578063ffd369cc1461038d57600080fd5b8063927584b9146102875780639f2bc40e1461029d578063a50ad359146102d0578063a871c231146102ea578063c39c7c1a146102fd578063dcc3974b1461031057600080fd5b80636e309a8b116101155780636e309a8b14610209578063746a17aa1461021c5780637c81d1231461022f57806382770a431461024457806386941d29146102615780638f84aa091461027457600080fd5b806321fb7ee81461015d578063327425c91461018a57806353da02061461019f57806356ca4cfb146101ca57806363737c51146101e95780636679497b146101f6575b600080fd5b61017061016b3660046114ad565b6103a0565b604080519283526020830191909152015b60405180910390f35b61019d610198366004611535565b6103ce565b005b6101b26101ad3660046114ad565b610465565b6040516001600160a01b039091168152602001610181565b600f546101d79060ff1681565b60405160ff9091168152602001610181565b600c546101d79060ff1681565b61019d610204366004611652565b61048f565b61019d6102173660046116bd565b610568565b61019d61022a366004611714565b6105c0565b61023761073d565b604051610181919061180f565b61024c610a87565b6040516101819998979695949392919061190f565b61019d61026f3660046116bd565b610c6c565b6001546101b2906001600160a01b031681565b61028f610cc4565b604051908152602001610181565b6102c06102ab366004611994565b60106020526000908152604090205460ff1681565b6040519015158152602001610181565b600a546102dd9060ff1681565b60405161018191906119d3565b61019d6102f83660046116bd565b610d2b565b61019d61030b3660046119e7565b610d83565b6101b261031e3660046114ad565b610fc6565b6000546101b2906001600160a01b031681565b61019d6103443660046114ad565b610fd6565b61035c6103573660046114ad565b6110a1565b604051610181959493929190611a61565b6011546101d79060ff1681565b61019d610388366004611aa8565b61117d565b61019d61039b366004611652565b611227565b600d81815481106103b057600080fd5b60009182526020909120600290910201805460019091015490915082565b6001546001600160a01b031633146104015760405162461bcd60e51b81526004016103f890611ae1565b60405180910390fd5b80516104149060099060208401906112ed565b50604080518082018252600f81526e1b995dd25b5859d952541194d55c9b608a1b60208201529051600080516020611e3b833981519152906104599030908490611b18565b60405180910390a15050565b600b818154811061047557600080fd5b6000918252602090912001546001600160a01b0316905081565b6001546001600160a01b031633146104b95760405162461bcd60e51b81526004016103f890611ae1565b6008805460ff191660ff8316908117909155604051637bb7ca8760e11b8152600481019190915260009073__Utils_________________________________9063f76f950e90602401600060405180830381865af415801561051f573d6000803e3d6000fd5b505050506040513d6000823e601f3d908101601f191682016040526105479190810190611b64565b9050600080516020611e3b8339815191523082604051610459929190611bdb565b6001546001600160a01b031633146105925760405162461bcd60e51b81526004016103f890611ae1565b61059e6005838361134a565b50600080516020611e3b83398151915230838360405161045993929190611c50565b600b805460018101825560009182527f0175b7a638427703f0dbe7bb9bbf987a2551717b34e79f33b5b1008d1fa01db90180546001600160a01b0319166001600160a01b038716179055600c805460ff169161061b83611caa565b82546101009290920a60ff8181021990931691831602179091556040805180820182528681526020808201878152600d805460018181018355600092835294517fd7b6990105719101dabeb77144f2a3385c8033acd3af97e9423a695e81ad1eb560029092029182015591517fd7b6990105719101dabeb77144f2a3385c8033acd3af97e9423a695e81ad1eb690920191909155600e80548085019091557fbb7b4a454dc3493923482f07822329ed19e8244eff582cc204f8554c3620c3fd0180546001600160a01b0319166001600160a01b03891690811790915581526010909152918220805460ff19169091179055600f8054909216925061071e83611caa565b91906101000a81548160ff021916908360ff1602179055505050505050565b604080516101408101825260008082526020820181905260609282018390528282018390526080820183905260a0820181905260c0820181905260e082018190526101008201526101208101919091526040805161014081018252600280546001600160a01b0390811683526003541660208301526004805492939192918401916107c790611cca565b80601f01602080910402602001604051908101604052809291908181526020018280546107f390611cca565b80156108405780601f1061081557610100808354040283529160200191610840565b820191906000526020600020905b81548152906001019060200180831161082357829003601f168201915b5050505050815260200160038201805461085990611cca565b80601f016020809104026020016040519081016040528092919081815260200182805461088590611cca565b80156108d25780601f106108a7576101008083540402835291602001916108d2565b820191906000526020600020905b8154815290600101906020018083116108b557829003601f168201915b505050505081526020016004820180546108eb90611cca565b80601f016020809104026020016040519081016040528092919081815260200182805461091790611cca565b80156109645780601f1061093957610100808354040283529160200191610964565b820191906000526020600020905b81548152906001019060200180831161094757829003601f168201915b50505091835250506005820154602080830191909152600683015460ff80821660408086019190915261010083048216606086015262010000909204161515608084015260078401805482518185028101850190935280835260a090940193919290919060009084015b82821015610a7a5783829060005260206000200180546109ed90611cca565b80601f0160208091040260200160405190810160405280929190818152602001828054610a1990611cca565b8015610a665780601f10610a3b57610100808354040283529160200191610a66565b820191906000526020600020905b815481529060010190602001808311610a4957829003601f168201915b5050505050815260200190600101906109ce565b5050505081525050905090565b60028054600354600480546001600160a01b03938416949290931692610aac90611cca565b80601f0160208091040260200160405190810160405280929190818152602001828054610ad890611cca565b8015610b255780601f10610afa57610100808354040283529160200191610b25565b820191906000526020600020905b815481529060010190602001808311610b0857829003601f168201915b505050505090806003018054610b3a90611cca565b80601f0160208091040260200160405190810160405280929190818152602001828054610b6690611cca565b8015610bb35780601f10610b8857610100808354040283529160200191610bb3565b820191906000526020600020905b815481529060010190602001808311610b9657829003601f168201915b505050505090806004018054610bc890611cca565b80601f0160208091040260200160405190810160405280929190818152602001828054610bf490611cca565b8015610c415780601f10610c1657610100808354040283529160200191610c41565b820191906000526020600020905b815481529060010190602001808311610c2457829003601f168201915b50505050600583015460069093015491929160ff808216925061010082048116916201000090041689565b6001546001600160a01b03163314610c965760405162461bcd60e51b81526004016103f890611ae1565b610ca26006838361134a565b50600080516020611e3b83398151915230838360405161045993929190611cff565b600080805b60115460ff16811015610d255760128181548110610ce957610ce9611d55565b6000918252602090912060049091020160010154610d1190600160a01b900460ff1683611d6b565b915080610d1d81611d83565b915050610cc9565b50919050565b6001546001600160a01b03163314610d555760405162461bcd60e51b81526004016103f890611ae1565b610d616004838361134a565b50600080516020611e3b83398151915230838360405161045993929190611d9e565b3360009081526010602052604090205460ff16610de25760405162461bcd60e51b815260206004820152601e60248201527f4d6574686f64206973207265737472696374656420746f2052656e746572000060448201526064016103f8565b60006040518060a00160405280876001600160a01b03168152602001866001600160a01b031681526020018560ff16815260200184848080601f01602080910402602001604051908101604052809392919081815260200183838082843760009201829052509385525050426020938401525060128054600181018255915282517fbb8a6a4669ba250d26cd7a459eca9d215f8307e33aebe50379bc5a3617ec3444600490920291820180546001600160a01b0319166001600160a01b03928316178155848401517fbb8a6a4669ba250d26cd7a459eca9d215f8307e33aebe50379bc5a3617ec3445840180546040880151929094166001600160a81b031990941693909317600160a01b60ff90921691909102179091556060840151805194955085949193610f37937fbb8a6a4669ba250d26cd7a459eca9d215f8307e33aebe50379bc5a3617ec344601929101906113ca565b50608091909101516003909101556011805460ff16906000610f5883611caa565b82546101009290920a60ff8181021990931691831602179091556011546040805188841681529190921660208201526001600160a01b03881692507f55b429f465f51ece29c8e23ac4a440fd26a290daa27c5cb884f632c15c1b9fdf910160405180910390a2505050505050565b600e818154811061047557600080fd5b6001546001600160a01b031633146110005760405162461bcd60e51b81526004016103f890611ae1565b6007819055604051637bb7ca8760e11b81526004810182905260009073__Utils_________________________________9063f76f950e90602401600060405180830381865af4158015611058573d6000803e3d6000fd5b505050506040513d6000823e601f3d908101601f191682016040526110809190810190611b64565b9050600080516020611e3b8339815191523082604051610459929190611ddb565b601281815481106110b157600080fd5b60009182526020909120600490910201805460018201546002830180546001600160a01b03938416955092821693600160a01b90920460ff16926110f490611cca565b80601f016020809104026020016040519081016040528092919081815260200182805461112090611cca565b801561116d5780601f106111425761010080835404028352916020019161116d565b820191906000526020600020905b81548152906001019060200180831161115057829003601f168201915b5050505050908060030154905085565b6001546001600160a01b031633146111a75760405162461bcd60e51b81526004016103f890611ae1565b600280546001600160a01b038481166001600160a01b031992831681179093556003805491851691831682179055600080548316841790556001805490921681179091556040805130815260208101939093528201527f391e7445162e95b0462700ab996083fc3e40222a108de81e4fbea5e9ddfdaae190606001610459565b60ff811661125a576008805462ff0000191662010000179055600a80546000919060ff19166001835b02179055506112ab565b8060ff1660011415611285576008805462ff000019169055600a80546001919060ff19168280611250565b8060ff16600214156112ab576008805462ff000019169055600a805460ff191660021790555b600a546040517f8c5acf85d257fc548b6710d2ceeffe7d4b9b4dc7ed2866b316815c2ab592b9f6916112e291309160ff1690611e1d565b60405180910390a150565b82805482825590600052602060002090810192821561133a579160200282015b8281111561133a578251805161132a9184916020909101906113ca565b509160200191906001019061130d565b5061134692915061143e565b5090565b82805461135690611cca565b90600052602060002090601f01602090048101928261137857600085556113be565b82601f106113915782800160ff198235161785556113be565b828001600101855582156113be579182015b828111156113be5782358255916020019190600101906113a3565b5061134692915061145b565b8280546113d690611cca565b90600052602060002090601f0160209004810192826113f857600085556113be565b82601f1061141157805160ff19168380011785556113be565b828001600101855582156113be579182015b828111156113be578251825591602001919060010190611423565b808211156113465760006114528282611470565b5060010161143e565b5b80821115611346576000815560010161145c565b50805461147c90611cca565b6000825580601f1061148c575050565b601f0160209004906000526020600020908101906114aa919061145b565b50565b6000602082840312156114bf57600080fd5b5035919050565b634e487b7160e01b600052604160045260246000fd5b604051601f8201601f1916810167ffffffffffffffff81118282101715611505576115056114c6565b604052919050565b600067ffffffffffffffff821115611527576115276114c6565b50601f01601f191660200190565b6000602080838503121561154857600080fd5b823567ffffffffffffffff8082111561156057600080fd5b818501915085601f83011261157457600080fd5b813581811115611586576115866114c6565b8060051b6115958582016114dc565b91825283810185019185810190898411156115af57600080fd5b86860192505b8383101561162f578235858111156115cd5760008081fd5b8601603f81018b136115df5760008081fd5b8781013560406115f66115f18361150d565b6114dc565b8281528d8284860101111561160b5760008081fd5b828285018c83013760009281018b01929092525083525091860191908601906115b5565b9998505050505050505050565b803560ff8116811461164d57600080fd5b919050565b60006020828403121561166457600080fd5b61166d8261163c565b9392505050565b60008083601f84011261168657600080fd5b50813567ffffffffffffffff81111561169e57600080fd5b6020830191508360208285010111156116b657600080fd5b9250929050565b600080602083850312156116d057600080fd5b823567ffffffffffffffff8111156116e757600080fd5b6116f385828601611674565b90969095509350505050565b6001600160a01b03811681146114aa57600080fd5b6000806000806080858703121561172a57600080fd5b8435611735816116ff565b935060208501359250604085013591506060850135611753816116ff565b939692955090935050565b60005b83811015611779578181015183820152602001611761565b83811115611788576000848401525b50505050565b600081518084526117a681602086016020860161175e565b601f01601f19169290920160200192915050565b600081518084526020808501808196508360051b8101915082860160005b858110156118025782840389526117f084835161178e565b988501989350908401906001016117d8565b5091979650505050505050565b602081526118296020820183516001600160a01b03169052565b6000602083015161184560408401826001600160a01b03169052565b50604083015161014080606085015261186261016085018361178e565b91506060850151601f1980868503016080870152611880848361178e565b935060808701519150808685030160a087015261189d848361178e565b935060a087015160c087015260c087015191506118bf60e087018360ff169052565b60e087015191506101006118d78188018460ff169052565b87015191506101206118ec8782018415159052565b87015186850390910183870152905061190583826117ba565b9695505050505050565b6001600160a01b038a81168252891660208201526101206040820181905260009061193c8382018b61178e565b90508281036060840152611950818a61178e565b90508281036080840152611964818961178e565b60a0840197909752505060ff93841660c08201529190921660e08201529015156101009091015295945050505050565b6000602082840312156119a657600080fd5b813561166d816116ff565b600381106119cf57634e487b7160e01b600052602160045260246000fd5b9052565b602081016119e182846119b1565b92915050565b6000806000806000608086880312156119ff57600080fd5b8535611a0a816116ff565b94506020860135611a1a816116ff565b9350611a286040870161163c565b9250606086013567ffffffffffffffff811115611a4457600080fd5b611a5088828901611674565b969995985093965092949392505050565b6001600160a01b0386811682528516602082015260ff8416604082015260a060608201819052600090611a969083018561178e565b90508260808301529695505050505050565b60008060408385031215611abb57600080fd5b8235611ac6816116ff565b91506020830135611ad6816116ff565b809150509250929050565b6020808252601d908201527f4d6574686f64206973207265737472696374656420746f204f776e6572000000604082015260600190565b60018060a01b038316815260606020820152600c60608201526b1a5b5859d952541194d55c9b60a21b608082015260a060408201526000611b5c60a083018461178e565b949350505050565b600060208284031215611b7657600080fd5b815167ffffffffffffffff811115611b8d57600080fd5b8201601f81018413611b9e57600080fd5b8051611bac6115f18261150d565b818152856020838501011115611bc157600080fd5b611bd282602083016020860161175e565b95945050505050565b60018060a01b03831681526060602082015260146060820152736d6178416c6c6f7761626c654c6174654461797360601b608082015260a060408201526000611b5c60a083018461178e565b81835281816020850137506000828201602090810191909152601f909101601f19169091010190565b60018060a01b038416815260606020820152600b60608201526a3232b9b1b934b83a34b7b760a91b608082015260a060408201526000611bd260a083018486611c27565b634e487b7160e01b600052601160045260246000fd5b600060ff821660ff811415611cc157611cc1611c94565b60010192915050565b600181811c90821680611cde57607f821691505b60208210811415610d2557634e487b7160e01b600052602260045260246000fd5b60018060a01b038416815260606020820152601860608201527f636f6c6c656374696f6e2f72657475726e416464726573730000000000000000608082015260a060408201526000611bd260a083018486611c27565b634e487b7160e01b600052603260045260246000fd5b60008219821115611d7e57611d7e611c94565b500190565b6000600019821415611d9757611d97611c94565b5060010190565b60018060a01b03841681526060602082015260046060820152636e616d6560e01b608082015260a060408201526000611bd260a083018486611c27565b60018060a01b038316815260606020820152600a60608201526972656e7450657244617960b01b608082015260a060408201526000611b5c60a083018461178e565b6001600160a01b03831681526040810161166d60208301846119b156fe1fb119ae646ad419061c26b2c9f00687535e680f4cabbaa1a12df632a4668054a26469706673582212200ba82b0a634156ac0b0c442c9e3927d8b7217fe223fcb59d9d1c9b6a65ac8b8864736f6c634300080b0033",
  "immutableReferences": {},
  "source": "// SPDX-License-Identifier: GPL-3.0\n\npragma solidity >=0.7.0 <0.9.0;\n\nimport \"./helpers/Utils.sol\";\nimport \"./helpers/Structs.sol\";\nimport \"./User.sol\";\nimport \"./Rental.sol\";\n\ncontract Item {\n    using Utils for *;\n\n    enum ItemStatus {\n        AVAILABLE,\n        HIDDEN,\n        DELETED\n    }\n\n    struct RentalStartEnd {\n        uint256 start; // Unix epoch time\n        uint256 end; // Unix epoch time\n    }\n\n    struct Review {\n        address rentalContract;\n        address raterUserContract;\n        uint8 rate;\n        string review;\n        uint256 time;\n    }\n\n    address public ownerUserContract;\n    address public ownerAddress;\n    Structs.ItemDetails public itemDetails;\n    ItemStatus public itemStatus;\n\n    address[] public rentalContracts;\n    uint8 public rentalContractCount;\n    RentalStartEnd[] public rentalPeriods;\n\n    address[] public renters;\n    uint8 public renterCount;\n    mapping(address => bool) public isRenter;\n\n    uint8 public reviewCount;\n    Review[] public reviews;\n\n    event itemOwnerChanged(\n        address item,\n        address newOwnerUserContract,\n        address newOwnerAddress\n    );\n    event itemStatusChanged(address item, ItemStatus newStatus);\n    event itemDetailsChanged(address item, string property, string newDetails);\n    event newReviewInput(address indexed from, uint8 rate, uint8 reviewCount);\n\n    constructor(Structs.ItemDetails memory _itemDetails) {\n        itemDetails = _itemDetails;\n        ownerUserContract = itemDetails.ownerUserContract;\n        ownerAddress = itemDetails.ownerAddress;\n\n        if (itemDetails.isAvailableForRent) {\n            itemStatus = ItemStatus.AVAILABLE;\n        } else {\n            itemStatus = ItemStatus.HIDDEN;\n        }\n\n        rentalContractCount = 0;\n        reviewCount = 0;\n    }\n\n    modifier onlyOwner() {\n        require(msg.sender == ownerAddress, \"Method is restricted to Owner\");\n        _;\n    }\n\n    modifier onlyRenter() {\n        require(isRenter[msg.sender], \"Method is restricted to Renter\");\n        _;\n    }\n\n    function getItemDetails() public view returns (Structs.ItemDetails memory) {\n        return itemDetails;\n    }\n\n    function changeOwner(\n        address _newOwnerUserContract,\n        address payable _newOwnerAddress\n    ) public onlyOwner {\n        itemDetails.ownerUserContract = _newOwnerUserContract;\n        itemDetails.ownerAddress = _newOwnerAddress;\n        ownerUserContract = _newOwnerUserContract;\n        ownerAddress = _newOwnerAddress;\n\n        emit itemOwnerChanged(\n            address(this),\n            _newOwnerUserContract,\n            _newOwnerAddress\n        );\n    }\n\n    function changeItemStatus(uint8 _newStatus) public {\n        if (_newStatus == 0) {\n            itemDetails.isAvailableForRent = true;\n            itemStatus = ItemStatus.AVAILABLE;\n        } else if (_newStatus == 1) {\n            itemDetails.isAvailableForRent = false;\n            itemStatus = ItemStatus.HIDDEN;\n        } else if (_newStatus == 2) {\n            itemDetails.isAvailableForRent = false;\n            itemStatus = ItemStatus.DELETED;\n        }\n\n        emit itemStatusChanged(address(this), itemStatus);\n    }\n\n    function changeItemName(string calldata _newName) public onlyOwner {\n        itemDetails.name = _newName;\n        emit itemDetailsChanged(address(this), \"name\", _newName);\n    }\n\n    function changeItemCollectionOrReturnAddress(string calldata _newAddress)\n        public\n        onlyOwner\n    {\n        itemDetails.collectionOrReturnAddress = _newAddress;\n        emit itemDetailsChanged(\n            address(this),\n            \"collection/returnAddress\",\n            _newAddress\n        );\n    }\n\n    function changeItemDescription(string calldata _newDescription)\n        public\n        onlyOwner\n    {\n        itemDetails.description = _newDescription;\n        emit itemDetailsChanged(address(this), \"description\", _newDescription);\n    }\n\n    function changeItemRentPerDay(uint256 _newRentPerDay) public onlyOwner {\n        itemDetails.rentPerDay = _newRentPerDay;\n        string memory newRentPerDay = Utils.uint2str(_newRentPerDay);\n        emit itemDetailsChanged(\n            address(this),\n            \"rentPerDay\",\n            string(newRentPerDay)\n        );\n    }\n\n    function changeItemMaxAllowableLateDays(uint8 _newMaxAllowableLateDays)\n        public\n        onlyOwner\n    {\n        itemDetails.maxAllowableLateDays = _newMaxAllowableLateDays;\n        string memory newMaxAllowableLateDays = Utils.uint2str(\n            _newMaxAllowableLateDays\n        );\n        emit itemDetailsChanged(\n            address(this),\n            \"maxAllowableLateDays\",\n            newMaxAllowableLateDays\n        );\n    }\n\n    function changeItemImageIPFSUrl(string[] memory _newimageIPFSUrl)\n        public\n        onlyOwner\n    {\n        itemDetails.imageIPFSUrl = _newimageIPFSUrl;\n        string memory newImageIPFSUrl = \"newImageIPFSUrl\";\n\n        emit itemDetailsChanged(address(this), \"imageIPFSUrl\", newImageIPFSUrl);\n    }\n\n    function handleNewRental(\n        address _newRentalContract,\n        uint256 _start,\n        uint256 _end,\n        address _renterAddress\n    ) public {\n        rentalContracts.push(address(_newRentalContract));\n        rentalContractCount++;\n\n        rentalPeriods.push(RentalStartEnd({start: _start, end: _end}));\n\n        renters.push(_renterAddress);\n        isRenter[_renterAddress] = true;\n        renterCount++;\n    }\n\n    function inputReview(\n        address _rentalContract,\n        address _raterUserContract,\n        uint8 _rate,\n        string calldata _review\n    ) public onlyRenter {\n        Review memory newReview = Review({\n            rentalContract: _rentalContract,\n            rate: _rate,\n            raterUserContract: _raterUserContract,\n            review: _review,\n            time: block.timestamp\n        });\n\n        reviews.push(newReview);\n        reviewCount++;\n\n        emit newReviewInput(_raterUserContract, _rate, reviewCount);\n    }\n\n    function getRatingsSum() public view returns (uint256) {\n        uint256 sum = 0;\n        for (uint256 i = 0; i < reviewCount; i++) {\n            sum += reviews[i].rate;\n        }\n        return sum;\n    }\n}\n",
  "sourcePath": "/Users/jyuteo/CodeProjects/TRent/smart-contracts/src/contracts/Item.sol",
  "compiler": {
    "name": "solc",
    "version": "0.8.11+commit.d7f03943.Emscripten.clang"
  },
  "schemaVersion": "3.4.3",
  "updatedAt": "2022-01-17T10:36:23.821Z",
  "devdoc": {
    "kind": "dev",
    "methods": {},
    "version": 1
  },
  "userdoc": {
    "kind": "user",
    "methods": {},
    "version": 1
  }
}