{
  "contractName": "Item",
  "abi": [
    {
      "inputs": [
        {
          "components": [
            {
              "internalType": "address",
              "name": "ownerUserContract",
              "type": "address"
            },
            {
              "internalType": "address payable",
              "name": "ownerAddress",
              "type": "address"
            },
            {
              "internalType": "string",
              "name": "name",
              "type": "string"
            },
            {
              "internalType": "string",
              "name": "description",
              "type": "string"
            },
            {
              "internalType": "string",
              "name": "collectionOrReturnAddress",
              "type": "string"
            },
            {
              "internalType": "uint256",
              "name": "rentPerDay",
              "type": "uint256"
            },
            {
              "internalType": "uint8",
              "name": "maxAllowableLateDays",
              "type": "uint8"
            },
            {
              "internalType": "uint8",
              "name": "multipleForLateFees",
              "type": "uint8"
            },
            {
              "internalType": "bool",
              "name": "isAvailableForRent",
              "type": "bool"
            },
            {
              "internalType": "string[]",
              "name": "imageIPFSUrl",
              "type": "string[]"
            }
          ],
          "internalType": "struct Structs.ItemDetails",
          "name": "_itemDetails",
          "type": "tuple"
        }
      ],
      "stateMutability": "nonpayable",
      "type": "constructor"
    },
    {
      "anonymous": false,
      "inputs": [
        {
          "indexed": false,
          "internalType": "address",
          "name": "item",
          "type": "address"
        },
        {
          "indexed": false,
          "internalType": "string",
          "name": "property",
          "type": "string"
        },
        {
          "indexed": false,
          "internalType": "string",
          "name": "newDetails",
          "type": "string"
        }
      ],
      "name": "itemDetailsChanged",
      "type": "event"
    },
    {
      "anonymous": false,
      "inputs": [
        {
          "indexed": false,
          "internalType": "address",
          "name": "item",
          "type": "address"
        },
        {
          "indexed": false,
          "internalType": "address",
          "name": "newOwnerUserContract",
          "type": "address"
        },
        {
          "indexed": false,
          "internalType": "address",
          "name": "newOwnerAddress",
          "type": "address"
        }
      ],
      "name": "itemOwnerChanged",
      "type": "event"
    },
    {
      "anonymous": false,
      "inputs": [
        {
          "indexed": false,
          "internalType": "address",
          "name": "item",
          "type": "address"
        },
        {
          "indexed": false,
          "internalType": "enum Item.ItemStatus",
          "name": "newStatus",
          "type": "uint8"
        }
      ],
      "name": "itemStatusChanged",
      "type": "event"
    },
    {
      "anonymous": false,
      "inputs": [
        {
          "indexed": true,
          "internalType": "address",
          "name": "from",
          "type": "address"
        },
        {
          "indexed": false,
          "internalType": "uint8",
          "name": "rate",
          "type": "uint8"
        },
        {
          "indexed": false,
          "internalType": "uint8",
          "name": "reviewCount",
          "type": "uint8"
        }
      ],
      "name": "newReviewInput",
      "type": "event"
    },
    {
      "inputs": [
        {
          "internalType": "address",
          "name": "",
          "type": "address"
        }
      ],
      "name": "isRenter",
      "outputs": [
        {
          "internalType": "bool",
          "name": "",
          "type": "bool"
        }
      ],
      "stateMutability": "view",
      "type": "function"
    },
    {
      "inputs": [],
      "name": "itemDetails",
      "outputs": [
        {
          "internalType": "address",
          "name": "ownerUserContract",
          "type": "address"
        },
        {
          "internalType": "address payable",
          "name": "ownerAddress",
          "type": "address"
        },
        {
          "internalType": "string",
          "name": "name",
          "type": "string"
        },
        {
          "internalType": "string",
          "name": "description",
          "type": "string"
        },
        {
          "internalType": "string",
          "name": "collectionOrReturnAddress",
          "type": "string"
        },
        {
          "internalType": "uint256",
          "name": "rentPerDay",
          "type": "uint256"
        },
        {
          "internalType": "uint8",
          "name": "maxAllowableLateDays",
          "type": "uint8"
        },
        {
          "internalType": "uint8",
          "name": "multipleForLateFees",
          "type": "uint8"
        },
        {
          "internalType": "bool",
          "name": "isAvailableForRent",
          "type": "bool"
        }
      ],
      "stateMutability": "view",
      "type": "function"
    },
    {
      "inputs": [],
      "name": "itemStatus",
      "outputs": [
        {
          "internalType": "enum Item.ItemStatus",
          "name": "",
          "type": "uint8"
        }
      ],
      "stateMutability": "view",
      "type": "function"
    },
    {
      "inputs": [],
      "name": "ownerAddress",
      "outputs": [
        {
          "internalType": "address",
          "name": "",
          "type": "address"
        }
      ],
      "stateMutability": "view",
      "type": "function"
    },
    {
      "inputs": [],
      "name": "ownerUserContract",
      "outputs": [
        {
          "internalType": "address",
          "name": "",
          "type": "address"
        }
      ],
      "stateMutability": "view",
      "type": "function"
    },
    {
      "inputs": [],
      "name": "rentalContractCount",
      "outputs": [
        {
          "internalType": "uint128",
          "name": "",
          "type": "uint128"
        }
      ],
      "stateMutability": "view",
      "type": "function"
    },
    {
      "inputs": [
        {
          "internalType": "uint256",
          "name": "",
          "type": "uint256"
        }
      ],
      "name": "rentalContracts",
      "outputs": [
        {
          "internalType": "address",
          "name": "",
          "type": "address"
        }
      ],
      "stateMutability": "view",
      "type": "function"
    },
    {
      "inputs": [
        {
          "internalType": "uint256",
          "name": "",
          "type": "uint256"
        }
      ],
      "name": "rentalPeriods",
      "outputs": [
        {
          "internalType": "uint256",
          "name": "start",
          "type": "uint256"
        },
        {
          "internalType": "uint256",
          "name": "end",
          "type": "uint256"
        }
      ],
      "stateMutability": "view",
      "type": "function"
    },
    {
      "inputs": [],
      "name": "renterCount",
      "outputs": [
        {
          "internalType": "uint128",
          "name": "",
          "type": "uint128"
        }
      ],
      "stateMutability": "view",
      "type": "function"
    },
    {
      "inputs": [
        {
          "internalType": "uint256",
          "name": "",
          "type": "uint256"
        }
      ],
      "name": "renters",
      "outputs": [
        {
          "internalType": "address",
          "name": "",
          "type": "address"
        }
      ],
      "stateMutability": "view",
      "type": "function"
    },
    {
      "inputs": [],
      "name": "reviewCount",
      "outputs": [
        {
          "internalType": "uint8",
          "name": "",
          "type": "uint8"
        }
      ],
      "stateMutability": "view",
      "type": "function"
    },
    {
      "inputs": [
        {
          "internalType": "uint256",
          "name": "",
          "type": "uint256"
        }
      ],
      "name": "reviews",
      "outputs": [
        {
          "internalType": "address",
          "name": "rentalContract",
          "type": "address"
        },
        {
          "internalType": "address",
          "name": "raterUserContract",
          "type": "address"
        },
        {
          "internalType": "uint8",
          "name": "rate",
          "type": "uint8"
        },
        {
          "internalType": "string",
          "name": "review",
          "type": "string"
        },
        {
          "internalType": "uint256",
          "name": "time",
          "type": "uint256"
        }
      ],
      "stateMutability": "view",
      "type": "function"
    },
    {
      "inputs": [],
      "name": "getItemDetails",
      "outputs": [
        {
          "components": [
            {
              "internalType": "address",
              "name": "ownerUserContract",
              "type": "address"
            },
            {
              "internalType": "address payable",
              "name": "ownerAddress",
              "type": "address"
            },
            {
              "internalType": "string",
              "name": "name",
              "type": "string"
            },
            {
              "internalType": "string",
              "name": "description",
              "type": "string"
            },
            {
              "internalType": "string",
              "name": "collectionOrReturnAddress",
              "type": "string"
            },
            {
              "internalType": "uint256",
              "name": "rentPerDay",
              "type": "uint256"
            },
            {
              "internalType": "uint8",
              "name": "maxAllowableLateDays",
              "type": "uint8"
            },
            {
              "internalType": "uint8",
              "name": "multipleForLateFees",
              "type": "uint8"
            },
            {
              "internalType": "bool",
              "name": "isAvailableForRent",
              "type": "bool"
            },
            {
              "internalType": "string[]",
              "name": "imageIPFSUrl",
              "type": "string[]"
            }
          ],
          "internalType": "struct Structs.ItemDetails",
          "name": "",
          "type": "tuple"
        }
      ],
      "stateMutability": "view",
      "type": "function"
    },
    {
      "inputs": [],
      "name": "getOwnerUserContract",
      "outputs": [
        {
          "internalType": "address",
          "name": "",
          "type": "address"
        }
      ],
      "stateMutability": "view",
      "type": "function"
    },
    {
      "inputs": [
        {
          "internalType": "address",
          "name": "_newOwnerUserContract",
          "type": "address"
        },
        {
          "internalType": "address payable",
          "name": "_newOwnerAddress",
          "type": "address"
        }
      ],
      "name": "changeOwner",
      "outputs": [],
      "stateMutability": "nonpayable",
      "type": "function"
    },
    {
      "inputs": [
        {
          "internalType": "uint8",
          "name": "_newStatus",
          "type": "uint8"
        }
      ],
      "name": "changeItemStatus",
      "outputs": [],
      "stateMutability": "nonpayable",
      "type": "function"
    },
    {
      "inputs": [
        {
          "internalType": "string",
          "name": "_newName",
          "type": "string"
        }
      ],
      "name": "changeItemName",
      "outputs": [],
      "stateMutability": "nonpayable",
      "type": "function"
    },
    {
      "inputs": [
        {
          "internalType": "string",
          "name": "_newAddress",
          "type": "string"
        }
      ],
      "name": "changeItemCollectionOrReturnAddress",
      "outputs": [],
      "stateMutability": "nonpayable",
      "type": "function"
    },
    {
      "inputs": [
        {
          "internalType": "string",
          "name": "_newDescription",
          "type": "string"
        }
      ],
      "name": "changeItemDescription",
      "outputs": [],
      "stateMutability": "nonpayable",
      "type": "function"
    },
    {
      "inputs": [
        {
          "internalType": "uint256",
          "name": "_newRentPerDay",
          "type": "uint256"
        }
      ],
      "name": "changeItemRentPerDay",
      "outputs": [],
      "stateMutability": "nonpayable",
      "type": "function"
    },
    {
      "inputs": [
        {
          "internalType": "uint8",
          "name": "_newMaxAllowableLateDays",
          "type": "uint8"
        }
      ],
      "name": "changeItemMaxAllowableLateDays",
      "outputs": [],
      "stateMutability": "nonpayable",
      "type": "function"
    },
    {
      "inputs": [
        {
          "internalType": "string[]",
          "name": "_newimageIPFSUrl",
          "type": "string[]"
        }
      ],
      "name": "changeItemImageIPFSUrl",
      "outputs": [],
      "stateMutability": "nonpayable",
      "type": "function"
    },
    {
      "inputs": [
        {
          "internalType": "address",
          "name": "_newRentalContract",
          "type": "address"
        },
        {
          "internalType": "uint256",
          "name": "_start",
          "type": "uint256"
        },
        {
          "internalType": "uint256",
          "name": "_end",
          "type": "uint256"
        },
        {
          "internalType": "address",
          "name": "_renterAddress",
          "type": "address"
        }
      ],
      "name": "handleNewRental",
      "outputs": [],
      "stateMutability": "nonpayable",
      "type": "function"
    },
    {
      "inputs": [
        {
          "internalType": "address",
          "name": "_rentalContract",
          "type": "address"
        },
        {
          "internalType": "address",
          "name": "_raterUserContract",
          "type": "address"
        },
        {
          "internalType": "uint8",
          "name": "_rate",
          "type": "uint8"
        },
        {
          "internalType": "string",
          "name": "_review",
          "type": "string"
        }
      ],
      "name": "inputReview",
      "outputs": [],
      "stateMutability": "nonpayable",
      "type": "function"
    },
    {
      "inputs": [],
      "name": "getRatingsSum",
      "outputs": [
        {
          "internalType": "uint256",
          "name": "",
          "type": "uint256"
        }
      ],
      "stateMutability": "view",
      "type": "function"
    }
  ],
  "bytecode": "0x60806040523480156200001157600080fd5b50604051620025d0380380620025d0833981016040819052620000349162000510565b8051600280546001600160a01b03199081166001600160a01b039384161782556020808501516003805490931694169390931790556040830151805184936200008392600492910190620001b3565b5060608201518051620000a1916003840191602090910190620001b3565b5060808201518051620000bf916004840191602090910190620001b3565b5060a0820151600582015560c082015160068201805460e0850151610100808701511515620100000262ff00001960ff93841690920261ffff199094169290951691909117919091171691909117905561012082015180516200012d91600784019160209091019062000242565b5050600254600080546001600160a01b039283166001600160a01b031991821617909155600354600180549190931691161790555060085462010000900460ff16156200018457600a805460ff1916905562000192565b600a805460ff191660011790555b50600c80546001600160801b03191690556011805460ff19169055620006a5565b828054620001c19062000668565b90600052602060002090601f016020900481019282620001e5576000855562000230565b82601f106200020057805160ff191683800117855562000230565b8280016001018555821562000230579182015b828111156200023057825182559160200191906001019062000213565b506200023e929150620002a2565b5090565b82805482825590600052602060002090810192821562000294579160200282015b8281111562000294578251805162000283918491602090910190620001b3565b509160200191906001019062000263565b506200023e929150620002b9565b5b808211156200023e5760008155600101620002a3565b808211156200023e576000620002d08282620002da565b50600101620002b9565b508054620002e89062000668565b6000825580601f10620002f9575050565b601f016020900490600052602060002090810190620003199190620002a2565b50565b634e487b7160e01b600052604160045260246000fd5b60405161014081016001600160401b03811182821017156200035857620003586200031c565b60405290565b604051601f8201601f191681016001600160401b03811182821017156200038957620003896200031c565b604052919050565b80516001600160a01b0381168114620003a957600080fd5b919050565b600082601f830112620003c057600080fd5b81516001600160401b03811115620003dc57620003dc6200031c565b6020620003f2601f8301601f191682016200035e565b82815285828487010111156200040757600080fd5b60005b83811015620004275785810183015182820184015282016200040a565b83811115620004395760008385840101525b5095945050505050565b805160ff81168114620003a957600080fd5b80518015158114620003a957600080fd5b600082601f8301126200047857600080fd5b815160206001600160401b03808311156200049757620004976200031c565b8260051b620004a88382016200035e565b9384528581018301938381019088861115620004c357600080fd5b84880192505b858310156200050457825184811115620004e35760008081fd5b620004f38a87838c0101620003ae565b8352509184019190840190620004c9565b98975050505050505050565b6000602082840312156200052357600080fd5b81516001600160401b03808211156200053b57600080fd5b9083019061014082860312156200055157600080fd5b6200055b62000332565b620005668362000391565b8152620005766020840162000391565b60208201526040830151828111156200058e57600080fd5b6200059c87828601620003ae565b604083015250606083015182811115620005b557600080fd5b620005c387828601620003ae565b606083015250608083015182811115620005dc57600080fd5b620005ea87828601620003ae565b60808301525060a083015160a08201526200060860c0840162000443565b60c08201526200061b60e0840162000443565b60e08201526101006200063081850162000455565b9082015261012083810151838111156200064957600080fd5b620006578882870162000466565b918301919091525095945050505050565b600181811c908216806200067d57607f821691505b602082108114156200069f57634e487b7160e01b600052602260045260246000fd5b50919050565b611f1b80620006b56000396000f3fe608060405234801561001057600080fd5b50600436106101735760003560e01c80638f84aa09116100de578063dcc3974b11610097578063e83ddcea11610071578063e83ddcea14610383578063eff5924f146103a7578063f00d4b5d146103c6578063ffd369cc146103d957600080fd5b8063dcc3974b1461034a578063dce59d101461035d578063e3d0c9d21461037057600080fd5b80638f84aa09146102ae578063927584b9146102c15780639f2bc40e146102d7578063a50ad3591461030a578063a871c23114610324578063c39c7c1a1461033757600080fd5b80636679497b116101305780636679497b146102305780636e309a8b14610243578063746a17aa146102565780637c81d1231461026957806382770a431461027e57806386941d291461029b57600080fd5b806321fb7ee8146101785780632d54131a146101a5578063327425c9146101ca57806353da0206146101df57806356ca4cfb146101f257806363737c511461021d575b600080fd5b61018b610186366004611511565b6103ec565b604080519283526020830191909152015b60405180910390f35b6000546001600160a01b03165b6040516001600160a01b03909116815260200161019c565b6101dd6101d8366004611599565b61041a565b005b6101b26101ed366004611511565b6104b1565b600f54610205906001600160801b031681565b6040516001600160801b03909116815260200161019c565b600c54610205906001600160801b031681565b6101dd61023e3660046116b6565b6104db565b6101dd610251366004611721565b6105b4565b6101dd610264366004611778565b61060c565b6102716107a1565b60405161019c9190611873565b610286610aeb565b60405161019c99989796959493929190611973565b6101dd6102a9366004611721565b610cd0565b6001546101b2906001600160a01b031681565b6102c9610d28565b60405190815260200161019c565b6102fa6102e53660046119f8565b60106020526000908152604090205460ff1681565b604051901515815260200161019c565b600a546103179060ff1681565b60405161019c9190611a37565b6101dd610332366004611721565b610d8f565b6101dd610345366004611a4b565b610de7565b6101b2610358366004611511565b61102a565b6000546101b2906001600160a01b031681565b6101dd61037e366004611511565b61103a565b610396610391366004611511565b611105565b60405161019c959493929190611ac5565b6011546103b49060ff1681565b60405160ff909116815260200161019c565b6101dd6103d4366004611b0c565b6111e1565b6101dd6103e73660046116b6565b61128b565b600d81815481106103fc57600080fd5b60009182526020909120600290910201805460019091015490915082565b6001546001600160a01b0316331461044d5760405162461bcd60e51b815260040161044490611b45565b60405180910390fd5b8051610460906009906020840190611351565b50604080518082018252600f81526e1b995dd25b5859d952541194d55c9b608a1b60208201529051600080516020611ec6833981519152906104a59030908490611b7c565b60405180910390a15050565b600b81815481106104c157600080fd5b6000918252602090912001546001600160a01b0316905081565b6001546001600160a01b031633146105055760405162461bcd60e51b815260040161044490611b45565b6008805460ff191660ff8316908117909155604051637bb7ca8760e11b8152600481019190915260009073__Utils_________________________________9063f76f950e90602401600060405180830381865af415801561056b573d6000803e3d6000fd5b505050506040513d6000823e601f3d908101601f191682016040526105939190810190611bc8565b9050600080516020611ec683398151915230826040516104a5929190611c3f565b6001546001600160a01b031633146105de5760405162461bcd60e51b815260040161044490611b45565b6105ea600583836113ae565b50600080516020611ec68339815191523083836040516104a593929190611cb4565b600b805460018101825560009182527f0175b7a638427703f0dbe7bb9bbf987a2551717b34e79f33b5b1008d1fa01db90180546001600160a01b0319166001600160a01b038716179055600c80546001600160801b03169161066d83611d0e565b82546101009290920a6001600160801b038181021990931691831602179091556040805180820182528681526020808201878152600d805460018181018355600092835294517fd7b6990105719101dabeb77144f2a3385c8033acd3af97e9423a695e81ad1eb560029092029182015591517fd7b6990105719101dabeb77144f2a3385c8033acd3af97e9423a695e81ad1eb690920191909155600e80548085019091557fbb7b4a454dc3493923482f07822329ed19e8244eff582cc204f8554c3620c3fd0180546001600160a01b0319166001600160a01b03891690811790915581526010909152918220805460ff19169091179055600f8054909216925061077683611d0e565b91906101000a8154816001600160801b0302191690836001600160801b031602179055505050505050565b604080516101408101825260008082526020820181905260609282018390528282018390526080820183905260a0820181905260c0820181905260e082018190526101008201526101208101919091526040805161014081018252600280546001600160a01b03908116835260035416602083015260048054929391929184019161082b90611d35565b80601f016020809104026020016040519081016040528092919081815260200182805461085790611d35565b80156108a45780601f10610879576101008083540402835291602001916108a4565b820191906000526020600020905b81548152906001019060200180831161088757829003601f168201915b505050505081526020016003820180546108bd90611d35565b80601f01602080910402602001604051908101604052809291908181526020018280546108e990611d35565b80156109365780601f1061090b57610100808354040283529160200191610936565b820191906000526020600020905b81548152906001019060200180831161091957829003601f168201915b5050505050815260200160048201805461094f90611d35565b80601f016020809104026020016040519081016040528092919081815260200182805461097b90611d35565b80156109c85780601f1061099d576101008083540402835291602001916109c8565b820191906000526020600020905b8154815290600101906020018083116109ab57829003601f168201915b50505091835250506005820154602080830191909152600683015460ff80821660408086019190915261010083048216606086015262010000909204161515608084015260078401805482518185028101850190935280835260a090940193919290919060009084015b82821015610ade578382906000526020600020018054610a5190611d35565b80601f0160208091040260200160405190810160405280929190818152602001828054610a7d90611d35565b8015610aca5780601f10610a9f57610100808354040283529160200191610aca565b820191906000526020600020905b815481529060010190602001808311610aad57829003601f168201915b505050505081526020019060010190610a32565b5050505081525050905090565b60028054600354600480546001600160a01b03938416949290931692610b1090611d35565b80601f0160208091040260200160405190810160405280929190818152602001828054610b3c90611d35565b8015610b895780601f10610b5e57610100808354040283529160200191610b89565b820191906000526020600020905b815481529060010190602001808311610b6c57829003601f168201915b505050505090806003018054610b9e90611d35565b80601f0160208091040260200160405190810160405280929190818152602001828054610bca90611d35565b8015610c175780601f10610bec57610100808354040283529160200191610c17565b820191906000526020600020905b815481529060010190602001808311610bfa57829003601f168201915b505050505090806004018054610c2c90611d35565b80601f0160208091040260200160405190810160405280929190818152602001828054610c5890611d35565b8015610ca55780601f10610c7a57610100808354040283529160200191610ca5565b820191906000526020600020905b815481529060010190602001808311610c8857829003601f168201915b50505050600583015460069093015491929160ff808216925061010082048116916201000090041689565b6001546001600160a01b03163314610cfa5760405162461bcd60e51b815260040161044490611b45565b610d06600683836113ae565b50600080516020611ec68339815191523083836040516104a593929190611d6a565b600080805b60115460ff16811015610d895760128181548110610d4d57610d4d611dc0565b6000918252602090912060049091020160010154610d7590600160a01b900460ff1683611dd6565b915080610d8181611dee565b915050610d2d565b50919050565b6001546001600160a01b03163314610db95760405162461bcd60e51b815260040161044490611b45565b610dc5600483836113ae565b50600080516020611ec68339815191523083836040516104a593929190611e09565b3360009081526010602052604090205460ff16610e465760405162461bcd60e51b815260206004820152601e60248201527f4d6574686f64206973207265737472696374656420746f2052656e74657200006044820152606401610444565b60006040518060a00160405280876001600160a01b03168152602001866001600160a01b031681526020018560ff16815260200184848080601f01602080910402602001604051908101604052809392919081815260200183838082843760009201829052509385525050426020938401525060128054600181018255915282517fbb8a6a4669ba250d26cd7a459eca9d215f8307e33aebe50379bc5a3617ec3444600490920291820180546001600160a01b0319166001600160a01b03928316178155848401517fbb8a6a4669ba250d26cd7a459eca9d215f8307e33aebe50379bc5a3617ec3445840180546040880151929094166001600160a81b031990941693909317600160a01b60ff90921691909102179091556060840151805194955085949193610f9b937fbb8a6a4669ba250d26cd7a459eca9d215f8307e33aebe50379bc5a3617ec3446019291019061142e565b50608091909101516003909101556011805460ff16906000610fbc83611e46565b82546101009290920a60ff8181021990931691831602179091556011546040805188841681529190921660208201526001600160a01b03881692507f55b429f465f51ece29c8e23ac4a440fd26a290daa27c5cb884f632c15c1b9fdf910160405180910390a2505050505050565b600e81815481106104c157600080fd5b6001546001600160a01b031633146110645760405162461bcd60e51b815260040161044490611b45565b6007819055604051637bb7ca8760e11b81526004810182905260009073__Utils_________________________________9063f76f950e90602401600060405180830381865af41580156110bc573d6000803e3d6000fd5b505050506040513d6000823e601f3d908101601f191682016040526110e49190810190611bc8565b9050600080516020611ec683398151915230826040516104a5929190611e66565b6012818154811061111557600080fd5b60009182526020909120600490910201805460018201546002830180546001600160a01b03938416955092821693600160a01b90920460ff169261115890611d35565b80601f016020809104026020016040519081016040528092919081815260200182805461118490611d35565b80156111d15780601f106111a6576101008083540402835291602001916111d1565b820191906000526020600020905b8154815290600101906020018083116111b457829003601f168201915b5050505050908060030154905085565b6001546001600160a01b0316331461120b5760405162461bcd60e51b815260040161044490611b45565b600280546001600160a01b038481166001600160a01b031992831681179093556003805491851691831682179055600080548316841790556001805490921681179091556040805130815260208101939093528201527f391e7445162e95b0462700ab996083fc3e40222a108de81e4fbea5e9ddfdaae1906060016104a5565b60ff81166112be576008805462ff0000191662010000179055600a80546000919060ff19166001835b021790555061130f565b8060ff16600114156112e9576008805462ff000019169055600a80546001919060ff191682806112b4565b8060ff166002141561130f576008805462ff000019169055600a805460ff191660021790555b600a546040517f8c5acf85d257fc548b6710d2ceeffe7d4b9b4dc7ed2866b316815c2ab592b9f69161134691309160ff1690611ea8565b60405180910390a150565b82805482825590600052602060002090810192821561139e579160200282015b8281111561139e578251805161138e91849160209091019061142e565b5091602001919060010190611371565b506113aa9291506114a2565b5090565b8280546113ba90611d35565b90600052602060002090601f0160209004810192826113dc5760008555611422565b82601f106113f55782800160ff19823516178555611422565b82800160010185558215611422579182015b82811115611422578235825591602001919060010190611407565b506113aa9291506114bf565b82805461143a90611d35565b90600052602060002090601f01602090048101928261145c5760008555611422565b82601f1061147557805160ff1916838001178555611422565b82800160010185558215611422579182015b82811115611422578251825591602001919060010190611487565b808211156113aa5760006114b682826114d4565b506001016114a2565b5b808211156113aa57600081556001016114c0565b5080546114e090611d35565b6000825580601f106114f0575050565b601f01602090049060005260206000209081019061150e91906114bf565b50565b60006020828403121561152357600080fd5b5035919050565b634e487b7160e01b600052604160045260246000fd5b604051601f8201601f1916810167ffffffffffffffff811182821017156115695761156961152a565b604052919050565b600067ffffffffffffffff82111561158b5761158b61152a565b50601f01601f191660200190565b600060208083850312156115ac57600080fd5b823567ffffffffffffffff808211156115c457600080fd5b818501915085601f8301126115d857600080fd5b8135818111156115ea576115ea61152a565b8060051b6115f9858201611540565b918252838101850191858101908984111561161357600080fd5b86860192505b83831015611693578235858111156116315760008081fd5b8601603f81018b136116435760008081fd5b87810135604061165a61165583611571565b611540565b8281528d8284860101111561166f5760008081fd5b828285018c83013760009281018b0192909252508352509186019190860190611619565b9998505050505050505050565b803560ff811681146116b157600080fd5b919050565b6000602082840312156116c857600080fd5b6116d1826116a0565b9392505050565b60008083601f8401126116ea57600080fd5b50813567ffffffffffffffff81111561170257600080fd5b60208301915083602082850101111561171a57600080fd5b9250929050565b6000806020838503121561173457600080fd5b823567ffffffffffffffff81111561174b57600080fd5b611757858286016116d8565b90969095509350505050565b6001600160a01b038116811461150e57600080fd5b6000806000806080858703121561178e57600080fd5b843561179981611763565b9350602085013592506040850135915060608501356117b781611763565b939692955090935050565b60005b838110156117dd5781810151838201526020016117c5565b838111156117ec576000848401525b50505050565b6000815180845261180a8160208601602086016117c2565b601f01601f19169290920160200192915050565b600081518084526020808501808196508360051b8101915082860160005b858110156118665782840389526118548483516117f2565b9885019893509084019060010161183c565b5091979650505050505050565b6020815261188d6020820183516001600160a01b03169052565b600060208301516118a960408401826001600160a01b03169052565b5060408301516101408060608501526118c66101608501836117f2565b91506060850151601f19808685030160808701526118e484836117f2565b935060808701519150808685030160a087015261190184836117f2565b935060a087015160c087015260c0870151915061192360e087018360ff169052565b60e0870151915061010061193b8188018460ff169052565b87015191506101206119508782018415159052565b870151868503909101838701529050611969838261181e565b9695505050505050565b6001600160a01b038a8116825289166020820152610120604082018190526000906119a08382018b6117f2565b905082810360608401526119b4818a6117f2565b905082810360808401526119c881896117f2565b60a0840197909752505060ff93841660c08201529190921660e08201529015156101009091015295945050505050565b600060208284031215611a0a57600080fd5b81356116d181611763565b60038110611a3357634e487b7160e01b600052602160045260246000fd5b9052565b60208101611a458284611a15565b92915050565b600080600080600060808688031215611a6357600080fd5b8535611a6e81611763565b94506020860135611a7e81611763565b9350611a8c604087016116a0565b9250606086013567ffffffffffffffff811115611aa857600080fd5b611ab4888289016116d8565b969995985093965092949392505050565b6001600160a01b0386811682528516602082015260ff8416604082015260a060608201819052600090611afa908301856117f2565b90508260808301529695505050505050565b60008060408385031215611b1f57600080fd5b8235611b2a81611763565b91506020830135611b3a81611763565b809150509250929050565b6020808252601d908201527f4d6574686f64206973207265737472696374656420746f204f776e6572000000604082015260600190565b60018060a01b038316815260606020820152600c60608201526b1a5b5859d952541194d55c9b60a21b608082015260a060408201526000611bc060a08301846117f2565b949350505050565b600060208284031215611bda57600080fd5b815167ffffffffffffffff811115611bf157600080fd5b8201601f81018413611c0257600080fd5b8051611c1061165582611571565b818152856020838501011115611c2557600080fd5b611c368260208301602086016117c2565b95945050505050565b60018060a01b03831681526060602082015260146060820152736d6178416c6c6f7761626c654c6174654461797360601b608082015260a060408201526000611bc060a08301846117f2565b81835281816020850137506000828201602090810191909152601f909101601f19169091010190565b60018060a01b038416815260606020820152600b60608201526a3232b9b1b934b83a34b7b760a91b608082015260a060408201526000611c3660a083018486611c8b565b634e487b7160e01b600052601160045260246000fd5b60006001600160801b0380831681811415611d2b57611d2b611cf8565b6001019392505050565b600181811c90821680611d4957607f821691505b60208210811415610d8957634e487b7160e01b600052602260045260246000fd5b60018060a01b038416815260606020820152601860608201527f636f6c6c656374696f6e2f72657475726e416464726573730000000000000000608082015260a060408201526000611c3660a083018486611c8b565b634e487b7160e01b600052603260045260246000fd5b60008219821115611de957611de9611cf8565b500190565b6000600019821415611e0257611e02611cf8565b5060010190565b60018060a01b03841681526060602082015260046060820152636e616d6560e01b608082015260a060408201526000611c3660a083018486611c8b565b600060ff821660ff811415611e5d57611e5d611cf8565b60010192915050565b60018060a01b038316815260606020820152600a60608201526972656e7450657244617960b01b608082015260a060408201526000611bc060a08301846117f2565b6001600160a01b0383168152604081016116d16020830184611a1556fe1fb119ae646ad419061c26b2c9f00687535e680f4cabbaa1a12df632a4668054a26469706673582212202cf6a74618fd4979d5ab61935800bec003f7ed54e693bc53a041ede6889ada0564736f6c634300080c0033",
  "immutableReferences": {},
  "source": "// SPDX-License-Identifier: GPL-3.0\n\npragma solidity >=0.7.0 <0.9.0;\n\nimport \"./helpers/Utils.sol\";\nimport \"./helpers/Structs.sol\";\nimport \"./User.sol\";\nimport \"./Rental.sol\";\n\ncontract Item {\n    using Utils for *;\n\n    enum ItemStatus {\n        AVAILABLE,\n        HIDDEN,\n        DELETED\n    }\n\n    struct RentalStartEnd {\n        uint256 start; // Unix epoch time\n        uint256 end; // Unix epoch time\n    }\n\n    struct Review {\n        address rentalContract;\n        address raterUserContract;\n        uint8 rate;\n        string review;\n        uint256 time;\n    }\n\n    address public ownerUserContract;\n    address public ownerAddress;\n    Structs.ItemDetails public itemDetails;\n    ItemStatus public itemStatus;\n\n    address[] public rentalContracts;\n    uint128 public rentalContractCount;\n    RentalStartEnd[] public rentalPeriods;\n\n    address[] public renters;\n    uint128 public renterCount;\n    mapping(address => bool) public isRenter;\n\n    uint8 public reviewCount;\n    Review[] public reviews;\n\n    event itemOwnerChanged(\n        address item,\n        address newOwnerUserContract,\n        address newOwnerAddress\n    );\n    event itemStatusChanged(address item, ItemStatus newStatus);\n    event itemDetailsChanged(address item, string property, string newDetails);\n    event newReviewInput(address indexed from, uint8 rate, uint8 reviewCount);\n\n    constructor(Structs.ItemDetails memory _itemDetails) {\n        itemDetails = _itemDetails;\n        ownerUserContract = itemDetails.ownerUserContract;\n        ownerAddress = itemDetails.ownerAddress;\n\n        if (itemDetails.isAvailableForRent) {\n            itemStatus = ItemStatus.AVAILABLE;\n        } else {\n            itemStatus = ItemStatus.HIDDEN;\n        }\n\n        rentalContractCount = 0;\n        reviewCount = 0;\n    }\n\n    modifier onlyOwner() {\n        require(msg.sender == ownerAddress, \"Method is restricted to Owner\");\n        _;\n    }\n\n    modifier onlyRenter() {\n        require(isRenter[msg.sender], \"Method is restricted to Renter\");\n        _;\n    }\n\n    function getItemDetails() public view returns (Structs.ItemDetails memory) {\n        return itemDetails;\n    }\n\n    function getOwnerUserContract() public view returns (address) {\n        return ownerUserContract;\n    }\n\n    function changeOwner(\n        address _newOwnerUserContract,\n        address payable _newOwnerAddress\n    ) public onlyOwner {\n        itemDetails.ownerUserContract = _newOwnerUserContract;\n        itemDetails.ownerAddress = _newOwnerAddress;\n        ownerUserContract = _newOwnerUserContract;\n        ownerAddress = _newOwnerAddress;\n\n        emit itemOwnerChanged(\n            address(this),\n            _newOwnerUserContract,\n            _newOwnerAddress\n        );\n    }\n\n    function changeItemStatus(uint8 _newStatus) public {\n        if (_newStatus == 0) {\n            itemDetails.isAvailableForRent = true;\n            itemStatus = ItemStatus.AVAILABLE;\n        } else if (_newStatus == 1) {\n            itemDetails.isAvailableForRent = false;\n            itemStatus = ItemStatus.HIDDEN;\n        } else if (_newStatus == 2) {\n            itemDetails.isAvailableForRent = false;\n            itemStatus = ItemStatus.DELETED;\n        }\n\n        emit itemStatusChanged(address(this), itemStatus);\n    }\n\n    function changeItemName(string calldata _newName) public onlyOwner {\n        itemDetails.name = _newName;\n        emit itemDetailsChanged(address(this), \"name\", _newName);\n    }\n\n    function changeItemCollectionOrReturnAddress(string calldata _newAddress)\n        public\n        onlyOwner\n    {\n        itemDetails.collectionOrReturnAddress = _newAddress;\n        emit itemDetailsChanged(\n            address(this),\n            \"collection/returnAddress\",\n            _newAddress\n        );\n    }\n\n    function changeItemDescription(string calldata _newDescription)\n        public\n        onlyOwner\n    {\n        itemDetails.description = _newDescription;\n        emit itemDetailsChanged(address(this), \"description\", _newDescription);\n    }\n\n    function changeItemRentPerDay(uint256 _newRentPerDay) public onlyOwner {\n        itemDetails.rentPerDay = _newRentPerDay;\n        string memory newRentPerDay = Utils.uint2str(_newRentPerDay);\n        emit itemDetailsChanged(\n            address(this),\n            \"rentPerDay\",\n            string(newRentPerDay)\n        );\n    }\n\n    function changeItemMaxAllowableLateDays(uint8 _newMaxAllowableLateDays)\n        public\n        onlyOwner\n    {\n        itemDetails.maxAllowableLateDays = _newMaxAllowableLateDays;\n        string memory newMaxAllowableLateDays = Utils.uint2str(\n            _newMaxAllowableLateDays\n        );\n        emit itemDetailsChanged(\n            address(this),\n            \"maxAllowableLateDays\",\n            newMaxAllowableLateDays\n        );\n    }\n\n    function changeItemImageIPFSUrl(string[] memory _newimageIPFSUrl)\n        public\n        onlyOwner\n    {\n        itemDetails.imageIPFSUrl = _newimageIPFSUrl;\n        string memory newImageIPFSUrl = \"newImageIPFSUrl\";\n\n        emit itemDetailsChanged(address(this), \"imageIPFSUrl\", newImageIPFSUrl);\n    }\n\n    function handleNewRental(\n        address _newRentalContract,\n        uint256 _start,\n        uint256 _end,\n        address _renterAddress\n    ) public {\n        rentalContracts.push(address(_newRentalContract));\n        rentalContractCount++;\n\n        rentalPeriods.push(RentalStartEnd({start: _start, end: _end}));\n\n        renters.push(_renterAddress);\n        isRenter[_renterAddress] = true;\n        renterCount++;\n    }\n\n    function inputReview(\n        address _rentalContract,\n        address _raterUserContract,\n        uint8 _rate,\n        string calldata _review\n    ) public onlyRenter {\n        Review memory newReview = Review({\n            rentalContract: _rentalContract,\n            rate: _rate,\n            raterUserContract: _raterUserContract,\n            review: _review,\n            time: block.timestamp\n        });\n\n        reviews.push(newReview);\n        reviewCount++;\n\n        emit newReviewInput(_raterUserContract, _rate, reviewCount);\n    }\n\n    function getRatingsSum() public view returns (uint256) {\n        uint256 sum = 0;\n        for (uint256 i = 0; i < reviewCount; i++) {\n            sum += reviews[i].rate;\n        }\n        return sum;\n    }\n}\n",
  "sourcePath": "/Users/jyuteo/CodeProjects/TRent/smart-contracts/src/contracts/Item.sol",
  "compiler": {
    "name": "solc",
    "version": "0.8.12+commit.f00d7308.Emscripten.clang"
  },
  "schemaVersion": "3.4.3",
  "updatedAt": "2022-03-02T09:52:11.919Z",
  "devdoc": {
    "kind": "dev",
    "methods": {},
    "version": 1
  },
  "userdoc": {
    "kind": "user",
    "methods": {},
    "version": 1
  }
}