{
  "contractName": "Rental",
  "abi": [
    {
      "inputs": [
        {
          "internalType": "address",
          "name": "_itemContract",
          "type": "address"
        },
        {
          "components": [
            {
              "internalType": "address",
              "name": "ownerUserContract",
              "type": "address"
            },
            {
              "internalType": "address payable",
              "name": "ownerAddress",
              "type": "address"
            },
            {
              "internalType": "string",
              "name": "name",
              "type": "string"
            },
            {
              "internalType": "string",
              "name": "description",
              "type": "string"
            },
            {
              "internalType": "string",
              "name": "collectionOrReturnAddress",
              "type": "string"
            },
            {
              "internalType": "uint256",
              "name": "rentPerDay",
              "type": "uint256"
            },
            {
              "internalType": "uint8",
              "name": "maxAllowableLateDays",
              "type": "uint8"
            },
            {
              "internalType": "uint8",
              "name": "multipleForLateFees",
              "type": "uint8"
            },
            {
              "internalType": "bool",
              "name": "isAvailableForRent",
              "type": "bool"
            },
            {
              "internalType": "string[]",
              "name": "imageIPFSUrl",
              "type": "string[]"
            }
          ],
          "internalType": "struct Structs.ItemDetails",
          "name": "_itemDetails",
          "type": "tuple"
        },
        {
          "internalType": "address",
          "name": "_renterUserContractAddress",
          "type": "address"
        },
        {
          "internalType": "address payable",
          "name": "_renterAddress",
          "type": "address"
        },
        {
          "internalType": "uint256",
          "name": "_rentalFees",
          "type": "uint256"
        },
        {
          "internalType": "uint256",
          "name": "_renterDeposit",
          "type": "uint256"
        },
        {
          "internalType": "uint256",
          "name": "_start",
          "type": "uint256"
        },
        {
          "internalType": "uint256",
          "name": "_end",
          "type": "uint256"
        }
      ],
      "stateMutability": "payable",
      "type": "constructor"
    },
    {
      "anonymous": false,
      "inputs": [
        {
          "indexed": false,
          "internalType": "address",
          "name": "itemContract",
          "type": "address"
        },
        {
          "indexed": false,
          "internalType": "address",
          "name": "renterAddress",
          "type": "address"
        },
        {
          "indexed": false,
          "internalType": "address",
          "name": "ownerAddress",
          "type": "address"
        }
      ],
      "name": "itemRented",
      "type": "event"
    },
    {
      "anonymous": false,
      "inputs": [
        {
          "indexed": false,
          "internalType": "address",
          "name": "itemContract",
          "type": "address"
        },
        {
          "indexed": false,
          "internalType": "address",
          "name": "renterAddress",
          "type": "address"
        },
        {
          "indexed": false,
          "internalType": "address",
          "name": "ownerAddress",
          "type": "address"
        }
      ],
      "name": "itemReturned",
      "type": "event"
    },
    {
      "anonymous": false,
      "inputs": [
        {
          "indexed": false,
          "internalType": "address",
          "name": "itemContract",
          "type": "address"
        },
        {
          "indexed": false,
          "internalType": "address",
          "name": "rentalContract",
          "type": "address"
        }
      ],
      "name": "rentalEnded",
      "type": "event"
    },
    {
      "inputs": [],
      "name": "end",
      "outputs": [
        {
          "internalType": "uint256",
          "name": "",
          "type": "uint256"
        }
      ],
      "stateMutability": "view",
      "type": "function"
    },
    {
      "inputs": [],
      "name": "itemContract",
      "outputs": [
        {
          "internalType": "address",
          "name": "",
          "type": "address"
        }
      ],
      "stateMutability": "view",
      "type": "function"
    },
    {
      "inputs": [],
      "name": "ownerAddress",
      "outputs": [
        {
          "internalType": "address payable",
          "name": "",
          "type": "address"
        }
      ],
      "stateMutability": "view",
      "type": "function"
    },
    {
      "inputs": [],
      "name": "ownerClaimRentalFeesTimestamp",
      "outputs": [
        {
          "internalType": "uint256",
          "name": "",
          "type": "uint256"
        }
      ],
      "stateMutability": "view",
      "type": "function"
    },
    {
      "inputs": [],
      "name": "ownerDeposit",
      "outputs": [
        {
          "internalType": "uint256",
          "name": "",
          "type": "uint256"
        }
      ],
      "stateMutability": "view",
      "type": "function"
    },
    {
      "inputs": [],
      "name": "ownerProofOfTransfer",
      "outputs": [
        {
          "internalType": "string",
          "name": "",
          "type": "string"
        }
      ],
      "stateMutability": "view",
      "type": "function"
    },
    {
      "inputs": [],
      "name": "ownerUploadProofOfTransferTimestamp",
      "outputs": [
        {
          "internalType": "uint256",
          "name": "",
          "type": "uint256"
        }
      ],
      "stateMutability": "view",
      "type": "function"
    },
    {
      "inputs": [],
      "name": "rentPerDay",
      "outputs": [
        {
          "internalType": "uint256",
          "name": "",
          "type": "uint256"
        }
      ],
      "stateMutability": "view",
      "type": "function"
    },
    {
      "inputs": [],
      "name": "rentalFees",
      "outputs": [
        {
          "internalType": "uint256",
          "name": "",
          "type": "uint256"
        }
      ],
      "stateMutability": "view",
      "type": "function"
    },
    {
      "inputs": [],
      "name": "rentalFeesPaid",
      "outputs": [
        {
          "internalType": "uint256",
          "name": "",
          "type": "uint256"
        }
      ],
      "stateMutability": "view",
      "type": "function"
    },
    {
      "inputs": [],
      "name": "rentalStatus",
      "outputs": [
        {
          "internalType": "enum Rental.RentalStatus",
          "name": "",
          "type": "uint8"
        }
      ],
      "stateMutability": "view",
      "type": "function"
    },
    {
      "inputs": [],
      "name": "renterAddress",
      "outputs": [
        {
          "internalType": "address payable",
          "name": "",
          "type": "address"
        }
      ],
      "stateMutability": "view",
      "type": "function"
    },
    {
      "inputs": [],
      "name": "renterCreateRentalContractTimestamp",
      "outputs": [
        {
          "internalType": "uint256",
          "name": "",
          "type": "uint256"
        }
      ],
      "stateMutability": "view",
      "type": "function"
    },
    {
      "inputs": [],
      "name": "renterDeposit",
      "outputs": [
        {
          "internalType": "uint256",
          "name": "",
          "type": "uint256"
        }
      ],
      "stateMutability": "view",
      "type": "function"
    },
    {
      "inputs": [],
      "name": "renterPayRentalTimestamp",
      "outputs": [
        {
          "internalType": "uint256",
          "name": "",
          "type": "uint256"
        }
      ],
      "stateMutability": "view",
      "type": "function"
    },
    {
      "inputs": [],
      "name": "renterProofOfReturn",
      "outputs": [
        {
          "internalType": "string",
          "name": "",
          "type": "string"
        }
      ],
      "stateMutability": "view",
      "type": "function"
    },
    {
      "inputs": [],
      "name": "renterUploadProofOfReturnTimestamp",
      "outputs": [
        {
          "internalType": "uint256",
          "name": "",
          "type": "uint256"
        }
      ],
      "stateMutability": "view",
      "type": "function"
    },
    {
      "inputs": [],
      "name": "renterUserContractAddress",
      "outputs": [
        {
          "internalType": "address",
          "name": "",
          "type": "address"
        }
      ],
      "stateMutability": "view",
      "type": "function"
    },
    {
      "inputs": [],
      "name": "start",
      "outputs": [
        {
          "internalType": "uint256",
          "name": "",
          "type": "uint256"
        }
      ],
      "stateMutability": "view",
      "type": "function"
    },
    {
      "inputs": [],
      "name": "getRenterAddress",
      "outputs": [
        {
          "internalType": "address",
          "name": "",
          "type": "address"
        }
      ],
      "stateMutability": "view",
      "type": "function"
    },
    {
      "inputs": [],
      "name": "getContractBalance",
      "outputs": [
        {
          "internalType": "uint256",
          "name": "",
          "type": "uint256"
        }
      ],
      "stateMutability": "view",
      "type": "function"
    },
    {
      "inputs": [],
      "name": "getRentalStatus",
      "outputs": [
        {
          "internalType": "enum Rental.RentalStatus",
          "name": "",
          "type": "uint8"
        }
      ],
      "stateMutability": "view",
      "type": "function"
    },
    {
      "inputs": [
        {
          "internalType": "string",
          "name": "_ownerProofOfTransfer",
          "type": "string"
        },
        {
          "internalType": "uint256",
          "name": "_ownerDeposit",
          "type": "uint256"
        }
      ],
      "name": "uploadOwnerProofOfTransferAndPayDeposit",
      "outputs": [],
      "stateMutability": "payable",
      "type": "function"
    },
    {
      "inputs": [
        {
          "internalType": "string",
          "name": "_renterProofOfReturn",
          "type": "string"
        }
      ],
      "name": "uploadRenterProofOfReturn",
      "outputs": [],
      "stateMutability": "nonpayable",
      "type": "function"
    },
    {
      "inputs": [
        {
          "internalType": "uint256",
          "name": "_amount",
          "type": "uint256"
        }
      ],
      "name": "payRentalIncludingLateFees",
      "outputs": [],
      "stateMutability": "payable",
      "type": "function"
    },
    {
      "inputs": [],
      "name": "settleDeposit",
      "outputs": [],
      "stateMutability": "nonpayable",
      "type": "function"
    },
    {
      "inputs": [],
      "name": "settleRentalAfterFiveLateDays",
      "outputs": [],
      "stateMutability": "payable",
      "type": "function"
    }
  ],
  "bytecode": "0x60806040526040516200178f3803806200178f83398101604081905262000026916200038e565b604051638dfd0b0360e01b81526004810184905273__Utils_________________________________90638dfd0b0390602401602060405180830381865af415801562000077573d6000803e3d6000fd5b505050506040513d601f19601f820116820180604052508101906200009d919062000548565b3414620001065760405162461bcd60e51b815260206004820152602d60248201527f56616c7565207472616e736665726564206e6f7420657175616c20746f20726560448201526c1c5d5a5c995908185b5bdd5b9d609a1b606482015260840160405180910390fd5b600080546001600160a01b03199081166001600160a01b039a8b161790915560a0880151600155602090970151600a80548916918a1691909117905560028054968916610100026001600160a81b0319909716969096179095556003805494909716939095169290921790945560045560059190915560065560085542600d5562000562565b6001600160a01b0381168114620001a257600080fd5b50565b8051620001b2816200018c565b919050565b634e487b7160e01b600052604160045260246000fd5b60405161014081016001600160401b0381118282101715620001f357620001f3620001b7565b60405290565b604051601f8201601f191681016001600160401b0381118282101715620002245762000224620001b7565b604052919050565b600082601f8301126200023e57600080fd5b81516001600160401b038111156200025a576200025a620001b7565b602062000270601f8301601f19168201620001f9565b82815285828487010111156200028557600080fd5b60005b83811015620002a557858101830151828201840152820162000288565b83811115620002b75760008385840101525b5095945050505050565b805160ff81168114620001b257600080fd5b80518015158114620001b257600080fd5b600082601f830112620002f657600080fd5b815160206001600160401b0380831115620003155762000315620001b7565b8260051b62000326838201620001f9565b93845285810183019383810190888611156200034157600080fd5b84880192505b858310156200038257825184811115620003615760008081fd5b620003718a87838c01016200022c565b835250918401919084019062000347565b98975050505050505050565b600080600080600080600080610100808a8c031215620003ad57600080fd5b8951620003ba816200018c565b60208b01519099506001600160401b0380821115620003d857600080fd5b908b0190610140828e031215620003ee57600080fd5b620003f8620001cd565b6200040383620001a5565b81526200041360208401620001a5565b60208201526040830151828111156200042b57600080fd5b620004398f8286016200022c565b6040830152506060830151828111156200045257600080fd5b620004608f8286016200022c565b6060830152506080830151828111156200047957600080fd5b620004878f8286016200022c565b60808301525060a083015160a0820152620004a560c08401620002c1565b60c0820152620004b860e08401620002c1565b60e0820152620004ca848401620002d3565b8482015261012093508383015182811115620004e557600080fd5b620004f38f828601620002e4565b8583015250809a50505050506200050d60408a01620001a5565b95506200051d60608a01620001a5565b94506080890151935060a0890151925060c0890151915060e089015190509295985092959890939650565b6000602082840312156200055b57600080fd5b5051919050565b61121d80620005726000396000f3fe60806040526004361061019c5760003560e01c80638f84aa09116100ec578063c3efc7341161008a578063e110930511610064578063e110930514610409578063e1439c6b1461041f578063eb144c1d1461043d578063efbe1c1c1461045357600080fd5b8063c3efc734146103d3578063c803b303146103eb578063cbfbb5a31461040157600080fd5b80639b306fdc116100c65780639b306fdc146103745780639e6aadc314610387578063b4f12ae7146103a7578063be9a6555146103bd57600080fd5b80638f84aa091461031e57806395afe3981461033e57806398c720121461035457600080fd5b80635d02789c1161015957806373ef94f91161013357806373ef94f9146102bd5780637b1aa45f146102d35780637c6fadcd146102e95780638d76f940146102fe57600080fd5b80635d02789c146102575780636922fb891461026d5780636f9fb98a146102aa57600080fd5b8063022576f0146101a157806331d019b7146101b65780634c94ffcb146101e65780634f4687ea1461020a578063558bd2e014610220578063559ec80d14610242575b600080fd5b6101b46101af366004610f02565b610469565b005b3480156101c257600080fd5b506002546101d09060ff1681565b6040516101dd9190610f31565b60405180910390f35b3480156101f257600080fd5b506101fc600f5481565b6040519081526020016101dd565b34801561021657600080fd5b506101fc60085481565b34801561022c57600080fd5b506102356106b6565b6040516101dd9190610f59565b34801561024e57600080fd5b506101b4610744565b34801561026357600080fd5b506101fc60115481565b34801561027957600080fd5b506002546102929061010090046001600160a01b031681565b6040516001600160a01b0390911681526020016101dd565b3480156102b657600080fd5b50476101fc565b3480156102c957600080fd5b506101fc60095481565b3480156102df57600080fd5b506101fc600b5481565b3480156102f557600080fd5b506102356109ae565b34801561030a57600080fd5b50600054610292906001600160a01b031681565b34801561032a57600080fd5b50600a54610292906001600160a01b031681565b34801561034a57600080fd5b506101fc60045481565b34801561036057600080fd5b506101b461036f366004611051565b6109bb565b6101b461038236600461108e565b610af9565b34801561039357600080fd5b50600354610292906001600160a01b031681565b3480156103b357600080fd5b506101fc60105481565b3480156103c957600080fd5b506101fc60055481565b3480156103df57600080fd5b5060025460ff166101d0565b3480156103f757600080fd5b506101fc600e5481565b6101b4610c9e565b34801561041557600080fd5b506101fc60015481565b34801561042b57600080fd5b506003546001600160a01b0316610292565b34801561044957600080fd5b506101fc600d5481565b34801561045f57600080fd5b506101fc60065481565b6003546001600160a01b031633146104c85760405162461bcd60e51b815260206004820152601e60248201527f4d6574686f64206973207265737472696374656420746f2052656e746572000060448201526064015b60405180910390fd5b604051638dfd0b0360e01b81526004810182905273__Utils_________________________________90638dfd0b0390602401602060405180830381865af4158015610518573d6000803e3d6000fd5b505050506040513d601f19601f8201168201806040525081019061053c91906110d3565b341461055a5760405162461bcd60e51b81526004016104bf906110ec565b600854604051638dfd0b0360e01b8152600481019190915273__Utils_________________________________90638dfd0b0390602401602060405180830381865af41580156105ae573d6000803e3d6000fd5b505050506040513d601f19601f820116820180604052508101906105d291906110d3565b34101561062f5760405162461bcd60e51b815260206004820152602560248201527f52656e74616c2070616964206c657373207468616e20726571756972656420616044820152641b5bdd5b9d60da1b60648201526084016104bf565b600160025460ff16600381111561064857610648610f1b565b146106955760405162461bcd60e51b815260206004820181905260248201527f496e76616c69642072656e74616c2073746174757320666f72206d6574686f6460448201526064016104bf565b42600f8190555080600960008282546106ae9190611139565b909155505050565b600780546106c39061115f565b80601f01602080910402602001604051908101604052809291908181526020018280546106ef9061115f565b801561073c5780601f106107115761010080835404028352916020019161073c565b820191906000526020600020905b81548152906001019060200180831161071f57829003601f168201915b505050505081565b600a546001600160a01b0316331461076e5760405162461bcd60e51b81526004016104bf9061119a565b6002805460ff16600381111561078657610786610f1b565b148015610797575060085460095410155b6107fe5760405162461bcd60e51b815260206004820152603260248201527f556e61626c6520746f20636c61696d207061796d656e7420776974682063757260448201527172656e742072656e74616c2073746174757360701b60648201526084016104bf565b6000600b54118061081157506000600454115b61085d5760405162461bcd60e51b815260206004820152601d60248201527f4e6f2072656d61696e696e67206465706f73697420746f20636c61696d00000060448201526064016104bf565b60035460048054604051638dfd0b0360e01b8152918201526001600160a01b03909116906108fc9073__Utils_________________________________90638dfd0b0390602401602060405180830381865af41580156108c1573d6000803e3d6000fd5b505050506040513d601f19601f820116820180604052508101906108e591906110d3565b6040518115909202916000818181858888f1935050505015801561090d573d6000803e3d6000fd5b50600a546040516001600160a01b03909116904780156108fc02916000818181858888f19350505050158015610947573d6000803e3d6000fd5b504715610956576109566111d1565b6002805460ff1916600317905542601155600054604080516001600160a01b0390921682523060208301527f6a5d55ef84f2d6da57cc86de121fc1c7a8392770ff8f357998e87beb5c310491910160405180910390a1565b600c80546106c39061115f565b6003546001600160a01b03163314610a155760405162461bcd60e51b815260206004820152601e60248201527f4d6574686f64206973207265737472696374656420746f2052656e746572000060448201526064016104bf565b6008546009541015610a7e5760405162461bcd60e51b815260206004820152602c60248201527f52656e74616c2066656573206861766520746f2062652070616964206265666f60448201526b72652072657475726e696e6760a01b60648201526084016104bf565b8051610a91906007906020840190610e69565b506002805460ff19168117905542601055600054600354600a54604080516001600160a01b039485168152928416602084015292168183015290517f2b7164dceeb2fccf197390bacb5fa0bceed217160220dd6b0e32124ab71fe8e09181900360600190a150565b600a546001600160a01b03163314610b235760405162461bcd60e51b81526004016104bf9061119a565b604051638dfd0b0360e01b81526004810182905273__Utils_________________________________90638dfd0b0390602401602060405180830381865af4158015610b73573d6000803e3d6000fd5b505050506040513d601f19601f82011682018060405250810190610b9791906110d3565b3414610bb55760405162461bcd60e51b81526004016104bf906110ec565b600060025460ff166003811115610bce57610bce610f1b565b14610c1b5760405162461bcd60e51b815260206004820181905260248201527f496e76616c69642072656e74616c2073746174757320666f72206d6574686f6460448201526064016104bf565b600b8190558151610c3390600c906020850190610e69565b506002805460ff1916600117905542600e55600054600354600a54604080516001600160a01b039485168152928416602084015292168183015290517fbee4505063610f2c2522d8c40dc9c857aeceb46a2fcecc7051c9d28a42312e23916060908290030190a15050565b600a546001600160a01b03163314610cc85760405162461bcd60e51b81526004016104bf9061119a565b600160025460ff166003811115610ce157610ce1610f1b565b14610d495760405162461bcd60e51b815260206004820152603260248201527f556e61626c6520746f20736574746c652072656e74616c20776974682063757260448201527172656e742072656e74616c2073746174757360701b60648201526084016104bf565b6000546040516001620b258d60e21b03198152600260048201526001600160a01b0390911690819063ffd369cc90602401600060405180830381600087803b158015610d9457600080fd5b505af1158015610da8573d6000803e3d6000fd5b5050600a546040516001600160a01b0390911692504780156108fc029250906000818181858888f19350505050158015610de6573d6000803e3d6000fd5b506000600260019054906101000a90046001600160a01b03169050806001600160a01b031663922b57fa6040518163ffffffff1660e01b8152600401600060405180830381600087803b158015610e3c57600080fd5b505af1158015610e50573d6000803e3d6000fd5b50506002805460ff191660031790555050426011555050565b828054610e759061115f565b90600052602060002090601f016020900481019282610e975760008555610edd565b82601f10610eb057805160ff1916838001178555610edd565b82800160010185558215610edd579182015b82811115610edd578251825591602001919060010190610ec2565b50610ee9929150610eed565b5090565b5b80821115610ee95760008155600101610eee565b600060208284031215610f1457600080fd5b5035919050565b634e487b7160e01b600052602160045260246000fd5b6020810160048310610f5357634e487b7160e01b600052602160045260246000fd5b91905290565b600060208083528351808285015260005b81811015610f8657858101830151858201604001528201610f6a565b81811115610f98576000604083870101525b50601f01601f1916929092016040019392505050565b634e487b7160e01b600052604160045260246000fd5b600082601f830112610fd557600080fd5b813567ffffffffffffffff80821115610ff057610ff0610fae565b604051601f8301601f19908116603f0116810190828211818310171561101857611018610fae565b8160405283815286602085880101111561103157600080fd5b836020870160208301376000602085830101528094505050505092915050565b60006020828403121561106357600080fd5b813567ffffffffffffffff81111561107a57600080fd5b61108684828501610fc4565b949350505050565b600080604083850312156110a157600080fd5b823567ffffffffffffffff8111156110b857600080fd5b6110c485828601610fc4565b95602094909401359450505050565b6000602082840312156110e557600080fd5b5051919050565b6020808252602d908201527f56616c7565207472616e736665726564206e6f7420657175616c20746f20726560408201526c1c5d5a5c995908185b5bdd5b9d609a1b606082015260800190565b6000821982111561115a57634e487b7160e01b600052601160045260246000fd5b500190565b600181811c9082168061117357607f821691505b6020821081141561119457634e487b7160e01b600052602260045260246000fd5b50919050565b6020808252601d908201527f4d6574686f64206973207265737472696374656420746f204f776e6572000000604082015260600190565b634e487b7160e01b600052600160045260246000fdfea2646970667358221220a3ba8d8cdac05aeb60704c3241de535eb1b1ee260d71eb526369d0479eddaeaa64736f6c634300080b0033",
  "deployedBytecode": "0x60806040526004361061019c5760003560e01c80638f84aa09116100ec578063c3efc7341161008a578063e110930511610064578063e110930514610409578063e1439c6b1461041f578063eb144c1d1461043d578063efbe1c1c1461045357600080fd5b8063c3efc734146103d3578063c803b303146103eb578063cbfbb5a31461040157600080fd5b80639b306fdc116100c65780639b306fdc146103745780639e6aadc314610387578063b4f12ae7146103a7578063be9a6555146103bd57600080fd5b80638f84aa091461031e57806395afe3981461033e57806398c720121461035457600080fd5b80635d02789c1161015957806373ef94f91161013357806373ef94f9146102bd5780637b1aa45f146102d35780637c6fadcd146102e95780638d76f940146102fe57600080fd5b80635d02789c146102575780636922fb891461026d5780636f9fb98a146102aa57600080fd5b8063022576f0146101a157806331d019b7146101b65780634c94ffcb146101e65780634f4687ea1461020a578063558bd2e014610220578063559ec80d14610242575b600080fd5b6101b46101af366004610f02565b610469565b005b3480156101c257600080fd5b506002546101d09060ff1681565b6040516101dd9190610f31565b60405180910390f35b3480156101f257600080fd5b506101fc600f5481565b6040519081526020016101dd565b34801561021657600080fd5b506101fc60085481565b34801561022c57600080fd5b506102356106b6565b6040516101dd9190610f59565b34801561024e57600080fd5b506101b4610744565b34801561026357600080fd5b506101fc60115481565b34801561027957600080fd5b506002546102929061010090046001600160a01b031681565b6040516001600160a01b0390911681526020016101dd565b3480156102b657600080fd5b50476101fc565b3480156102c957600080fd5b506101fc60095481565b3480156102df57600080fd5b506101fc600b5481565b3480156102f557600080fd5b506102356109ae565b34801561030a57600080fd5b50600054610292906001600160a01b031681565b34801561032a57600080fd5b50600a54610292906001600160a01b031681565b34801561034a57600080fd5b506101fc60045481565b34801561036057600080fd5b506101b461036f366004611051565b6109bb565b6101b461038236600461108e565b610af9565b34801561039357600080fd5b50600354610292906001600160a01b031681565b3480156103b357600080fd5b506101fc60105481565b3480156103c957600080fd5b506101fc60055481565b3480156103df57600080fd5b5060025460ff166101d0565b3480156103f757600080fd5b506101fc600e5481565b6101b4610c9e565b34801561041557600080fd5b506101fc60015481565b34801561042b57600080fd5b506003546001600160a01b0316610292565b34801561044957600080fd5b506101fc600d5481565b34801561045f57600080fd5b506101fc60065481565b6003546001600160a01b031633146104c85760405162461bcd60e51b815260206004820152601e60248201527f4d6574686f64206973207265737472696374656420746f2052656e746572000060448201526064015b60405180910390fd5b604051638dfd0b0360e01b81526004810182905273__Utils_________________________________90638dfd0b0390602401602060405180830381865af4158015610518573d6000803e3d6000fd5b505050506040513d601f19601f8201168201806040525081019061053c91906110d3565b341461055a5760405162461bcd60e51b81526004016104bf906110ec565b600854604051638dfd0b0360e01b8152600481019190915273__Utils_________________________________90638dfd0b0390602401602060405180830381865af41580156105ae573d6000803e3d6000fd5b505050506040513d601f19601f820116820180604052508101906105d291906110d3565b34101561062f5760405162461bcd60e51b815260206004820152602560248201527f52656e74616c2070616964206c657373207468616e20726571756972656420616044820152641b5bdd5b9d60da1b60648201526084016104bf565b600160025460ff16600381111561064857610648610f1b565b146106955760405162461bcd60e51b815260206004820181905260248201527f496e76616c69642072656e74616c2073746174757320666f72206d6574686f6460448201526064016104bf565b42600f8190555080600960008282546106ae9190611139565b909155505050565b600780546106c39061115f565b80601f01602080910402602001604051908101604052809291908181526020018280546106ef9061115f565b801561073c5780601f106107115761010080835404028352916020019161073c565b820191906000526020600020905b81548152906001019060200180831161071f57829003601f168201915b505050505081565b600a546001600160a01b0316331461076e5760405162461bcd60e51b81526004016104bf9061119a565b6002805460ff16600381111561078657610786610f1b565b148015610797575060085460095410155b6107fe5760405162461bcd60e51b815260206004820152603260248201527f556e61626c6520746f20636c61696d207061796d656e7420776974682063757260448201527172656e742072656e74616c2073746174757360701b60648201526084016104bf565b6000600b54118061081157506000600454115b61085d5760405162461bcd60e51b815260206004820152601d60248201527f4e6f2072656d61696e696e67206465706f73697420746f20636c61696d00000060448201526064016104bf565b60035460048054604051638dfd0b0360e01b8152918201526001600160a01b03909116906108fc9073__Utils_________________________________90638dfd0b0390602401602060405180830381865af41580156108c1573d6000803e3d6000fd5b505050506040513d601f19601f820116820180604052508101906108e591906110d3565b6040518115909202916000818181858888f1935050505015801561090d573d6000803e3d6000fd5b50600a546040516001600160a01b03909116904780156108fc02916000818181858888f19350505050158015610947573d6000803e3d6000fd5b504715610956576109566111d1565b6002805460ff1916600317905542601155600054604080516001600160a01b0390921682523060208301527f6a5d55ef84f2d6da57cc86de121fc1c7a8392770ff8f357998e87beb5c310491910160405180910390a1565b600c80546106c39061115f565b6003546001600160a01b03163314610a155760405162461bcd60e51b815260206004820152601e60248201527f4d6574686f64206973207265737472696374656420746f2052656e746572000060448201526064016104bf565b6008546009541015610a7e5760405162461bcd60e51b815260206004820152602c60248201527f52656e74616c2066656573206861766520746f2062652070616964206265666f60448201526b72652072657475726e696e6760a01b60648201526084016104bf565b8051610a91906007906020840190610e69565b506002805460ff19168117905542601055600054600354600a54604080516001600160a01b039485168152928416602084015292168183015290517f2b7164dceeb2fccf197390bacb5fa0bceed217160220dd6b0e32124ab71fe8e09181900360600190a150565b600a546001600160a01b03163314610b235760405162461bcd60e51b81526004016104bf9061119a565b604051638dfd0b0360e01b81526004810182905273__Utils_________________________________90638dfd0b0390602401602060405180830381865af4158015610b73573d6000803e3d6000fd5b505050506040513d601f19601f82011682018060405250810190610b9791906110d3565b3414610bb55760405162461bcd60e51b81526004016104bf906110ec565b600060025460ff166003811115610bce57610bce610f1b565b14610c1b5760405162461bcd60e51b815260206004820181905260248201527f496e76616c69642072656e74616c2073746174757320666f72206d6574686f6460448201526064016104bf565b600b8190558151610c3390600c906020850190610e69565b506002805460ff1916600117905542600e55600054600354600a54604080516001600160a01b039485168152928416602084015292168183015290517fbee4505063610f2c2522d8c40dc9c857aeceb46a2fcecc7051c9d28a42312e23916060908290030190a15050565b600a546001600160a01b03163314610cc85760405162461bcd60e51b81526004016104bf9061119a565b600160025460ff166003811115610ce157610ce1610f1b565b14610d495760405162461bcd60e51b815260206004820152603260248201527f556e61626c6520746f20736574746c652072656e74616c20776974682063757260448201527172656e742072656e74616c2073746174757360701b60648201526084016104bf565b6000546040516001620b258d60e21b03198152600260048201526001600160a01b0390911690819063ffd369cc90602401600060405180830381600087803b158015610d9457600080fd5b505af1158015610da8573d6000803e3d6000fd5b5050600a546040516001600160a01b0390911692504780156108fc029250906000818181858888f19350505050158015610de6573d6000803e3d6000fd5b506000600260019054906101000a90046001600160a01b03169050806001600160a01b031663922b57fa6040518163ffffffff1660e01b8152600401600060405180830381600087803b158015610e3c57600080fd5b505af1158015610e50573d6000803e3d6000fd5b50506002805460ff191660031790555050426011555050565b828054610e759061115f565b90600052602060002090601f016020900481019282610e975760008555610edd565b82601f10610eb057805160ff1916838001178555610edd565b82800160010185558215610edd579182015b82811115610edd578251825591602001919060010190610ec2565b50610ee9929150610eed565b5090565b5b80821115610ee95760008155600101610eee565b600060208284031215610f1457600080fd5b5035919050565b634e487b7160e01b600052602160045260246000fd5b6020810160048310610f5357634e487b7160e01b600052602160045260246000fd5b91905290565b600060208083528351808285015260005b81811015610f8657858101830151858201604001528201610f6a565b81811115610f98576000604083870101525b50601f01601f1916929092016040019392505050565b634e487b7160e01b600052604160045260246000fd5b600082601f830112610fd557600080fd5b813567ffffffffffffffff80821115610ff057610ff0610fae565b604051601f8301601f19908116603f0116810190828211818310171561101857611018610fae565b8160405283815286602085880101111561103157600080fd5b836020870160208301376000602085830101528094505050505092915050565b60006020828403121561106357600080fd5b813567ffffffffffffffff81111561107a57600080fd5b61108684828501610fc4565b949350505050565b600080604083850312156110a157600080fd5b823567ffffffffffffffff8111156110b857600080fd5b6110c485828601610fc4565b95602094909401359450505050565b6000602082840312156110e557600080fd5b5051919050565b6020808252602d908201527f56616c7565207472616e736665726564206e6f7420657175616c20746f20726560408201526c1c5d5a5c995908185b5bdd5b9d609a1b606082015260800190565b6000821982111561115a57634e487b7160e01b600052601160045260246000fd5b500190565b600181811c9082168061117357607f821691505b6020821081141561119457634e487b7160e01b600052602260045260246000fd5b50919050565b6020808252601d908201527f4d6574686f64206973207265737472696374656420746f204f776e6572000000604082015260600190565b634e487b7160e01b600052600160045260246000fdfea2646970667358221220a3ba8d8cdac05aeb60704c3241de535eb1b1ee260d71eb526369d0479eddaeaa64736f6c634300080b0033",
  "immutableReferences": {},
  "source": "// SPDX-License-Identifier: GPL-3.0\n\npragma solidity >=0.7.0 <0.9.0;\n\nimport \"./User.sol\";\nimport \"./Item.sol\";\nimport \"./helpers/Utils.sol\";\nimport \"./helpers/Structs.sol\";\n\ncontract Rental {\n    using Utils for *;\n    using Structs for *;\n\n    enum RentalStatus {\n        CREATED,\n        RENTED,\n        RETURNED,\n        END\n    }\n\n    //--All fees unit are in gwei--//\n\n    address public itemContract;\n    uint256 public rentPerDay;\n\n    RentalStatus public rentalStatus;\n    address public renterUserContractAddress;\n    address payable public renterAddress;\n    uint256 public renterDeposit;\n    uint256 public start;\n    uint256 public end;\n    string public renterProofOfReturn; // IPFS hashes\n\n    uint256 public rentalFees;\n    uint256 public rentalFeesPaid;\n\n    address payable public ownerAddress;\n    uint256 public ownerDeposit;\n    string public ownerProofOfTransfer; // IPFS hashes\n\n    uint256 public renterCreateRentalContractTimestamp;\n    uint256 public ownerUploadProofOfTransferTimestamp;\n    uint256 public renterPayRentalTimestamp;\n    uint256 public renterUploadProofOfReturnTimestamp;\n    uint256 public ownerClaimRentalFeesTimestamp;\n\n    event itemRented(\n        address itemContract,\n        address renterAddress,\n        address ownerAddress\n    );\n\n    event itemReturned(\n        address itemContract,\n        address renterAddress,\n        address ownerAddress\n    );\n\n    event rentalEnded(address itemContract, address rentalContract);\n\n    constructor(\n        address _itemContract,\n        Structs.ItemDetails memory _itemDetails,\n        address _renterUserContractAddress,\n        address payable _renterAddress,\n        uint256 _rentalFees,\n        uint256 _renterDeposit,\n        uint256 _start,\n        uint256 _end\n    ) payable {\n        require(\n            msg.value == Utils.gweiToWei(_renterDeposit),\n            \"Value transfered not equal to required amount\"\n        );\n\n        itemContract = _itemContract;\n        rentPerDay = _itemDetails.rentPerDay;\n        ownerAddress = _itemDetails.ownerAddress;\n\n        rentalStatus = RentalStatus.CREATED;\n        renterUserContractAddress = _renterUserContractAddress;\n        renterAddress = _renterAddress;\n        renterDeposit = _renterDeposit;\n        start = _start;\n        end = _end;\n\n        rentalFees = _rentalFees;\n\n        renterCreateRentalContractTimestamp = block.timestamp;\n    }\n\n    modifier onlyOwner() {\n        require(msg.sender == ownerAddress, \"Method is restricted to Owner\");\n        _;\n    }\n\n    modifier onlyRenter() {\n        require(msg.sender == renterAddress, \"Method is restricted to Renter\");\n        _;\n    }\n\n    function getRenterAddress() public view returns (address) {\n        return renterAddress;\n    }\n\n    function getContractBalance() public view returns (uint256) {\n        return address(this).balance;\n    }\n\n    function getRentalStatus() public view returns (RentalStatus) {\n        return rentalStatus;\n    }\n\n    function uploadOwnerProofOfTransferAndPayDeposit(\n        string memory _ownerProofOfTransfer,\n        uint256 _ownerDeposit\n    ) public payable onlyOwner {\n        require(\n            msg.value == Utils.gweiToWei(_ownerDeposit),\n            \"Value transfered not equal to required amount\"\n        );\n        require(\n            rentalStatus == RentalStatus.CREATED,\n            \"Invalid rental status for method\"\n        );\n\n        ownerDeposit = _ownerDeposit;\n        ownerProofOfTransfer = _ownerProofOfTransfer;\n        rentalStatus = RentalStatus.RENTED;\n\n        ownerUploadProofOfTransferTimestamp = block.timestamp;\n\n        emit itemRented(itemContract, renterAddress, ownerAddress);\n    }\n\n    function uploadRenterProofOfReturn(string memory _renterProofOfReturn)\n        public\n        onlyRenter\n    {\n        require(\n            rentalFeesPaid >= rentalFees,\n            \"Rental fees have to be paid before returning\"\n        );\n\n        renterProofOfReturn = _renterProofOfReturn;\n        rentalStatus = RentalStatus.RETURNED;\n\n        renterUploadProofOfReturnTimestamp = block.timestamp;\n\n        emit itemReturned(itemContract, renterAddress, ownerAddress);\n    }\n\n    function payRentalIncludingLateFees(uint256 _amount)\n        public\n        payable\n        onlyRenter\n    {\n        require(\n            msg.value == Utils.gweiToWei(_amount),\n            \"Value transfered not equal to required amount\"\n        );\n        require(\n            msg.value >= Utils.gweiToWei(rentalFees),\n            \"Rental paid less than required amount\"\n        );\n        require(\n            rentalStatus == RentalStatus.RENTED,\n            \"Invalid rental status for method\"\n        );\n\n        renterPayRentalTimestamp = block.timestamp;\n\n        rentalFeesPaid += _amount;\n    }\n\n    // owner gets back deposit and receives rental fees paid, renter gets back deposit\n    function settleDeposit() public onlyOwner {\n        require(\n            rentalStatus == RentalStatus.RETURNED &&\n                rentalFeesPaid >= rentalFees,\n            \"Unable to claim payment with current rental status\"\n        );\n        require(\n            ownerDeposit > 0 || renterDeposit > 0,\n            \"No remaining deposit to claim\"\n        );\n\n        renterAddress.transfer(Utils.gweiToWei(renterDeposit));\n        ownerAddress.transfer(address(this).balance);\n\n        assert(address(this).balance == 0);\n        rentalStatus = RentalStatus.END;\n\n        ownerClaimRentalFeesTimestamp = block.timestamp;\n\n        emit rentalEnded(itemContract, address(this));\n    }\n\n    function settleRentalAfterFiveLateDays() public payable onlyOwner {\n        require(\n            rentalStatus == RentalStatus.RENTED,\n            \"Unable to settle rental with current rental status\"\n        );\n        // change item status\n        Item item = Item(itemContract);\n        item.changeItemStatus(2); // DELETED\n        // transfer all balance in the contract to owner\n        ownerAddress.transfer(address(this).balance);\n        // set renter as dishonest user\n        User user = User(renterUserContractAddress);\n        user.setAsDishonest();\n        rentalStatus = RentalStatus.END;\n\n        ownerClaimRentalFeesTimestamp = block.timestamp;\n    }\n}\n",
  "sourcePath": "/Users/jyuteo/CodeProjects/TRent/smart-contracts/src/contracts/Rental.sol",
  "compiler": {
    "name": "solc",
    "version": "0.8.11+commit.d7f03943.Emscripten.clang"
  },
  "schemaVersion": "3.4.3",
  "updatedAt": "2022-02-04T02:45:57.955Z",
  "devdoc": {
    "kind": "dev",
    "methods": {},
    "version": 1
  },
  "userdoc": {
    "kind": "user",
    "methods": {},
    "version": 1
  }
}