{
  "contractName": "Rental",
  "abi": [
    {
      "inputs": [
        {
          "internalType": "address",
          "name": "_itemContract",
          "type": "address"
        },
        {
          "components": [
            {
              "internalType": "address",
              "name": "ownerUserContract",
              "type": "address"
            },
            {
              "internalType": "address payable",
              "name": "ownerAddress",
              "type": "address"
            },
            {
              "internalType": "string",
              "name": "name",
              "type": "string"
            },
            {
              "internalType": "string",
              "name": "description",
              "type": "string"
            },
            {
              "internalType": "string",
              "name": "collectionOrReturnAddress",
              "type": "string"
            },
            {
              "internalType": "uint256",
              "name": "rentPerDay",
              "type": "uint256"
            },
            {
              "internalType": "uint8",
              "name": "maxAllowableLateDays",
              "type": "uint8"
            },
            {
              "internalType": "uint8",
              "name": "multipleForLateFees",
              "type": "uint8"
            },
            {
              "internalType": "bool",
              "name": "isAvailableForRent",
              "type": "bool"
            },
            {
              "internalType": "string[]",
              "name": "imageIPFSUrl",
              "type": "string[]"
            }
          ],
          "internalType": "struct Structs.ItemDetails",
          "name": "_itemDetails",
          "type": "tuple"
        },
        {
          "internalType": "address",
          "name": "_renterUserContractAddress",
          "type": "address"
        },
        {
          "internalType": "address payable",
          "name": "_renterAddress",
          "type": "address"
        },
        {
          "internalType": "uint256",
          "name": "_rentalFees",
          "type": "uint256"
        },
        {
          "internalType": "uint256",
          "name": "_renterDeposit",
          "type": "uint256"
        },
        {
          "internalType": "uint256",
          "name": "_start",
          "type": "uint256"
        },
        {
          "internalType": "uint256",
          "name": "_end",
          "type": "uint256"
        }
      ],
      "stateMutability": "payable",
      "type": "constructor"
    },
    {
      "anonymous": false,
      "inputs": [
        {
          "indexed": false,
          "internalType": "address",
          "name": "itemContract",
          "type": "address"
        },
        {
          "indexed": false,
          "internalType": "address",
          "name": "renterAddress",
          "type": "address"
        },
        {
          "indexed": false,
          "internalType": "address",
          "name": "ownerAddress",
          "type": "address"
        }
      ],
      "name": "itemRented",
      "type": "event"
    },
    {
      "anonymous": false,
      "inputs": [
        {
          "indexed": false,
          "internalType": "address",
          "name": "itemContract",
          "type": "address"
        },
        {
          "indexed": false,
          "internalType": "address",
          "name": "renterAddress",
          "type": "address"
        },
        {
          "indexed": false,
          "internalType": "address",
          "name": "ownerAddress",
          "type": "address"
        }
      ],
      "name": "itemReturned",
      "type": "event"
    },
    {
      "anonymous": false,
      "inputs": [
        {
          "indexed": false,
          "internalType": "address",
          "name": "itemContract",
          "type": "address"
        },
        {
          "indexed": false,
          "internalType": "address",
          "name": "rentalContract",
          "type": "address"
        }
      ],
      "name": "rentalEnded",
      "type": "event"
    },
    {
      "inputs": [],
      "name": "end",
      "outputs": [
        {
          "internalType": "uint256",
          "name": "",
          "type": "uint256"
        }
      ],
      "stateMutability": "view",
      "type": "function"
    },
    {
      "inputs": [],
      "name": "itemContract",
      "outputs": [
        {
          "internalType": "address",
          "name": "",
          "type": "address"
        }
      ],
      "stateMutability": "view",
      "type": "function"
    },
    {
      "inputs": [],
      "name": "ownerAddress",
      "outputs": [
        {
          "internalType": "address payable",
          "name": "",
          "type": "address"
        }
      ],
      "stateMutability": "view",
      "type": "function"
    },
    {
      "inputs": [],
      "name": "ownerClaimRentalFeesTimestamp",
      "outputs": [
        {
          "internalType": "uint256",
          "name": "",
          "type": "uint256"
        }
      ],
      "stateMutability": "view",
      "type": "function"
    },
    {
      "inputs": [],
      "name": "ownerDeposit",
      "outputs": [
        {
          "internalType": "uint256",
          "name": "",
          "type": "uint256"
        }
      ],
      "stateMutability": "view",
      "type": "function"
    },
    {
      "inputs": [],
      "name": "ownerProofOfTransfer",
      "outputs": [
        {
          "internalType": "string",
          "name": "",
          "type": "string"
        }
      ],
      "stateMutability": "view",
      "type": "function"
    },
    {
      "inputs": [],
      "name": "ownerSettleRentalAfterMaximumLateDaysTimestamp",
      "outputs": [
        {
          "internalType": "uint256",
          "name": "",
          "type": "uint256"
        }
      ],
      "stateMutability": "view",
      "type": "function"
    },
    {
      "inputs": [],
      "name": "ownerUploadProofOfTransferTimestamp",
      "outputs": [
        {
          "internalType": "uint256",
          "name": "",
          "type": "uint256"
        }
      ],
      "stateMutability": "view",
      "type": "function"
    },
    {
      "inputs": [],
      "name": "rentPerDay",
      "outputs": [
        {
          "internalType": "uint256",
          "name": "",
          "type": "uint256"
        }
      ],
      "stateMutability": "view",
      "type": "function"
    },
    {
      "inputs": [],
      "name": "rentalFees",
      "outputs": [
        {
          "internalType": "uint256",
          "name": "",
          "type": "uint256"
        }
      ],
      "stateMutability": "view",
      "type": "function"
    },
    {
      "inputs": [],
      "name": "rentalFeesPaid",
      "outputs": [
        {
          "internalType": "uint256",
          "name": "",
          "type": "uint256"
        }
      ],
      "stateMutability": "view",
      "type": "function"
    },
    {
      "inputs": [],
      "name": "rentalStatus",
      "outputs": [
        {
          "internalType": "enum Rental.RentalStatus",
          "name": "",
          "type": "uint8"
        }
      ],
      "stateMutability": "view",
      "type": "function"
    },
    {
      "inputs": [],
      "name": "renterAddress",
      "outputs": [
        {
          "internalType": "address payable",
          "name": "",
          "type": "address"
        }
      ],
      "stateMutability": "view",
      "type": "function"
    },
    {
      "inputs": [],
      "name": "renterCreateRentalContractTimestamp",
      "outputs": [
        {
          "internalType": "uint256",
          "name": "",
          "type": "uint256"
        }
      ],
      "stateMutability": "view",
      "type": "function"
    },
    {
      "inputs": [],
      "name": "renterDeposit",
      "outputs": [
        {
          "internalType": "uint256",
          "name": "",
          "type": "uint256"
        }
      ],
      "stateMutability": "view",
      "type": "function"
    },
    {
      "inputs": [],
      "name": "renterPayRentalTimestamp",
      "outputs": [
        {
          "internalType": "uint256",
          "name": "",
          "type": "uint256"
        }
      ],
      "stateMutability": "view",
      "type": "function"
    },
    {
      "inputs": [],
      "name": "renterProofOfReturn",
      "outputs": [
        {
          "internalType": "string",
          "name": "",
          "type": "string"
        }
      ],
      "stateMutability": "view",
      "type": "function"
    },
    {
      "inputs": [],
      "name": "renterUploadProofOfReturnTimestamp",
      "outputs": [
        {
          "internalType": "uint256",
          "name": "",
          "type": "uint256"
        }
      ],
      "stateMutability": "view",
      "type": "function"
    },
    {
      "inputs": [],
      "name": "renterUserContractAddress",
      "outputs": [
        {
          "internalType": "address",
          "name": "",
          "type": "address"
        }
      ],
      "stateMutability": "view",
      "type": "function"
    },
    {
      "inputs": [],
      "name": "start",
      "outputs": [
        {
          "internalType": "uint256",
          "name": "",
          "type": "uint256"
        }
      ],
      "stateMutability": "view",
      "type": "function"
    },
    {
      "inputs": [],
      "name": "getRenterAddress",
      "outputs": [
        {
          "internalType": "address",
          "name": "",
          "type": "address"
        }
      ],
      "stateMutability": "view",
      "type": "function"
    },
    {
      "inputs": [],
      "name": "getContractBalance",
      "outputs": [
        {
          "internalType": "uint256",
          "name": "",
          "type": "uint256"
        }
      ],
      "stateMutability": "view",
      "type": "function"
    },
    {
      "inputs": [],
      "name": "getRentalStatus",
      "outputs": [
        {
          "internalType": "enum Rental.RentalStatus",
          "name": "",
          "type": "uint8"
        }
      ],
      "stateMutability": "view",
      "type": "function"
    },
    {
      "inputs": [
        {
          "internalType": "string",
          "name": "_ownerProofOfTransfer",
          "type": "string"
        },
        {
          "internalType": "uint256",
          "name": "_ownerDeposit",
          "type": "uint256"
        }
      ],
      "name": "uploadOwnerProofOfTransferAndPayDeposit",
      "outputs": [],
      "stateMutability": "payable",
      "type": "function"
    },
    {
      "inputs": [
        {
          "internalType": "string",
          "name": "_renterProofOfReturn",
          "type": "string"
        }
      ],
      "name": "uploadRenterProofOfReturn",
      "outputs": [],
      "stateMutability": "nonpayable",
      "type": "function"
    },
    {
      "inputs": [
        {
          "internalType": "uint256",
          "name": "_amount",
          "type": "uint256"
        }
      ],
      "name": "payRentalIncludingLateFees",
      "outputs": [],
      "stateMutability": "payable",
      "type": "function"
    },
    {
      "inputs": [],
      "name": "settleDeposit",
      "outputs": [],
      "stateMutability": "nonpayable",
      "type": "function"
    },
    {
      "inputs": [],
      "name": "settleRentalAfterFiveLateDays",
      "outputs": [],
      "stateMutability": "payable",
      "type": "function"
    }
  ],
  "bytecode": "0x6080604052604051620017c0380380620017c083398101604081905262000026916200038e565b604051638dfd0b0360e01b81526004810184905273__Utils_________________________________90638dfd0b0390602401602060405180830381865af415801562000077573d6000803e3d6000fd5b505050506040513d601f19601f820116820180604052508101906200009d919062000548565b3414620001065760405162461bcd60e51b815260206004820152602d60248201527f56616c7565207472616e736665726564206e6f7420657175616c20746f20726560448201526c1c5d5a5c995908185b5bdd5b9d609a1b606482015260840160405180910390fd5b600080546001600160a01b03199081166001600160a01b039a8b161790915560a0880151600155602090970151600a80548916918a1691909117905560028054968916610100026001600160a81b0319909716969096179095556003805494909716939095169290921790945560045560059190915560065560085542600d5562000562565b6001600160a01b0381168114620001a257600080fd5b50565b8051620001b2816200018c565b919050565b634e487b7160e01b600052604160045260246000fd5b60405161014081016001600160401b0381118282101715620001f357620001f3620001b7565b60405290565b604051601f8201601f191681016001600160401b0381118282101715620002245762000224620001b7565b604052919050565b600082601f8301126200023e57600080fd5b81516001600160401b038111156200025a576200025a620001b7565b602062000270601f8301601f19168201620001f9565b82815285828487010111156200028557600080fd5b60005b83811015620002a557858101830151828201840152820162000288565b83811115620002b75760008385840101525b5095945050505050565b805160ff81168114620001b257600080fd5b80518015158114620001b257600080fd5b600082601f830112620002f657600080fd5b815160206001600160401b0380831115620003155762000315620001b7565b8260051b62000326838201620001f9565b93845285810183019383810190888611156200034157600080fd5b84880192505b858310156200038257825184811115620003615760008081fd5b620003718a87838c01016200022c565b835250918401919084019062000347565b98975050505050505050565b600080600080600080600080610100808a8c031215620003ad57600080fd5b8951620003ba816200018c565b60208b01519099506001600160401b0380821115620003d857600080fd5b908b0190610140828e031215620003ee57600080fd5b620003f8620001cd565b6200040383620001a5565b81526200041360208401620001a5565b60208201526040830151828111156200042b57600080fd5b620004398f8286016200022c565b6040830152506060830151828111156200045257600080fd5b620004608f8286016200022c565b6060830152506080830151828111156200047957600080fd5b620004878f8286016200022c565b60808301525060a083015160a0820152620004a560c08401620002c1565b60c0820152620004b860e08401620002c1565b60e0820152620004ca848401620002d3565b8482015261012093508383015182811115620004e557600080fd5b620004f38f828601620002e4565b8583015250809a50505050506200050d60408a01620001a5565b95506200051d60608a01620001a5565b94506080890151935060a0890151925060c0890151915060e089015190509295985092959890939650565b6000602082840312156200055b57600080fd5b5051919050565b61124e80620005726000396000f3fe6080604052600436106101b75760003560e01c80638f84aa09116100ec578063c3efc7341161008a578063e110930511610064578063e11093051461043a578063e1439c6b14610450578063eb144c1d1461046e578063efbe1c1c1461048457600080fd5b8063c3efc73414610404578063c803b3031461041c578063cbfbb5a31461043257600080fd5b80639b306fdc116100c65780639b306fdc146103a55780639e6aadc3146103b8578063b4f12ae7146103d8578063be9a6555146103ee57600080fd5b80638f84aa091461034f57806395afe3981461036f57806398c720121461038557600080fd5b80635d02789c1161015957806373ef94f91161013357806373ef94f9146102ee5780637b1aa45f146103045780637c6fadcd1461031a5780638d76f9401461032f57600080fd5b80635d02789c146102885780636922fb891461029e5780636f9fb98a146102db57600080fd5b80634c94ffcb116101955780634c94ffcb146102255780634f4687ea1461023b578063558bd2e014610251578063559ec80d1461027357600080fd5b8063022576f0146101bc57806331d019b7146101d1578063464760ac14610201575b600080fd5b6101cf6101ca366004610f33565b61049a565b005b3480156101dd57600080fd5b506002546101eb9060ff1681565b6040516101f89190610f62565b60405180910390f35b34801561020d57600080fd5b5061021760125481565b6040519081526020016101f8565b34801561023157600080fd5b50610217600f5481565b34801561024757600080fd5b5061021760085481565b34801561025d57600080fd5b506102666106e7565b6040516101f89190610f8a565b34801561027f57600080fd5b506101cf610775565b34801561029457600080fd5b5061021760115481565b3480156102aa57600080fd5b506002546102c39061010090046001600160a01b031681565b6040516001600160a01b0390911681526020016101f8565b3480156102e757600080fd5b5047610217565b3480156102fa57600080fd5b5061021760095481565b34801561031057600080fd5b50610217600b5481565b34801561032657600080fd5b506102666109df565b34801561033b57600080fd5b506000546102c3906001600160a01b031681565b34801561035b57600080fd5b50600a546102c3906001600160a01b031681565b34801561037b57600080fd5b5061021760045481565b34801561039157600080fd5b506101cf6103a0366004611082565b6109ec565b6101cf6103b33660046110bf565b610b2a565b3480156103c457600080fd5b506003546102c3906001600160a01b031681565b3480156103e457600080fd5b5061021760105481565b3480156103fa57600080fd5b5061021760055481565b34801561041057600080fd5b5060025460ff166101eb565b34801561042857600080fd5b50610217600e5481565b6101cf610ccf565b34801561044657600080fd5b5061021760015481565b34801561045c57600080fd5b506003546001600160a01b03166102c3565b34801561047a57600080fd5b50610217600d5481565b34801561049057600080fd5b5061021760065481565b6003546001600160a01b031633146104f95760405162461bcd60e51b815260206004820152601e60248201527f4d6574686f64206973207265737472696374656420746f2052656e746572000060448201526064015b60405180910390fd5b604051638dfd0b0360e01b81526004810182905273__Utils_________________________________90638dfd0b0390602401602060405180830381865af4158015610549573d6000803e3d6000fd5b505050506040513d601f19601f8201168201806040525081019061056d9190611104565b341461058b5760405162461bcd60e51b81526004016104f09061111d565b600854604051638dfd0b0360e01b8152600481019190915273__Utils_________________________________90638dfd0b0390602401602060405180830381865af41580156105df573d6000803e3d6000fd5b505050506040513d601f19601f820116820180604052508101906106039190611104565b3410156106605760405162461bcd60e51b815260206004820152602560248201527f52656e74616c2070616964206c657373207468616e20726571756972656420616044820152641b5bdd5b9d60da1b60648201526084016104f0565b600160025460ff16600381111561067957610679610f4c565b146106c65760405162461bcd60e51b815260206004820181905260248201527f496e76616c69642072656e74616c2073746174757320666f72206d6574686f6460448201526064016104f0565b42600f8190555080600960008282546106df919061116a565b909155505050565b600780546106f490611190565b80601f016020809104026020016040519081016040528092919081815260200182805461072090611190565b801561076d5780601f106107425761010080835404028352916020019161076d565b820191906000526020600020905b81548152906001019060200180831161075057829003601f168201915b505050505081565b600a546001600160a01b0316331461079f5760405162461bcd60e51b81526004016104f0906111cb565b6002805460ff1660038111156107b7576107b7610f4c565b1480156107c8575060085460095410155b61082f5760405162461bcd60e51b815260206004820152603260248201527f556e61626c6520746f20636c61696d207061796d656e7420776974682063757260448201527172656e742072656e74616c2073746174757360701b60648201526084016104f0565b6000600b54118061084257506000600454115b61088e5760405162461bcd60e51b815260206004820152601d60248201527f4e6f2072656d61696e696e67206465706f73697420746f20636c61696d00000060448201526064016104f0565b60035460048054604051638dfd0b0360e01b8152918201526001600160a01b03909116906108fc9073__Utils_________________________________90638dfd0b0390602401602060405180830381865af41580156108f2573d6000803e3d6000fd5b505050506040513d601f19601f820116820180604052508101906109169190611104565b6040518115909202916000818181858888f1935050505015801561093e573d6000803e3d6000fd5b50600a546040516001600160a01b03909116904780156108fc02916000818181858888f19350505050158015610978573d6000803e3d6000fd5b50471561098757610987611202565b6002805460ff1916600317905542601155600054604080516001600160a01b0390921682523060208301527f6a5d55ef84f2d6da57cc86de121fc1c7a8392770ff8f357998e87beb5c310491910160405180910390a1565b600c80546106f490611190565b6003546001600160a01b03163314610a465760405162461bcd60e51b815260206004820152601e60248201527f4d6574686f64206973207265737472696374656420746f2052656e746572000060448201526064016104f0565b6008546009541015610aaf5760405162461bcd60e51b815260206004820152602c60248201527f52656e74616c2066656573206861766520746f2062652070616964206265666f60448201526b72652072657475726e696e6760a01b60648201526084016104f0565b8051610ac2906007906020840190610e9a565b506002805460ff19168117905542601055600054600354600a54604080516001600160a01b039485168152928416602084015292168183015290517f2b7164dceeb2fccf197390bacb5fa0bceed217160220dd6b0e32124ab71fe8e09181900360600190a150565b600a546001600160a01b03163314610b545760405162461bcd60e51b81526004016104f0906111cb565b604051638dfd0b0360e01b81526004810182905273__Utils_________________________________90638dfd0b0390602401602060405180830381865af4158015610ba4573d6000803e3d6000fd5b505050506040513d601f19601f82011682018060405250810190610bc89190611104565b3414610be65760405162461bcd60e51b81526004016104f09061111d565b600060025460ff166003811115610bff57610bff610f4c565b14610c4c5760405162461bcd60e51b815260206004820181905260248201527f496e76616c69642072656e74616c2073746174757320666f72206d6574686f6460448201526064016104f0565b600b8190558151610c6490600c906020850190610e9a565b506002805460ff1916600117905542600e55600054600354600a54604080516001600160a01b039485168152928416602084015292168183015290517fbee4505063610f2c2522d8c40dc9c857aeceb46a2fcecc7051c9d28a42312e23916060908290030190a15050565b600a546001600160a01b03163314610cf95760405162461bcd60e51b81526004016104f0906111cb565b600160025460ff166003811115610d1257610d12610f4c565b14610d7a5760405162461bcd60e51b815260206004820152603260248201527f556e61626c6520746f20736574746c652072656e74616c20776974682063757260448201527172656e742072656e74616c2073746174757360701b60648201526084016104f0565b6000546040516001620b258d60e21b03198152600260048201526001600160a01b0390911690819063ffd369cc90602401600060405180830381600087803b158015610dc557600080fd5b505af1158015610dd9573d6000803e3d6000fd5b5050600a546040516001600160a01b0390911692504780156108fc029250906000818181858888f19350505050158015610e17573d6000803e3d6000fd5b506000600260019054906101000a90046001600160a01b03169050806001600160a01b031663922b57fa6040518163ffffffff1660e01b8152600401600060405180830381600087803b158015610e6d57600080fd5b505af1158015610e81573d6000803e3d6000fd5b50506002805460ff191660031790555050426012555050565b828054610ea690611190565b90600052602060002090601f016020900481019282610ec85760008555610f0e565b82601f10610ee157805160ff1916838001178555610f0e565b82800160010185558215610f0e579182015b82811115610f0e578251825591602001919060010190610ef3565b50610f1a929150610f1e565b5090565b5b80821115610f1a5760008155600101610f1f565b600060208284031215610f4557600080fd5b5035919050565b634e487b7160e01b600052602160045260246000fd5b6020810160048310610f8457634e487b7160e01b600052602160045260246000fd5b91905290565b600060208083528351808285015260005b81811015610fb757858101830151858201604001528201610f9b565b81811115610fc9576000604083870101525b50601f01601f1916929092016040019392505050565b634e487b7160e01b600052604160045260246000fd5b600082601f83011261100657600080fd5b813567ffffffffffffffff8082111561102157611021610fdf565b604051601f8301601f19908116603f0116810190828211818310171561104957611049610fdf565b8160405283815286602085880101111561106257600080fd5b836020870160208301376000602085830101528094505050505092915050565b60006020828403121561109457600080fd5b813567ffffffffffffffff8111156110ab57600080fd5b6110b784828501610ff5565b949350505050565b600080604083850312156110d257600080fd5b823567ffffffffffffffff8111156110e957600080fd5b6110f585828601610ff5565b95602094909401359450505050565b60006020828403121561111657600080fd5b5051919050565b6020808252602d908201527f56616c7565207472616e736665726564206e6f7420657175616c20746f20726560408201526c1c5d5a5c995908185b5bdd5b9d609a1b606082015260800190565b6000821982111561118b57634e487b7160e01b600052601160045260246000fd5b500190565b600181811c908216806111a457607f821691505b602082108114156111c557634e487b7160e01b600052602260045260246000fd5b50919050565b6020808252601d908201527f4d6574686f64206973207265737472696374656420746f204f776e6572000000604082015260600190565b634e487b7160e01b600052600160045260246000fdfea26469706673582212208e66cb303e82b18440fdd3f40ca217aed0a54ef19daa267ff94d9d8f9701c00464736f6c634300080c0033",
  "deployedBytecode": "0x6080604052600436106101b75760003560e01c80638f84aa09116100ec578063c3efc7341161008a578063e110930511610064578063e11093051461043a578063e1439c6b14610450578063eb144c1d1461046e578063efbe1c1c1461048457600080fd5b8063c3efc73414610404578063c803b3031461041c578063cbfbb5a31461043257600080fd5b80639b306fdc116100c65780639b306fdc146103a55780639e6aadc3146103b8578063b4f12ae7146103d8578063be9a6555146103ee57600080fd5b80638f84aa091461034f57806395afe3981461036f57806398c720121461038557600080fd5b80635d02789c1161015957806373ef94f91161013357806373ef94f9146102ee5780637b1aa45f146103045780637c6fadcd1461031a5780638d76f9401461032f57600080fd5b80635d02789c146102885780636922fb891461029e5780636f9fb98a146102db57600080fd5b80634c94ffcb116101955780634c94ffcb146102255780634f4687ea1461023b578063558bd2e014610251578063559ec80d1461027357600080fd5b8063022576f0146101bc57806331d019b7146101d1578063464760ac14610201575b600080fd5b6101cf6101ca366004610f33565b61049a565b005b3480156101dd57600080fd5b506002546101eb9060ff1681565b6040516101f89190610f62565b60405180910390f35b34801561020d57600080fd5b5061021760125481565b6040519081526020016101f8565b34801561023157600080fd5b50610217600f5481565b34801561024757600080fd5b5061021760085481565b34801561025d57600080fd5b506102666106e7565b6040516101f89190610f8a565b34801561027f57600080fd5b506101cf610775565b34801561029457600080fd5b5061021760115481565b3480156102aa57600080fd5b506002546102c39061010090046001600160a01b031681565b6040516001600160a01b0390911681526020016101f8565b3480156102e757600080fd5b5047610217565b3480156102fa57600080fd5b5061021760095481565b34801561031057600080fd5b50610217600b5481565b34801561032657600080fd5b506102666109df565b34801561033b57600080fd5b506000546102c3906001600160a01b031681565b34801561035b57600080fd5b50600a546102c3906001600160a01b031681565b34801561037b57600080fd5b5061021760045481565b34801561039157600080fd5b506101cf6103a0366004611082565b6109ec565b6101cf6103b33660046110bf565b610b2a565b3480156103c457600080fd5b506003546102c3906001600160a01b031681565b3480156103e457600080fd5b5061021760105481565b3480156103fa57600080fd5b5061021760055481565b34801561041057600080fd5b5060025460ff166101eb565b34801561042857600080fd5b50610217600e5481565b6101cf610ccf565b34801561044657600080fd5b5061021760015481565b34801561045c57600080fd5b506003546001600160a01b03166102c3565b34801561047a57600080fd5b50610217600d5481565b34801561049057600080fd5b5061021760065481565b6003546001600160a01b031633146104f95760405162461bcd60e51b815260206004820152601e60248201527f4d6574686f64206973207265737472696374656420746f2052656e746572000060448201526064015b60405180910390fd5b604051638dfd0b0360e01b81526004810182905273__Utils_________________________________90638dfd0b0390602401602060405180830381865af4158015610549573d6000803e3d6000fd5b505050506040513d601f19601f8201168201806040525081019061056d9190611104565b341461058b5760405162461bcd60e51b81526004016104f09061111d565b600854604051638dfd0b0360e01b8152600481019190915273__Utils_________________________________90638dfd0b0390602401602060405180830381865af41580156105df573d6000803e3d6000fd5b505050506040513d601f19601f820116820180604052508101906106039190611104565b3410156106605760405162461bcd60e51b815260206004820152602560248201527f52656e74616c2070616964206c657373207468616e20726571756972656420616044820152641b5bdd5b9d60da1b60648201526084016104f0565b600160025460ff16600381111561067957610679610f4c565b146106c65760405162461bcd60e51b815260206004820181905260248201527f496e76616c69642072656e74616c2073746174757320666f72206d6574686f6460448201526064016104f0565b42600f8190555080600960008282546106df919061116a565b909155505050565b600780546106f490611190565b80601f016020809104026020016040519081016040528092919081815260200182805461072090611190565b801561076d5780601f106107425761010080835404028352916020019161076d565b820191906000526020600020905b81548152906001019060200180831161075057829003601f168201915b505050505081565b600a546001600160a01b0316331461079f5760405162461bcd60e51b81526004016104f0906111cb565b6002805460ff1660038111156107b7576107b7610f4c565b1480156107c8575060085460095410155b61082f5760405162461bcd60e51b815260206004820152603260248201527f556e61626c6520746f20636c61696d207061796d656e7420776974682063757260448201527172656e742072656e74616c2073746174757360701b60648201526084016104f0565b6000600b54118061084257506000600454115b61088e5760405162461bcd60e51b815260206004820152601d60248201527f4e6f2072656d61696e696e67206465706f73697420746f20636c61696d00000060448201526064016104f0565b60035460048054604051638dfd0b0360e01b8152918201526001600160a01b03909116906108fc9073__Utils_________________________________90638dfd0b0390602401602060405180830381865af41580156108f2573d6000803e3d6000fd5b505050506040513d601f19601f820116820180604052508101906109169190611104565b6040518115909202916000818181858888f1935050505015801561093e573d6000803e3d6000fd5b50600a546040516001600160a01b03909116904780156108fc02916000818181858888f19350505050158015610978573d6000803e3d6000fd5b50471561098757610987611202565b6002805460ff1916600317905542601155600054604080516001600160a01b0390921682523060208301527f6a5d55ef84f2d6da57cc86de121fc1c7a8392770ff8f357998e87beb5c310491910160405180910390a1565b600c80546106f490611190565b6003546001600160a01b03163314610a465760405162461bcd60e51b815260206004820152601e60248201527f4d6574686f64206973207265737472696374656420746f2052656e746572000060448201526064016104f0565b6008546009541015610aaf5760405162461bcd60e51b815260206004820152602c60248201527f52656e74616c2066656573206861766520746f2062652070616964206265666f60448201526b72652072657475726e696e6760a01b60648201526084016104f0565b8051610ac2906007906020840190610e9a565b506002805460ff19168117905542601055600054600354600a54604080516001600160a01b039485168152928416602084015292168183015290517f2b7164dceeb2fccf197390bacb5fa0bceed217160220dd6b0e32124ab71fe8e09181900360600190a150565b600a546001600160a01b03163314610b545760405162461bcd60e51b81526004016104f0906111cb565b604051638dfd0b0360e01b81526004810182905273__Utils_________________________________90638dfd0b0390602401602060405180830381865af4158015610ba4573d6000803e3d6000fd5b505050506040513d601f19601f82011682018060405250810190610bc89190611104565b3414610be65760405162461bcd60e51b81526004016104f09061111d565b600060025460ff166003811115610bff57610bff610f4c565b14610c4c5760405162461bcd60e51b815260206004820181905260248201527f496e76616c69642072656e74616c2073746174757320666f72206d6574686f6460448201526064016104f0565b600b8190558151610c6490600c906020850190610e9a565b506002805460ff1916600117905542600e55600054600354600a54604080516001600160a01b039485168152928416602084015292168183015290517fbee4505063610f2c2522d8c40dc9c857aeceb46a2fcecc7051c9d28a42312e23916060908290030190a15050565b600a546001600160a01b03163314610cf95760405162461bcd60e51b81526004016104f0906111cb565b600160025460ff166003811115610d1257610d12610f4c565b14610d7a5760405162461bcd60e51b815260206004820152603260248201527f556e61626c6520746f20736574746c652072656e74616c20776974682063757260448201527172656e742072656e74616c2073746174757360701b60648201526084016104f0565b6000546040516001620b258d60e21b03198152600260048201526001600160a01b0390911690819063ffd369cc90602401600060405180830381600087803b158015610dc557600080fd5b505af1158015610dd9573d6000803e3d6000fd5b5050600a546040516001600160a01b0390911692504780156108fc029250906000818181858888f19350505050158015610e17573d6000803e3d6000fd5b506000600260019054906101000a90046001600160a01b03169050806001600160a01b031663922b57fa6040518163ffffffff1660e01b8152600401600060405180830381600087803b158015610e6d57600080fd5b505af1158015610e81573d6000803e3d6000fd5b50506002805460ff191660031790555050426012555050565b828054610ea690611190565b90600052602060002090601f016020900481019282610ec85760008555610f0e565b82601f10610ee157805160ff1916838001178555610f0e565b82800160010185558215610f0e579182015b82811115610f0e578251825591602001919060010190610ef3565b50610f1a929150610f1e565b5090565b5b80821115610f1a5760008155600101610f1f565b600060208284031215610f4557600080fd5b5035919050565b634e487b7160e01b600052602160045260246000fd5b6020810160048310610f8457634e487b7160e01b600052602160045260246000fd5b91905290565b600060208083528351808285015260005b81811015610fb757858101830151858201604001528201610f9b565b81811115610fc9576000604083870101525b50601f01601f1916929092016040019392505050565b634e487b7160e01b600052604160045260246000fd5b600082601f83011261100657600080fd5b813567ffffffffffffffff8082111561102157611021610fdf565b604051601f8301601f19908116603f0116810190828211818310171561104957611049610fdf565b8160405283815286602085880101111561106257600080fd5b836020870160208301376000602085830101528094505050505092915050565b60006020828403121561109457600080fd5b813567ffffffffffffffff8111156110ab57600080fd5b6110b784828501610ff5565b949350505050565b600080604083850312156110d257600080fd5b823567ffffffffffffffff8111156110e957600080fd5b6110f585828601610ff5565b95602094909401359450505050565b60006020828403121561111657600080fd5b5051919050565b6020808252602d908201527f56616c7565207472616e736665726564206e6f7420657175616c20746f20726560408201526c1c5d5a5c995908185b5bdd5b9d609a1b606082015260800190565b6000821982111561118b57634e487b7160e01b600052601160045260246000fd5b500190565b600181811c908216806111a457607f821691505b602082108114156111c557634e487b7160e01b600052602260045260246000fd5b50919050565b6020808252601d908201527f4d6574686f64206973207265737472696374656420746f204f776e6572000000604082015260600190565b634e487b7160e01b600052600160045260246000fdfea26469706673582212208e66cb303e82b18440fdd3f40ca217aed0a54ef19daa267ff94d9d8f9701c00464736f6c634300080c0033",
  "immutableReferences": {},
  "source": "// SPDX-License-Identifier: GPL-3.0\n\npragma solidity >=0.7.0 <0.9.0;\n\nimport \"./User.sol\";\nimport \"./Item.sol\";\nimport \"./helpers/Utils.sol\";\nimport \"./helpers/Structs.sol\";\n\ncontract Rental {\n    using Utils for *;\n    using Structs for *;\n\n    enum RentalStatus {\n        CREATED,\n        RENTED,\n        RETURNED,\n        END\n    }\n\n    //--All fees unit are in gwei--//\n\n    address public itemContract;\n    uint256 public rentPerDay;\n\n    RentalStatus public rentalStatus;\n    address public renterUserContractAddress;\n    address payable public renterAddress;\n    uint256 public renterDeposit;\n    uint256 public start;\n    uint256 public end;\n    string public renterProofOfReturn; // IPFS\n\n    uint256 public rentalFees;\n    uint256 public rentalFeesPaid;\n\n    address payable public ownerAddress;\n    uint256 public ownerDeposit;\n    string public ownerProofOfTransfer; // IPFS\n\n    uint256 public renterCreateRentalContractTimestamp;\n    uint256 public ownerUploadProofOfTransferTimestamp;\n    uint256 public renterPayRentalTimestamp;\n    uint256 public renterUploadProofOfReturnTimestamp;\n    uint256 public ownerClaimRentalFeesTimestamp;\n    uint256 public ownerSettleRentalAfterMaximumLateDaysTimestamp;\n\n    event itemRented(\n        address itemContract,\n        address renterAddress,\n        address ownerAddress\n    );\n\n    event itemReturned(\n        address itemContract,\n        address renterAddress,\n        address ownerAddress\n    );\n\n    event rentalEnded(address itemContract, address rentalContract);\n\n    constructor(\n        address _itemContract,\n        Structs.ItemDetails memory _itemDetails,\n        address _renterUserContractAddress,\n        address payable _renterAddress,\n        uint256 _rentalFees,\n        uint256 _renterDeposit,\n        uint256 _start,\n        uint256 _end\n    ) payable {\n        require(\n            msg.value == Utils.gweiToWei(_renterDeposit),\n            \"Value transfered not equal to required amount\"\n        );\n\n        itemContract = _itemContract;\n        rentPerDay = _itemDetails.rentPerDay;\n        ownerAddress = _itemDetails.ownerAddress;\n\n        rentalStatus = RentalStatus.CREATED;\n        renterUserContractAddress = _renterUserContractAddress;\n        renterAddress = _renterAddress;\n        renterDeposit = _renterDeposit;\n        start = _start;\n        end = _end;\n\n        rentalFees = _rentalFees;\n\n        renterCreateRentalContractTimestamp = block.timestamp;\n    }\n\n    modifier onlyOwner() {\n        require(msg.sender == ownerAddress, \"Method is restricted to Owner\");\n        _;\n    }\n\n    modifier onlyRenter() {\n        require(msg.sender == renterAddress, \"Method is restricted to Renter\");\n        _;\n    }\n\n    function getRenterAddress() public view returns (address) {\n        return renterAddress;\n    }\n\n    function getContractBalance() public view returns (uint256) {\n        return address(this).balance;\n    }\n\n    function getRentalStatus() public view returns (RentalStatus) {\n        return rentalStatus;\n    }\n\n    function uploadOwnerProofOfTransferAndPayDeposit(\n        string memory _ownerProofOfTransfer,\n        uint256 _ownerDeposit\n    ) public payable onlyOwner {\n        require(\n            msg.value == Utils.gweiToWei(_ownerDeposit),\n            \"Value transfered not equal to required amount\"\n        );\n        require(\n            rentalStatus == RentalStatus.CREATED,\n            \"Invalid rental status for method\"\n        );\n\n        ownerDeposit = _ownerDeposit;\n        ownerProofOfTransfer = _ownerProofOfTransfer;\n        rentalStatus = RentalStatus.RENTED;\n\n        ownerUploadProofOfTransferTimestamp = block.timestamp;\n\n        emit itemRented(itemContract, renterAddress, ownerAddress);\n    }\n\n    function uploadRenterProofOfReturn(string memory _renterProofOfReturn)\n        public\n        onlyRenter\n    {\n        require(\n            rentalFeesPaid >= rentalFees,\n            \"Rental fees have to be paid before returning\"\n        );\n\n        renterProofOfReturn = _renterProofOfReturn;\n        rentalStatus = RentalStatus.RETURNED;\n\n        renterUploadProofOfReturnTimestamp = block.timestamp;\n\n        emit itemReturned(itemContract, renterAddress, ownerAddress);\n    }\n\n    function payRentalIncludingLateFees(uint256 _amount)\n        public\n        payable\n        onlyRenter\n    {\n        require(\n            msg.value == Utils.gweiToWei(_amount),\n            \"Value transfered not equal to required amount\"\n        );\n        require(\n            msg.value >= Utils.gweiToWei(rentalFees),\n            \"Rental paid less than required amount\"\n        );\n        require(\n            rentalStatus == RentalStatus.RENTED,\n            \"Invalid rental status for method\"\n        );\n\n        renterPayRentalTimestamp = block.timestamp;\n\n        rentalFeesPaid += _amount;\n    }\n\n    // owner gets back deposit and receives rental fees paid, renter gets back deposit\n    function settleDeposit() public onlyOwner {\n        require(\n            rentalStatus == RentalStatus.RETURNED &&\n                rentalFeesPaid >= rentalFees,\n            \"Unable to claim payment with current rental status\"\n        );\n        require(\n            ownerDeposit > 0 || renterDeposit > 0,\n            \"No remaining deposit to claim\"\n        );\n\n        renterAddress.transfer(Utils.gweiToWei(renterDeposit));\n        ownerAddress.transfer(address(this).balance);\n\n        assert(address(this).balance == 0);\n        rentalStatus = RentalStatus.END;\n\n        ownerClaimRentalFeesTimestamp = block.timestamp;\n\n        emit rentalEnded(itemContract, address(this));\n    }\n\n    function settleRentalAfterFiveLateDays() public payable onlyOwner {\n        require(\n            rentalStatus == RentalStatus.RENTED,\n            \"Unable to settle rental with current rental status\"\n        );\n        // change item status\n        Item item = Item(itemContract);\n        item.changeItemStatus(2); // DELETED\n        // transfer all balance in the contract to owner\n        ownerAddress.transfer(address(this).balance);\n        // set renter as dishonest user\n        User user = User(renterUserContractAddress);\n        user.setAsDishonest();\n        rentalStatus = RentalStatus.END;\n\n        ownerSettleRentalAfterMaximumLateDaysTimestamp = block.timestamp;\n    }\n}\n",
  "sourcePath": "/Users/jyuteo/CodeProjects/TRent/smart-contracts/src/contracts/Rental.sol",
  "compiler": {
    "name": "solc",
    "version": "0.8.12+commit.f00d7308.Emscripten.clang"
  },
  "schemaVersion": "3.4.3",
  "updatedAt": "2022-03-02T09:52:11.951Z",
  "devdoc": {
    "kind": "dev",
    "methods": {},
    "version": 1
  },
  "userdoc": {
    "kind": "user",
    "methods": {},
    "version": 1
  }
}