{
  "contractName": "UserContractCreator",
  "abi": [
    {
      "anonymous": false,
      "inputs": [
        {
          "indexed": false,
          "internalType": "address",
          "name": "userAddress",
          "type": "address"
        },
        {
          "indexed": false,
          "internalType": "address",
          "name": "userContract",
          "type": "address"
        }
      ],
      "name": "userContractCreated",
      "type": "event"
    },
    {
      "inputs": [
        {
          "internalType": "address",
          "name": "",
          "type": "address"
        }
      ],
      "name": "userContractForUser",
      "outputs": [
        {
          "internalType": "address",
          "name": "",
          "type": "address"
        }
      ],
      "stateMutability": "view",
      "type": "function",
      "constant": true
    },
    {
      "inputs": [],
      "name": "getUserContracts",
      "outputs": [
        {
          "internalType": "address[]",
          "name": "",
          "type": "address[]"
        }
      ],
      "stateMutability": "view",
      "type": "function",
      "constant": true
    },
    {
      "inputs": [],
      "name": "getUserCount",
      "outputs": [
        {
          "internalType": "uint256",
          "name": "",
          "type": "uint256"
        }
      ],
      "stateMutability": "view",
      "type": "function",
      "constant": true
    },
    {
      "inputs": [
        {
          "internalType": "address",
          "name": "_userAddress",
          "type": "address"
        },
        {
          "internalType": "string",
          "name": "_username",
          "type": "string"
        },
        {
          "internalType": "string",
          "name": "_deliveryAddress",
          "type": "string"
        }
      ],
      "name": "createUserContract",
      "outputs": [],
      "stateMutability": "nonpayable",
      "type": "function"
    }
  ],
  "bytecode": "0x608060405234801561001057600080fd5b506114c2806100206000396000f3fe608060405234801561001057600080fd5b506004361061004c5760003560e01c806368b9404f14610051578063936b672514610066578063b5cb15f7146100ac578063dfc41f44146100bd575b600080fd5b61006461005f366004610392565b6100d2565b005b61008f610074366004610413565b6002602052600090815260409020546001600160a01b031681565b6040516001600160a01b0390911681526020015b60405180910390f35b6001546040519081526020016100a3565b6100c56102be565b6040516100a39190610435565b6001600160a01b03858116600090815260026020526040902054161561013f5760405162461bcd60e51b815260206004820152601b60248201527f55736572206164647265737320616c726561647920657869737473000000000060448201526064015b60405180910390fd5b6001600160a01b03851633146101bd5760405162461bcd60e51b815260206004820152603860248201527f55736572732063616e206f6e6c7920637265617465206e6577206163636f756e60448201527f742077697468207468656972206f776e206164647265737300000000000000006064820152608401610136565b600085858585856040516101d090610320565b6101de9594939291906104ab565b604051809103906000f0801580156101fa573d6000803e3d6000fd5b5060008054600181810183557f290decd9548b62a8d60345a988386fc84ba6bc95484008f6362f93160ef3e56390910180546001600160a01b038086166001600160a01b031992831681179093558b1684526002602052604084208054909116909117905580549293509061026e836104ef565b9091555050604080516001600160a01b038089168252831660208201527f3ae452c9d717870a928bfb2c4f7f6b7c239bfb392b9d6c0cdcf53e3fa8e76201910160405180910390a1505050505050565b6060600080548060200260200160405190810160405280929190818152602001828054801561031657602002820191906000526020600020905b81546001600160a01b031681526001909101906020018083116102f8575b5050505050905090565b610f748061051983390190565b80356001600160a01b038116811461034457600080fd5b919050565b60008083601f84011261035b57600080fd5b50813567ffffffffffffffff81111561037357600080fd5b60208301915083602082850101111561038b57600080fd5b9250929050565b6000806000806000606086880312156103aa57600080fd5b6103b38661032d565b9450602086013567ffffffffffffffff808211156103d057600080fd5b6103dc89838a01610349565b909650945060408801359150808211156103f557600080fd5b5061040288828901610349565b969995985093965092949392505050565b60006020828403121561042557600080fd5b61042e8261032d565b9392505050565b6020808252825182820181905260009190848201906040850190845b818110156104765783516001600160a01b031683529284019291840191600101610451565b50909695505050505050565b81835281816020850137506000828201602090810191909152601f909101601f19169091010190565b6001600160a01b03861681526060602082018190526000906104d09083018688610482565b82810360408401526104e3818587610482565b98975050505050505050565b600060001982141561051157634e487b7160e01b600052601160045260246000fd5b506001019056fe60806040523480156200001157600080fd5b5060405162000f7438038062000f74833981016040819052620000349162000205565b600180546001600160a01b0319166001600160a01b03851617905581516200006490600290602085019062000092565b5080516200007a90600390602084019062000092565b50506005805463ffffffff1916905550620002cc9050565b828054620000a0906200028f565b90600052602060002090601f016020900481019282620000c457600085556200010f565b82601f10620000df57805160ff19168380011785556200010f565b828001600101855582156200010f579182015b828111156200010f578251825591602001919060010190620000f2565b506200011d92915062000121565b5090565b5b808211156200011d576000815560010162000122565b634e487b7160e01b600052604160045260246000fd5b600082601f8301126200016057600080fd5b81516001600160401b03808211156200017d576200017d62000138565b604051601f8301601f19908116603f01168101908282118183101715620001a857620001a862000138565b81604052838152602092508683858801011115620001c557600080fd5b600091505b83821015620001e95785820183015181830184015290820190620001ca565b83821115620001fb5760008385830101525b9695505050505050565b6000806000606084860312156200021b57600080fd5b83516001600160a01b03811681146200023357600080fd5b60208501519093506001600160401b03808211156200025157600080fd5b6200025f878388016200014e565b935060408601519150808211156200027657600080fd5b5062000285868287016200014e565b9150509250925092565b600181811c90821680620002a457607f821691505b60208210811415620002c657634e487b7160e01b600052602260045260246000fd5b50919050565b610c9880620002dc6000396000f3fe608060405234801561001057600080fd5b50600436106101165760003560e01c8063886f1bb9116100a2578063c062208711610071578063c062208714610236578063c2bd811914610249578063e4128fb314610251578063e85e79b61461027c578063ebc3eee8146102a357600080fd5b8063886f1bb9146101d657806390f1af6c146101e9578063922b57fa1461020c578063b35ddf941461022457600080fd5b80634b6f5502116100e95780634b6f55021461018d57806350d9de1d146101a057806361fac54d146101b3578063681f3e6d146101bb57806377c846af146101c357600080fd5b80632254df251461011b57806326f2d18b1461014457806332cc4e81146101595780633733d9f514610178575b600080fd5b60055461012f906301000000900460ff1681565b60405190151581526020015b60405180910390f35b61015761015236600461098a565b6102b4565b005b6005546101669060ff1681565b60405160ff909116815260200161013b565b6101806102f4565b60405161013b91906109b4565b61015761019b366004610a25565b610386565b6005546101669062010000900460ff1681565b6101806105f5565b610180610683565b6101576101d1366004610a8b565b610692565b6101576101e4366004610a8b565b610745565b6101666101f7366004610afd565b60006020819052908152604090205460ff1681565b6101576005805463ff00000019166301000000179055565b60055461016690610100900460ff1681565b610157610244366004610a25565b6107e7565b610180610876565b600154610264906001600160a01b031681565b6040516001600160a01b03909116815260200161013b565b61028f61028a366004610b18565b610883565b60405161013b989796959493929190610b47565b6001546001600160a01b0316610264565b600060048260ff16815481106102cc576102cc610bb4565b60009182526020909120600360069092020101805460ff60a81b1916600160a81b1790555050565b60606003805461030390610bca565b80601f016020809104026020016040519081016040528092919081815260200182805461032f90610bca565b801561037c5780601f106103515761010080835404028352916020019161037c565b820191906000526020600020905b81548152906001019060200180831161035f57829003601f168201915b5050505050905090565b6000604051806101000160405280886001600160a01b03168152602001876001600160a01b03168152602001866001600160a01b03168152602001856001600160a01b03168152602001600060018111156103e3576103e3610b31565b815260006020820152604081018590526060018390526005805491925061010090910460ff1690600161041583610c05565b82546101009290920a60ff81810219909316919092169190910217905550600480546001818101835560009290925282517f8a35acfbc15ff81a39ae7d344fd709f28e8600b4aa8c65c6b64bfe7fe36bd19b600690920291820180546001600160a01b03199081166001600160a01b0393841617825560208601517f8a35acfbc15ff81a39ae7d344fd709f28e8600b4aa8c65c6b64bfe7fe36bd19c85018054831691851691909117905560408601517f8a35acfbc15ff81a39ae7d344fd709f28e8600b4aa8c65c6b64bfe7fe36bd19d85018054831691851691909117905560608601517f8a35acfbc15ff81a39ae7d344fd709f28e8600b4aa8c65c6b64bfe7fe36bd19e90940180549182169490931693841783556080860151869592949093926001600160a81b03199092161790600160a01b90849081111561055d5761055d610b31565b021790555060a0820151600382018054911515600160a81b0260ff60a81b1990921691909117905560c0820151600482015560e09091015160059182015580546001600160a01b0389166000908152602081905260408120805460ff191660ff938416179055825490911691906105d383610c05565b91906101000a81548160ff021916908360ff1602179055505050505050505050565b6002805461060290610bca565b80601f016020809104026020016040519081016040528092919081815260200182805461062e90610bca565b801561067b5780601f106106505761010080835404028352916020019161067b565b820191906000526020600020905b81548152906001019060200180831161065e57829003601f168201915b505050505081565b60606002805461030390610bca565b6001546001600160a01b031633146106f15760405162461bcd60e51b815260206004820152601c60248201527f696e76616c6964207573657220666f722074686973206d6574686f640000000060448201526064015b60405180910390fd5b6106fd600283836108f1565b50336001600160a01b03167ff07516e9449b46121f3f7f7cb800fb5f90f7ee9e442a5479e8e3bab929d71b778383604051610739929190610c33565b60405180910390a25050565b6001546001600160a01b0316331461079f5760405162461bcd60e51b815260206004820152601c60248201527f696e76616c6964207573657220666f722074686973206d6574686f640000000060448201526064016106e8565b6107ab600383836108f1565b50336001600160a01b03167ff01f8beedc6b4ff8605063d6b438798f7caa71e19ea3097a733f57c40072a3208383604051610739929190610c33565b6000604051806101000160405280886001600160a01b03168152602001876001600160a01b03168152602001866001600160a01b03168152602001856001600160a01b0316815260200160018081111561084357610843610b31565b81526000602082015260408101859052606001839052600580549192506201000090910460ff1690600261041583610c05565b6003805461060290610bca565b6004818154811061089357600080fd5b60009182526020909120600690910201805460018201546002830154600384015460048501546005909501546001600160a01b039485169650928416949184169381169260ff600160a01b8304811693600160a81b90930416919088565b8280546108fd90610bca565b90600052602060002090601f01602090048101928261091f5760008555610965565b82601f106109385782800160ff19823516178555610965565b82800160010185558215610965579182015b8281111561096557823582559160200191906001019061094a565b50610971929150610975565b5090565b5b808211156109715760008155600101610976565b60006020828403121561099c57600080fd5b813560ff811681146109ad57600080fd5b9392505050565b600060208083528351808285015260005b818110156109e1578581018301518582016040015282016109c5565b818111156109f3576000604083870101525b50601f01601f1916929092016040019392505050565b80356001600160a01b0381168114610a2057600080fd5b919050565b60008060008060008060c08789031215610a3e57600080fd5b610a4787610a09565b9550610a5560208801610a09565b9450610a6360408801610a09565b9350610a7160608801610a09565b92506080870135915060a087013590509295509295509295565b60008060208385031215610a9e57600080fd5b823567ffffffffffffffff80821115610ab657600080fd5b818501915085601f830112610aca57600080fd5b813581811115610ad957600080fd5b866020828501011115610aeb57600080fd5b60209290920196919550909350505050565b600060208284031215610b0f57600080fd5b6109ad82610a09565b600060208284031215610b2a57600080fd5b5035919050565b634e487b7160e01b600052602160045260246000fd5b6001600160a01b0389811682528881166020830152878116604083015286166060820152610100810160028610610b8e57634e487b7160e01b600052602160045260246000fd5b608082019590955292151560a084015260c083019190915260e090910152949350505050565b634e487b7160e01b600052603260045260246000fd5b600181811c90821680610bde57607f821691505b60208210811415610bff57634e487b7160e01b600052602260045260246000fd5b50919050565b600060ff821660ff811415610c2a57634e487b7160e01b600052601160045260246000fd5b60010192915050565b60208152816020820152818360408301376000818301604090810191909152601f909201601f1916010191905056fea264697066735822122072ebce2663c6e11481599504e3092897508dc928509a1e4d9a3eccb8c54136a964736f6c634300080b0033a2646970667358221220da7ab84e6285ac523ab0bc02bfc74ecac43125e5bfe68920fa376e445483e33164736f6c634300080b0033",
  "immutableReferences": {},
  "source": "// SPDX-License-Identifier: GPL-3.0\n\npragma solidity >=0.7.0 <0.9.0;\n\nimport \"../User.sol\";\n\ncontract UserContractCreator {\n    address[] private userContracts;\n    uint256 private userCount;\n\n    // map user address to User contract\n    mapping(address => address) public userContractForUser;\n\n    event userContractCreated(address userAddress, address userContract);\n\n    function getUserContracts() public view returns (address[] memory) {\n        return userContracts;\n    }\n\n    function getUserCount() public view returns (uint256) {\n        return userCount;\n    }\n\n    function createUserContract(\n        address _userAddress,\n        string calldata _username,\n        string calldata _deliveryAddress\n    ) public {\n        require(\n            userContractForUser[_userAddress] == address(0x0),\n            \"User address already exists\"\n        );\n        require(\n            _userAddress == msg.sender,\n            \"Users can only create new account with their own address\"\n        );\n\n        User newUserContract = new User(\n            _userAddress,\n            _username,\n            _deliveryAddress\n        );\n\n        userContracts.push(address(newUserContract));\n        userContractForUser[_userAddress] = address(newUserContract);\n        userCount++;\n\n        emit userContractCreated(_userAddress, address(newUserContract));\n    }\n}\n",
  "sourcePath": "/Users/jyuteo/CodeProjects/TRent/smart-contracts/src/contracts/factory/UserContractCreator.sol",
  "compiler": {
    "name": "solc",
    "version": "0.8.11+commit.d7f03943.Emscripten.clang"
  },
  "schemaVersion": "3.4.3",
  "updatedAt": "2022-02-04T02:46:02.871Z",
  "networkType": "ethereum",
  "devdoc": {
    "kind": "dev",
    "methods": {},
    "version": 1
  },
  "userdoc": {
    "kind": "user",
    "methods": {},
    "version": 1
  }
}