{
  "contractName": "UserContractCreator",
  "abi": [
    {
      "anonymous": false,
      "inputs": [
        {
          "indexed": false,
          "internalType": "address",
          "name": "userAddress",
          "type": "address"
        },
        {
          "indexed": false,
          "internalType": "address",
          "name": "userContract",
          "type": "address"
        }
      ],
      "name": "userContractCreated",
      "type": "event"
    },
    {
      "inputs": [
        {
          "internalType": "address",
          "name": "",
          "type": "address"
        }
      ],
      "name": "userContractForUser",
      "outputs": [
        {
          "internalType": "address",
          "name": "",
          "type": "address"
        }
      ],
      "stateMutability": "view",
      "type": "function",
      "constant": true
    },
    {
      "inputs": [],
      "name": "getUserContracts",
      "outputs": [
        {
          "internalType": "address[]",
          "name": "",
          "type": "address[]"
        }
      ],
      "stateMutability": "view",
      "type": "function",
      "constant": true
    },
    {
      "inputs": [],
      "name": "getUserCount",
      "outputs": [
        {
          "internalType": "uint256",
          "name": "",
          "type": "uint256"
        }
      ],
      "stateMutability": "view",
      "type": "function",
      "constant": true
    },
    {
      "inputs": [
        {
          "internalType": "address",
          "name": "_userAddress",
          "type": "address"
        },
        {
          "internalType": "string",
          "name": "_username",
          "type": "string"
        },
        {
          "internalType": "string",
          "name": "_deliveryAddress",
          "type": "string"
        }
      ],
      "name": "createUserContract",
      "outputs": [],
      "stateMutability": "nonpayable",
      "type": "function"
    }
  ],
  "bytecode": "0x608060405234801561001057600080fd5b50611569806100206000396000f3fe608060405234801561001057600080fd5b506004361061004c5760003560e01c806368b9404f14610051578063936b672514610066578063b5cb15f7146100ac578063dfc41f44146100c6575b600080fd5b61006461005f3660046103d2565b6100db565b005b61008f610074366004610453565b6002602052600090815260409020546001600160a01b031681565b6040516001600160a01b0390911681526020015b60405180910390f35b6001546001600160801b03166040519081526020016100a3565b6100ce6102fe565b6040516100a39190610475565b6001600160a01b0385811660009081526002602052604090205416156101485760405162461bcd60e51b815260206004820152601b60248201527f55736572206164647265737320616c726561647920657869737473000000000060448201526064015b60405180910390fd5b6001600160a01b03851633146101c65760405162461bcd60e51b815260206004820152603860248201527f55736572732063616e206f6e6c7920637265617465206e6577206163636f756e60448201527f742077697468207468656972206f776e20616464726573730000000000000000606482015260840161013f565b600085858585856040516101d990610360565b6101e79594939291906104eb565b604051809103906000f080158015610203573d6000803e3d6000fd5b5060008054600181810183557f290decd9548b62a8d60345a988386fc84ba6bc95484008f6362f93160ef3e56390910180546001600160a01b038086166001600160a01b031992831681179093558b1684526002602052604084208054909116909117905580549293506001600160801b0390921691906102838361052f565b91906101000a8154816001600160801b0302191690836001600160801b03160217905550507f3ae452c9d717870a928bfb2c4f7f6b7c239bfb392b9d6c0cdcf53e3fa8e7620186826040516102ee9291906001600160a01b0392831681529116602082015260400190565b60405180910390a1505050505050565b6060600080548060200260200160405190810160405280929190818152602001828054801561035657602002820191906000526020600020905b81546001600160a01b03168152600190910190602001808311610338575b5050505050905090565b610fcf8061056583390190565b80356001600160a01b038116811461038457600080fd5b919050565b60008083601f84011261039b57600080fd5b50813567ffffffffffffffff8111156103b357600080fd5b6020830191508360208285010111156103cb57600080fd5b9250929050565b6000806000806000606086880312156103ea57600080fd5b6103f38661036d565b9450602086013567ffffffffffffffff8082111561041057600080fd5b61041c89838a01610389565b9096509450604088013591508082111561043557600080fd5b5061044288828901610389565b969995985093965092949392505050565b60006020828403121561046557600080fd5b61046e8261036d565b9392505050565b6020808252825182820181905260009190848201906040850190845b818110156104b65783516001600160a01b031683529284019291840191600101610491565b50909695505050505050565b81835281816020850137506000828201602090810191909152601f909101601f19169091010190565b6001600160a01b038616815260606020820181905260009061051090830186886104c2565b82810360408401526105238185876104c2565b98975050505050505050565b60006001600160801b038083168181141561055a57634e487b7160e01b600052601160045260246000fd5b600101939250505056fe60806040523480156200001157600080fd5b5060405162000fcf38038062000fcf83398101604081905262000034916200020c565b600180546001600160a01b0319166001600160a01b03851617905581516200006490600290602085019062000099565b5080516200007a90600390602084019062000099565b505060006005555050600680546001600160881b0319169055620002d3565b828054620000a79062000296565b90600052602060002090601f016020900481019282620000cb576000855562000116565b82601f10620000e657805160ff191683800117855562000116565b8280016001018555821562000116579182015b8281111562000116578251825591602001919060010190620000f9565b506200012492915062000128565b5090565b5b8082111562000124576000815560010162000129565b634e487b7160e01b600052604160045260246000fd5b600082601f8301126200016757600080fd5b81516001600160401b03808211156200018457620001846200013f565b604051601f8301601f19908116603f01168101908282118183101715620001af57620001af6200013f565b81604052838152602092508683858801011115620001cc57600080fd5b600091505b83821015620001f05785820183015181830184015290820190620001d1565b83821115620002025760008385830101525b9695505050505050565b6000806000606084860312156200022257600080fd5b83516001600160a01b03811681146200023a57600080fd5b60208501519093506001600160401b03808211156200025857600080fd5b620002668783880162000155565b935060408601519150808211156200027d57600080fd5b506200028c8682870162000155565b9150509250925092565b600181811c90821680620002ab57607f821691505b60208210811415620002cd57634e487b7160e01b600052602260045260246000fd5b50919050565b610cec80620002e36000396000f3fe608060405234801561001057600080fd5b50600436106101165760003560e01c8063886f1bb9116100a2578063c062208711610071578063c062208714610250578063c2bd811914610263578063e4128fb31461026b578063e85e79b614610296578063ebc3eee8146102bd57600080fd5b8063886f1bb9146101e257806390f1af6c146101f5578063922b57fa1461021e578063b35ddf941461023657600080fd5b80634b6f5502116100e95780634b6f55021461019957806350d9de1d146101ac57806361fac54d146101bf578063681f3e6d146101c757806377c846af146101cf57600080fd5b80632254df251461011b57806326f2d18b1461014457806332cc4e81146101595780633733d9f514610184575b600080fd5b60065461012f90600160801b900460ff1681565b60405190151581526020015b60405180910390f35b6101576101523660046109d7565b6102ce565b005b60055461016c906001600160801b031681565b6040516001600160801b03909116815260200161013b565b61018c61030e565b60405161013b9190610a01565b6101576101a7366004610a72565b6103a0565b60065461016c906001600160801b031681565b61018c61063e565b61018c6106cc565b6101576101dd366004610ad8565b6106db565b6101576101f0366004610ad8565b61078e565b61016c610203366004610b4a565b6000602081905290815260409020546001600160801b031681565b6101576006805460ff60801b1916600160801b179055565b60055461016c90600160801b90046001600160801b031681565b61015761025e366004610a72565b610830565b61018c6108c3565b60015461027e906001600160a01b031681565b6040516001600160a01b03909116815260200161013b565b6102a96102a4366004610b65565b6108d0565b60405161013b989796959493929190610b94565b6001546001600160a01b031661027e565b600060048260ff16815481106102e6576102e6610c01565b60009182526020909120600360069092020101805460ff60a81b1916600160a81b1790555050565b60606003805461031d90610c17565b80601f016020809104026020016040519081016040528092919081815260200182805461034990610c17565b80156103965780601f1061036b57610100808354040283529160200191610396565b820191906000526020600020905b81548152906001019060200180831161037957829003601f168201915b5050505050905090565b6000604051806101000160405280886001600160a01b03168152602001876001600160a01b03168152602001866001600160a01b03168152602001856001600160a01b03168152602001600060018111156103fd576103fd610b7e565b8152600060208201526040810185905260600183905260058054919250600160801b9091046001600160801b031690601061043783610c52565b82546101009290920a6001600160801b0381810219909316919092169190910217905550600480546001818101835560009290925282517f8a35acfbc15ff81a39ae7d344fd709f28e8600b4aa8c65c6b64bfe7fe36bd19b600690920291820180546001600160a01b03199081166001600160a01b0393841617825560208601517f8a35acfbc15ff81a39ae7d344fd709f28e8600b4aa8c65c6b64bfe7fe36bd19c85018054831691851691909117905560408601517f8a35acfbc15ff81a39ae7d344fd709f28e8600b4aa8c65c6b64bfe7fe36bd19d85018054831691851691909117905560608601517f8a35acfbc15ff81a39ae7d344fd709f28e8600b4aa8c65c6b64bfe7fe36bd19e90940180549182169490931693841783556080860151869592949093926001600160a81b03199092161790600160a01b90849081111561058557610585610b7e565b021790555060a0820151600382018054911515600160a81b0260ff60a81b1990921691909117905560c0820151600482015560e09091015160059182015580546001600160a01b038916600090815260208190526040812080546fffffffffffffffffffffffffffffffff19166001600160801b039384161790558254909116919061061083610c52565b91906101000a8154816001600160801b0302191690836001600160801b031602179055505050505050505050565b6002805461064b90610c17565b80601f016020809104026020016040519081016040528092919081815260200182805461067790610c17565b80156106c45780601f10610699576101008083540402835291602001916106c4565b820191906000526020600020905b8154815290600101906020018083116106a757829003601f168201915b505050505081565b60606002805461031d90610c17565b6001546001600160a01b0316331461073a5760405162461bcd60e51b815260206004820152601c60248201527f696e76616c6964207573657220666f722074686973206d6574686f640000000060448201526064015b60405180910390fd5b6107466002838361093e565b50336001600160a01b03167ff07516e9449b46121f3f7f7cb800fb5f90f7ee9e442a5479e8e3bab929d71b778383604051610782929190610c87565b60405180910390a25050565b6001546001600160a01b031633146107e85760405162461bcd60e51b815260206004820152601c60248201527f696e76616c6964207573657220666f722074686973206d6574686f64000000006044820152606401610731565b6107f46003838361093e565b50336001600160a01b03167ff01f8beedc6b4ff8605063d6b438798f7caa71e19ea3097a733f57c40072a3208383604051610782929190610c87565b6000604051806101000160405280886001600160a01b03168152602001876001600160a01b03168152602001866001600160a01b03168152602001856001600160a01b0316815260200160018081111561088c5761088c610b7e565b8152600060208201819052604082018690526060909101849052600680549293506001600160801b03909216919061043783610c52565b6003805461064b90610c17565b600481815481106108e057600080fd5b60009182526020909120600690910201805460018201546002830154600384015460048501546005909501546001600160a01b039485169650928416949184169381169260ff600160a01b8304811693600160a81b90930416919088565b82805461094a90610c17565b90600052602060002090601f01602090048101928261096c57600085556109b2565b82601f106109855782800160ff198235161785556109b2565b828001600101855582156109b2579182015b828111156109b2578235825591602001919060010190610997565b506109be9291506109c2565b5090565b5b808211156109be57600081556001016109c3565b6000602082840312156109e957600080fd5b813560ff811681146109fa57600080fd5b9392505050565b600060208083528351808285015260005b81811015610a2e57858101830151858201604001528201610a12565b81811115610a40576000604083870101525b50601f01601f1916929092016040019392505050565b80356001600160a01b0381168114610a6d57600080fd5b919050565b60008060008060008060c08789031215610a8b57600080fd5b610a9487610a56565b9550610aa260208801610a56565b9450610ab060408801610a56565b9350610abe60608801610a56565b92506080870135915060a087013590509295509295509295565b60008060208385031215610aeb57600080fd5b823567ffffffffffffffff80821115610b0357600080fd5b818501915085601f830112610b1757600080fd5b813581811115610b2657600080fd5b866020828501011115610b3857600080fd5b60209290920196919550909350505050565b600060208284031215610b5c57600080fd5b6109fa82610a56565b600060208284031215610b7757600080fd5b5035919050565b634e487b7160e01b600052602160045260246000fd5b6001600160a01b0389811682528881166020830152878116604083015286166060820152610100810160028610610bdb57634e487b7160e01b600052602160045260246000fd5b608082019590955292151560a084015260c083019190915260e090910152949350505050565b634e487b7160e01b600052603260045260246000fd5b600181811c90821680610c2b57607f821691505b60208210811415610c4c57634e487b7160e01b600052602260045260246000fd5b50919050565b60006001600160801b0380831681811415610c7d57634e487b7160e01b600052601160045260246000fd5b6001019392505050565b60208152816020820152818360408301376000818301604090810191909152601f909201601f1916010191905056fea2646970667358221220390044b9d21e6c6dae04f41830df39e19cfa17ee08908b796768b149c59977c064736f6c634300080c0033a2646970667358221220453e21bbadd29b56562b65115890cb6de355448f2572ca920b1ba34340ea99fd64736f6c634300080c0033",
  "immutableReferences": {},
  "source": "// SPDX-License-Identifier: GPL-3.0\n\npragma solidity >=0.7.0 <0.9.0;\n\nimport \"../User.sol\";\n\ncontract UserContractCreator {\n    address[] private userContracts;\n    uint128 private userCount;\n\n    // map user address to User contract\n    mapping(address => address) public userContractForUser;\n\n    event userContractCreated(address userAddress, address userContract);\n\n    function getUserContracts() public view returns (address[] memory) {\n        return userContracts;\n    }\n\n    function getUserCount() public view returns (uint256) {\n        return userCount;\n    }\n\n    function createUserContract(\n        address _userAddress,\n        string calldata _username,\n        string calldata _deliveryAddress\n    ) public {\n        require(\n            userContractForUser[_userAddress] == address(0x0),\n            \"User address already exists\"\n        );\n        require(\n            _userAddress == msg.sender,\n            \"Users can only create new account with their own address\"\n        );\n\n        User newUserContract = new User(\n            _userAddress,\n            _username,\n            _deliveryAddress\n        );\n\n        userContracts.push(address(newUserContract));\n        userContractForUser[_userAddress] = address(newUserContract);\n        userCount++;\n\n        emit userContractCreated(_userAddress, address(newUserContract));\n    }\n}\n",
  "sourcePath": "/Users/jyuteo/CodeProjects/TRent/smart-contracts/src/contracts/factory/UserContractCreator.sol",
  "compiler": {
    "name": "solc",
    "version": "0.8.12+commit.f00d7308.Emscripten.clang"
  },
  "schemaVersion": "3.4.3",
  "updatedAt": "2022-03-02T09:52:18.296Z",
  "networkType": "ethereum",
  "devdoc": {
    "kind": "dev",
    "methods": {},
    "version": 1
  },
  "userdoc": {
    "kind": "user",
    "methods": {},
    "version": 1
  }
}