{
  "contractName": "User",
  "abi": [
    {
      "inputs": [
        {
          "internalType": "address",
          "name": "_userAddress",
          "type": "address"
        },
        {
          "internalType": "string",
          "name": "_username",
          "type": "string"
        },
        {
          "internalType": "string",
          "name": "_deliveryAddress",
          "type": "string"
        }
      ],
      "stateMutability": "nonpayable",
      "type": "constructor"
    },
    {
      "anonymous": false,
      "inputs": [
        {
          "indexed": true,
          "internalType": "address",
          "name": "userAddress",
          "type": "address"
        },
        {
          "indexed": false,
          "internalType": "string",
          "name": "newDeliveryAddress",
          "type": "string"
        }
      ],
      "name": "deliveryAddressChanged",
      "type": "event"
    },
    {
      "anonymous": false,
      "inputs": [
        {
          "indexed": true,
          "internalType": "address",
          "name": "userAddress",
          "type": "address"
        },
        {
          "indexed": false,
          "internalType": "string",
          "name": "newUsername",
          "type": "string"
        }
      ],
      "name": "usernameChanged",
      "type": "event"
    },
    {
      "inputs": [],
      "name": "borrowingCount",
      "outputs": [
        {
          "internalType": "uint8",
          "name": "",
          "type": "uint8"
        }
      ],
      "stateMutability": "view",
      "type": "function"
    },
    {
      "inputs": [],
      "name": "deliveryAddress",
      "outputs": [
        {
          "internalType": "string",
          "name": "",
          "type": "string"
        }
      ],
      "stateMutability": "view",
      "type": "function"
    },
    {
      "inputs": [],
      "name": "isDishonestUser",
      "outputs": [
        {
          "internalType": "bool",
          "name": "",
          "type": "bool"
        }
      ],
      "stateMutability": "view",
      "type": "function"
    },
    {
      "inputs": [],
      "name": "lendingCount",
      "outputs": [
        {
          "internalType": "uint8",
          "name": "",
          "type": "uint8"
        }
      ],
      "stateMutability": "view",
      "type": "function"
    },
    {
      "inputs": [
        {
          "internalType": "uint256",
          "name": "",
          "type": "uint256"
        }
      ],
      "name": "rentalHistories",
      "outputs": [
        {
          "internalType": "address",
          "name": "itemContract",
          "type": "address"
        },
        {
          "internalType": "address",
          "name": "rentalContract",
          "type": "address"
        },
        {
          "internalType": "enum User.Role",
          "name": "role",
          "type": "uint8"
        },
        {
          "internalType": "bool",
          "name": "hasRated",
          "type": "bool"
        },
        {
          "internalType": "uint256",
          "name": "start",
          "type": "uint256"
        },
        {
          "internalType": "uint256",
          "name": "end",
          "type": "uint256"
        }
      ],
      "stateMutability": "view",
      "type": "function"
    },
    {
      "inputs": [],
      "name": "rentalHistoryCount",
      "outputs": [
        {
          "internalType": "uint8",
          "name": "",
          "type": "uint8"
        }
      ],
      "stateMutability": "view",
      "type": "function"
    },
    {
      "inputs": [
        {
          "internalType": "address",
          "name": "",
          "type": "address"
        }
      ],
      "name": "rentalIndexInRentalHistory",
      "outputs": [
        {
          "internalType": "uint8",
          "name": "",
          "type": "uint8"
        }
      ],
      "stateMutability": "view",
      "type": "function"
    },
    {
      "inputs": [],
      "name": "userAddress",
      "outputs": [
        {
          "internalType": "address",
          "name": "",
          "type": "address"
        }
      ],
      "stateMutability": "view",
      "type": "function"
    },
    {
      "inputs": [],
      "name": "username",
      "outputs": [
        {
          "internalType": "string",
          "name": "",
          "type": "string"
        }
      ],
      "stateMutability": "view",
      "type": "function"
    },
    {
      "inputs": [],
      "name": "getUserAddress",
      "outputs": [
        {
          "internalType": "address",
          "name": "",
          "type": "address"
        }
      ],
      "stateMutability": "view",
      "type": "function"
    },
    {
      "inputs": [],
      "name": "getDeliveryAddress",
      "outputs": [
        {
          "internalType": "string",
          "name": "",
          "type": "string"
        }
      ],
      "stateMutability": "view",
      "type": "function"
    },
    {
      "inputs": [],
      "name": "getUsername",
      "outputs": [
        {
          "internalType": "string",
          "name": "",
          "type": "string"
        }
      ],
      "stateMutability": "view",
      "type": "function"
    },
    {
      "inputs": [
        {
          "internalType": "string",
          "name": "_newUsername",
          "type": "string"
        }
      ],
      "name": "changeUsername",
      "outputs": [],
      "stateMutability": "nonpayable",
      "type": "function"
    },
    {
      "inputs": [
        {
          "internalType": "string",
          "name": "_newDeliveryAddress",
          "type": "string"
        }
      ],
      "name": "changeDeliveryAddress",
      "outputs": [],
      "stateMutability": "nonpayable",
      "type": "function"
    },
    {
      "inputs": [
        {
          "internalType": "uint8",
          "name": "_index",
          "type": "uint8"
        }
      ],
      "name": "setRentalHisotryHasRated",
      "outputs": [],
      "stateMutability": "nonpayable",
      "type": "function"
    },
    {
      "inputs": [
        {
          "internalType": "address",
          "name": "_item",
          "type": "address"
        },
        {
          "internalType": "address",
          "name": "_rental",
          "type": "address"
        },
        {
          "internalType": "uint256",
          "name": "_start",
          "type": "uint256"
        },
        {
          "internalType": "uint256",
          "name": "_end",
          "type": "uint256"
        }
      ],
      "name": "addNewLending",
      "outputs": [],
      "stateMutability": "nonpayable",
      "type": "function"
    },
    {
      "inputs": [
        {
          "internalType": "address",
          "name": "_item",
          "type": "address"
        },
        {
          "internalType": "address",
          "name": "_rental",
          "type": "address"
        },
        {
          "internalType": "uint256",
          "name": "_start",
          "type": "uint256"
        },
        {
          "internalType": "uint256",
          "name": "_end",
          "type": "uint256"
        }
      ],
      "name": "addNewBorrowing",
      "outputs": [],
      "stateMutability": "nonpayable",
      "type": "function"
    },
    {
      "inputs": [],
      "name": "setAsDishonest",
      "outputs": [],
      "stateMutability": "nonpayable",
      "type": "function"
    }
  ],
  "bytecode": "0x60806040523480156200001157600080fd5b5060405162000e4938038062000e49833981016040819052620000349162000205565b600180546001600160a01b0319166001600160a01b03851617905581516200006490600290602085019062000092565b5080516200007a90600390602084019062000092565b50506005805463ffffffff1916905550620002cc9050565b828054620000a0906200028f565b90600052602060002090601f016020900481019282620000c457600085556200010f565b82601f10620000df57805160ff19168380011785556200010f565b828001600101855582156200010f579182015b828111156200010f578251825591602001919060010190620000f2565b506200011d92915062000121565b5090565b5b808211156200011d576000815560010162000122565b634e487b7160e01b600052604160045260246000fd5b600082601f8301126200016057600080fd5b81516001600160401b03808211156200017d576200017d62000138565b604051601f8301601f19908116603f01168101908282118183101715620001a857620001a862000138565b81604052838152602092508683858801011115620001c557600080fd5b600091505b83821015620001e95785820183015181830184015290820190620001ca565b83821115620001fb5760008385830101525b9695505050505050565b6000806000606084860312156200021b57600080fd5b83516001600160a01b03811681146200023357600080fd5b60208501519093506001600160401b03808211156200025157600080fd5b6200025f878388016200014e565b935060408601519150808211156200027657600080fd5b5062000285868287016200014e565b9150509250925092565b600181811c90821680620002a457607f821691505b60208210811415620002c657634e487b7160e01b600052602260045260246000fd5b50919050565b610b6d80620002dc6000396000f3fe608060405234801561001057600080fd5b50600436106101165760003560e01c806390f1af6c116100a2578063b35ddf9411610071578063b35ddf9414610237578063c2bd811914610249578063e4128fb314610251578063e85e79b61461027c578063ebc3eee8146102a157600080fd5b806390f1af6c146101d6578063922b57fa146101f957806395578e5814610211578063a93489951461022457600080fd5b806350d9de1d116100e957806350d9de1d1461018d57806361fac54d146101a0578063681f3e6d146101a857806377c846af146101b0578063886f1bb9146101c357600080fd5b80632254df251461011b57806326f2d18b1461014457806332cc4e81146101595780633733d9f514610178575b600080fd5b60055461012f906301000000900460ff1681565b60405190151581526020015b60405180910390f35b610157610152366004610896565b6102b2565b005b6005546101669060ff1681565b60405160ff909116815260200161013b565b6101806102f2565b60405161013b91906108c0565b6005546101669062010000900460ff1681565b610180610384565b610180610412565b6101576101be366004610915565b610421565b6101576101d1366004610915565b6104d4565b6101666101e43660046109a3565b60006020819052908152604090205460ff1681565b6101576005805463ff00000019166301000000179055565b61015761021f3660046109be565b610576565b6101576102323660046109be565b61073f565b60055461016690610100900460ff1681565b610180610794565b600154610264906001600160a01b031681565b6040516001600160a01b03909116815260200161013b565b61028f61028a366004610a00565b6107a1565b60405161013b96959493929190610a2f565b6001546001600160a01b0316610264565b600060048260ff16815481106102ca576102ca610a89565b60009182526020909120600160049092020101805460ff60a81b1916600160a81b1790555050565b60606003805461030190610a9f565b80601f016020809104026020016040519081016040528092919081815260200182805461032d90610a9f565b801561037a5780601f1061034f5761010080835404028352916020019161037a565b820191906000526020600020905b81548152906001019060200180831161035d57829003601f168201915b5050505050905090565b6002805461039190610a9f565b80601f01602080910402602001604051908101604052809291908181526020018280546103bd90610a9f565b801561040a5780601f106103df5761010080835404028352916020019161040a565b820191906000526020600020905b8154815290600101906020018083116103ed57829003601f168201915b505050505081565b60606002805461030190610a9f565b6001546001600160a01b031633146104805760405162461bcd60e51b815260206004820152601c60248201527f696e76616c6964207573657220666f722074686973206d6574686f640000000060448201526064015b60405180910390fd5b61048c600283836107fd565b50336001600160a01b03167ff07516e9449b46121f3f7f7cb800fb5f90f7ee9e442a5479e8e3bab929d71b7783836040516104c8929190610ada565b60405180910390a25050565b6001546001600160a01b0316331461052e5760405162461bcd60e51b815260206004820152601c60248201527f696e76616c6964207573657220666f722074686973206d6574686f64000000006044820152606401610477565b61053a600383836107fd565b50336001600160a01b03167ff01f8beedc6b4ff8605063d6b438798f7caa71e19ea3097a733f57c40072a32083836040516104c8929190610ada565b6040805160c0810182526001600160a01b03808716825285166020820152600091810182815260006020820152604081018590526060018390526005805491925061010090910460ff169060016105cc83610b09565b82546101009290920a60ff818102199093169190921691909102179055506004805460018181018355600083905283517f8a35acfbc15ff81a39ae7d344fd709f28e8600b4aa8c65c6b64bfe7fe36bd19b9290930291820180546001600160a01b03199081166001600160a01b0395861617825560208601517f8a35acfbc15ff81a39ae7d344fd709f28e8600b4aa8c65c6b64bfe7fe36bd19c909401805491821694909516938417855560408601518695929490936001600160a81b03199092161790600160a01b9084908111156106a7576106a7610a19565b02179055506060820151600182018054911515600160a81b0260ff60a81b199092169190911790556080820151600282015560a090910151600390910155600580546001600160a01b0387166000908152602081905260408120805460ff191660ff9384161790558254909116919061071f83610b09565b91906101000a81548160ff021916908360ff160217905550505050505050565b6040805160c0810182526001600160a01b03868116825285166020820152600191810191909152600060608201526080810183905260a081018290526005805462010000900460ff169060026105cc83610b09565b6003805461039190610a9f565b600481815481106107b157600080fd5b600091825260209091206004909102018054600182015460028301546003909301546001600160a01b0392831694509181169260ff600160a01b8304811693600160a81b909304169186565b82805461080990610a9f565b90600052602060002090601f01602090048101928261082b5760008555610871565b82601f106108445782800160ff19823516178555610871565b82800160010185558215610871579182015b82811115610871578235825591602001919060010190610856565b5061087d929150610881565b5090565b5b8082111561087d5760008155600101610882565b6000602082840312156108a857600080fd5b813560ff811681146108b957600080fd5b9392505050565b600060208083528351808285015260005b818110156108ed578581018301518582016040015282016108d1565b818111156108ff576000604083870101525b50601f01601f1916929092016040019392505050565b6000806020838503121561092857600080fd5b823567ffffffffffffffff8082111561094057600080fd5b818501915085601f83011261095457600080fd5b81358181111561096357600080fd5b86602082850101111561097557600080fd5b60209290920196919550909350505050565b80356001600160a01b038116811461099e57600080fd5b919050565b6000602082840312156109b557600080fd5b6108b982610987565b600080600080608085870312156109d457600080fd5b6109dd85610987565b93506109eb60208601610987565b93969395505050506040820135916060013590565b600060208284031215610a1257600080fd5b5035919050565b634e487b7160e01b600052602160045260246000fd5b6001600160a01b0387811682528616602082015260c0810160028610610a6557634e487b7160e01b600052602160045260246000fd5b60408201959095529215156060840152608083019190915260a09091015292915050565b634e487b7160e01b600052603260045260246000fd5b600181811c90821680610ab357607f821691505b60208210811415610ad457634e487b7160e01b600052602260045260246000fd5b50919050565b60208152816020820152818360408301376000818301604090810191909152601f909201601f19160101919050565b600060ff821660ff811415610b2e57634e487b7160e01b600052601160045260246000fd5b6001019291505056fea26469706673582212200005419acad98508465e66689a89c0c81e4306ef8e0892ac71884f86b0601da564736f6c634300080b0033",
  "immutableReferences": {},
  "source": "// SPDX-License-Identifier: GPL-3.0\n\npragma solidity >=0.7.0 <0.9.0;\n\n// import \"./Item.sol\";\nimport \"./Rental.sol\";\n\ncontract User {\n    enum Role {\n        OWNER,\n        RENTER\n    }\n\n    struct RentalHistory {\n        address itemContract; // address of the deployed smart contract for the item\n        address rentalContract; // address of the deployed rental contract\n        Role role;\n        bool hasRated; // rate the opposite role in the contact\n        uint256 start; // Unix epoch time\n        uint256 end; // Unix epoch time\n    }\n\n    mapping(address => uint8) public rentalIndexInRentalHistory;\n\n    address public userAddress;\n    string public username;\n    string public deliveryAddress;\n\n    RentalHistory[] public rentalHistories;\n    uint8 public rentalHistoryCount;\n    // Review[] public reviews;\n    // uint8 public reviewCount;\n    uint8 public lendingCount;\n    uint8 public borrowingCount;\n    bool public isDishonestUser;\n\n    event usernameChanged(address indexed userAddress, string newUsername);\n    event deliveryAddressChanged(\n        address indexed userAddress,\n        string newDeliveryAddress\n    );\n\n    constructor(\n        address _userAddress,\n        string memory _username,\n        string memory _deliveryAddress\n    ) {\n        userAddress = _userAddress;\n        username = _username;\n        deliveryAddress = _deliveryAddress;\n\n        rentalHistoryCount = 0;\n        // reviewCount = 0;\n        lendingCount = 0;\n        borrowingCount = 0;\n        isDishonestUser = false;\n    }\n\n    modifier onlyUser() {\n        require(msg.sender == userAddress, \"invalid user for this method\");\n        _;\n    }\n\n    function getUserAddress() public view returns (address) {\n        return userAddress;\n    }\n\n    function getDeliveryAddress() public view returns (string memory) {\n        return deliveryAddress;\n    }\n\n    function getUsername() public view returns (string memory) {\n        return username;\n    }\n\n    function changeUsername(string calldata _newUsername) public onlyUser {\n        username = _newUsername;\n        emit usernameChanged(msg.sender, _newUsername);\n    }\n\n    function changeDeliveryAddress(string calldata _newDeliveryAddress)\n        public\n        onlyUser\n    {\n        deliveryAddress = _newDeliveryAddress;\n        emit deliveryAddressChanged(msg.sender, _newDeliveryAddress);\n    }\n\n    function setRentalHisotryHasRated(uint8 _index) public {\n        RentalHistory storage history = rentalHistories[_index];\n        history.hasRated = true;\n    }\n\n    // lending: user is owner\n    function addNewLending(\n        address _item,\n        address _rental,\n        uint256 _start,\n        uint256 _end\n    ) public {\n        RentalHistory memory history = RentalHistory({\n            itemContract: _item,\n            rentalContract: _rental,\n            role: Role.OWNER,\n            hasRated: false,\n            start: _start,\n            end: _end\n        });\n\n        lendingCount++;\n        rentalHistories.push(history);\n        rentalIndexInRentalHistory[_item] = rentalHistoryCount;\n        rentalHistoryCount++;\n    }\n\n    // borrowing: user is renter\n    function addNewBorrowing(\n        address _item,\n        address _rental,\n        uint256 _start,\n        uint256 _end\n    ) public {\n        RentalHistory memory history = RentalHistory({\n            itemContract: _item,\n            rentalContract: _rental,\n            role: Role.RENTER,\n            hasRated: false,\n            start: _start,\n            end: _end\n        });\n\n        borrowingCount++;\n        rentalHistories.push(history);\n        rentalIndexInRentalHistory[_item] = rentalHistoryCount;\n        rentalHistoryCount++;\n    }\n\n    function setAsDishonest() public {\n        isDishonestUser = true;\n    }\n}\n",
  "sourcePath": "/Users/jyuteo/CodeProjects/TRent/smart-contracts/src/contracts/User.sol",
  "compiler": {
    "name": "solc",
    "version": "0.8.11+commit.d7f03943.Emscripten.clang"
  },
  "schemaVersion": "3.4.3",
  "updatedAt": "2022-01-17T10:36:23.858Z",
  "devdoc": {
    "kind": "dev",
    "methods": {},
    "version": 1
  },
  "userdoc": {
    "kind": "user",
    "methods": {},
    "version": 1
  }
}