{
  "contractName": "User",
  "abi": [
    {
      "inputs": [
        {
          "internalType": "address",
          "name": "_userAddress",
          "type": "address"
        },
        {
          "internalType": "string",
          "name": "_username",
          "type": "string"
        },
        {
          "internalType": "string",
          "name": "_deliveryAddress",
          "type": "string"
        }
      ],
      "stateMutability": "nonpayable",
      "type": "constructor"
    },
    {
      "anonymous": false,
      "inputs": [
        {
          "indexed": true,
          "internalType": "address",
          "name": "userAddress",
          "type": "address"
        },
        {
          "indexed": false,
          "internalType": "string",
          "name": "newDeliveryAddress",
          "type": "string"
        }
      ],
      "name": "deliveryAddressChanged",
      "type": "event"
    },
    {
      "anonymous": false,
      "inputs": [
        {
          "indexed": true,
          "internalType": "address",
          "name": "userAddress",
          "type": "address"
        },
        {
          "indexed": false,
          "internalType": "string",
          "name": "newUsername",
          "type": "string"
        }
      ],
      "name": "usernameChanged",
      "type": "event"
    },
    {
      "inputs": [],
      "name": "borrowingCount",
      "outputs": [
        {
          "internalType": "uint8",
          "name": "",
          "type": "uint8"
        }
      ],
      "stateMutability": "view",
      "type": "function"
    },
    {
      "inputs": [],
      "name": "deliveryAddress",
      "outputs": [
        {
          "internalType": "string",
          "name": "",
          "type": "string"
        }
      ],
      "stateMutability": "view",
      "type": "function"
    },
    {
      "inputs": [],
      "name": "isDishonestUser",
      "outputs": [
        {
          "internalType": "bool",
          "name": "",
          "type": "bool"
        }
      ],
      "stateMutability": "view",
      "type": "function"
    },
    {
      "inputs": [],
      "name": "lendingCount",
      "outputs": [
        {
          "internalType": "uint8",
          "name": "",
          "type": "uint8"
        }
      ],
      "stateMutability": "view",
      "type": "function"
    },
    {
      "inputs": [
        {
          "internalType": "uint256",
          "name": "",
          "type": "uint256"
        }
      ],
      "name": "rentalHistories",
      "outputs": [
        {
          "internalType": "address",
          "name": "itemContract",
          "type": "address"
        },
        {
          "internalType": "address",
          "name": "rentalContract",
          "type": "address"
        },
        {
          "internalType": "address",
          "name": "ownerUserContract",
          "type": "address"
        },
        {
          "internalType": "address",
          "name": "renterUserContract",
          "type": "address"
        },
        {
          "internalType": "enum User.Role",
          "name": "role",
          "type": "uint8"
        },
        {
          "internalType": "bool",
          "name": "hasRated",
          "type": "bool"
        },
        {
          "internalType": "uint256",
          "name": "start",
          "type": "uint256"
        },
        {
          "internalType": "uint256",
          "name": "end",
          "type": "uint256"
        }
      ],
      "stateMutability": "view",
      "type": "function"
    },
    {
      "inputs": [],
      "name": "rentalHistoryCount",
      "outputs": [
        {
          "internalType": "uint8",
          "name": "",
          "type": "uint8"
        }
      ],
      "stateMutability": "view",
      "type": "function"
    },
    {
      "inputs": [
        {
          "internalType": "address",
          "name": "",
          "type": "address"
        }
      ],
      "name": "rentalIndexInRentalHistory",
      "outputs": [
        {
          "internalType": "uint8",
          "name": "",
          "type": "uint8"
        }
      ],
      "stateMutability": "view",
      "type": "function"
    },
    {
      "inputs": [],
      "name": "userAddress",
      "outputs": [
        {
          "internalType": "address",
          "name": "",
          "type": "address"
        }
      ],
      "stateMutability": "view",
      "type": "function"
    },
    {
      "inputs": [],
      "name": "username",
      "outputs": [
        {
          "internalType": "string",
          "name": "",
          "type": "string"
        }
      ],
      "stateMutability": "view",
      "type": "function"
    },
    {
      "inputs": [],
      "name": "getUserAddress",
      "outputs": [
        {
          "internalType": "address",
          "name": "",
          "type": "address"
        }
      ],
      "stateMutability": "view",
      "type": "function"
    },
    {
      "inputs": [],
      "name": "getDeliveryAddress",
      "outputs": [
        {
          "internalType": "string",
          "name": "",
          "type": "string"
        }
      ],
      "stateMutability": "view",
      "type": "function"
    },
    {
      "inputs": [],
      "name": "getUsername",
      "outputs": [
        {
          "internalType": "string",
          "name": "",
          "type": "string"
        }
      ],
      "stateMutability": "view",
      "type": "function"
    },
    {
      "inputs": [
        {
          "internalType": "string",
          "name": "_newUsername",
          "type": "string"
        }
      ],
      "name": "changeUsername",
      "outputs": [],
      "stateMutability": "nonpayable",
      "type": "function"
    },
    {
      "inputs": [
        {
          "internalType": "string",
          "name": "_newDeliveryAddress",
          "type": "string"
        }
      ],
      "name": "changeDeliveryAddress",
      "outputs": [],
      "stateMutability": "nonpayable",
      "type": "function"
    },
    {
      "inputs": [
        {
          "internalType": "uint8",
          "name": "_index",
          "type": "uint8"
        }
      ],
      "name": "setRentalHisotryHasRated",
      "outputs": [],
      "stateMutability": "nonpayable",
      "type": "function"
    },
    {
      "inputs": [
        {
          "internalType": "address",
          "name": "_item",
          "type": "address"
        },
        {
          "internalType": "address",
          "name": "_rental",
          "type": "address"
        },
        {
          "internalType": "address",
          "name": "_ownerUserContract",
          "type": "address"
        },
        {
          "internalType": "address",
          "name": "_renterUserContract",
          "type": "address"
        },
        {
          "internalType": "uint256",
          "name": "_start",
          "type": "uint256"
        },
        {
          "internalType": "uint256",
          "name": "_end",
          "type": "uint256"
        }
      ],
      "name": "addNewLending",
      "outputs": [],
      "stateMutability": "nonpayable",
      "type": "function"
    },
    {
      "inputs": [
        {
          "internalType": "address",
          "name": "_item",
          "type": "address"
        },
        {
          "internalType": "address",
          "name": "_rental",
          "type": "address"
        },
        {
          "internalType": "address",
          "name": "_ownerUserContract",
          "type": "address"
        },
        {
          "internalType": "address",
          "name": "_renterUserContract",
          "type": "address"
        },
        {
          "internalType": "uint256",
          "name": "_start",
          "type": "uint256"
        },
        {
          "internalType": "uint256",
          "name": "_end",
          "type": "uint256"
        }
      ],
      "name": "addNewBorrowing",
      "outputs": [],
      "stateMutability": "nonpayable",
      "type": "function"
    },
    {
      "inputs": [],
      "name": "setAsDishonest",
      "outputs": [],
      "stateMutability": "nonpayable",
      "type": "function"
    }
  ],
  "bytecode": "0x60806040523480156200001157600080fd5b5060405162000f7438038062000f74833981016040819052620000349162000205565b600180546001600160a01b0319166001600160a01b03851617905581516200006490600290602085019062000092565b5080516200007a90600390602084019062000092565b50506005805463ffffffff1916905550620002cc9050565b828054620000a0906200028f565b90600052602060002090601f016020900481019282620000c457600085556200010f565b82601f10620000df57805160ff19168380011785556200010f565b828001600101855582156200010f579182015b828111156200010f578251825591602001919060010190620000f2565b506200011d92915062000121565b5090565b5b808211156200011d576000815560010162000122565b634e487b7160e01b600052604160045260246000fd5b600082601f8301126200016057600080fd5b81516001600160401b03808211156200017d576200017d62000138565b604051601f8301601f19908116603f01168101908282118183101715620001a857620001a862000138565b81604052838152602092508683858801011115620001c557600080fd5b600091505b83821015620001e95785820183015181830184015290820190620001ca565b83821115620001fb5760008385830101525b9695505050505050565b6000806000606084860312156200021b57600080fd5b83516001600160a01b03811681146200023357600080fd5b60208501519093506001600160401b03808211156200025157600080fd5b6200025f878388016200014e565b935060408601519150808211156200027657600080fd5b5062000285868287016200014e565b9150509250925092565b600181811c90821680620002a457607f821691505b60208210811415620002c657634e487b7160e01b600052602260045260246000fd5b50919050565b610c9880620002dc6000396000f3fe608060405234801561001057600080fd5b50600436106101165760003560e01c8063886f1bb9116100a2578063c062208711610071578063c062208714610236578063c2bd811914610249578063e4128fb314610251578063e85e79b61461027c578063ebc3eee8146102a357600080fd5b8063886f1bb9146101d657806390f1af6c146101e9578063922b57fa1461020c578063b35ddf941461022457600080fd5b80634b6f5502116100e95780634b6f55021461018d57806350d9de1d146101a057806361fac54d146101b3578063681f3e6d146101bb57806377c846af146101c357600080fd5b80632254df251461011b57806326f2d18b1461014457806332cc4e81146101595780633733d9f514610178575b600080fd5b60055461012f906301000000900460ff1681565b60405190151581526020015b60405180910390f35b61015761015236600461098a565b6102b4565b005b6005546101669060ff1681565b60405160ff909116815260200161013b565b6101806102f4565b60405161013b91906109b4565b61015761019b366004610a25565b610386565b6005546101669062010000900460ff1681565b6101806105f5565b610180610683565b6101576101d1366004610a8b565b610692565b6101576101e4366004610a8b565b610745565b6101666101f7366004610afd565b60006020819052908152604090205460ff1681565b6101576005805463ff00000019166301000000179055565b60055461016690610100900460ff1681565b610157610244366004610a25565b6107e7565b610180610876565b600154610264906001600160a01b031681565b6040516001600160a01b03909116815260200161013b565b61028f61028a366004610b18565b610883565b60405161013b989796959493929190610b47565b6001546001600160a01b0316610264565b600060048260ff16815481106102cc576102cc610bb4565b60009182526020909120600360069092020101805460ff60a81b1916600160a81b1790555050565b60606003805461030390610bca565b80601f016020809104026020016040519081016040528092919081815260200182805461032f90610bca565b801561037c5780601f106103515761010080835404028352916020019161037c565b820191906000526020600020905b81548152906001019060200180831161035f57829003601f168201915b5050505050905090565b6000604051806101000160405280886001600160a01b03168152602001876001600160a01b03168152602001866001600160a01b03168152602001856001600160a01b03168152602001600060018111156103e3576103e3610b31565b815260006020820152604081018590526060018390526005805491925061010090910460ff1690600161041583610c05565b82546101009290920a60ff81810219909316919092169190910217905550600480546001818101835560009290925282517f8a35acfbc15ff81a39ae7d344fd709f28e8600b4aa8c65c6b64bfe7fe36bd19b600690920291820180546001600160a01b03199081166001600160a01b0393841617825560208601517f8a35acfbc15ff81a39ae7d344fd709f28e8600b4aa8c65c6b64bfe7fe36bd19c85018054831691851691909117905560408601517f8a35acfbc15ff81a39ae7d344fd709f28e8600b4aa8c65c6b64bfe7fe36bd19d85018054831691851691909117905560608601517f8a35acfbc15ff81a39ae7d344fd709f28e8600b4aa8c65c6b64bfe7fe36bd19e90940180549182169490931693841783556080860151869592949093926001600160a81b03199092161790600160a01b90849081111561055d5761055d610b31565b021790555060a0820151600382018054911515600160a81b0260ff60a81b1990921691909117905560c0820151600482015560e09091015160059182015580546001600160a01b0389166000908152602081905260408120805460ff191660ff938416179055825490911691906105d383610c05565b91906101000a81548160ff021916908360ff1602179055505050505050505050565b6002805461060290610bca565b80601f016020809104026020016040519081016040528092919081815260200182805461062e90610bca565b801561067b5780601f106106505761010080835404028352916020019161067b565b820191906000526020600020905b81548152906001019060200180831161065e57829003601f168201915b505050505081565b60606002805461030390610bca565b6001546001600160a01b031633146106f15760405162461bcd60e51b815260206004820152601c60248201527f696e76616c6964207573657220666f722074686973206d6574686f640000000060448201526064015b60405180910390fd5b6106fd600283836108f1565b50336001600160a01b03167ff07516e9449b46121f3f7f7cb800fb5f90f7ee9e442a5479e8e3bab929d71b778383604051610739929190610c33565b60405180910390a25050565b6001546001600160a01b0316331461079f5760405162461bcd60e51b815260206004820152601c60248201527f696e76616c6964207573657220666f722074686973206d6574686f640000000060448201526064016106e8565b6107ab600383836108f1565b50336001600160a01b03167ff01f8beedc6b4ff8605063d6b438798f7caa71e19ea3097a733f57c40072a3208383604051610739929190610c33565b6000604051806101000160405280886001600160a01b03168152602001876001600160a01b03168152602001866001600160a01b03168152602001856001600160a01b0316815260200160018081111561084357610843610b31565b81526000602082015260408101859052606001839052600580549192506201000090910460ff1690600261041583610c05565b6003805461060290610bca565b6004818154811061089357600080fd5b60009182526020909120600690910201805460018201546002830154600384015460048501546005909501546001600160a01b039485169650928416949184169381169260ff600160a01b8304811693600160a81b90930416919088565b8280546108fd90610bca565b90600052602060002090601f01602090048101928261091f5760008555610965565b82601f106109385782800160ff19823516178555610965565b82800160010185558215610965579182015b8281111561096557823582559160200191906001019061094a565b50610971929150610975565b5090565b5b808211156109715760008155600101610976565b60006020828403121561099c57600080fd5b813560ff811681146109ad57600080fd5b9392505050565b600060208083528351808285015260005b818110156109e1578581018301518582016040015282016109c5565b818111156109f3576000604083870101525b50601f01601f1916929092016040019392505050565b80356001600160a01b0381168114610a2057600080fd5b919050565b60008060008060008060c08789031215610a3e57600080fd5b610a4787610a09565b9550610a5560208801610a09565b9450610a6360408801610a09565b9350610a7160608801610a09565b92506080870135915060a087013590509295509295509295565b60008060208385031215610a9e57600080fd5b823567ffffffffffffffff80821115610ab657600080fd5b818501915085601f830112610aca57600080fd5b813581811115610ad957600080fd5b866020828501011115610aeb57600080fd5b60209290920196919550909350505050565b600060208284031215610b0f57600080fd5b6109ad82610a09565b600060208284031215610b2a57600080fd5b5035919050565b634e487b7160e01b600052602160045260246000fd5b6001600160a01b0389811682528881166020830152878116604083015286166060820152610100810160028610610b8e57634e487b7160e01b600052602160045260246000fd5b608082019590955292151560a084015260c083019190915260e090910152949350505050565b634e487b7160e01b600052603260045260246000fd5b600181811c90821680610bde57607f821691505b60208210811415610bff57634e487b7160e01b600052602260045260246000fd5b50919050565b600060ff821660ff811415610c2a57634e487b7160e01b600052601160045260246000fd5b60010192915050565b60208152816020820152818360408301376000818301604090810191909152601f909201601f1916010191905056fea264697066735822122072ebce2663c6e11481599504e3092897508dc928509a1e4d9a3eccb8c54136a964736f6c634300080b0033",
  "immutableReferences": {},
  "source": "// SPDX-License-Identifier: GPL-3.0\n\npragma solidity >=0.7.0 <0.9.0;\n\n// import \"./Item.sol\";\nimport \"./Rental.sol\";\n\ncontract User {\n    enum Role {\n        OWNER,\n        RENTER\n    }\n\n    struct RentalHistory {\n        address itemContract; // address of the deployed smart contract for the item\n        address rentalContract; // address of the deployed rental contract\n        address ownerUserContract;\n        address renterUserContract;\n        Role role; // 0 for owner, 1 for renter\n        bool hasRated; // rate the opposite role in the contact\n        uint256 start; // Unix epoch time\n        uint256 end; // Unix epoch time\n    }\n\n    mapping(address => uint8) public rentalIndexInRentalHistory;\n\n    address public userAddress;\n    string public username;\n    string public deliveryAddress;\n\n    RentalHistory[] public rentalHistories;\n    uint8 public rentalHistoryCount;\n    uint8 public lendingCount;\n    uint8 public borrowingCount;\n    bool public isDishonestUser;\n\n    event usernameChanged(address indexed userAddress, string newUsername);\n    event deliveryAddressChanged(\n        address indexed userAddress,\n        string newDeliveryAddress\n    );\n\n    constructor(\n        address _userAddress,\n        string memory _username,\n        string memory _deliveryAddress\n    ) {\n        userAddress = _userAddress;\n        username = _username;\n        deliveryAddress = _deliveryAddress;\n\n        rentalHistoryCount = 0;\n        lendingCount = 0;\n        borrowingCount = 0;\n        isDishonestUser = false;\n    }\n\n    modifier onlyUser() {\n        require(msg.sender == userAddress, \"invalid user for this method\");\n        _;\n    }\n\n    function getUserAddress() public view returns (address) {\n        return userAddress;\n    }\n\n    function getDeliveryAddress() public view returns (string memory) {\n        return deliveryAddress;\n    }\n\n    function getUsername() public view returns (string memory) {\n        return username;\n    }\n\n    function changeUsername(string calldata _newUsername) public onlyUser {\n        username = _newUsername;\n        emit usernameChanged(msg.sender, _newUsername);\n    }\n\n    function changeDeliveryAddress(string calldata _newDeliveryAddress)\n        public\n        onlyUser\n    {\n        deliveryAddress = _newDeliveryAddress;\n        emit deliveryAddressChanged(msg.sender, _newDeliveryAddress);\n    }\n\n    function setRentalHisotryHasRated(uint8 _index) public {\n        RentalHistory storage history = rentalHistories[_index];\n        history.hasRated = true;\n    }\n\n    // lending: user is owner\n    function addNewLending(\n        address _item,\n        address _rental,\n        address _ownerUserContract,\n        address _renterUserContract,\n        uint256 _start,\n        uint256 _end\n    ) public {\n        RentalHistory memory history = RentalHistory({\n            itemContract: _item,\n            rentalContract: _rental,\n            ownerUserContract: _ownerUserContract,\n            renterUserContract: _renterUserContract,\n            role: Role.OWNER,\n            hasRated: false,\n            start: _start,\n            end: _end\n        });\n\n        lendingCount++;\n        rentalHistories.push(history);\n        rentalIndexInRentalHistory[_item] = rentalHistoryCount;\n        rentalHistoryCount++;\n    }\n\n    // borrowing: user is renter\n    function addNewBorrowing(\n        address _item,\n        address _rental,\n        address _ownerUserContract,\n        address _renterUserContract,\n        uint256 _start,\n        uint256 _end\n    ) public {\n        RentalHistory memory history = RentalHistory({\n            itemContract: _item,\n            rentalContract: _rental,\n            ownerUserContract: _ownerUserContract,\n            renterUserContract: _renterUserContract,\n            role: Role.RENTER,\n            hasRated: false,\n            start: _start,\n            end: _end\n        });\n\n        borrowingCount++;\n        rentalHistories.push(history);\n        rentalIndexInRentalHistory[_item] = rentalHistoryCount;\n        rentalHistoryCount++;\n    }\n\n    function setAsDishonest() public {\n        isDishonestUser = true;\n    }\n}\n",
  "sourcePath": "/Users/jyuteo/CodeProjects/TRent/smart-contracts/src/contracts/User.sol",
  "compiler": {
    "name": "solc",
    "version": "0.8.11+commit.d7f03943.Emscripten.clang"
  },
  "schemaVersion": "3.4.3",
  "updatedAt": "2022-02-04T02:45:57.973Z",
  "devdoc": {
    "kind": "dev",
    "methods": {},
    "version": 1
  },
  "userdoc": {
    "kind": "user",
    "methods": {},
    "version": 1
  }
}