{
  "contractName": "ContractFactory",
  "abi": [
    {
      "inputs": [],
      "stateMutability": "nonpayable",
      "type": "constructor"
    },
    {
      "anonymous": false,
      "inputs": [
        {
          "indexed": false,
          "internalType": "address",
          "name": "newAdminAddress",
          "type": "address"
        }
      ],
      "name": "adminChanged",
      "type": "event"
    },
    {
      "anonymous": false,
      "inputs": [
        {
          "indexed": false,
          "internalType": "address",
          "name": "userAddress",
          "type": "address"
        },
        {
          "indexed": false,
          "internalType": "address",
          "name": "userContract",
          "type": "address"
        }
      ],
      "name": "userContractCreated",
      "type": "event"
    },
    {
      "inputs": [
        {
          "internalType": "address",
          "name": "",
          "type": "address"
        }
      ],
      "name": "userContractForUser",
      "outputs": [
        {
          "internalType": "address",
          "name": "",
          "type": "address"
        }
      ],
      "stateMutability": "view",
      "type": "function"
    },
    {
      "inputs": [
        {
          "internalType": "uint256",
          "name": "",
          "type": "uint256"
        }
      ],
      "name": "userContracts",
      "outputs": [
        {
          "internalType": "address",
          "name": "",
          "type": "address"
        }
      ],
      "stateMutability": "view",
      "type": "function"
    },
    {
      "inputs": [],
      "name": "userCount",
      "outputs": [
        {
          "internalType": "uint256",
          "name": "",
          "type": "uint256"
        }
      ],
      "stateMutability": "view",
      "type": "function"
    },
    {
      "inputs": [],
      "name": "getAdmin",
      "outputs": [
        {
          "internalType": "address",
          "name": "",
          "type": "address"
        }
      ],
      "stateMutability": "view",
      "type": "function"
    },
    {
      "inputs": [
        {
          "internalType": "address",
          "name": "_userAddress",
          "type": "address"
        },
        {
          "internalType": "string",
          "name": "_username",
          "type": "string"
        },
        {
          "internalType": "string",
          "name": "_deliveryAddress",
          "type": "string"
        }
      ],
      "name": "createUserContractForNewUser",
      "outputs": [],
      "stateMutability": "nonpayable",
      "type": "function"
    }
  ],
  "bytecode": "0x608060405234801561001057600080fd5b50600080546001600160a01b03191633179055611a59806100326000396000f3fe608060405234801561001057600080fd5b50600436106100575760003560e01c806307973ccf1461005c5780636e9960c314610078578063936b67251461009d578063cd93c74d146100c6578063d072d7be146100d9575b600080fd5b61006560025481565b6040519081526020015b60405180910390f35b6000546001600160a01b03165b6040516001600160a01b03909116815260200161006f565b6100856100ab36600461032f565b6003602052600090815260409020546001600160a01b031681565b6100856100d4366004610351565b6100ee565b6100ec6100e73660046103b3565b610118565b005b600181815481106100fe57600080fd5b6000918252602090912001546001600160a01b0316905081565b6001600160a01b0385811660009081526003602052604090205416156101855760405162461bcd60e51b815260206004820152601b60248201527f55736572206164647265737320616c726561647920657869737473000000000060448201526064015b60405180910390fd5b6001600160a01b03851633146102035760405162461bcd60e51b815260206004820152603860248201527f55736572732063616e206f6e6c7920637265617465206e6577206163636f756e60448201527f742077697468207468656972206f776e20616464726573730000000000000000606482015260840161017c565b6000858585858560405161021690610306565b61022495949392919061045d565b604051809103906000f080158015610240573d6000803e3d6000fd5b50600180548082019091557fb10e2d527612073b26eecdfd717e6a320cf44b4afac2b0732d9fcbe2b7fa0cf60180546001600160a01b038084166001600160a01b03199283168117909355891660009081526003602052604081208054909216909217905560028054929350906102b6836104a1565b9091555050604080516001600160a01b038089168252831660208201527f3ae452c9d717870a928bfb2c4f7f6b7c239bfb392b9d6c0cdcf53e3fa8e76201910160405180910390a1505050505050565b611559806104cb83390190565b80356001600160a01b038116811461032a57600080fd5b919050565b60006020828403121561034157600080fd5b61034a82610313565b9392505050565b60006020828403121561036357600080fd5b5035919050565b60008083601f84011261037c57600080fd5b50813567ffffffffffffffff81111561039457600080fd5b6020830191508360208285010111156103ac57600080fd5b9250929050565b6000806000806000606086880312156103cb57600080fd5b6103d486610313565b9450602086013567ffffffffffffffff808211156103f157600080fd5b6103fd89838a0161036a565b9096509450604088013591508082111561041657600080fd5b506104238882890161036a565b969995985093965092949392505050565b81835281816020850137506000828201602090810191909152601f909101601f19169091010190565b6001600160a01b03861681526060602082018190526000906104829083018688610434565b8281036040840152610495818587610434565b98975050505050505050565b60006000198214156104c357634e487b7160e01b600052601160045260246000fd5b506001019056fe60806040523480156200001157600080fd5b50604051620015593803806200155983398101604081905262000034916200020e565b600180546001600160a01b0319166001600160a01b0385161790558151620000649060029060208501906200009b565b5080516200007a9060039060208401906200009b565b50506005805460ff1916905550506007805463ffffffff19169055620002d5565b828054620000a99062000298565b90600052602060002090601f016020900481019282620000cd576000855562000118565b82601f10620000e857805160ff191683800117855562000118565b8280016001018555821562000118579182015b8281111562000118578251825591602001919060010190620000fb565b50620001269291506200012a565b5090565b5b808211156200012657600081556001016200012b565b634e487b7160e01b600052604160045260246000fd5b600082601f8301126200016957600080fd5b81516001600160401b038082111562000186576200018662000141565b604051601f8301601f19908116603f01168101908282118183101715620001b157620001b162000141565b81604052838152602092508683858801011115620001ce57600080fd5b600091505b83821015620001f25785820183015181830184015290820190620001d3565b83821115620002045760008385830101525b9695505050505050565b6000806000606084860312156200022457600080fd5b83516001600160a01b03811681146200023c57600080fd5b60208501519093506001600160401b03808211156200025a57600080fd5b620002688783880162000157565b935060408601519150808211156200027f57600080fd5b506200028e8682870162000157565b9150509250925092565b600181811c90821680620002ad57607f821691505b60208210811415620002cf57634e487b7160e01b600052602260045260246000fd5b50919050565b61127480620002e56000396000f3fe608060405234801561001057600080fd5b506004361061012c5760003560e01c8063922b57fa116100ad578063c2bd811911610071578063c2bd811914610280578063e4128fb314610288578063e83ddcea146102b3578063e85e79b6146102d9578063eff5924f146102fe57600080fd5b8063922b57fa1461021a578063927584b91461023257806395578e5814610248578063a93489951461025b578063b35ddf941461026e57600080fd5b8063681f3e6d116100f4578063681f3e6d146101b6578063683ab917146101be57806377c846af146101d1578063886f1bb9146101e457806390f1af6c146101f757600080fd5b80632254df251461013157806326f2d18b1461015a57806332cc4e811461016f57806350d9de1d1461018e57806361fac54d146101a1575b600080fd5b600754610145906301000000900460ff1681565b60405190151581526020015b60405180910390f35b61016d610168366004610e03565b61030b565b005b60055461017c9060ff1681565b60405160ff9091168152602001610151565b60075461017c9062010000900460ff1681565b6101a961034b565b6040516101519190610e74565b6101a96103d9565b61016d6101cc366004610ee5565b61046b565b61016d6101df366004610f8b565b61083d565b61016d6101f2366004610f8b565b6108a8565b61017c610205366004610fcd565b60006020819052908152604090205460ff1681565b61016d6007805463ff00000019166301000000179055565b61023a610907565b604051908152602001610151565b61016d610256366004610fea565b61096e565b61016d610269366004610fea565b610b37565b60075461017c90610100900460ff1681565b6101a9610b8c565b60015461029b906001600160a01b031681565b6040516001600160a01b039091168152602001610151565b6102c66102c1366004611030565b610b99565b6040516101519796959493929190611081565b6102ec6102e7366004611030565b610c88565b604051610151969594939291906110df565b60075461017c9060ff1681565b600060048260ff168154811061032357610323611121565b60009182526020909120600160049092020101805460ff60a81b1916600160a81b1790555050565b6002805461035890611137565b80601f016020809104026020016040519081016040528092919081815260200182805461038490611137565b80156103d15780601f106103a6576101008083540402835291602001916103d1565b820191906000526020600020905b8154815290600101906020018083116103b457829003601f168201915b505050505081565b6060600280546103e890611137565b80601f016020809104026020016040519081016040528092919081815260200182805461041490611137565b80156104615780601f1061043657610100808354040283529160200191610461565b820191906000526020600020905b81548152906001019060200180831161044457829003601f168201915b5050505050905090565b6001546001600160a01b031633141561048357600080fd5b60405163243c6bdb60e21b81526001600160a01b03888116600483015286916000918316906390f1af6c9060240160206040518083038186803b1580156104c957600080fd5b505afa1580156104dd573d6000803e3d6000fd5b505050506040513d601f19601f82011682018060405250810190610501919061116c565b6040516326f2d18b60e01b815260ff821660048201529091506001600160a01b038316906326f2d18b90602401600060405180830381600087803b15801561054857600080fd5b505af115801561055c573d6000803e3d6000fd5b5050505060006040518060e001604052808b6001600160a01b031681526020018a6001600160a01b03168152602001896001600160a01b031681526020018860ff16815260200187878080601f0160208091040260200160405190810160405280939291908181526020018383808284376000920191909152505050908252506020018560018111156105f1576105f1611049565b815242602091820152600680546001810182556000829052835191027ff652222313e28459528d920b65115c16c04f3efc82aaedc97be59f3f377c0d3f810180546001600160a01b039384166001600160a01b0319918216178255858501517ff652222313e28459528d920b65115c16c04f3efc82aaedc97be59f3f377c0d40840180549186169190921617905560408501517ff652222313e28459528d920b65115c16c04f3efc82aaedc97be59f3f377c0d4183018054606088015160ff16600160a01b026001600160a81b03199091169290951691909117939093179092556080840151805194955085949293610711937ff652222313e28459528d920b65115c16c04f3efc82aaedc97be59f3f377c0d4290930192910190610ce4565b5060a082015160048201805460ff19166001838181111561073457610734611049565b021790555060c091909101516005909101556007805460ff169060006107598361119f565b91906101000a81548160ff021916908360ff16021790555050826001600160a01b031663e4128fb36040518163ffffffff1660e01b815260040160206040518083038186803b1580156107ab57600080fd5b505afa1580156107bf573d6000803e3d6000fd5b505050506040513d601f19601f820116820180604052508101906107e391906111bf565b6007546040805160ff808c16825290921660208301526001600160a01b0392909216917f55b429f465f51ece29c8e23ac4a440fd26a290daa27c5cb884f632c15c1b9fdf910160405180910390a250505050505050505050565b6001546001600160a01b0316331461085457600080fd5b61086060028383610d68565b50336001600160a01b03167ff07516e9449b46121f3f7f7cb800fb5f90f7ee9e442a5479e8e3bab929d71b77838360405161089c9291906111dc565b60405180910390a25050565b6001546001600160a01b031633146108bf57600080fd5b6108cb60038383610d68565b50336001600160a01b03167ff01f8beedc6b4ff8605063d6b438798f7caa71e19ea3097a733f57c40072a320838360405161089c9291906111dc565b600080805b60075460ff16811015610968576006818154811061092c5761092c611121565b600091825260209091206006909102016002015461095490600160a01b900460ff168361120b565b91508061096081611223565b91505061090c565b50919050565b6040805160c0810182526001600160a01b03808716825285166020820152600091810182815260006020820152604081018590526060018390526007805491925061010090910460ff169060016109c48361119f565b82546101009290920a60ff818102199093169190921691909102179055506004805460018181018355600083905283517f8a35acfbc15ff81a39ae7d344fd709f28e8600b4aa8c65c6b64bfe7fe36bd19b9290930291820180546001600160a01b03199081166001600160a01b0395861617825560208601517f8a35acfbc15ff81a39ae7d344fd709f28e8600b4aa8c65c6b64bfe7fe36bd19c909401805491821694909516938417855560408601518695929490936001600160a81b03199092161790600160a01b908490811115610a9f57610a9f611049565b02179055506060820151600182018054911515600160a81b0260ff60a81b199092169190911790556080820151600282015560a090910151600390910155600580546001600160a01b0387166000908152602081905260408120805460ff191660ff93841617905582549091169190610b178361119f565b91906101000a81548160ff021916908360ff160217905550505050505050565b6040805160c0810182526001600160a01b03868116825285166020820152600191810191909152600060608201526080810183905260a081018290526007805462010000900460ff169060026109c48361119f565b6003805461035890611137565b60068181548110610ba957600080fd5b600091825260209091206006909102018054600182015460028301546003840180546001600160a01b0394851696509284169493821693600160a01b90920460ff1692610bf590611137565b80601f0160208091040260200160405190810160405280929190818152602001828054610c2190611137565b8015610c6e5780601f10610c4357610100808354040283529160200191610c6e565b820191906000526020600020905b815481529060010190602001808311610c5157829003601f168201915b505050506004830154600590930154919260ff1691905087565b60048181548110610c9857600080fd5b600091825260209091206004909102018054600182015460028301546003909301546001600160a01b0392831694509181169260ff600160a01b8304811693600160a81b909304169186565b828054610cf090611137565b90600052602060002090601f016020900481019282610d125760008555610d58565b82601f10610d2b57805160ff1916838001178555610d58565b82800160010185558215610d58579182015b82811115610d58578251825591602001919060010190610d3d565b50610d64929150610ddc565b5090565b828054610d7490611137565b90600052602060002090601f016020900481019282610d965760008555610d58565b82601f10610daf5782800160ff19823516178555610d58565b82800160010185558215610d58579182015b82811115610d58578235825591602001919060010190610dc1565b5b80821115610d645760008155600101610ddd565b60ff81168114610e0057600080fd5b50565b600060208284031215610e1557600080fd5b8135610e2081610df1565b9392505050565b6000815180845260005b81811015610e4d57602081850181015186830182015201610e31565b81811115610e5f576000602083870101525b50601f01601f19169290920160200192915050565b602081526000610e206020830184610e27565b6001600160a01b0381168114610e0057600080fd5b60008083601f840112610eae57600080fd5b50813567ffffffffffffffff811115610ec657600080fd5b602083019150836020828501011115610ede57600080fd5b9250929050565b600080600080600080600060c0888a031215610f0057600080fd5b8735610f0b81610e87565b96506020880135610f1b81610e87565b95506040880135610f2b81610e87565b94506060880135610f3b81610df1565b9350608088013567ffffffffffffffff811115610f5757600080fd5b610f638a828b01610e9c565b90945092505060a088013560028110610f7b57600080fd5b8091505092959891949750929550565b60008060208385031215610f9e57600080fd5b823567ffffffffffffffff811115610fb557600080fd5b610fc185828601610e9c565b90969095509350505050565b600060208284031215610fdf57600080fd5b8135610e2081610e87565b6000806000806080858703121561100057600080fd5b843561100b81610e87565b9350602085013561101b81610e87565b93969395505050506040820135916060013590565b60006020828403121561104257600080fd5b5035919050565b634e487b7160e01b600052602160045260246000fd5b6002811061107d57634e487b7160e01b600052602160045260246000fd5b9052565b6001600160a01b03888116825287811660208301528616604082015260ff8516606082015260e0608082018190526000906110be90830186610e27565b90506110cd60a083018561105f565b8260c083015298975050505050505050565b6001600160a01b0387811682528616602082015260c08101611104604083018761105f565b9315156060820152608081019290925260a0909101529392505050565b634e487b7160e01b600052603260045260246000fd5b600181811c9082168061114b57607f821691505b6020821081141561096857634e487b7160e01b600052602260045260246000fd5b60006020828403121561117e57600080fd5b8151610e2081610df1565b634e487b7160e01b600052601160045260246000fd5b600060ff821660ff8114156111b6576111b6611189565b60010192915050565b6000602082840312156111d157600080fd5b8151610e2081610e87565b60208152816020820152818360408301376000818301604090810191909152601f909201601f19160101919050565b6000821982111561121e5761121e611189565b500190565b600060001982141561123757611237611189565b506001019056fea26469706673582212208d4aa05c60a6842e1416afd5c775f41cb72863b2e248b6126209f29d4089b56864736f6c63430008090033a2646970667358221220dc28a8e86cfadc0088e42c72b975f62809b81a446b961c80f4c8abbeb03c188464736f6c63430008090033",
  "immutableReferences": {},
  "source": "// SPDX-License-Identifier: GPL-3.0\n\npragma solidity >=0.7.0 <0.9.0;\n\nimport \"../User.sol\";\nimport \"../Item.sol\";\n// import \"./UserContractCreator.sol\";\n// import \"./ItemContractCreator.sol\";\nimport \"../helpers/Structs.sol\";\n\ncontract ContractFactory {\n    address private admin;\n\n    address[] public userContracts;\n    uint256 public userCount;\n\n    // address[] public itemContracts;\n    // uint256 public itemCount;\n\n    // map user address to User contract\n    mapping(address => address) public userContractForUser;\n\n    event adminChanged(address newAdminAddress);\n    event userContractCreated(address userAddress, address userContract);\n\n    // event itemContractCreated(address itemOwnerAddress, address itemContract);\n\n    constructor() {\n        admin = msg.sender;\n    }\n\n    // modifier notItemOwner(address itemOwnerAddress) {\n    //     require(\n    //         msg.sender != itemOwnerAddress,\n    //         \"Method is not available for item Owner\"\n    //     );\n    //     _;\n    // }\n\n    function getAdmin() public view returns (address) {\n        return admin;\n    }\n\n    function createUserContractForNewUser(\n        address _userAddress,\n        string calldata _username,\n        string calldata _deliveryAddress\n    ) public {\n        require(\n            userContractForUser[_userAddress] == address(0x0),\n            \"User address already exists\"\n        );\n        require(\n            _userAddress == msg.sender,\n            \"Users can only create new account with their own address\"\n        );\n\n        User newUserContract = new User(\n            _userAddress,\n            _username,\n            _deliveryAddress\n        );\n\n        userContracts.push(address(newUserContract));\n        userContractForUser[_userAddress] = address(newUserContract);\n        userCount++;\n\n        emit userContractCreated(_userAddress, address(newUserContract));\n    }\n\n    // function createUserContractForNewUser(\n    //     address _userAddress,\n    //     string calldata _username,\n    //     string calldata _deliveryAddress\n    // ) public {\n    //     require(\n    //         userContractForUser[_userAddress] == address(0x0),\n    //         \"User address already exists\"\n    //     );\n    //     require(\n    //         _userAddress == msg.sender,\n    //         \"Users can only create new account with their own address\"\n    //     );\n\n    //     UserContractCreator userContractCreator;\n    //     User newUserContract = userContractCreator.createUserContract(\n    //         _userAddress,\n    //         _username,\n    //         _deliveryAddress\n    //     );\n    //     userContracts.push(address(newUserContract));\n    //     userContractForUser[_userAddress] = address(newUserContract);\n    //     userCount++;\n\n    //     emit userContractCreated(_userAddress, address(newUserContract));\n    // }\n\n    // function createItemContract(Structs.ItemDetails calldata _itemDetails)\n    //     public\n    // {\n    //     require(\n    //         _itemDetails.ownerAddress == msg.sender,\n    //         \"Method is restricted to item Owner\"\n    //     );\n    //     // ItemContractCreator itemContractCreator;\n    //     Item newItemContract = new Item(_itemDetails);\n    //     address newItemContractAddress = address(newItemContract);\n    //     itemContracts.push(newItemContractAddress);\n    //     itemCount++;\n\n    //     emit itemContractCreated(msg.sender, newItemContractAddress);\n    // }\n}\n",
  "sourcePath": "/Users/jyuteo/CodeProjects/TRent/smart-contracts/src/contracts/factory/ContractFactory.sol",
  "compiler": {
    "name": "solc",
    "version": "0.8.9+commit.e5eed63a.Emscripten.clang"
  },
  "schemaVersion": "3.4.3",
  "updatedAt": "2021-10-05T15:37:25.418Z",
  "networkType": "ethereum",
  "devdoc": {
    "kind": "dev",
    "methods": {},
    "version": 1
  },
  "userdoc": {
    "kind": "user",
    "methods": {},
    "version": 1
  }
}