{
  "contractName": "Item",
  "abi": [
    {
      "inputs": [
        {
          "components": [
            {
              "internalType": "address",
              "name": "ownerUserContract",
              "type": "address"
            },
            {
              "internalType": "address payable",
              "name": "ownerAddress",
              "type": "address"
            },
            {
              "internalType": "string",
              "name": "name",
              "type": "string"
            },
            {
              "internalType": "string",
              "name": "collectionOrReturnAddress",
              "type": "string"
            },
            {
              "internalType": "string",
              "name": "description",
              "type": "string"
            },
            {
              "internalType": "uint256",
              "name": "rentPerDay",
              "type": "uint256"
            },
            {
              "internalType": "uint8",
              "name": "maxAllowableLateDays",
              "type": "uint8"
            },
            {
              "internalType": "uint8",
              "name": "multipleForLateFees",
              "type": "uint8"
            },
            {
              "internalType": "bool",
              "name": "isAvailableForRent",
              "type": "bool"
            },
            {
              "internalType": "string[]",
              "name": "mediaIPFSHashes",
              "type": "string[]"
            }
          ],
          "internalType": "struct Structs.ItemDetails",
          "name": "_itemDetails",
          "type": "tuple"
        }
      ],
      "stateMutability": "nonpayable",
      "type": "constructor"
    },
    {
      "anonymous": false,
      "inputs": [
        {
          "indexed": false,
          "internalType": "address",
          "name": "item",
          "type": "address"
        },
        {
          "indexed": false,
          "internalType": "string",
          "name": "property",
          "type": "string"
        },
        {
          "indexed": false,
          "internalType": "string",
          "name": "newDetails",
          "type": "string"
        }
      ],
      "name": "itemDetailsChanged",
      "type": "event"
    },
    {
      "anonymous": false,
      "inputs": [
        {
          "indexed": false,
          "internalType": "address",
          "name": "item",
          "type": "address"
        },
        {
          "indexed": false,
          "internalType": "address",
          "name": "newOwnerUserContract",
          "type": "address"
        },
        {
          "indexed": false,
          "internalType": "address",
          "name": "newOwnerAddress",
          "type": "address"
        }
      ],
      "name": "itemOwnerChanged",
      "type": "event"
    },
    {
      "anonymous": false,
      "inputs": [
        {
          "indexed": false,
          "internalType": "address",
          "name": "item",
          "type": "address"
        },
        {
          "indexed": false,
          "internalType": "enum Item.ItemStatus",
          "name": "newStatus",
          "type": "uint8"
        }
      ],
      "name": "itemStatusChanged",
      "type": "event"
    },
    {
      "inputs": [
        {
          "internalType": "address",
          "name": "",
          "type": "address"
        }
      ],
      "name": "isRenter",
      "outputs": [
        {
          "internalType": "bool",
          "name": "",
          "type": "bool"
        }
      ],
      "stateMutability": "view",
      "type": "function"
    },
    {
      "inputs": [],
      "name": "itemDetails",
      "outputs": [
        {
          "internalType": "address",
          "name": "ownerUserContract",
          "type": "address"
        },
        {
          "internalType": "address payable",
          "name": "ownerAddress",
          "type": "address"
        },
        {
          "internalType": "string",
          "name": "name",
          "type": "string"
        },
        {
          "internalType": "string",
          "name": "collectionOrReturnAddress",
          "type": "string"
        },
        {
          "internalType": "string",
          "name": "description",
          "type": "string"
        },
        {
          "internalType": "uint256",
          "name": "rentPerDay",
          "type": "uint256"
        },
        {
          "internalType": "uint8",
          "name": "maxAllowableLateDays",
          "type": "uint8"
        },
        {
          "internalType": "uint8",
          "name": "multipleForLateFees",
          "type": "uint8"
        },
        {
          "internalType": "bool",
          "name": "isAvailableForRent",
          "type": "bool"
        }
      ],
      "stateMutability": "view",
      "type": "function"
    },
    {
      "inputs": [],
      "name": "itemStatus",
      "outputs": [
        {
          "internalType": "enum Item.ItemStatus",
          "name": "",
          "type": "uint8"
        }
      ],
      "stateMutability": "view",
      "type": "function"
    },
    {
      "inputs": [],
      "name": "ownerAddress",
      "outputs": [
        {
          "internalType": "address",
          "name": "",
          "type": "address"
        }
      ],
      "stateMutability": "view",
      "type": "function"
    },
    {
      "inputs": [],
      "name": "ownerUserContract",
      "outputs": [
        {
          "internalType": "address",
          "name": "",
          "type": "address"
        }
      ],
      "stateMutability": "view",
      "type": "function"
    },
    {
      "inputs": [],
      "name": "rentalContractCount",
      "outputs": [
        {
          "internalType": "uint8",
          "name": "",
          "type": "uint8"
        }
      ],
      "stateMutability": "view",
      "type": "function"
    },
    {
      "inputs": [
        {
          "internalType": "uint256",
          "name": "",
          "type": "uint256"
        }
      ],
      "name": "rentalContracts",
      "outputs": [
        {
          "internalType": "address",
          "name": "",
          "type": "address"
        }
      ],
      "stateMutability": "view",
      "type": "function"
    },
    {
      "inputs": [
        {
          "internalType": "uint256",
          "name": "",
          "type": "uint256"
        }
      ],
      "name": "rentalPeriods",
      "outputs": [
        {
          "internalType": "uint256",
          "name": "start",
          "type": "uint256"
        },
        {
          "internalType": "uint256",
          "name": "end",
          "type": "uint256"
        }
      ],
      "stateMutability": "view",
      "type": "function"
    },
    {
      "inputs": [],
      "name": "renterCount",
      "outputs": [
        {
          "internalType": "uint8",
          "name": "",
          "type": "uint8"
        }
      ],
      "stateMutability": "view",
      "type": "function"
    },
    {
      "inputs": [
        {
          "internalType": "uint256",
          "name": "",
          "type": "uint256"
        }
      ],
      "name": "renters",
      "outputs": [
        {
          "internalType": "address",
          "name": "",
          "type": "address"
        }
      ],
      "stateMutability": "view",
      "type": "function"
    },
    {
      "inputs": [],
      "name": "getItemDetails",
      "outputs": [
        {
          "components": [
            {
              "internalType": "address",
              "name": "ownerUserContract",
              "type": "address"
            },
            {
              "internalType": "address payable",
              "name": "ownerAddress",
              "type": "address"
            },
            {
              "internalType": "string",
              "name": "name",
              "type": "string"
            },
            {
              "internalType": "string",
              "name": "collectionOrReturnAddress",
              "type": "string"
            },
            {
              "internalType": "string",
              "name": "description",
              "type": "string"
            },
            {
              "internalType": "uint256",
              "name": "rentPerDay",
              "type": "uint256"
            },
            {
              "internalType": "uint8",
              "name": "maxAllowableLateDays",
              "type": "uint8"
            },
            {
              "internalType": "uint8",
              "name": "multipleForLateFees",
              "type": "uint8"
            },
            {
              "internalType": "bool",
              "name": "isAvailableForRent",
              "type": "bool"
            },
            {
              "internalType": "string[]",
              "name": "mediaIPFSHashes",
              "type": "string[]"
            }
          ],
          "internalType": "struct Structs.ItemDetails",
          "name": "",
          "type": "tuple"
        }
      ],
      "stateMutability": "view",
      "type": "function"
    },
    {
      "inputs": [
        {
          "internalType": "address",
          "name": "_newOwnerUserContract",
          "type": "address"
        },
        {
          "internalType": "address payable",
          "name": "_newOwnerAddress",
          "type": "address"
        }
      ],
      "name": "changeOwner",
      "outputs": [],
      "stateMutability": "nonpayable",
      "type": "function"
    },
    {
      "inputs": [
        {
          "internalType": "uint8",
          "name": "_newStatus",
          "type": "uint8"
        }
      ],
      "name": "changeItemStatus",
      "outputs": [],
      "stateMutability": "nonpayable",
      "type": "function"
    },
    {
      "inputs": [
        {
          "internalType": "string",
          "name": "_newName",
          "type": "string"
        }
      ],
      "name": "changeItemName",
      "outputs": [],
      "stateMutability": "nonpayable",
      "type": "function"
    },
    {
      "inputs": [
        {
          "internalType": "string",
          "name": "_newAddress",
          "type": "string"
        }
      ],
      "name": "changeItemCollectionOrReturnAddress",
      "outputs": [],
      "stateMutability": "nonpayable",
      "type": "function"
    },
    {
      "inputs": [
        {
          "internalType": "string",
          "name": "_newDescription",
          "type": "string"
        }
      ],
      "name": "changeItemDescription",
      "outputs": [],
      "stateMutability": "nonpayable",
      "type": "function"
    },
    {
      "inputs": [
        {
          "internalType": "uint256",
          "name": "_newRentPerDay",
          "type": "uint256"
        }
      ],
      "name": "changeItemRentPerDay",
      "outputs": [],
      "stateMutability": "nonpayable",
      "type": "function"
    },
    {
      "inputs": [
        {
          "internalType": "uint8",
          "name": "_newMaxAllowableLateDays",
          "type": "uint8"
        }
      ],
      "name": "changeItemMaxAllowableLateDays",
      "outputs": [],
      "stateMutability": "nonpayable",
      "type": "function"
    },
    {
      "inputs": [
        {
          "internalType": "string[]",
          "name": "_newMediaIPFSHashes",
          "type": "string[]"
        }
      ],
      "name": "changeItemMediaIPFSHashes",
      "outputs": [],
      "stateMutability": "nonpayable",
      "type": "function"
    },
    {
      "inputs": [
        {
          "internalType": "address",
          "name": "_newRentalContract",
          "type": "address"
        },
        {
          "internalType": "uint256",
          "name": "_start",
          "type": "uint256"
        },
        {
          "internalType": "uint256",
          "name": "_end",
          "type": "uint256"
        },
        {
          "internalType": "address",
          "name": "_renterAddress",
          "type": "address"
        }
      ],
      "name": "handleNewRental",
      "outputs": [],
      "stateMutability": "nonpayable",
      "type": "function"
    }
  ],
  "bytecode": "0x60806040523480156200001157600080fd5b506040516200201938038062002019833981016040819052620000349162000500565b8051600280546001600160a01b03199081166001600160a01b039384161782556020808501516003805490931694169390931790556040830151805184936200008392600492910190620001a3565b5060608201518051620000a1916003840191602090910190620001a3565b5060808201518051620000bf916004840191602090910190620001a3565b5060a0820151600582015560c082015160068201805460e0850151610100808701511515620100000262ff00001960ff93841690920261ffff199094169290951691909117919091171691909117905561012082015180516200012d91600784019160209091019062000232565b5050600254600080546001600160a01b039283166001600160a01b031991821617909155600354600180549190931691161790555060085462010000900460ff16156200018457600a805460ff1916905562000192565b600a805460ff191660011790555b50600c805460ff1916905562000695565b828054620001b19062000658565b90600052602060002090601f016020900481019282620001d5576000855562000220565b82601f10620001f057805160ff191683800117855562000220565b8280016001018555821562000220579182015b828111156200022057825182559160200191906001019062000203565b506200022e92915062000292565b5090565b82805482825590600052602060002090810192821562000284579160200282015b8281111562000284578251805162000273918491602090910190620001a3565b509160200191906001019062000253565b506200022e929150620002a9565b5b808211156200022e576000815560010162000293565b808211156200022e576000620002c08282620002ca565b50600101620002a9565b508054620002d89062000658565b6000825580601f10620002e9575050565b601f01602090049060005260206000209081019062000309919062000292565b50565b634e487b7160e01b600052604160045260246000fd5b60405161014081016001600160401b03811182821017156200034857620003486200030c565b60405290565b604051601f8201601f191681016001600160401b03811182821017156200037957620003796200030c565b604052919050565b80516001600160a01b03811681146200039957600080fd5b919050565b600082601f830112620003b057600080fd5b81516001600160401b03811115620003cc57620003cc6200030c565b6020620003e2601f8301601f191682016200034e565b8281528582848701011115620003f757600080fd5b60005b8381101562000417578581018301518282018401528201620003fa565b83811115620004295760008385840101525b5095945050505050565b805160ff811681146200039957600080fd5b805180151581146200039957600080fd5b600082601f8301126200046857600080fd5b815160206001600160401b03808311156200048757620004876200030c565b8260051b620004988382016200034e565b9384528581018301938381019088861115620004b357600080fd5b84880192505b85831015620004f457825184811115620004d35760008081fd5b620004e38a87838c01016200039e565b8352509184019190840190620004b9565b98975050505050505050565b6000602082840312156200051357600080fd5b81516001600160401b03808211156200052b57600080fd5b9083019061014082860312156200054157600080fd5b6200054b62000322565b620005568362000381565b8152620005666020840162000381565b60208201526040830151828111156200057e57600080fd5b6200058c878286016200039e565b604083015250606083015182811115620005a557600080fd5b620005b3878286016200039e565b606083015250608083015182811115620005cc57600080fd5b620005da878286016200039e565b60808301525060a083015160a0820152620005f860c0840162000433565b60c08201526200060b60e0840162000433565b60e08201526101006200062081850162000445565b9082015261012083810151838111156200063957600080fd5b620006478882870162000456565b918301919091525095945050505050565b600181811c908216806200066d57607f821691505b602082108114156200068f57634e487b7160e01b600052602260045260246000fd5b50919050565b61197480620006a56000396000f3fe608060405234801561001057600080fd5b506004361061012c5760003560e01c80638f84aa09116100ad578063dcc3974b11610071578063dcc3974b146102bb578063dce59d10146102ce578063e3d0c9d2146102e1578063f00d4b5d146102f4578063ffd369cc1461030757600080fd5b80638f84aa09146102355780639bf05f06146102485780639f2bc40e1461025b578063a50ad3591461028e578063a871c231146102a857600080fd5b80636e309a8b116100f45780636e309a8b146101ca578063746a17aa146101dd5780637c81d123146101f057806382770a431461020557806386941d291461022257600080fd5b806321fb7ee81461013157806353da02061461015e57806356ca4cfb1461018957806363737c51146101a85780636679497b146101b5575b600080fd5b61014461013f3660046110be565b61031a565b604080519283526020830191909152015b60405180910390f35b61017161016c3660046110be565b610348565b6040516001600160a01b039091168152602001610155565b600f546101969060ff1681565b60405160ff9091168152602001610155565b600c546101969060ff1681565b6101c86101c33660046110d7565b610372565b005b6101c86101d8366004611101565b61046f565b6101c86101eb366004611188565b6104c7565b6101f8610644565b6040516101559190611286565b61020d61098e565b60405161015599989796959493929190611386565b6101c8610230366004611101565b610b73565b600154610171906001600160a01b031681565b6101c861025636600461147a565b610bcb565b61027e610269366004611581565b60106020526000908152604090205460ff1681565b6040519015158152602001610155565b600a5461029b9060ff1681565b60405161015591906115c0565b6101c86102b6366004611101565b610c4c565b6101716102c93660046110be565b610ca4565b600054610171906001600160a01b031681565b6101c86102ef3660046110be565b610cb4565b6101c86103023660046115d4565b610d8e565b6101c86103153660046110d7565b610e38565b600d818154811061032a57600080fd5b60009182526020909120600290910201805460019091015490915082565b600b818154811061035857600080fd5b6000918252602090912001546001600160a01b0316905081565b6001546001600160a01b031633146103a55760405162461bcd60e51b815260040161039c9061160d565b60405180910390fd5b6008805460ff191660ff8316908117909155604051637bb7ca8760e11b8152600481019190915260009073__Utils_________________________________9063f76f950e9060240160006040518083038186803b15801561040657600080fd5b505af415801561041a573d6000803e3d6000fd5b505050506040513d6000823e601f3d908101601f191682016040526104429190810190611644565b905060008051602061191f83398151915230826040516104639291906116bb565b60405180910390a15050565b6001546001600160a01b031633146104995760405162461bcd60e51b815260040161039c9061160d565b6104a560068383610efe565b5060008051602061191f83398151915230838360405161046393929190611738565b600b805460018101825560009182527f0175b7a638427703f0dbe7bb9bbf987a2551717b34e79f33b5b1008d1fa01db90180546001600160a01b0319166001600160a01b038716179055600c805460ff16916105228361177c565b82546101009290920a60ff8181021990931691831602179091556040805180820182528681526020808201878152600d805460018181018355600092835294517fd7b6990105719101dabeb77144f2a3385c8033acd3af97e9423a695e81ad1eb560029092029182015591517fd7b6990105719101dabeb77144f2a3385c8033acd3af97e9423a695e81ad1eb690920191909155600e80548085019091557fbb7b4a454dc3493923482f07822329ed19e8244eff582cc204f8554c3620c3fd0180546001600160a01b0319166001600160a01b03891690811790915581526010909152918220805460ff19169091179055600f805490921692506106258361177c565b91906101000a81548160ff021916908360ff1602179055505050505050565b604080516101408101825260008082526020820181905260609282018390528282018390526080820183905260a0820181905260c0820181905260e082018190526101008201526101208101919091526040805161014081018252600280546001600160a01b0390811683526003541660208301526004805492939192918401916106ce906117aa565b80601f01602080910402602001604051908101604052809291908181526020018280546106fa906117aa565b80156107475780601f1061071c57610100808354040283529160200191610747565b820191906000526020600020905b81548152906001019060200180831161072a57829003601f168201915b50505050508152602001600382018054610760906117aa565b80601f016020809104026020016040519081016040528092919081815260200182805461078c906117aa565b80156107d95780601f106107ae576101008083540402835291602001916107d9565b820191906000526020600020905b8154815290600101906020018083116107bc57829003601f168201915b505050505081526020016004820180546107f2906117aa565b80601f016020809104026020016040519081016040528092919081815260200182805461081e906117aa565b801561086b5780601f106108405761010080835404028352916020019161086b565b820191906000526020600020905b81548152906001019060200180831161084e57829003601f168201915b50505091835250506005820154602080830191909152600683015460ff80821660408086019190915261010083048216606086015262010000909204161515608084015260078401805482518185028101850190935280835260a090940193919290919060009084015b828210156109815783829060005260206000200180546108f4906117aa565b80601f0160208091040260200160405190810160405280929190818152602001828054610920906117aa565b801561096d5780601f106109425761010080835404028352916020019161096d565b820191906000526020600020905b81548152906001019060200180831161095057829003601f168201915b5050505050815260200190600101906108d5565b5050505081525050905090565b60028054600354600480546001600160a01b039384169492909316926109b3906117aa565b80601f01602080910402602001604051908101604052809291908181526020018280546109df906117aa565b8015610a2c5780601f10610a0157610100808354040283529160200191610a2c565b820191906000526020600020905b815481529060010190602001808311610a0f57829003601f168201915b505050505090806003018054610a41906117aa565b80601f0160208091040260200160405190810160405280929190818152602001828054610a6d906117aa565b8015610aba5780601f10610a8f57610100808354040283529160200191610aba565b820191906000526020600020905b815481529060010190602001808311610a9d57829003601f168201915b505050505090806004018054610acf906117aa565b80601f0160208091040260200160405190810160405280929190818152602001828054610afb906117aa565b8015610b485780601f10610b1d57610100808354040283529160200191610b48565b820191906000526020600020905b815481529060010190602001808311610b2b57829003601f168201915b50505050600583015460069093015491929160ff808216925061010082048116916201000090041689565b6001546001600160a01b03163314610b9d5760405162461bcd60e51b815260040161039c9061160d565b610ba960058383610efe565b5060008051602061191f833981519152308383604051610463939291906117e5565b6001546001600160a01b03163314610bf55760405162461bcd60e51b815260040161039c9061160d565b8051610c08906009906020840190610f82565b50604080518082018252600e81526d6e65774d6564696148617368657360901b6020820152905160008051602061191f83398151915290610463903090849061183b565b6001546001600160a01b03163314610c765760405162461bcd60e51b815260040161039c9061160d565b610c8260048383610efe565b5060008051602061191f83398151915230838360405161046393929190611882565b600e818154811061035857600080fd5b6001546001600160a01b03163314610cde5760405162461bcd60e51b815260040161039c9061160d565b6007819055604051637bb7ca8760e11b81526004810182905260009073__Utils_________________________________9063f76f950e9060240160006040518083038186803b158015610d3157600080fd5b505af4158015610d45573d6000803e3d6000fd5b505050506040513d6000823e601f3d908101601f19168201604052610d6d9190810190611644565b905060008051602061191f83398151915230826040516104639291906118bf565b6001546001600160a01b03163314610db85760405162461bcd60e51b815260040161039c9061160d565b600280546001600160a01b038481166001600160a01b031992831681179093556003805491851691831682179055600080548316841790556001805490921681179091556040805130815260208101939093528201527f391e7445162e95b0462700ab996083fc3e40222a108de81e4fbea5e9ddfdaae190606001610463565b60ff8116610e6b576008805462ff0000191662010000179055600a80546000919060ff19166001835b0217905550610ebc565b8060ff1660011415610e96576008805462ff000019169055600a80546001919060ff19168280610e61565b8060ff1660021415610ebc576008805462ff000019169055600a805460ff191660021790555b600a546040517f8c5acf85d257fc548b6710d2ceeffe7d4b9b4dc7ed2866b316815c2ab592b9f691610ef391309160ff1690611901565b60405180910390a150565b828054610f0a906117aa565b90600052602060002090601f016020900481019282610f2c5760008555610f72565b82601f10610f455782800160ff19823516178555610f72565b82800160010185558215610f72579182015b82811115610f72578235825591602001919060010190610f57565b50610f7e929150610fdb565b5090565b828054828255906000526020600020908101928215610fcf579160200282015b82811115610fcf5782518051610fbf918491602090910190610ff0565b5091602001919060010190610fa2565b50610f7e929150611064565b5b80821115610f7e5760008155600101610fdc565b828054610ffc906117aa565b90600052602060002090601f01602090048101928261101e5760008555610f72565b82601f1061103757805160ff1916838001178555610f72565b82800160010185558215610f72579182015b82811115610f72578251825591602001919060010190611049565b80821115610f7e5760006110788282611081565b50600101611064565b50805461108d906117aa565b6000825580601f1061109d575050565b601f0160209004906000526020600020908101906110bb9190610fdb565b50565b6000602082840312156110d057600080fd5b5035919050565b6000602082840312156110e957600080fd5b813560ff811681146110fa57600080fd5b9392505050565b6000806020838503121561111457600080fd5b823567ffffffffffffffff8082111561112c57600080fd5b818501915085601f83011261114057600080fd5b81358181111561114f57600080fd5b86602082850101111561116157600080fd5b60209290920196919550909350505050565b6001600160a01b03811681146110bb57600080fd5b6000806000806080858703121561119e57600080fd5b84356111a981611173565b9350602085013592506040850135915060608501356111c781611173565b939692955090935050565b60005b838110156111ed5781810151838201526020016111d5565b838111156111fc576000848401525b50505050565b6000815180845261121a8160208601602086016111d2565b601f01601f19169290920160200192915050565b600082825180855260208086019550808260051b84010181860160005b8481101561127957601f19868403018952611267838351611202565b9884019892509083019060010161124b565b5090979650505050505050565b602081526112a06020820183516001600160a01b03169052565b600060208301516112bc60408401826001600160a01b03169052565b5060408301516101408060608501526112d9610160850183611202565b91506060850151601f19808685030160808701526112f78483611202565b935060808701519150808685030160a08701526113148483611202565b935060a087015160c087015260c0870151915061133660e087018360ff169052565b60e0870151915061010061134e8188018460ff169052565b87015191506101206113638782018415159052565b87015186850390910183870152905061137c838261122e565b9695505050505050565b6001600160a01b038a8116825289166020820152610120604082018190526000906113b38382018b611202565b905082810360608401526113c7818a611202565b905082810360808401526113db8189611202565b60a0840197909752505060ff93841660c08201529190921660e08201529015156101009091015295945050505050565b634e487b7160e01b600052604160045260246000fd5b604051601f8201601f1916810167ffffffffffffffff8111828210171561144a5761144a61140b565b604052919050565b600067ffffffffffffffff82111561146c5761146c61140b565b50601f01601f191660200190565b6000602080838503121561148d57600080fd5b823567ffffffffffffffff808211156114a557600080fd5b818501915085601f8301126114b957600080fd5b8135818111156114cb576114cb61140b565b8060051b6114da858201611421565b91825283810185019185810190898411156114f457600080fd5b86860192505b83831015611574578235858111156115125760008081fd5b8601603f81018b136115245760008081fd5b87810135604061153b61153683611452565b611421565b8281528d828486010111156115505760008081fd5b828285018c83013760009281018b01929092525083525091860191908601906114fa565b9998505050505050505050565b60006020828403121561159357600080fd5b81356110fa81611173565b600381106115bc57634e487b7160e01b600052602160045260246000fd5b9052565b602081016115ce828461159e565b92915050565b600080604083850312156115e757600080fd5b82356115f281611173565b9150602083013561160281611173565b809150509250929050565b6020808252601d908201527f4d6574686f64206973207265737472696374656420746f204f776e6572000000604082015260600190565b60006020828403121561165657600080fd5b815167ffffffffffffffff81111561166d57600080fd5b8201601f8101841361167e57600080fd5b805161168c61153682611452565b8181528560208385010111156116a157600080fd5b6116b28260208301602086016111d2565b95945050505050565b60018060a01b03831681526060602082015260146060820152736d6178416c6c6f7761626c654c6174654461797360601b608082015260a06040820152600061170760a0830184611202565b949350505050565b81835281816020850137506000828201602090810191909152601f909101601f19169091010190565b60018060a01b038416815260606020820152600b60608201526a3232b9b1b934b83a34b7b760a91b608082015260a0604082015260006116b260a08301848661170f565b600060ff821660ff8114156117a157634e487b7160e01b600052601160045260246000fd5b60010192915050565b600181811c908216806117be57607f821691505b602082108114156117df57634e487b7160e01b600052602260045260246000fd5b50919050565b60018060a01b038416815260606020820152601860608201527f636f6c6c656374696f6e2f72657475726e416464726573730000000000000000608082015260a0604082015260006116b260a08301848661170f565b60018060a01b038316815260606020820152600f60608201526e6d656469614950465348617368657360881b608082015260a06040820152600061170760a0830184611202565b60018060a01b03841681526060602082015260046060820152636e616d6560e01b608082015260a0604082015260006116b260a08301848661170f565b60018060a01b038316815260606020820152600a60608201526972656e7450657244617960b01b608082015260a06040820152600061170760a0830184611202565b6001600160a01b0383168152604081016110fa602083018461159e56fe1fb119ae646ad419061c26b2c9f00687535e680f4cabbaa1a12df632a4668054a2646970667358221220ade87b29fbc9f61f3e1bfee9447cdea7d683832a9d2b4819c410096ea93ef2de64736f6c63430008090033",
  "immutableReferences": {},
  "source": "// SPDX-License-Identifier: GPL-3.0\n\npragma solidity >=0.7.0 <0.9.0;\n\nimport \"./helpers/Utils.sol\";\nimport \"./helpers/Structs.sol\";\nimport \"./User.sol\";\nimport \"./Rental.sol\";\n\ncontract Item {\n    using Utils for *;\n\n    enum ItemStatus {\n        AVAILABLE,\n        HIDDEN,\n        DELETED\n    }\n\n    struct RentalStartEnd {\n        uint256 start; // Unix epoch time\n        uint256 end; // Unix epoch time\n    }\n\n    address public ownerUserContract;\n    address public ownerAddress;\n    Structs.ItemDetails public itemDetails;\n    ItemStatus public itemStatus;\n\n    address[] public rentalContracts;\n    uint8 public rentalContractCount;\n    RentalStartEnd[] public rentalPeriods;\n\n    address[] public renters;\n    uint8 public renterCount;\n    mapping(address => bool) public isRenter;\n\n    // User.Review[] public itemReviews;\n    // uint8 public itemReviewCount;\n\n    event itemOwnerChanged(\n        address item,\n        address newOwnerUserContract,\n        address newOwnerAddress\n    );\n    event itemStatusChanged(address item, ItemStatus newStatus);\n    event itemDetailsChanged(address item, string property, string newDetails);\n\n    // event rentalContractCreated(\n    //     address rentalContract,\n    //     address itemContract,\n    //     address renterAddress,\n    //     address ownerAddress\n    // );\n\n    constructor(Structs.ItemDetails memory _itemDetails) {\n        itemDetails = _itemDetails;\n        ownerUserContract = itemDetails.ownerUserContract;\n        ownerAddress = itemDetails.ownerAddress;\n\n        if (itemDetails.isAvailableForRent) {\n            itemStatus = ItemStatus.AVAILABLE;\n        } else {\n            itemStatus = ItemStatus.HIDDEN;\n        }\n\n        rentalContractCount = 0;\n        // renterCount = 0;\n        // itemReviewCount = 0;\n    }\n\n    modifier onlyOwner() {\n        require(msg.sender == ownerAddress, \"Method is restricted to Owner\");\n        _;\n    }\n\n    // modifier onlyRenters() {\n    //     require(isRenter[msg.sender], \"Method is restricted to Renter\");\n    //     _;\n    // }\n\n    function getItemDetails() public view returns (Structs.ItemDetails memory) {\n        return itemDetails;\n    }\n\n    function changeOwner(\n        address _newOwnerUserContract,\n        address payable _newOwnerAddress\n    ) public onlyOwner {\n        itemDetails.ownerUserContract = _newOwnerUserContract;\n        itemDetails.ownerAddress = _newOwnerAddress;\n        ownerUserContract = _newOwnerUserContract;\n        ownerAddress = _newOwnerAddress;\n\n        emit itemOwnerChanged(\n            address(this),\n            _newOwnerUserContract,\n            _newOwnerAddress\n        );\n    }\n\n    function changeItemStatus(uint8 _newStatus) public {\n        if (_newStatus == 0) {\n            itemDetails.isAvailableForRent = true;\n            itemStatus = ItemStatus.AVAILABLE;\n        } else if (_newStatus == 1) {\n            itemDetails.isAvailableForRent = false;\n            itemStatus = ItemStatus.HIDDEN;\n        } else if (_newStatus == 2) {\n            itemDetails.isAvailableForRent = false;\n            itemStatus = ItemStatus.DELETED;\n        }\n\n        emit itemStatusChanged(address(this), itemStatus);\n    }\n\n    function changeItemName(string calldata _newName) public onlyOwner {\n        itemDetails.name = _newName;\n        emit itemDetailsChanged(address(this), \"name\", _newName);\n    }\n\n    function changeItemCollectionOrReturnAddress(string calldata _newAddress)\n        public\n        onlyOwner\n    {\n        itemDetails.collectionOrReturnAddress = _newAddress;\n        emit itemDetailsChanged(\n            address(this),\n            \"collection/returnAddress\",\n            _newAddress\n        );\n    }\n\n    function changeItemDescription(string calldata _newDescription)\n        public\n        onlyOwner\n    {\n        itemDetails.description = _newDescription;\n        emit itemDetailsChanged(address(this), \"description\", _newDescription);\n    }\n\n    function changeItemRentPerDay(uint256 _newRentPerDay) public onlyOwner {\n        itemDetails.rentPerDay = _newRentPerDay;\n        string memory newRentPerDay = Utils.uint2str(_newRentPerDay);\n        emit itemDetailsChanged(\n            address(this),\n            \"rentPerDay\",\n            string(newRentPerDay)\n        );\n    }\n\n    function changeItemMaxAllowableLateDays(uint8 _newMaxAllowableLateDays)\n        public\n        onlyOwner\n    {\n        itemDetails.maxAllowableLateDays = _newMaxAllowableLateDays;\n        string memory newMaxAllowableLateDays = Utils.uint2str(\n            _newMaxAllowableLateDays\n        );\n        emit itemDetailsChanged(\n            address(this),\n            \"maxAllowableLateDays\",\n            newMaxAllowableLateDays\n        );\n    }\n\n    function changeItemMediaIPFSHashes(string[] memory _newMediaIPFSHashes)\n        public\n        onlyOwner\n    {\n        itemDetails.mediaIPFSHashes = _newMediaIPFSHashes;\n        string memory newMediaIPFSHashes = \"newMediaHashes\";\n\n        emit itemDetailsChanged(\n            address(this),\n            \"mediaIPFSHashes\",\n            newMediaIPFSHashes\n        );\n    }\n\n    function handleNewRental(\n        address _newRentalContract,\n        uint256 _start,\n        uint256 _end,\n        address _renterAddress\n    ) public {\n        rentalContracts.push(address(_newRentalContract));\n        rentalContractCount++;\n\n        rentalPeriods.push(RentalStartEnd({start: _start, end: _end}));\n\n        renters.push(_renterAddress);\n        isRenter[_renterAddress] = true;\n        renterCount++;\n    }\n    // function createRentalContract(\n    //     address _renterUserContract,\n    //     address payable _renterAddress,\n    //     uint256 _rentalFees,\n    //     uint256 _renterDeposit,\n    //     uint256 _start,\n    //     uint256 _end,\n    //     uint8 _numInstallment\n    // ) public payable {\n    //     require(\n    //         msg.sender == _renterAddress,\n    //         \"Renter address does not match msg.sender\"\n    //     );\n    //     // RentalContractCreator rentalContractCreator;\n    //     Rental newRentalContract = new Rental(\n    //         address(this),\n    //         itemDetails,\n    //         _renterUserContract,\n    //         _renterAddress,\n    //         _rentalFees,\n    //         _renterDeposit,\n    //         _start,\n    //         _end,\n    //         _numInstallment\n    //     );\n\n    //     rentalContracts.push(address(newRentalContract));\n    //     rentalPeriods.push(RentalStartEnd({start: _start, end: _end}));\n    //     rentalContractCount++;\n\n    //     renters.push(_renterAddress);\n    //     isRenter[_renterAddress] = true;\n    //     renterCount++;\n\n    //     emit rentalContractCreated(\n    //         address(newRentalContract),\n    //         address(this),\n    //         _renterAddress,\n    //         ownerAddress\n    //     );\n    // }\n\n    // function getItemDetails() public view returns (ItemDetails memory) {\n    //     return itemDetails;\n    // }\n\n    // function addItemReview(User.Review memory _review) public onlyRenters {\n    //     itemReviews.push(_review);\n    //     itemReviewCount++;\n    // }\n}\n",
  "sourcePath": "/Users/jyuteo/CodeProjects/TRent/smart-contracts/src/contracts/Item.sol",
  "compiler": {
    "name": "solc",
    "version": "0.8.9+commit.e5eed63a.Emscripten.clang"
  },
  "schemaVersion": "3.4.3",
  "updatedAt": "2021-10-12T10:42:45.471Z",
  "networkType": "ethereum",
  "devdoc": {
    "kind": "dev",
    "methods": {},
    "version": 1
  },
  "userdoc": {
    "kind": "user",
    "methods": {},
    "version": 1
  }
}