{
  "contractName": "Item",
  "abi": [
    {
      "inputs": [
        {
          "components": [
            {
              "internalType": "address",
              "name": "ownerUserContract",
              "type": "address"
            },
            {
              "internalType": "address payable",
              "name": "ownerAddress",
              "type": "address"
            },
            {
              "internalType": "string",
              "name": "name",
              "type": "string"
            },
            {
              "internalType": "string",
              "name": "collectionOrReturnAddress",
              "type": "string"
            },
            {
              "internalType": "string",
              "name": "description",
              "type": "string"
            },
            {
              "internalType": "uint256",
              "name": "rentPerDay",
              "type": "uint256"
            },
            {
              "internalType": "uint8",
              "name": "maxAllowableLateDays",
              "type": "uint8"
            },
            {
              "internalType": "uint8",
              "name": "multipleForLateFees",
              "type": "uint8"
            },
            {
              "internalType": "bool",
              "name": "isAvailableForRent",
              "type": "bool"
            },
            {
              "internalType": "string[]",
              "name": "mediaIPFSHashes",
              "type": "string[]"
            }
          ],
          "internalType": "struct Structs.ItemDetails",
          "name": "_itemDetails",
          "type": "tuple"
        }
      ],
      "stateMutability": "nonpayable",
      "type": "constructor"
    },
    {
      "anonymous": false,
      "inputs": [
        {
          "indexed": false,
          "internalType": "address",
          "name": "item",
          "type": "address"
        },
        {
          "indexed": false,
          "internalType": "string",
          "name": "property",
          "type": "string"
        },
        {
          "indexed": false,
          "internalType": "string",
          "name": "newDetails",
          "type": "string"
        }
      ],
      "name": "itemDetailsChanged",
      "type": "event"
    },
    {
      "anonymous": false,
      "inputs": [
        {
          "indexed": false,
          "internalType": "address",
          "name": "item",
          "type": "address"
        },
        {
          "indexed": false,
          "internalType": "address",
          "name": "newOwnerUserContract",
          "type": "address"
        },
        {
          "indexed": false,
          "internalType": "address",
          "name": "newOwnerAddress",
          "type": "address"
        }
      ],
      "name": "itemOwnerChanged",
      "type": "event"
    },
    {
      "anonymous": false,
      "inputs": [
        {
          "indexed": false,
          "internalType": "address",
          "name": "item",
          "type": "address"
        },
        {
          "indexed": false,
          "internalType": "enum Item.ItemStatus",
          "name": "newStatus",
          "type": "uint8"
        }
      ],
      "name": "itemStatusChanged",
      "type": "event"
    },
    {
      "inputs": [
        {
          "internalType": "address",
          "name": "",
          "type": "address"
        }
      ],
      "name": "isRenter",
      "outputs": [
        {
          "internalType": "bool",
          "name": "",
          "type": "bool"
        }
      ],
      "stateMutability": "view",
      "type": "function"
    },
    {
      "inputs": [],
      "name": "itemDetails",
      "outputs": [
        {
          "internalType": "address",
          "name": "ownerUserContract",
          "type": "address"
        },
        {
          "internalType": "address payable",
          "name": "ownerAddress",
          "type": "address"
        },
        {
          "internalType": "string",
          "name": "name",
          "type": "string"
        },
        {
          "internalType": "string",
          "name": "collectionOrReturnAddress",
          "type": "string"
        },
        {
          "internalType": "string",
          "name": "description",
          "type": "string"
        },
        {
          "internalType": "uint256",
          "name": "rentPerDay",
          "type": "uint256"
        },
        {
          "internalType": "uint8",
          "name": "maxAllowableLateDays",
          "type": "uint8"
        },
        {
          "internalType": "uint8",
          "name": "multipleForLateFees",
          "type": "uint8"
        },
        {
          "internalType": "bool",
          "name": "isAvailableForRent",
          "type": "bool"
        }
      ],
      "stateMutability": "view",
      "type": "function"
    },
    {
      "inputs": [],
      "name": "itemReviewCount",
      "outputs": [
        {
          "internalType": "uint8",
          "name": "",
          "type": "uint8"
        }
      ],
      "stateMutability": "view",
      "type": "function"
    },
    {
      "inputs": [
        {
          "internalType": "uint256",
          "name": "",
          "type": "uint256"
        }
      ],
      "name": "itemReviews",
      "outputs": [
        {
          "internalType": "address",
          "name": "item",
          "type": "address"
        },
        {
          "internalType": "address",
          "name": "rentalContract",
          "type": "address"
        },
        {
          "internalType": "address",
          "name": "raterUserContract",
          "type": "address"
        },
        {
          "internalType": "uint8",
          "name": "rate",
          "type": "uint8"
        },
        {
          "internalType": "string",
          "name": "review",
          "type": "string"
        },
        {
          "internalType": "enum User.Role",
          "name": "role",
          "type": "uint8"
        },
        {
          "internalType": "uint256",
          "name": "time",
          "type": "uint256"
        }
      ],
      "stateMutability": "view",
      "type": "function"
    },
    {
      "inputs": [],
      "name": "itemStatus",
      "outputs": [
        {
          "internalType": "enum Item.ItemStatus",
          "name": "",
          "type": "uint8"
        }
      ],
      "stateMutability": "view",
      "type": "function"
    },
    {
      "inputs": [],
      "name": "ownerAddress",
      "outputs": [
        {
          "internalType": "address",
          "name": "",
          "type": "address"
        }
      ],
      "stateMutability": "view",
      "type": "function"
    },
    {
      "inputs": [],
      "name": "ownerUserContract",
      "outputs": [
        {
          "internalType": "address",
          "name": "",
          "type": "address"
        }
      ],
      "stateMutability": "view",
      "type": "function"
    },
    {
      "inputs": [],
      "name": "rentalContractCount",
      "outputs": [
        {
          "internalType": "uint8",
          "name": "",
          "type": "uint8"
        }
      ],
      "stateMutability": "view",
      "type": "function"
    },
    {
      "inputs": [
        {
          "internalType": "uint256",
          "name": "",
          "type": "uint256"
        }
      ],
      "name": "rentalContracts",
      "outputs": [
        {
          "internalType": "address",
          "name": "",
          "type": "address"
        }
      ],
      "stateMutability": "view",
      "type": "function"
    },
    {
      "inputs": [
        {
          "internalType": "uint256",
          "name": "",
          "type": "uint256"
        }
      ],
      "name": "rentalPeriods",
      "outputs": [
        {
          "internalType": "uint256",
          "name": "start",
          "type": "uint256"
        },
        {
          "internalType": "uint256",
          "name": "end",
          "type": "uint256"
        }
      ],
      "stateMutability": "view",
      "type": "function"
    },
    {
      "inputs": [],
      "name": "renterCount",
      "outputs": [
        {
          "internalType": "uint8",
          "name": "",
          "type": "uint8"
        }
      ],
      "stateMutability": "view",
      "type": "function"
    },
    {
      "inputs": [
        {
          "internalType": "uint256",
          "name": "",
          "type": "uint256"
        }
      ],
      "name": "renters",
      "outputs": [
        {
          "internalType": "address",
          "name": "",
          "type": "address"
        }
      ],
      "stateMutability": "view",
      "type": "function"
    },
    {
      "inputs": [],
      "name": "getItemDetails",
      "outputs": [
        {
          "components": [
            {
              "internalType": "address",
              "name": "ownerUserContract",
              "type": "address"
            },
            {
              "internalType": "address payable",
              "name": "ownerAddress",
              "type": "address"
            },
            {
              "internalType": "string",
              "name": "name",
              "type": "string"
            },
            {
              "internalType": "string",
              "name": "collectionOrReturnAddress",
              "type": "string"
            },
            {
              "internalType": "string",
              "name": "description",
              "type": "string"
            },
            {
              "internalType": "uint256",
              "name": "rentPerDay",
              "type": "uint256"
            },
            {
              "internalType": "uint8",
              "name": "maxAllowableLateDays",
              "type": "uint8"
            },
            {
              "internalType": "uint8",
              "name": "multipleForLateFees",
              "type": "uint8"
            },
            {
              "internalType": "bool",
              "name": "isAvailableForRent",
              "type": "bool"
            },
            {
              "internalType": "string[]",
              "name": "mediaIPFSHashes",
              "type": "string[]"
            }
          ],
          "internalType": "struct Structs.ItemDetails",
          "name": "",
          "type": "tuple"
        }
      ],
      "stateMutability": "view",
      "type": "function"
    },
    {
      "inputs": [
        {
          "internalType": "address",
          "name": "_newOwnerUserContract",
          "type": "address"
        },
        {
          "internalType": "address payable",
          "name": "_newOwnerAddress",
          "type": "address"
        }
      ],
      "name": "changeOwner",
      "outputs": [],
      "stateMutability": "nonpayable",
      "type": "function"
    },
    {
      "inputs": [
        {
          "internalType": "uint8",
          "name": "_newStatus",
          "type": "uint8"
        }
      ],
      "name": "changeItemStatus",
      "outputs": [],
      "stateMutability": "nonpayable",
      "type": "function"
    },
    {
      "inputs": [
        {
          "internalType": "string",
          "name": "_newName",
          "type": "string"
        }
      ],
      "name": "changeItemName",
      "outputs": [],
      "stateMutability": "nonpayable",
      "type": "function"
    },
    {
      "inputs": [
        {
          "internalType": "string",
          "name": "_newAddress",
          "type": "string"
        }
      ],
      "name": "changeItemCollectionOrReturnAddress",
      "outputs": [],
      "stateMutability": "nonpayable",
      "type": "function"
    },
    {
      "inputs": [
        {
          "internalType": "string",
          "name": "_newDescription",
          "type": "string"
        }
      ],
      "name": "changeItemDescription",
      "outputs": [],
      "stateMutability": "nonpayable",
      "type": "function"
    },
    {
      "inputs": [
        {
          "internalType": "uint256",
          "name": "_newRentPerDay",
          "type": "uint256"
        }
      ],
      "name": "changeItemRentPerDay",
      "outputs": [],
      "stateMutability": "nonpayable",
      "type": "function"
    },
    {
      "inputs": [
        {
          "internalType": "uint8",
          "name": "_newMaxAllowableLateDays",
          "type": "uint8"
        }
      ],
      "name": "changeItemMaxAllowableLateDays",
      "outputs": [],
      "stateMutability": "nonpayable",
      "type": "function"
    },
    {
      "inputs": [
        {
          "internalType": "string[]",
          "name": "_newMediaIPFSHashes",
          "type": "string[]"
        }
      ],
      "name": "changeItemMediaIPFSHashes",
      "outputs": [],
      "stateMutability": "nonpayable",
      "type": "function"
    },
    {
      "inputs": [
        {
          "internalType": "address",
          "name": "_newRentalContract",
          "type": "address"
        },
        {
          "internalType": "uint256",
          "name": "_start",
          "type": "uint256"
        },
        {
          "internalType": "uint256",
          "name": "_end",
          "type": "uint256"
        }
      ],
      "name": "handleNewRental",
      "outputs": [],
      "stateMutability": "nonpayable",
      "type": "function"
    }
  ],
  "bytecode": "0x60806040523480156200001157600080fd5b50604051620020e4380380620020e4833981016040819052620000349162000514565b8051600380546001600160a01b03199081166001600160a01b039384161782556020808501516004805490931694169390931790556040830151805184936200008392600592910190620001b7565b5060608201518051620000a1916003840191602090910190620001b7565b5060808201518051620000bf916004840191602090910190620001b7565b5060a0820151600582015560c082015160068201805460e0850151610100808701511515620100000262ff00001960ff93841690920261ffff199094169290951691909117919091171691909117905561012082015180516200012d91600784019160209091019062000246565b5050600354600180546001600160a01b039283166001600160a01b031991821617909155600454600280549190931691161790555060095462010000900460ff16156200018457600b805460ff1916905562000192565b600b805460ff191660011790555b50600d805460ff199081169091556010805482169055601380549091169055620006a9565b828054620001c5906200066c565b90600052602060002090601f016020900481019282620001e9576000855562000234565b82601f106200020457805160ff191683800117855562000234565b8280016001018555821562000234579182015b828111156200023457825182559160200191906001019062000217565b5062000242929150620002a6565b5090565b82805482825590600052602060002090810192821562000298579160200282015b8281111562000298578251805162000287918491602090910190620001b7565b509160200191906001019062000267565b5062000242929150620002bd565b5b80821115620002425760008155600101620002a7565b8082111562000242576000620002d48282620002de565b50600101620002bd565b508054620002ec906200066c565b6000825580601f10620002fd575050565b601f0160209004906000526020600020908101906200031d9190620002a6565b50565b634e487b7160e01b600052604160045260246000fd5b60405161014081016001600160401b03811182821017156200035c576200035c62000320565b60405290565b604051601f8201601f191681016001600160401b03811182821017156200038d576200038d62000320565b604052919050565b80516001600160a01b0381168114620003ad57600080fd5b919050565b600082601f830112620003c457600080fd5b81516001600160401b03811115620003e057620003e062000320565b6020620003f6601f8301601f1916820162000362565b82815285828487010111156200040b57600080fd5b60005b838110156200042b5785810183015182820184015282016200040e565b838111156200043d5760008385840101525b5095945050505050565b805160ff81168114620003ad57600080fd5b80518015158114620003ad57600080fd5b600082601f8301126200047c57600080fd5b815160206001600160401b03808311156200049b576200049b62000320565b8260051b620004ac83820162000362565b9384528581018301938381019088861115620004c757600080fd5b84880192505b858310156200050857825184811115620004e75760008081fd5b620004f78a87838c0101620003b2565b8352509184019190840190620004cd565b98975050505050505050565b6000602082840312156200052757600080fd5b81516001600160401b03808211156200053f57600080fd5b9083019061014082860312156200055557600080fd5b6200055f62000336565b6200056a8362000395565b81526200057a6020840162000395565b60208201526040830151828111156200059257600080fd5b620005a087828601620003b2565b604083015250606083015182811115620005b957600080fd5b620005c787828601620003b2565b606083015250608083015182811115620005e057600080fd5b620005ee87828601620003b2565b60808301525060a083015160a08201526200060c60c0840162000447565b60c08201526200061f60e0840162000447565b60e08201526101006200063481850162000459565b9082015261012083810151838111156200064d57600080fd5b6200065b888287016200046a565b918301919091525095945050505050565b600181811c908216806200068157607f821691505b60208210811415620006a357634e487b7160e01b600052602260045260246000fd5b50919050565b611a2b80620006b96000396000f3fe608060405234801561001057600080fd5b50600436106101425760003560e01c806386941d29116100b8578063a871c2311161007c578063a871c231146103ad578063dcc3974b146103c0578063dce59d10146103d3578063e3d0c9d2146103e6578063f00d4b5d146103f9578063ffd369cc1461040c57600080fd5b806386941d29146103275780638f84aa091461033a5780639bf05f061461034d5780639f2bc40e14610360578063a50ad3591461039357600080fd5b806363737c511161010a57806363737c51146102b55780636679497b146102c25780636e309a8b146102d55780637c81d123146102e857806382770a43146102fd57806385a4e17c1461031a57600080fd5b806321fb7ee8146101475780634099d90e1461017457806352ab52bb1461019a57806353da02061461026b57806356ca4cfb14610296575b600080fd5b61015a61015536600461114f565b61041f565b604080519283526020830191909152015b60405180910390f35b61018761018236600461114f565b61044d565b60405161016b97969594939291906111da565b6102696101a8366004611253565b600c805460018082019092557fdf6966c971051c3d54ec59162606531493a51404a002842f56009d7e5cf4a8c70180546001600160a01b0319166001600160a01b0395909516949094179093556040805180820190915291825260208201908152600e8054938401815560005290517fbb7b4a454dc3493923482f07822329ed19e8244eff582cc204f8554c3620c3fd600290930292830155517fbb7b4a454dc3493923482f07822329ed19e8244eff582cc204f8554c3620c3fe90910155565b005b61027e61027936600461114f565b61053c565b6040516001600160a01b03909116815260200161016b565b6010546102a39060ff1681565b60405160ff909116815260200161016b565b600d546102a39060ff1681565b6102696102d0366004611288565b610566565b6102696102e33660046112b2565b61065c565b6102f06106b4565b60405161016b9190611379565b6103056109fe565b60405161016b99989796959493929190611479565b6013546102a39060ff1681565b6102696103353660046112b2565b610be3565b60025461027e906001600160a01b031681565b61026961035b36600461156d565b610c3b565b61038361036e366004611674565b60116020526000908152604090205460ff1681565b604051901515815260200161016b565b600b546103a09060ff1681565b60405161016b91906116a5565b6102696103bb3660046112b2565b610cbc565b61027e6103ce36600461114f565b610d14565b60015461027e906001600160a01b031681565b6102696103f436600461114f565b610d24565b6102696104073660046116b9565b610df5565b61026961041a366004611288565b610e9f565b600e818154811061042f57600080fd5b60009182526020909120600290910201805460019091015490915082565b6012818154811061045d57600080fd5b600091825260209091206006909102018054600182015460028301546003840180546001600160a01b0394851696509284169493821693600160a01b90920460ff16926104a9906116f2565b80601f01602080910402602001604051908101604052809291908181526020018280546104d5906116f2565b80156105225780601f106104f757610100808354040283529160200191610522565b820191906000526020600020905b81548152906001019060200180831161050557829003601f168201915b505050506004830154600590930154919260ff1691905087565b600c818154811061054c57600080fd5b6000918252602090912001546001600160a01b0316905081565b6002546001600160a01b031633146105995760405162461bcd60e51b81526004016105909061172d565b60405180910390fd5b6009805460ff191660ff831690811790915560008054604051637bb7ca8760e11b8152600481019390935290916001600160a01b039091169063f76f950e9060240160006040518083038186803b1580156105f357600080fd5b505afa158015610607573d6000803e3d6000fd5b505050506040513d6000823e601f3d908101601f1916820160405261062f9190810190611764565b90506000805160206119d683398151915230826040516106509291906117db565b60405180910390a15050565b6002546001600160a01b031633146106865760405162461bcd60e51b81526004016105909061172d565b61069260078383610f8f565b506000805160206119d683398151915230838360405161065093929190611858565b604080516101408101825260008082526020820181905260609282018390528282018390526080820183905260a0820181905260c0820181905260e082018190526101008201526101208101919091526040805161014081018252600380546001600160a01b03908116835260045416602083015260058054929391929184019161073e906116f2565b80601f016020809104026020016040519081016040528092919081815260200182805461076a906116f2565b80156107b75780601f1061078c576101008083540402835291602001916107b7565b820191906000526020600020905b81548152906001019060200180831161079a57829003601f168201915b505050505081526020016003820180546107d0906116f2565b80601f01602080910402602001604051908101604052809291908181526020018280546107fc906116f2565b80156108495780601f1061081e57610100808354040283529160200191610849565b820191906000526020600020905b81548152906001019060200180831161082c57829003601f168201915b50505050508152602001600482018054610862906116f2565b80601f016020809104026020016040519081016040528092919081815260200182805461088e906116f2565b80156108db5780601f106108b0576101008083540402835291602001916108db565b820191906000526020600020905b8154815290600101906020018083116108be57829003601f168201915b50505091835250506005820154602080830191909152600683015460ff80821660408086019190915261010083048216606086015262010000909204161515608084015260078401805482518185028101850190935280835260a090940193919290919060009084015b828210156109f1578382906000526020600020018054610964906116f2565b80601f0160208091040260200160405190810160405280929190818152602001828054610990906116f2565b80156109dd5780601f106109b2576101008083540402835291602001916109dd565b820191906000526020600020905b8154815290600101906020018083116109c057829003601f168201915b505050505081526020019060010190610945565b5050505081525050905090565b60038054600454600580546001600160a01b03938416949290931692610a23906116f2565b80601f0160208091040260200160405190810160405280929190818152602001828054610a4f906116f2565b8015610a9c5780601f10610a7157610100808354040283529160200191610a9c565b820191906000526020600020905b815481529060010190602001808311610a7f57829003601f168201915b505050505090806003018054610ab1906116f2565b80601f0160208091040260200160405190810160405280929190818152602001828054610add906116f2565b8015610b2a5780601f10610aff57610100808354040283529160200191610b2a565b820191906000526020600020905b815481529060010190602001808311610b0d57829003601f168201915b505050505090806004018054610b3f906116f2565b80601f0160208091040260200160405190810160405280929190818152602001828054610b6b906116f2565b8015610bb85780601f10610b8d57610100808354040283529160200191610bb8565b820191906000526020600020905b815481529060010190602001808311610b9b57829003601f168201915b50505050600583015460069093015491929160ff808216925061010082048116916201000090041689565b6002546001600160a01b03163314610c0d5760405162461bcd60e51b81526004016105909061172d565b610c1960068383610f8f565b506000805160206119d68339815191523083836040516106509392919061189c565b6002546001600160a01b03163314610c655760405162461bcd60e51b81526004016105909061172d565b8051610c7890600a906020840190611013565b50604080518082018252600e81526d6e65774d6564696148617368657360901b602082015290516000805160206119d68339815191529061065090309084906118f2565b6002546001600160a01b03163314610ce65760405162461bcd60e51b81526004016105909061172d565b610cf260058383610f8f565b506000805160206119d683398151915230838360405161065093929190611939565b600f818154811061054c57600080fd5b6002546001600160a01b03163314610d4e5760405162461bcd60e51b81526004016105909061172d565b600881905560008054604051637bb7ca8760e11b8152600481018490526001600160a01b039091169063f76f950e9060240160006040518083038186803b158015610d9857600080fd5b505afa158015610dac573d6000803e3d6000fd5b505050506040513d6000823e601f3d908101601f19168201604052610dd49190810190611764565b90506000805160206119d68339815191523082604051610650929190611976565b6002546001600160a01b03163314610e1f5760405162461bcd60e51b81526004016105909061172d565b600380546001600160a01b038481166001600160a01b031992831681179093556004805491851691831682179055600180548316841790556002805490921681179091556040805130815260208101939093528201527f391e7445162e95b0462700ab996083fc3e40222a108de81e4fbea5e9ddfdaae190606001610650565b6002546001600160a01b03163314610ec95760405162461bcd60e51b81526004016105909061172d565b60ff8116610efc576009805462ff0000191662010000179055600b80546000919060ff19166001835b0217905550610f4d565b8060ff1660011415610f27576009805462ff000019169055600b80546001919060ff19168280610ef2565b8060ff1660021415610f4d576009805462ff000019169055600b805460ff191660021790555b600b546040517f8c5acf85d257fc548b6710d2ceeffe7d4b9b4dc7ed2866b316815c2ab592b9f691610f8491309160ff16906119b8565b60405180910390a150565b828054610f9b906116f2565b90600052602060002090601f016020900481019282610fbd5760008555611003565b82601f10610fd65782800160ff19823516178555611003565b82800160010185558215611003579182015b82811115611003578235825591602001919060010190610fe8565b5061100f92915061106c565b5090565b828054828255906000526020600020908101928215611060579160200282015b828111156110605782518051611050918491602090910190611081565b5091602001919060010190611033565b5061100f9291506110f5565b5b8082111561100f576000815560010161106d565b82805461108d906116f2565b90600052602060002090601f0160209004810192826110af5760008555611003565b82601f106110c857805160ff1916838001178555611003565b82800160010185558215611003579182015b828111156110035782518255916020019190600101906110da565b8082111561100f5760006111098282611112565b506001016110f5565b50805461111e906116f2565b6000825580601f1061112e575050565b601f01602090049060005260206000209081019061114c919061106c565b50565b60006020828403121561116157600080fd5b5035919050565b60005b8381101561118357818101518382015260200161116b565b83811115611192576000848401525b50505050565b600081518084526111b0816020860160208601611168565b601f01601f19169290920160200192915050565b634e487b7160e01b600052602160045260246000fd5b6001600160a01b03888116825287811660208301528616604082015260ff8516606082015260e06080820181905260009061121790830186611198565b905060028410611229576112296111c4565b60a082019390935260c0015295945050505050565b6001600160a01b038116811461114c57600080fd5b60008060006060848603121561126857600080fd5b83356112738161123e565b95602085013595506040909401359392505050565b60006020828403121561129a57600080fd5b813560ff811681146112ab57600080fd5b9392505050565b600080602083850312156112c557600080fd5b823567ffffffffffffffff808211156112dd57600080fd5b818501915085601f8301126112f157600080fd5b81358181111561130057600080fd5b86602082850101111561131257600080fd5b60209290920196919550909350505050565b600081518084526020808501808196508360051b8101915082860160005b8581101561136c57828403895261135a848351611198565b98850198935090840190600101611342565b5091979650505050505050565b602081526113936020820183516001600160a01b03169052565b600060208301516113af60408401826001600160a01b03169052565b5060408301516101408060608501526113cc610160850183611198565b91506060850151601f19808685030160808701526113ea8483611198565b935060808701519150808685030160a08701526114078483611198565b935060a087015160c087015260c0870151915061142960e087018360ff169052565b60e087015191506101006114418188018460ff169052565b87015191506101206114568782018415159052565b87015186850390910183870152905061146f8382611324565b9695505050505050565b6001600160a01b038a8116825289166020820152610120604082018190526000906114a68382018b611198565b905082810360608401526114ba818a611198565b905082810360808401526114ce8189611198565b60a0840197909752505060ff93841660c08201529190921660e08201529015156101009091015295945050505050565b634e487b7160e01b600052604160045260246000fd5b604051601f8201601f1916810167ffffffffffffffff8111828210171561153d5761153d6114fe565b604052919050565b600067ffffffffffffffff82111561155f5761155f6114fe565b50601f01601f191660200190565b6000602080838503121561158057600080fd5b823567ffffffffffffffff8082111561159857600080fd5b818501915085601f8301126115ac57600080fd5b8135818111156115be576115be6114fe565b8060051b6115cd858201611514565b91825283810185019185810190898411156115e757600080fd5b86860192505b83831015611667578235858111156116055760008081fd5b8601603f81018b136116175760008081fd5b87810135604061162e61162983611545565b611514565b8281528d828486010111156116435760008081fd5b828285018c83013760009281018b01929092525083525091860191908601906115ed565b9998505050505050505050565b60006020828403121561168657600080fd5b81356112ab8161123e565b600381106116a1576116a16111c4565b9052565b602081016116b38284611691565b92915050565b600080604083850312156116cc57600080fd5b82356116d78161123e565b915060208301356116e78161123e565b809150509250929050565b600181811c9082168061170657607f821691505b6020821081141561172757634e487b7160e01b600052602260045260246000fd5b50919050565b6020808252601d908201527f4d6574686f64206973207265737472696374656420746f204f776e6572000000604082015260600190565b60006020828403121561177657600080fd5b815167ffffffffffffffff81111561178d57600080fd5b8201601f8101841361179e57600080fd5b80516117ac61162982611545565b8181528560208385010111156117c157600080fd5b6117d2826020830160208601611168565b95945050505050565b60018060a01b03831681526060602082015260146060820152736d6178416c6c6f7761626c654c6174654461797360601b608082015260a06040820152600061182760a0830184611198565b949350505050565b81835281816020850137506000828201602090810191909152601f909101601f19169091010190565b60018060a01b038416815260606020820152600b60608201526a3232b9b1b934b83a34b7b760a91b608082015260a0604082015260006117d260a08301848661182f565b60018060a01b038416815260606020820152601860608201527f636f6c6c656374696f6e2f72657475726e416464726573730000000000000000608082015260a0604082015260006117d260a08301848661182f565b60018060a01b038316815260606020820152600f60608201526e6d656469614950465348617368657360881b608082015260a06040820152600061182760a0830184611198565b60018060a01b03841681526060602082015260046060820152636e616d6560e01b608082015260a0604082015260006117d260a08301848661182f565b60018060a01b038316815260606020820152600a60608201526972656e7450657244617960b01b608082015260a06040820152600061182760a0830184611198565b6001600160a01b0383168152604081016112ab602083018461169156fe1fb119ae646ad419061c26b2c9f00687535e680f4cabbaa1a12df632a4668054a2646970667358221220493c56d07b4e93a3b78e5c8d7a629f4eaf06e8254b9d775e2798c464eb320c8664736f6c63430008090033",
  "immutableReferences": {},
  "source": "// SPDX-License-Identifier: GPL-3.0\n\npragma solidity >=0.7.0 <0.9.0;\n\nimport \"./helpers/Utils.sol\";\nimport \"./helpers/Structs.sol\";\nimport \"./User.sol\";\nimport \"./Rental.sol\";\n\n// import \"./factory/RentalContractCreator.sol\";\n\ncontract Item {\n    Utils utils;\n\n    enum ItemStatus {\n        AVAILABLE,\n        HIDDEN,\n        DELETED\n    }\n\n    struct RentalStartEnd {\n        uint256 start; // Unix epoch time\n        uint256 end; // Unix epoch time\n    }\n\n    address public ownerUserContract;\n    address public ownerAddress;\n    Structs.ItemDetails public itemDetails;\n    ItemStatus public itemStatus;\n\n    address[] public rentalContracts;\n    uint8 public rentalContractCount;\n    RentalStartEnd[] public rentalPeriods;\n\n    address[] public renters;\n    uint8 public renterCount;\n    mapping(address => bool) public isRenter;\n\n    User.Review[] public itemReviews;\n    uint8 public itemReviewCount;\n\n    event itemOwnerChanged(\n        address item,\n        address newOwnerUserContract,\n        address newOwnerAddress\n    );\n    event itemStatusChanged(address item, ItemStatus newStatus);\n    event itemDetailsChanged(address item, string property, string newDetails);\n\n    // event rentalContractCreated(\n    //     address rentalContract,\n    //     address itemContract,\n    //     address renterAddress,\n    //     address ownerAddress\n    // );\n\n    constructor(Structs.ItemDetails memory _itemDetails) {\n        itemDetails = _itemDetails;\n        ownerUserContract = itemDetails.ownerUserContract;\n        ownerAddress = itemDetails.ownerAddress;\n\n        if (itemDetails.isAvailableForRent) {\n            itemStatus = ItemStatus.AVAILABLE;\n        } else {\n            itemStatus = ItemStatus.HIDDEN;\n        }\n\n        rentalContractCount = 0;\n        renterCount = 0;\n        itemReviewCount = 0;\n    }\n\n    modifier onlyOwner() {\n        require(msg.sender == ownerAddress, \"Method is restricted to Owner\");\n        _;\n    }\n\n    modifier onlyRenters() {\n        require(isRenter[msg.sender], \"Method is restricted to Renter\");\n        _;\n    }\n\n    function getItemDetails() public view returns (Structs.ItemDetails memory) {\n        return itemDetails;\n    }\n\n    function changeOwner(\n        address _newOwnerUserContract,\n        address payable _newOwnerAddress\n    ) public onlyOwner {\n        itemDetails.ownerUserContract = _newOwnerUserContract;\n        itemDetails.ownerAddress = _newOwnerAddress;\n        ownerUserContract = _newOwnerUserContract;\n        ownerAddress = _newOwnerAddress;\n\n        emit itemOwnerChanged(\n            address(this),\n            _newOwnerUserContract,\n            _newOwnerAddress\n        );\n    }\n\n    function changeItemStatus(uint8 _newStatus) public onlyOwner {\n        if (_newStatus == 0) {\n            itemDetails.isAvailableForRent = true;\n            itemStatus = ItemStatus.AVAILABLE;\n        } else if (_newStatus == 1) {\n            itemDetails.isAvailableForRent = false;\n            itemStatus = ItemStatus.HIDDEN;\n        } else if (_newStatus == 2) {\n            itemDetails.isAvailableForRent = false;\n            itemStatus = ItemStatus.DELETED;\n        }\n\n        emit itemStatusChanged(address(this), itemStatus);\n    }\n\n    function changeItemName(string calldata _newName) public onlyOwner {\n        itemDetails.name = _newName;\n        emit itemDetailsChanged(address(this), \"name\", _newName);\n    }\n\n    function changeItemCollectionOrReturnAddress(string calldata _newAddress)\n        public\n        onlyOwner\n    {\n        itemDetails.collectionOrReturnAddress = _newAddress;\n        emit itemDetailsChanged(\n            address(this),\n            \"collection/returnAddress\",\n            _newAddress\n        );\n    }\n\n    function changeItemDescription(string calldata _newDescription)\n        public\n        onlyOwner\n    {\n        itemDetails.description = _newDescription;\n        emit itemDetailsChanged(address(this), \"description\", _newDescription);\n    }\n\n    function changeItemRentPerDay(uint256 _newRentPerDay) public onlyOwner {\n        itemDetails.rentPerDay = _newRentPerDay;\n        string memory newRentPerDay = utils.uint2str(_newRentPerDay);\n        emit itemDetailsChanged(\n            address(this),\n            \"rentPerDay\",\n            string(newRentPerDay)\n        );\n    }\n\n    function changeItemMaxAllowableLateDays(uint8 _newMaxAllowableLateDays)\n        public\n        onlyOwner\n    {\n        itemDetails.maxAllowableLateDays = _newMaxAllowableLateDays;\n        string memory newMaxAllowableLateDays = utils.uint2str(\n            _newMaxAllowableLateDays\n        );\n        emit itemDetailsChanged(\n            address(this),\n            \"maxAllowableLateDays\",\n            newMaxAllowableLateDays\n        );\n    }\n\n    function changeItemMediaIPFSHashes(string[] memory _newMediaIPFSHashes)\n        public\n        onlyOwner\n    {\n        itemDetails.mediaIPFSHashes = _newMediaIPFSHashes;\n        string memory newMediaIPFSHashes = \"newMediaHashes\";\n\n        emit itemDetailsChanged(\n            address(this),\n            \"mediaIPFSHashes\",\n            newMediaIPFSHashes\n        );\n    }\n\n    function handleNewRental(\n        address _newRentalContract,\n        uint256 _start,\n        uint256 _end\n    ) public {\n        rentalContracts.push(address(_newRentalContract));\n        rentalPeriods.push(RentalStartEnd({start: _start, end: _end}));\n    }\n    // function createRentalContract(\n    //     address _renterUserContract,\n    //     address payable _renterAddress,\n    //     uint256 _rentalFees,\n    //     uint256 _renterDeposit,\n    //     uint256 _start,\n    //     uint256 _end,\n    //     uint8 _numInstallment\n    // ) public payable {\n    //     require(\n    //         msg.sender == _renterAddress,\n    //         \"Renter address does not match msg.sender\"\n    //     );\n    //     // RentalContractCreator rentalContractCreator;\n    //     Rental newRentalContract = new Rental(\n    //         address(this),\n    //         itemDetails,\n    //         _renterUserContract,\n    //         _renterAddress,\n    //         _rentalFees,\n    //         _renterDeposit,\n    //         _start,\n    //         _end,\n    //         _numInstallment\n    //     );\n\n    //     rentalContracts.push(address(newRentalContract));\n    //     rentalPeriods.push(RentalStartEnd({start: _start, end: _end}));\n    //     rentalContractCount++;\n\n    //     renters.push(_renterAddress);\n    //     isRenter[_renterAddress] = true;\n    //     renterCount++;\n\n    //     emit rentalContractCreated(\n    //         address(newRentalContract),\n    //         address(this),\n    //         _renterAddress,\n    //         ownerAddress\n    //     );\n    // }\n\n    // function getItemDetails() public view returns (ItemDetails memory) {\n    //     return itemDetails;\n    // }\n\n    // function addItemReview(User.Review memory _review) public onlyRenters {\n    //     itemReviews.push(_review);\n    //     itemReviewCount++;\n    // }\n}\n",
  "sourcePath": "/Users/jyuteo/CodeProjects/TRent/smart-contracts/src/contracts/Item.sol",
  "compiler": {
    "name": "solc",
    "version": "0.8.9+commit.e5eed63a.Emscripten.clang"
  },
  "schemaVersion": "3.4.3",
  "updatedAt": "2021-10-05T15:37:25.427Z",
  "networkType": "ethereum",
  "devdoc": {
    "kind": "dev",
    "methods": {},
    "version": 1
  },
  "userdoc": {
    "kind": "user",
    "methods": {},
    "version": 1
  }
}