{
  "contractName": "Rental2",
  "abi": [
    {
      "inputs": [
        {
          "internalType": "address",
          "name": "_itemContract",
          "type": "address"
        },
        {
          "components": [
            {
              "internalType": "address",
              "name": "ownerUserContract",
              "type": "address"
            },
            {
              "internalType": "address payable",
              "name": "ownerAddress",
              "type": "address"
            },
            {
              "internalType": "string",
              "name": "name",
              "type": "string"
            },
            {
              "internalType": "string",
              "name": "collectionOrReturnAddress",
              "type": "string"
            },
            {
              "internalType": "string",
              "name": "description",
              "type": "string"
            },
            {
              "internalType": "uint256",
              "name": "rentPerDay",
              "type": "uint256"
            },
            {
              "internalType": "uint8",
              "name": "maxAllowableLateDays",
              "type": "uint8"
            },
            {
              "internalType": "uint8",
              "name": "multipleForLateFees",
              "type": "uint8"
            },
            {
              "internalType": "bool",
              "name": "isAvailableForRent",
              "type": "bool"
            },
            {
              "internalType": "string[]",
              "name": "mediaIPFSHashes",
              "type": "string[]"
            }
          ],
          "internalType": "struct Structs.ItemDetails",
          "name": "_itemDetails",
          "type": "tuple"
        },
        {
          "internalType": "address",
          "name": "_renterUserContract",
          "type": "address"
        },
        {
          "internalType": "address payable",
          "name": "_renterAddress",
          "type": "address"
        },
        {
          "internalType": "uint256",
          "name": "_rentalFees",
          "type": "uint256"
        },
        {
          "internalType": "uint256",
          "name": "_renterDeposit",
          "type": "uint256"
        },
        {
          "internalType": "uint256",
          "name": "_start",
          "type": "uint256"
        },
        {
          "internalType": "uint256",
          "name": "_end",
          "type": "uint256"
        },
        {
          "internalType": "uint8",
          "name": "_numInstallment",
          "type": "uint8"
        }
      ],
      "stateMutability": "payable",
      "type": "constructor"
    },
    {
      "anonymous": false,
      "inputs": [
        {
          "indexed": false,
          "internalType": "address",
          "name": "itemContract",
          "type": "address"
        },
        {
          "indexed": false,
          "internalType": "address",
          "name": "renterAddress",
          "type": "address"
        },
        {
          "indexed": false,
          "internalType": "address",
          "name": "ownerAddress",
          "type": "address"
        },
        {
          "indexed": false,
          "internalType": "uint256",
          "name": "ownerDepositInGwei",
          "type": "uint256"
        },
        {
          "indexed": false,
          "internalType": "enum Rental2.RentalStatus",
          "name": "rentalStatus",
          "type": "uint8"
        }
      ],
      "name": "itemRented",
      "type": "event"
    },
    {
      "anonymous": false,
      "inputs": [
        {
          "indexed": false,
          "internalType": "address",
          "name": "itemContract",
          "type": "address"
        },
        {
          "indexed": false,
          "internalType": "address",
          "name": "renterAddress",
          "type": "address"
        },
        {
          "indexed": false,
          "internalType": "address",
          "name": "ownerAddress",
          "type": "address"
        },
        {
          "indexed": false,
          "internalType": "enum Rental2.RentalStatus",
          "name": "rentalStatus",
          "type": "uint8"
        }
      ],
      "name": "itemReturned",
      "type": "event"
    },
    {
      "anonymous": false,
      "inputs": [
        {
          "indexed": false,
          "internalType": "address",
          "name": "itemContract",
          "type": "address"
        },
        {
          "indexed": false,
          "internalType": "address",
          "name": "rentalContract",
          "type": "address"
        },
        {
          "indexed": false,
          "internalType": "address",
          "name": "renterUserContract",
          "type": "address"
        },
        {
          "indexed": false,
          "internalType": "uint256",
          "name": "lateFeesInGwei",
          "type": "uint256"
        }
      ],
      "name": "lateFeesPaid",
      "type": "event"
    },
    {
      "anonymous": false,
      "inputs": [
        {
          "indexed": false,
          "internalType": "address",
          "name": "itemContract",
          "type": "address"
        },
        {
          "indexed": false,
          "internalType": "address",
          "name": "rentalContract",
          "type": "address"
        }
      ],
      "name": "rentalEnded",
      "type": "event"
    },
    {
      "inputs": [],
      "name": "ownerAddress",
      "outputs": [
        {
          "internalType": "address payable",
          "name": "",
          "type": "address"
        }
      ],
      "stateMutability": "view",
      "type": "function"
    },
    {
      "inputs": [],
      "name": "renterAddress",
      "outputs": [
        {
          "internalType": "address payable",
          "name": "",
          "type": "address"
        }
      ],
      "stateMutability": "view",
      "type": "function"
    },
    {
      "inputs": [],
      "name": "renterUserContract",
      "outputs": [
        {
          "internalType": "address",
          "name": "",
          "type": "address"
        }
      ],
      "stateMutability": "view",
      "type": "function"
    },
    {
      "inputs": [],
      "name": "getRenterAddress",
      "outputs": [
        {
          "internalType": "address",
          "name": "",
          "type": "address"
        }
      ],
      "stateMutability": "view",
      "type": "function"
    },
    {
      "inputs": [],
      "name": "getContractBalance",
      "outputs": [
        {
          "internalType": "uint256",
          "name": "",
          "type": "uint256"
        }
      ],
      "stateMutability": "view",
      "type": "function"
    },
    {
      "inputs": [
        {
          "internalType": "string[]",
          "name": "_ownerProofOfTransfer",
          "type": "string[]"
        },
        {
          "internalType": "uint256",
          "name": "_ownerDeposit",
          "type": "uint256"
        }
      ],
      "name": "uploadOwnerProofOfTransferAndPayDeposit",
      "outputs": [],
      "stateMutability": "payable",
      "type": "function"
    },
    {
      "inputs": [
        {
          "internalType": "string[]",
          "name": "_renterProofOfReturn",
          "type": "string[]"
        }
      ],
      "name": "uploadRenterProofOfReturn",
      "outputs": [],
      "stateMutability": "nonpayable",
      "type": "function"
    },
    {
      "inputs": [
        {
          "internalType": "uint256",
          "name": "_amount",
          "type": "uint256"
        }
      ],
      "name": "payRentalInstallment",
      "outputs": [],
      "stateMutability": "payable",
      "type": "function"
    },
    {
      "inputs": [],
      "name": "claimRentalFees",
      "outputs": [],
      "stateMutability": "nonpayable",
      "type": "function"
    },
    {
      "inputs": [],
      "name": "settleDeposit",
      "outputs": [],
      "stateMutability": "nonpayable",
      "type": "function"
    },
    {
      "inputs": [
        {
          "internalType": "uint256",
          "name": "_lateFees",
          "type": "uint256"
        }
      ],
      "name": "payLateFees",
      "outputs": [],
      "stateMutability": "payable",
      "type": "function"
    },
    {
      "inputs": [
        {
          "internalType": "address",
          "name": "_userAddress",
          "type": "address"
        }
      ],
      "name": "setUserAsDishonest",
      "outputs": [],
      "stateMutability": "nonpayable",
      "type": "function"
    },
    {
      "inputs": [],
      "name": "settleRentalAfterFiveLateDays",
      "outputs": [],
      "stateMutability": "payable",
      "type": "function"
    }
  ],
  "bytecode": "0x60806040526040516200259338038062002593833981016040819052620000269162000448565b604051638dfd0b0360e01b81526004810185905273__Utils_________________________________90638dfd0b039060240160206040518083038186803b1580156200007257600080fd5b505af415801562000087573d6000803e3d6000fd5b505050506040513d601f19601f82011682018060405250810190620000ad919062000615565b3414620001315760405162461bcd60e51b815260206004820152604260248201527f56616c7565207472616e736665726564206973206c657373207468616e20726560448201527f71756972656420616d6f756e742066726f6d2072656e74616c20636f6e74726160648201526118dd60f21b608482015260a40160405180910390fd5b600080546001600160a01b03808c166001600160a01b031990921691909117825560a08a015160015560c08a01516002805460e08d015160ff9081166101000261ffff199092169316929092179190911780825560208c0151600d8054919094166201000090810262010000600160b01b031990921691909117909355909162ff00001990911690830217905550600380546001600160a01b039889166001600160a01b031990911617905560028054969097166301000000026301000000600160b81b0319909616959095179095556004919091556005556006929092556008829055600d805460ff909216610100810261ffff1990931617919091179055600a55505060006009819055600c556200062f565b6001600160a01b03811681146200025c57600080fd5b50565b80516200026c8162000246565b919050565b634e487b7160e01b600052604160045260246000fd5b60405161014081016001600160401b0381118282101715620002ad57620002ad62000271565b60405290565b604051601f8201601f191681016001600160401b0381118282101715620002de57620002de62000271565b604052919050565b600082601f830112620002f857600080fd5b81516001600160401b0381111562000314576200031462000271565b60206200032a601f8301601f19168201620002b3565b82815285828487010111156200033f57600080fd5b60005b838110156200035f57858101830151828201840152820162000342565b83811115620003715760008385840101525b5095945050505050565b805160ff811681146200026c57600080fd5b805180151581146200026c57600080fd5b600082601f830112620003b057600080fd5b815160206001600160401b0380831115620003cf57620003cf62000271565b8260051b620003e0838201620002b3565b9384528581018301938381019088861115620003fb57600080fd5b84880192505b858310156200043c578251848111156200041b5760008081fd5b6200042b8a87838c0101620002e6565b835250918401919084019062000401565b98975050505050505050565b60008060008060008060008060006101208a8c0312156200046857600080fd5b8951620004758162000246565b60208b01519099506001600160401b03808211156200049357600080fd5b908b0190610140828e031215620004a957600080fd5b620004b362000287565b620004be836200025f565b8152620004ce602084016200025f565b6020820152604083015182811115620004e657600080fd5b620004f48f828601620002e6565b6040830152506060830151828111156200050d57600080fd5b6200051b8f828601620002e6565b6060830152506080830151828111156200053457600080fd5b620005428f828601620002e6565b60808301525060a083015160a08201526200056060c084016200037b565b60c08201526200057360e084016200037b565b60e08201526200058761010084016200038d565b61010082015261012083015182811115620005a157600080fd5b620005af8f8286016200039e565b610120830152509950620005c991505060408b016200025f565b9650620005d960608b016200025f565b955060808a0151945060a08a0151935060c08a0151925060e08a01519150620006066101008b016200037b565b90509295985092959850929598565b6000602082840312156200062857600080fd5b5051919050565b611f54806200063f6000396000f3fe6080604052600436106100c25760003560e01c80639c29a3ed1161007f578063baa75f3911610059578063baa75f39146101e9578063c7abd092146101fc578063cbfbb5a314610211578063e1439c6b1461021957600080fd5b80639c29a3ed146101825780639e6aadc3146101a2578063a8237b87146101c957600080fd5b80631334c101146100c75780633fe8351a146100e9578063559ec80d146100fc5780636f9fb98a1461011157806385411c8e146101315780638f84aa0914610144575b600080fd5b3480156100d357600080fd5b506100e76100e2366004611ae8565b61023e565b005b6100e76100f7366004611b18565b61032d565b34801561010857600080fd5b506100e7610617565b34801561011d57600080fd5b506040514781526020015b60405180910390f35b6100e761013f366004611c6d565b610e9a565b34801561015057600080fd5b50600d5461016a906201000090046001600160a01b031681565b6040516001600160a01b039091168152602001610128565b34801561018e57600080fd5b506100e761019d366004611cb2565b6110b0565b3480156101ae57600080fd5b5060025461016a90630100000090046001600160a01b031681565b3480156101d557600080fd5b5060035461016a906001600160a01b031681565b6100e76101f7366004611b18565b6111c5565b34801561020857600080fd5b506100e761141f565b6100e7611764565b34801561022557600080fd5b50600254630100000090046001600160a01b031661016a565b6002546001600160a01b0382811663010000009092041614806102745750600d546001600160a01b038281166201000090920416145b6102d15760405162461bcd60e51b815260206004820152602360248201527f496e76616c6964207573657220746f2062652073657420617320646973686f6e604482015262195cdd60ea1b60648201526084015b60405180910390fd5b6000819050806001600160a01b031663922b57fa6040518163ffffffff1660e01b8152600401600060405180830381600087803b15801561031157600080fd5b505af1158015610325573d6000803e3d6000fd5b505050505050565b600254630100000090046001600160a01b0316331461035e5760405162461bcd60e51b81526004016102c890611cef565b60065442116103c65760405162461bcd60e51b815260206004820152602e60248201527f556e61626c6520746f20706179206c6174652066656573206265666f7265207260448201526d656e74616c20656e64206461746560901b60648201526084016102c8565b60025460065460405163252c50a560e11b8152600481019190915242602482015260ff9091169073__Utils_________________________________90634a58a14a9060440160206040518083038186803b15801561042457600080fd5b505af4158015610438573d6000803e3d6000fd5b505050506040513d601f19601f8201168201806040525081019061045c9190611d26565b11156104d05760405162461bcd60e51b815260206004820152603e60248201527f556e61626c6520746f20706179206c6174652066656573206c6174657220746860448201527f616e206d6178696d756d20616c6c6f7761626c65206c6174652064617973000060648201526084016102c8565b604051638dfd0b0360e01b81526004810182905273__Utils_________________________________90638dfd0b039060240160206040518083038186803b15801561051b57600080fd5b505af415801561052f573d6000803e3d6000fd5b505050506040513d601f19601f820116820180604052508101906105539190611d26565b34146105ba5760405162461bcd60e51b815260206004820152603060248201527f56616c7565207472616e736665726564206973206e6f7420657571616c20746f60448201526f081c995c5d5a5c995908185b5bdd5b9d60821b60648201526084016102c8565b600054600354604080516001600160a01b0393841681523060208201529290911690820152606081018290527fc7e341db620c84a8460b51bfba67b47879276b655ea7960928e38c956cd85344906080015b60405180910390a150565b600d546201000090046001600160a01b031633146106475760405162461bcd60e51b81526004016102c890611d3f565b6002805462010000900460ff16600581111561066557610665611d76565b148061068d5750600460025462010000900460ff16600581111561068b5761068b611d76565b145b806106b45750600560025462010000900460ff1660058111156106b2576106b2611d76565b145b6107095760405162461bcd60e51b81526020600482015260326024820152600080516020611eff83398151915260448201527172656e742072656e74616c2073746174757360701b60648201526084016102c8565b6000600e54118061071c57506000600454115b6107685760405162461bcd60e51b815260206004820152601d60248201527f4e6f2072656d61696e696e67206465706f73697420746f20636c61696d00000060448201526064016102c8565b6002805462010000900460ff16600581111561078657610786611d76565b1480156107935750600a54155b806107ba5750600460025462010000900460ff1660058111156107b8576107b8611d76565b145b806107e15750600560025462010000900460ff1660058111156107df576107df611d76565b145b6108465760405162461bcd60e51b815260206004820152603060248201527f52656e74616c206665657320686173206e6f74206265656e2066756c6c79207360448201526f32ba3a3632b210313c903932b73a32b960811b60648201526084016102c8565b60085460095414801561087457506002805462010000900460ff16600581111561087257610872611d76565b145b8061089b5750600460025462010000900460ff16600581111561089957610899611d76565b145b806108c25750600560025462010000900460ff1660058111156108c0576108c0611d76565b145b6108cb57600080fd5b600854600c541480156108f957506002805462010000900460ff1660058111156108f7576108f7611d76565b145b806109205750600460025462010000900460ff16600581111561091e5761091e611d76565b145b806109475750600560025462010000900460ff16600581111561094557610945611d76565b145b6109ab5760405162461bcd60e51b815260206004820152602f60248201527f52656e74616c206665657320686173206e6f74206265656e2066756c6c79206360448201526e3630b4b6b2b210313c9037bbb732b960891b60648201526084016102c8565b600460025462010000900460ff1660058111156109ca576109ca611d76565b1415610b6357600d54600e54604051638dfd0b0360e01b81526004810191909152620100009091046001600160a01b0316906108fc9073__Utils_________________________________90638dfd0b039060240160206040518083038186803b158015610a3757600080fd5b505af4158015610a4b573d6000803e3d6000fd5b505050506040513d601f19601f82011682018060405250810190610a6f9190611d26565b6040518115909202916000818181858888f19350505050158015610a97573d6000803e3d6000fd5b50600d5460048054604051638dfd0b0360e01b815291820152620100009091046001600160a01b0316906108fc9073__Utils_________________________________90638dfd0b03906024015b60206040518083038186803b158015610afd57600080fd5b505af4158015610b11573d6000803e3d6000fd5b505050506040513d601f19601f82011682018060405250810190610b359190611d26565b6040518115909202916000818181858888f19350505050158015610b5d573d6000803e3d6000fd5b50610e32565b600560025462010000900460ff166005811115610b8257610b82611d76565b1415610ca357600254600e54604051638dfd0b0360e01b8152600481019190915263010000009091046001600160a01b0316906108fc9073__Utils_________________________________90638dfd0b039060240160206040518083038186803b158015610bf057600080fd5b505af4158015610c04573d6000803e3d6000fd5b505050506040513d601f19601f82011682018060405250810190610c289190611d26565b6040518115909202916000818181858888f19350505050158015610c50573d6000803e3d6000fd5b5060025460048054604051638dfd0b0360e01b81529182015263010000009091046001600160a01b0316906108fc9073__Utils_________________________________90638dfd0b0390602401610ae5565b600d54600e54604051638dfd0b0360e01b81526004810191909152620100009091046001600160a01b0316906108fc9073__Utils_________________________________90638dfd0b039060240160206040518083038186803b158015610d0a57600080fd5b505af4158015610d1e573d6000803e3d6000fd5b505050506040513d601f19601f82011682018060405250810190610d429190611d26565b6040518115909202916000818181858888f19350505050158015610d6a573d6000803e3d6000fd5b5060025460048054604051638dfd0b0360e01b81529182015263010000009091046001600160a01b0316906108fc9073__Utils_________________________________90638dfd0b039060240160206040518083038186803b158015610dd057600080fd5b505af4158015610de4573d6000803e3d6000fd5b505050506040513d601f19601f82011682018060405250810190610e089190611d26565b6040518115909202916000818181858888f19350505050158015610e30573d6000803e3d6000fd5b505b4715610e4057610e40611d8c565b600280546203000062ff000019909116179055600054604080516001600160a01b0390921682523060208301527f6a5d55ef84f2d6da57cc86de121fc1c7a8392770ff8f357998e87beb5c310491910160405180910390a1565b600d546201000090046001600160a01b03163314610eca5760405162461bcd60e51b81526004016102c890611d3f565b604051638dfd0b0360e01b81526004810182905273__Utils_________________________________90638dfd0b039060240160206040518083038186803b158015610f1557600080fd5b505af4158015610f29573d6000803e3d6000fd5b505050506040513d601f19601f82011682018060405250810190610f4d9190611d26565b3414610fb15760405162461bcd60e51b815260206004820152602d60248201527f56616c7565207472616e736665726564206973206c657373207468616e20726560448201526c1c5d5a5c995908185b5bdd5b9d609a1b60648201526084016102c8565b600060025462010000900460ff166005811115610fd057610fd0611d76565b1461101d5760405162461bcd60e51b815260206004820181905260248201527f496e76616c69642072656e74616c2073746174757320666f72206d6574686f6460448201526064016102c8565b600e819055815161103590600f90602085019061199c565b506002805462ff000019166201000090811791829055600054600d54600e546040517f638a6fc620f125e2c5fd9c4a087a87f135f8c70a914ad7251ba015a126a6b7c2956110a4956001600160a01b039586169563010000008304811695829004169392910460ff1690611dc4565b60405180910390a15050565b600254630100000090046001600160a01b031633146110e15760405162461bcd60e51b81526004016102c890611cef565b600a54156111435760405162461bcd60e51b815260206004820152602960248201527f416c6c2066656573206861766520746f2062652070616964206265666f72652060448201526872657475726e696e6760b81b60648201526084016102c8565b805161115690600790602084019061199c565b506002805462ff00001916620200001790819055600054600d546040517f6c3b74d4fe02e9013f2662b52aee484a1cfa6dfbe0616f21ef00227ba5c91ad29361060c936001600160a01b0390811693630100000083048216936201000091829004909216920460ff1690611e02565b600254630100000090046001600160a01b031633146111f65760405162461bcd60e51b81526004016102c890611cef565b600d54819060ff610100909104166001141561129c57600a54604051638dfd0b0360e01b81526004810183905273__Utils_________________________________90638dfd0b039060240160206040518083038186803b15801561125a57600080fd5b505af415801561126e573d6000803e3d6000fd5b505050506040513d601f19601f820116820180604052508101906112929190611d26565b1461129c57600080fd5b604051638dfd0b0360e01b81526004810183905273__Utils_________________________________90638dfd0b039060240160206040518083038186803b1580156112e757600080fd5b505af41580156112fb573d6000803e3d6000fd5b505050506040513d601f19601f8201168201806040525081019061131f9190611d26565b34146113835760405162461bcd60e51b815260206004820152602d60248201527f56616c7565207472616e736665726564206e6f7420657175616c20746f20726560448201526c1c5d5a5c995908185b5bdd5b9d609a1b60648201526084016102c8565b81600960008282546113959190611e4e565b9250508190555081600a60008282546113ae9190611e66565b9091555050600d8054610100900460ff169060016113cb83611e7d565b91906101000a81548160ff021916908360ff16021790555050600a546009546113f49190611e4e565b6008541461140457611404611d8c565b81600b60008282546114169190611e4e565b90915550505050565b600d546201000090046001600160a01b0316331461144f5760405162461bcd60e51b81526004016102c890611d3f565b6000600b54116114ab5760405162461bcd60e51b815260206004820152602160248201527f5468657265206973206e6f20636c61696d61626c652072656e74616c206665656044820152607360f81b60648201526084016102c8565b600460025462010000900460ff1660058111156114ca576114ca611d76565b141561154a5760405162461bcd60e51b81526020600482015260556024820152600080516020611eff83398151915260448201527f72656e742072656e74616c207374617475732c2072656e74616c20737461747560648201527473206973204f4e204f574e4552204449535055544560581b608482015260a4016102c8565b600560025462010000900460ff16600581111561156957611569611d76565b14156115ea5760405162461bcd60e51b81526020600482015260566024820152600080516020611eff83398151915260448201527f72656e742072656e74616c207374617475732c2072656e74616c20737461747560648201527573206973204f4e2052454e544552204449535055544560501b608482015260a4016102c8565b600360025462010000900460ff16600581111561160957611609611d76565b141561167c5760405162461bcd60e51b81526020600482015260486024820152600080516020611eff83398151915260448201527f72656e742072656e74616c207374617475732c2072656e74616c2073746174756064820152671cc81a5cc811539160c21b608482015260a4016102c8565b600d54600b54604051638dfd0b0360e01b81526004810191909152620100009091046001600160a01b0316906108fc9073__Utils_________________________________90638dfd0b039060240160206040518083038186803b1580156116e357600080fd5b505af41580156116f7573d6000803e3d6000fd5b505050506040513d601f19601f8201168201806040525081019061171b9190611d26565b6040518115909202916000818181858888f19350505050158015611743573d6000803e3d6000fd5b50600b54600c60008282546117589190611e4e565b90915550506000600b55565b600d546201000090046001600160a01b031633146117945760405162461bcd60e51b81526004016102c890611d3f565b6002546117a59060ff166018611e9a565b6117b090603c611e9a565b6117bb90603c611e9a565b60ff166006546117cb9190611e4e565b421161183f5760405162461bcd60e51b815260206004820152603a60248201527f556e61626c6520746f20736574746c652072656e74616c206265666f7265206d60448201527f6178696d756d20616c6c6f7761626c65206c617465206461797300000000000060648201526084016102c8565b600160025462010000900460ff16600581111561185e5761185e611d76565b146118c65760405162461bcd60e51b815260206004820152603260248201527f556e61626c6520746f20736574746c652072656e74616c20776974682063757260448201527172656e742072656e74616c2073746174757360701b60648201526084016102c8565b6000546040516001620b258d60e21b03198152600260048201526001600160a01b0390911690819063ffd369cc90602401600060405180830381600087803b15801561191157600080fd5b505af1158015611925573d6000803e3d6000fd5b5050600d546040516001600160a01b03620100009092049190911692504780156108fc029250906000818181858888f1935050505015801561196b573d6000803e3d6000fd5b5060025461198890630100000090046001600160a01b031661023e565b506002805462ff0000191662030000179055565b8280548282559060005260206000209081019282156119e9579160200282015b828111156119e957825180516119d99184916020909101906119f9565b50916020019190600101906119bc565b506119f5929150611a79565b5090565b828054611a0590611ec3565b90600052602060002090601f016020900481019282611a275760008555611a6d565b82601f10611a4057805160ff1916838001178555611a6d565b82800160010185558215611a6d579182015b82811115611a6d578251825591602001919060010190611a52565b506119f5929150611a96565b808211156119f5576000611a8d8282611aab565b50600101611a79565b5b808211156119f55760008155600101611a97565b508054611ab790611ec3565b6000825580601f10611ac7575050565b601f016020900490600052602060002090810190611ae59190611a96565b50565b600060208284031215611afa57600080fd5b81356001600160a01b0381168114611b1157600080fd5b9392505050565b600060208284031215611b2a57600080fd5b5035919050565b634e487b7160e01b600052604160045260246000fd5b604051601f8201601f1916810167ffffffffffffffff81118282101715611b7057611b70611b31565b604052919050565b6000601f8381840112611b8a57600080fd5b8235602067ffffffffffffffff80831115611ba757611ba7611b31565b8260051b611bb6838201611b47565b9384528681018301938381019089861115611bd057600080fd5b84890192505b85831015611c6057823584811115611bee5760008081fd5b8901603f81018b13611c005760008081fd5b85810135604086821115611c1657611c16611b31565b611c27828b01601f19168901611b47565b8281528d82848601011115611c3c5760008081fd5b828285018a8301376000928101890192909252508352509184019190840190611bd6565b9998505050505050505050565b60008060408385031215611c8057600080fd5b823567ffffffffffffffff811115611c9757600080fd5b611ca385828601611b78565b95602094909401359450505050565b600060208284031215611cc457600080fd5b813567ffffffffffffffff811115611cdb57600080fd5b611ce784828501611b78565b949350505050565b6020808252601e908201527f4d6574686f64206973207265737472696374656420746f2052656e7465720000604082015260600190565b600060208284031215611d3857600080fd5b5051919050565b6020808252601d908201527f4d6574686f64206973207265737472696374656420746f204f776e6572000000604082015260600190565b634e487b7160e01b600052602160045260246000fd5b634e487b7160e01b600052600160045260246000fd5b60068110611dc057634e487b7160e01b600052602160045260246000fd5b9052565b6001600160a01b0386811682528581166020830152841660408201526060810183905260a08101611df86080830184611da2565b9695505050505050565b6001600160a01b03858116825284811660208301528316604082015260808101611e2f6060830184611da2565b95945050505050565b634e487b7160e01b600052601160045260246000fd5b60008219821115611e6157611e61611e38565b500190565b600082821015611e7857611e78611e38565b500390565b600060ff821680611e9057611e90611e38565b6000190192915050565b600060ff821660ff84168160ff0481118215151615611ebb57611ebb611e38565b029392505050565b600181811c90821680611ed757607f821691505b60208210811415611ef857634e487b7160e01b600052602260045260246000fd5b5091905056fe556e61626c6520746f20636c61696d207061796d656e74207769746820637572a2646970667358221220b1d51f30d895d04d24cbe551e67e70800588641a34fbbd5030279b9321673b4664736f6c63430008090033",
  "deployedBytecode": "0x6080604052600436106100c25760003560e01c80639c29a3ed1161007f578063baa75f3911610059578063baa75f39146101e9578063c7abd092146101fc578063cbfbb5a314610211578063e1439c6b1461021957600080fd5b80639c29a3ed146101825780639e6aadc3146101a2578063a8237b87146101c957600080fd5b80631334c101146100c75780633fe8351a146100e9578063559ec80d146100fc5780636f9fb98a1461011157806385411c8e146101315780638f84aa0914610144575b600080fd5b3480156100d357600080fd5b506100e76100e2366004611ae8565b61023e565b005b6100e76100f7366004611b18565b61032d565b34801561010857600080fd5b506100e7610617565b34801561011d57600080fd5b506040514781526020015b60405180910390f35b6100e761013f366004611c6d565b610e9a565b34801561015057600080fd5b50600d5461016a906201000090046001600160a01b031681565b6040516001600160a01b039091168152602001610128565b34801561018e57600080fd5b506100e761019d366004611cb2565b6110b0565b3480156101ae57600080fd5b5060025461016a90630100000090046001600160a01b031681565b3480156101d557600080fd5b5060035461016a906001600160a01b031681565b6100e76101f7366004611b18565b6111c5565b34801561020857600080fd5b506100e761141f565b6100e7611764565b34801561022557600080fd5b50600254630100000090046001600160a01b031661016a565b6002546001600160a01b0382811663010000009092041614806102745750600d546001600160a01b038281166201000090920416145b6102d15760405162461bcd60e51b815260206004820152602360248201527f496e76616c6964207573657220746f2062652073657420617320646973686f6e604482015262195cdd60ea1b60648201526084015b60405180910390fd5b6000819050806001600160a01b031663922b57fa6040518163ffffffff1660e01b8152600401600060405180830381600087803b15801561031157600080fd5b505af1158015610325573d6000803e3d6000fd5b505050505050565b600254630100000090046001600160a01b0316331461035e5760405162461bcd60e51b81526004016102c890611cef565b60065442116103c65760405162461bcd60e51b815260206004820152602e60248201527f556e61626c6520746f20706179206c6174652066656573206265666f7265207260448201526d656e74616c20656e64206461746560901b60648201526084016102c8565b60025460065460405163252c50a560e11b8152600481019190915242602482015260ff9091169073__Utils_________________________________90634a58a14a9060440160206040518083038186803b15801561042457600080fd5b505af4158015610438573d6000803e3d6000fd5b505050506040513d601f19601f8201168201806040525081019061045c9190611d26565b11156104d05760405162461bcd60e51b815260206004820152603e60248201527f556e61626c6520746f20706179206c6174652066656573206c6174657220746860448201527f616e206d6178696d756d20616c6c6f7761626c65206c6174652064617973000060648201526084016102c8565b604051638dfd0b0360e01b81526004810182905273__Utils_________________________________90638dfd0b039060240160206040518083038186803b15801561051b57600080fd5b505af415801561052f573d6000803e3d6000fd5b505050506040513d601f19601f820116820180604052508101906105539190611d26565b34146105ba5760405162461bcd60e51b815260206004820152603060248201527f56616c7565207472616e736665726564206973206e6f7420657571616c20746f60448201526f081c995c5d5a5c995908185b5bdd5b9d60821b60648201526084016102c8565b600054600354604080516001600160a01b0393841681523060208201529290911690820152606081018290527fc7e341db620c84a8460b51bfba67b47879276b655ea7960928e38c956cd85344906080015b60405180910390a150565b600d546201000090046001600160a01b031633146106475760405162461bcd60e51b81526004016102c890611d3f565b6002805462010000900460ff16600581111561066557610665611d76565b148061068d5750600460025462010000900460ff16600581111561068b5761068b611d76565b145b806106b45750600560025462010000900460ff1660058111156106b2576106b2611d76565b145b6107095760405162461bcd60e51b81526020600482015260326024820152600080516020611eff83398151915260448201527172656e742072656e74616c2073746174757360701b60648201526084016102c8565b6000600e54118061071c57506000600454115b6107685760405162461bcd60e51b815260206004820152601d60248201527f4e6f2072656d61696e696e67206465706f73697420746f20636c61696d00000060448201526064016102c8565b6002805462010000900460ff16600581111561078657610786611d76565b1480156107935750600a54155b806107ba5750600460025462010000900460ff1660058111156107b8576107b8611d76565b145b806107e15750600560025462010000900460ff1660058111156107df576107df611d76565b145b6108465760405162461bcd60e51b815260206004820152603060248201527f52656e74616c206665657320686173206e6f74206265656e2066756c6c79207360448201526f32ba3a3632b210313c903932b73a32b960811b60648201526084016102c8565b60085460095414801561087457506002805462010000900460ff16600581111561087257610872611d76565b145b8061089b5750600460025462010000900460ff16600581111561089957610899611d76565b145b806108c25750600560025462010000900460ff1660058111156108c0576108c0611d76565b145b6108cb57600080fd5b600854600c541480156108f957506002805462010000900460ff1660058111156108f7576108f7611d76565b145b806109205750600460025462010000900460ff16600581111561091e5761091e611d76565b145b806109475750600560025462010000900460ff16600581111561094557610945611d76565b145b6109ab5760405162461bcd60e51b815260206004820152602f60248201527f52656e74616c206665657320686173206e6f74206265656e2066756c6c79206360448201526e3630b4b6b2b210313c9037bbb732b960891b60648201526084016102c8565b600460025462010000900460ff1660058111156109ca576109ca611d76565b1415610b6357600d54600e54604051638dfd0b0360e01b81526004810191909152620100009091046001600160a01b0316906108fc9073__Utils_________________________________90638dfd0b039060240160206040518083038186803b158015610a3757600080fd5b505af4158015610a4b573d6000803e3d6000fd5b505050506040513d601f19601f82011682018060405250810190610a6f9190611d26565b6040518115909202916000818181858888f19350505050158015610a97573d6000803e3d6000fd5b50600d5460048054604051638dfd0b0360e01b815291820152620100009091046001600160a01b0316906108fc9073__Utils_________________________________90638dfd0b03906024015b60206040518083038186803b158015610afd57600080fd5b505af4158015610b11573d6000803e3d6000fd5b505050506040513d601f19601f82011682018060405250810190610b359190611d26565b6040518115909202916000818181858888f19350505050158015610b5d573d6000803e3d6000fd5b50610e32565b600560025462010000900460ff166005811115610b8257610b82611d76565b1415610ca357600254600e54604051638dfd0b0360e01b8152600481019190915263010000009091046001600160a01b0316906108fc9073__Utils_________________________________90638dfd0b039060240160206040518083038186803b158015610bf057600080fd5b505af4158015610c04573d6000803e3d6000fd5b505050506040513d601f19601f82011682018060405250810190610c289190611d26565b6040518115909202916000818181858888f19350505050158015610c50573d6000803e3d6000fd5b5060025460048054604051638dfd0b0360e01b81529182015263010000009091046001600160a01b0316906108fc9073__Utils_________________________________90638dfd0b0390602401610ae5565b600d54600e54604051638dfd0b0360e01b81526004810191909152620100009091046001600160a01b0316906108fc9073__Utils_________________________________90638dfd0b039060240160206040518083038186803b158015610d0a57600080fd5b505af4158015610d1e573d6000803e3d6000fd5b505050506040513d601f19601f82011682018060405250810190610d429190611d26565b6040518115909202916000818181858888f19350505050158015610d6a573d6000803e3d6000fd5b5060025460048054604051638dfd0b0360e01b81529182015263010000009091046001600160a01b0316906108fc9073__Utils_________________________________90638dfd0b039060240160206040518083038186803b158015610dd057600080fd5b505af4158015610de4573d6000803e3d6000fd5b505050506040513d601f19601f82011682018060405250810190610e089190611d26565b6040518115909202916000818181858888f19350505050158015610e30573d6000803e3d6000fd5b505b4715610e4057610e40611d8c565b600280546203000062ff000019909116179055600054604080516001600160a01b0390921682523060208301527f6a5d55ef84f2d6da57cc86de121fc1c7a8392770ff8f357998e87beb5c310491910160405180910390a1565b600d546201000090046001600160a01b03163314610eca5760405162461bcd60e51b81526004016102c890611d3f565b604051638dfd0b0360e01b81526004810182905273__Utils_________________________________90638dfd0b039060240160206040518083038186803b158015610f1557600080fd5b505af4158015610f29573d6000803e3d6000fd5b505050506040513d601f19601f82011682018060405250810190610f4d9190611d26565b3414610fb15760405162461bcd60e51b815260206004820152602d60248201527f56616c7565207472616e736665726564206973206c657373207468616e20726560448201526c1c5d5a5c995908185b5bdd5b9d609a1b60648201526084016102c8565b600060025462010000900460ff166005811115610fd057610fd0611d76565b1461101d5760405162461bcd60e51b815260206004820181905260248201527f496e76616c69642072656e74616c2073746174757320666f72206d6574686f6460448201526064016102c8565b600e819055815161103590600f90602085019061199c565b506002805462ff000019166201000090811791829055600054600d54600e546040517f638a6fc620f125e2c5fd9c4a087a87f135f8c70a914ad7251ba015a126a6b7c2956110a4956001600160a01b039586169563010000008304811695829004169392910460ff1690611dc4565b60405180910390a15050565b600254630100000090046001600160a01b031633146110e15760405162461bcd60e51b81526004016102c890611cef565b600a54156111435760405162461bcd60e51b815260206004820152602960248201527f416c6c2066656573206861766520746f2062652070616964206265666f72652060448201526872657475726e696e6760b81b60648201526084016102c8565b805161115690600790602084019061199c565b506002805462ff00001916620200001790819055600054600d546040517f6c3b74d4fe02e9013f2662b52aee484a1cfa6dfbe0616f21ef00227ba5c91ad29361060c936001600160a01b0390811693630100000083048216936201000091829004909216920460ff1690611e02565b600254630100000090046001600160a01b031633146111f65760405162461bcd60e51b81526004016102c890611cef565b600d54819060ff610100909104166001141561129c57600a54604051638dfd0b0360e01b81526004810183905273__Utils_________________________________90638dfd0b039060240160206040518083038186803b15801561125a57600080fd5b505af415801561126e573d6000803e3d6000fd5b505050506040513d601f19601f820116820180604052508101906112929190611d26565b1461129c57600080fd5b604051638dfd0b0360e01b81526004810183905273__Utils_________________________________90638dfd0b039060240160206040518083038186803b1580156112e757600080fd5b505af41580156112fb573d6000803e3d6000fd5b505050506040513d601f19601f8201168201806040525081019061131f9190611d26565b34146113835760405162461bcd60e51b815260206004820152602d60248201527f56616c7565207472616e736665726564206e6f7420657175616c20746f20726560448201526c1c5d5a5c995908185b5bdd5b9d609a1b60648201526084016102c8565b81600960008282546113959190611e4e565b9250508190555081600a60008282546113ae9190611e66565b9091555050600d8054610100900460ff169060016113cb83611e7d565b91906101000a81548160ff021916908360ff16021790555050600a546009546113f49190611e4e565b6008541461140457611404611d8c565b81600b60008282546114169190611e4e565b90915550505050565b600d546201000090046001600160a01b0316331461144f5760405162461bcd60e51b81526004016102c890611d3f565b6000600b54116114ab5760405162461bcd60e51b815260206004820152602160248201527f5468657265206973206e6f20636c61696d61626c652072656e74616c206665656044820152607360f81b60648201526084016102c8565b600460025462010000900460ff1660058111156114ca576114ca611d76565b141561154a5760405162461bcd60e51b81526020600482015260556024820152600080516020611eff83398151915260448201527f72656e742072656e74616c207374617475732c2072656e74616c20737461747560648201527473206973204f4e204f574e4552204449535055544560581b608482015260a4016102c8565b600560025462010000900460ff16600581111561156957611569611d76565b14156115ea5760405162461bcd60e51b81526020600482015260566024820152600080516020611eff83398151915260448201527f72656e742072656e74616c207374617475732c2072656e74616c20737461747560648201527573206973204f4e2052454e544552204449535055544560501b608482015260a4016102c8565b600360025462010000900460ff16600581111561160957611609611d76565b141561167c5760405162461bcd60e51b81526020600482015260486024820152600080516020611eff83398151915260448201527f72656e742072656e74616c207374617475732c2072656e74616c2073746174756064820152671cc81a5cc811539160c21b608482015260a4016102c8565b600d54600b54604051638dfd0b0360e01b81526004810191909152620100009091046001600160a01b0316906108fc9073__Utils_________________________________90638dfd0b039060240160206040518083038186803b1580156116e357600080fd5b505af41580156116f7573d6000803e3d6000fd5b505050506040513d601f19601f8201168201806040525081019061171b9190611d26565b6040518115909202916000818181858888f19350505050158015611743573d6000803e3d6000fd5b50600b54600c60008282546117589190611e4e565b90915550506000600b55565b600d546201000090046001600160a01b031633146117945760405162461bcd60e51b81526004016102c890611d3f565b6002546117a59060ff166018611e9a565b6117b090603c611e9a565b6117bb90603c611e9a565b60ff166006546117cb9190611e4e565b421161183f5760405162461bcd60e51b815260206004820152603a60248201527f556e61626c6520746f20736574746c652072656e74616c206265666f7265206d60448201527f6178696d756d20616c6c6f7761626c65206c617465206461797300000000000060648201526084016102c8565b600160025462010000900460ff16600581111561185e5761185e611d76565b146118c65760405162461bcd60e51b815260206004820152603260248201527f556e61626c6520746f20736574746c652072656e74616c20776974682063757260448201527172656e742072656e74616c2073746174757360701b60648201526084016102c8565b6000546040516001620b258d60e21b03198152600260048201526001600160a01b0390911690819063ffd369cc90602401600060405180830381600087803b15801561191157600080fd5b505af1158015611925573d6000803e3d6000fd5b5050600d546040516001600160a01b03620100009092049190911692504780156108fc029250906000818181858888f1935050505015801561196b573d6000803e3d6000fd5b5060025461198890630100000090046001600160a01b031661023e565b506002805462ff0000191662030000179055565b8280548282559060005260206000209081019282156119e9579160200282015b828111156119e957825180516119d99184916020909101906119f9565b50916020019190600101906119bc565b506119f5929150611a79565b5090565b828054611a0590611ec3565b90600052602060002090601f016020900481019282611a275760008555611a6d565b82601f10611a4057805160ff1916838001178555611a6d565b82800160010185558215611a6d579182015b82811115611a6d578251825591602001919060010190611a52565b506119f5929150611a96565b808211156119f5576000611a8d8282611aab565b50600101611a79565b5b808211156119f55760008155600101611a97565b508054611ab790611ec3565b6000825580601f10611ac7575050565b601f016020900490600052602060002090810190611ae59190611a96565b50565b600060208284031215611afa57600080fd5b81356001600160a01b0381168114611b1157600080fd5b9392505050565b600060208284031215611b2a57600080fd5b5035919050565b634e487b7160e01b600052604160045260246000fd5b604051601f8201601f1916810167ffffffffffffffff81118282101715611b7057611b70611b31565b604052919050565b6000601f8381840112611b8a57600080fd5b8235602067ffffffffffffffff80831115611ba757611ba7611b31565b8260051b611bb6838201611b47565b9384528681018301938381019089861115611bd057600080fd5b84890192505b85831015611c6057823584811115611bee5760008081fd5b8901603f81018b13611c005760008081fd5b85810135604086821115611c1657611c16611b31565b611c27828b01601f19168901611b47565b8281528d82848601011115611c3c5760008081fd5b828285018a8301376000928101890192909252508352509184019190840190611bd6565b9998505050505050505050565b60008060408385031215611c8057600080fd5b823567ffffffffffffffff811115611c9757600080fd5b611ca385828601611b78565b95602094909401359450505050565b600060208284031215611cc457600080fd5b813567ffffffffffffffff811115611cdb57600080fd5b611ce784828501611b78565b949350505050565b6020808252601e908201527f4d6574686f64206973207265737472696374656420746f2052656e7465720000604082015260600190565b600060208284031215611d3857600080fd5b5051919050565b6020808252601d908201527f4d6574686f64206973207265737472696374656420746f204f776e6572000000604082015260600190565b634e487b7160e01b600052602160045260246000fd5b634e487b7160e01b600052600160045260246000fd5b60068110611dc057634e487b7160e01b600052602160045260246000fd5b9052565b6001600160a01b0386811682528581166020830152841660408201526060810183905260a08101611df86080830184611da2565b9695505050505050565b6001600160a01b03858116825284811660208301528316604082015260808101611e2f6060830184611da2565b95945050505050565b634e487b7160e01b600052601160045260246000fd5b60008219821115611e6157611e61611e38565b500190565b600082821015611e7857611e78611e38565b500390565b600060ff821680611e9057611e90611e38565b6000190192915050565b600060ff821660ff84168160ff0481118215151615611ebb57611ebb611e38565b029392505050565b600181811c90821680611ed757607f821691505b60208210811415611ef857634e487b7160e01b600052602260045260246000fd5b5091905056fe556e61626c6520746f20636c61696d207061796d656e74207769746820637572a2646970667358221220b1d51f30d895d04d24cbe551e67e70800588641a34fbbd5030279b9321673b4664736f6c63430008090033",
  "immutableReferences": {},
  "source": "// SPDX-License-Identifier: GPL-3.0\n\npragma solidity >=0.7.0 <0.9.0;\n\nimport \"./User.sol\";\nimport \"./Item.sol\";\nimport \"./helpers/Utils.sol\";\nimport \"./helpers/Structs.sol\";\n\ncontract Rental2 {\n    using Utils for *;\n    using Structs for *;\n\n    enum RentalStatus {\n        CREATED,\n        RENTED,\n        RETURNED,\n        END,\n        OWNERDISPUTE,\n        RENTERDISPUTE\n    }\n\n    // enum DisputeType {\n    //     FakeOwnerProof,\n    //     FakeRenterProof,\n    //     ItemDamaged\n    // }\n\n    // struct Dispute {\n    //     string title;\n    //     string description;\n    //     string[] mediaIPFSHashes;\n    //     uint256 compensationAmount; // a value less than owner deposit and renter deposit\n    //     uint256 totalIncentive; // user has to pay the amount of incentive as deposit when open a dispute\n    //     uint256 startTime;\n    //     uint256 approvalCount;\n    //     mapping(uint256 => address payable) approversList;\n    //     mapping(address => bool) isApprover;\n    //     uint256 rejectionCount;\n    //     mapping(uint256 => address payable) rejectersList;\n    //     mapping(address => bool) isRejecter;\n    //     address payable creator;\n    //     DisputeType disputeType;\n    // }\n\n    //--All fees unit are in gwei--//\n\n    address private itemContract;\n    uint256 private rentPerDay;\n    uint8 private maxAllowableLateDays;\n    uint8 private multipleForLateFees;\n\n    RentalStatus private rentalStatus;\n    address payable public renterAddress;\n    address public renterUserContract;\n    uint256 private renterDeposit;\n    uint256 private start;\n    uint256 private end;\n    string[] private renterProofOfReturn; // IPFS hashes\n\n    uint256 private rentalFees;\n    uint256 private paidRentalFees;\n    uint256 private remainingRentalFees;\n    uint256 private claimableRentalFees;\n    uint256 private claimedRentalFees;\n    uint8 private numInstallment;\n    uint8 private remainingNumInstallment;\n\n    address payable public ownerAddress;\n    uint256 private ownerDeposit;\n    string[] private ownerProofOfTransfer; // IPFS hashes\n\n    // mapping(uint8 => Dispute) public disputes;\n    // uint8 public disputeCount;\n    // uint8 public disputePeriod = 3; // dispute will last for 3 days\n\n    event itemRented(\n        address itemContract,\n        address renterAddress,\n        address ownerAddress,\n        uint256 ownerDepositInGwei,\n        RentalStatus rentalStatus\n    );\n\n    event itemReturned(\n        address itemContract,\n        address renterAddress,\n        address ownerAddress,\n        RentalStatus rentalStatus\n    );\n\n    event rentalEnded(address itemContract, address rentalContract);\n\n    event lateFeesPaid(\n        address itemContract,\n        address rentalContract,\n        address renterUserContract,\n        uint256 lateFeesInGwei\n    );\n\n    constructor(\n        address _itemContract,\n        Structs.ItemDetails memory _itemDetails,\n        address _renterUserContract,\n        address payable _renterAddress,\n        uint256 _rentalFees,\n        uint256 _renterDeposit,\n        uint256 _start,\n        uint256 _end,\n        uint8 _numInstallment\n    ) payable {\n        require(\n            msg.value == Utils.gweiToWei(_renterDeposit),\n            \"Value transfered is less than required amount from rental contract\"\n        );\n\n        itemContract = _itemContract;\n        rentPerDay = _itemDetails.rentPerDay;\n        maxAllowableLateDays = _itemDetails.maxAllowableLateDays;\n        multipleForLateFees = _itemDetails.multipleForLateFees;\n        ownerAddress = _itemDetails.ownerAddress;\n\n        rentalStatus = RentalStatus.CREATED;\n        renterUserContract = _renterUserContract;\n        renterAddress = _renterAddress;\n        renterDeposit = _renterDeposit;\n        start = _start;\n        end = _end;\n\n        rentalFees = _rentalFees;\n        numInstallment = _numInstallment;\n        remainingNumInstallment = _numInstallment;\n        remainingRentalFees = _rentalFees;\n        paidRentalFees = 0;\n        claimedRentalFees = 0;\n    }\n\n    modifier onlyOwner() {\n        require(msg.sender == ownerAddress, \"Method is restricted to Owner\");\n        _;\n    }\n\n    modifier onlyRenter() {\n        require(msg.sender == renterAddress, \"Method is restricted to Renter\");\n        _;\n    }\n\n    modifier correctFinalInstallmentValue(uint256 _amount) {\n        if (remainingNumInstallment == 1) {\n            require(Utils.gweiToWei(_amount) == remainingRentalFees);\n        }\n        _;\n    }\n\n    // modifier validVoter(Dispute storage _dispute) {\n    //     require(\n    //         msg.sender != ownerAddress,\n    //         \"Owner is not eligible to vote for disputes\"\n    //     );\n    //     require(\n    //         msg.sender != renterAddress,\n    //         \"Renter is not eligible to vote for disputes\"\n    //     );\n    //     require(\n    //         !_dispute.isApprover[msg.sender],\n    //         \"User has already voted for this dispute\"\n    //     );\n    //     require(\n    //         !_dispute.isRejecter[msg.sender],\n    //         \"User has already voted for this dispute\"\n    //     );\n    //     _;\n    // }\n\n    // modifier onlyDisputeCreator(Dispute storage _dispute) {\n    //     require(\n    //         msg.sender == _dispute.creator,\n    //         \"Only dispute creater can resolve dispute\"\n    //     );\n    //     _;\n    // }\n\n    function getRenterAddress() public view returns (address) {\n        return renterAddress;\n    }\n\n    function getContractBalance() public view returns (uint256) {\n        return address(this).balance;\n    }\n\n    function uploadOwnerProofOfTransferAndPayDeposit(\n        string[] memory _ownerProofOfTransfer,\n        uint256 _ownerDeposit\n    ) public payable onlyOwner {\n        require(\n            msg.value == Utils.gweiToWei(_ownerDeposit),\n            \"Value transfered is less than required amount\"\n        );\n        require(\n            rentalStatus == RentalStatus.CREATED,\n            \"Invalid rental status for method\"\n        );\n\n        ownerDeposit = _ownerDeposit;\n        ownerProofOfTransfer = _ownerProofOfTransfer;\n        rentalStatus = RentalStatus.RENTED;\n\n        emit itemRented(\n            itemContract,\n            renterAddress,\n            ownerAddress,\n            ownerDeposit,\n            rentalStatus\n        );\n    }\n\n    function uploadRenterProofOfReturn(string[] memory _renterProofOfReturn)\n        public\n        onlyRenter\n    {\n        require(\n            remainingRentalFees == 0,\n            \"All fees have to be paid before returning\"\n        );\n\n        renterProofOfReturn = _renterProofOfReturn;\n        rentalStatus = RentalStatus.RETURNED;\n\n        emit itemReturned(\n            itemContract,\n            renterAddress,\n            ownerAddress,\n            rentalStatus\n        );\n    }\n\n    function payRentalInstallment(uint256 _amount)\n        public\n        payable\n        onlyRenter\n        correctFinalInstallmentValue(_amount)\n    {\n        require(\n            msg.value == Utils.gweiToWei(_amount),\n            \"Value transfered not equal to required amount\"\n        );\n        paidRentalFees += _amount;\n        remainingRentalFees -= _amount;\n        remainingNumInstallment--;\n        assert(rentalFees == paidRentalFees + remainingRentalFees);\n\n        claimableRentalFees += _amount;\n    }\n\n    function claimRentalFees() public onlyOwner {\n        require(claimableRentalFees > 0, \"There is no claimable rental fees\");\n        require(\n            rentalStatus != RentalStatus.OWNERDISPUTE,\n            \"Unable to claim payment with current rental status, rental status is ON OWNER DISPUTE\"\n        );\n        require(\n            rentalStatus != RentalStatus.RENTERDISPUTE,\n            \"Unable to claim payment with current rental status, rental status is ON RENTER DISPUTE\"\n        );\n        require(\n            rentalStatus != RentalStatus.END,\n            \"Unable to claim payment with current rental status, rental status is END\"\n        );\n\n        ownerAddress.transfer(Utils.gweiToWei(claimableRentalFees));\n        claimedRentalFees += claimableRentalFees;\n        claimableRentalFees = 0;\n    }\n\n    // claim owner's deposit and return renter's deposit\n    function settleDeposit() public onlyOwner {\n        require(\n            rentalStatus == RentalStatus.RETURNED ||\n                rentalStatus == RentalStatus.OWNERDISPUTE ||\n                rentalStatus == RentalStatus.RENTERDISPUTE,\n            \"Unable to claim payment with current rental status\"\n        );\n        require(\n            ownerDeposit > 0 || renterDeposit > 0,\n            \"No remaining deposit to claim\"\n        );\n        require(\n            (rentalStatus == RentalStatus.RETURNED &&\n                remainingRentalFees == 0) ||\n                rentalStatus == RentalStatus.OWNERDISPUTE ||\n                rentalStatus == RentalStatus.RENTERDISPUTE,\n            \"Rental fees has not been fully settled by renter\"\n        );\n        require(\n            (paidRentalFees == rentalFees &&\n                rentalStatus == RentalStatus.RETURNED) ||\n                rentalStatus == RentalStatus.OWNERDISPUTE ||\n                rentalStatus == RentalStatus.RENTERDISPUTE\n        );\n        require(\n            (claimedRentalFees == rentalFees &&\n                rentalStatus == RentalStatus.RETURNED) ||\n                rentalStatus == RentalStatus.OWNERDISPUTE ||\n                rentalStatus == RentalStatus.RENTERDISPUTE,\n            \"Rental fees has not been fully claimed by owner\"\n        );\n\n        if (rentalStatus == RentalStatus.OWNERDISPUTE) {\n            // owner gets all deposit if renter is dishonest\n            ownerAddress.transfer(Utils.gweiToWei(ownerDeposit));\n            ownerAddress.transfer(Utils.gweiToWei(renterDeposit));\n        } else if (rentalStatus == RentalStatus.RENTERDISPUTE) {\n            // renter gets all deposit if owner is dishonest\n            renterAddress.transfer(Utils.gweiToWei(ownerDeposit));\n            renterAddress.transfer(Utils.gweiToWei(renterDeposit));\n        } else {\n            ownerAddress.transfer(Utils.gweiToWei(ownerDeposit));\n            renterAddress.transfer(Utils.gweiToWei(renterDeposit));\n        }\n\n        assert(address(this).balance == 0);\n        rentalStatus = RentalStatus.END;\n\n        emit rentalEnded(itemContract, address(this));\n    }\n\n    function payLateFees(uint256 _lateFees) public payable onlyRenter {\n        require(\n            block.timestamp > end,\n            \"Unable to pay late fees before rental end date\"\n        );\n        require(\n            Utils.getDaysBetween(end, block.timestamp) <= maxAllowableLateDays,\n            \"Unable to pay late fees later than maximum allowable late days\"\n        );\n        require(\n            msg.value == Utils.gweiToWei(_lateFees),\n            \"Value transfered is not euqal to required amount\"\n        );\n\n        emit lateFeesPaid(\n            itemContract,\n            address(this),\n            renterUserContract,\n            _lateFees\n        );\n    }\n\n    function setUserAsDishonest(address _userAddress) public {\n        require(\n            _userAddress == renterAddress || _userAddress == ownerAddress,\n            \"Invalid user to be set as dishonest\"\n        );\n        User user = User(_userAddress);\n        user.setAsDishonest();\n    }\n\n    function settleRentalAfterFiveLateDays() public payable onlyOwner {\n        require(\n            block.timestamp > end + (maxAllowableLateDays * 24 * 60 * 60),\n            \"Unable to settle rental before maximum allowable late days\"\n        );\n        require(\n            rentalStatus == RentalStatus.RENTED,\n            \"Unable to settle rental with current rental status\"\n        );\n\n        // change item status\n        Item item = Item(itemContract);\n        item.changeItemStatus(2); // DELETED\n\n        // transfer all balance in the contract to owner\n        ownerAddress.transfer(address(this).balance);\n\n        // set renter as dishonest user\n        setUserAsDishonest(renterAddress);\n\n        rentalStatus = RentalStatus.END;\n    }\n\n    // // status == returned: if owner thinks that prove of return is fake\n    // // or if owner thinks that item is damaged\n    // function createOwnerDispute(\n    //     string memory _title,\n    //     string memory _description,\n    //     string[] memory _mediaIPFSHashes,\n    //     uint256 _compensationAmount,\n    //     uint256 _totalIncentive,\n    //     DisputeType _disputeType\n    // ) public payable onlyOwner {\n    //     require(\n    //         msg.value == Utils.gweiToWei(_totalIncentive),\n    //         \"Value transfered not equal to required amount\"\n    //     );\n    //     require(\n    //         rentalStatus == RentalStatus.RETURNED,\n    //         \"Unable to create dispute with current rental status\"\n    //     );\n    //     require(\n    //         _compensationAmount < renterDeposit,\n    //         \"Compensation requested by owner must be lower than renter's deposit\"\n    //     );\n    //     require(\n    //         _disputeType == DisputeType.FakeRenterProof ||\n    //             _disputeType == DisputeType.ItemDamaged,\n    //         \"Invalid distpute type\"\n    //     );\n\n    //     rentalStatus = RentalStatus.OWNERDISPUTE;\n\n    //     Dispute storage newDispute = disputes[disputeCount];\n    //     newDispute.title = _title;\n    //     newDispute.description = _description;\n    //     newDispute.mediaIPFSHashes = _mediaIPFSHashes;\n    //     newDispute.compensationAmount = _compensationAmount;\n    //     newDispute.totalIncentive = _totalIncentive;\n    //     newDispute.startTime = block.timestamp;\n    //     newDispute.approvalCount = 0;\n    //     newDispute.rejectionCount = 0;\n    //     newDispute.creator = payable(msg.sender);\n    //     newDispute.disputeType == _disputeType;\n\n    //     disputeCount++;\n    // }\n\n    // // status == rented: if renter thinks that prove of transfer is fake\n    // function createRenterDispute(\n    //     string memory _title,\n    //     string memory _description,\n    //     string[] memory _mediaIPFSHashes,\n    //     uint256 _compensationAmount,\n    //     uint256 _totalIncentive,\n    //     DisputeType _disputeType\n    // ) public payable onlyRenter {\n    //     require(\n    //         msg.value == Utils.gweiToWei(_totalIncentive),\n    //         \"Value transfered not equal to required amount\"\n    //     );\n    //     require(\n    //         rentalStatus == RentalStatus.RENTED,\n    //         \"Unable to create dispute with current rental status\"\n    //     );\n    //     require(\n    //         _compensationAmount < ownerDeposit,\n    //         \"Compensation requested by renter must be lower than owner's deposit\"\n    //     );\n    //     require(\n    //         _disputeType == DisputeType.FakeOwnerProof,\n    //         \"Invalid dispute type\"\n    //     );\n\n    //     rentalStatus = RentalStatus.RENTERDISPUTE;\n\n    //     Dispute storage newDispute = disputes[disputeCount];\n    //     newDispute.title = _title;\n    //     newDispute.description = _description;\n    //     newDispute.mediaIPFSHashes = _mediaIPFSHashes;\n    //     newDispute.compensationAmount = _compensationAmount;\n    //     newDispute.totalIncentive = _totalIncentive;\n    //     newDispute.startTime = block.timestamp;\n    //     newDispute.approvalCount = 0;\n    //     newDispute.rejectionCount = 0;\n    //     newDispute.creator = payable(msg.sender);\n    //     newDispute.disputeType = _disputeType;\n\n    //     disputeCount++;\n    // }\n\n    // function approveDispute(uint8 _disputeIndex)\n    //     public\n    //     validVoter(disputes[_disputeIndex])\n    // {\n    //     Dispute storage dispute = disputes[_disputeIndex];\n\n    //     dispute.approversList[dispute.approvalCount] = payable(msg.sender);\n    //     dispute.isApprover[msg.sender] = true;\n    //     dispute.approvalCount++;\n    // }\n\n    // function rejectDispute(uint8 _disputeIndex)\n    //     public\n    //     validVoter(disputes[_disputeIndex])\n    // {\n    //     Dispute storage dispute = disputes[_disputeIndex];\n\n    //     dispute.rejectersList[dispute.rejectionCount] = payable(msg.sender);\n    //     dispute.isRejecter[msg.sender] = true;\n    //     dispute.rejectionCount++;\n    // }\n\n    // function resolveDispute(uint8 _disputeIndex)\n    //     public\n    //     payable\n    //     onlyDisputeCreator(disputes[_disputeIndex])\n    // {\n    //     require(\n    //         rentalStatus == RentalStatus.OWNERDISPUTE ||\n    //             rentalStatus == RentalStatus.RENTERDISPUTE,\n    //         \"Unable to resolve dispute with current rental status\"\n    //     );\n    //     Dispute storage dispute = disputes[_disputeIndex];\n    //     require(\n    //         block.timestamp >= dispute.startTime + disputePeriod * 24 * 60 * 60\n    //     );\n\n    //     uint256 remainingIncentive = dispute.totalIncentive;\n    //     uint256 paidIncentive = 0;\n\n    //     // if dispute is approved\n    //     if (\n    //         dispute.approvalCount >\n    //         ((dispute.approvalCount + dispute.rejectionCount) / 10) * 6\n    //     ) {\n    //         // pay incentive to voters who accepted the dispute\n    //         for (uint256 i; i < dispute.approvalCount; i++) {\n    //             uint256 payoutIncentive = calculatePayoutIncentive(\n    //                 remainingIncentive\n    //             );\n    //             dispute.approversList[i].transfer(\n    //                 Utils.gweiToWei(payoutIncentive)\n    //             );\n    //             paidIncentive = paidIncentive + payoutIncentive;\n    //             remainingIncentive = remainingIncentive - payoutIncentive;\n    //         }\n\n    //         // pay compensation to dispute creator with the other party's deposit\n    //         dispute.creator.transfer(\n    //             Utils.gweiToWei(dispute.compensationAmount)\n    //         );\n    //         if (dispute.creator == renterAddress) {\n    //             ownerDeposit = ownerDeposit - dispute.compensationAmount;\n    //         } else {\n    //             renterDeposit = renterDeposit - dispute.compensationAmount;\n    //         }\n\n    //         // set dishonest user\n    //         if (dispute.disputeType == DisputeType.FakeOwnerProof) {\n    //             setUserAsDishonest(ownerAddress);\n    //         } else if (dispute.disputeType == DisputeType.FakeRenterProof) {\n    //             setUserAsDishonest(renterAddress);\n    //         }\n\n    //         settleDeposit();\n    //     }\n    //     // if dispute is rejected\n    //     else {\n    //         // pay incentive to voters who rejected the dispute\n    //         for (uint256 i; i < dispute.rejectionCount; i++) {\n    //             uint256 payoutIncentive = calculatePayoutIncentive(\n    //                 remainingIncentive\n    //             );\n    //             dispute.rejectersList[i].transfer(\n    //                 Utils.gweiToWei(payoutIncentive)\n    //             );\n    //             paidIncentive = paidIncentive + payoutIncentive;\n    //             remainingIncentive = remainingIncentive - payoutIncentive;\n    //         }\n    //     }\n\n    //     // return remaining incentive to dispute creator\n    //     assert(remainingIncentive == dispute.totalIncentive - paidIncentive);\n    //     dispute.creator.transfer(Utils.gweiToWei(remainingIncentive));\n\n    //     if (dispute.disputeType == DisputeType.FakeOwnerProof) {\n    //         rentalStatus = RentalStatus.RENTED;\n    //     } else if (dispute.disputeType == DisputeType.FakeRenterProof) {\n    //         rentalStatus = RentalStatus.RETURNED;\n    //     } else if (dispute.disputeType == DisputeType.ItemDamaged) {\n    //         settleDeposit();\n    //     }\n    // }\n\n    // // ----------------------------------helpers-------------------------------------//\n    // // first person who votes correctly will get 5% of the remaining incentive\n    // function calculatePayoutIncentive(uint256 _incentive)\n    //     internal\n    //     pure\n    //     returns (uint256)\n    // {\n    //     return (_incentive / 100) * 5;\n    // }\n}\n",
  "sourcePath": "/Users/jyuteo/CodeProjects/TRent/smart-contracts/src/contracts/Rental2.sol",
  "compiler": {
    "name": "solc",
    "version": "0.8.9+commit.e5eed63a.Emscripten.clang"
  },
  "schemaVersion": "3.4.3",
  "updatedAt": "2021-10-11T12:06:50.996Z",
  "devdoc": {
    "kind": "dev",
    "methods": {},
    "version": 1
  },
  "userdoc": {
    "kind": "user",
    "methods": {},
    "version": 1
  }
}