{
  "contractName": "RentalContractCreator",
  "abi": [
    {
      "anonymous": false,
      "inputs": [
        {
          "indexed": false,
          "internalType": "address",
          "name": "rentalContract",
          "type": "address"
        },
        {
          "indexed": false,
          "internalType": "address",
          "name": "itemContract",
          "type": "address"
        },
        {
          "indexed": false,
          "internalType": "address",
          "name": "renterAddress",
          "type": "address"
        }
      ],
      "name": "rentalContractCreated",
      "type": "event"
    },
    {
      "inputs": [],
      "name": "rentalContractCount",
      "outputs": [
        {
          "internalType": "uint8",
          "name": "",
          "type": "uint8"
        }
      ],
      "stateMutability": "view",
      "type": "function",
      "constant": true
    },
    {
      "inputs": [
        {
          "internalType": "uint256",
          "name": "",
          "type": "uint256"
        }
      ],
      "name": "rentalContracts",
      "outputs": [
        {
          "internalType": "address",
          "name": "",
          "type": "address"
        }
      ],
      "stateMutability": "view",
      "type": "function",
      "constant": true
    },
    {
      "inputs": [
        {
          "internalType": "address",
          "name": "_itemContract",
          "type": "address"
        },
        {
          "components": [
            {
              "internalType": "address",
              "name": "ownerUserContract",
              "type": "address"
            },
            {
              "internalType": "address payable",
              "name": "ownerAddress",
              "type": "address"
            },
            {
              "internalType": "string",
              "name": "name",
              "type": "string"
            },
            {
              "internalType": "string",
              "name": "collectionOrReturnAddress",
              "type": "string"
            },
            {
              "internalType": "string",
              "name": "description",
              "type": "string"
            },
            {
              "internalType": "uint256",
              "name": "rentPerDay",
              "type": "uint256"
            },
            {
              "internalType": "uint8",
              "name": "maxAllowableLateDays",
              "type": "uint8"
            },
            {
              "internalType": "uint8",
              "name": "multipleForLateFees",
              "type": "uint8"
            },
            {
              "internalType": "bool",
              "name": "isAvailableForRent",
              "type": "bool"
            },
            {
              "internalType": "string[]",
              "name": "mediaIPFSHashes",
              "type": "string[]"
            }
          ],
          "internalType": "struct Structs.ItemDetails",
          "name": "_itemDetails",
          "type": "tuple"
        },
        {
          "internalType": "address payable",
          "name": "_renterAddress",
          "type": "address"
        },
        {
          "internalType": "uint256",
          "name": "_rentalFees",
          "type": "uint256"
        },
        {
          "internalType": "uint256",
          "name": "_renterDeposit",
          "type": "uint256"
        },
        {
          "internalType": "uint256",
          "name": "_start",
          "type": "uint256"
        },
        {
          "internalType": "uint256",
          "name": "_end",
          "type": "uint256"
        }
      ],
      "name": "createRentalContract",
      "outputs": [],
      "stateMutability": "payable",
      "type": "function",
      "payable": true
    }
  ],
  "bytecode": "0x608060405234801561001057600080fd5b50611ba7806100206000396000f3fe608060405260043610620000385760003560e01c806353da0206146200003d57806363737c51146200007f5780636fe052d714620000ae575b600080fd5b3480156200004a57600080fd5b50620000626200005c366004620003e9565b620000c7565b6040516001600160a01b0390911681526020015b60405180910390f35b3480156200008c57600080fd5b506001546200009b9060ff1681565b60405160ff909116815260200162000076565b620000c5620000bf366004620005ea565b620000f2565b005b60008181548110620000d857600080fd5b6000918252602090912001546001600160a01b0316905081565b336001600160a01b03861614620001615760405162461bcd60e51b815260206004820152602860248201527f52656e746572206164647265737320646f6573206e6f74206d61746368206d73604482015267339739b2b73232b960c11b60648201526084015b60405180910390fd5b604051638dfd0b0360e01b81526004810184905273__Utils_________________________________90638dfd0b039060240160206040518083038186803b158015620001ad57600080fd5b505af4158015620001c2573d6000803e3d6000fd5b505050506040513d601f19601f82011682018060405250810190620001e891906200078f565b34146200024e5760405162461bcd60e51b815260206004820152602d60248201527f56616c7565207472616e736665726564206973206e6f7420657175616c20726560448201526c1c5d5a5c995908185b5bdd5b9d609a1b606482015260840162000158565b600034888888888888886040516200026690620003db565b62000278979695949392919062000852565b6040518091039082f090508015801562000296573d6000803e3d6000fd5b5060008054600180820183558280527f290decd9548b62a8d60345a988386fc84ba6bc95484008f6362f93160ef3e56390910180546001600160a01b0319166001600160a01b038516179055805492935060ff9092169190620002f98362000998565b825460ff9182166101009390930a9283029190920219909116179055506040516352ab52bb60e01b81526001600160a01b03828116600483015260248201859052604482018490528991908216906352ab52bb90606401600060405180830381600087803b1580156200036b57600080fd5b505af115801562000380573d6000803e3d6000fd5b5050604080516001600160a01b0386811682528d811660208301528b168183015290517f8cfb345d1540d2cae0c2c3b02e8dd02f1e236234c5fbe4302c99e8a49a5aa3c49350908190036060019150a1505050505050505050565b6111aa80620009c883390190565b600060208284031215620003fc57600080fd5b5035919050565b6001600160a01b03811681146200041957600080fd5b50565b8035620004298162000403565b919050565b634e487b7160e01b600052604160045260246000fd5b604051610140810167ffffffffffffffff811182821017156200046b576200046b6200042e565b60405290565b604051601f8201601f1916810167ffffffffffffffff811182821017156200049d576200049d6200042e565b604052919050565b600082601f830112620004b757600080fd5b813567ffffffffffffffff811115620004d457620004d46200042e565b620004e9601f8201601f191660200162000471565b818152846020838601011115620004ff57600080fd5b816020850160208301376000918101602001919091529392505050565b803560ff811681146200042957600080fd5b803580151581146200042957600080fd5b600082601f8301126200055157600080fd5b8135602067ffffffffffffffff808311156200057157620005716200042e565b8260051b6200058283820162000471565b93845285810183019383810190888611156200059d57600080fd5b84880192505b85831015620005de57823584811115620005bd5760008081fd5b620005cd8a87838c0101620004a5565b8352509184019190840190620005a3565b98975050505050505050565b600080600080600080600060e0888a0312156200060657600080fd5b8735620006138162000403565b9650602088013567ffffffffffffffff808211156200063157600080fd5b90890190610140828c0312156200064757600080fd5b6200065162000444565b6200065c836200041c565b81526200066c602084016200041c565b60208201526040830135828111156200068457600080fd5b620006928d828601620004a5565b604083015250606083013582811115620006ab57600080fd5b620006b98d828601620004a5565b606083015250608083013582811115620006d257600080fd5b620006e08d828601620004a5565b60808301525060a083013560a0820152620006fe60c084016200051c565b60c08201526200071160e084016200051c565b60e0820152610100620007268185016200052e565b9082015261012083810135838111156200073f57600080fd5b6200074d8e8287016200053f565b82840152505080985050505062000767604089016200041c565b969995985095966060810135965060808101359560a0820135955060c0909101359350915050565b600060208284031215620007a257600080fd5b5051919050565b6000815180845260005b81811015620007d157602081850181015186830182015201620007b3565b81811115620007e4576000602083870101525b50601f01601f19169290920160200192915050565b600081518084526020808501808196508360051b8101915082860160005b858110156200084557828403895262000832848351620007a9565b9885019893509084019060010162000817565b5091979650505050505050565b6001600160a01b038816815260e06020820181905287516200087e918301906001600160a01b03169052565b600060208801516101006200089d818501836001600160a01b03169052565b60408a015191506101406101208181870152620008bf610220870185620007a9565b935060608c015160df19808887030184890152620008de8683620007a9565b955060808e015193508088870301610160890152620008fe8685620007a9565b955060a08e015161018089015260c08e01519350620009236101a089018560ff169052565b60e08e015160ff166101c0890152938d015115156101e0880152508b0151858403909201610200860152506200095a8282620007f9565b925050506200097460408301886001600160a01b03169052565b8560608301528460808301528360a08301528260c083015298975050505050505050565b600060ff821660ff811415620009be57634e487b7160e01b600052601160045260246000fd5b6001019291505056fe6080604052604051620011aa380380620011aa833981016040819052620000269162000388565b604051638dfd0b0360e01b81526004810184905273__Utils_________________________________90638dfd0b039060240160206040518083038186803b1580156200007257600080fd5b505af415801562000087573d6000803e3d6000fd5b505050506040513d601f19601f82011682018060405250810190620000ad91906200052f565b3414620001165760405162461bcd60e51b815260206004820152602d60248201527f56616c7565207472616e736665726564206e6f7420657175616c20746f20726560448201526c1c5d5a5c995908185b5bdd5b9d609a1b606482015260840160405180910390fd5b600080546001600160a01b039889166001600160a01b03199182161790915560a08701516001556020909601516009805491891691909716179095556002805494909616610100026001600160a81b03199094169390931790945560039390935560045560055560075562000549565b6001600160a01b03811681146200019c57600080fd5b50565b8051620001ac8162000186565b919050565b634e487b7160e01b600052604160045260246000fd5b60405161014081016001600160401b0381118282101715620001ed57620001ed620001b1565b60405290565b604051601f8201601f191681016001600160401b03811182821017156200021e576200021e620001b1565b604052919050565b600082601f8301126200023857600080fd5b81516001600160401b03811115620002545762000254620001b1565b60206200026a601f8301601f19168201620001f3565b82815285828487010111156200027f57600080fd5b60005b838110156200029f57858101830151828201840152820162000282565b83811115620002b15760008385840101525b5095945050505050565b805160ff81168114620001ac57600080fd5b80518015158114620001ac57600080fd5b600082601f830112620002f057600080fd5b815160206001600160401b03808311156200030f576200030f620001b1565b8260051b62000320838201620001f3565b93845285810183019383810190888611156200033b57600080fd5b84880192505b858310156200037c578251848111156200035b5760008081fd5b6200036b8a87838c010162000226565b835250918401919084019062000341565b98975050505050505050565b600080600080600080600060e0888a031215620003a457600080fd5b8751620003b18162000186565b60208901519097506001600160401b0380821115620003cf57600080fd5b90890190610140828c031215620003e557600080fd5b620003ef620001c7565b620003fa836200019f565b81526200040a602084016200019f565b60208201526040830151828111156200042257600080fd5b620004308d82860162000226565b6040830152506060830151828111156200044957600080fd5b620004578d82860162000226565b6060830152506080830151828111156200047057600080fd5b6200047e8d82860162000226565b60808301525060a083015160a08201526200049c60c08401620002bb565b60c0820152620004af60e08401620002bb565b60e0820152610100620004c4818501620002cd565b908201526101208381015183811115620004dd57600080fd5b620004eb8e828701620002de565b82840152505080985050505062000505604089016200019f565b9450606088015193506080880151925060a0880151915060c0880151905092959891949750929550565b6000602082840312156200054257600080fd5b5051919050565b610c5180620005596000396000f3fe6080604052600436106100705760003560e01c806385411c8e1161004e57806385411c8e146100bf578063c3efc734146100d2578063cbfbb5a3146100f2578063e1439c6b146100fa57600080fd5b8063022576f014610075578063559ec80d1461008a5780636f9fb98a1461009f575b600080fd5b610088610083366004610971565b610130565b005b34801561009657600080fd5b5061008861031e565b3480156100ab57600080fd5b506040514781526020015b60405180910390f35b6100886100cd3660046109d1565b610599565b3480156100de57600080fd5b5060025460ff166040516100b69190610b05565b61008861074d565b34801561010657600080fd5b5060025461010090046001600160a01b03166040516001600160a01b0390911681526020016100b6565b60025461010090046001600160a01b031633146101945760405162461bcd60e51b815260206004820152601e60248201527f4d6574686f64206973207265737472696374656420746f2052656e746572000060448201526064015b60405180910390fd5b604051638dfd0b0360e01b81526004810182905273__Utils_________________________________90638dfd0b039060240160206040518083038186803b1580156101df57600080fd5b505af41580156101f3573d6000803e3d6000fd5b505050506040513d601f19601f820116820180604052508101906102179190610b2d565b34146102355760405162461bcd60e51b815260040161018b90610b46565b600754604051638dfd0b0360e01b8152600481019190915273__Utils_________________________________90638dfd0b039060240160206040518083038186803b15801561028457600080fd5b505af4158015610298573d6000803e3d6000fd5b505050506040513d601f19601f820116820180604052508101906102bc9190610b2d565b3410156103195760405162461bcd60e51b815260206004820152602560248201527f52656e74616c2070616964206c657373207468616e20726571756972656420616044820152641b5bdd5b9d60da1b606482015260840161018b565b600855565b6009546001600160a01b031633146103485760405162461bcd60e51b815260040161018b90610b93565b6002805460ff16600581111561036057610360610aef565b1480156103705750600754600854145b6103d75760405162461bcd60e51b815260206004820152603260248201527f556e61626c6520746f20636c61696d207061796d656e7420776974682063757260448201527172656e742072656e74616c2073746174757360701b606482015260840161018b565b6000600a5411806103ea57506000600354115b6104365760405162461bcd60e51b815260206004820152601d60248201527f4e6f2072656d61696e696e67206465706f73697420746f20636c61696d000000604482015260640161018b565b600254600354604051638dfd0b0360e01b815260048101919091526101009091046001600160a01b0316906108fc9073__Utils_________________________________90638dfd0b039060240160206040518083038186803b15801561049c57600080fd5b505af41580156104b0573d6000803e3d6000fd5b505050506040513d601f19601f820116820180604052508101906104d49190610b2d565b6040518115909202916000818181858888f193505050501580156104fc573d6000803e3d6000fd5b506009546040516001600160a01b03909116904780156108fc02916000818181858888f19350505050158015610536573d6000803e3d6000fd5b50471561054557610545610bca565b6002805460ff19166003179055600054604080516001600160a01b0390921682523060208301527f6a5d55ef84f2d6da57cc86de121fc1c7a8392770ff8f357998e87beb5c310491910160405180910390a1565b6009546001600160a01b031633146105c35760405162461bcd60e51b815260040161018b90610b93565b604051638dfd0b0360e01b81526004810182905273__Utils_________________________________90638dfd0b039060240160206040518083038186803b15801561060e57600080fd5b505af4158015610622573d6000803e3d6000fd5b505050506040513d601f19601f820116820180604052508101906106469190610b2d565b34146106645760405162461bcd60e51b815260040161018b90610b46565b600060025460ff16600581111561067d5761067d610aef565b146106ca5760405162461bcd60e51b815260206004820181905260248201527f496e76616c69642072656e74616c2073746174757320666f72206d6574686f64604482015260640161018b565b600a81905581516106e290600b906020850190610825565b506002805460ff191660011790819055600054600954604080516001600160a01b039384168152610100909404831660208501529116908201527fbee4505063610f2c2522d8c40dc9c857aeceb46a2fcecc7051c9d28a42312e239060600160405180910390a15050565b6009546001600160a01b031633146107775760405162461bcd60e51b815260040161018b90610b93565b6000546040516001620b258d60e21b03198152600260048201526001600160a01b0390911690819063ffd369cc90602401600060405180830381600087803b1580156107c257600080fd5b505af11580156107d6573d6000803e3d6000fd5b50506009546040516001600160a01b0390911692504780156108fc029250906000818181858888f19350505050158015610814573d6000803e3d6000fd5b50506002805460ff19166003179055565b828054828255906000526020600020908101928215610872579160200282015b828111156108725782518051610862918491602090910190610882565b5091602001919060010190610845565b5061087e929150610902565b5090565b82805461088e90610be0565b90600052602060002090601f0160209004810192826108b057600085556108f6565b82601f106108c957805160ff19168380011785556108f6565b828001600101855582156108f6579182015b828111156108f65782518255916020019190600101906108db565b5061087e92915061091f565b8082111561087e5760006109168282610934565b50600101610902565b5b8082111561087e5760008155600101610920565b50805461094090610be0565b6000825580601f10610950575050565b601f01602090049060005260206000209081019061096e919061091f565b50565b60006020828403121561098357600080fd5b5035919050565b634e487b7160e01b600052604160045260246000fd5b604051601f8201601f1916810167ffffffffffffffff811182821017156109c9576109c961098a565b604052919050565b60008060408084860312156109e557600080fd5b833567ffffffffffffffff808211156109fd57600080fd5b8186019150601f8781840112610a1257600080fd5b8235602083821115610a2657610a2661098a565b8160051b610a358282016109a0565b928352858101820192828101908c851115610a4f57600080fd5b83880192505b84831015610adc57823587811115610a6d5760008081fd5b8801603f81018e13610a7f5760008081fd5b8481013588811115610a9357610a9361098a565b610aa4818901601f191687016109a0565b8181528f8c838501011115610ab95760008081fd5b818c84018883013760009181018701919091528352509183019190830190610a55565b9c9a909201359a50505050505050505050565b634e487b7160e01b600052602160045260246000fd5b6020810160068310610b2757634e487b7160e01b600052602160045260246000fd5b91905290565b600060208284031215610b3f57600080fd5b5051919050565b6020808252602d908201527f56616c7565207472616e736665726564206e6f7420657175616c20746f20726560408201526c1c5d5a5c995908185b5bdd5b9d609a1b606082015260800190565b6020808252601d908201527f4d6574686f64206973207265737472696374656420746f204f776e6572000000604082015260600190565b634e487b7160e01b600052600160045260246000fd5b600181811c90821680610bf457607f821691505b60208210811415610c1557634e487b7160e01b600052602260045260246000fd5b5091905056fea264697066735822122028f3f40ea4496692661b30b5f334698d035170a055d5e7df076b9890b0c2abe764736f6c63430008090033a2646970667358221220bf1821ccdfd5f573e31b295643e9a3f6abbcd653b339b4e148603df629526d5c64736f6c63430008090033",
  "immutableReferences": {},
  "source": "// SPDX-License-Identifier: GPL-3.0\n\npragma solidity >=0.7.0 <0.9.0;\n\nimport \"../Rental.sol\";\nimport \"../Item.sol\";\nimport \"../helpers/Structs.sol\";\nimport \"../helpers/Utils.sol\";\n\ncontract RentalContractCreator {\n    using Utils for *;\n\n    address[] public rentalContracts;\n    uint8 public rentalContractCount;\n\n    mapping(address => address[]) rentalContractsForItem;\n\n    event rentalContractCreated(\n        address rentalContract,\n        address itemContract,\n        address renterAddress\n    );\n\n    function createRentalContract(\n        address _itemContract,\n        Structs.ItemDetails memory _itemDetails,\n        address payable _renterAddress,\n        uint256 _rentalFees,\n        uint256 _renterDeposit,\n        uint256 _start,\n        uint256 _end\n    ) public payable {\n        require(\n            msg.sender == _renterAddress,\n            \"Renter address does not match msg.sender\"\n        );\n        require(\n            msg.value == Utils.gweiToWei(_renterDeposit),\n            \"Value transfered is not equal required amount\"\n        );\n\n        Rental newRentalContract = (new Rental){value: msg.value}(\n            _itemContract,\n            _itemDetails,\n            _renterAddress,\n            _rentalFees,\n            _renterDeposit,\n            _start,\n            _end\n        );\n\n        rentalContracts.push(address(newRentalContract));\n        rentalContractCount++;\n\n        Item item = Item(_itemContract);\n        item.handleNewRental(address(newRentalContract), _start, _end);\n\n        emit rentalContractCreated(\n            address(newRentalContract),\n            _itemContract,\n            _renterAddress\n        );\n    }\n}\n",
  "sourcePath": "/Users/jyuteo/CodeProjects/TRent/smart-contracts/src/contracts/factory/RentalContractCreator.sol",
  "compiler": {
    "name": "solc",
    "version": "0.8.9+commit.e5eed63a.Emscripten.clang"
  },
  "schemaVersion": "3.4.3",
  "updatedAt": "2021-10-06T12:18:43.103Z",
  "networkType": "ethereum",
  "devdoc": {
    "kind": "dev",
    "methods": {},
    "version": 1
  },
  "userdoc": {
    "kind": "user",
    "methods": {},
    "version": 1
  }
}