{
  "contractName": "RentalContractCreator",
  "abi": [
    {
      "anonymous": false,
      "inputs": [
        {
          "indexed": false,
          "internalType": "address",
          "name": "rentalContract",
          "type": "address"
        },
        {
          "indexed": false,
          "internalType": "address",
          "name": "itemContract",
          "type": "address"
        },
        {
          "indexed": false,
          "internalType": "address",
          "name": "renterAddress",
          "type": "address"
        }
      ],
      "name": "rentalContractCreated",
      "type": "event"
    },
    {
      "inputs": [],
      "name": "rentalContractCount",
      "outputs": [
        {
          "internalType": "uint8",
          "name": "",
          "type": "uint8"
        }
      ],
      "stateMutability": "view",
      "type": "function",
      "constant": true
    },
    {
      "inputs": [
        {
          "internalType": "uint256",
          "name": "",
          "type": "uint256"
        }
      ],
      "name": "rentalContracts",
      "outputs": [
        {
          "internalType": "address",
          "name": "",
          "type": "address"
        }
      ],
      "stateMutability": "view",
      "type": "function",
      "constant": true
    },
    {
      "inputs": [
        {
          "internalType": "address",
          "name": "_itemContract",
          "type": "address"
        },
        {
          "components": [
            {
              "internalType": "address",
              "name": "ownerUserContract",
              "type": "address"
            },
            {
              "internalType": "address payable",
              "name": "ownerAddress",
              "type": "address"
            },
            {
              "internalType": "string",
              "name": "name",
              "type": "string"
            },
            {
              "internalType": "string",
              "name": "collectionOrReturnAddress",
              "type": "string"
            },
            {
              "internalType": "string",
              "name": "description",
              "type": "string"
            },
            {
              "internalType": "uint256",
              "name": "rentPerDay",
              "type": "uint256"
            },
            {
              "internalType": "uint8",
              "name": "maxAllowableLateDays",
              "type": "uint8"
            },
            {
              "internalType": "uint8",
              "name": "multipleForLateFees",
              "type": "uint8"
            },
            {
              "internalType": "bool",
              "name": "isAvailableForRent",
              "type": "bool"
            },
            {
              "internalType": "string[]",
              "name": "mediaIPFSHashes",
              "type": "string[]"
            }
          ],
          "internalType": "struct Structs.ItemDetails",
          "name": "_itemDetails",
          "type": "tuple"
        },
        {
          "internalType": "address",
          "name": "_renterUserContract",
          "type": "address"
        },
        {
          "internalType": "address payable",
          "name": "_renterAddress",
          "type": "address"
        },
        {
          "internalType": "uint256",
          "name": "_rentalFees",
          "type": "uint256"
        },
        {
          "internalType": "uint256",
          "name": "_renterDeposit",
          "type": "uint256"
        },
        {
          "internalType": "uint256",
          "name": "_start",
          "type": "uint256"
        },
        {
          "internalType": "uint256",
          "name": "_end",
          "type": "uint256"
        }
      ],
      "name": "createRentalContract",
      "outputs": [],
      "stateMutability": "payable",
      "type": "function",
      "payable": true
    }
  ],
  "bytecode": "0x608060405234801561001057600080fd5b50612289806100206000396000f3fe608060405260043610620000385760003560e01c806353da0206146200003d57806363737c51146200007f578063b6cf16ca14620000ae575b600080fd5b3480156200004a57600080fd5b50620000626200005c366004620003f4565b620000c7565b6040516001600160a01b0390911681526020015b60405180910390f35b3480156200008c57600080fd5b506001546200009b9060ff1681565b60405160ff909116815260200162000076565b620000c5620000bf366004620005f5565b620000f2565b005b60008181548110620000d857600080fd5b6000918252602090912001546001600160a01b0316905081565b336001600160a01b03861614620001615760405162461bcd60e51b815260206004820152602860248201527f52656e746572206164647265737320646f6573206e6f74206d61746368206d73604482015267339739b2b73232b960c11b60648201526084015b60405180910390fd5b604051638dfd0b0360e01b81526004810184905273__Utils_________________________________90638dfd0b039060240160206040518083038186803b158015620001ad57600080fd5b505af4158015620001c2573d6000803e3d6000fd5b505050506040513d601f19601f82011682018060405250810190620001e89190620007ac565b34146200024e5760405162461bcd60e51b815260206004820152602d60248201527f56616c7565207472616e736665726564206973206e6f7420657175616c20726560448201526c1c5d5a5c995908185b5bdd5b9d609a1b606482015260840162000158565b60003489898989898989896040516200026790620003e6565b6200027a9897969594939291906200086f565b6040518091039082f090508015801562000298573d6000803e3d6000fd5b5060008054600180820183558280527f290decd9548b62a8d60345a988386fc84ba6bc95484008f6362f93160ef3e56390910180546001600160a01b0319166001600160a01b038516179055805492935060ff9092169190620002fb83620009b6565b825460ff9182166101009390930a928302919092021990911617905550604051633a350bd560e11b81526001600160a01b038281166004830152602482018590526044820184905287811660648301528a919082169063746a17aa90608401600060405180830381600087803b1580156200037557600080fd5b505af11580156200038a573d6000803e3d6000fd5b5050604080516001600160a01b0386811682528e811660208301528b168183015290517f8cfb345d1540d2cae0c2c3b02e8dd02f1e236234c5fbe4302c99e8a49a5aa3c49350908190036060019150a150505050505050505050565b61186e80620009e683390190565b6000602082840312156200040757600080fd5b5035919050565b6001600160a01b03811681146200042457600080fd5b50565b803562000434816200040e565b919050565b634e487b7160e01b600052604160045260246000fd5b604051610140810167ffffffffffffffff8111828210171562000476576200047662000439565b60405290565b604051601f8201601f1916810167ffffffffffffffff81118282101715620004a857620004a862000439565b604052919050565b600082601f830112620004c257600080fd5b813567ffffffffffffffff811115620004df57620004df62000439565b620004f4601f8201601f19166020016200047c565b8181528460208386010111156200050a57600080fd5b816020850160208301376000918101602001919091529392505050565b803560ff811681146200043457600080fd5b803580151581146200043457600080fd5b600082601f8301126200055c57600080fd5b8135602067ffffffffffffffff808311156200057c576200057c62000439565b8260051b6200058d8382016200047c565b9384528581018301938381019088861115620005a857600080fd5b84880192505b85831015620005e957823584811115620005c85760008081fd5b620005d88a87838c0101620004b0565b8352509184019190840190620005ae565b98975050505050505050565b600080600080600080600080610100808a8c0312156200061457600080fd5b893562000621816200040e565b985060208a013567ffffffffffffffff808211156200063f57600080fd5b908b0190610140828e0312156200065557600080fd5b6200065f6200044f565b6200066a8362000427565b81526200067a6020840162000427565b60208201526040830135828111156200069257600080fd5b620006a08f828601620004b0565b604083015250606083013582811115620006b957600080fd5b620006c78f828601620004b0565b606083015250608083013582811115620006e057600080fd5b620006ee8f828601620004b0565b60808301525060a083013560a08201526200070c60c0840162000527565b60c08201526200071f60e0840162000527565b60e08201526200073184840162000539565b84820152610120935083830135828111156200074c57600080fd5b6200075a8f8286016200054a565b8583015250809a50505050506200077460408a0162000427565b95506200078460608a0162000427565b979a969950949760808101359660a0820135965060c0820135955060e0909101359350915050565b600060208284031215620007bf57600080fd5b5051919050565b6000815180845260005b81811015620007ee57602081850181015186830182015201620007d0565b8181111562000801576000602083870101525b50601f01601f19169290920160200192915050565b600081518084526020808501808196508360051b8101915082860160005b85811015620008625782840389526200084f848351620007c6565b9885019893509084019060010162000834565b5091979650505050505050565b6001600160a01b0389811682526101006020830181905289519091168282015260009060208a0151610120620008af818601836001600160a01b03169052565b60408c0151610140868101529150620008cd610240860183620007c6565b915060608c015160ff198087850301610160880152620008ee8483620007c6565b935060808e0151915080878503016101808801526200090e8483620007c6565b935060a08e01516101a088015260c08e01519150620009336101c088018360ff169052565b60e08e015160ff166101e0880152938d01511515610200870152508b015184820390920161022085015262000969818362000816565b925050506200098360408301896001600160a01b03169052565b6001600160a01b03969096166060820152608081019490945260a084019290925260c083015260e0909101529392505050565b600060ff821660ff811415620009dc57634e487b7160e01b600052601160045260246000fd5b6001019291505056fe60806040526040516200186e3803806200186e83398101604081905262000026916200039a565b604051638dfd0b0360e01b81526004810184905273__Utils_________________________________90638dfd0b039060240160206040518083038186803b1580156200007257600080fd5b505af415801562000087573d6000803e3d6000fd5b505050506040513d601f19601f82011682018060405250810190620000ad919062000554565b3414620001165760405162461bcd60e51b815260206004820152602d60248201527f56616c7565207472616e736665726564206e6f7420657175616c20746f20726560448201526c1c5d5a5c995908185b5bdd5b9d609a1b606482015260840160405180910390fd5b600080546001600160a01b03199081166001600160a01b039a8b161790915560a0880151600155602090970151600a80548916918a1691909117905560028054968916610100026001600160a81b031990971696909617909555600380549490971693909516929092179094556004556005919091556006556008556200056e565b6001600160a01b0381168114620001ae57600080fd5b50565b8051620001be8162000198565b919050565b634e487b7160e01b600052604160045260246000fd5b60405161014081016001600160401b0381118282101715620001ff57620001ff620001c3565b60405290565b604051601f8201601f191681016001600160401b0381118282101715620002305762000230620001c3565b604052919050565b600082601f8301126200024a57600080fd5b81516001600160401b03811115620002665762000266620001c3565b60206200027c601f8301601f1916820162000205565b82815285828487010111156200029157600080fd5b60005b83811015620002b157858101830151828201840152820162000294565b83811115620002c35760008385840101525b5095945050505050565b805160ff81168114620001be57600080fd5b80518015158114620001be57600080fd5b600082601f8301126200030257600080fd5b815160206001600160401b0380831115620003215762000321620001c3565b8260051b6200033283820162000205565b93845285810183019383810190888611156200034d57600080fd5b84880192505b858310156200038e578251848111156200036d5760008081fd5b6200037d8a87838c010162000238565b835250918401919084019062000353565b98975050505050505050565b600080600080600080600080610100808a8c031215620003b957600080fd5b8951620003c68162000198565b60208b01519099506001600160401b0380821115620003e457600080fd5b908b0190610140828e031215620003fa57600080fd5b62000404620001d9565b6200040f83620001b1565b81526200041f60208401620001b1565b60208201526040830151828111156200043757600080fd5b620004458f82860162000238565b6040830152506060830151828111156200045e57600080fd5b6200046c8f82860162000238565b6060830152506080830151828111156200048557600080fd5b620004938f82860162000238565b60808301525060a083015160a0820152620004b160c08401620002cd565b60c0820152620004c460e08401620002cd565b60e0820152620004d6848401620002df565b8482015261012093508383015182811115620004f157600080fd5b620004ff8f828601620002f0565b8583015250809a50505050506200051960408a01620001b1565b95506200052960608a01620001b1565b94506080890151935060a0890151925060c0890151915060e089015190509295985092959890939650565b6000602082840312156200056757600080fd5b5051919050565b6112f0806200057e6000396000f3fe6080604052600436106101355760003560e01c80638d76f940116100ab578063be9a65551161006f578063be9a65551461032a578063c3efc73414610340578063cbfbb5a314610358578063e110930514610360578063e1439c6b14610376578063efbe1c1c1461039457600080fd5b80638d76f940146102945780638f84aa09146102b457806395afe398146102d45780639c29a3ed146102ea5780639e6aadc31461030a57600080fd5b8063559ec80d116100fd578063559ec80d146101f05780636922fb89146102055780636f9fb98a1461024257806373ef94f9146102555780637b1aa45f1461026b57806385411c8e1461028157600080fd5b8063022576f01461013a57806307e353e91461014f57806331d019b7146101855780633d99b56a146101ac5780634f4687ea146101cc575b600080fd5b61014d610148366004610f3c565b6103aa565b005b34801561015b57600080fd5b5061016f61016a366004610f3c565b61060e565b60405161017c9190610f55565b60405180910390f35b34801561019157600080fd5b5060025461019f9060ff1681565b60405161017c9190610fc0565b3480156101b857600080fd5b5061016f6101c7366004610f3c565b6106ba565b3480156101d857600080fd5b506101e260085481565b60405190815260200161017c565b3480156101fc57600080fd5b5061014d6106ca565b34801561021157600080fd5b5060025461022a9061010090046001600160a01b031681565b6040516001600160a01b03909116815260200161017c565b34801561024e57600080fd5b50476101e2565b34801561026157600080fd5b506101e260095481565b34801561027757600080fd5b506101e2600b5481565b61014d61028f366004611124565b61093f565b3480156102a057600080fd5b5060005461022a906001600160a01b031681565b3480156102c057600080fd5b50600a5461022a906001600160a01b031681565b3480156102e057600080fd5b506101e260045481565b3480156102f657600080fd5b5061014d610305366004611169565b610aef565b34801561031657600080fd5b5060035461022a906001600160a01b031681565b34801561033657600080fd5b506101e260055481565b34801561034c57600080fd5b5060025460ff1661019f565b61014d610c29565b34801561036c57600080fd5b506101e260015481565b34801561038257600080fd5b506003546001600160a01b031661022a565b3480156103a057600080fd5b506101e260065481565b6003546001600160a01b031633146104095760405162461bcd60e51b815260206004820152601e60248201527f4d6574686f64206973207265737472696374656420746f2052656e746572000060448201526064015b60405180910390fd5b604051638dfd0b0360e01b81526004810182905273__Utils_________________________________90638dfd0b039060240160206040518083038186803b15801561045457600080fd5b505af4158015610468573d6000803e3d6000fd5b505050506040513d601f19601f8201168201806040525081019061048c91906111a6565b34146104aa5760405162461bcd60e51b8152600401610400906111bf565b600854604051638dfd0b0360e01b8152600481019190915273__Utils_________________________________90638dfd0b039060240160206040518083038186803b1580156104f957600080fd5b505af415801561050d573d6000803e3d6000fd5b505050506040513d601f19601f8201168201806040525081019061053191906111a6565b34101561058e5760405162461bcd60e51b815260206004820152602560248201527f52656e74616c2070616964206c657373207468616e20726571756972656420616044820152641b5bdd5b9d60da1b6064820152608401610400565b600160025460ff1660038111156105a7576105a7610faa565b146105f45760405162461bcd60e51b815260206004820181905260248201527f496e76616c69642072656e74616c2073746174757320666f72206d6574686f646044820152606401610400565b8060096000828254610606919061120c565b909155505050565b6007818154811061061e57600080fd5b90600052602060002001600091509050805461063990611232565b80601f016020809104026020016040519081016040528092919081815260200182805461066590611232565b80156106b25780601f10610687576101008083540402835291602001916106b2565b820191906000526020600020905b81548152906001019060200180831161069557829003601f168201915b505050505081565b600c818154811061061e57600080fd5b600a546001600160a01b031633146106f45760405162461bcd60e51b81526004016104009061126d565b6002805460ff16600381111561070c5761070c610faa565b14801561071d575060085460095410155b6107845760405162461bcd60e51b815260206004820152603260248201527f556e61626c6520746f20636c61696d207061796d656e7420776974682063757260448201527172656e742072656e74616c2073746174757360701b6064820152608401610400565b6000600b54118061079757506000600454115b6107e35760405162461bcd60e51b815260206004820152601d60248201527f4e6f2072656d61696e696e67206465706f73697420746f20636c61696d0000006044820152606401610400565b60035460048054604051638dfd0b0360e01b8152918201526001600160a01b03909116906108fc9073__Utils_________________________________90638dfd0b039060240160206040518083038186803b15801561084257600080fd5b505af4158015610856573d6000803e3d6000fd5b505050506040513d601f19601f8201168201806040525081019061087a91906111a6565b6040518115909202916000818181858888f193505050501580156108a2573d6000803e3d6000fd5b50600a546040516001600160a01b03909116904780156108fc02916000818181858888f193505050501580156108dc573d6000803e3d6000fd5b5047156108eb576108eb6112a4565b6002805460ff19166003179055600054604080516001600160a01b0390921682523060208301527f6a5d55ef84f2d6da57cc86de121fc1c7a8392770ff8f357998e87beb5c310491910160405180910390a1565b600a546001600160a01b031633146109695760405162461bcd60e51b81526004016104009061126d565b604051638dfd0b0360e01b81526004810182905273__Utils_________________________________90638dfd0b039060240160206040518083038186803b1580156109b457600080fd5b505af41580156109c8573d6000803e3d6000fd5b505050506040513d601f19601f820116820180604052508101906109ec91906111a6565b3414610a0a5760405162461bcd60e51b8152600401610400906111bf565b600060025460ff166003811115610a2357610a23610faa565b14610a705760405162461bcd60e51b815260206004820181905260248201527f496e76616c69642072656e74616c2073746174757320666f72206d6574686f646044820152606401610400565b600b8190558151610a8890600c906020850190610df0565b506002805460ff19166001179055600054600354600a54604080516001600160a01b039485168152928416602084015292168183015290517fbee4505063610f2c2522d8c40dc9c857aeceb46a2fcecc7051c9d28a42312e23916060908290030190a15050565b6003546001600160a01b03163314610b495760405162461bcd60e51b815260206004820152601e60248201527f4d6574686f64206973207265737472696374656420746f2052656e74657200006044820152606401610400565b6008546009541015610bb25760405162461bcd60e51b815260206004820152602c60248201527f52656e74616c2066656573206861766520746f2062652070616964206265666f60448201526b72652072657475726e696e6760a01b6064820152608401610400565b8051610bc5906007906020840190610df0565b506002805460ff191681179055600054600354600a54604080516001600160a01b039485168152928416602084015292168183015290517f2b7164dceeb2fccf197390bacb5fa0bceed217160220dd6b0e32124ab71fe8e09181900360600190a150565b600a546001600160a01b03163314610c535760405162461bcd60e51b81526004016104009061126d565b600160025460ff166003811115610c6c57610c6c610faa565b14610cd45760405162461bcd60e51b815260206004820152603260248201527f556e61626c6520746f20736574746c652072656e74616c20776974682063757260448201527172656e742072656e74616c2073746174757360701b6064820152608401610400565b6000546040516001620b258d60e21b03198152600260048201526001600160a01b0390911690819063ffd369cc90602401600060405180830381600087803b158015610d1f57600080fd5b505af1158015610d33573d6000803e3d6000fd5b5050600a546040516001600160a01b0390911692504780156108fc029250906000818181858888f19350505050158015610d71573d6000803e3d6000fd5b506000600260019054906101000a90046001600160a01b03169050806001600160a01b031663922b57fa6040518163ffffffff1660e01b8152600401600060405180830381600087803b158015610dc757600080fd5b505af1158015610ddb573d6000803e3d6000fd5b50506002805460ff1916600317905550505050565b828054828255906000526020600020908101928215610e3d579160200282015b82811115610e3d5782518051610e2d918491602090910190610e4d565b5091602001919060010190610e10565b50610e49929150610ecd565b5090565b828054610e5990611232565b90600052602060002090601f016020900481019282610e7b5760008555610ec1565b82601f10610e9457805160ff1916838001178555610ec1565b82800160010185558215610ec1579182015b82811115610ec1578251825591602001919060010190610ea6565b50610e49929150610eea565b80821115610e49576000610ee18282610eff565b50600101610ecd565b5b80821115610e495760008155600101610eeb565b508054610f0b90611232565b6000825580601f10610f1b575050565b601f016020900490600052602060002090810190610f399190610eea565b50565b600060208284031215610f4e57600080fd5b5035919050565b600060208083528351808285015260005b81811015610f8257858101830151858201604001528201610f66565b81811115610f94576000604083870101525b50601f01601f1916929092016040019392505050565b634e487b7160e01b600052602160045260246000fd5b6020810160048310610fe257634e487b7160e01b600052602160045260246000fd5b91905290565b634e487b7160e01b600052604160045260246000fd5b604051601f8201601f1916810167ffffffffffffffff8111828210171561102757611027610fe8565b604052919050565b6000601f838184011261104157600080fd5b8235602067ffffffffffffffff8083111561105e5761105e610fe8565b8260051b61106d838201610ffe565b938452868101830193838101908986111561108757600080fd5b84890192505b85831015611117578235848111156110a55760008081fd5b8901603f81018b136110b75760008081fd5b858101356040868211156110cd576110cd610fe8565b6110de828b01601f19168901610ffe565b8281528d828486010111156110f35760008081fd5b828285018a830137600092810189019290925250835250918401919084019061108d565b9998505050505050505050565b6000806040838503121561113757600080fd5b823567ffffffffffffffff81111561114e57600080fd5b61115a8582860161102f565b95602094909401359450505050565b60006020828403121561117b57600080fd5b813567ffffffffffffffff81111561119257600080fd5b61119e8482850161102f565b949350505050565b6000602082840312156111b857600080fd5b5051919050565b6020808252602d908201527f56616c7565207472616e736665726564206e6f7420657175616c20746f20726560408201526c1c5d5a5c995908185b5bdd5b9d609a1b606082015260800190565b6000821982111561122d57634e487b7160e01b600052601160045260246000fd5b500190565b600181811c9082168061124657607f821691505b6020821081141561126757634e487b7160e01b600052602260045260246000fd5b50919050565b6020808252601d908201527f4d6574686f64206973207265737472696374656420746f204f776e6572000000604082015260600190565b634e487b7160e01b600052600160045260246000fdfea2646970667358221220da79c7e5026734510af5d987b3d7bccc0a79609d0ea76cff0d2d81400a186b1064736f6c63430008090033a264697066735822122093049ce9b1b1acf6c6195e7186493dab3bd63c0cee4a10725b0ef44916360d7164736f6c63430008090033",
  "immutableReferences": {},
  "source": "// SPDX-License-Identifier: GPL-3.0\n\npragma solidity >=0.7.0 <0.9.0;\n\nimport \"../Rental.sol\";\nimport \"../Item.sol\";\nimport \"../helpers/Structs.sol\";\nimport \"../helpers/Utils.sol\";\n\ncontract RentalContractCreator {\n    using Utils for *;\n\n    address[] public rentalContracts;\n    uint8 public rentalContractCount;\n\n    mapping(address => address[]) rentalContractsForItem;\n\n    event rentalContractCreated(\n        address rentalContract,\n        address itemContract,\n        address renterAddress\n    );\n\n    function createRentalContract(\n        address _itemContract,\n        Structs.ItemDetails memory _itemDetails,\n        address _renterUserContract,\n        address payable _renterAddress,\n        uint256 _rentalFees,\n        uint256 _renterDeposit,\n        uint256 _start,\n        uint256 _end\n    ) public payable {\n        require(\n            msg.sender == _renterAddress,\n            \"Renter address does not match msg.sender\"\n        );\n        require(\n            msg.value == Utils.gweiToWei(_renterDeposit),\n            \"Value transfered is not equal required amount\"\n        );\n\n        Rental newRentalContract = (new Rental){value: msg.value}(\n            _itemContract,\n            _itemDetails,\n            _renterUserContract,\n            _renterAddress,\n            _rentalFees,\n            _renterDeposit,\n            _start,\n            _end\n        );\n\n        rentalContracts.push(address(newRentalContract));\n        rentalContractCount++;\n\n        Item item = Item(_itemContract);\n        item.handleNewRental(\n            address(newRentalContract),\n            _start,\n            _end,\n            _renterAddress\n        );\n\n        emit rentalContractCreated(\n            address(newRentalContract),\n            _itemContract,\n            _renterAddress\n        );\n    }\n}\n",
  "sourcePath": "/Users/jyuteo/CodeProjects/TRent/smart-contracts/src/contracts/factory/RentalContractCreator.sol",
  "compiler": {
    "name": "solc",
    "version": "0.8.9+commit.e5eed63a.Emscripten.clang"
  },
  "schemaVersion": "3.4.3",
  "updatedAt": "2021-10-12T10:42:45.456Z",
  "networkType": "ethereum",
  "devdoc": {
    "kind": "dev",
    "methods": {},
    "version": 1
  },
  "userdoc": {
    "kind": "user",
    "methods": {},
    "version": 1
  }
}