{
  "contractName": "Utils",
  "abi": [
    {
      "inputs": [
        {
          "internalType": "uint256",
          "name": "_i",
          "type": "uint256"
        }
      ],
      "name": "uint2str",
      "outputs": [
        {
          "internalType": "string",
          "name": "str",
          "type": "string"
        }
      ],
      "stateMutability": "pure",
      "type": "function",
      "constant": true
    },
    {
      "inputs": [
        {
          "internalType": "address",
          "name": "x",
          "type": "address"
        }
      ],
      "name": "address2str",
      "outputs": [
        {
          "internalType": "string",
          "name": "",
          "type": "string"
        }
      ],
      "stateMutability": "pure",
      "type": "function",
      "constant": true
    },
    {
      "inputs": [
        {
          "internalType": "uint256",
          "name": "_time1",
          "type": "uint256"
        },
        {
          "internalType": "uint256",
          "name": "_time2",
          "type": "uint256"
        }
      ],
      "name": "getDaysBetween",
      "outputs": [
        {
          "internalType": "uint256",
          "name": "",
          "type": "uint256"
        }
      ],
      "stateMutability": "pure",
      "type": "function",
      "constant": true
    },
    {
      "inputs": [
        {
          "internalType": "uint256",
          "name": "_gwei",
          "type": "uint256"
        }
      ],
      "name": "gweiToWei",
      "outputs": [
        {
          "internalType": "uint256",
          "name": "",
          "type": "uint256"
        }
      ],
      "stateMutability": "pure",
      "type": "function",
      "constant": true
    }
  ],
  "bytecode": "0x61071061003a600b82828239805160001a60731461002d57634e487b7160e01b600052600060045260246000fd5b30600052607381538281f3fe73000000000000000000000000000000000000000030146080604052600436106100565760003560e01c806326d273371461005b5780634a58a14a146100845780638dfd0b03146100a5578063f76f950e146100b8575b600080fd5b61006e61006936600461039f565b6100cb565b60405161007b91906103cf565b60405180910390f35b610097610092366004610424565b610212565b60405190815260200161007b565b6100976100b3366004610446565b610250565b61006e6100c6366004610446565b610260565b60408051602880825260608281019093526000919060208201818036833701905050905060005b601481101561020b57600061010882601361048b565b6101139060086104a2565b61011e9060026105a5565b610131906001600160a01b0387166105c7565b60f81b9050600060108260f81c61014891906105db565b60f81b905060008160f81c601061015f91906105fd565b8360f81c61016d919061061e565b60f81b905061017b82610369565b856101878660026104a2565b8151811061019757610197610641565b60200101906001600160f81b031916908160001a9053506101b781610369565b856101c38660026104a2565b6101ce906001610657565b815181106101de576101de610641565b60200101906001600160f81b031916908160001a90535050505080806102039061066f565b9150506100f2565b5092915050565b60008061021f848461048b565b905060006018603c61023181856105c7565b61023b91906105c7565b61024591906105c7565b925050505b92915050565b600061024a82633b9aca006104a2565b6060816102845750506040805180820190915260018152600360fc1b602082015290565b8160005b81156102ae57806102988161066f565b91506102a79050600a836105c7565b9150610288565b60008167ffffffffffffffff8111156102c9576102c961045f565b6040519080825280601f01601f1916602001820160405280156102f3576020820181803683370190505b508593509050815b83156103605761030c600a8561068a565b610317906030610657565b60f81b826103248361069e565b9250828151811061033757610337610641565b60200101906001600160f81b031916908160001a905350610359600a856105c7565b93506102fb565b50949350505050565b6000600a60f883901c10156103905761038760f883901c60306106b5565b60f81b92915050565b61038760f883901c60576106b5565b6000602082840312156103b157600080fd5b81356001600160a01b03811681146103c857600080fd5b9392505050565b600060208083528351808285015260005b818110156103fc578581018301518582016040015282016103e0565b8181111561040e576000604083870101525b50601f01601f1916929092016040019392505050565b6000806040838503121561043757600080fd5b50508035926020909101359150565b60006020828403121561045857600080fd5b5035919050565b634e487b7160e01b600052604160045260246000fd5b634e487b7160e01b600052601160045260246000fd5b60008282101561049d5761049d610475565b500390565b60008160001904831182151516156104bc576104bc610475565b500290565b600181815b808511156104fc5781600019048211156104e2576104e2610475565b808516156104ef57918102915b93841c93908002906104c6565b509250929050565b6000826105135750600161024a565b816105205750600061024a565b816001811461053657600281146105405761055c565b600191505061024a565b60ff84111561055157610551610475565b50506001821b61024a565b5060208310610133831016604e8410600b841016171561057f575081810a61024a565b61058983836104c1565b806000190482111561059d5761059d610475565b029392505050565b60006103c88383610504565b634e487b7160e01b600052601260045260246000fd5b6000826105d6576105d66105b1565b500490565b600060ff8316806105ee576105ee6105b1565b8060ff84160491505092915050565b600060ff821660ff84168160ff048111821515161561059d5761059d610475565b600060ff821660ff84168082101561063857610638610475565b90039392505050565b634e487b7160e01b600052603260045260246000fd5b6000821982111561066a5761066a610475565b500190565b600060001982141561068357610683610475565b5060010190565b600082610699576106996105b1565b500690565b6000816106ad576106ad610475565b506000190190565b600060ff821660ff84168060ff038211156106d2576106d2610475565b01939250505056fea26469706673582212204ceed0baf9e2316056794f4fe1aeb9fae7670d3590e71b3735df4380f5dcfb9d64736f6c63430008090033",
  "immutableReferences": {},
  "source": "// SPDX-License-Identifier: GPL-3.0\n\npragma solidity >=0.7.0 <0.9.0;\n\nlibrary Utils {\n    function uint2str(uint256 _i) public pure returns (string memory str) {\n        if (_i == 0) {\n            return \"0\";\n        }\n        uint256 j = _i;\n        uint256 length;\n        while (j != 0) {\n            length++;\n            j /= 10;\n        }\n        bytes memory bstr = new bytes(length);\n        uint256 k = length;\n        j = _i;\n        while (j != 0) {\n            bstr[--k] = bytes1(uint8(48 + (j % 10)));\n            j /= 10;\n        }\n        str = string(bstr);\n    }\n\n    function address2str(address x) public pure returns (string memory) {\n        bytes memory s = new bytes(40);\n        for (uint256 i = 0; i < 20; i++) {\n            bytes1 b = bytes1(uint8(uint256(uint160(x)) / (2**(8 * (19 - i)))));\n            bytes1 hi = bytes1(uint8(b) / 16);\n            bytes1 lo = bytes1(uint8(b) - 16 * uint8(hi));\n            s[2 * i] = char(hi);\n            s[2 * i + 1] = char(lo);\n        }\n        return string(s);\n    }\n\n    function char(bytes1 b) internal pure returns (bytes1 c) {\n        if (uint8(b) < 10) return bytes1(uint8(b) + 0x30);\n        else return bytes1(uint8(b) + 0x57);\n    }\n\n    function getDaysBetween(uint256 _time1, uint256 _time2)\n        public\n        pure\n        returns (uint256)\n    {\n        uint256 secondsBetween = _time2 - _time1;\n        uint256 daysBetween = secondsBetween / 60 / 60 / 24;\n        return daysBetween;\n    }\n\n    function gweiToWei(uint256 _gwei) public pure returns (uint256) {\n        return _gwei * 10**9;\n    }\n}\n",
  "sourcePath": "/Users/jyuteo/CodeProjects/TRent/smart-contracts/src/contracts/helpers/Utils.sol",
  "compiler": {
    "name": "solc",
    "version": "0.8.9+commit.e5eed63a.Emscripten.clang"
  },
  "schemaVersion": "3.4.3",
  "updatedAt": "2021-10-06T12:18:43.051Z",
  "networkType": "ethereum",
  "devdoc": {
    "kind": "dev",
    "methods": {},
    "version": 1
  },
  "userdoc": {
    "kind": "user",
    "methods": {},
    "version": 1
  }
}