{
  "contractName": "ContractFactory",
  "abi": [
    {
      "inputs": [],
      "stateMutability": "nonpayable",
      "type": "constructor"
    },
    {
      "anonymous": false,
      "inputs": [
        {
          "indexed": false,
          "internalType": "address",
          "name": "newAdmin",
          "type": "address"
        }
      ],
      "name": "adminChanged",
      "type": "event"
    },
    {
      "anonymous": false,
      "inputs": [
        {
          "indexed": false,
          "internalType": "address",
          "name": "itemOwnerAddress",
          "type": "address"
        },
        {
          "indexed": false,
          "internalType": "address",
          "name": "itemContractAddress",
          "type": "address"
        }
      ],
      "name": "itemContractCreated",
      "type": "event"
    },
    {
      "anonymous": false,
      "inputs": [
        {
          "indexed": false,
          "internalType": "address",
          "name": "userAddress",
          "type": "address"
        },
        {
          "indexed": false,
          "internalType": "address",
          "name": "userContractAddress",
          "type": "address"
        }
      ],
      "name": "userContractCreated",
      "type": "event"
    },
    {
      "inputs": [],
      "name": "admin",
      "outputs": [
        {
          "internalType": "address",
          "name": "",
          "type": "address"
        }
      ],
      "stateMutability": "view",
      "type": "function"
    },
    {
      "inputs": [
        {
          "internalType": "uint256",
          "name": "",
          "type": "uint256"
        }
      ],
      "name": "itemContracts",
      "outputs": [
        {
          "internalType": "address",
          "name": "",
          "type": "address"
        }
      ],
      "stateMutability": "view",
      "type": "function"
    },
    {
      "inputs": [],
      "name": "itemCount",
      "outputs": [
        {
          "internalType": "uint256",
          "name": "",
          "type": "uint256"
        }
      ],
      "stateMutability": "view",
      "type": "function"
    },
    {
      "inputs": [
        {
          "internalType": "uint256",
          "name": "",
          "type": "uint256"
        }
      ],
      "name": "userContracts",
      "outputs": [
        {
          "internalType": "address",
          "name": "",
          "type": "address"
        }
      ],
      "stateMutability": "view",
      "type": "function"
    },
    {
      "inputs": [],
      "name": "userCount",
      "outputs": [
        {
          "internalType": "uint256",
          "name": "",
          "type": "uint256"
        }
      ],
      "stateMutability": "view",
      "type": "function"
    },
    {
      "inputs": [
        {
          "internalType": "address",
          "name": "_newAdmin",
          "type": "address"
        }
      ],
      "name": "setAdmin",
      "outputs": [],
      "stateMutability": "nonpayable",
      "type": "function"
    },
    {
      "inputs": [
        {
          "internalType": "address",
          "name": "_item",
          "type": "address"
        }
      ],
      "name": "getRentalContractsForItem",
      "outputs": [
        {
          "internalType": "address[]",
          "name": "",
          "type": "address[]"
        }
      ],
      "stateMutability": "view",
      "type": "function"
    },
    {
      "inputs": [
        {
          "internalType": "address",
          "name": "_userAddress",
          "type": "address"
        }
      ],
      "name": "getUserContractForUser",
      "outputs": [
        {
          "internalType": "address",
          "name": "",
          "type": "address"
        }
      ],
      "stateMutability": "view",
      "type": "function"
    },
    {
      "inputs": [
        {
          "internalType": "address",
          "name": "_user",
          "type": "address"
        }
      ],
      "name": "hasUserContract",
      "outputs": [
        {
          "internalType": "bool",
          "name": "",
          "type": "bool"
        }
      ],
      "stateMutability": "view",
      "type": "function"
    },
    {
      "inputs": [
        {
          "internalType": "address",
          "name": "_user",
          "type": "address"
        },
        {
          "internalType": "string",
          "name": "_username",
          "type": "string"
        },
        {
          "internalType": "string",
          "name": "_deliveryAddress",
          "type": "string"
        }
      ],
      "name": "createUserContractForNewUser",
      "outputs": [],
      "stateMutability": "nonpayable",
      "type": "function"
    },
    {
      "inputs": [
        {
          "components": [
            {
              "internalType": "address",
              "name": "owner",
              "type": "address"
            },
            {
              "internalType": "string",
              "name": "name",
              "type": "string"
            },
            {
              "internalType": "string",
              "name": "collectionOrReturnAddress",
              "type": "string"
            },
            {
              "internalType": "string",
              "name": "description",
              "type": "string"
            },
            {
              "internalType": "uint256",
              "name": "rentPerDay",
              "type": "uint256"
            },
            {
              "internalType": "uint8",
              "name": "maxAllowableLateDays",
              "type": "uint8"
            },
            {
              "internalType": "bool",
              "name": "isAvailableForRent",
              "type": "bool"
            },
            {
              "internalType": "address[]",
              "name": "mediaIPFSHashes",
              "type": "address[]"
            }
          ],
          "internalType": "struct Item.ItemDetails",
          "name": "_itemDetails",
          "type": "tuple"
        }
      ],
      "name": "createItemContract",
      "outputs": [],
      "stateMutability": "nonpayable",
      "type": "function"
    }
  ],
  "bytecode": "0x608060405234801561001057600080fd5b50600080546001600160a01b03191633179055613f2b806100326000396000f3fe60806040523480156200001157600080fd5b5060043610620000b75760003560e01c80637809b9f1116200007a5780637809b9f11462000152578063cd2d1285146200017a578063cd93c74d14620001a9578063d072d7be14620001c0578063d1795f3014620001d7578063f851a44014620001ee57600080fd5b806307973ccf14620000bc5780632e3d147714620000d95780634805a5ca14620001095780636bfb0d01146200012f578063704b6c021462000139575b600080fd5b620000c660025481565b6040519081526020015b60405180910390f35b620000f0620000ea3660046200073c565b62000202565b6040516001600160a01b039091168152602001620000d0565b620001206200011a3660046200065b565b6200022d565b604051620000d091906200085e565b620000c660045481565b620001506200014a3660046200065b565b620002a5565b005b62000169620001633660046200065b565b62000311565b6040519015158152602001620000d0565b620000f06200018b3660046200065b565b6001600160a01b039081166000908152600660205260409020541690565b620000f0620001ba3660046200073c565b62000348565b62000150620001d136600462000680565b62000359565b62000150620001e8366004620006fd565b62000473565b600054620000f0906001600160a01b031681565b600381815481106200021357600080fd5b6000918252602090912001546001600160a01b0316905081565b6001600160a01b0381166000908152600560209081526040918290208054835181840281018401909452808452606093928301828280156200029957602002820191906000526020600020905b81546001600160a01b031681526001909101906020018083116200027a575b50505050509050919050565b6000546001600160a01b03163314620002bd57600080fd5b600080546001600160a01b0319166001600160a01b0383169081179091556040519081527fad19681a09902b2e83e20447a2012dbb1bea01d48dd453e74021ebab67e666429060200160405180910390a150565b6001600160a01b038181166000908152600660205260408120549091166200033b57506000919050565b506001919050565b919050565b600181815481106200021357600080fd5b620003648362000311565b156200036f57600080fd5b600083838360405162000382906200056f565b62000390939291906200081a565b604051809103906000f080158015620003ad573d6000803e3d6000fd5b50600180548082019091557fb10e2d527612073b26eecdfd717e6a320cf44b4afac2b0732d9fcbe2b7fa0cf60180546001600160a01b038084166001600160a01b0319928316811790935587166000908152600660205260408120805490921690921790556002805492935090620004258362000a63565b9091555050604080516001600160a01b038087168252831660208201527f3ae452c9d717870a928bfb2c4f7f6b7c239bfb392b9d6c0cdcf53e3fa8e76201910160405180910390a150505050565b60008160405162000484906200057d565b620004909190620008ad565b604051809103906000f080158015620004ad573d6000803e3d6000fd5b506003805460018082019092557fc2575a0e9e593c00f959f8c92f12db2869c3395a3b0502d05e2516446f71f85b0180546001600160a01b0319166001600160a01b0384169081179091556000908152600760205260408120805460ff19169092179091556004805492935090620005258362000a63565b9091555050604080513381526001600160a01b03831660208201527f7379fa3640d5306b2f58ed7095b1c06028b5a430af35578de16d50db415b706b910160405180910390a15050565b6114198062000aa483390190565b6120398062001ebd83390190565b80356001600160a01b03811681146200034357600080fd5b803580151581146200034357600080fd5b600082601f830112620005c657600080fd5b813567ffffffffffffffff80821115620005e457620005e462000a8d565b604051601f8301601f19908116603f011681019082821181831017156200060f576200060f62000a8d565b816040528381528660208588010111156200062957600080fd5b836020870160208301376000602085830101528094505050505092915050565b803560ff811681146200034357600080fd5b6000602082840312156200066e57600080fd5b62000679826200058b565b9392505050565b6000806000606084860312156200069657600080fd5b620006a1846200058b565b9250602084013567ffffffffffffffff80821115620006bf57600080fd5b620006cd87838801620005b4565b93506040860135915080821115620006e457600080fd5b50620006f386828701620005b4565b9150509250925092565b6000602082840312156200071057600080fd5b813567ffffffffffffffff8111156200072857600080fd5b820161010081850312156200067957600080fd5b6000602082840312156200074f57600080fd5b5035919050565b8183526000602080850194508260005b8581101562000796576001600160a01b0362000782836200058b565b168752958201959082019060010162000766565b509495945050505050565b81835281816020850137506000828201602090810191909152601f909101601f19169091010190565b6000815180845260005b81811015620007f257602081850181015186830182015201620007d4565b8181111562000805576000602083870101525b50601f01601f19169290920160200192915050565b6001600160a01b03841681526060602082018190526000906200084090830185620007ca565b8281036040840152620008548185620007ca565b9695505050505050565b6020808252825182820181905260009190848201906040850190845b81811015620008a15783516001600160a01b0316835292840192918401916001016200087a565b50909695505050505050565b60208152620008d160208201620008c4846200058b565b6001600160a01b03169052565b6000620008e2602084018462000a1a565b610100806040860152620008fc61012086018385620007a1565b92506200090d604087018762000a1a565b9250601f198087860301606088015262000929858584620007a1565b94506200093a606089018962000a1a565b945091508087860301608088015262000955858584620007a1565b9450608088013560a08801526200096f60a0890162000649565b60ff811660c089015293506200098860c08901620005a3565b80151560e08901529350620009a160e0890189620009c7565b9450915080878603018388015250620009bc84848362000756565b979650505050505050565b6000808335601e19843603018112620009df57600080fd5b830160208101925035905067ffffffffffffffff81111562000a0057600080fd5b8060051b360383131562000a1357600080fd5b9250929050565b6000808335601e1984360301811262000a3257600080fd5b830160208101925035905067ffffffffffffffff81111562000a5357600080fd5b80360383131562000a1357600080fd5b600060001982141562000a8657634e487b7160e01b600052601160045260246000fd5b5060010190565b634e487b7160e01b600052604160045260246000fdfe60806040523480156200001157600080fd5b5060405162001419380380620014198339810160408190526200003491620001f8565b600180546001600160a01b0319166001600160a01b0385161790558151620000649060029060208501906200009b565b5080516200007a9060039060208401906200009b565b50506005805460ff1916905550506007805463ffffffff19169055620002d5565b828054620000a99062000282565b90600052602060002090601f016020900481019282620000cd576000855562000118565b82601f10620000e857805160ff191683800117855562000118565b8280016001018555821562000118579182015b8281111562000118578251825591602001919060010190620000fb565b50620001269291506200012a565b5090565b5b808211156200012657600081556001016200012b565b600082601f8301126200015357600080fd5b81516001600160401b0380821115620001705762000170620002bf565b604051601f8301601f19908116603f011681019082821181831017156200019b576200019b620002bf565b81604052838152602092508683858801011115620001b857600080fd5b600091505b83821015620001dc5785820183015181830184015290820190620001bd565b83821115620001ee5760008385830101525b9695505050505050565b6000806000606084860312156200020e57600080fd5b83516001600160a01b03811681146200022657600080fd5b60208501519093506001600160401b03808211156200024457600080fd5b620002528783880162000141565b935060408601519150808211156200026957600080fd5b50620002788682870162000141565b9150509250925092565b600181811c908216806200029757607f821691505b60208210811415620002b957634e487b7160e01b600052602260045260246000fd5b50919050565b634e487b7160e01b600052604160045260246000fd5b61113480620002e56000396000f3fe608060405234801561001057600080fd5b50600436106101165760003560e01c8063886f1bb9116100a2578063a934899511610071578063a934899514610257578063b35ddf941461026a578063c2bd81191461027c578063e4128fb314610284578063e85e79b6146102af57600080fd5b8063886f1bb9146101f857806390f1af6c1461020b578063927584b91461022e57806395578e581461024457600080fd5b806350d9de1d116100e957806350d9de1d146101855780635d30e84d1461019857806361fac54d146101bd57806373ddea79146101d257806377c846af146101e557600080fd5b80632254df251461011b578063248640811461014457806326f2d18b1461016357806332cc4e8114610178575b600080fd5b60075461012f906301000000900460ff1681565b60405190151581526020015b60405180910390f35b6007546101519060ff1681565b60405160ff909116815260200161013b565b610176610171366004610ea4565b6102d4565b005b6005546101519060ff1681565b6007546101519062010000900460ff1681565b6101ab6101a6366004610e8b565b610314565b60405161013b96959493929190610f8f565b6101c56103fa565b60405161013b9190610fe4565b6101766101e0366004610dc0565b610488565b6101766101f3366004610e4e565b610852565b610176610206366004610e4e565b6108c1565b610151610219366004610d39565b60006020819052908152604090205460ff1681565b610236610925565b60405190815260200161013b565b610176610252366004610d7a565b61098c565b610176610265366004610d7a565b610b55565b60075461015190610100900460ff1681565b6101c5610baa565b600154610297906001600160a01b031681565b6040516001600160a01b03909116815260200161013b565b6102c26102bd366004610e8b565b610bb7565b60405161013b96959493929190610f4d565b600060048260ff16815481106102ec576102ec6110ab565b60009182526020909120600160049092020101805460ff60a81b1916600160a81b1790555050565b6006818154811061032457600080fd5b60009182526020909120600590910201805460018201546002830180546001600160a01b03938416955092821693600160a01b90920460ff16926103679061100f565b80601f01602080910402602001604051908101604052809291908181526020018280546103939061100f565b80156103e05780601f106103b5576101008083540402835291602001916103e0565b820191906000526020600020905b8154815290600101906020018083116103c357829003601f168201915b505050506003830154600490930154919260ff1691905086565b600280546104079061100f565b80601f01602080910402602001604051908101604052809291908181526020018280546104339061100f565b80156104805780601f1061045557610100808354040283529160200191610480565b820191906000526020600020905b81548152906001019060200180831161046357829003601f168201915b505050505081565b6001546001600160a01b03163314156104a057600080fd5b60405163243c6bdb60e21b81526001600160a01b03868116600483015285916000918316906390f1af6c9060240160206040518083038186803b1580156104e657600080fd5b505afa1580156104fa573d6000803e3d6000fd5b505050506040513d601f19601f8201168201806040525081019061051e9190610ec1565b6040516326f2d18b60e01b815260ff821660048201529091506001600160a01b038316906326f2d18b90602401600060405180830381600087803b15801561056557600080fd5b505af1158015610579573d6000803e3d6000fd5b5050505060006040518060c00160405280896001600160a01b03168152602001846001600160a01b031663e4128fb36040518163ffffffff1660e01b815260040160206040518083038186803b1580156105d257600080fd5b505afa1580156105e6573d6000803e3d6000fd5b505050506040513d601f19601f8201168201806040525081019061060a9190610d5d565b6001600160a01b031681526020018760ff16815260200186815260200185600181111561063957610639611095565b8152426020918201526006805460018101825560009190915282517ff652222313e28459528d920b65115c16c04f3efc82aaedc97be59f3f377c0d3f600590920291820180546001600160a01b0319166001600160a01b03928316178155848401517ff652222313e28459528d920b65115c16c04f3efc82aaedc97be59f3f377c0d40840180546040880151929094166001600160a81b031990941693909317600160a01b60ff90921691909102179091556060840151805194955085949193610728937ff652222313e28459528d920b65115c16c04f3efc82aaedc97be59f3f377c0d410192910190610c13565b50608082015160038201805460ff19166001838181111561074b5761074b611095565b021790555060a091909101516004909101556007805460ff169060006107708361105f565b91906101000a81548160ff021916908360ff16021790555050826001600160a01b031663e4128fb36040518163ffffffff1660e01b815260040160206040518083038186803b1580156107c257600080fd5b505afa1580156107d6573d6000803e3d6000fd5b505050506040513d601f19601f820116820180604052508101906107fa9190610d5d565b6007546040805160ff808b16825290921660208301526001600160a01b0392909216917f90a85869adb958b6374cf98f2a24b28f0db723127744011d6363487d50cef161910160405180910390a25050505050505050565b6001546001600160a01b0316331461086957600080fd5b805161087c906002906020840190610c13565b50336001600160a01b03167ff07516e9449b46121f3f7f7cb800fb5f90f7ee9e442a5479e8e3bab929d71b77826040516108b69190610fe4565b60405180910390a250565b6001546001600160a01b031633146108d857600080fd5b80516108eb906003906020840190610c13565b50336001600160a01b03167ff01f8beedc6b4ff8605063d6b438798f7caa71e19ea3097a733f57c40072a320826040516108b69190610fe4565b600080805b60075460ff16811015610986576006818154811061094a5761094a6110ab565b600091825260209091206005909102016001015461097290600160a01b900460ff1683610ff7565b91508061097e81611044565b91505061092a565b50919050565b6040805160c0810182526001600160a01b03808716825285166020820152600091810182815260006020820152604081018590526060018390526007805491925061010090910460ff169060016109e28361105f565b82546101009290920a60ff818102199093169190921691909102179055506004805460018181018355600083905283517f8a35acfbc15ff81a39ae7d344fd709f28e8600b4aa8c65c6b64bfe7fe36bd19b9290930291820180546001600160a01b03199081166001600160a01b0395861617825560208601517f8a35acfbc15ff81a39ae7d344fd709f28e8600b4aa8c65c6b64bfe7fe36bd19c909401805491821694909516938417855560408601518695929490936001600160a81b03199092161790600160a01b908490811115610abd57610abd611095565b02179055506060820151600182018054911515600160a81b0260ff60a81b199092169190911790556080820151600282015560a090910151600390910155600580546001600160a01b0387166000908152602081905260408120805460ff191660ff93841617905582549091169190610b358361105f565b91906101000a81548160ff021916908360ff160217905550505050505050565b6040805160c0810182526001600160a01b03868116825285166020820152600191810191909152600060608201526080810183905260a081018290526007805462010000900460ff169060026109e28361105f565b600380546104079061100f565b60048181548110610bc757600080fd5b600091825260209091206004909102018054600182015460028301546003909301546001600160a01b0392831694509181169260ff600160a01b8304811693600160a81b909304169186565b828054610c1f9061100f565b90600052602060002090601f016020900481019282610c415760008555610c87565b82601f10610c5a57805160ff1916838001178555610c87565b82800160010185558215610c87579182015b82811115610c87578251825591602001919060010190610c6c565b50610c93929150610c97565b5090565b5b80821115610c935760008155600101610c98565b600082601f830112610cbd57600080fd5b813567ffffffffffffffff80821115610cd857610cd86110c1565b604051601f8301601f19908116603f01168101908282118183101715610d0057610d006110c1565b81604052838152866020858801011115610d1957600080fd5b836020870160208301376000602085830101528094505050505092915050565b600060208284031215610d4b57600080fd5b8135610d56816110d7565b9392505050565b600060208284031215610d6f57600080fd5b8151610d56816110d7565b60008060008060808587031215610d9057600080fd5b8435610d9b816110d7565b93506020850135610dab816110d7565b93969395505050506040820135916060013590565b600080600080600060a08688031215610dd857600080fd5b8535610de3816110d7565b94506020860135610df3816110d7565b93506040860135610e03816110ef565b9250606086013567ffffffffffffffff811115610e1f57600080fd5b610e2b88828901610cac565b925050608086013560028110610e4057600080fd5b809150509295509295909350565b600060208284031215610e6057600080fd5b813567ffffffffffffffff811115610e7757600080fd5b610e8384828501610cac565b949350505050565b600060208284031215610e9d57600080fd5b5035919050565b600060208284031215610eb657600080fd5b8135610d56816110ef565b600060208284031215610ed357600080fd5b8151610d56816110ef565b60028110610efc57634e487b7160e01b600052602160045260246000fd5b9052565b6000815180845260005b81811015610f2657602081850181015186830182015201610f0a565b81811115610f38576000602083870101525b50601f01601f19169290920160200192915050565b6001600160a01b0387811682528616602082015260c08101610f726040830187610ede565b9315156060820152608081019290925260a0909101529392505050565b6001600160a01b0387811682528616602082015260ff8516604082015260c060608201819052600090610fc490830186610f00565b9050610fd36080830185610ede565b8260a0830152979650505050505050565b602081526000610d566020830184610f00565b6000821982111561100a5761100a61107f565b500190565b600181811c9082168061102357607f821691505b6020821081141561098657634e487b7160e01b600052602260045260246000fd5b60006000198214156110585761105861107f565b5060010190565b600060ff821660ff8114156110765761107661107f565b60010192915050565b634e487b7160e01b600052601160045260246000fd5b634e487b7160e01b600052602160045260246000fd5b634e487b7160e01b600052603260045260246000fd5b634e487b7160e01b600052604160045260246000fd5b6001600160a01b03811681146110ec57600080fd5b50565b60ff811681146110ec57600080fdfea264697066735822122059a93a94dd5b71c22335c81dd875e10900302ea493b5a0048899f225cc7948c164736f6c6343000807003360806040526040516200001290620001bf565b604051809103906000f0801580156200002f573d6000803e3d6000fd5b50600080546001600160a01b0319166001600160a01b03929092169190911790553480156200005d57600080fd5b506040516200203938038062002039833981016040819052620000809162000437565b8051600280546001600160a01b0319166001600160a01b039092169190911781556020808301518051849392620000bd92600392910190620001cd565b5060408201518051620000db916002840191602090910190620001cd565b5060608201518051620000f9916003840191602090910190620001cd565b506080820151600482015560a082015160058201805460c085015115156101000261ffff1990911660ff9093169290921791909117905560e082015180516200014d9160068401916020909101906200025c565b5050600254600180546001600160a01b0319166001600160a01b039092169190911790555060075460ff610100909104161562000194576009805460ff19169055620001a2565b6009805460ff191660011790555b50600b805460ff19908116909155600e8054909116905562000616565b61066980620019d083390190565b828054620001db90620005c3565b90600052602060002090601f016020900481019282620001ff57600085556200024a565b82601f106200021a57805160ff19168380011785556200024a565b828001600101855582156200024a579182015b828111156200024a5782518255916020019190600101906200022d565b5062000258929150620002b4565b5090565b8280548282559060005260206000209081019282156200024a579160200282015b828111156200024a57825182546001600160a01b0319166001600160a01b039091161782556020909201916001909101906200027d565b5b80821115620002585760008155600101620002b5565b80516001600160a01b0381168114620002e357600080fd5b919050565b600082601f830112620002fa57600080fd5b815160206001600160401b0382111562000318576200031862000600565b8160051b6200032982820162000590565b8381528281019086840183880185018910156200034557600080fd5b600093505b8584101562000373576200035e81620002cb565b8352600193909301929184019184016200034a565b50979650505050505050565b80518015158114620002e357600080fd5b600082601f830112620003a257600080fd5b81516001600160401b03811115620003be57620003be62000600565b6020620003d4601f8301601f1916820162000590565b8281528582848701011115620003e957600080fd5b60005b8381101562000409578581018301518282018401528201620003ec565b838111156200041b5760008385840101525b5095945050505050565b805160ff81168114620002e357600080fd5b6000602082840312156200044a57600080fd5b81516001600160401b03808211156200046257600080fd5b9083019061010082860312156200047857600080fd5b6200048262000564565b6200048d83620002cb565b8152602083015182811115620004a257600080fd5b620004b08782860162000390565b602083015250604083015182811115620004c957600080fd5b620004d78782860162000390565b604083015250606083015182811115620004f057600080fd5b620004fe8782860162000390565b606083015250608083015160808201526200051c60a0840162000425565b60a08201526200052f60c084016200037f565b60c082015260e0830151828111156200054757600080fd5b6200055587828601620002e8565b60e08301525095945050505050565b60405161010081016001600160401b03811182821017156200058a576200058a62000600565b60405290565b604051601f8201601f191681016001600160401b0381118282101715620005bb57620005bb62000600565b604052919050565b600181811c90821680620005d857607f821691505b60208210811415620005fa57634e487b7160e01b600052602260045260246000fd5b50919050565b634e487b7160e01b600052604160045260246000fd5b6113aa80620006266000396000f3fe608060405234801561001057600080fd5b50600436106101215760003560e01c806386941d29116100ad578063a6f9dae111610071578063a6f9dae114610299578063a871c231146102ac578063dcc3974b146102bf578063e3d0c9d2146102d2578063ffd369cc146102e557600080fd5b806386941d29146102135780638da5cb5b146102265780639e18eb76146102395780639f2bc40e1461024c578063a50ad3591461027f57600080fd5b806356ca4cfb116100f457806356ca4cfb146101a657806363737c51146101c55780636679497b146101d25780636e309a8b146101e557806382770a43146101f857600080fd5b806306669aea1461012657806321fb7ee81461013b57806352ab52bb1461016857806353da02061461017b575b600080fd5b610139610134366004610d50565b6102f8565b005b61014e610149366004610efb565b61044e565b604080519283526020830191909152015b60405180910390f35b610139610176366004610d1d565b61047c565b61018e610189366004610efb565b61058a565b6040516001600160a01b03909116815260200161015f565b600e546101b39060ff1681565b60405160ff909116815260200161015f565b600b546101b39060ff1681565b6101396101e0366004610f14565b6105b4565b6101396101f3366004610e04565b610682565b6102006106d7565b60405161015f9796959493929190610fdf565b610139610221366004610e04565b6108ad565b60015461018e906001600160a01b031681565b610139610247366004610cfb565b6108f7565b61026f61025a366004610cfb565b600f6020526000908152604090205460ff1681565b604051901515815260200161015f565b60095461028c9060ff1681565b60405161015f91906111ff565b6101396102a7366004610cfb565b610993565b6101396102ba366004610e04565b610a0b565b61018e6102cd366004610efb565b610a55565b6101396102e0366004610efb565b610a65565b6101396102f3366004610f14565b610b23565b6001546001600160a01b0316331461030f57600080fd5b8051610322906008906020840190610bf1565b50604080516020810190915260008082525b825181101561042257600054835183916001600160a01b0316906326d273379086908590811061036657610366611328565b60200260200101516040518263ffffffff1660e01b815260040161039991906001600160a01b0391909116815260200190565b60006040518083038186803b1580156103b157600080fd5b505afa1580156103c5573d6000803e3d6000fd5b505050506040513d6000823e601f3d908101601f191682016040526103ed9190810190610e84565b6040516020016103fe929190610f85565b6040516020818303038152906040529150808061041a906112d7565b915050610334565b5060008051602061135583398151915230826040516104429291906111b8565b60405180910390a15050565b600c818154811061045e57600080fd5b60009182526020909120600290910201805460019091015490915082565b336000908152600f602052604090205460ff1661049857600080fd5b600a805460018101825560009182527fc65a7bb8d6351c1cf70c95a316cc6a92839c986682d98bc35f958f4883f9d2a80180546001600160a01b0319166001600160a01b038616179055600b805460ff16916104f3836112f2565b82546101009290920a60ff818102199093169190921691909102179055506040805180820190915291825260208201908152600c805460018101825560009190915291517fdf6966c971051c3d54ec59162606531493a51404a002842f56009d7e5cf4a8c7600290930292830155517fdf6966c971051c3d54ec59162606531493a51404a002842f56009d7e5cf4a8c89091015550565b600a818154811061059a57600080fd5b6000918252602090912001546001600160a01b0316905081565b6001546001600160a01b031633146105cb57600080fd5b6007805460ff191660ff831690811790915560008054604051637bb7ca8760e11b8152600481019390935290916001600160a01b039091169063f76f950e9060240160006040518083038186803b15801561062557600080fd5b505afa158015610639573d6000803e3d6000fd5b505050506040513d6000823e601f3d908101601f191682016040526106619190810190610e84565b9050600080516020611355833981519152308260405161044292919061112a565b6001546001600160a01b0316331461069957600080fd5b80516106ac906005906020840190610c56565b5060008051602061135583398151915230826040516106cc92919061104e565b60405180910390a150565b60028054600380546001600160a01b0390921692916106f59061129c565b80601f01602080910402602001604051908101604052809291908181526020018280546107219061129c565b801561076e5780601f106107435761010080835404028352916020019161076e565b820191906000526020600020905b81548152906001019060200180831161075157829003601f168201915b5050505050908060020180546107839061129c565b80601f01602080910402602001604051908101604052809291908181526020018280546107af9061129c565b80156107fc5780601f106107d1576101008083540402835291602001916107fc565b820191906000526020600020905b8154815290600101906020018083116107df57829003601f168201915b5050505050908060030180546108119061129c565b80601f016020809104026020016040519081016040528092919081815260200182805461083d9061129c565b801561088a5780601f1061085f5761010080835404028352916020019161088a565b820191906000526020600020905b81548152906001019060200180831161086d57829003601f168201915b50505050600483015460059093015491929160ff80821692506101009091041687565b6001546001600160a01b031633146108c457600080fd5b80516108d7906004906020840190610c56565b5060008051602061135583398151915230826040516106cc929190611099565b600d805460018101825560009182527fd7b6990105719101dabeb77144f2a3385c8033acd3af97e9423a695e81ad1eb50180546001600160a01b0319166001600160a01b038416179055600e805460ff1691610952836112f2565b825460ff9182166101009390930a9283029190920219909116179055506001600160a01b03166000908152600f60205260409020805460ff19166001179055565b6001546001600160a01b031633146109aa57600080fd5b600280546001600160a01b0383166001600160a01b0319918216811790925560018054909116821790556040805130815260208101929092527fdc9230f080d0a42c0cbdad257f4d42957e2b7bee402bec3d8dbf5b51da448c4e91016106cc565b6001546001600160a01b03163314610a2257600080fd5b8051610a35906003906020840190610c56565b5060008051602061135583398151915230826040516106cc9291906110ee565b600d818154811061059a57600080fd5b6001546001600160a01b03163314610a7c57600080fd5b600681905560008054604051637bb7ca8760e11b8152600481018490526001600160a01b039091169063f76f950e9060240160006040518083038186803b158015610ac657600080fd5b505afa158015610ada573d6000803e3d6000fd5b505050506040513d6000823e601f3d908101601f19168201604052610b029190810190610e84565b90506000805160206113558339815191523082604051610442929190611176565b6001546001600160a01b03163314610b3a57600080fd5b60ff8116610b6b576007805461ff001916610100179055600980546000919060ff19166001835b0217905550610bba565b8060ff1660011415610b95576007805461ff0019169055600980546001919060ff19168280610b61565b8060ff1660021415610bba576007805461ff00191690556009805460ff191660021790555b6009546040517f8c5acf85d257fc548b6710d2ceeffe7d4b9b4dc7ed2866b316815c2ab592b9f6916106cc91309160ff1690610fc2565b828054828255906000526020600020908101928215610c46579160200282015b82811115610c4657825182546001600160a01b0319166001600160a01b03909116178255602090920191600190910190610c11565b50610c52929150610cca565b5090565b828054610c629061129c565b90600052602060002090601f016020900481019282610c845760008555610c46565b82601f10610c9d57805160ff1916838001178555610c46565b82800160010185558215610c46579182015b82811115610c46578251825591602001919060010190610caf565b5b80821115610c525760008155600101610ccb565b80356001600160a01b0381168114610cf657600080fd5b919050565b600060208284031215610d0d57600080fd5b610d1682610cdf565b9392505050565b600080600060608486031215610d3257600080fd5b610d3b84610cdf565b95602085013595506040909401359392505050565b60006020808385031215610d6357600080fd5b823567ffffffffffffffff80821115610d7b57600080fd5b818501915085601f830112610d8f57600080fd5b813581811115610da157610da161133e565b8060051b9150610db2848301611213565b8181528481019084860184860187018a1015610dcd57600080fd5b600095505b83861015610df757610de381610cdf565b835260019590950194918601918601610dd2565b5098975050505050505050565b600060208284031215610e1657600080fd5b813567ffffffffffffffff811115610e2d57600080fd5b8201601f81018413610e3e57600080fd5b8035610e51610e4c82611244565b611213565b818152856020838501011115610e6657600080fd5b81602084016020830137600091810160200191909152949350505050565b600060208284031215610e9657600080fd5b815167ffffffffffffffff811115610ead57600080fd5b8201601f81018413610ebe57600080fd5b8051610ecc610e4c82611244565b818152856020838501011115610ee157600080fd5b610ef282602083016020860161126c565b95945050505050565b600060208284031215610f0d57600080fd5b5035919050565b600060208284031215610f2657600080fd5b813560ff81168114610d1657600080fd5b60038110610f5557634e487b7160e01b600052602160045260246000fd5b9052565b60008151808452610f7181602086016020860161126c565b601f01601f19169290920160200192915050565b60008351610f9781846020880161126c565b61016160f51b9083019081528351610fb681600284016020880161126c565b01600201949350505050565b6001600160a01b038316815260408101610d166020830184610f37565b6001600160a01b038816815260e06020820181905260009061100390830189610f59565b82810360408401526110158189610f59565b905082810360608401526110298188610f59565b6080840196909652505060ff9290921660a0830152151560c090910152949350505050565b60018060a01b038316815260606020820152600b60608201526a3232b9b1b934b83a34b7b760a91b608082015260a06040820152600061109160a0830184610f59565b949350505050565b60018060a01b038316815260606020820152601860608201527f636f6c6c656374696f6e2f72657475726e416464726573730000000000000000608082015260a06040820152600061109160a0830184610f59565b60018060a01b03831681526060602082015260046060820152636e616d6560e01b608082015260a06040820152600061109160a0830184610f59565b60018060a01b03831681526060602082015260146060820152736d6178416c6c6f7761626c654c6174654461797360601b608082015260a06040820152600061109160a0830184610f59565b60018060a01b038316815260606020820152600a60608201526972656e7450657244617960b01b608082015260a06040820152600061109160a0830184610f59565b60018060a01b038316815260606020820152600f60608201526e6d656469614950465348617368657360881b608082015260a06040820152600061109160a0830184610f59565b6020810161120d8284610f37565b92915050565b604051601f8201601f1916810167ffffffffffffffff8111828210171561123c5761123c61133e565b604052919050565b600067ffffffffffffffff82111561125e5761125e61133e565b50601f01601f191660200190565b60005b8381101561128757818101518382015260200161126f565b83811115611296576000848401525b50505050565b600181811c908216806112b057607f821691505b602082108114156112d157634e487b7160e01b600052602260045260246000fd5b50919050565b60006000198214156112eb576112eb611312565b5060010190565b600060ff821660ff81141561130957611309611312565b60010192915050565b634e487b7160e01b600052601160045260246000fd5b634e487b7160e01b600052603260045260246000fd5b634e487b7160e01b600052604160045260246000fdfe1fb119ae646ad419061c26b2c9f00687535e680f4cabbaa1a12df632a4668054a2646970667358221220f457d1214c4ebb726bad398557ab732cdcf6d56c4903359a70ec2c7c4c8db06c64736f6c63430008070033608060405234801561001057600080fd5b50610649806100206000396000f3fe608060405234801561001057600080fd5b50600436106100365760003560e01c806326d273371461003b578063f76f950e14610064575b600080fd5b61004e6100493660046102fd565b610077565b60405161005b9190610346565b60405180910390f35b61004e61007236600461032d565b6101be565b60408051602880825260608281019093526000919060208201818036833701905050905060005b60148110156101b75760006100b482601361053b565b6100bf9060086104fb565b6100ca906002610451565b6100dd906001600160a01b0387166103d8565b60f81b9050600060108260f81c6100f491906103ec565b60f81b905060008160f81c601061010b919061051a565b8360f81c6101199190610552565b60f81b9050610127826102c7565b856101338660026104fb565b81518110610143576101436105e7565b60200101906001600160f81b031916908160001a905350610163816102c7565b8561016f8660026104fb565b61017a90600161039b565b8151811061018a5761018a6105e7565b60200101906001600160f81b031916908160001a90535050505080806101af9061058c565b91505061009e565b5092915050565b6060816101e25750506040805180820190915260018152600360fc1b602082015290565b8160005b811561020c57806101f68161058c565b91506102059050600a836103d8565b91506101e6565b60008167ffffffffffffffff811115610227576102276105fd565b6040519080825280601f01601f191660200182016040528015610251576020820181803683370190505b508593509050815b83156102be5761026a600a856105a7565b61027590603061039b565b60f81b8261028283610575565b92508281518110610295576102956105e7565b60200101906001600160f81b031916908160001a9053506102b7600a856103d8565b9350610259565b50949350505050565b6000600a60f883901c10156102ee576102e560f883901c60306103b3565b60f81b92915050565b6102e560f883901c60576103b3565b60006020828403121561030f57600080fd5b81356001600160a01b038116811461032657600080fd5b9392505050565b60006020828403121561033f57600080fd5b5035919050565b600060208083528351808285015260005b8181101561037357858101830151858201604001528201610357565b81811115610385576000604083870101525b50601f01601f1916929092016040019392505050565b600082198211156103ae576103ae6105bb565b500190565b600060ff821660ff84168060ff038211156103d0576103d06105bb565b019392505050565b6000826103e7576103e76105d1565b500490565b600060ff8316806103ff576103ff6105d1565b8060ff84160491505092915050565b600181815b8085111561044957816000190482111561042f5761042f6105bb565b8085161561043c57918102915b93841c9390800290610413565b509250929050565b60006103268383600082610467575060016104f5565b81610474575060006104f5565b816001811461048a5760028114610494576104b0565b60019150506104f5565b60ff8411156104a5576104a56105bb565b50506001821b6104f5565b5060208310610133831016604e8410600b84101617156104d3575081810a6104f5565b6104dd838361040e565b80600019048211156104f1576104f16105bb565b0290505b92915050565b6000816000190483118215151615610515576105156105bb565b500290565b600060ff821660ff84168160ff04811182151516156104f1576104f16105bb565b60008282101561054d5761054d6105bb565b500390565b600060ff821660ff84168082101561056c5761056c6105bb565b90039392505050565b600081610584576105846105bb565b506000190190565b60006000198214156105a0576105a06105bb565b5060010190565b6000826105b6576105b66105d1565b500690565b634e487b7160e01b600052601160045260246000fd5b634e487b7160e01b600052601260045260246000fd5b634e487b7160e01b600052603260045260246000fd5b634e487b7160e01b600052604160045260246000fdfea26469706673582212202eee08da6fb358cb68fb4a5f1c458c0a667c1412ed0eac24ae776c80af7a4e5864736f6c63430008070033a26469706673582212204ccd2601efc6fa8a73bef82f97b0a2a638b97165a3b5f740fb85d4165504748d64736f6c63430008070033",
  "immutableReferences": {},
  "source": "// SPDX-License-Identifier: GPL-3.0\n\npragma solidity >=0.7.0 <0.9.0;\n\nimport \"./User.sol\";\nimport \"./Item.sol\";\n\ncontract ContractFactory {\n    address public admin;\n\n    address[] public userContracts;\n    uint256 public userCount;\n\n    address[] public itemContracts;\n    uint256 public itemCount;\n\n    // map Item contract to a list of Rental contracts of the item\n    mapping(address => address[]) internal rentalContractsForItem;\n\n    // map user address to User contract\n    mapping(address => address) internal userContractForUser;\n\n    mapping(address => bool) internal hasItemContract;\n\n    event adminChanged(address newAdmin);\n    event userContractCreated(address userAddress, address userContractAddress);\n    event itemContractCreated(\n        address itemOwnerAddress,\n        address itemContractAddress\n    );\n\n    constructor() {\n        admin = msg.sender;\n    }\n\n    modifier onlyAdmin() {\n        require(msg.sender == admin);\n        _;\n    }\n\n    function setAdmin(address _newAdmin) public onlyAdmin {\n        admin = _newAdmin;\n\n        emit adminChanged(admin);\n    }\n\n    function getRentalContractsForItem(address _item)\n        public\n        view\n        returns (address[] memory)\n    {\n        return rentalContractsForItem[_item];\n    }\n\n    function getUserContractForUser(address _userAddress)\n        public\n        view\n        returns (address)\n    {\n        return userContractForUser[_userAddress];\n    }\n\n    function hasUserContract(address _user) public view returns (bool) {\n        if (userContractForUser[_user] == address(0x0)) {\n            return false;\n        } else {\n            return true;\n        }\n    }\n\n    function createUserContractForNewUser(\n        address _user,\n        string memory _username,\n        string memory _deliveryAddress\n    ) public {\n        require(hasUserContract(_user) == false);\n\n        User newUserContract = new User(_user, _username, _deliveryAddress);\n        userContracts.push(address(newUserContract));\n        userContractForUser[_user] = address(newUserContract);\n        userCount++;\n\n        emit userContractCreated(_user, address(newUserContract));\n    }\n\n    function createItemContract(Item.ItemDetails calldata _itemDetails) public {\n        Item newItemContract = new Item(_itemDetails);\n        itemContracts.push(address(newItemContract));\n        hasItemContract[address(newItemContract)] = true;\n        itemCount++;\n\n        emit itemContractCreated(msg.sender, address(newItemContract));\n    }\n\n    // function createRentalContract\n}\n",
  "sourcePath": "/Users/jyuteo/CodeProjects/TRent/src/contracts/ContractFactory.sol",
  "compiler": {
    "name": "solc",
    "version": "0.8.7+commit.e28d00a7.Emscripten.clang"
  },
  "schemaVersion": "3.4.3",
  "updatedAt": "2021-08-22T14:18:53.389Z",
  "devdoc": {
    "kind": "dev",
    "methods": {},
    "version": 1
  },
  "userdoc": {
    "kind": "user",
    "methods": {},
    "version": 1
  }
}