{
  "contractName": "ContractFactory",
  "abi": [
    {
      "inputs": [],
      "stateMutability": "nonpayable",
      "type": "constructor"
    },
    {
      "anonymous": false,
      "inputs": [
        {
          "indexed": false,
          "internalType": "address",
          "name": "newAdmin",
          "type": "address"
        }
      ],
      "name": "adminChanged",
      "type": "event"
    },
    {
      "anonymous": false,
      "inputs": [
        {
          "indexed": false,
          "internalType": "address",
          "name": "userAddress",
          "type": "address"
        },
        {
          "indexed": false,
          "internalType": "address",
          "name": "userContractAddress",
          "type": "address"
        }
      ],
      "name": "userContractCreated",
      "type": "event"
    },
    {
      "inputs": [],
      "name": "admin",
      "outputs": [
        {
          "internalType": "address",
          "name": "",
          "type": "address"
        }
      ],
      "stateMutability": "view",
      "type": "function"
    },
    {
      "inputs": [
        {
          "internalType": "address",
          "name": "_newAdmin",
          "type": "address"
        }
      ],
      "name": "setAdmin",
      "outputs": [],
      "stateMutability": "nonpayable",
      "type": "function"
    },
    {
      "inputs": [
        {
          "internalType": "address",
          "name": "_userAddress",
          "type": "address"
        }
      ],
      "name": "getDeployedUserContractForUser",
      "outputs": [
        {
          "internalType": "address",
          "name": "",
          "type": "address"
        }
      ],
      "stateMutability": "view",
      "type": "function"
    },
    {
      "inputs": [
        {
          "internalType": "address",
          "name": "_user",
          "type": "address"
        }
      ],
      "name": "hasUserContract",
      "outputs": [
        {
          "internalType": "bool",
          "name": "",
          "type": "bool"
        }
      ],
      "stateMutability": "view",
      "type": "function"
    },
    {
      "inputs": [
        {
          "internalType": "address",
          "name": "_user",
          "type": "address"
        },
        {
          "internalType": "string",
          "name": "_username",
          "type": "string"
        },
        {
          "internalType": "string",
          "name": "_deliveryAddress",
          "type": "string"
        }
      ],
      "name": "createUserContractForNewUser",
      "outputs": [],
      "stateMutability": "nonpayable",
      "type": "function"
    }
  ],
  "bytecode": "0x608060405234801561001057600080fd5b50336000806101000a81548173ffffffffffffffffffffffffffffffffffffffff021916908373ffffffffffffffffffffffffffffffffffffffff160217905550612a64806100606000396000f3fe60806040523480156200001157600080fd5b50600436106200005e5760003560e01c80635013254a1462000063578063704b6c0214620000995780637809b9f114620000b9578063d072d7be14620000ef578063f851a440146200010f575b600080fd5b6200008160048036038101906200007b91906200051c565b62000131565b6040516200009091906200064b565b60405180910390f35b620000b76004803603810190620000b191906200051c565b6200019a565b005b620000d76004803603810190620000d191906200051c565b6200028f565b604051620000e69190620006e0565b60405180910390f35b6200010d60048036038101906200010791906200054e565b62000339565b005b6200011962000455565b6040516200012891906200064b565b60405180910390f35b6000600160008373ffffffffffffffffffffffffffffffffffffffff1673ffffffffffffffffffffffffffffffffffffffff16815260200190815260200160002060009054906101000a900473ffffffffffffffffffffffffffffffffffffffff169050919050565b60008054906101000a900473ffffffffffffffffffffffffffffffffffffffff1673ffffffffffffffffffffffffffffffffffffffff163373ffffffffffffffffffffffffffffffffffffffff1614620001f357600080fd5b806000806101000a81548173ffffffffffffffffffffffffffffffffffffffff021916908373ffffffffffffffffffffffffffffffffffffffff1602179055507fad19681a09902b2e83e20447a2012dbb1bea01d48dd453e74021ebab67e6664260008054906101000a900473ffffffffffffffffffffffffffffffffffffffff166040516200028491906200064b565b60405180910390a150565b60008073ffffffffffffffffffffffffffffffffffffffff16600160008473ffffffffffffffffffffffffffffffffffffffff1673ffffffffffffffffffffffffffffffffffffffff16815260200190815260200160002060009054906101000a900473ffffffffffffffffffffffffffffffffffffffff1673ffffffffffffffffffffffffffffffffffffffff1614156200032f576000905062000334565b600190505b919050565b6000151562000348846200028f565b1515146200035557600080fd5b6000838383604051620003689062000479565b620003769392919062000695565b604051809103906000f08015801562000393573d6000803e3d6000fd5b50905080600160008673ffffffffffffffffffffffffffffffffffffffff1673ffffffffffffffffffffffffffffffffffffffff16815260200190815260200160002060006101000a81548173ffffffffffffffffffffffffffffffffffffffff021916908373ffffffffffffffffffffffffffffffffffffffff1602179055507f3ae452c9d717870a928bfb2c4f7f6b7c239bfb392b9d6c0cdcf53e3fa8e7620184826040516200044792919062000668565b60405180910390a150505050565b60008054906101000a900473ffffffffffffffffffffffffffffffffffffffff1681565b61218d80620008a283390190565b60006200049e620004988462000726565b620006fd565b905082815260208101848484011115620004bd57620004bc62000867565b5b620004ca848285620007b8565b509392505050565b600081359050620004e38162000887565b92915050565b600082601f83011262000501576200050062000862565b5b81356200051384826020860162000487565b91505092915050565b60006020828403121562000535576200053462000871565b5b60006200054584828501620004d2565b91505092915050565b6000806000606084860312156200056a576200056962000871565b5b60006200057a86828701620004d2565b935050602084013567ffffffffffffffff8111156200059e576200059d6200086c565b5b620005ac86828701620004e9565b925050604084013567ffffffffffffffff811115620005d057620005cf6200086c565b5b620005de86828701620004e9565b9150509250925092565b620005f38162000778565b82525050565b62000604816200078c565b82525050565b600062000617826200075c565b62000623818562000767565b935062000635818560208601620007c7565b620006408162000876565b840191505092915050565b6000602082019050620006626000830184620005e8565b92915050565b60006040820190506200067f6000830185620005e8565b6200068e6020830184620005e8565b9392505050565b6000606082019050620006ac6000830186620005e8565b8181036020830152620006c081856200060a565b90508181036040830152620006d681846200060a565b9050949350505050565b6000602082019050620006f76000830184620005f9565b92915050565b6000620007096200071c565b9050620007178282620007fd565b919050565b6000604051905090565b600067ffffffffffffffff82111562000744576200074362000833565b5b6200074f8262000876565b9050602081019050919050565b600081519050919050565b600082825260208201905092915050565b6000620007858262000798565b9050919050565b60008115159050919050565b600073ffffffffffffffffffffffffffffffffffffffff82169050919050565b82818337600083830152505050565b60005b83811015620007e7578082015181840152602081019050620007ca565b83811115620007f7576000848401525b50505050565b620008088262000876565b810181811067ffffffffffffffff821117156200082a576200082962000833565b5b80604052505050565b7f4e487b7100000000000000000000000000000000000000000000000000000000600052604160045260246000fd5b600080fd5b600080fd5b600080fd5b600080fd5b6000601f19601f8301169050919050565b620008928162000778565b81146200089e57600080fd5b5056fe60806040523480156200001157600080fd5b506040516200218d3803806200218d833981810160405281019062000037919062000283565b82600160006101000a81548173ffffffffffffffffffffffffffffffffffffffff021916908373ffffffffffffffffffffffffffffffffffffffff1602179055508160029080519060200190620000909291906200013e565b508060039080519060200190620000a99291906200013e565b506000600560006101000a81548160ff021916908360ff1602179055506000600760006101000a81548160ff021916908360ff1602179055506000600760016101000a81548160ff021916908360ff1602179055506000600760026101000a81548160ff021916908360ff1602179055506000600760036101000a81548160ff021916908315150217905550505050620004ef565b8280546200014c90620003e6565b90600052602060002090601f016020900481019282620001705760008555620001bc565b82601f106200018b57805160ff1916838001178555620001bc565b82800160010185558215620001bc579182015b82811115620001bb5782518255916020019190600101906200019e565b5b509050620001cb9190620001cf565b5090565b5b80821115620001ea576000816000905550600101620001d0565b5090565b600062000205620001ff8462000346565b6200031d565b905082815260208101848484011115620002245762000223620004b5565b5b62000231848285620003b0565b509392505050565b6000815190506200024a81620004d5565b92915050565b600082601f830112620002685762000267620004b0565b5b81516200027a848260208601620001ee565b91505092915050565b6000806000606084860312156200029f576200029e620004bf565b5b6000620002af8682870162000239565b935050602084015167ffffffffffffffff811115620002d357620002d2620004ba565b5b620002e18682870162000250565b925050604084015167ffffffffffffffff811115620003055762000304620004ba565b5b620003138682870162000250565b9150509250925092565b6000620003296200033c565b90506200033782826200041c565b919050565b6000604051905090565b600067ffffffffffffffff82111562000364576200036362000481565b5b6200036f82620004c4565b9050602081019050919050565b6000620003898262000390565b9050919050565b600073ffffffffffffffffffffffffffffffffffffffff82169050919050565b60005b83811015620003d0578082015181840152602081019050620003b3565b83811115620003e0576000848401525b50505050565b60006002820490506001821680620003ff57607f821691505b6020821081141562000416576200041562000452565b5b50919050565b6200042782620004c4565b810181811067ffffffffffffffff8211171562000449576200044862000481565b5b80604052505050565b7f4e487b7100000000000000000000000000000000000000000000000000000000600052602260045260246000fd5b7f4e487b7100000000000000000000000000000000000000000000000000000000600052604160045260246000fd5b600080fd5b600080fd5b600080fd5b600080fd5b6000601f19601f8301169050919050565b620004e0816200037c565b8114620004ec57600080fd5b50565b611c8e80620004ff6000396000f3fe608060405234801561001057600080fd5b50600436106101165760003560e01c8063927584b9116100a2578063c2bd811911610071578063c2bd8119146102c2578063e4128fb3146102e0578063e5568317146102fe578063e85e79b61461031a578063ed59313a1461034f57610116565b8063927584b91461024e57806395578e581461026c578063a934899514610288578063b35ddf94146102a457610116565b806350d9de1d116100e957806350d9de1d146101915780635d30e84d146101af57806361fac54d146101e457806373ddea791461020257806390f1af6c1461021e57610116565b80632254df251461011b578063248640811461013957806326f2d18b1461015757806332cc4e8114610173575b600080fd5b61012361036b565b60405161013091906117e9565b60405180910390f35b61014161037e565b60405161014e9190611841565b60405180910390f35b610171600480360381019061016c9190611627565b610391565b005b61017b6103db565b6040516101889190611841565b60405180910390f35b6101996103ee565b6040516101a69190611841565b60405180910390f35b6101c960048036038101906101c491906115fa565b610401565b6040516101db96959493929190611781565b60405180910390f35b6101ec61052f565b6040516101f99190611804565b60405180910390f35b61021c6004803603810190610217919061151a565b6105bd565b005b61023860048036038101906102339190611459565b610a56565b6040516102459190611841565b60405180910390f35b610256610a76565b6040516102639190611826565b60405180910390f35b610286600480360381019061028191906114b3565b610af8565b005b6102a2600480360381019061029d91906114b3565b610d68565b005b6102ac610fd7565b6040516102b99190611841565b60405180910390f35b6102ca610fea565b6040516102d79190611804565b60405180910390f35b6102e8611078565b6040516102f59190611705565b60405180910390f35b610318600480360381019061031391906115b1565b61109e565b005b610334600480360381019061032f91906115fa565b611160565b60405161034696959493929190611720565b60405180910390f35b610369600480360381019061036491906115b1565b611206565b005b600760039054906101000a900460ff1681565b600760009054906101000a900460ff1681565b600060048260ff16815481106103aa576103a9611b6c565b5b9060005260206000209060040201905060018160010160156101000a81548160ff0219169083151502179055505050565b600560009054906101000a900460ff1681565b600760029054906101000a900460ff1681565b6006818154811061041157600080fd5b90600052602060002090600502016000915090508060000160009054906101000a900473ffffffffffffffffffffffffffffffffffffffff16908060010160009054906101000a900473ffffffffffffffffffffffffffffffffffffffff16908060010160149054906101000a900460ff169080600201805461049390611a09565b80601f01602080910402602001604051908101604052809291908181526020018280546104bf90611a09565b801561050c5780601f106104e15761010080835404028352916020019161050c565b820191906000526020600020905b8154815290600101906020018083116104ef57829003601f168201915b5050505050908060030160009054906101000a900460ff16908060040154905086565b6002805461053c90611a09565b80601f016020809104026020016040519081016040528092919081815260200182805461056890611a09565b80156105b55780601f1061058a576101008083540402835291602001916105b5565b820191906000526020600020905b81548152906001019060200180831161059857829003601f168201915b505050505081565b600160009054906101000a900473ffffffffffffffffffffffffffffffffffffffff1673ffffffffffffffffffffffffffffffffffffffff163373ffffffffffffffffffffffffffffffffffffffff16141561061857600080fd5b600084905060008173ffffffffffffffffffffffffffffffffffffffff166390f1af6c886040518263ffffffff1660e01b81526004016106589190611705565b60206040518083038186803b15801561067057600080fd5b505afa158015610684573d6000803e3d6000fd5b505050506040513d601f19601f820116820180604052508101906106a89190611654565b90508173ffffffffffffffffffffffffffffffffffffffff166326f2d18b826040518263ffffffff1660e01b81526004016106e39190611841565b600060405180830381600087803b1580156106fd57600080fd5b505af1158015610711573d6000803e3d6000fd5b5050505060006040518060c001604052808973ffffffffffffffffffffffffffffffffffffffff1681526020018473ffffffffffffffffffffffffffffffffffffffff1663e4128fb36040518163ffffffff1660e01b815260040160206040518083038186803b15801561078457600080fd5b505afa158015610798573d6000803e3d6000fd5b505050506040513d601f19601f820116820180604052508101906107bc9190611486565b73ffffffffffffffffffffffffffffffffffffffff1681526020018760ff1681526020018681526020018560018111156107f9576107f8611b0e565b5b8152602001428152509050600681908060018154018082558091505060019003906000526020600020906005020160009091909190915060008201518160000160006101000a81548173ffffffffffffffffffffffffffffffffffffffff021916908373ffffffffffffffffffffffffffffffffffffffff16021790555060208201518160010160006101000a81548173ffffffffffffffffffffffffffffffffffffffff021916908373ffffffffffffffffffffffffffffffffffffffff16021790555060408201518160010160146101000a81548160ff021916908360ff16021790555060608201518160020190805190602001906108fb9291906112c8565b5060808201518160030160006101000a81548160ff0219169083600181111561092757610926611b0e565b5b021790555060a0820151816004015550506007600081819054906101000a900460ff168092919061095790611ab5565b91906101000a81548160ff021916908360ff160217905550508273ffffffffffffffffffffffffffffffffffffffff1663e4128fb36040518163ffffffff1660e01b815260040160206040518083038186803b1580156109b657600080fd5b505afa1580156109ca573d6000803e3d6000fd5b505050506040513d601f19601f820116820180604052508101906109ee9190611486565b73ffffffffffffffffffffffffffffffffffffffff167f90a85869adb958b6374cf98f2a24b28f0db723127744011d6363487d50cef16187600760009054906101000a900460ff16604051610a4492919061185c565b60405180910390a25050505050505050565b60006020528060005260406000206000915054906101000a900460ff1681565b6000806000905060005b600760009054906101000a900460ff1660ff16811015610af05760068181548110610aae57610aad611b6c565b5b906000526020600020906005020160010160149054906101000a900460ff1660ff1682610adb91906118f7565b91508080610ae890611a6c565b915050610a80565b508091505090565b60006040518060c001604052808673ffffffffffffffffffffffffffffffffffffffff1681526020018573ffffffffffffffffffffffffffffffffffffffff16815260200160006001811115610b5157610b50611b0e565b5b81526020016000151581526020018481526020018381525090506007600181819054906101000a900460ff1680929190610b8a90611ab5565b91906101000a81548160ff021916908360ff16021790555050600481908060018154018082558091505060019003906000526020600020906004020160009091909190915060008201518160000160006101000a81548173ffffffffffffffffffffffffffffffffffffffff021916908373ffffffffffffffffffffffffffffffffffffffff16021790555060208201518160010160006101000a81548173ffffffffffffffffffffffffffffffffffffffff021916908373ffffffffffffffffffffffffffffffffffffffff16021790555060408201518160010160146101000a81548160ff02191690836001811115610c8857610c87611b0e565b5b021790555060608201518160010160156101000a81548160ff0219169083151502179055506080820151816002015560a082015181600301555050600560009054906101000a900460ff166000808773ffffffffffffffffffffffffffffffffffffffff1673ffffffffffffffffffffffffffffffffffffffff16815260200190815260200160002060006101000a81548160ff021916908360ff1602179055506005600081819054906101000a900460ff1680929190610d4890611ab5565b91906101000a81548160ff021916908360ff160217905550505050505050565b60006040518060c001604052808673ffffffffffffffffffffffffffffffffffffffff1681526020018573ffffffffffffffffffffffffffffffffffffffff168152602001600180811115610dc057610dbf611b0e565b5b81526020016000151581526020018481526020018381525090506007600281819054906101000a900460ff1680929190610df990611ab5565b91906101000a81548160ff021916908360ff16021790555050600481908060018154018082558091505060019003906000526020600020906004020160009091909190915060008201518160000160006101000a81548173ffffffffffffffffffffffffffffffffffffffff021916908373ffffffffffffffffffffffffffffffffffffffff16021790555060208201518160010160006101000a81548173ffffffffffffffffffffffffffffffffffffffff021916908373ffffffffffffffffffffffffffffffffffffffff16021790555060408201518160010160146101000a81548160ff02191690836001811115610ef757610ef6611b0e565b5b021790555060608201518160010160156101000a81548160ff0219169083151502179055506080820151816002015560a082015181600301555050600560009054906101000a900460ff166000808773ffffffffffffffffffffffffffffffffffffffff1673ffffffffffffffffffffffffffffffffffffffff16815260200190815260200160002060006101000a81548160ff021916908360ff1602179055506005600081819054906101000a900460ff1680929190610fb790611ab5565b91906101000a81548160ff021916908360ff160217905550505050505050565b600760019054906101000a900460ff1681565b60038054610ff790611a09565b80601f016020809104026020016040519081016040528092919081815260200182805461102390611a09565b80156110705780601f1061104557610100808354040283529160200191611070565b820191906000526020600020905b81548152906001019060200180831161105357829003601f168201915b505050505081565b600160009054906101000a900473ffffffffffffffffffffffffffffffffffffffff1681565b600160009054906101000a900473ffffffffffffffffffffffffffffffffffffffff1673ffffffffffffffffffffffffffffffffffffffff163373ffffffffffffffffffffffffffffffffffffffff16146110f857600080fd5b806003908051906020019061110e9291906112c8565b503373ffffffffffffffffffffffffffffffffffffffff167ff01f8beedc6b4ff8605063d6b438798f7caa71e19ea3097a733f57c40072a320826040516111559190611804565b60405180910390a250565b6004818154811061117057600080fd5b90600052602060002090600402016000915090508060000160009054906101000a900473ffffffffffffffffffffffffffffffffffffffff16908060010160009054906101000a900473ffffffffffffffffffffffffffffffffffffffff16908060010160149054906101000a900460ff16908060010160159054906101000a900460ff16908060020154908060030154905086565b600160009054906101000a900473ffffffffffffffffffffffffffffffffffffffff1673ffffffffffffffffffffffffffffffffffffffff163373ffffffffffffffffffffffffffffffffffffffff161461126057600080fd5b80600290805190602001906112769291906112c8565b503373ffffffffffffffffffffffffffffffffffffffff167ff07516e9449b46121f3f7f7cb800fb5f90f7ee9e442a5479e8e3bab929d71b77826040516112bd9190611804565b60405180910390a250565b8280546112d490611a09565b90600052602060002090601f0160209004810192826112f6576000855561133d565b82601f1061130f57805160ff191683800117855561133d565b8280016001018555821561133d579182015b8281111561133c578251825591602001919060010190611321565b5b50905061134a919061134e565b5090565b5b8082111561136757600081600090555060010161134f565b5090565b600061137e611379846118aa565b611885565b90508281526020810184848401111561139a57611399611bcf565b5b6113a58482856119c7565b509392505050565b6000813590506113bc81611c03565b92915050565b6000815190506113d181611c03565b92915050565b6000813590506113e681611c1a565b92915050565b600082601f83011261140157611400611bca565b5b813561141184826020860161136b565b91505092915050565b60008135905061142981611c2a565b92915050565b60008135905061143e81611c41565b92915050565b60008151905061145381611c41565b92915050565b60006020828403121561146f5761146e611bd9565b5b600061147d848285016113ad565b91505092915050565b60006020828403121561149c5761149b611bd9565b5b60006114aa848285016113c2565b91505092915050565b600080600080608085870312156114cd576114cc611bd9565b5b60006114db878288016113ad565b94505060206114ec878288016113ad565b93505060406114fd8782880161141a565b925050606061150e8782880161141a565b91505092959194509250565b600080600080600060a0868803121561153657611535611bd9565b5b6000611544888289016113ad565b9550506020611555888289016113ad565b94505060406115668882890161142f565b935050606086013567ffffffffffffffff81111561158757611586611bd4565b5b611593888289016113ec565b92505060806115a4888289016113d7565b9150509295509295909350565b6000602082840312156115c7576115c6611bd9565b5b600082013567ffffffffffffffff8111156115e5576115e4611bd4565b5b6115f1848285016113ec565b91505092915050565b6000602082840312156116105761160f611bd9565b5b600061161e8482850161141a565b91505092915050565b60006020828403121561163d5761163c611bd9565b5b600061164b8482850161142f565b91505092915050565b60006020828403121561166a57611669611bd9565b5b600061167884828501611444565b91505092915050565b61168a8161194d565b82525050565b6116998161195f565b82525050565b6116a8816119b5565b82525050565b60006116b9826118db565b6116c381856118e6565b93506116d38185602086016119d6565b6116dc81611bde565b840191505092915050565b6116f08161199e565b82525050565b6116ff816119a8565b82525050565b600060208201905061171a6000830184611681565b92915050565b600060c0820190506117356000830189611681565b6117426020830188611681565b61174f604083018761169f565b61175c6060830186611690565b61176960808301856116e7565b61177660a08301846116e7565b979650505050505050565b600060c0820190506117966000830189611681565b6117a36020830188611681565b6117b060408301876116f6565b81810360608301526117c281866116ae565b90506117d1608083018561169f565b6117de60a08301846116e7565b979650505050505050565b60006020820190506117fe6000830184611690565b92915050565b6000602082019050818103600083015261181e81846116ae565b905092915050565b600060208201905061183b60008301846116e7565b92915050565b600060208201905061185660008301846116f6565b92915050565b600060408201905061187160008301856116f6565b61187e60208301846116f6565b9392505050565b600061188f6118a0565b905061189b8282611a3b565b919050565b6000604051905090565b600067ffffffffffffffff8211156118c5576118c4611b9b565b5b6118ce82611bde565b9050602081019050919050565b600081519050919050565b600082825260208201905092915050565b60006119028261199e565b915061190d8361199e565b9250827fffffffffffffffffffffffffffffffffffffffffffffffffffffffffffffffff0382111561194257611941611adf565b5b828201905092915050565b60006119588261197e565b9050919050565b60008115159050919050565b600081905061197982611bef565b919050565b600073ffffffffffffffffffffffffffffffffffffffff82169050919050565b6000819050919050565b600060ff82169050919050565b60006119c08261196b565b9050919050565b82818337600083830152505050565b60005b838110156119f45780820151818401526020810190506119d9565b83811115611a03576000848401525b50505050565b60006002820490506001821680611a2157607f821691505b60208210811415611a3557611a34611b3d565b5b50919050565b611a4482611bde565b810181811067ffffffffffffffff82111715611a6357611a62611b9b565b5b80604052505050565b6000611a778261199e565b91507fffffffffffffffffffffffffffffffffffffffffffffffffffffffffffffffff821415611aaa57611aa9611adf565b5b600182019050919050565b6000611ac0826119a8565b915060ff821415611ad457611ad3611adf565b5b600182019050919050565b7f4e487b7100000000000000000000000000000000000000000000000000000000600052601160045260246000fd5b7f4e487b7100000000000000000000000000000000000000000000000000000000600052602160045260246000fd5b7f4e487b7100000000000000000000000000000000000000000000000000000000600052602260045260246000fd5b7f4e487b7100000000000000000000000000000000000000000000000000000000600052603260045260246000fd5b7f4e487b7100000000000000000000000000000000000000000000000000000000600052604160045260246000fd5b600080fd5b600080fd5b600080fd5b600080fd5b6000601f19601f8301169050919050565b60028110611c0057611bff611b0e565b5b50565b611c0c8161194d565b8114611c1757600080fd5b50565b60028110611c2757600080fd5b50565b611c338161199e565b8114611c3e57600080fd5b50565b611c4a816119a8565b8114611c5557600080fd5b5056fea2646970667358221220e0323eff1cc1e91d90db819c3089839ddaa72c21cfe7099e8e4fe619a35132ce64736f6c63430008070033a2646970667358221220f5567a55a393b82741649f1a52917d6af64ddab4b93795c523c727cde833969b64736f6c63430008070033",
  "immutableReferences": {},
  "source": "// SPDX-License-Identifier: GPL-3.0\n\npragma solidity >=0.7.0 <0.9.0;\n\nimport \"./User.sol\";\n\ncontract ContractFactory {\n    address public admin;\n\n    constructor() {\n        admin = msg.sender;\n    }\n\n    modifier onlyAdmin() {\n        require(msg.sender == admin);\n        _;\n    }\n\n    // address[] internal deployedItemContracts;\n\n    // map Item contract to a list of Rental contracts of the item\n    // mapping(address => address[]) internal deployedRentalContractsForItem;\n\n    // map user address to deployed User contract\n    mapping(address => address) internal deployedUserContractForUser;\n\n    event adminChanged(address newAdmin);\n    event userContractCreated(address userAddress, address userContractAddress);\n\n    function setAdmin(address _newAdmin) public onlyAdmin {\n        admin = _newAdmin;\n\n        emit adminChanged(admin);\n    }\n\n    // function getDeployedItemContracts() public view returns (address[] memory) {\n    //     return deployedItemContracts;\n    // }\n\n    // function getDeployedRentalContractsForItem(address _item)\n    //     public\n    //     view\n    //     returns (address[] memory)\n    // {\n    //     return deployedRentalContractsForItem[_item];\n    // }\n\n    function getDeployedUserContractForUser(address _userAddress)\n        public\n        view\n        returns (address)\n    {\n        return deployedUserContractForUser[_userAddress];\n    }\n\n    function hasUserContract(address _user) public view returns (bool) {\n        if (deployedUserContractForUser[_user] == address(0x0)) {\n            return false;\n        } else {\n            return true;\n        }\n    }\n\n    function createUserContractForNewUser(\n        address _user,\n        string memory _username,\n        string memory _deliveryAddress\n    ) public {\n        require(hasUserContract(_user) == false);\n\n        User newUserContract = new User(_user, _username, _deliveryAddress);\n        deployedUserContractForUser[_user] = address(newUserContract);\n\n        emit userContractCreated(_user, address(newUserContract));\n    }\n\n    // function hasItemContract\n\n    // function createItemContract\n\n    // function createRentalContract\n}\n",
  "sourcePath": "/Users/jyuteo/CodeProjects/TRent/src/contracts/ContractFactory.sol",
  "compiler": {
    "name": "solc",
    "version": "0.8.7+commit.e28d00a7.Emscripten.clang"
  },
  "schemaVersion": "3.4.3",
  "updatedAt": "2021-08-22T06:33:23.891Z",
  "devdoc": {
    "kind": "dev",
    "methods": {},
    "version": 1
  },
  "userdoc": {
    "kind": "user",
    "methods": {},
    "version": 1
  }
}