{
  "contractName": "ContractFactory",
  "abi": [
    {
      "inputs": [],
      "stateMutability": "nonpayable",
      "type": "constructor"
    },
    {
      "anonymous": false,
      "inputs": [
        {
          "indexed": false,
          "internalType": "address",
          "name": "newAdmin",
          "type": "address"
        }
      ],
      "name": "adminChanged",
      "type": "event"
    },
    {
      "anonymous": false,
      "inputs": [
        {
          "indexed": false,
          "internalType": "address",
          "name": "itemOwnerAddress",
          "type": "address"
        },
        {
          "indexed": false,
          "internalType": "address",
          "name": "itemContractAddress",
          "type": "address"
        }
      ],
      "name": "itemContractCreated",
      "type": "event"
    },
    {
      "anonymous": false,
      "inputs": [
        {
          "indexed": false,
          "internalType": "address",
          "name": "userAddress",
          "type": "address"
        },
        {
          "indexed": false,
          "internalType": "address",
          "name": "userContractAddress",
          "type": "address"
        }
      ],
      "name": "userContractCreated",
      "type": "event"
    },
    {
      "inputs": [],
      "name": "admin",
      "outputs": [
        {
          "internalType": "address",
          "name": "",
          "type": "address"
        }
      ],
      "stateMutability": "view",
      "type": "function"
    },
    {
      "inputs": [
        {
          "internalType": "address",
          "name": "",
          "type": "address"
        }
      ],
      "name": "hasItemContract",
      "outputs": [
        {
          "internalType": "bool",
          "name": "",
          "type": "bool"
        }
      ],
      "stateMutability": "view",
      "type": "function"
    },
    {
      "inputs": [
        {
          "internalType": "uint256",
          "name": "",
          "type": "uint256"
        }
      ],
      "name": "itemContracts",
      "outputs": [
        {
          "internalType": "address",
          "name": "",
          "type": "address"
        }
      ],
      "stateMutability": "view",
      "type": "function"
    },
    {
      "inputs": [],
      "name": "itemCount",
      "outputs": [
        {
          "internalType": "uint256",
          "name": "",
          "type": "uint256"
        }
      ],
      "stateMutability": "view",
      "type": "function"
    },
    {
      "inputs": [
        {
          "internalType": "uint256",
          "name": "",
          "type": "uint256"
        }
      ],
      "name": "userContracts",
      "outputs": [
        {
          "internalType": "address",
          "name": "",
          "type": "address"
        }
      ],
      "stateMutability": "view",
      "type": "function"
    },
    {
      "inputs": [],
      "name": "userCount",
      "outputs": [
        {
          "internalType": "uint256",
          "name": "",
          "type": "uint256"
        }
      ],
      "stateMutability": "view",
      "type": "function"
    },
    {
      "inputs": [
        {
          "internalType": "address",
          "name": "_newAdmin",
          "type": "address"
        }
      ],
      "name": "setAdmin",
      "outputs": [],
      "stateMutability": "nonpayable",
      "type": "function"
    },
    {
      "inputs": [
        {
          "internalType": "address",
          "name": "_item",
          "type": "address"
        }
      ],
      "name": "getRentalContractsForItem",
      "outputs": [
        {
          "internalType": "address[]",
          "name": "",
          "type": "address[]"
        }
      ],
      "stateMutability": "view",
      "type": "function"
    },
    {
      "inputs": [
        {
          "internalType": "address",
          "name": "_userAddress",
          "type": "address"
        }
      ],
      "name": "getUserContractForUser",
      "outputs": [
        {
          "internalType": "address",
          "name": "",
          "type": "address"
        }
      ],
      "stateMutability": "view",
      "type": "function"
    },
    {
      "inputs": [
        {
          "internalType": "address",
          "name": "_user",
          "type": "address"
        }
      ],
      "name": "hasUserContract",
      "outputs": [
        {
          "internalType": "bool",
          "name": "",
          "type": "bool"
        }
      ],
      "stateMutability": "view",
      "type": "function"
    },
    {
      "inputs": [
        {
          "internalType": "address",
          "name": "_user",
          "type": "address"
        },
        {
          "internalType": "string",
          "name": "_username",
          "type": "string"
        },
        {
          "internalType": "string",
          "name": "_deliveryAddress",
          "type": "string"
        }
      ],
      "name": "createUserContractForNewUser",
      "outputs": [],
      "stateMutability": "nonpayable",
      "type": "function"
    },
    {
      "inputs": [
        {
          "components": [
            {
              "internalType": "address",
              "name": "ownerUserContract",
              "type": "address"
            },
            {
              "internalType": "address payable",
              "name": "ownerAddress",
              "type": "address"
            },
            {
              "internalType": "string",
              "name": "name",
              "type": "string"
            },
            {
              "internalType": "string",
              "name": "collectionOrReturnAddress",
              "type": "string"
            },
            {
              "internalType": "string",
              "name": "description",
              "type": "string"
            },
            {
              "internalType": "uint256",
              "name": "rentPerDay",
              "type": "uint256"
            },
            {
              "internalType": "uint8",
              "name": "maxAllowableLateDays",
              "type": "uint8"
            },
            {
              "internalType": "uint8",
              "name": "multipleForLateFees",
              "type": "uint8"
            },
            {
              "internalType": "bool",
              "name": "isAvailableForRent",
              "type": "bool"
            },
            {
              "internalType": "string",
              "name": "mediaIPFSHashes",
              "type": "string"
            }
          ],
          "internalType": "struct Item.ItemDetails",
          "name": "_itemDetails",
          "type": "tuple"
        }
      ],
      "name": "createItemContract",
      "outputs": [],
      "stateMutability": "nonpayable",
      "type": "function"
    }
  ],
  "bytecode": "0x608060405234801561001057600080fd5b50600080546001600160a01b031916331790556141d6806100326000396000f3fe60806040523480156200001157600080fd5b5060043610620000c35760003560e01c80637809b9f1116200007a5780637809b9f11462000175578063a437fde7146200019d578063cd2d128514620001c3578063cd93c74d14620001f2578063d072d7be1462000209578063f851a440146200022057600080fd5b806307973ccf14620000c85780632e3d147714620000e55780634805a5ca146200011557806365eafaad146200013b5780636bfb0d011462000154578063704b6c02146200015e575b600080fd5b620000d260025481565b6040519081526020015b60405180910390f35b620000fc620000f63660046200076e565b62000234565b6040516001600160a01b039091168152602001620000dc565b6200012c620001263660046200067c565b6200025f565b604051620000dc9190620007f9565b620001526200014c3660046200072f565b620002d7565b005b620000d260045481565b620001526200016f3660046200067c565b620003fa565b6200018c620001863660046200067c565b62000466565b6040519015158152602001620000dc565b6200018c620001ae3660046200067c565b60076020526000908152604090205460ff1681565b620000fc620001d43660046200067c565b6001600160a01b039081166000908152600660205260409020541690565b620000fc620002033660046200076e565b6200049d565b620001526200021a366004620006a3565b620004ae565b600054620000fc906001600160a01b031681565b600381815481106200024557600080fd5b6000918252602090912001546001600160a01b0316905081565b6001600160a01b038116600090815260056020908152604091829020805483518184028101840190945280845260609392830182828015620002cb57602002820191906000526020600020905b81546001600160a01b03168152600190910190602001808311620002ac575b50505050509050919050565b33620002ea60408301602084016200067c565b6001600160a01b031614620002fe57600080fd5b6000816040516200030f90620005e4565b6200031b919062000848565b604051809103906000f08015801562000338573d6000803e3d6000fd5b506003805460018082019092557fc2575a0e9e593c00f959f8c92f12db2869c3395a3b0502d05e2516446f71f85b0180546001600160a01b0319166001600160a01b0384169081179091556000908152600760205260408120805460ff19169092179091556004805492935090620003b083620009f6565b9091555050604080513381526001600160a01b03831660208201527f7379fa3640d5306b2f58ed7095b1c06028b5a430af35578de16d50db415b706b910160405180910390a15050565b6000546001600160a01b031633146200041257600080fd5b600080546001600160a01b0319166001600160a01b0383169081179091556040519081527fad19681a09902b2e83e20447a2012dbb1bea01d48dd453e74021ebab67e666429060200160405180910390a150565b6001600160a01b038181166000908152600660205260408120549091166200049057506000919050565b506001919050565b919050565b600181815481106200024557600080fd5b620004b98562000466565b15620004c457600080fd5b6001600160a01b0385163314620004da57600080fd5b60008585858585604051620004ef90620005f2565b620004ff959493929190620007b1565b604051809103906000f0801580156200051c573d6000803e3d6000fd5b50600180548082019091557fb10e2d527612073b26eecdfd717e6a320cf44b4afac2b0732d9fcbe2b7fa0cf60180546001600160a01b038084166001600160a01b03199283168117909355891660009081526006602052604081208054909216909217905560028054929350906200059483620009f6565b9091555050604080516001600160a01b038089168252831660208201527f3ae452c9d717870a928bfb2c4f7f6b7c239bfb392b9d6c0cdcf53e3fa8e76201910160405180910390a1505050505050565b6122ce8062000a3a83390190565b6114998062002d0883390190565b8035620004988162000a20565b803580151581146200049857600080fd5b60008083601f8401126200063157600080fd5b50813567ffffffffffffffff8111156200064a57600080fd5b6020830191508360208285010111156200066357600080fd5b9250929050565b803560ff811681146200049857600080fd5b6000602082840312156200068f57600080fd5b81356200069c8162000a20565b9392505050565b600080600080600060608688031215620006bc57600080fd5b8535620006c98162000a20565b9450602086013567ffffffffffffffff80821115620006e757600080fd5b620006f589838a016200061e565b909650945060408801359150808211156200070f57600080fd5b506200071e888289016200061e565b969995985093965092949392505050565b6000602082840312156200074257600080fd5b813567ffffffffffffffff8111156200075a57600080fd5b820161014081850312156200069c57600080fd5b6000602082840312156200078157600080fd5b5035919050565b81835281816020850137506000828201602090810191909152601f909101601f19169091010190565b6001600160a01b0386168152606060208201819052600090620007d8908301868862000788565b8281036040840152620007ed81858762000788565b98975050505050505050565b6020808252825182820181905260009190848201906040850190845b818110156200083c5783516001600160a01b03168352928401929184019160010162000815565b50909695505050505050565b602081526200086c602082016200085f8462000600565b6001600160a01b03169052565b60006200087c6020840162000600565b6001600160a01b0381166040840152506200089b6040840184620009ad565b610140806060860152620008b56101608601838562000788565b9250620008c66060870187620009ad565b9250601f1980878603016080880152620008e285858462000788565b9450620008f36080890189620009ad565b94509150808786030160a08801526200090e85858462000788565b945060a088013560c08801526200092860c089016200066a565b60ff811660e089015293506200094160e089016200066a565b93506101009150620009578288018560ff169052565b620009648289016200060d565b93506101209150620009798288018515159052565b6200098782890189620009ad565b9450915080878603018388015250620009a284848362000788565b979650505050505050565b6000808335601e19843603018112620009c557600080fd5b830160208101925035905067ffffffffffffffff811115620009e657600080fd5b8036038313156200066357600080fd5b600060001982141562000a1957634e487b7160e01b600052601160045260246000fd5b5060010190565b6001600160a01b038116811462000a3657600080fd5b5056fe60806040526040516200001290620001fb565b604051809103906000f0801580156200002f573d6000803e3d6000fd5b50600080546001600160a01b0319166001600160a01b03929092169190911790553480156200005d57600080fd5b50604051620022ce380380620022ce833981016040819052620000809162000384565b8051600380546001600160a01b03199081166001600160a01b03938416178255602080850151600480549093169416939093179055604083015180518493620000cf9260059291019062000209565b5060608201518051620000ed91600384019160209091019062000209565b50608082015180516200010b91600484019160209091019062000209565b5060a0820151600582015560c082015160068201805460e0850151610100808701511515620100000262ff00001960ff93841690920261ffff199094169290951691909117919091171691909117905561012082015180516200017991600784019160209091019062000209565b5050600354600180546001600160a01b039283166001600160a01b031991821617909155600454600280549190931691161790555060095462010000900460ff1615620001d057600b805460ff19169055620001de565b600b805460ff191660011790555b50600d805460ff199081169091556010805490911690556200058e565b6106698062001c6583390190565b82805462000217906200053b565b90600052602060002090601f0160209004810192826200023b576000855562000286565b82601f106200025657805160ff191683800117855562000286565b8280016001018555821562000286579182015b828111156200028657825182559160200191906001019062000269565b506200029492915062000298565b5090565b5b8082111562000294576000815560010162000299565b80516001600160a01b0381168114620002c757600080fd5b919050565b80518015158114620002c757600080fd5b600082601f830112620002ef57600080fd5b81516001600160401b038111156200030b576200030b62000578565b602062000321601f8301601f1916820162000508565b82815285828487010111156200033657600080fd5b60005b838110156200035657858101830151828201840152820162000339565b83811115620003685760008385840101525b5095945050505050565b805160ff81168114620002c757600080fd5b6000602082840312156200039757600080fd5b81516001600160401b0380821115620003af57600080fd5b908301906101408286031215620003c557600080fd5b620003cf620004dc565b620003da83620002af565b8152620003ea60208401620002af565b60208201526040830151828111156200040257600080fd5b6200041087828601620002dd565b6040830152506060830151828111156200042957600080fd5b6200043787828601620002dd565b6060830152506080830151828111156200045057600080fd5b6200045e87828601620002dd565b60808301525060a083015160a08201526200047c60c0840162000372565b60c08201526200048f60e0840162000372565b60e0820152610100620004a4818501620002cc565b908201526101208381015183811115620004bd57600080fd5b620004cb88828701620002dd565b918301919091525095945050505050565b60405161014081016001600160401b038111828210171562000502576200050262000578565b60405290565b604051601f8201601f191681016001600160401b038111828210171562000533576200053362000578565b604052919050565b600181811c908216806200055057607f821691505b602082108114156200057257634e487b7160e01b600052602260045260246000fd5b50919050565b634e487b7160e01b600052604160045260246000fd5b6116c7806200059e6000396000f3fe608060405234801561001057600080fd5b50600436106101375760003560e01c80638f84aa09116100b8578063a871c2311161007c578063a871c231146102c7578063dcc3974b146102da578063dce59d10146102ed578063e3d0c9d214610300578063f00d4b5d14610313578063ffd369cc1461032657600080fd5b80638f84aa091461024157806399fdcd3c146102545780639e18eb76146102675780639f2bc40e1461027a578063a50ad359146102ad57600080fd5b80636679497b116100ff5780636679497b146101d55780636e309a8b146101e85780637c81d123146101fb57806382770a431461021057806386941d291461022e57600080fd5b806321fb7ee81461013c57806352ab52bb1461016957806353da02061461017e57806356ca4cfb146101a957806363737c51146101c8575b600080fd5b61014f61014a36600461115d565b610339565b604080519283526020830191909152015b60405180910390f35b61017c610177366004611009565b610367565b005b61019161018c36600461115d565b610475565b6040516001600160a01b039091168152602001610160565b6010546101b69060ff1681565b60405160ff9091168152602001610160565b600d546101b69060ff1681565b61017c6101e3366004611176565b61049f565b61017c6101f636600461103e565b610579565b6102036105be565b60405161016091906114aa565b6102186108bd565b6040516101609a99989796959493929190611220565b61017c61023c36600461103e565b610b35565b600254610191906001600160a01b031681565b61017c61026236600461103e565b610b7a565b61017c610275366004610fac565b610bf0565b61029d610288366004610fac565b60116020526000908152604090205460ff1681565b6040519015158152602001610160565b600b546102ba9060ff1681565b6040516101609190611496565b61017c6102d536600461103e565b610c8c565b6101916102e836600461115d565b610cd1565b600154610191906001600160a01b031681565b61017c61030e36600461115d565b610ce1565b61017c610321366004610fd0565b610d9f565b61017c610334366004611176565b610e36565b600e818154811061034957600080fd5b60009182526020909120600290910201805460019091015490915082565b3360009081526011602052604090205460ff1661038357600080fd5b600c805460018101825560009182527fdf6966c971051c3d54ec59162606531493a51404a002842f56009d7e5cf4a8c70180546001600160a01b0319166001600160a01b038616179055600d805460ff16916103de83611615565b82546101009290920a60ff818102199093169190921691909102179055506040805180820190915291825260208201908152600e805460018101825560009190915291517fbb7b4a454dc3493923482f07822329ed19e8244eff582cc204f8554c3620c3fd600290930292830155517fbb7b4a454dc3493923482f07822329ed19e8244eff582cc204f8554c3620c3fe9091015550565b600c818154811061048557600080fd5b6000918252602090912001546001600160a01b0316905081565b6002546001600160a01b031633146104b657600080fd5b6009805460ff191660ff831690811790915560008054604051637bb7ca8760e11b8152600481019390935290916001600160a01b039091169063f76f950e9060240160006040518083038186803b15801561051057600080fd5b505afa158015610524573d6000803e3d6000fd5b505050506040513d6000823e601f3d908101601f1916820160405261054c91908101906110b0565b9050600080516020611672833981519152308260405161056d9291906113b9565b60405180910390a15050565b6002546001600160a01b0316331461059057600080fd5b61059c60078383610f13565b5060008051602061167283398151915230838360405161056d939291906112d9565b604080516101408101825260008082526020820181905260609282018390528282018390526080820183905260a0820181905260c0820181905260e082018190526101008201526101208101919091526040805161014081018252600380546001600160a01b039081168352600454166020830152600580549293919291840191610648906115da565b80601f0160208091040260200160405190810160405280929190818152602001828054610674906115da565b80156106c15780601f10610696576101008083540402835291602001916106c1565b820191906000526020600020905b8154815290600101906020018083116106a457829003601f168201915b505050505081526020016003820180546106da906115da565b80601f0160208091040260200160405190810160405280929190818152602001828054610706906115da565b80156107535780601f1061072857610100808354040283529160200191610753565b820191906000526020600020905b81548152906001019060200180831161073657829003601f168201915b5050505050815260200160048201805461076c906115da565b80601f0160208091040260200160405190810160405280929190818152602001828054610798906115da565b80156107e55780601f106107ba576101008083540402835291602001916107e5565b820191906000526020600020905b8154815290600101906020018083116107c857829003601f168201915b505050918352505060058201546020820152600682015460ff808216604084015261010082048116606084015262010000909104161515608082015260078201805460a090920191610836906115da565b80601f0160208091040260200160405190810160405280929190818152602001828054610862906115da565b80156108af5780601f10610884576101008083540402835291602001916108af565b820191906000526020600020905b81548152906001019060200180831161089257829003601f168201915b505050505081525050905090565b60038054600454600580546001600160a01b039384169492909316926108e2906115da565b80601f016020809104026020016040519081016040528092919081815260200182805461090e906115da565b801561095b5780601f106109305761010080835404028352916020019161095b565b820191906000526020600020905b81548152906001019060200180831161093e57829003601f168201915b505050505090806003018054610970906115da565b80601f016020809104026020016040519081016040528092919081815260200182805461099c906115da565b80156109e95780601f106109be576101008083540402835291602001916109e9565b820191906000526020600020905b8154815290600101906020018083116109cc57829003601f168201915b5050505050908060040180546109fe906115da565b80601f0160208091040260200160405190810160405280929190818152602001828054610a2a906115da565b8015610a775780601f10610a4c57610100808354040283529160200191610a77565b820191906000526020600020905b815481529060010190602001808311610a5a57829003601f168201915b50505050600583015460068401546007850180549495929460ff808416955061010084048116946201000090940416929190610ab2906115da565b80601f0160208091040260200160405190810160405280929190818152602001828054610ade906115da565b8015610b2b5780601f10610b0057610100808354040283529160200191610b2b565b820191906000526020600020905b815481529060010190602001808311610b0e57829003601f168201915b505050505090508a565b6002546001600160a01b03163314610b4c57600080fd5b610b5860068383610f13565b5060008051602061167283398151915230838360405161056d93929190611326565b6002546001600160a01b03163314610b9157600080fd5b610b9d600a8383610f13565b5060008282604051602001610bb3929190611210565b60405160208183030381529060405290506000805160206116728339815191523082604051610be392919061144f565b60405180910390a1505050565b600f805460018101825560009182527f8d1108e10bcb7c27dddfc02ed9d693a074039d026cf4ea4240b40f7d581ac8020180546001600160a01b0319166001600160a01b0384161790556010805460ff1691610c4b83611615565b825460ff9182166101009390930a9283029190920219909116179055506001600160a01b03166000908152601160205260409020805460ff19166001179055565b6002546001600160a01b03163314610ca357600080fd5b610caf60058383610f13565b5060008051602061167283398151915230838360405161056d9392919061137c565b600f818154811061048557600080fd5b6002546001600160a01b03163314610cf857600080fd5b600881905560008054604051637bb7ca8760e11b8152600481018490526001600160a01b039091169063f76f950e9060240160006040518083038186803b158015610d4257600080fd5b505afa158015610d56573d6000803e3d6000fd5b505050506040513d6000823e601f3d908101601f19168201604052610d7e91908101906110b0565b9050600080516020611672833981519152308260405161056d92919061140d565b6002546001600160a01b03163314610db657600080fd5b600380546001600160a01b038481166001600160a01b031992831681179093556004805491851691831682179055600180548316841790556002805490921681179091556040805130815260208101939093528201527f391e7445162e95b0462700ab996083fc3e40222a108de81e4fbea5e9ddfdaae19060600161056d565b6002546001600160a01b03163314610e4d57600080fd5b60ff8116610e80576009805462ff0000191662010000179055600b80546000919060ff19166001835b0217905550610ed1565b8060ff1660011415610eab576009805462ff000019169055600b80546001919060ff19168280610e76565b8060ff1660021415610ed1576009805462ff000019169055600b805460ff191660021790555b600b546040517f8c5acf85d257fc548b6710d2ceeffe7d4b9b4dc7ed2866b316815c2ab592b9f691610f0891309160ff16906112bc565b60405180910390a150565b828054610f1f906115da565b90600052602060002090601f016020900481019282610f415760008555610f87565b82601f10610f5a5782800160ff19823516178555610f87565b82800160010185558215610f87579182015b82811115610f87578235825591602001919060010190610f6c565b50610f93929150610f97565b5090565b5b80821115610f935760008155600101610f98565b600060208284031215610fbe57600080fd5b8135610fc981611659565b9392505050565b60008060408385031215610fe357600080fd5b8235610fee81611659565b91506020830135610ffe81611659565b809150509250929050565b60008060006060848603121561101e57600080fd5b833561102981611659565b95602085013595506040909401359392505050565b6000806020838503121561105157600080fd5b823567ffffffffffffffff8082111561106957600080fd5b818501915085601f83011261107d57600080fd5b81358181111561108c57600080fd5b86602082850101111561109e57600080fd5b60209290920196919550909350505050565b6000602082840312156110c257600080fd5b815167ffffffffffffffff808211156110da57600080fd5b818401915084601f8301126110ee57600080fd5b81518181111561110057611100611643565b604051601f8201601f19908116603f0116810190838211818310171561112857611128611643565b8160405282815287602084870101111561114157600080fd5b6111528360208301602088016115aa565b979650505050505050565b60006020828403121561116f57600080fd5b5035919050565b60006020828403121561118857600080fd5b813560ff81168114610fc957600080fd5b600381106111b757634e487b7160e01b600052602160045260246000fd5b9052565b81835281816020850137506000828201602090810191909152601f909101601f19169091010190565b600081518084526111fc8160208601602086016115aa565b601f01601f19169290920160200192915050565b8183823760009101908152919050565b6001600160a01b038b811682528a1660208201526101406040820181905260009061124d8382018c6111e4565b90508281036060840152611261818b6111e4565b90508281036080840152611275818a6111e4565b90508760a084015260ff871660c084015260ff861660e08401528415156101008401528281036101208401526112ab81856111e4565b9d9c50505050505050505050505050565b6001600160a01b038316815260408101610fc96020830184611199565b60018060a01b038416815260606020820152600b60608201526a3232b9b1b934b83a34b7b760a91b608082015260a06040820152600061131d60a0830184866111bb565b95945050505050565b60018060a01b038416815260606020820152601860608201527f636f6c6c656374696f6e2f72657475726e416464726573730000000000000000608082015260a06040820152600061131d60a0830184866111bb565b60018060a01b03841681526060602082015260046060820152636e616d6560e01b608082015260a06040820152600061131d60a0830184866111bb565b60018060a01b03831681526060602082015260146060820152736d6178416c6c6f7761626c654c6174654461797360601b608082015260a06040820152600061140560a08301846111e4565b949350505050565b60018060a01b038316815260606020820152600a60608201526972656e7450657244617960b01b608082015260a06040820152600061140560a08301846111e4565b60018060a01b038316815260606020820152600f60608201526e6d656469614950465348617368657360881b608082015260a06040820152600061140560a08301846111e4565b602081016114a48284611199565b92915050565b602081526114c46020820183516001600160a01b03169052565b600060208301516114e060408401826001600160a01b03169052565b5060408301516101408060608501526114fd6101608501836111e4565b91506060850151601f198086850301608087015261151b84836111e4565b935060808701519150808685030160a087015261153884836111e4565b935060a087015160c087015260c0870151915061155a60e087018360ff169052565b60e087015191506101006115728188018460ff169052565b87015191506101206115878782018415159052565b8701518685039091018387015290506115a083826111e4565b9695505050505050565b60005b838110156115c55781810151838201526020016115ad565b838111156115d4576000848401525b50505050565b600181811c908216806115ee57607f821691505b6020821081141561160f57634e487b7160e01b600052602260045260246000fd5b50919050565b600060ff821660ff81141561163a57634e487b7160e01b600052601160045260246000fd5b60010192915050565b634e487b7160e01b600052604160045260246000fd5b6001600160a01b038116811461166e57600080fd5b5056fe1fb119ae646ad419061c26b2c9f00687535e680f4cabbaa1a12df632a4668054a26469706673582212204409909788b57dc25d10a79ba38ead89665010e51451c79491e130206fe2685264736f6c63430008070033608060405234801561001057600080fd5b50610649806100206000396000f3fe608060405234801561001057600080fd5b50600436106100365760003560e01c806326d273371461003b578063f76f950e14610064575b600080fd5b61004e6100493660046102fd565b610077565b60405161005b9190610346565b60405180910390f35b61004e61007236600461032d565b6101be565b60408051602880825260608281019093526000919060208201818036833701905050905060005b60148110156101b75760006100b482601361053b565b6100bf9060086104fb565b6100ca906002610451565b6100dd906001600160a01b0387166103d8565b60f81b9050600060108260f81c6100f491906103ec565b60f81b905060008160f81c601061010b919061051a565b8360f81c6101199190610552565b60f81b9050610127826102c7565b856101338660026104fb565b81518110610143576101436105e7565b60200101906001600160f81b031916908160001a905350610163816102c7565b8561016f8660026104fb565b61017a90600161039b565b8151811061018a5761018a6105e7565b60200101906001600160f81b031916908160001a90535050505080806101af9061058c565b91505061009e565b5092915050565b6060816101e25750506040805180820190915260018152600360fc1b602082015290565b8160005b811561020c57806101f68161058c565b91506102059050600a836103d8565b91506101e6565b60008167ffffffffffffffff811115610227576102276105fd565b6040519080825280601f01601f191660200182016040528015610251576020820181803683370190505b508593509050815b83156102be5761026a600a856105a7565b61027590603061039b565b60f81b8261028283610575565b92508281518110610295576102956105e7565b60200101906001600160f81b031916908160001a9053506102b7600a856103d8565b9350610259565b50949350505050565b6000600a60f883901c10156102ee576102e560f883901c60306103b3565b60f81b92915050565b6102e560f883901c60576103b3565b60006020828403121561030f57600080fd5b81356001600160a01b038116811461032657600080fd5b9392505050565b60006020828403121561033f57600080fd5b5035919050565b600060208083528351808285015260005b8181101561037357858101830151858201604001528201610357565b81811115610385576000604083870101525b50601f01601f1916929092016040019392505050565b600082198211156103ae576103ae6105bb565b500190565b600060ff821660ff84168060ff038211156103d0576103d06105bb565b019392505050565b6000826103e7576103e76105d1565b500490565b600060ff8316806103ff576103ff6105d1565b8060ff84160491505092915050565b600181815b8085111561044957816000190482111561042f5761042f6105bb565b8085161561043c57918102915b93841c9390800290610413565b509250929050565b60006103268383600082610467575060016104f5565b81610474575060006104f5565b816001811461048a5760028114610494576104b0565b60019150506104f5565b60ff8411156104a5576104a56105bb565b50506001821b6104f5565b5060208310610133831016604e8410600b84101617156104d3575081810a6104f5565b6104dd838361040e565b80600019048211156104f1576104f16105bb565b0290505b92915050565b6000816000190483118215151615610515576105156105bb565b500290565b600060ff821660ff84168160ff04811182151516156104f1576104f16105bb565b60008282101561054d5761054d6105bb565b500390565b600060ff821660ff84168082101561056c5761056c6105bb565b90039392505050565b600081610584576105846105bb565b506000190190565b60006000198214156105a0576105a06105bb565b5060010190565b6000826105b6576105b66105d1565b500690565b634e487b7160e01b600052601160045260246000fd5b634e487b7160e01b600052601260045260246000fd5b634e487b7160e01b600052603260045260246000fd5b634e487b7160e01b600052604160045260246000fdfea26469706673582212202eee08da6fb358cb68fb4a5f1c458c0a667c1412ed0eac24ae776c80af7a4e5864736f6c6343000807003360806040523480156200001157600080fd5b5060405162001499380380620014998339810160408190526200003491620001f8565b600180546001600160a01b0319166001600160a01b0385161790558151620000649060029060208501906200009b565b5080516200007a9060039060208401906200009b565b50506005805460ff1916905550506007805463ffffffff19169055620002d5565b828054620000a99062000282565b90600052602060002090601f016020900481019282620000cd576000855562000118565b82601f10620000e857805160ff191683800117855562000118565b8280016001018555821562000118579182015b8281111562000118578251825591602001919060010190620000fb565b50620001269291506200012a565b5090565b5b808211156200012657600081556001016200012b565b600082601f8301126200015357600080fd5b81516001600160401b0380821115620001705762000170620002bf565b604051601f8301601f19908116603f011681019082821181831017156200019b576200019b620002bf565b81604052838152602092508683858801011115620001b857600080fd5b600091505b83821015620001dc5785820183015181830184015290820190620001bd565b83821115620001ee5760008385830101525b9695505050505050565b6000806000606084860312156200020e57600080fd5b83516001600160a01b03811681146200022657600080fd5b60208501519093506001600160401b03808211156200024457600080fd5b620002528783880162000141565b935060408601519150808211156200026957600080fd5b50620002788682870162000141565b9150509250925092565b600181811c908216806200029757607f821691505b60208210811415620002b957634e487b7160e01b600052602260045260246000fd5b50919050565b634e487b7160e01b600052604160045260246000fd5b6111b480620002e56000396000f3fe608060405234801561001057600080fd5b50600436106101165760003560e01c8063886f1bb9116100a2578063a934899511610071578063a934899514610257578063b35ddf941461026a578063c2bd81191461027c578063e4128fb314610284578063e85e79b6146102af57600080fd5b8063886f1bb9146101f857806390f1af6c1461020b578063927584b91461022e57806395578e581461024457600080fd5b806350d9de1d116100e957806350d9de1d146101855780635d30e84d1461019857806361fac54d146101bd57806373ddea79146101d257806377c846af146101e557600080fd5b80632254df251461011b578063248640811461014457806326f2d18b1461016357806332cc4e8114610178575b600080fd5b60075461012f906301000000900460ff1681565b60405190151581526020015b60405180910390f35b6007546101519060ff1681565b60405160ff909116815260200161013b565b610176610171366004610f0b565b6102d4565b005b6005546101519060ff1681565b6007546101519062010000900460ff1681565b6101ab6101a6366004610ef2565b610314565b60405161013b96959493929190610ff6565b6101c56103fa565b60405161013b919061107a565b6101766101e0366004610e1e565b610488565b6101766101f3366004610eb0565b610889565b610176610206366004610eb0565b6108f4565b610151610219366004610d97565b60006020819052908152604090205460ff1681565b610236610953565b60405190815260200161013b565b610176610252366004610dd8565b6109ba565b610176610265366004610dd8565b610b83565b60075461015190610100900460ff1681565b6101c5610bd8565b600154610297906001600160a01b031681565b6040516001600160a01b03909116815260200161013b565b6102c26102bd366004610ef2565b610be5565b60405161013b96959493929190610fb4565b600060048260ff16815481106102ec576102ec611141565b60009182526020909120600160049092020101805460ff60a81b1916600160a81b1790555050565b6006818154811061032457600080fd5b60009182526020909120600590910201805460018201546002830180546001600160a01b03938416955092821693600160a01b90920460ff1692610367906110a5565b80601f0160208091040260200160405190810160405280929190818152602001828054610393906110a5565b80156103e05780601f106103b5576101008083540402835291602001916103e0565b820191906000526020600020905b8154815290600101906020018083116103c357829003601f168201915b505050506003830154600490930154919260ff1691905086565b60028054610407906110a5565b80601f0160208091040260200160405190810160405280929190818152602001828054610433906110a5565b80156104805780601f1061045557610100808354040283529160200191610480565b820191906000526020600020905b81548152906001019060200180831161046357829003601f168201915b505050505081565b6001546001600160a01b03163314156104a057600080fd5b60405163243c6bdb60e21b81526001600160a01b03878116600483015286916000918316906390f1af6c9060240160206040518083038186803b1580156104e657600080fd5b505afa1580156104fa573d6000803e3d6000fd5b505050506040513d601f19601f8201168201806040525081019061051e9190610f28565b6040516326f2d18b60e01b815260ff821660048201529091506001600160a01b038316906326f2d18b90602401600060405180830381600087803b15801561056557600080fd5b505af1158015610579573d6000803e3d6000fd5b5050505060006040518060c001604052808a6001600160a01b03168152602001846001600160a01b031663e4128fb36040518163ffffffff1660e01b815260040160206040518083038186803b1580156105d257600080fd5b505afa1580156105e6573d6000803e3d6000fd5b505050506040513d601f19601f8201168201806040525081019061060a9190610dbb565b6001600160a01b031681526020018860ff16815260200187878080601f01602080910402602001604051908101604052809392919081815260200183838082843760009201919091525050509082525060200185600181111561066f5761066f61112b565b8152426020918201526006805460018101825560009190915282517ff652222313e28459528d920b65115c16c04f3efc82aaedc97be59f3f377c0d3f600590920291820180546001600160a01b0319166001600160a01b03928316178155848401517ff652222313e28459528d920b65115c16c04f3efc82aaedc97be59f3f377c0d40840180546040880151929094166001600160a81b031990941693909317600160a01b60ff9092169190910217909155606084015180519495508594919361075e937ff652222313e28459528d920b65115c16c04f3efc82aaedc97be59f3f377c0d410192910190610c41565b50608082015160038201805460ff1916600183818111156107815761078161112b565b021790555060a091909101516004909101556007805460ff169060006107a6836110f5565b91906101000a81548160ff021916908360ff16021790555050826001600160a01b031663e4128fb36040518163ffffffff1660e01b815260040160206040518083038186803b1580156107f857600080fd5b505afa15801561080c573d6000803e3d6000fd5b505050506040513d601f19601f820116820180604052508101906108309190610dbb565b6007546040805160ff808c16825290921660208301526001600160a01b0392909216917f90a85869adb958b6374cf98f2a24b28f0db723127744011d6363487d50cef161910160405180910390a2505050505050505050565b6001546001600160a01b031633146108a057600080fd5b6108ac60028383610cc5565b50336001600160a01b03167ff07516e9449b46121f3f7f7cb800fb5f90f7ee9e442a5479e8e3bab929d71b7783836040516108e892919061104b565b60405180910390a25050565b6001546001600160a01b0316331461090b57600080fd5b61091760038383610cc5565b50336001600160a01b03167ff01f8beedc6b4ff8605063d6b438798f7caa71e19ea3097a733f57c40072a32083836040516108e892919061104b565b600080805b60075460ff168110156109b4576006818154811061097857610978611141565b60009182526020909120600590910201600101546109a090600160a01b900460ff168361108d565b9150806109ac816110da565b915050610958565b50919050565b6040805160c0810182526001600160a01b03808716825285166020820152600091810182815260006020820152604081018590526060018390526007805491925061010090910460ff16906001610a10836110f5565b82546101009290920a60ff818102199093169190921691909102179055506004805460018181018355600083905283517f8a35acfbc15ff81a39ae7d344fd709f28e8600b4aa8c65c6b64bfe7fe36bd19b9290930291820180546001600160a01b03199081166001600160a01b0395861617825560208601517f8a35acfbc15ff81a39ae7d344fd709f28e8600b4aa8c65c6b64bfe7fe36bd19c909401805491821694909516938417855560408601518695929490936001600160a81b03199092161790600160a01b908490811115610aeb57610aeb61112b565b02179055506060820151600182018054911515600160a81b0260ff60a81b199092169190911790556080820151600282015560a090910151600390910155600580546001600160a01b0387166000908152602081905260408120805460ff191660ff93841617905582549091169190610b63836110f5565b91906101000a81548160ff021916908360ff160217905550505050505050565b6040805160c0810182526001600160a01b03868116825285166020820152600191810191909152600060608201526080810183905260a081018290526007805462010000900460ff16906002610a10836110f5565b60038054610407906110a5565b60048181548110610bf557600080fd5b600091825260209091206004909102018054600182015460028301546003909301546001600160a01b0392831694509181169260ff600160a01b8304811693600160a81b909304169186565b828054610c4d906110a5565b90600052602060002090601f016020900481019282610c6f5760008555610cb5565b82601f10610c8857805160ff1916838001178555610cb5565b82800160010185558215610cb5579182015b82811115610cb5578251825591602001919060010190610c9a565b50610cc1929150610d39565b5090565b828054610cd1906110a5565b90600052602060002090601f016020900481019282610cf35760008555610cb5565b82601f10610d0c5782800160ff19823516178555610cb5565b82800160010185558215610cb5579182015b82811115610cb5578235825591602001919060010190610d1e565b5b80821115610cc15760008155600101610d3a565b60008083601f840112610d6057600080fd5b50813567ffffffffffffffff811115610d7857600080fd5b602083019150836020828501011115610d9057600080fd5b9250929050565b600060208284031215610da957600080fd5b8135610db481611157565b9392505050565b600060208284031215610dcd57600080fd5b8151610db481611157565b60008060008060808587031215610dee57600080fd5b8435610df981611157565b93506020850135610e0981611157565b93969395505050506040820135916060013590565b60008060008060008060a08789031215610e3757600080fd5b8635610e4281611157565b95506020870135610e5281611157565b94506040870135610e628161116f565b9350606087013567ffffffffffffffff811115610e7e57600080fd5b610e8a89828a01610d4e565b909450925050608087013560028110610ea257600080fd5b809150509295509295509295565b60008060208385031215610ec357600080fd5b823567ffffffffffffffff811115610eda57600080fd5b610ee685828601610d4e565b90969095509350505050565b600060208284031215610f0457600080fd5b5035919050565b600060208284031215610f1d57600080fd5b8135610db48161116f565b600060208284031215610f3a57600080fd5b8151610db48161116f565b60028110610f6357634e487b7160e01b600052602160045260246000fd5b9052565b6000815180845260005b81811015610f8d57602081850181015186830182015201610f71565b81811115610f9f576000602083870101525b50601f01601f19169290920160200192915050565b6001600160a01b0387811682528616602082015260c08101610fd96040830187610f45565b9315156060820152608081019290925260a0909101529392505050565b6001600160a01b0387811682528616602082015260ff8516604082015260c06060820181905260009061102b90830186610f67565b905061103a6080830185610f45565b8260a0830152979650505050505050565b60208152816020820152818360408301376000818301604090810191909152601f909201601f19160101919050565b602081526000610db46020830184610f67565b600082198211156110a0576110a0611115565b500190565b600181811c908216806110b957607f821691505b602082108114156109b457634e487b7160e01b600052602260045260246000fd5b60006000198214156110ee576110ee611115565b5060010190565b600060ff821660ff81141561110c5761110c611115565b60010192915050565b634e487b7160e01b600052601160045260246000fd5b634e487b7160e01b600052602160045260246000fd5b634e487b7160e01b600052603260045260246000fd5b6001600160a01b038116811461116c57600080fd5b50565b60ff8116811461116c57600080fdfea264697066735822122079029f050ca8f6cb3ad1a9c4b3089e3af04c89b21e66579fc868e4a73325877164736f6c63430008070033a2646970667358221220bdf29ad2070e0cc6f495822b2d23dcc24b18857c61b78c905813e21bb9cae21c64736f6c63430008070033",
  "immutableReferences": {},
  "source": "// SPDX-License-Identifier: GPL-3.0\n\npragma solidity >=0.7.0 <0.9.0;\n\nimport \"./User.sol\";\nimport \"./Item.sol\";\n\ncontract ContractFactory {\n    address public admin;\n\n    address[] public userContracts;\n    uint256 public userCount;\n\n    address[] public itemContracts;\n    uint256 public itemCount;\n\n    // map Item contract to a list of Rental contracts of the item\n    mapping(address => address[]) internal rentalContractsForItem;\n\n    // map user address to User contract\n    mapping(address => address) internal userContractForUser;\n\n    mapping(address => bool) public hasItemContract;\n\n    event adminChanged(address newAdmin);\n    event userContractCreated(address userAddress, address userContractAddress);\n    event itemContractCreated(\n        address itemOwnerAddress,\n        address itemContractAddress\n    );\n\n    constructor() {\n        admin = msg.sender;\n    }\n\n    modifier onlyAdmin() {\n        require(msg.sender == admin);\n        _;\n    }\n\n    modifier notItemOwner(address itemOwnerAddress) {\n        require(msg.sender != itemOwnerAddress);\n        _;\n    }\n\n    function setAdmin(address _newAdmin) public onlyAdmin {\n        admin = _newAdmin;\n\n        emit adminChanged(admin);\n    }\n\n    function getRentalContractsForItem(address _item)\n        public\n        view\n        returns (address[] memory)\n    {\n        return rentalContractsForItem[_item];\n    }\n\n    function getUserContractForUser(address _userAddress)\n        public\n        view\n        returns (address)\n    {\n        return userContractForUser[_userAddress];\n    }\n\n    function hasUserContract(address _user) public view returns (bool) {\n        if (userContractForUser[_user] == address(0x0)) {\n            return false;\n        } else {\n            return true;\n        }\n    }\n\n    function createUserContractForNewUser(\n        address _user,\n        string calldata _username,\n        string calldata _deliveryAddress\n    ) public {\n        require(hasUserContract(_user) == false);\n        require(_user == msg.sender);\n\n        User newUserContract = new User(_user, _username, _deliveryAddress);\n        userContracts.push(address(newUserContract));\n        userContractForUser[_user] = address(newUserContract);\n        userCount++;\n\n        emit userContractCreated(_user, address(newUserContract));\n    }\n\n    function createItemContract(Item.ItemDetails calldata _itemDetails) public {\n        require(_itemDetails.ownerAddress == msg.sender);\n        Item newItemContract = new Item(_itemDetails);\n        itemContracts.push(address(newItemContract));\n        hasItemContract[address(newItemContract)] = true;\n        itemCount++;\n\n        emit itemContractCreated(msg.sender, address(newItemContract));\n    }\n\n    // function createRentalContract modifier notItemOwner(itemOnwer) require item isAvailableForRent\n}\n",
  "sourcePath": "/Users/jyuteo/CodeProjects/TRent/src/contracts/ContractFactory.sol",
  "compiler": {
    "name": "solc",
    "version": "0.8.7+commit.e28d00a7.Emscripten.clang"
  },
  "schemaVersion": "3.4.3",
  "updatedAt": "2021-08-29T07:57:04.104Z",
  "devdoc": {
    "kind": "dev",
    "methods": {},
    "version": 1
  },
  "userdoc": {
    "kind": "user",
    "methods": {},
    "version": 1
  }
}