{
  "contractName": "ContractFactory",
  "abi": [
    {
      "inputs": [],
      "stateMutability": "nonpayable",
      "type": "constructor"
    },
    {
      "anonymous": false,
      "inputs": [
        {
          "indexed": false,
          "internalType": "address",
          "name": "newAdmin",
          "type": "address"
        }
      ],
      "name": "adminChanged",
      "type": "event"
    },
    {
      "anonymous": false,
      "inputs": [
        {
          "indexed": false,
          "internalType": "address",
          "name": "itemOwnerAddress",
          "type": "address"
        },
        {
          "indexed": false,
          "internalType": "address",
          "name": "itemContractAddress",
          "type": "address"
        }
      ],
      "name": "itemContractCreated",
      "type": "event"
    },
    {
      "anonymous": false,
      "inputs": [
        {
          "indexed": false,
          "internalType": "address",
          "name": "userAddress",
          "type": "address"
        },
        {
          "indexed": false,
          "internalType": "address",
          "name": "userContractAddress",
          "type": "address"
        }
      ],
      "name": "userContractCreated",
      "type": "event"
    },
    {
      "inputs": [],
      "name": "admin",
      "outputs": [
        {
          "internalType": "address",
          "name": "",
          "type": "address"
        }
      ],
      "stateMutability": "view",
      "type": "function"
    },
    {
      "inputs": [
        {
          "internalType": "address",
          "name": "",
          "type": "address"
        }
      ],
      "name": "hasItemContract",
      "outputs": [
        {
          "internalType": "bool",
          "name": "",
          "type": "bool"
        }
      ],
      "stateMutability": "view",
      "type": "function"
    },
    {
      "inputs": [
        {
          "internalType": "uint256",
          "name": "",
          "type": "uint256"
        }
      ],
      "name": "itemContracts",
      "outputs": [
        {
          "internalType": "address",
          "name": "",
          "type": "address"
        }
      ],
      "stateMutability": "view",
      "type": "function"
    },
    {
      "inputs": [],
      "name": "itemCount",
      "outputs": [
        {
          "internalType": "uint256",
          "name": "",
          "type": "uint256"
        }
      ],
      "stateMutability": "view",
      "type": "function"
    },
    {
      "inputs": [
        {
          "internalType": "uint256",
          "name": "",
          "type": "uint256"
        }
      ],
      "name": "userContracts",
      "outputs": [
        {
          "internalType": "address",
          "name": "",
          "type": "address"
        }
      ],
      "stateMutability": "view",
      "type": "function"
    },
    {
      "inputs": [],
      "name": "userCount",
      "outputs": [
        {
          "internalType": "uint256",
          "name": "",
          "type": "uint256"
        }
      ],
      "stateMutability": "view",
      "type": "function"
    },
    {
      "inputs": [
        {
          "internalType": "address",
          "name": "_newAdmin",
          "type": "address"
        }
      ],
      "name": "setAdmin",
      "outputs": [],
      "stateMutability": "nonpayable",
      "type": "function"
    },
    {
      "inputs": [
        {
          "internalType": "address",
          "name": "_item",
          "type": "address"
        }
      ],
      "name": "getRentalContractsForItem",
      "outputs": [
        {
          "internalType": "address[]",
          "name": "",
          "type": "address[]"
        }
      ],
      "stateMutability": "view",
      "type": "function"
    },
    {
      "inputs": [
        {
          "internalType": "address",
          "name": "_userAddress",
          "type": "address"
        }
      ],
      "name": "getUserContractForUser",
      "outputs": [
        {
          "internalType": "address",
          "name": "",
          "type": "address"
        }
      ],
      "stateMutability": "view",
      "type": "function"
    },
    {
      "inputs": [
        {
          "internalType": "address",
          "name": "_user",
          "type": "address"
        }
      ],
      "name": "hasUserContract",
      "outputs": [
        {
          "internalType": "bool",
          "name": "",
          "type": "bool"
        }
      ],
      "stateMutability": "view",
      "type": "function"
    },
    {
      "inputs": [
        {
          "internalType": "address",
          "name": "_user",
          "type": "address"
        },
        {
          "internalType": "string",
          "name": "_username",
          "type": "string"
        },
        {
          "internalType": "string",
          "name": "_deliveryAddress",
          "type": "string"
        }
      ],
      "name": "createUserContractForNewUser",
      "outputs": [],
      "stateMutability": "nonpayable",
      "type": "function"
    },
    {
      "inputs": [
        {
          "components": [
            {
              "internalType": "address",
              "name": "ownerUserContract",
              "type": "address"
            },
            {
              "internalType": "address payable",
              "name": "ownerAddress",
              "type": "address"
            },
            {
              "internalType": "string",
              "name": "name",
              "type": "string"
            },
            {
              "internalType": "string",
              "name": "collectionOrReturnAddress",
              "type": "string"
            },
            {
              "internalType": "string",
              "name": "description",
              "type": "string"
            },
            {
              "internalType": "uint256",
              "name": "rentPerDay",
              "type": "uint256"
            },
            {
              "internalType": "uint8",
              "name": "maxAllowableLateDays",
              "type": "uint8"
            },
            {
              "internalType": "uint8",
              "name": "multipleForLateFees",
              "type": "uint8"
            },
            {
              "internalType": "bool",
              "name": "isAvailableForRent",
              "type": "bool"
            },
            {
              "internalType": "string[]",
              "name": "mediaIPFSHashes",
              "type": "string[]"
            }
          ],
          "internalType": "struct Item.ItemDetails",
          "name": "_itemDetails",
          "type": "tuple"
        }
      ],
      "name": "createItemContract",
      "outputs": [],
      "stateMutability": "nonpayable",
      "type": "function"
    }
  ],
  "bytecode": "0x608060405234801561001057600080fd5b50600080546001600160a01b03191633179055614dcd806100326000396000f3fe60806040523480156200001157600080fd5b5060043610620000c35760003560e01c80637809b9f1116200007a5780637809b9f11462000175578063a437fde7146200019d578063cd2d128514620001c3578063cd93c74d14620001f2578063d072d7be1462000209578063f851a440146200022057600080fd5b806307973ccf14620000c85780632e3d147714620000e55780634805a5ca14620001155780636bfb0d01146200013b5780636fa70e8a1462000145578063704b6c02146200015e575b600080fd5b620000d260025481565b6040519081526020015b60405180910390f35b620000fc620000f63660046200076e565b62000234565b6040516001600160a01b039091168152602001620000dc565b6200012c620001263660046200067c565b6200025f565b604051620000dc91906200085f565b620000d260045481565b6200015c620001563660046200072f565b620002d7565b005b6200015c6200016f3660046200067c565b620003fa565b6200018c620001863660046200067c565b62000466565b6040519015158152602001620000dc565b6200018c620001ae3660046200067c565b60076020526000908152604090205460ff1681565b620000fc620001d43660046200067c565b6001600160a01b039081166000908152600660205260409020541690565b620000fc620002033660046200076e565b6200049d565b6200015c6200021a366004620006a3565b620004ae565b600054620000fc906001600160a01b031681565b600381815481106200024557600080fd5b6000918252602090912001546001600160a01b0316905081565b6001600160a01b038116600090815260056020908152604091829020805483518184028101840190945280845260609392830182828015620002cb57602002820191906000526020600020905b81546001600160a01b03168152600190910190602001808311620002ac575b50505050509050919050565b33620002ea60408301602084016200067c565b6001600160a01b031614620002fe57600080fd5b6000816040516200030f90620005e4565b6200031b9190620008ae565b604051809103906000f08015801562000338573d6000803e3d6000fd5b506003805460018082019092557fc2575a0e9e593c00f959f8c92f12db2869c3395a3b0502d05e2516446f71f85b0180546001600160a01b0319166001600160a01b0384169081179091556000908152600760205260408120805460ff19169092179091556004805492935090620003b08362000aa8565b9091555050604080513381526001600160a01b03831660208201527f7379fa3640d5306b2f58ed7095b1c06028b5a430af35578de16d50db415b706b910160405180910390a15050565b6000546001600160a01b031633146200041257600080fd5b600080546001600160a01b0319166001600160a01b0383169081179091556040519081527fad19681a09902b2e83e20447a2012dbb1bea01d48dd453e74021ebab67e666429060200160405180910390a150565b6001600160a01b038181166000908152600660205260408120549091166200049057506000919050565b506001919050565b919050565b600181815481106200024557600080fd5b620004b98562000466565b15620004c457600080fd5b6001600160a01b0385163314620004da57600080fd5b60008585858585604051620004ef90620005f2565b620004ff95949392919062000817565b604051809103906000f0801580156200051c573d6000803e3d6000fd5b50600180548082019091557fb10e2d527612073b26eecdfd717e6a320cf44b4afac2b0732d9fcbe2b7fa0cf60180546001600160a01b038084166001600160a01b0319928316811790935589166000908152600660205260408120805490921690921790556002805492935090620005948362000aa8565b9091555050604080516001600160a01b038089168252831660208201527f3ae452c9d717870a928bfb2c4f7f6b7c239bfb392b9d6c0cdcf53e3fa8e76201910160405180910390a1505050505050565b612d0f8062000aec83390190565b61159d80620037fb83390190565b8035620004988162000ad2565b803580151581146200049857600080fd5b60008083601f8401126200063157600080fd5b50813567ffffffffffffffff8111156200064a57600080fd5b6020830191508360208285010111156200066357600080fd5b9250929050565b803560ff811681146200049857600080fd5b6000602082840312156200068f57600080fd5b81356200069c8162000ad2565b9392505050565b600080600080600060608688031215620006bc57600080fd5b8535620006c98162000ad2565b9450602086013567ffffffffffffffff80821115620006e757600080fd5b620006f589838a016200061e565b909650945060408801359150808211156200070f57600080fd5b506200071e888289016200061e565b969995985093965092949392505050565b6000602082840312156200074257600080fd5b813567ffffffffffffffff8111156200075a57600080fd5b820161014081850312156200069c57600080fd5b6000602082840312156200078157600080fd5b5035919050565b60008383855260208086019550808560051b8301018460005b87811015620007e157848303601f19018952620007bf828862000a5f565b620007cc858284620007ee565b9a86019a9450505090830190600101620007a1565b5090979650505050505050565b81835281816020850137506000828201602090810191909152601f909101601f19169091010190565b6001600160a01b03861681526060602082018190526000906200083e9083018688620007ee565b828103604084015262000853818587620007ee565b98975050505050505050565b6020808252825182820181905260009190848201906040850190845b81811015620008a25783516001600160a01b0316835292840192918401916001016200087b565b50909695505050505050565b60208152620008d260208201620008c58462000600565b6001600160a01b03169052565b6000620008e26020840162000600565b6001600160a01b03811660408401525062000901604084018462000a5f565b6101408060608601526200091b61016086018385620007ee565b92506200092c606087018762000a5f565b9250601f198087860301608088015262000948858584620007ee565b945062000959608089018962000a5f565b94509150808786030160a088015262000974858584620007ee565b945060a088013560c08801526200098e60c089016200066a565b60ff811660e08901529350620009a760e089016200066a565b93506101009150620009bd8288018560ff169052565b620009ca8289016200060d565b93506101209150620009df8288018515159052565b620009ed8289018962000a13565b945091508087860301838801525062000a0884848362000788565b979650505050505050565b6000808335601e1984360301811262000a2b57600080fd5b830160208101925035905067ffffffffffffffff81111562000a4c57600080fd5b8060051b36038313156200066357600080fd5b6000808335601e1984360301811262000a7757600080fd5b830160208101925035905067ffffffffffffffff81111562000a9857600080fd5b8036038313156200066357600080fd5b600060001982141562000acb57634e487b7160e01b600052601160045260246000fd5b5060010190565b6001600160a01b038116811462000ae857600080fd5b5056fe6080604052604051620000129062000203565b604051809103906000f0801580156200002f573d6000803e3d6000fd5b50600080546001600160a01b0319166001600160a01b03929092169190911790553480156200005d57600080fd5b5060405162002d0f38038062002d0f8339810160408190526200008091620004fe565b8051600380546001600160a01b03199081166001600160a01b03938416178255602080850151600480549093169416939093179055604083015180518493620000cf9260059291019062000211565b5060608201518051620000ed91600384019160209091019062000211565b50608082015180516200010b91600484019160209091019062000211565b5060a0820151600582015560c082015160068201805460e0850151610100808701511515620100000262ff00001960ff93841690920261ffff1990941692909516919091179190911716919091179055610120820151805162000179916007840191602090910190620002a0565b5050600354600180546001600160a01b039283166001600160a01b031991821617909155600454600280549190931691161790555060095462010000900460ff1615620001d057600b805460ff19169055620001de565b600b805460ff191660011790555b50600d805460ff19908116909155601080548216905560138054909116905562000708565b61072180620025ee83390190565b8280546200021f90620006b5565b90600052602060002090601f0160209004810192826200024357600085556200028e565b82601f106200025e57805160ff19168380011785556200028e565b828001600101855582156200028e579182015b828111156200028e57825182559160200191906001019062000271565b506200029c92915062000300565b5090565b828054828255906000526020600020908101928215620002f2579160200282015b82811115620002f25782518051620002e191849160209091019062000211565b5091602001919060010190620002c1565b506200029c92915062000317565b5b808211156200029c576000815560010162000301565b808211156200029c5760006200032e828262000338565b5060010162000317565b5080546200034690620006b5565b6000825580601f1062000357575050565b601f01602090049060005260206000209081019062000377919062000300565b50565b80516001600160a01b03811681146200039257600080fd5b919050565b600082601f830112620003a957600080fd5b815160206001600160401b0380831115620003c857620003c8620006f2565b8260051b620003d983820162000682565b8481528381019087850183890186018a1015620003f557600080fd5b60009350835b87811015620004375781518681111562000413578586fd5b620004238c89838e010162000457565b8552509286019290860190600101620003fb565b50909998505050505050505050565b805180151581146200039257600080fd5b600082601f8301126200046957600080fd5b81516001600160401b03811115620004855762000485620006f2565b60206200049b601f8301601f1916820162000682565b8281528582848701011115620004b057600080fd5b60005b83811015620004d0578581018301518282018401528201620004b3565b83811115620004e25760008385840101525b5095945050505050565b805160ff811681146200039257600080fd5b6000602082840312156200051157600080fd5b81516001600160401b03808211156200052957600080fd5b9083019061014082860312156200053f57600080fd5b6200054962000656565b62000554836200037a565b815262000564602084016200037a565b60208201526040830151828111156200057c57600080fd5b6200058a8782860162000457565b604083015250606083015182811115620005a357600080fd5b620005b18782860162000457565b606083015250608083015182811115620005ca57600080fd5b620005d88782860162000457565b60808301525060a083015160a0820152620005f660c08401620004ec565b60c08201526200060960e08401620004ec565b60e08201526101006200061e81850162000446565b9082015261012083810151838111156200063757600080fd5b620006458882870162000397565b918301919091525095945050505050565b60405161014081016001600160401b03811182821017156200067c576200067c620006f2565b60405290565b604051601f8201601f191681016001600160401b0381118282101715620006ad57620006ad620006f2565b604052919050565b600181811c90821680620006ca57607f821691505b60208210811415620006ec57634e487b7160e01b600052602260045260246000fd5b50919050565b634e487b7160e01b600052604160045260246000fd5b611ed680620007186000396000f3fe608060405234801561001057600080fd5b50600436106101585760003560e01c806386941d29116100c3578063a871c2311161007c578063a871c2311461032d578063dcc3974b14610340578063dce59d1014610353578063e3d0c9d214610366578063f00d4b5d14610379578063ffd369cc1461038c57600080fd5b806386941d29146102945780638f84aa09146102a75780639bf05f06146102ba5780639e18eb76146102cd5780639f2bc40e146102e0578063a50ad3591461031357600080fd5b806363737c511161011557806363737c51146102225780636679497b1461022f5780636e309a8b146102425780637c81d1231461025557806382770a431461026a57806385a4e17c1461028757600080fd5b806321fb7ee81461015d5780634099d90e1461018a57806346f0f32f146101b057806352ab52bb146101c557806353da0206146101d857806356ca4cfb14610203575b600080fd5b61017061016b36600461182d565b61039f565b604080519283526020830191909152015b60405180910390f35b61019d61019836600461182d565b6103cd565b60405161018197969594939291906119a4565b6101c36101be36600461175e565b6104bc565b005b6101c36101d3366004611578565b61069e565b6101eb6101e636600461182d565b6107ef565b6040516001600160a01b039091168152602001610181565b6010546102109060ff1681565b60405160ff9091168152602001610181565b600d546102109060ff1681565b6101c361023d366004611846565b610819565b6101c3610250366004611675565b610906565b61025d61095e565b6040516101819190611c24565b610272610ca8565b6040516101819998979695949392919061191f565b6013546102109060ff1681565b6101c36102a2366004611675565b610e8d565b6002546101eb906001600160a01b031681565b6101c36102c83660046115ad565b610ee5565b6101c36102db36600461151b565b610f66565b6103036102ee36600461151b565b60116020526000908152604090205460ff1681565b6040519015158152602001610181565b600b546103209060ff1681565b6040516101819190611bd9565b6101c361033b366004611675565b611002565b6101eb61034e36600461182d565b61105a565b6001546101eb906001600160a01b031681565b6101c361037436600461182d565b61106a565b6101c361038736600461153f565b61113b565b6101c361039a366004611846565b6111e5565b600e81815481106103af57600080fd5b60009182526020909120600290910201805460019091015490915082565b601281815481106103dd57600080fd5b600091825260209091206006909102018054600182015460028301546003840180546001600160a01b0394851696509284169493821693600160a01b90920460ff169261042990611dd6565b80601f016020809104026020016040519081016040528092919081815260200182805461045590611dd6565b80156104a25780601f10610477576101008083540402835291602001916104a2565b820191906000526020600020905b81548152906001019060200180831161048557829003601f168201915b505050506004830154600590930154919260ff1691905087565b3360009081526011602052604090205460ff166105205760405162461bcd60e51b815260206004820152601e60248201527f4d6574686f64206973207265737472696374656420746f2052656e746572000060448201526064015b60405180910390fd5b60128054600181018255600091909152815160069091027fbb8a6a4669ba250d26cd7a459eca9d215f8307e33aebe50379bc5a3617ec3444810180546001600160a01b039384166001600160a01b03199182161782556020808601517fbb8a6a4669ba250d26cd7a459eca9d215f8307e33aebe50379bc5a3617ec344585018054918716919093161790915560408501517fbb8a6a4669ba250d26cd7a459eca9d215f8307e33aebe50379bc5a3617ec344684018054606088015160ff16600160a01b026001600160a81b0319909116929096169190911794909417909355608084015180518594929361063a937fbb8a6a4669ba250d26cd7a459eca9d215f8307e33aebe50379bc5a3617ec34479091019201906112d5565b5060a082015160048201805460ff19166001838181111561065d5761065d611e3f565b021790555060c091909101516005909101556013805460ff1690600061068283611e11565b91906101000a81548160ff021916908360ff1602179055505050565b3360009081526011602052604090205460ff166106fd5760405162461bcd60e51b815260206004820152601e60248201527f4d6574686f64206973207265737472696374656420746f2052656e74657200006044820152606401610517565b600c805460018101825560009182527fdf6966c971051c3d54ec59162606531493a51404a002842f56009d7e5cf4a8c70180546001600160a01b0319166001600160a01b038616179055600d805460ff169161075883611e11565b82546101009290920a60ff818102199093169190921691909102179055506040805180820190915291825260208201908152600e805460018101825560009190915291517fbb7b4a454dc3493923482f07822329ed19e8244eff582cc204f8554c3620c3fd600290930292830155517fbb7b4a454dc3493923482f07822329ed19e8244eff582cc204f8554c3620c3fe9091015550565b600c81815481106107ff57600080fd5b6000918252602090912001546001600160a01b0316905081565b6002546001600160a01b031633146108435760405162461bcd60e51b815260040161051790611bed565b6009805460ff191660ff831690811790915560008054604051637bb7ca8760e11b8152600481019390935290916001600160a01b039091169063f76f950e9060240160006040518083038186803b15801561089d57600080fd5b505afa1580156108b1573d6000803e3d6000fd5b505050506040513d6000823e601f3d908101601f191682016040526108d991908101906116e7565b9050600080516020611e8183398151915230826040516108fa929190611afc565b60405180910390a15050565b6002546001600160a01b031633146109305760405162461bcd60e51b815260040161051790611bed565b61093c60078383611359565b50600080516020611e818339815191523083836040516108fa93929190611a25565b604080516101408101825260008082526020820181905260609282018390528282018390526080820183905260a0820181905260c0820181905260e082018190526101008201526101208101919091526040805161014081018252600380546001600160a01b0390811683526004541660208301526005805492939192918401916109e890611dd6565b80601f0160208091040260200160405190810160405280929190818152602001828054610a1490611dd6565b8015610a615780601f10610a3657610100808354040283529160200191610a61565b820191906000526020600020905b815481529060010190602001808311610a4457829003601f168201915b50505050508152602001600382018054610a7a90611dd6565b80601f0160208091040260200160405190810160405280929190818152602001828054610aa690611dd6565b8015610af35780601f10610ac857610100808354040283529160200191610af3565b820191906000526020600020905b815481529060010190602001808311610ad657829003601f168201915b50505050508152602001600482018054610b0c90611dd6565b80601f0160208091040260200160405190810160405280929190818152602001828054610b3890611dd6565b8015610b855780601f10610b5a57610100808354040283529160200191610b85565b820191906000526020600020905b815481529060010190602001808311610b6857829003601f168201915b50505091835250506005820154602080830191909152600683015460ff80821660408086019190915261010083048216606086015262010000909204161515608084015260078401805482518185028101850190935280835260a090940193919290919060009084015b82821015610c9b578382906000526020600020018054610c0e90611dd6565b80601f0160208091040260200160405190810160405280929190818152602001828054610c3a90611dd6565b8015610c875780601f10610c5c57610100808354040283529160200191610c87565b820191906000526020600020905b815481529060010190602001808311610c6a57829003601f168201915b505050505081526020019060010190610bef565b5050505081525050905090565b60038054600454600580546001600160a01b03938416949290931692610ccd90611dd6565b80601f0160208091040260200160405190810160405280929190818152602001828054610cf990611dd6565b8015610d465780601f10610d1b57610100808354040283529160200191610d46565b820191906000526020600020905b815481529060010190602001808311610d2957829003601f168201915b505050505090806003018054610d5b90611dd6565b80601f0160208091040260200160405190810160405280929190818152602001828054610d8790611dd6565b8015610dd45780601f10610da957610100808354040283529160200191610dd4565b820191906000526020600020905b815481529060010190602001808311610db757829003601f168201915b505050505090806004018054610de990611dd6565b80601f0160208091040260200160405190810160405280929190818152602001828054610e1590611dd6565b8015610e625780601f10610e3757610100808354040283529160200191610e62565b820191906000526020600020905b815481529060010190602001808311610e4557829003601f168201915b50505050600583015460069093015491929160ff808216925061010082048116916201000090041689565b6002546001600160a01b03163314610eb75760405162461bcd60e51b815260040161051790611bed565b610ec360068383611359565b50600080516020611e818339815191523083836040516108fa93929190611a69565b6002546001600160a01b03163314610f0f5760405162461bcd60e51b815260040161051790611bed565b8051610f2290600a9060208401906113cd565b50604080518082018252600e81526d6e65774d6564696148617368657360901b60208201529051600080516020611e81833981519152906108fa9030908490611b92565b600f805460018101825560009182527f8d1108e10bcb7c27dddfc02ed9d693a074039d026cf4ea4240b40f7d581ac8020180546001600160a01b0319166001600160a01b0384161790556010805460ff1691610fc183611e11565b825460ff9182166101009390930a9283029190920219909116179055506001600160a01b03166000908152601160205260409020805460ff19166001179055565b6002546001600160a01b0316331461102c5760405162461bcd60e51b815260040161051790611bed565b61103860058383611359565b50600080516020611e818339815191523083836040516108fa93929190611abf565b600f81815481106107ff57600080fd5b6002546001600160a01b031633146110945760405162461bcd60e51b815260040161051790611bed565b600881905560008054604051637bb7ca8760e11b8152600481018490526001600160a01b039091169063f76f950e9060240160006040518083038186803b1580156110de57600080fd5b505afa1580156110f2573d6000803e3d6000fd5b505050506040513d6000823e601f3d908101601f1916820160405261111a91908101906116e7565b9050600080516020611e8183398151915230826040516108fa929190611b50565b6002546001600160a01b031633146111655760405162461bcd60e51b815260040161051790611bed565b600380546001600160a01b038481166001600160a01b031992831681179093556004805491851691831682179055600180548316841790556002805490921681179091556040805130815260208101939093528201527f391e7445162e95b0462700ab996083fc3e40222a108de81e4fbea5e9ddfdaae1906060016108fa565b6002546001600160a01b0316331461120f5760405162461bcd60e51b815260040161051790611bed565b60ff8116611242576009805462ff0000191662010000179055600b80546000919060ff19166001835b0217905550611293565b8060ff166001141561126d576009805462ff000019169055600b80546001919060ff19168280611238565b8060ff1660021415611293576009805462ff000019169055600b805460ff191660021790555b600b546040517f8c5acf85d257fc548b6710d2ceeffe7d4b9b4dc7ed2866b316815c2ab592b9f6916112ca91309160ff1690611a08565b60405180910390a150565b8280546112e190611dd6565b90600052602060002090601f0160209004810192826113035760008555611349565b82601f1061131c57805160ff1916838001178555611349565b82800160010185558215611349579182015b8281111561134957825182559160200191906001019061132e565b50611355929150611426565b5090565b82805461136590611dd6565b90600052602060002090601f0160209004810192826113875760008555611349565b82601f106113a05782800160ff19823516178555611349565b82800160010185558215611349579182015b828111156113495782358255916020019190600101906113b2565b82805482825590600052602060002090810192821561141a579160200282015b8281111561141a578251805161140a9184916020909101906112d5565b50916020019190600101906113ed565b5061135592915061143b565b5b808211156113555760008155600101611427565b8082111561135557600061144f8282611458565b5060010161143b565b50805461146490611dd6565b6000825580601f10611474575050565b601f0160209004906000526020600020908101906114929190611426565b50565b80356114a081611e6b565b919050565b8035600281106114a057600080fd5b600082601f8301126114c557600080fd5b81356114d86114d382611d7e565b611d4d565b8181528460208386010111156114ed57600080fd5b816020850160208301376000918101602001919091529392505050565b803560ff811681146114a057600080fd5b60006020828403121561152d57600080fd5b813561153881611e6b565b9392505050565b6000806040838503121561155257600080fd5b823561155d81611e6b565b9150602083013561156d81611e6b565b809150509250929050565b60008060006060848603121561158d57600080fd5b833561159881611e6b565b95602085013595506040909401359392505050565b600060208083850312156115c057600080fd5b823567ffffffffffffffff808211156115d857600080fd5b818501915085601f8301126115ec57600080fd5b8135818111156115fe576115fe611e55565b8060051b61160d858201611d4d565b8281528581019085870183870188018b101561162857600080fd5b60009350835b8581101561166557813587811115611644578586fd5b6116528d8b838c01016114b4565b855250928801929088019060010161162e565b50909a9950505050505050505050565b6000806020838503121561168857600080fd5b823567ffffffffffffffff808211156116a057600080fd5b818501915085601f8301126116b457600080fd5b8135818111156116c357600080fd5b8660208285010111156116d557600080fd5b60209290920196919550909350505050565b6000602082840312156116f957600080fd5b815167ffffffffffffffff81111561171057600080fd5b8201601f8101841361172157600080fd5b805161172f6114d382611d7e565b81815285602083850101111561174457600080fd5b611755826020830160208601611da6565b95945050505050565b60006020828403121561177057600080fd5b813567ffffffffffffffff8082111561178857600080fd5b9083019060e0828603121561179c57600080fd5b6117a4611d24565b6117ad83611495565b81526117bb60208401611495565b60208201526117cc60408401611495565b60408201526117dd6060840161150a565b60608201526080830135828111156117f457600080fd5b611800878286016114b4565b60808301525061181260a084016114a5565b60a082015260c083013560c082015280935050505092915050565b60006020828403121561183f57600080fd5b5035919050565b60006020828403121561185857600080fd5b6115388261150a565b600081518084526020808501808196508360051b8101915082860160005b858110156118a95782840389526118978483516118f3565b9885019893509084019060010161187f565b5091979650505050505050565b600381106118c6576118c6611e3f565b9052565b81835281816020850137506000828201602090810191909152601f909101601f19169091010190565b6000815180845261190b816020860160208601611da6565b601f01601f19169290920160200192915050565b6001600160a01b038a81168252891660208201526101206040820181905260009061194c8382018b6118f3565b90508281036060840152611960818a6118f3565b9050828103608084015261197481896118f3565b60a0840197909752505060ff93841660c08201529190921660e08201529015156101009091015295945050505050565b6001600160a01b03888116825287811660208301528616604082015260ff8516606082015260e0608082018190526000906119e1908301866118f3565b9050600284106119f3576119f3611e3f565b60a082019390935260c0015295945050505050565b6001600160a01b03831681526040810161153860208301846118b6565b60018060a01b038416815260606020820152600b60608201526a3232b9b1b934b83a34b7b760a91b608082015260a06040820152600061175560a0830184866118ca565b60018060a01b038416815260606020820152601860608201527f636f6c6c656374696f6e2f72657475726e416464726573730000000000000000608082015260a06040820152600061175560a0830184866118ca565b60018060a01b03841681526060602082015260046060820152636e616d6560e01b608082015260a06040820152600061175560a0830184866118ca565b60018060a01b03831681526060602082015260146060820152736d6178416c6c6f7761626c654c6174654461797360601b608082015260a060408201526000611b4860a08301846118f3565b949350505050565b60018060a01b038316815260606020820152600a60608201526972656e7450657244617960b01b608082015260a060408201526000611b4860a08301846118f3565b60018060a01b038316815260606020820152600f60608201526e6d656469614950465348617368657360881b608082015260a060408201526000611b4860a08301846118f3565b60208101611be782846118b6565b92915050565b6020808252601d908201527f4d6574686f64206973207265737472696374656420746f204f776e6572000000604082015260600190565b60208152611c3e6020820183516001600160a01b03169052565b60006020830151611c5a60408401826001600160a01b03169052565b506040830151610140806060850152611c776101608501836118f3565b91506060850151601f1980868503016080870152611c9584836118f3565b935060808701519150808685030160a0870152611cb284836118f3565b935060a087015160c087015260c08701519150611cd460e087018360ff169052565b60e08701519150610100611cec8188018460ff169052565b8701519150610120611d018782018415159052565b870151868503909101838701529050611d1a8382611861565b9695505050505050565b60405160e0810167ffffffffffffffff81118282101715611d4757611d47611e55565b60405290565b604051601f8201601f1916810167ffffffffffffffff81118282101715611d7657611d76611e55565b604052919050565b600067ffffffffffffffff821115611d9857611d98611e55565b50601f01601f191660200190565b60005b83811015611dc1578181015183820152602001611da9565b83811115611dd0576000848401525b50505050565b600181811c90821680611dea57607f821691505b60208210811415611e0b57634e487b7160e01b600052602260045260246000fd5b50919050565b600060ff821660ff811415611e3657634e487b7160e01b600052601160045260246000fd5b60010192915050565b634e487b7160e01b600052602160045260246000fd5b634e487b7160e01b600052604160045260246000fd5b6001600160a01b038116811461149257600080fdfe1fb119ae646ad419061c26b2c9f00687535e680f4cabbaa1a12df632a4668054a2646970667358221220e6a9d3fa0069cb79a63903d4855309f38e9bb16f8c4bc0269dcb6588ad0dd1dd64736f6c63430008070033608060405234801561001057600080fd5b50610701806100206000396000f3fe608060405234801561001057600080fd5b506004361061004c5760003560e01c806326d27337146100515780634a58a14a1461007a5780638dfd0b031461009b578063f76f950e146100ae575b600080fd5b61006461005f366004610395565b6100c1565b6040516100719190610400565b60405180910390f35b61008d6100883660046103de565b610208565b604051908152602001610071565b61008d6100a93660046103c5565b610246565b6100646100bc3660046103c5565b610256565b60408051602880825260608281019093526000919060208201818036833701905050905060005b60148110156102015760006100fe8260136105f3565b6101099060086105b3565b61011490600261050b565b610127906001600160a01b038716610492565b60f81b9050600060108260f81c61013e91906104a6565b60f81b905060008160f81c601061015591906105d2565b8360f81c610163919061060a565b60f81b90506101718261035f565b8561017d8660026105b3565b8151811061018d5761018d61069f565b60200101906001600160f81b031916908160001a9053506101ad8161035f565b856101b98660026105b3565b6101c4906001610455565b815181106101d4576101d461069f565b60200101906001600160f81b031916908160001a90535050505080806101f990610644565b9150506100e8565b5092915050565b60008061021584846105f3565b905060006018603c6102278185610492565b6102319190610492565b61023b9190610492565b925050505b92915050565b600061024082633b9aca006105b3565b60608161027a5750506040805180820190915260018152600360fc1b602082015290565b8160005b81156102a4578061028e81610644565b915061029d9050600a83610492565b915061027e565b60008167ffffffffffffffff8111156102bf576102bf6106b5565b6040519080825280601f01601f1916602001820160405280156102e9576020820181803683370190505b508593509050815b831561035657610302600a8561065f565b61030d906030610455565b60f81b8261031a8361062d565b9250828151811061032d5761032d61069f565b60200101906001600160f81b031916908160001a90535061034f600a85610492565b93506102f1565b50949350505050565b6000600a60f883901c10156103865761037d60f883901c603061046d565b60f81b92915050565b61037d60f883901c605761046d565b6000602082840312156103a757600080fd5b81356001600160a01b03811681146103be57600080fd5b9392505050565b6000602082840312156103d757600080fd5b5035919050565b600080604083850312156103f157600080fd5b50508035926020909101359150565b600060208083528351808285015260005b8181101561042d57858101830151858201604001528201610411565b8181111561043f576000604083870101525b50601f01601f1916929092016040019392505050565b6000821982111561046857610468610673565b500190565b600060ff821660ff84168060ff0382111561048a5761048a610673565b019392505050565b6000826104a1576104a1610689565b500490565b600060ff8316806104b9576104b9610689565b8060ff84160491505092915050565b600181815b808511156105035781600019048211156104e9576104e9610673565b808516156104f657918102915b93841c93908002906104cd565b509250929050565b60006103be838360008261052157506001610240565b8161052e57506000610240565b8160018114610544576002811461054e5761056a565b6001915050610240565b60ff84111561055f5761055f610673565b50506001821b610240565b5060208310610133831016604e8410600b841016171561058d575081810a610240565b61059783836104c8565b80600019048211156105ab576105ab610673565b029392505050565b60008160001904831182151516156105cd576105cd610673565b500290565b600060ff821660ff84168160ff04811182151516156105ab576105ab610673565b60008282101561060557610605610673565b500390565b600060ff821660ff84168082101561062457610624610673565b90039392505050565b60008161063c5761063c610673565b506000190190565b600060001982141561065857610658610673565b5060010190565b60008261066e5761066e610689565b500690565b634e487b7160e01b600052601160045260246000fd5b634e487b7160e01b600052601260045260246000fd5b634e487b7160e01b600052603260045260246000fd5b634e487b7160e01b600052604160045260246000fdfea26469706673582212201013252d1d487a7ff2270fa35371ae3720cfb07e886273c8aeb31fddf14f2b0164736f6c6343000807003360806040523480156200001157600080fd5b506040516200159d3803806200159d8339810160408190526200003491620001f8565b600180546001600160a01b0319166001600160a01b0385161790558151620000649060029060208501906200009b565b5080516200007a9060039060208401906200009b565b50506005805460ff1916905550506007805463ffffffff19169055620002d5565b828054620000a99062000282565b90600052602060002090601f016020900481019282620000cd576000855562000118565b82601f10620000e857805160ff191683800117855562000118565b8280016001018555821562000118579182015b8281111562000118578251825591602001919060010190620000fb565b50620001269291506200012a565b5090565b5b808211156200012657600081556001016200012b565b600082601f8301126200015357600080fd5b81516001600160401b0380821115620001705762000170620002bf565b604051601f8301601f19908116603f011681019082821181831017156200019b576200019b620002bf565b81604052838152602092508683858801011115620001b857600080fd5b600091505b83821015620001dc5785820183015181830184015290820190620001bd565b83821115620001ee5760008385830101525b9695505050505050565b6000806000606084860312156200020e57600080fd5b83516001600160a01b03811681146200022657600080fd5b60208501519093506001600160401b03808211156200024457600080fd5b620002528783880162000141565b935060408601519150808211156200026957600080fd5b50620002788682870162000141565b9150509250925092565b600181811c908216806200029757607f821691505b60208210811415620002b957634e487b7160e01b600052602260045260246000fd5b50919050565b634e487b7160e01b600052604160045260246000fd5b6112b880620002e56000396000f3fe608060405234801561001057600080fd5b50600436106101165760003560e01c8063927584b9116100a2578063c2bd811911610071578063c2bd81191461024a578063e4128fb314610252578063e83ddcea1461027d578063e85e79b6146102a3578063eff5924f146102c857600080fd5b8063927584b9146101fc57806395578e5814610212578063a934899514610225578063b35ddf941461023857600080fd5b806361fac54d116100e957806361fac54d1461018b578063683ab917146101a057806377c846af146101b3578063886f1bb9146101c657806390f1af6c146101d957600080fd5b80632254df251461011b57806326f2d18b1461014457806332cc4e811461015957806350d9de1d14610178575b600080fd5b60075461012f906301000000900460ff1681565b60405190151581526020015b60405180910390f35b610157610152366004610f87565b6102d5565b005b6005546101669060ff1681565b60405160ff909116815260200161013b565b6007546101669062010000900460ff1681565b610193610315565b60405161013b91906110ff565b6101576101ae366004610e40565b6103a3565b6101576101c1366004610f2c565b610802565b6101576101d4366004610f2c565b61086d565b6101666101e7366004610dff565b60006020819052908152604090205460ff1681565b6102046108cc565b60405190815260200161013b565b610157610220366004610ee6565b610933565b610157610233366004610ee6565b610afc565b60075461016690610100900460ff1681565b610193610b51565b600154610265906001600160a01b031681565b6040516001600160a01b03909116815260200161013b565b61029061028b366004610f6e565b610b5e565b60405161013b9796959493929190611030565b6102b66102b1366004610f6e565b610c4d565b60405161013b9695949392919061108e565b6007546101669060ff1681565b600060048260ff16815481106102ed576102ed611245565b60009182526020909120600160049092020101805460ff60a81b1916600160a81b1790555050565b60028054610322906111a9565b80601f016020809104026020016040519081016040528092919081815260200182805461034e906111a9565b801561039b5780601f106103705761010080835404028352916020019161039b565b820191906000526020600020905b81548152906001019060200180831161037e57829003601f168201915b505050505081565b6001546001600160a01b03163314156103bb57600080fd5b60405163243c6bdb60e21b81526001600160a01b03808916600483015288918791600091908316906390f1af6c9060240160206040518083038186803b15801561040457600080fd5b505afa158015610418573d6000803e3d6000fd5b505050506040513d601f19601f8201168201806040525081019061043c9190610fa4565b6040516326f2d18b60e01b815260ff821660048201529091506001600160a01b038316906326f2d18b90602401600060405180830381600087803b15801561048357600080fd5b505af1158015610497573d6000803e3d6000fd5b5050505060006040518060e001604052808c6001600160a01b031681526020018b6001600160a01b031681526020018a6001600160a01b031681526020018960ff16815260200188888080601f01602080910402602001604051908101604052809392919081815260200183838082843760009201919091525050509082525060200186600181111561052c5761052c61122f565b815242602091820152600680546001810182556000829052835191027ff652222313e28459528d920b65115c16c04f3efc82aaedc97be59f3f377c0d3f810180546001600160a01b039384166001600160a01b0319918216178255858501517ff652222313e28459528d920b65115c16c04f3efc82aaedc97be59f3f377c0d40840180549186169190921617905560408501517ff652222313e28459528d920b65115c16c04f3efc82aaedc97be59f3f377c0d4183018054606088015160ff16600160a01b026001600160a81b0319909116929095169190911793909317909255608084015180519495508594929361064c937ff652222313e28459528d920b65115c16c04f3efc82aaedc97be59f3f377c0d4290930192910190610ca9565b5060a082015160048201805460ff19166001838181111561066f5761066f61122f565b021790555060c091909101516005909101556007805460ff16906000610694836111f9565b91906101000a81548160ff021916908360ff160217905550506001808111156106bf576106bf61122f565b8560018111156106d1576106d161122f565b1415610736576040516346f0f32f60e01b81526001600160a01b038516906346f0f32f90610703908490600401611112565b600060405180830381600087803b15801561071d57600080fd5b505af1158015610731573d6000803e3d6000fd5b505050505b826001600160a01b031663e4128fb36040518163ffffffff1660e01b815260040160206040518083038186803b15801561076f57600080fd5b505afa158015610783573d6000803e3d6000fd5b505050506040513d601f19601f820116820180604052508101906107a79190610e23565b6007546040805160ff808d16825290921660208301526001600160a01b0392909216917f55b429f465f51ece29c8e23ac4a440fd26a290daa27c5cb884f632c15c1b9fdf910160405180910390a25050505050505050505050565b6001546001600160a01b0316331461081957600080fd5b61082560028383610d2d565b50336001600160a01b03167ff07516e9449b46121f3f7f7cb800fb5f90f7ee9e442a5479e8e3bab929d71b7783836040516108619291906110d0565b60405180910390a25050565b6001546001600160a01b0316331461088457600080fd5b61089060038383610d2d565b50336001600160a01b03167ff01f8beedc6b4ff8605063d6b438798f7caa71e19ea3097a733f57c40072a32083836040516108619291906110d0565b600080805b60075460ff1681101561092d57600681815481106108f1576108f1611245565b600091825260209091206006909102016002015461091990600160a01b900460ff1683611191565b915080610925816111de565b9150506108d1565b50919050565b6040805160c0810182526001600160a01b03808716825285166020820152600091810182815260006020820152604081018590526060018390526007805491925061010090910460ff16906001610989836111f9565b82546101009290920a60ff818102199093169190921691909102179055506004805460018181018355600083905283517f8a35acfbc15ff81a39ae7d344fd709f28e8600b4aa8c65c6b64bfe7fe36bd19b9290930291820180546001600160a01b03199081166001600160a01b0395861617825560208601517f8a35acfbc15ff81a39ae7d344fd709f28e8600b4aa8c65c6b64bfe7fe36bd19c909401805491821694909516938417855560408601518695929490936001600160a81b03199092161790600160a01b908490811115610a6457610a6461122f565b02179055506060820151600182018054911515600160a81b0260ff60a81b199092169190911790556080820151600282015560a090910151600390910155600580546001600160a01b0387166000908152602081905260408120805460ff191660ff93841617905582549091169190610adc836111f9565b91906101000a81548160ff021916908360ff160217905550505050505050565b6040805160c0810182526001600160a01b03868116825285166020820152600191810191909152600060608201526080810183905260a081018290526007805462010000900460ff16906002610989836111f9565b60038054610322906111a9565b60068181548110610b6e57600080fd5b600091825260209091206006909102018054600182015460028301546003840180546001600160a01b0394851696509284169493821693600160a01b90920460ff1692610bba906111a9565b80601f0160208091040260200160405190810160405280929190818152602001828054610be6906111a9565b8015610c335780601f10610c0857610100808354040283529160200191610c33565b820191906000526020600020905b815481529060010190602001808311610c1657829003601f168201915b505050506004830154600590930154919260ff1691905087565b60048181548110610c5d57600080fd5b600091825260209091206004909102018054600182015460028301546003909301546001600160a01b0392831694509181169260ff600160a01b8304811693600160a81b909304169186565b828054610cb5906111a9565b90600052602060002090601f016020900481019282610cd75760008555610d1d565b82601f10610cf057805160ff1916838001178555610d1d565b82800160010185558215610d1d579182015b82811115610d1d578251825591602001919060010190610d02565b50610d29929150610da1565b5090565b828054610d39906111a9565b90600052602060002090601f016020900481019282610d5b5760008555610d1d565b82601f10610d745782800160ff19823516178555610d1d565b82800160010185558215610d1d579182015b82811115610d1d578235825591602001919060010190610d86565b5b80821115610d295760008155600101610da2565b60008083601f840112610dc857600080fd5b50813567ffffffffffffffff811115610de057600080fd5b602083019150836020828501011115610df857600080fd5b9250929050565b600060208284031215610e1157600080fd5b8135610e1c8161125b565b9392505050565b600060208284031215610e3557600080fd5b8151610e1c8161125b565b600080600080600080600060c0888a031215610e5b57600080fd5b8735610e668161125b565b96506020880135610e768161125b565b95506040880135610e868161125b565b94506060880135610e9681611273565b9350608088013567ffffffffffffffff811115610eb257600080fd5b610ebe8a828b01610db6565b90945092505060a088013560028110610ed657600080fd5b8091505092959891949750929550565b60008060008060808587031215610efc57600080fd5b8435610f078161125b565b93506020850135610f178161125b565b93969395505050506040820135916060013590565b60008060208385031215610f3f57600080fd5b823567ffffffffffffffff811115610f5657600080fd5b610f6285828601610db6565b90969095509350505050565b600060208284031215610f8057600080fd5b5035919050565b600060208284031215610f9957600080fd5b8135610e1c81611273565b600060208284031215610fb657600080fd5b8151610e1c81611273565b60028110610fdf57634e487b7160e01b600052602160045260246000fd5b9052565b6000815180845260005b8181101561100957602081850181015186830182015201610fed565b8181111561101b576000602083870101525b50601f01601f19169290920160200192915050565b6001600160a01b03888116825287811660208301528616604082015260ff8516606082015260e06080820181905260009061106d90830186610fe3565b905061107c60a0830185610fc1565b8260c083015298975050505050505050565b6001600160a01b0387811682528616602082015260c081016110b36040830187610fc1565b9315156060820152608081019290925260a0909101529392505050565b60208152816020820152818360408301376000818301604090810191909152601f909201601f19160101919050565b602081526000610e1c6020830184610fe3565b60208152600060018060a01b038084511660208401528060208501511660408401528060408501511660608401525060ff6060840151166080830152608083015160e060a0840152611168610100840182610fe3565b905060a084015161117c60c0850182610fc1565b5060c084015160e08401528091505092915050565b600082198211156111a4576111a4611219565b500190565b600181811c908216806111bd57607f821691505b6020821081141561092d57634e487b7160e01b600052602260045260246000fd5b60006000198214156111f2576111f2611219565b5060010190565b600060ff821660ff81141561121057611210611219565b60010192915050565b634e487b7160e01b600052601160045260246000fd5b634e487b7160e01b600052602160045260246000fd5b634e487b7160e01b600052603260045260246000fd5b6001600160a01b038116811461127057600080fd5b50565b60ff8116811461127057600080fdfea2646970667358221220d452a1b1a4f1d2c7e05f0b70fa0fb8f60964d68191bb3583890a3e0f6c16ce6664736f6c63430008070033a2646970667358221220f83bcc784367198f66d90a5650ae7e31edbec8fe68948da29c19b0133e4b4cc164736f6c63430008070033",
  "immutableReferences": {},
  "source": "// SPDX-License-Identifier: GPL-3.0\n\npragma solidity >=0.7.0 <0.9.0;\n\nimport \"./User.sol\";\nimport \"./Item.sol\";\n\ncontract ContractFactory {\n    address public admin;\n\n    address[] public userContracts;\n    uint256 public userCount;\n\n    address[] public itemContracts;\n    uint256 public itemCount;\n\n    // map Item contract to a list of Rental contracts of the item\n    mapping(address => address[]) internal rentalContractsForItem;\n\n    // map user address to User contract\n    mapping(address => address) internal userContractForUser;\n\n    mapping(address => bool) public hasItemContract;\n\n    event adminChanged(address newAdmin);\n    event userContractCreated(address userAddress, address userContractAddress);\n    event itemContractCreated(\n        address itemOwnerAddress,\n        address itemContractAddress\n    );\n\n    constructor() {\n        admin = msg.sender;\n    }\n\n    modifier onlyAdmin() {\n        require(msg.sender == admin);\n        _;\n    }\n\n    modifier notItemOwner(address itemOwnerAddress) {\n        require(msg.sender != itemOwnerAddress);\n        _;\n    }\n\n    function setAdmin(address _newAdmin) public onlyAdmin {\n        admin = _newAdmin;\n\n        emit adminChanged(admin);\n    }\n\n    function getRentalContractsForItem(address _item)\n        public\n        view\n        returns (address[] memory)\n    {\n        return rentalContractsForItem[_item];\n    }\n\n    function getUserContractForUser(address _userAddress)\n        public\n        view\n        returns (address)\n    {\n        return userContractForUser[_userAddress];\n    }\n\n    function hasUserContract(address _user) public view returns (bool) {\n        if (userContractForUser[_user] == address(0x0)) {\n            return false;\n        } else {\n            return true;\n        }\n    }\n\n    function createUserContractForNewUser(\n        address _user,\n        string calldata _username,\n        string calldata _deliveryAddress\n    ) public {\n        require(hasUserContract(_user) == false);\n        require(_user == msg.sender);\n\n        User newUserContract = new User(_user, _username, _deliveryAddress);\n        userContracts.push(address(newUserContract));\n        userContractForUser[_user] = address(newUserContract);\n        userCount++;\n\n        emit userContractCreated(_user, address(newUserContract));\n    }\n\n    function createItemContract(Item.ItemDetails calldata _itemDetails) public {\n        require(_itemDetails.ownerAddress == msg.sender);\n        Item newItemContract = new Item(_itemDetails);\n        itemContracts.push(address(newItemContract));\n        hasItemContract[address(newItemContract)] = true;\n        itemCount++;\n\n        emit itemContractCreated(msg.sender, address(newItemContract));\n    }\n\n    // function createRentalContract modifier notItemOwner(itemOnwer) require item isAvailableForRent\n}\n",
  "sourcePath": "/Users/jyuteo/CodeProjects/TRent/src/contracts/ContractFactory.sol",
  "compiler": {
    "name": "solc",
    "version": "0.8.7+commit.e28d00a7.Emscripten.clang"
  },
  "schemaVersion": "3.4.3",
  "updatedAt": "2021-09-06T15:21:27.212Z",
  "devdoc": {
    "kind": "dev",
    "methods": {},
    "version": 1
  },
  "userdoc": {
    "kind": "user",
    "methods": {},
    "version": 1
  }
}