{
  "contractName": "DateTime",
  "abi": [
    {
      "inputs": [
        {
          "internalType": "uint16",
          "name": "year",
          "type": "uint16"
        }
      ],
      "name": "isLeapYear",
      "outputs": [
        {
          "internalType": "bool",
          "name": "",
          "type": "bool"
        }
      ],
      "stateMutability": "pure",
      "type": "function"
    },
    {
      "inputs": [
        {
          "internalType": "uint256",
          "name": "year",
          "type": "uint256"
        }
      ],
      "name": "leapYearsBefore",
      "outputs": [
        {
          "internalType": "uint256",
          "name": "",
          "type": "uint256"
        }
      ],
      "stateMutability": "pure",
      "type": "function"
    },
    {
      "inputs": [
        {
          "internalType": "uint8",
          "name": "month",
          "type": "uint8"
        },
        {
          "internalType": "uint16",
          "name": "year",
          "type": "uint16"
        }
      ],
      "name": "getDaysInMonth",
      "outputs": [
        {
          "internalType": "uint8",
          "name": "",
          "type": "uint8"
        }
      ],
      "stateMutability": "pure",
      "type": "function"
    },
    {
      "inputs": [
        {
          "internalType": "uint256",
          "name": "timestamp",
          "type": "uint256"
        }
      ],
      "name": "getYear",
      "outputs": [
        {
          "internalType": "uint16",
          "name": "",
          "type": "uint16"
        }
      ],
      "stateMutability": "pure",
      "type": "function"
    },
    {
      "inputs": [
        {
          "internalType": "uint256",
          "name": "timestamp",
          "type": "uint256"
        }
      ],
      "name": "getMonth",
      "outputs": [
        {
          "internalType": "uint8",
          "name": "",
          "type": "uint8"
        }
      ],
      "stateMutability": "pure",
      "type": "function"
    },
    {
      "inputs": [
        {
          "internalType": "uint256",
          "name": "timestamp",
          "type": "uint256"
        }
      ],
      "name": "getDay",
      "outputs": [
        {
          "internalType": "uint8",
          "name": "",
          "type": "uint8"
        }
      ],
      "stateMutability": "pure",
      "type": "function"
    },
    {
      "inputs": [
        {
          "internalType": "uint256",
          "name": "timestamp",
          "type": "uint256"
        }
      ],
      "name": "getHour",
      "outputs": [
        {
          "internalType": "uint8",
          "name": "",
          "type": "uint8"
        }
      ],
      "stateMutability": "pure",
      "type": "function"
    },
    {
      "inputs": [
        {
          "internalType": "uint256",
          "name": "timestamp",
          "type": "uint256"
        }
      ],
      "name": "getMinute",
      "outputs": [
        {
          "internalType": "uint8",
          "name": "",
          "type": "uint8"
        }
      ],
      "stateMutability": "pure",
      "type": "function"
    },
    {
      "inputs": [
        {
          "internalType": "uint256",
          "name": "timestamp",
          "type": "uint256"
        }
      ],
      "name": "getSecond",
      "outputs": [
        {
          "internalType": "uint8",
          "name": "",
          "type": "uint8"
        }
      ],
      "stateMutability": "pure",
      "type": "function"
    },
    {
      "inputs": [
        {
          "internalType": "uint256",
          "name": "timestamp",
          "type": "uint256"
        }
      ],
      "name": "getWeekday",
      "outputs": [
        {
          "internalType": "uint8",
          "name": "",
          "type": "uint8"
        }
      ],
      "stateMutability": "pure",
      "type": "function"
    },
    {
      "inputs": [
        {
          "internalType": "uint16",
          "name": "year",
          "type": "uint16"
        },
        {
          "internalType": "uint8",
          "name": "month",
          "type": "uint8"
        },
        {
          "internalType": "uint8",
          "name": "day",
          "type": "uint8"
        },
        {
          "internalType": "uint8",
          "name": "hour",
          "type": "uint8"
        },
        {
          "internalType": "uint8",
          "name": "minute",
          "type": "uint8"
        }
      ],
      "name": "toTimestamp",
      "outputs": [
        {
          "internalType": "uint256",
          "name": "timestamp",
          "type": "uint256"
        }
      ],
      "stateMutability": "pure",
      "type": "function"
    },
    {
      "inputs": [
        {
          "internalType": "uint16",
          "name": "year",
          "type": "uint16"
        },
        {
          "internalType": "uint8",
          "name": "month",
          "type": "uint8"
        },
        {
          "internalType": "uint8",
          "name": "day",
          "type": "uint8"
        },
        {
          "internalType": "uint8",
          "name": "hour",
          "type": "uint8"
        }
      ],
      "name": "toTimestamp",
      "outputs": [
        {
          "internalType": "uint256",
          "name": "timestamp",
          "type": "uint256"
        }
      ],
      "stateMutability": "pure",
      "type": "function"
    },
    {
      "inputs": [
        {
          "internalType": "uint16",
          "name": "year",
          "type": "uint16"
        },
        {
          "internalType": "uint8",
          "name": "month",
          "type": "uint8"
        },
        {
          "internalType": "uint8",
          "name": "day",
          "type": "uint8"
        }
      ],
      "name": "toTimestamp",
      "outputs": [
        {
          "internalType": "uint256",
          "name": "timestamp",
          "type": "uint256"
        }
      ],
      "stateMutability": "pure",
      "type": "function"
    },
    {
      "inputs": [
        {
          "internalType": "uint16",
          "name": "year",
          "type": "uint16"
        },
        {
          "internalType": "uint8",
          "name": "month",
          "type": "uint8"
        },
        {
          "internalType": "uint8",
          "name": "day",
          "type": "uint8"
        },
        {
          "internalType": "uint8",
          "name": "hour",
          "type": "uint8"
        },
        {
          "internalType": "uint8",
          "name": "minute",
          "type": "uint8"
        },
        {
          "internalType": "uint8",
          "name": "second",
          "type": "uint8"
        }
      ],
      "name": "toTimestamp",
      "outputs": [
        {
          "internalType": "uint256",
          "name": "timestamp",
          "type": "uint256"
        }
      ],
      "stateMutability": "pure",
      "type": "function"
    }
  ],
  "bytecode": "0x608060405234801561001057600080fd5b506113ee806100206000396000f3fe608060405234801561001057600080fd5b50600436106100ea5760003560e01c80639054bdec1161008c578063a6f0e57711610066578063a6f0e577146102cf578063b1999937146102ff578063b238ad0e1461032f578063fa93f8831461035f576100ea565b80639054bdec1461023f57806392d663131461026f578063a324ad241461029f576100ea565b806365c72840116100c857806365c728401461017f5780637f791833146101af5780638aa001fc146101df5780638c8d98a01461020f576100ea565b80633e239e1a146100ef5780634ac1ad781461011f57806362ba96871461014f575b600080fd5b61010960048036038101906101049190610f67565b61038f565b6040516101169190611061565b60405180910390f35b61013960048036038101906101349190610f67565b6103bc565b6040516101469190611061565b60405180910390f35b61016960048036038101906101649190610e5f565b6103ec565b6040516101769190611046565b60405180910390f35b61019960048036038101906101949190610f67565b610408565b6040516101a69190611061565b60405180910390f35b6101c960048036038101906101c49190610df8565b61041e565b6040516101d69190611046565b60405180910390f35b6101f960048036038101906101f49190610f67565b610439565b6040516102069190611061565b60405180910390f35b61022960048036038101906102249190610da5565b61044f565b6040516102369190611046565b60405180910390f35b61025960048036038101906102549190610eda565b61046a565b6040516102669190611046565b60405180910390f35b61028960048036038101906102849190610f67565b6107d5565b604051610296919061102b565b60405180910390f35b6102b960048036038101906102b49190610f67565b6108ec565b6040516102c69190611061565b60405180910390f35b6102e960048036038101906102e49190610d78565b610902565b6040516102f69190611010565b60405180910390f35b61031960048036038101906103149190610f67565b610971565b6040516103269190611046565b60405180910390f35b61034960048036038101906103449190610f94565b6109c5565b6040516103569190611061565b60405180910390f35b61037960048036038101906103749190610f67565b610a91565b6040516103869190611061565b60405180910390f35b60006018603c80846103a191906110d2565b6103ab91906110d2565b6103b591906112b0565b9050919050565b60006007600462015180846103d191906110d2565b6103db919061107c565b6103e591906112b0565b9050919050565b60006103fd8686868686600061046a565b905095945050505050565b600061041382610ab2565b604001519050919050565b600061042f8585858560008061046a565b9050949350505050565b6000603c8261044891906112b0565b9050919050565b6000610461848484600080600061046a565b90509392505050565b6000806107b290505b8761ffff168161ffff1610156104ce5761048c81610902565b156104a8576301e28500826104a1919061107c565b91506104bb565b6301e13380826104b8919061107c565b91505b80806104c69061122a565b915050610473565b6104d6610cc3565b601f816000600c81106104ec576104eb61133f565b5b602002019060ff16908160ff168152505061050689610902565b1561053757601d816001600c81106105215761052061133f565b5b602002019060ff16908160ff168152505061055f565b601c816001600c811061054d5761054c61133f565b5b602002019060ff16908160ff16815250505b601f816002600c81106105755761057461133f565b5b602002019060ff16908160ff1681525050601e816003600c811061059c5761059b61133f565b5b602002019060ff16908160ff1681525050601f816004600c81106105c3576105c261133f565b5b602002019060ff16908160ff1681525050601e816005600c81106105ea576105e961133f565b5b602002019060ff16908160ff1681525050601f816006600c81106106115761061061133f565b5b602002019060ff16908160ff1681525050601f816007600c81106106385761063761133f565b5b602002019060ff16908160ff1681525050601e816008600c811061065f5761065e61133f565b5b602002019060ff16908160ff1681525050601f816009600c81106106865761068561133f565b5b602002019060ff16908160ff1681525050601e81600a600c81106106ad576106ac61133f565b5b602002019060ff16908160ff1681525050601f81600b600c81106106d4576106d361133f565b5b602002019060ff16908160ff1681525050600191505b8760ff168261ffff1610156107525780600183610707919061115d565b61ffff16600c811061071c5761071b61133f565b5b602002015160ff16620151806107329190611103565b8361073d919061107c565b9250818061074a9061122a565b9250506106ea565b60018761075f91906111c5565b60ff16620151806107709190611103565b8361077b919061107c565b92508560ff16610e1061078e9190611103565b83610799919061107c565b92508460ff16603c6107ab9190611103565b836107b6919061107c565b92508360ff16836107c7919061107c565b925050509695505050505050565b600080600090506000806301e13380856107ef91906110d2565b6107b261ffff16610800919061107c565b91506108116107b261ffff16610971565b61081e8361ffff16610971565b6108289190611191565b9050806301e2850061083a9190611103565b83610845919061107c565b9250806107b283610856919061115d565b61ffff166108649190611191565b6301e133806108739190611103565b8361087e919061107c565b92505b848311156108e15761089e600183610899919061115d565b610902565b156108ba576301e28500836108b39190611191565b92506108cd565b6301e13380836108ca9190611191565b92505b6001826108da919061115d565b9150610881565b819350505050919050565b60006108f782610ab2565b602001519050919050565b600080600483610912919061127f565b61ffff1614610924576000905061096c565b6000606483610933919061127f565b61ffff1614610945576001905061096c565b600061019083610955919061127f565b61ffff1614610967576000905061096c565b600190505b919050565b60006001826109809190611191565b91506101908261099091906110d2565b60648361099d91906110d2565b6004846109aa91906110d2565b6109b49190611191565b6109be919061107c565b9050919050565b600060018360ff1614806109dc575060038360ff16145b806109ea575060058360ff16145b806109f8575060078360ff16145b80610a06575060088360ff16145b80610a145750600a8360ff16145b80610a225750600c8360ff16145b15610a3057601f9050610a8b565b60048360ff161480610a45575060068360ff16145b80610a53575060098360ff16145b80610a615750600b8360ff16145b15610a6f57601e9050610a8b565b610a7882610902565b15610a8657601d9050610a8b565b601c90505b92915050565b6000603c8083610aa191906110d2565b610aab91906112b0565b9050919050565b610aba610ce6565b60008080610ac7856107d5565b846000019061ffff16908161ffff1681525050610ae96107b261ffff16610971565b610afa856000015161ffff16610971565b610b049190611191565b9150816301e28500610b169190611103565b83610b21919061107c565b9250816107b28560000151610b36919061115d565b61ffff16610b449190611191565b6301e13380610b539190611103565b83610b5e919061107c565b92506000600191505b600c8260ff1611610bde57610b808286600001516109c5565b60ff1662015180610b919190611103565b9050858482610ba0919061107c565b1115610bbd5781856020019060ff16908160ff1681525050610bde565b8084610bc9919061107c565b93508180610bd690611255565b925050610b67565b600191505b610bf5856020015186600001516109c5565b60ff168260ff1611610c5257858462015180610c11919061107c565b1115610c2e5781856040019060ff16908160ff1681525050610c52565b6201518084610c3d919061107c565b93508180610c4a90611255565b925050610be3565b610c5b8661038f565b856060019060ff16908160ff1681525050610c7586610a91565b856080019060ff16908160ff1681525050610c8f86610439565b8560a0019060ff16908160ff1681525050610ca9866103bc565b8560c0019060ff16908160ff168152505050505050919050565b604051806101800160405280600c90602082028036833780820191505090505090565b6040518060e00160405280600061ffff168152602001600060ff168152602001600060ff168152602001600060ff168152602001600060ff168152602001600060ff168152602001600060ff1681525090565b600081359050610d4881611373565b92915050565b600081359050610d5d8161138a565b92915050565b600081359050610d72816113a1565b92915050565b600060208284031215610d8e57610d8d61136e565b5b6000610d9c84828501610d39565b91505092915050565b600080600060608486031215610dbe57610dbd61136e565b5b6000610dcc86828701610d39565b9350506020610ddd86828701610d63565b9250506040610dee86828701610d63565b9150509250925092565b60008060008060808587031215610e1257610e1161136e565b5b6000610e2087828801610d39565b9450506020610e3187828801610d63565b9350506040610e4287828801610d63565b9250506060610e5387828801610d63565b91505092959194509250565b600080600080600060a08688031215610e7b57610e7a61136e565b5b6000610e8988828901610d39565b9550506020610e9a88828901610d63565b9450506040610eab88828901610d63565b9350506060610ebc88828901610d63565b9250506080610ecd88828901610d63565b9150509295509295909350565b60008060008060008060c08789031215610ef757610ef661136e565b5b6000610f0589828a01610d39565b9650506020610f1689828a01610d63565b9550506040610f2789828a01610d63565b9450506060610f3889828a01610d63565b9350506080610f4989828a01610d63565b92505060a0610f5a89828a01610d63565b9150509295509295509295565b600060208284031215610f7d57610f7c61136e565b5b6000610f8b84828501610d4e565b91505092915050565b60008060408385031215610fab57610faa61136e565b5b6000610fb985828601610d63565b9250506020610fca85828601610d39565b9150509250929050565b610fdd816111f9565b82525050565b610fec81611205565b82525050565b610ffb81611213565b82525050565b61100a8161121d565b82525050565b60006020820190506110256000830184610fd4565b92915050565b60006020820190506110406000830184610fe3565b92915050565b600060208201905061105b6000830184610ff2565b92915050565b60006020820190506110766000830184611001565b92915050565b600061108782611213565b915061109283611213565b9250827fffffffffffffffffffffffffffffffffffffffffffffffffffffffffffffffff038211156110c7576110c66112e1565b5b828201905092915050565b60006110dd82611213565b91506110e883611213565b9250826110f8576110f7611310565b5b828204905092915050565b600061110e82611213565b915061111983611213565b9250817fffffffffffffffffffffffffffffffffffffffffffffffffffffffffffffffff0483118215151615611152576111516112e1565b5b828202905092915050565b600061116882611205565b915061117383611205565b925082821015611186576111856112e1565b5b828203905092915050565b600061119c82611213565b91506111a783611213565b9250828210156111ba576111b96112e1565b5b828203905092915050565b60006111d08261121d565b91506111db8361121d565b9250828210156111ee576111ed6112e1565b5b828203905092915050565b60008115159050919050565b600061ffff82169050919050565b6000819050919050565b600060ff82169050919050565b600061123582611205565b915061ffff82141561124a576112496112e1565b5b600182019050919050565b60006112608261121d565b915060ff821415611274576112736112e1565b5b600182019050919050565b600061128a82611205565b915061129583611205565b9250826112a5576112a4611310565b5b828206905092915050565b60006112bb82611213565b91506112c683611213565b9250826112d6576112d5611310565b5b828206905092915050565b7f4e487b7100000000000000000000000000000000000000000000000000000000600052601160045260246000fd5b7f4e487b7100000000000000000000000000000000000000000000000000000000600052601260045260246000fd5b7f4e487b7100000000000000000000000000000000000000000000000000000000600052603260045260246000fd5b600080fd5b61137c81611205565b811461138757600080fd5b50565b61139381611213565b811461139e57600080fd5b50565b6113aa8161121d565b81146113b557600080fd5b5056fea2646970667358221220234cedec9c4fd3fbb77f73208ea024dea2b2cd7bb44d7572c36399111896ec0b64736f6c63430008070033",
  "immutableReferences": {},
  "source": "// SPDX-License-Identifier: GPL-3.0\n// https://github.com/pipermerriam/ethereum-datetime/blob/master/contracts/DateTime.sol\n\npragma solidity >=0.7.0 <0.9.0;\n\ncontract DateTime {\n    /*\n     *  Date and Time utilities for ethereum contracts\n     *\n     */\n    struct _DateTime {\n        uint16 year;\n        uint8 month;\n        uint8 day;\n        uint8 hour;\n        uint8 minute;\n        uint8 second;\n        uint8 weekday;\n    }\n\n    uint256 constant DAY_IN_SECONDS = 86400;\n    uint256 constant YEAR_IN_SECONDS = 31536000;\n    uint256 constant LEAP_YEAR_IN_SECONDS = 31622400;\n\n    uint256 constant HOUR_IN_SECONDS = 3600;\n    uint256 constant MINUTE_IN_SECONDS = 60;\n\n    uint16 constant ORIGIN_YEAR = 1970;\n\n    function isLeapYear(uint16 year) public pure returns (bool) {\n        if (year % 4 != 0) {\n            return false;\n        }\n        if (year % 100 != 0) {\n            return true;\n        }\n        if (year % 400 != 0) {\n            return false;\n        }\n        return true;\n    }\n\n    function leapYearsBefore(uint256 year) public pure returns (uint256) {\n        year -= 1;\n        return year / 4 - year / 100 + year / 400;\n    }\n\n    function getDaysInMonth(uint8 month, uint16 year)\n        public\n        pure\n        returns (uint8)\n    {\n        if (\n            month == 1 ||\n            month == 3 ||\n            month == 5 ||\n            month == 7 ||\n            month == 8 ||\n            month == 10 ||\n            month == 12\n        ) {\n            return 31;\n        } else if (month == 4 || month == 6 || month == 9 || month == 11) {\n            return 30;\n        } else if (isLeapYear(year)) {\n            return 29;\n        } else {\n            return 28;\n        }\n    }\n\n    function parseTimestamp(uint256 timestamp)\n        internal\n        pure\n        returns (_DateTime memory dt)\n    {\n        uint256 secondsAccountedFor = 0;\n        uint256 buf;\n        uint8 i;\n\n        // Year\n        dt.year = getYear(timestamp);\n        buf = leapYearsBefore(dt.year) - leapYearsBefore(ORIGIN_YEAR);\n\n        secondsAccountedFor += LEAP_YEAR_IN_SECONDS * buf;\n        secondsAccountedFor += YEAR_IN_SECONDS * (dt.year - ORIGIN_YEAR - buf);\n\n        // Month\n        uint256 secondsInMonth;\n        for (i = 1; i <= 12; i++) {\n            secondsInMonth = DAY_IN_SECONDS * getDaysInMonth(i, dt.year);\n            if (secondsInMonth + secondsAccountedFor > timestamp) {\n                dt.month = i;\n                break;\n            }\n            secondsAccountedFor += secondsInMonth;\n        }\n\n        // Day\n        for (i = 1; i <= getDaysInMonth(dt.month, dt.year); i++) {\n            if (DAY_IN_SECONDS + secondsAccountedFor > timestamp) {\n                dt.day = i;\n                break;\n            }\n            secondsAccountedFor += DAY_IN_SECONDS;\n        }\n\n        // Hour\n        dt.hour = getHour(timestamp);\n\n        // Minute\n        dt.minute = getMinute(timestamp);\n\n        // Second\n        dt.second = getSecond(timestamp);\n\n        // Day of week.\n        dt.weekday = getWeekday(timestamp);\n    }\n\n    function getYear(uint256 timestamp) public pure returns (uint16) {\n        uint256 secondsAccountedFor = 0;\n        uint16 year;\n        uint256 numLeapYears;\n\n        // Year\n        year = uint16(ORIGIN_YEAR + timestamp / YEAR_IN_SECONDS);\n        numLeapYears = leapYearsBefore(year) - leapYearsBefore(ORIGIN_YEAR);\n\n        secondsAccountedFor += LEAP_YEAR_IN_SECONDS * numLeapYears;\n        secondsAccountedFor +=\n            YEAR_IN_SECONDS *\n            (year - ORIGIN_YEAR - numLeapYears);\n\n        while (secondsAccountedFor > timestamp) {\n            if (isLeapYear(uint16(year - 1))) {\n                secondsAccountedFor -= LEAP_YEAR_IN_SECONDS;\n            } else {\n                secondsAccountedFor -= YEAR_IN_SECONDS;\n            }\n            year -= 1;\n        }\n        return year;\n    }\n\n    function getMonth(uint256 timestamp) public pure returns (uint8) {\n        return parseTimestamp(timestamp).month;\n    }\n\n    function getDay(uint256 timestamp) public pure returns (uint8) {\n        return parseTimestamp(timestamp).day;\n    }\n\n    function getHour(uint256 timestamp) public pure returns (uint8) {\n        return uint8((timestamp / 60 / 60) % 24);\n    }\n\n    function getMinute(uint256 timestamp) public pure returns (uint8) {\n        return uint8((timestamp / 60) % 60);\n    }\n\n    function getSecond(uint256 timestamp) public pure returns (uint8) {\n        return uint8(timestamp % 60);\n    }\n\n    function getWeekday(uint256 timestamp) public pure returns (uint8) {\n        return uint8((timestamp / DAY_IN_SECONDS + 4) % 7);\n    }\n\n    function toTimestamp(\n        uint16 year,\n        uint8 month,\n        uint8 day\n    ) public pure returns (uint256 timestamp) {\n        return toTimestamp(year, month, day, 0, 0, 0);\n    }\n\n    function toTimestamp(\n        uint16 year,\n        uint8 month,\n        uint8 day,\n        uint8 hour\n    ) public pure returns (uint256 timestamp) {\n        return toTimestamp(year, month, day, hour, 0, 0);\n    }\n\n    function toTimestamp(\n        uint16 year,\n        uint8 month,\n        uint8 day,\n        uint8 hour,\n        uint8 minute\n    ) public pure returns (uint256 timestamp) {\n        return toTimestamp(year, month, day, hour, minute, 0);\n    }\n\n    function toTimestamp(\n        uint16 year,\n        uint8 month,\n        uint8 day,\n        uint8 hour,\n        uint8 minute,\n        uint8 second\n    ) public pure returns (uint256 timestamp) {\n        uint16 i;\n\n        // Year\n        for (i = ORIGIN_YEAR; i < year; i++) {\n            if (isLeapYear(i)) {\n                timestamp += LEAP_YEAR_IN_SECONDS;\n            } else {\n                timestamp += YEAR_IN_SECONDS;\n            }\n        }\n\n        // Month\n        uint8[12] memory monthDayCounts;\n        monthDayCounts[0] = 31;\n        if (isLeapYear(year)) {\n            monthDayCounts[1] = 29;\n        } else {\n            monthDayCounts[1] = 28;\n        }\n        monthDayCounts[2] = 31;\n        monthDayCounts[3] = 30;\n        monthDayCounts[4] = 31;\n        monthDayCounts[5] = 30;\n        monthDayCounts[6] = 31;\n        monthDayCounts[7] = 31;\n        monthDayCounts[8] = 30;\n        monthDayCounts[9] = 31;\n        monthDayCounts[10] = 30;\n        monthDayCounts[11] = 31;\n\n        for (i = 1; i < month; i++) {\n            timestamp += DAY_IN_SECONDS * monthDayCounts[i - 1];\n        }\n\n        // Day\n        timestamp += DAY_IN_SECONDS * (day - 1);\n\n        // Hour\n        timestamp += HOUR_IN_SECONDS * (hour);\n\n        // Minute\n        timestamp += MINUTE_IN_SECONDS * (minute);\n\n        // Second\n        timestamp += second;\n\n        return timestamp;\n    }\n}\n",
  "sourcePath": "/Users/jyuteo/CodeProjects/TRent/src/contracts/helpers/DateTime.sol",
  "compiler": {
    "name": "solc",
    "version": "0.8.7+commit.e28d00a7.Emscripten.clang"
  },
  "schemaVersion": "3.4.3",
  "updatedAt": "2021-08-17T10:07:33.070Z",
  "devdoc": {
    "kind": "dev",
    "methods": {},
    "version": 1
  },
  "userdoc": {
    "kind": "user",
    "methods": {},
    "version": 1
  }
}