{
  "contractName": "Item",
  "abi": [
    {
      "inputs": [
        {
          "components": [
            {
              "internalType": "address",
              "name": "ownerUserContract",
              "type": "address"
            },
            {
              "internalType": "address payable",
              "name": "ownerAddress",
              "type": "address"
            },
            {
              "internalType": "string",
              "name": "name",
              "type": "string"
            },
            {
              "internalType": "string",
              "name": "collectionOrReturnAddress",
              "type": "string"
            },
            {
              "internalType": "string",
              "name": "description",
              "type": "string"
            },
            {
              "internalType": "uint256",
              "name": "rentPerDay",
              "type": "uint256"
            },
            {
              "internalType": "uint8",
              "name": "maxAllowableLateDays",
              "type": "uint8"
            },
            {
              "internalType": "uint8",
              "name": "multipleForLateFees",
              "type": "uint8"
            },
            {
              "internalType": "bool",
              "name": "isAvailableForRent",
              "type": "bool"
            },
            {
              "internalType": "string",
              "name": "mediaIPFSHashes",
              "type": "string"
            }
          ],
          "internalType": "struct Item.ItemDetails",
          "name": "_itemDetails",
          "type": "tuple"
        }
      ],
      "stateMutability": "nonpayable",
      "type": "constructor"
    },
    {
      "anonymous": false,
      "inputs": [
        {
          "indexed": false,
          "internalType": "address",
          "name": "item",
          "type": "address"
        },
        {
          "indexed": false,
          "internalType": "string",
          "name": "property",
          "type": "string"
        },
        {
          "indexed": false,
          "internalType": "string",
          "name": "newDetails",
          "type": "string"
        }
      ],
      "name": "itemDetailsChanged",
      "type": "event"
    },
    {
      "anonymous": false,
      "inputs": [
        {
          "indexed": false,
          "internalType": "address",
          "name": "item",
          "type": "address"
        },
        {
          "indexed": false,
          "internalType": "address",
          "name": "newOwnerUserContract",
          "type": "address"
        },
        {
          "indexed": false,
          "internalType": "address",
          "name": "newOwnerAddress",
          "type": "address"
        }
      ],
      "name": "itemOwnerChanged",
      "type": "event"
    },
    {
      "anonymous": false,
      "inputs": [
        {
          "indexed": false,
          "internalType": "address",
          "name": "item",
          "type": "address"
        },
        {
          "indexed": false,
          "internalType": "enum Item.ItemStatus",
          "name": "newStatus",
          "type": "uint8"
        }
      ],
      "name": "itemStatusChanged",
      "type": "event"
    },
    {
      "inputs": [
        {
          "internalType": "address",
          "name": "",
          "type": "address"
        }
      ],
      "name": "isRenter",
      "outputs": [
        {
          "internalType": "bool",
          "name": "",
          "type": "bool"
        }
      ],
      "stateMutability": "view",
      "type": "function"
    },
    {
      "inputs": [],
      "name": "itemDetails",
      "outputs": [
        {
          "internalType": "address",
          "name": "ownerUserContract",
          "type": "address"
        },
        {
          "internalType": "address payable",
          "name": "ownerAddress",
          "type": "address"
        },
        {
          "internalType": "string",
          "name": "name",
          "type": "string"
        },
        {
          "internalType": "string",
          "name": "collectionOrReturnAddress",
          "type": "string"
        },
        {
          "internalType": "string",
          "name": "description",
          "type": "string"
        },
        {
          "internalType": "uint256",
          "name": "rentPerDay",
          "type": "uint256"
        },
        {
          "internalType": "uint8",
          "name": "maxAllowableLateDays",
          "type": "uint8"
        },
        {
          "internalType": "uint8",
          "name": "multipleForLateFees",
          "type": "uint8"
        },
        {
          "internalType": "bool",
          "name": "isAvailableForRent",
          "type": "bool"
        },
        {
          "internalType": "string",
          "name": "mediaIPFSHashes",
          "type": "string"
        }
      ],
      "stateMutability": "view",
      "type": "function"
    },
    {
      "inputs": [],
      "name": "itemStatus",
      "outputs": [
        {
          "internalType": "enum Item.ItemStatus",
          "name": "",
          "type": "uint8"
        }
      ],
      "stateMutability": "view",
      "type": "function"
    },
    {
      "inputs": [],
      "name": "ownerAddress",
      "outputs": [
        {
          "internalType": "address",
          "name": "",
          "type": "address"
        }
      ],
      "stateMutability": "view",
      "type": "function"
    },
    {
      "inputs": [],
      "name": "ownerUserContract",
      "outputs": [
        {
          "internalType": "address",
          "name": "",
          "type": "address"
        }
      ],
      "stateMutability": "view",
      "type": "function"
    },
    {
      "inputs": [],
      "name": "rentalContractCount",
      "outputs": [
        {
          "internalType": "uint8",
          "name": "",
          "type": "uint8"
        }
      ],
      "stateMutability": "view",
      "type": "function"
    },
    {
      "inputs": [
        {
          "internalType": "uint256",
          "name": "",
          "type": "uint256"
        }
      ],
      "name": "rentalContracts",
      "outputs": [
        {
          "internalType": "address",
          "name": "",
          "type": "address"
        }
      ],
      "stateMutability": "view",
      "type": "function"
    },
    {
      "inputs": [
        {
          "internalType": "uint256",
          "name": "",
          "type": "uint256"
        }
      ],
      "name": "rentalPeriods",
      "outputs": [
        {
          "internalType": "uint256",
          "name": "start",
          "type": "uint256"
        },
        {
          "internalType": "uint256",
          "name": "end",
          "type": "uint256"
        }
      ],
      "stateMutability": "view",
      "type": "function"
    },
    {
      "inputs": [],
      "name": "renterCount",
      "outputs": [
        {
          "internalType": "uint8",
          "name": "",
          "type": "uint8"
        }
      ],
      "stateMutability": "view",
      "type": "function"
    },
    {
      "inputs": [
        {
          "internalType": "uint256",
          "name": "",
          "type": "uint256"
        }
      ],
      "name": "renters",
      "outputs": [
        {
          "internalType": "address",
          "name": "",
          "type": "address"
        }
      ],
      "stateMutability": "view",
      "type": "function"
    },
    {
      "inputs": [
        {
          "internalType": "address",
          "name": "_newOwnerUserContract",
          "type": "address"
        },
        {
          "internalType": "address payable",
          "name": "_newOwnerAddress",
          "type": "address"
        }
      ],
      "name": "changeOwner",
      "outputs": [],
      "stateMutability": "nonpayable",
      "type": "function"
    },
    {
      "inputs": [
        {
          "internalType": "uint8",
          "name": "_newStatus",
          "type": "uint8"
        }
      ],
      "name": "changeItemStatus",
      "outputs": [],
      "stateMutability": "nonpayable",
      "type": "function"
    },
    {
      "inputs": [
        {
          "internalType": "string",
          "name": "_newName",
          "type": "string"
        }
      ],
      "name": "changeItemName",
      "outputs": [],
      "stateMutability": "nonpayable",
      "type": "function"
    },
    {
      "inputs": [
        {
          "internalType": "string",
          "name": "_newAddress",
          "type": "string"
        }
      ],
      "name": "changeItemCollectionOrReturnAddress",
      "outputs": [],
      "stateMutability": "nonpayable",
      "type": "function"
    },
    {
      "inputs": [
        {
          "internalType": "string",
          "name": "_newDescription",
          "type": "string"
        }
      ],
      "name": "changeItemDescription",
      "outputs": [],
      "stateMutability": "nonpayable",
      "type": "function"
    },
    {
      "inputs": [
        {
          "internalType": "uint256",
          "name": "_newRentPerDay",
          "type": "uint256"
        }
      ],
      "name": "changeItemRentPerDay",
      "outputs": [],
      "stateMutability": "nonpayable",
      "type": "function"
    },
    {
      "inputs": [
        {
          "internalType": "uint8",
          "name": "_newMaxAllowableLateDays",
          "type": "uint8"
        }
      ],
      "name": "changeItemMaxAllowableLateDays",
      "outputs": [],
      "stateMutability": "nonpayable",
      "type": "function"
    },
    {
      "inputs": [
        {
          "internalType": "string",
          "name": "_newMediaIPFSHashes",
          "type": "string"
        }
      ],
      "name": "changeItemMediaIPFSHashes",
      "outputs": [],
      "stateMutability": "nonpayable",
      "type": "function"
    },
    {
      "inputs": [
        {
          "internalType": "address",
          "name": "_renter",
          "type": "address"
        }
      ],
      "name": "addNewRenter",
      "outputs": [],
      "stateMutability": "nonpayable",
      "type": "function"
    },
    {
      "inputs": [
        {
          "internalType": "address",
          "name": "_newRentalContract",
          "type": "address"
        },
        {
          "internalType": "uint256",
          "name": "_start",
          "type": "uint256"
        },
        {
          "internalType": "uint256",
          "name": "_end",
          "type": "uint256"
        }
      ],
      "name": "handleNewRental",
      "outputs": [],
      "stateMutability": "nonpayable",
      "type": "function"
    },
    {
      "inputs": [],
      "name": "getItemDetails",
      "outputs": [
        {
          "components": [
            {
              "internalType": "address",
              "name": "ownerUserContract",
              "type": "address"
            },
            {
              "internalType": "address payable",
              "name": "ownerAddress",
              "type": "address"
            },
            {
              "internalType": "string",
              "name": "name",
              "type": "string"
            },
            {
              "internalType": "string",
              "name": "collectionOrReturnAddress",
              "type": "string"
            },
            {
              "internalType": "string",
              "name": "description",
              "type": "string"
            },
            {
              "internalType": "uint256",
              "name": "rentPerDay",
              "type": "uint256"
            },
            {
              "internalType": "uint8",
              "name": "maxAllowableLateDays",
              "type": "uint8"
            },
            {
              "internalType": "uint8",
              "name": "multipleForLateFees",
              "type": "uint8"
            },
            {
              "internalType": "bool",
              "name": "isAvailableForRent",
              "type": "bool"
            },
            {
              "internalType": "string",
              "name": "mediaIPFSHashes",
              "type": "string"
            }
          ],
          "internalType": "struct Item.ItemDetails",
          "name": "",
          "type": "tuple"
        }
      ],
      "stateMutability": "view",
      "type": "function"
    }
  ],
  "bytecode": "0x60806040526040516200001290620001fb565b604051809103906000f0801580156200002f573d6000803e3d6000fd5b50600080546001600160a01b0319166001600160a01b03929092169190911790553480156200005d57600080fd5b50604051620022ce380380620022ce833981016040819052620000809162000384565b8051600380546001600160a01b03199081166001600160a01b03938416178255602080850151600480549093169416939093179055604083015180518493620000cf9260059291019062000209565b5060608201518051620000ed91600384019160209091019062000209565b50608082015180516200010b91600484019160209091019062000209565b5060a0820151600582015560c082015160068201805460e0850151610100808701511515620100000262ff00001960ff93841690920261ffff199094169290951691909117919091171691909117905561012082015180516200017991600784019160209091019062000209565b5050600354600180546001600160a01b039283166001600160a01b031991821617909155600454600280549190931691161790555060095462010000900460ff1615620001d057600b805460ff19169055620001de565b600b805460ff191660011790555b50600d805460ff199081169091556010805490911690556200058e565b6106698062001c6583390190565b82805462000217906200053b565b90600052602060002090601f0160209004810192826200023b576000855562000286565b82601f106200025657805160ff191683800117855562000286565b8280016001018555821562000286579182015b828111156200028657825182559160200191906001019062000269565b506200029492915062000298565b5090565b5b8082111562000294576000815560010162000299565b80516001600160a01b0381168114620002c757600080fd5b919050565b80518015158114620002c757600080fd5b600082601f830112620002ef57600080fd5b81516001600160401b038111156200030b576200030b62000578565b602062000321601f8301601f1916820162000508565b82815285828487010111156200033657600080fd5b60005b838110156200035657858101830151828201840152820162000339565b83811115620003685760008385840101525b5095945050505050565b805160ff81168114620002c757600080fd5b6000602082840312156200039757600080fd5b81516001600160401b0380821115620003af57600080fd5b908301906101408286031215620003c557600080fd5b620003cf620004dc565b620003da83620002af565b8152620003ea60208401620002af565b60208201526040830151828111156200040257600080fd5b6200041087828601620002dd565b6040830152506060830151828111156200042957600080fd5b6200043787828601620002dd565b6060830152506080830151828111156200045057600080fd5b6200045e87828601620002dd565b60808301525060a083015160a08201526200047c60c0840162000372565b60c08201526200048f60e0840162000372565b60e0820152610100620004a4818501620002cc565b908201526101208381015183811115620004bd57600080fd5b620004cb88828701620002dd565b918301919091525095945050505050565b60405161014081016001600160401b038111828210171562000502576200050262000578565b60405290565b604051601f8201601f191681016001600160401b038111828210171562000533576200053362000578565b604052919050565b600181811c908216806200055057607f821691505b602082108114156200057257634e487b7160e01b600052602260045260246000fd5b50919050565b634e487b7160e01b600052604160045260246000fd5b6116c7806200059e6000396000f3fe608060405234801561001057600080fd5b50600436106101375760003560e01c80638f84aa09116100b8578063a871c2311161007c578063a871c231146102c7578063dcc3974b146102da578063dce59d10146102ed578063e3d0c9d214610300578063f00d4b5d14610313578063ffd369cc1461032657600080fd5b80638f84aa091461024157806399fdcd3c146102545780639e18eb76146102675780639f2bc40e1461027a578063a50ad359146102ad57600080fd5b80636679497b116100ff5780636679497b146101d55780636e309a8b146101e85780637c81d123146101fb57806382770a431461021057806386941d291461022e57600080fd5b806321fb7ee81461013c57806352ab52bb1461016957806353da02061461017e57806356ca4cfb146101a957806363737c51146101c8575b600080fd5b61014f61014a36600461115d565b610339565b604080519283526020830191909152015b60405180910390f35b61017c610177366004611009565b610367565b005b61019161018c36600461115d565b610475565b6040516001600160a01b039091168152602001610160565b6010546101b69060ff1681565b60405160ff9091168152602001610160565b600d546101b69060ff1681565b61017c6101e3366004611176565b61049f565b61017c6101f636600461103e565b610579565b6102036105be565b60405161016091906114aa565b6102186108bd565b6040516101609a99989796959493929190611220565b61017c61023c36600461103e565b610b35565b600254610191906001600160a01b031681565b61017c61026236600461103e565b610b7a565b61017c610275366004610fac565b610bf0565b61029d610288366004610fac565b60116020526000908152604090205460ff1681565b6040519015158152602001610160565b600b546102ba9060ff1681565b6040516101609190611496565b61017c6102d536600461103e565b610c8c565b6101916102e836600461115d565b610cd1565b600154610191906001600160a01b031681565b61017c61030e36600461115d565b610ce1565b61017c610321366004610fd0565b610d9f565b61017c610334366004611176565b610e36565b600e818154811061034957600080fd5b60009182526020909120600290910201805460019091015490915082565b3360009081526011602052604090205460ff1661038357600080fd5b600c805460018101825560009182527fdf6966c971051c3d54ec59162606531493a51404a002842f56009d7e5cf4a8c70180546001600160a01b0319166001600160a01b038616179055600d805460ff16916103de83611615565b82546101009290920a60ff818102199093169190921691909102179055506040805180820190915291825260208201908152600e805460018101825560009190915291517fbb7b4a454dc3493923482f07822329ed19e8244eff582cc204f8554c3620c3fd600290930292830155517fbb7b4a454dc3493923482f07822329ed19e8244eff582cc204f8554c3620c3fe9091015550565b600c818154811061048557600080fd5b6000918252602090912001546001600160a01b0316905081565b6002546001600160a01b031633146104b657600080fd5b6009805460ff191660ff831690811790915560008054604051637bb7ca8760e11b8152600481019390935290916001600160a01b039091169063f76f950e9060240160006040518083038186803b15801561051057600080fd5b505afa158015610524573d6000803e3d6000fd5b505050506040513d6000823e601f3d908101601f1916820160405261054c91908101906110b0565b9050600080516020611672833981519152308260405161056d9291906113b9565b60405180910390a15050565b6002546001600160a01b0316331461059057600080fd5b61059c60078383610f13565b5060008051602061167283398151915230838360405161056d939291906112d9565b604080516101408101825260008082526020820181905260609282018390528282018390526080820183905260a0820181905260c0820181905260e082018190526101008201526101208101919091526040805161014081018252600380546001600160a01b039081168352600454166020830152600580549293919291840191610648906115da565b80601f0160208091040260200160405190810160405280929190818152602001828054610674906115da565b80156106c15780601f10610696576101008083540402835291602001916106c1565b820191906000526020600020905b8154815290600101906020018083116106a457829003601f168201915b505050505081526020016003820180546106da906115da565b80601f0160208091040260200160405190810160405280929190818152602001828054610706906115da565b80156107535780601f1061072857610100808354040283529160200191610753565b820191906000526020600020905b81548152906001019060200180831161073657829003601f168201915b5050505050815260200160048201805461076c906115da565b80601f0160208091040260200160405190810160405280929190818152602001828054610798906115da565b80156107e55780601f106107ba576101008083540402835291602001916107e5565b820191906000526020600020905b8154815290600101906020018083116107c857829003601f168201915b505050918352505060058201546020820152600682015460ff808216604084015261010082048116606084015262010000909104161515608082015260078201805460a090920191610836906115da565b80601f0160208091040260200160405190810160405280929190818152602001828054610862906115da565b80156108af5780601f10610884576101008083540402835291602001916108af565b820191906000526020600020905b81548152906001019060200180831161089257829003601f168201915b505050505081525050905090565b60038054600454600580546001600160a01b039384169492909316926108e2906115da565b80601f016020809104026020016040519081016040528092919081815260200182805461090e906115da565b801561095b5780601f106109305761010080835404028352916020019161095b565b820191906000526020600020905b81548152906001019060200180831161093e57829003601f168201915b505050505090806003018054610970906115da565b80601f016020809104026020016040519081016040528092919081815260200182805461099c906115da565b80156109e95780601f106109be576101008083540402835291602001916109e9565b820191906000526020600020905b8154815290600101906020018083116109cc57829003601f168201915b5050505050908060040180546109fe906115da565b80601f0160208091040260200160405190810160405280929190818152602001828054610a2a906115da565b8015610a775780601f10610a4c57610100808354040283529160200191610a77565b820191906000526020600020905b815481529060010190602001808311610a5a57829003601f168201915b50505050600583015460068401546007850180549495929460ff808416955061010084048116946201000090940416929190610ab2906115da565b80601f0160208091040260200160405190810160405280929190818152602001828054610ade906115da565b8015610b2b5780601f10610b0057610100808354040283529160200191610b2b565b820191906000526020600020905b815481529060010190602001808311610b0e57829003601f168201915b505050505090508a565b6002546001600160a01b03163314610b4c57600080fd5b610b5860068383610f13565b5060008051602061167283398151915230838360405161056d93929190611326565b6002546001600160a01b03163314610b9157600080fd5b610b9d600a8383610f13565b5060008282604051602001610bb3929190611210565b60405160208183030381529060405290506000805160206116728339815191523082604051610be392919061144f565b60405180910390a1505050565b600f805460018101825560009182527f8d1108e10bcb7c27dddfc02ed9d693a074039d026cf4ea4240b40f7d581ac8020180546001600160a01b0319166001600160a01b0384161790556010805460ff1691610c4b83611615565b825460ff9182166101009390930a9283029190920219909116179055506001600160a01b03166000908152601160205260409020805460ff19166001179055565b6002546001600160a01b03163314610ca357600080fd5b610caf60058383610f13565b5060008051602061167283398151915230838360405161056d9392919061137c565b600f818154811061048557600080fd5b6002546001600160a01b03163314610cf857600080fd5b600881905560008054604051637bb7ca8760e11b8152600481018490526001600160a01b039091169063f76f950e9060240160006040518083038186803b158015610d4257600080fd5b505afa158015610d56573d6000803e3d6000fd5b505050506040513d6000823e601f3d908101601f19168201604052610d7e91908101906110b0565b9050600080516020611672833981519152308260405161056d92919061140d565b6002546001600160a01b03163314610db657600080fd5b600380546001600160a01b038481166001600160a01b031992831681179093556004805491851691831682179055600180548316841790556002805490921681179091556040805130815260208101939093528201527f391e7445162e95b0462700ab996083fc3e40222a108de81e4fbea5e9ddfdaae19060600161056d565b6002546001600160a01b03163314610e4d57600080fd5b60ff8116610e80576009805462ff0000191662010000179055600b80546000919060ff19166001835b0217905550610ed1565b8060ff1660011415610eab576009805462ff000019169055600b80546001919060ff19168280610e76565b8060ff1660021415610ed1576009805462ff000019169055600b805460ff191660021790555b600b546040517f8c5acf85d257fc548b6710d2ceeffe7d4b9b4dc7ed2866b316815c2ab592b9f691610f0891309160ff16906112bc565b60405180910390a150565b828054610f1f906115da565b90600052602060002090601f016020900481019282610f415760008555610f87565b82601f10610f5a5782800160ff19823516178555610f87565b82800160010185558215610f87579182015b82811115610f87578235825591602001919060010190610f6c565b50610f93929150610f97565b5090565b5b80821115610f935760008155600101610f98565b600060208284031215610fbe57600080fd5b8135610fc981611659565b9392505050565b60008060408385031215610fe357600080fd5b8235610fee81611659565b91506020830135610ffe81611659565b809150509250929050565b60008060006060848603121561101e57600080fd5b833561102981611659565b95602085013595506040909401359392505050565b6000806020838503121561105157600080fd5b823567ffffffffffffffff8082111561106957600080fd5b818501915085601f83011261107d57600080fd5b81358181111561108c57600080fd5b86602082850101111561109e57600080fd5b60209290920196919550909350505050565b6000602082840312156110c257600080fd5b815167ffffffffffffffff808211156110da57600080fd5b818401915084601f8301126110ee57600080fd5b81518181111561110057611100611643565b604051601f8201601f19908116603f0116810190838211818310171561112857611128611643565b8160405282815287602084870101111561114157600080fd5b6111528360208301602088016115aa565b979650505050505050565b60006020828403121561116f57600080fd5b5035919050565b60006020828403121561118857600080fd5b813560ff81168114610fc957600080fd5b600381106111b757634e487b7160e01b600052602160045260246000fd5b9052565b81835281816020850137506000828201602090810191909152601f909101601f19169091010190565b600081518084526111fc8160208601602086016115aa565b601f01601f19169290920160200192915050565b8183823760009101908152919050565b6001600160a01b038b811682528a1660208201526101406040820181905260009061124d8382018c6111e4565b90508281036060840152611261818b6111e4565b90508281036080840152611275818a6111e4565b90508760a084015260ff871660c084015260ff861660e08401528415156101008401528281036101208401526112ab81856111e4565b9d9c50505050505050505050505050565b6001600160a01b038316815260408101610fc96020830184611199565b60018060a01b038416815260606020820152600b60608201526a3232b9b1b934b83a34b7b760a91b608082015260a06040820152600061131d60a0830184866111bb565b95945050505050565b60018060a01b038416815260606020820152601860608201527f636f6c6c656374696f6e2f72657475726e416464726573730000000000000000608082015260a06040820152600061131d60a0830184866111bb565b60018060a01b03841681526060602082015260046060820152636e616d6560e01b608082015260a06040820152600061131d60a0830184866111bb565b60018060a01b03831681526060602082015260146060820152736d6178416c6c6f7761626c654c6174654461797360601b608082015260a06040820152600061140560a08301846111e4565b949350505050565b60018060a01b038316815260606020820152600a60608201526972656e7450657244617960b01b608082015260a06040820152600061140560a08301846111e4565b60018060a01b038316815260606020820152600f60608201526e6d656469614950465348617368657360881b608082015260a06040820152600061140560a08301846111e4565b602081016114a48284611199565b92915050565b602081526114c46020820183516001600160a01b03169052565b600060208301516114e060408401826001600160a01b03169052565b5060408301516101408060608501526114fd6101608501836111e4565b91506060850151601f198086850301608087015261151b84836111e4565b935060808701519150808685030160a087015261153884836111e4565b935060a087015160c087015260c0870151915061155a60e087018360ff169052565b60e087015191506101006115728188018460ff169052565b87015191506101206115878782018415159052565b8701518685039091018387015290506115a083826111e4565b9695505050505050565b60005b838110156115c55781810151838201526020016115ad565b838111156115d4576000848401525b50505050565b600181811c908216806115ee57607f821691505b6020821081141561160f57634e487b7160e01b600052602260045260246000fd5b50919050565b600060ff821660ff81141561163a57634e487b7160e01b600052601160045260246000fd5b60010192915050565b634e487b7160e01b600052604160045260246000fd5b6001600160a01b038116811461166e57600080fd5b5056fe1fb119ae646ad419061c26b2c9f00687535e680f4cabbaa1a12df632a4668054a26469706673582212204409909788b57dc25d10a79ba38ead89665010e51451c79491e130206fe2685264736f6c63430008070033608060405234801561001057600080fd5b50610649806100206000396000f3fe608060405234801561001057600080fd5b50600436106100365760003560e01c806326d273371461003b578063f76f950e14610064575b600080fd5b61004e6100493660046102fd565b610077565b60405161005b9190610346565b60405180910390f35b61004e61007236600461032d565b6101be565b60408051602880825260608281019093526000919060208201818036833701905050905060005b60148110156101b75760006100b482601361053b565b6100bf9060086104fb565b6100ca906002610451565b6100dd906001600160a01b0387166103d8565b60f81b9050600060108260f81c6100f491906103ec565b60f81b905060008160f81c601061010b919061051a565b8360f81c6101199190610552565b60f81b9050610127826102c7565b856101338660026104fb565b81518110610143576101436105e7565b60200101906001600160f81b031916908160001a905350610163816102c7565b8561016f8660026104fb565b61017a90600161039b565b8151811061018a5761018a6105e7565b60200101906001600160f81b031916908160001a90535050505080806101af9061058c565b91505061009e565b5092915050565b6060816101e25750506040805180820190915260018152600360fc1b602082015290565b8160005b811561020c57806101f68161058c565b91506102059050600a836103d8565b91506101e6565b60008167ffffffffffffffff811115610227576102276105fd565b6040519080825280601f01601f191660200182016040528015610251576020820181803683370190505b508593509050815b83156102be5761026a600a856105a7565b61027590603061039b565b60f81b8261028283610575565b92508281518110610295576102956105e7565b60200101906001600160f81b031916908160001a9053506102b7600a856103d8565b9350610259565b50949350505050565b6000600a60f883901c10156102ee576102e560f883901c60306103b3565b60f81b92915050565b6102e560f883901c60576103b3565b60006020828403121561030f57600080fd5b81356001600160a01b038116811461032657600080fd5b9392505050565b60006020828403121561033f57600080fd5b5035919050565b600060208083528351808285015260005b8181101561037357858101830151858201604001528201610357565b81811115610385576000604083870101525b50601f01601f1916929092016040019392505050565b600082198211156103ae576103ae6105bb565b500190565b600060ff821660ff84168060ff038211156103d0576103d06105bb565b019392505050565b6000826103e7576103e76105d1565b500490565b600060ff8316806103ff576103ff6105d1565b8060ff84160491505092915050565b600181815b8085111561044957816000190482111561042f5761042f6105bb565b8085161561043c57918102915b93841c9390800290610413565b509250929050565b60006103268383600082610467575060016104f5565b81610474575060006104f5565b816001811461048a5760028114610494576104b0565b60019150506104f5565b60ff8411156104a5576104a56105bb565b50506001821b6104f5565b5060208310610133831016604e8410600b84101617156104d3575081810a6104f5565b6104dd838361040e565b80600019048211156104f1576104f16105bb565b0290505b92915050565b6000816000190483118215151615610515576105156105bb565b500290565b600060ff821660ff84168160ff04811182151516156104f1576104f16105bb565b60008282101561054d5761054d6105bb565b500390565b600060ff821660ff84168082101561056c5761056c6105bb565b90039392505050565b600081610584576105846105bb565b506000190190565b60006000198214156105a0576105a06105bb565b5060010190565b6000826105b6576105b66105d1565b500690565b634e487b7160e01b600052601160045260246000fd5b634e487b7160e01b600052601260045260246000fd5b634e487b7160e01b600052603260045260246000fd5b634e487b7160e01b600052604160045260246000fdfea26469706673582212202eee08da6fb358cb68fb4a5f1c458c0a667c1412ed0eac24ae776c80af7a4e5864736f6c63430008070033",
  "immutableReferences": {},
  "source": "// SPDX-License-Identifier: GPL-3.0\n\npragma solidity >=0.7.0 <0.9.0;\n\nimport \"./helpers/Utils.sol\";\n\n// import \"./helpers/Structs.sol\";\n\ncontract Item {\n    Utils utils = new Utils();\n\n    enum ItemStatus {\n        AVAILABLE,\n        HIDDEN,\n        DELETED\n    }\n\n    struct ItemDetails {\n        address ownerUserContract;\n        address payable ownerAddress;\n        string name;\n        string collectionOrReturnAddress;\n        string description;\n        uint256 rentPerDay; // in Wei\n        uint8 maxAllowableLateDays;\n        uint8 multipleForLateFees;\n        bool isAvailableForRent;\n        string mediaIPFSHashes;\n    }\n\n    struct RentalStartEnd {\n        uint256 start; // Unix epoch time\n        uint256 end; // Unix epoch time\n    }\n\n    address public ownerUserContract;\n    address public ownerAddress;\n    ItemDetails public itemDetails;\n    ItemStatus public itemStatus;\n\n    address[] public rentalContracts;\n    uint8 public rentalContractCount;\n    RentalStartEnd[] public rentalPeriods;\n\n    address[] public renters;\n    uint8 public renterCount;\n    mapping(address => bool) public isRenter;\n\n    event itemOwnerChanged(\n        address item,\n        address newOwnerUserContract,\n        address newOwnerAddress\n    );\n    event itemStatusChanged(address item, ItemStatus newStatus);\n    event itemDetailsChanged(address item, string property, string newDetails);\n\n    constructor(ItemDetails memory _itemDetails) {\n        itemDetails = _itemDetails;\n        ownerUserContract = itemDetails.ownerUserContract;\n        ownerAddress = itemDetails.ownerAddress;\n\n        if (itemDetails.isAvailableForRent) {\n            itemStatus = ItemStatus.AVAILABLE;\n        } else {\n            itemStatus = ItemStatus.HIDDEN;\n        }\n\n        rentalContractCount = 0;\n        renterCount = 0;\n    }\n\n    modifier onlyOwner() {\n        require(msg.sender == ownerAddress);\n        _;\n    }\n\n    modifier onlyRenters() {\n        require(isRenter[msg.sender]);\n        _;\n    }\n\n    function changeOwner(\n        address _newOwnerUserContract,\n        address payable _newOwnerAddress\n    ) public onlyOwner {\n        itemDetails.ownerUserContract = _newOwnerUserContract;\n        itemDetails.ownerAddress = _newOwnerAddress;\n        ownerUserContract = _newOwnerUserContract;\n        ownerAddress = _newOwnerAddress;\n\n        emit itemOwnerChanged(\n            address(this),\n            _newOwnerUserContract,\n            _newOwnerAddress\n        );\n    }\n\n    function changeItemStatus(uint8 _newStatus) public onlyOwner {\n        if (_newStatus == 0) {\n            itemDetails.isAvailableForRent = true;\n            itemStatus = ItemStatus.AVAILABLE;\n        } else if (_newStatus == 1) {\n            itemDetails.isAvailableForRent = false;\n            itemStatus = ItemStatus.HIDDEN;\n        } else if (_newStatus == 2) {\n            itemDetails.isAvailableForRent = false;\n            itemStatus = ItemStatus.DELETED;\n        }\n\n        emit itemStatusChanged(address(this), itemStatus);\n    }\n\n    function changeItemName(string calldata _newName) public onlyOwner {\n        itemDetails.name = _newName;\n        emit itemDetailsChanged(address(this), \"name\", _newName);\n    }\n\n    function changeItemCollectionOrReturnAddress(string calldata _newAddress)\n        public\n        onlyOwner\n    {\n        itemDetails.collectionOrReturnAddress = _newAddress;\n        emit itemDetailsChanged(\n            address(this),\n            \"collection/returnAddress\",\n            _newAddress\n        );\n    }\n\n    function changeItemDescription(string calldata _newDescription)\n        public\n        onlyOwner\n    {\n        itemDetails.description = _newDescription;\n        emit itemDetailsChanged(address(this), \"description\", _newDescription);\n    }\n\n    function changeItemRentPerDay(uint256 _newRentPerDay) public onlyOwner {\n        itemDetails.rentPerDay = _newRentPerDay;\n        string memory newRentPerDay = utils.uint2str(_newRentPerDay);\n        emit itemDetailsChanged(\n            address(this),\n            \"rentPerDay\",\n            string(newRentPerDay)\n        );\n    }\n\n    function changeItemMaxAllowableLateDays(uint8 _newMaxAllowableLateDays)\n        public\n        onlyOwner\n    {\n        itemDetails.maxAllowableLateDays = _newMaxAllowableLateDays;\n        string memory newMaxAllowableLateDays = utils.uint2str(\n            _newMaxAllowableLateDays\n        );\n        emit itemDetailsChanged(\n            address(this),\n            \"maxAllowableLateDays\",\n            newMaxAllowableLateDays\n        );\n    }\n\n    function changeItemMediaIPFSHashes(string calldata _newMediaIPFSHashes)\n        public\n        onlyOwner\n    {\n        itemDetails.mediaIPFSHashes = _newMediaIPFSHashes;\n        string memory newMediaIPFSHashes = string(\n            abi.encodePacked(_newMediaIPFSHashes)\n        );\n        emit itemDetailsChanged(\n            address(this),\n            \"mediaIPFSHashes\",\n            newMediaIPFSHashes\n        );\n    }\n\n    function addNewRenter(address _renter) public {\n        renters.push(_renter);\n        renterCount++;\n        isRenter[_renter] = true;\n    }\n\n    function handleNewRental(\n        address _newRentalContract,\n        uint256 _start,\n        uint256 _end\n    ) public onlyRenters {\n        rentalContracts.push(_newRentalContract);\n        rentalContractCount++;\n        rentalPeriods.push(RentalStartEnd({start: _start, end: _end}));\n    }\n\n    function getItemDetails() public view returns (ItemDetails memory) {\n        return itemDetails;\n    }\n}\n",
  "sourcePath": "/Users/jyuteo/CodeProjects/TRent/src/contracts/Item.sol",
  "compiler": {
    "name": "solc",
    "version": "0.8.7+commit.e28d00a7.Emscripten.clang"
  },
  "schemaVersion": "3.4.3",
  "updatedAt": "2021-08-29T07:57:04.114Z",
  "devdoc": {
    "kind": "dev",
    "methods": {},
    "version": 1
  },
  "userdoc": {
    "kind": "user",
    "methods": {},
    "version": 1
  }
}