{
  "contractName": "Item",
  "abi": [
    {
      "inputs": [
        {
          "components": [
            {
              "internalType": "address",
              "name": "owner",
              "type": "address"
            },
            {
              "internalType": "string",
              "name": "name",
              "type": "string"
            },
            {
              "internalType": "string",
              "name": "collectionOrReturnAddress",
              "type": "string"
            },
            {
              "internalType": "string",
              "name": "description",
              "type": "string"
            },
            {
              "internalType": "uint256",
              "name": "rentPerDay",
              "type": "uint256"
            },
            {
              "internalType": "uint8",
              "name": "maxAllowableLateDays",
              "type": "uint8"
            },
            {
              "internalType": "bool",
              "name": "isAvailableForRent",
              "type": "bool"
            },
            {
              "internalType": "address[]",
              "name": "mediaIPFSHashes",
              "type": "address[]"
            }
          ],
          "internalType": "struct Item.ItemDetails",
          "name": "_itemDetails",
          "type": "tuple"
        }
      ],
      "stateMutability": "nonpayable",
      "type": "constructor"
    },
    {
      "anonymous": false,
      "inputs": [
        {
          "indexed": false,
          "internalType": "address",
          "name": "item",
          "type": "address"
        },
        {
          "indexed": false,
          "internalType": "string",
          "name": "property",
          "type": "string"
        },
        {
          "indexed": false,
          "internalType": "string",
          "name": "newDetails",
          "type": "string"
        }
      ],
      "name": "itemDetailsChanged",
      "type": "event"
    },
    {
      "anonymous": false,
      "inputs": [
        {
          "indexed": false,
          "internalType": "address",
          "name": "item",
          "type": "address"
        },
        {
          "indexed": false,
          "internalType": "address",
          "name": "newOwner",
          "type": "address"
        }
      ],
      "name": "itemOwnerChanged",
      "type": "event"
    },
    {
      "anonymous": false,
      "inputs": [
        {
          "indexed": false,
          "internalType": "address",
          "name": "item",
          "type": "address"
        },
        {
          "indexed": false,
          "internalType": "enum Item.ItemStatus",
          "name": "newStatus",
          "type": "uint8"
        }
      ],
      "name": "itemStatusChanged",
      "type": "event"
    },
    {
      "inputs": [
        {
          "internalType": "address",
          "name": "",
          "type": "address"
        }
      ],
      "name": "isRenter",
      "outputs": [
        {
          "internalType": "bool",
          "name": "",
          "type": "bool"
        }
      ],
      "stateMutability": "view",
      "type": "function"
    },
    {
      "inputs": [],
      "name": "itemDetails",
      "outputs": [
        {
          "internalType": "address",
          "name": "owner",
          "type": "address"
        },
        {
          "internalType": "string",
          "name": "name",
          "type": "string"
        },
        {
          "internalType": "string",
          "name": "collectionOrReturnAddress",
          "type": "string"
        },
        {
          "internalType": "string",
          "name": "description",
          "type": "string"
        },
        {
          "internalType": "uint256",
          "name": "rentPerDay",
          "type": "uint256"
        },
        {
          "internalType": "uint8",
          "name": "maxAllowableLateDays",
          "type": "uint8"
        },
        {
          "internalType": "bool",
          "name": "isAvailableForRent",
          "type": "bool"
        }
      ],
      "stateMutability": "view",
      "type": "function"
    },
    {
      "inputs": [],
      "name": "itemStatus",
      "outputs": [
        {
          "internalType": "enum Item.ItemStatus",
          "name": "",
          "type": "uint8"
        }
      ],
      "stateMutability": "view",
      "type": "function"
    },
    {
      "inputs": [],
      "name": "owner",
      "outputs": [
        {
          "internalType": "address",
          "name": "",
          "type": "address"
        }
      ],
      "stateMutability": "view",
      "type": "function"
    },
    {
      "inputs": [],
      "name": "rentalContractCount",
      "outputs": [
        {
          "internalType": "uint8",
          "name": "",
          "type": "uint8"
        }
      ],
      "stateMutability": "view",
      "type": "function"
    },
    {
      "inputs": [
        {
          "internalType": "uint256",
          "name": "",
          "type": "uint256"
        }
      ],
      "name": "rentalContracts",
      "outputs": [
        {
          "internalType": "address",
          "name": "",
          "type": "address"
        }
      ],
      "stateMutability": "view",
      "type": "function"
    },
    {
      "inputs": [
        {
          "internalType": "uint256",
          "name": "",
          "type": "uint256"
        }
      ],
      "name": "rentalPeriods",
      "outputs": [
        {
          "internalType": "uint256",
          "name": "start",
          "type": "uint256"
        },
        {
          "internalType": "uint256",
          "name": "end",
          "type": "uint256"
        }
      ],
      "stateMutability": "view",
      "type": "function"
    },
    {
      "inputs": [],
      "name": "renterCount",
      "outputs": [
        {
          "internalType": "uint8",
          "name": "",
          "type": "uint8"
        }
      ],
      "stateMutability": "view",
      "type": "function"
    },
    {
      "inputs": [
        {
          "internalType": "uint256",
          "name": "",
          "type": "uint256"
        }
      ],
      "name": "renters",
      "outputs": [
        {
          "internalType": "address",
          "name": "",
          "type": "address"
        }
      ],
      "stateMutability": "view",
      "type": "function"
    },
    {
      "inputs": [
        {
          "internalType": "address",
          "name": "_newOwner",
          "type": "address"
        }
      ],
      "name": "changeOwner",
      "outputs": [],
      "stateMutability": "nonpayable",
      "type": "function"
    },
    {
      "inputs": [
        {
          "internalType": "uint8",
          "name": "_newStatus",
          "type": "uint8"
        }
      ],
      "name": "changeItemStatus",
      "outputs": [],
      "stateMutability": "nonpayable",
      "type": "function"
    },
    {
      "inputs": [
        {
          "internalType": "string",
          "name": "_newName",
          "type": "string"
        }
      ],
      "name": "changeItemName",
      "outputs": [],
      "stateMutability": "nonpayable",
      "type": "function"
    },
    {
      "inputs": [
        {
          "internalType": "string",
          "name": "_newAddress",
          "type": "string"
        }
      ],
      "name": "changeItemCollectionOrReturnAddress",
      "outputs": [],
      "stateMutability": "nonpayable",
      "type": "function"
    },
    {
      "inputs": [
        {
          "internalType": "string",
          "name": "_newDescription",
          "type": "string"
        }
      ],
      "name": "changeItemDescription",
      "outputs": [],
      "stateMutability": "nonpayable",
      "type": "function"
    },
    {
      "inputs": [
        {
          "internalType": "uint256",
          "name": "_newRentPerDay",
          "type": "uint256"
        }
      ],
      "name": "changeItemRentPerDay",
      "outputs": [],
      "stateMutability": "nonpayable",
      "type": "function"
    },
    {
      "inputs": [
        {
          "internalType": "uint8",
          "name": "_newMaxAllowableLateDays",
          "type": "uint8"
        }
      ],
      "name": "changeItemMaxAllowableLateDays",
      "outputs": [],
      "stateMutability": "nonpayable",
      "type": "function"
    },
    {
      "inputs": [
        {
          "internalType": "address[]",
          "name": "_newMediaIPFSHashes",
          "type": "address[]"
        }
      ],
      "name": "changeItemMediaIPFSHashes",
      "outputs": [],
      "stateMutability": "nonpayable",
      "type": "function"
    },
    {
      "inputs": [
        {
          "internalType": "address",
          "name": "_renter",
          "type": "address"
        }
      ],
      "name": "addNewRenter",
      "outputs": [],
      "stateMutability": "nonpayable",
      "type": "function"
    },
    {
      "inputs": [
        {
          "internalType": "address",
          "name": "_newRentalContract",
          "type": "address"
        },
        {
          "internalType": "uint256",
          "name": "_start",
          "type": "uint256"
        },
        {
          "internalType": "uint256",
          "name": "_end",
          "type": "uint256"
        }
      ],
      "name": "handleNewRental",
      "outputs": [],
      "stateMutability": "nonpayable",
      "type": "function"
    }
  ],
  "bytecode": "0x60806040526040516200001290620002d7565b604051809103906000f0801580156200002f573d6000803e3d6000fd5b506000806101000a81548173ffffffffffffffffffffffffffffffffffffffff021916908373ffffffffffffffffffffffffffffffffffffffff1602179055503480156200007c57600080fd5b506040516200363f3803806200363f8339818101604052810190620000a2919062000707565b80600260008201518160000160006101000a81548173ffffffffffffffffffffffffffffffffffffffff021916908373ffffffffffffffffffffffffffffffffffffffff16021790555060208201518160010190805190602001906200010a929190620002e5565b50604082015181600201908051906020019062000129929190620002e5565b50606082015181600301908051906020019062000148929190620002e5565b506080820151816004015560a08201518160050160006101000a81548160ff021916908360ff16021790555060c08201518160050160016101000a81548160ff02191690831515021790555060e0820151816006019080519060200190620001b292919062000376565b50905050600260000160009054906101000a900473ffffffffffffffffffffffffffffffffffffffff16600160006101000a81548173ffffffffffffffffffffffffffffffffffffffff021916908373ffffffffffffffffffffffffffffffffffffffff160217905550600260050160019054906101000a900460ff161562000269576000600960006101000a81548160ff021916908360028111156200025e576200025d620008df565b5b021790555062000298565b6001600960006101000a81548160ff02191690836002811115620002925762000291620008df565b5b02179055505b6000600b60006101000a81548160ff021916908360ff1602179055506000600e60006101000a81548160ff021916908360ff1602179055505062000a08565b610ae68062002b5983390190565b828054620002f39062000873565b90600052602060002090601f01602090048101928262000317576000855562000363565b82601f106200033257805160ff191683800117855562000363565b8280016001018555821562000363579182015b828111156200036257825182559160200191906001019062000345565b5b50905062000372919062000405565b5090565b828054828255906000526020600020908101928215620003f2579160200282015b82811115620003f15782518260006101000a81548173ffffffffffffffffffffffffffffffffffffffff021916908373ffffffffffffffffffffffffffffffffffffffff1602179055509160200191906001019062000397565b5b50905062000401919062000405565b5090565b5b808211156200042057600081600090555060010162000406565b5090565b60006200043b620004358462000781565b62000758565b905080838252602082019050828560208602820111156200046157620004606200097b565b5b60005b858110156200049557816200047a8882620004ea565b84526020840193506020830192505060018101905062000464565b5050509392505050565b6000620004b6620004b084620007b0565b62000758565b905082815260208101848484011115620004d557620004d462000980565b5b620004e28482856200083d565b509392505050565b600081519050620004fb81620009a0565b92915050565b600082601f8301126200051957620005186200096c565b5b81516200052b84826020860162000424565b91505092915050565b6000815190506200054581620009ba565b92915050565b600082601f8301126200056357620005626200096c565b5b8151620005758482602086016200049f565b91505092915050565b6000610100828403121562000598576200059762000971565b5b620005a561010062000758565b90506000620005b784828501620004ea565b600083015250602082015167ffffffffffffffff811115620005de57620005dd62000976565b5b620005ec848285016200054b565b602083015250604082015167ffffffffffffffff81111562000613576200061262000976565b5b62000621848285016200054b565b604083015250606082015167ffffffffffffffff81111562000648576200064762000976565b5b62000656848285016200054b565b60608301525060806200066c84828501620006d9565b60808301525060a06200068284828501620006f0565b60a08301525060c0620006988482850162000534565b60c08301525060e082015167ffffffffffffffff811115620006bf57620006be62000976565b5b620006cd8482850162000501565b60e08301525092915050565b600081519050620006ea81620009d4565b92915050565b6000815190506200070181620009ee565b92915050565b60006020828403121562000720576200071f6200098a565b5b600082015167ffffffffffffffff81111562000741576200074062000985565b5b6200074f848285016200057e565b91505092915050565b60006200076462000777565b9050620007728282620008a9565b919050565b6000604051905090565b600067ffffffffffffffff8211156200079f576200079e6200093d565b5b602082029050602081019050919050565b600067ffffffffffffffff821115620007ce57620007cd6200093d565b5b620007d9826200098f565b9050602081019050919050565b6000620007f38262000806565b9050919050565b60008115159050919050565b600073ffffffffffffffffffffffffffffffffffffffff82169050919050565b6000819050919050565b600060ff82169050919050565b60005b838110156200085d57808201518184015260208101905062000840565b838111156200086d576000848401525b50505050565b600060028204905060018216806200088c57607f821691505b60208210811415620008a357620008a26200090e565b5b50919050565b620008b4826200098f565b810181811067ffffffffffffffff82111715620008d657620008d56200093d565b5b80604052505050565b7f4e487b7100000000000000000000000000000000000000000000000000000000600052602160045260246000fd5b7f4e487b7100000000000000000000000000000000000000000000000000000000600052602260045260246000fd5b7f4e487b7100000000000000000000000000000000000000000000000000000000600052604160045260246000fd5b600080fd5b600080fd5b600080fd5b600080fd5b600080fd5b600080fd5b600080fd5b6000601f19601f8301169050919050565b620009ab81620007e6565b8114620009b757600080fd5b50565b620009c581620007fa565b8114620009d157600080fd5b50565b620009df8162000826565b8114620009eb57600080fd5b50565b620009f98162000830565b811462000a0557600080fd5b50565b6121418062000a186000396000f3fe608060405234801561001057600080fd5b50600436106101215760003560e01c806386941d29116100ad578063a6f9dae111610071578063a6f9dae1146102fb578063a871c23114610317578063dcc3974b14610333578063e3d0c9d214610363578063ffd369cc1461037f57610121565b806386941d29146102575780638da5cb5b146102735780639e18eb76146102915780639f2bc40e146102ad578063a50ad359146102dd57610121565b806356ca4cfb116100f457806356ca4cfb146101bf57806363737c51146101dd5780636679497b146101fb5780636e309a8b1461021757806382770a431461023357610121565b806306669aea1461012657806321fb7ee81461014257806352ab52bb1461017357806353da02061461018f575b600080fd5b610140600480360381019061013b91906115e1565b61039b565b005b61015c600480360381019061015791906116bc565b61056b565b60405161016a929190611bd2565b60405180910390f35b61018d6004803603810190610188919061158e565b61059f565b005b6101a960048036038101906101a491906116bc565b6106eb565b6040516101b691906118fe565b60405180910390f35b6101c761072a565b6040516101d49190611c16565b60405180910390f35b6101e561073d565b6040516101f29190611c16565b60405180910390f35b610215600480360381019061021091906116e9565b610750565b005b610231600480360381019061022c919061162a565b6108b8565b005b61023b610968565b60405161024e979695949392919061196b565b60405180910390f35b610271600480360381019061026c919061162a565b610b6a565b005b61027b610c19565b60405161028891906118fe565b60405180910390f35b6102ab60048036038101906102a69190611561565b610c3f565b005b6102c760048036038101906102c29190611561565b610d35565b6040516102d49190611b81565b60405180910390f35b6102e5610d55565b6040516102f29190611b9c565b60405180910390f35b61031560048036038101906103109190611561565b610d68565b005b610331600480360381019061032c919061162a565b610e83565b005b61034d600480360381019061034891906116bc565b610f33565b60405161035a91906118fe565b60405180910390f35b61037d600480360381019061037891906116bc565b610f72565b005b610399600480360381019061039491906116e9565b6110c6565b005b600160009054906101000a900473ffffffffffffffffffffffffffffffffffffffff1673ffffffffffffffffffffffffffffffffffffffff163373ffffffffffffffffffffffffffffffffffffffff16146103f557600080fd5b806002600601908051906020019061040e929190611277565b50600060405180602001604052806000815250905060005b825181101561052d578160008054906101000a900473ffffffffffffffffffffffffffffffffffffffff1673ffffffffffffffffffffffffffffffffffffffff166326d2733785848151811061047f5761047e611f0b565b5b60200260200101516040518263ffffffff1660e01b81526004016104a391906118fe565b60006040518083038186803b1580156104bb57600080fd5b505afa1580156104cf573d6000803e3d6000fd5b505050506040513d6000823e3d601f19601f820116820180604052508101906104f89190611673565b6040516020016105099291906118cf565b6040516020818303038152906040529150808061052590611e0b565b915050610426565b507f1fb119ae646ad419061c26b2c9f00687535e680f4cabbaa1a12df632a4668054308260405161055f929190611b3e565b60405180910390a15050565b600c818154811061057b57600080fd5b90600052602060002090600202016000915090508060000154908060010154905082565b600f60003373ffffffffffffffffffffffffffffffffffffffff1673ffffffffffffffffffffffffffffffffffffffff16815260200190815260200160002060009054906101000a900460ff166105f557600080fd5b600a839080600181540180825580915050600190039060005260206000200160009091909190916101000a81548173ffffffffffffffffffffffffffffffffffffffff021916908373ffffffffffffffffffffffffffffffffffffffff160217905550600b600081819054906101000a900460ff168092919061067790611e54565b91906101000a81548160ff021916908360ff16021790555050600c604051806040016040528084815260200183815250908060018154018082558091505060019003906000526020600020906002020160009091909190915060008201518160000155602082015181600101555050505050565b600a81815481106106fb57600080fd5b906000526020600020016000915054906101000a900473ffffffffffffffffffffffffffffffffffffffff1681565b600e60009054906101000a900460ff1681565b600b60009054906101000a900460ff1681565b600160009054906101000a900473ffffffffffffffffffffffffffffffffffffffff1673ffffffffffffffffffffffffffffffffffffffff163373ffffffffffffffffffffffffffffffffffffffff16146107aa57600080fd5b80600260050160006101000a81548160ff021916908360ff16021790555060008060009054906101000a900473ffffffffffffffffffffffffffffffffffffffff1673ffffffffffffffffffffffffffffffffffffffff1663f76f950e836040518263ffffffff1660e01b81526004016108249190611bfb565b60006040518083038186803b15801561083c57600080fd5b505afa158015610850573d6000803e3d6000fd5b505050506040513d6000823e3d601f19601f820116820180604052508101906108799190611673565b90507f1fb119ae646ad419061c26b2c9f00687535e680f4cabbaa1a12df632a466805430826040516108ac929190611ab8565b60405180910390a15050565b600160009054906101000a900473ffffffffffffffffffffffffffffffffffffffff1673ffffffffffffffffffffffffffffffffffffffff163373ffffffffffffffffffffffffffffffffffffffff161461091257600080fd5b806002600301908051906020019061092b929190611301565b507f1fb119ae646ad419061c26b2c9f00687535e680f4cabbaa1a12df632a4668054308260405161095d9291906119ef565b60405180910390a150565b60028060000160009054906101000a900473ffffffffffffffffffffffffffffffffffffffff169080600101805461099f90611da8565b80601f01602080910402602001604051908101604052809291908181526020018280546109cb90611da8565b8015610a185780601f106109ed57610100808354040283529160200191610a18565b820191906000526020600020905b8154815290600101906020018083116109fb57829003601f168201915b505050505090806002018054610a2d90611da8565b80601f0160208091040260200160405190810160405280929190818152602001828054610a5990611da8565b8015610aa65780601f10610a7b57610100808354040283529160200191610aa6565b820191906000526020600020905b815481529060010190602001808311610a8957829003601f168201915b505050505090806003018054610abb90611da8565b80601f0160208091040260200160405190810160405280929190818152602001828054610ae790611da8565b8015610b345780601f10610b0957610100808354040283529160200191610b34565b820191906000526020600020905b815481529060010190602001808311610b1757829003601f168201915b5050505050908060040154908060050160009054906101000a900460ff16908060050160019054906101000a900460ff16905087565b600160009054906101000a900473ffffffffffffffffffffffffffffffffffffffff1673ffffffffffffffffffffffffffffffffffffffff163373ffffffffffffffffffffffffffffffffffffffff1614610bc457600080fd5b80600280019080519060200190610bdc929190611301565b507f1fb119ae646ad419061c26b2c9f00687535e680f4cabbaa1a12df632a46680543082604051610c0e929190611a32565b60405180910390a150565b600160009054906101000a900473ffffffffffffffffffffffffffffffffffffffff1681565b600d819080600181540180825580915050600190039060005260206000200160009091909190916101000a81548173ffffffffffffffffffffffffffffffffffffffff021916908373ffffffffffffffffffffffffffffffffffffffff160217905550600e600081819054906101000a900460ff1680929190610cc190611e54565b91906101000a81548160ff021916908360ff160217905550506001600f60008373ffffffffffffffffffffffffffffffffffffffff1673ffffffffffffffffffffffffffffffffffffffff16815260200190815260200160002060006101000a81548160ff02191690831515021790555050565b600f6020528060005260406000206000915054906101000a900460ff1681565b600960009054906101000a900460ff1681565b600160009054906101000a900473ffffffffffffffffffffffffffffffffffffffff1673ffffffffffffffffffffffffffffffffffffffff163373ffffffffffffffffffffffffffffffffffffffff1614610dc257600080fd5b80600260000160006101000a81548173ffffffffffffffffffffffffffffffffffffffff021916908373ffffffffffffffffffffffffffffffffffffffff16021790555080600160006101000a81548173ffffffffffffffffffffffffffffffffffffffff021916908373ffffffffffffffffffffffffffffffffffffffff1602179055507fdc9230f080d0a42c0cbdad257f4d42957e2b7bee402bec3d8dbf5b51da448c4e3082604051610e78929190611919565b60405180910390a150565b600160009054906101000a900473ffffffffffffffffffffffffffffffffffffffff1673ffffffffffffffffffffffffffffffffffffffff163373ffffffffffffffffffffffffffffffffffffffff1614610edd57600080fd5b8060026001019080519060200190610ef6929190611301565b507f1fb119ae646ad419061c26b2c9f00687535e680f4cabbaa1a12df632a46680543082604051610f28929190611a75565b60405180910390a150565b600d8181548110610f4357600080fd5b906000526020600020016000915054906101000a900473ffffffffffffffffffffffffffffffffffffffff1681565b600160009054906101000a900473ffffffffffffffffffffffffffffffffffffffff1673ffffffffffffffffffffffffffffffffffffffff163373ffffffffffffffffffffffffffffffffffffffff1614610fcc57600080fd5b8060026004018190555060008060009054906101000a900473ffffffffffffffffffffffffffffffffffffffff1673ffffffffffffffffffffffffffffffffffffffff1663f76f950e836040518263ffffffff1660e01b81526004016110329190611bb7565b60006040518083038186803b15801561104a57600080fd5b505afa15801561105e573d6000803e3d6000fd5b505050506040513d6000823e3d601f19601f820116820180604052508101906110879190611673565b90507f1fb119ae646ad419061c26b2c9f00687535e680f4cabbaa1a12df632a466805430826040516110ba929190611afb565b60405180910390a15050565b600160009054906101000a900473ffffffffffffffffffffffffffffffffffffffff1673ffffffffffffffffffffffffffffffffffffffff163373ffffffffffffffffffffffffffffffffffffffff161461112057600080fd5b60008160ff16141561117a576001600260050160016101000a81548160ff0219169083151502179055506000600960006101000a81548160ff021916908360028111156111705761116f611ead565b5b021790555061122c565b60018160ff1614156111d4576000600260050160016101000a81548160ff0219169083151502179055506001600960006101000a81548160ff021916908360028111156111ca576111c9611ead565b5b021790555061122b565b60028160ff16141561122a576000600260050160016101000a81548160ff0219169083151502179055506002600960006101000a81548160ff0219169083600281111561122457611223611ead565b5b02179055505b5b5b7f8c5acf85d257fc548b6710d2ceeffe7d4b9b4dc7ed2866b316815c2ab592b9f630600960009054906101000a900460ff1660405161126c929190611942565b60405180910390a150565b8280548282559060005260206000209081019282156112f0579160200282015b828111156112ef5782518260006101000a81548173ffffffffffffffffffffffffffffffffffffffff021916908373ffffffffffffffffffffffffffffffffffffffff16021790555091602001919060010190611297565b5b5090506112fd9190611387565b5090565b82805461130d90611da8565b90600052602060002090601f01602090048101928261132f5760008555611376565b82601f1061134857805160ff1916838001178555611376565b82800160010185558215611376579182015b8281111561137557825182559160200191906001019061135a565b5b5090506113839190611387565b5090565b5b808211156113a0576000816000905550600101611388565b5090565b60006113b76113b284611c56565b611c31565b905080838252602082019050828560208602820111156113da576113d9611f6e565b5b60005b8581101561140a57816113f08882611498565b8452602084019350602083019250506001810190506113dd565b5050509392505050565b600061142761142284611c82565b611c31565b90508281526020810184848401111561144357611442611f73565b5b61144e848285611d66565b509392505050565b600061146961146484611c82565b611c31565b90508281526020810184848401111561148557611484611f73565b5b611490848285611d75565b509392505050565b6000813590506114a7816120c6565b92915050565b600082601f8301126114c2576114c1611f69565b5b81356114d28482602086016113a4565b91505092915050565b600082601f8301126114f0576114ef611f69565b5b8135611500848260208601611414565b91505092915050565b600082601f83011261151e5761151d611f69565b5b815161152e848260208601611456565b91505092915050565b600081359050611546816120dd565b92915050565b60008135905061155b816120f4565b92915050565b60006020828403121561157757611576611f7d565b5b600061158584828501611498565b91505092915050565b6000806000606084860312156115a7576115a6611f7d565b5b60006115b586828701611498565b93505060206115c686828701611537565b92505060406115d786828701611537565b9150509250925092565b6000602082840312156115f7576115f6611f7d565b5b600082013567ffffffffffffffff81111561161557611614611f78565b5b611621848285016114ad565b91505092915050565b6000602082840312156116405761163f611f7d565b5b600082013567ffffffffffffffff81111561165e5761165d611f78565b5b61166a848285016114db565b91505092915050565b60006020828403121561168957611688611f7d565b5b600082015167ffffffffffffffff8111156116a7576116a6611f78565b5b6116b384828501611509565b91505092915050565b6000602082840312156116d2576116d1611f7d565b5b60006116e084828501611537565b91505092915050565b6000602082840312156116ff576116fe611f7d565b5b600061170d8482850161154c565b91505092915050565b61171f81611cda565b82525050565b61172e81611cec565b82525050565b61173d81611d42565b82525050565b600061174e82611cb3565b6117588185611cbe565b9350611768818560208601611d75565b61177181611f82565b840191505092915050565b600061178782611cb3565b6117918185611ccf565b93506117a1818560208601611d75565b80840191505092915050565b60006117ba600b83611cbe565b91506117c582611f93565b602082019050919050565b60006117dd601883611cbe565b91506117e882611fbc565b602082019050919050565b6000611800600483611cbe565b915061180b82611fe5565b602082019050919050565b6000611823601483611cbe565b915061182e8261200e565b602082019050919050565b6000611846600a83611cbe565b915061185182612037565b602082019050919050565b6000611869600283611ccf565b915061187482612060565b600282019050919050565b600061188c600f83611cbe565b915061189782612089565b602082019050919050565b6118ab81611d2b565b82525050565b6118ba81611d54565b82525050565b6118c981611d35565b82525050565b60006118db828561177c565b91506118e68261185c565b91506118f2828461177c565b91508190509392505050565b60006020820190506119136000830184611716565b92915050565b600060408201905061192e6000830185611716565b61193b6020830184611716565b9392505050565b60006040820190506119576000830185611716565b6119646020830184611734565b9392505050565b600060e082019050611980600083018a611716565b81810360208301526119928189611743565b905081810360408301526119a68188611743565b905081810360608301526119ba8187611743565b90506119c960808301866118a2565b6119d660a08301856118c0565b6119e360c0830184611725565b98975050505050505050565b6000606082019050611a046000830185611716565b8181036020830152611a15816117ad565b90508181036040830152611a298184611743565b90509392505050565b6000606082019050611a476000830185611716565b8181036020830152611a58816117d0565b90508181036040830152611a6c8184611743565b90509392505050565b6000606082019050611a8a6000830185611716565b8181036020830152611a9b816117f3565b90508181036040830152611aaf8184611743565b90509392505050565b6000606082019050611acd6000830185611716565b8181036020830152611ade81611816565b90508181036040830152611af28184611743565b90509392505050565b6000606082019050611b106000830185611716565b8181036020830152611b2181611839565b90508181036040830152611b358184611743565b90509392505050565b6000606082019050611b536000830185611716565b8181036020830152611b648161187f565b90508181036040830152611b788184611743565b90509392505050565b6000602082019050611b966000830184611725565b92915050565b6000602082019050611bb16000830184611734565b92915050565b6000602082019050611bcc60008301846118a2565b92915050565b6000604082019050611be760008301856118a2565b611bf460208301846118a2565b9392505050565b6000602082019050611c1060008301846118b1565b92915050565b6000602082019050611c2b60008301846118c0565b92915050565b6000611c3b611c4c565b9050611c478282611dda565b919050565b6000604051905090565b600067ffffffffffffffff821115611c7157611c70611f3a565b5b602082029050602081019050919050565b600067ffffffffffffffff821115611c9d57611c9c611f3a565b5b611ca682611f82565b9050602081019050919050565b600081519050919050565b600082825260208201905092915050565b600081905092915050565b6000611ce582611d0b565b9050919050565b60008115159050919050565b6000819050611d06826120b2565b919050565b600073ffffffffffffffffffffffffffffffffffffffff82169050919050565b6000819050919050565b600060ff82169050919050565b6000611d4d82611cf8565b9050919050565b6000611d5f82611d35565b9050919050565b82818337600083830152505050565b60005b83811015611d93578082015181840152602081019050611d78565b83811115611da2576000848401525b50505050565b60006002820490506001821680611dc057607f821691505b60208210811415611dd457611dd3611edc565b5b50919050565b611de382611f82565b810181811067ffffffffffffffff82111715611e0257611e01611f3a565b5b80604052505050565b6000611e1682611d2b565b91507fffffffffffffffffffffffffffffffffffffffffffffffffffffffffffffffff821415611e4957611e48611e7e565b5b600182019050919050565b6000611e5f82611d35565b915060ff821415611e7357611e72611e7e565b5b600182019050919050565b7f4e487b7100000000000000000000000000000000000000000000000000000000600052601160045260246000fd5b7f4e487b7100000000000000000000000000000000000000000000000000000000600052602160045260246000fd5b7f4e487b7100000000000000000000000000000000000000000000000000000000600052602260045260246000fd5b7f4e487b7100000000000000000000000000000000000000000000000000000000600052603260045260246000fd5b7f4e487b7100000000000000000000000000000000000000000000000000000000600052604160045260246000fd5b600080fd5b600080fd5b600080fd5b600080fd5b600080fd5b6000601f19601f8301169050919050565b7f6465736372697074696f6e000000000000000000000000000000000000000000600082015250565b7f636f6c6c656374696f6e2f72657475726e416464726573730000000000000000600082015250565b7f6e616d6500000000000000000000000000000000000000000000000000000000600082015250565b7f6d6178416c6c6f7761626c654c61746544617973000000000000000000000000600082015250565b7f72656e7450657244617900000000000000000000000000000000000000000000600082015250565b7f2c20000000000000000000000000000000000000000000000000000000000000600082015250565b7f6d65646961495046534861736865730000000000000000000000000000000000600082015250565b600381106120c3576120c2611ead565b5b50565b6120cf81611cda565b81146120da57600080fd5b50565b6120e681611d2b565b81146120f157600080fd5b50565b6120fd81611d35565b811461210857600080fd5b5056fea26469706673582212205885a95e9f54cced5f3b74b71474b1962e834f85fbb99b8a1405f58f99987ae464736f6c63430008070033608060405234801561001057600080fd5b50610ac6806100206000396000f3fe608060405234801561001057600080fd5b50600436106100365760003560e01c806326d273371461003b578063f76f950e1461006b575b600080fd5b61005560048036038101906100509190610435565b61009b565b60405161006291906104c8565b60405180910390f35b61008560048036038101906100809190610462565b61025e565b60405161009291906104c8565b60405180910390f35b60606000602867ffffffffffffffff8111156100ba576100b9610a10565b5b6040519080825280601f01601f1916602001820160405280156100ec5781602001600182028036833780820191505090505b50905060005b601481101561025457600081601361010a91906107fb565b60086101169190610766565b60026101229190610648565b8573ffffffffffffffffffffffffffffffffffffffff166101439190610593565b60f81b9050600060108260f81c61015a91906105c4565b60f81b905060008160f81c601061017191906107c0565b8360f81c61017f919061082f565b60f81b905061018d826103c5565b8585600261019b9190610766565b815181106101ac576101ab6109e1565b5b60200101907effffffffffffffffffffffffffffffffffffffffffffffffffffffffffffff1916908160001a9053506101e4816103c5565b8560018660026101f49190610766565b6101fe9190610506565b8151811061020f5761020e6109e1565b5b60200101907effffffffffffffffffffffffffffffffffffffffffffffffffffffffffffff1916908160001a905350505050808061024c90610909565b9150506100f2565b5080915050919050565b606060008214156102a6576040518060400160405280600181526020017f300000000000000000000000000000000000000000000000000000000000000081525090506103c0565b600082905060005b600082146102d85780806102c190610909565b915050600a826102d19190610593565b91506102ae565b60008167ffffffffffffffff8111156102f4576102f3610a10565b5b6040519080825280601f01601f1916602001820160405280156103265781602001600182028036833780820191505090505b50905060008290508593505b600084146103b857600a846103479190610952565b60306103539190610506565b60f81b8282610361906108df565b92508281518110610375576103746109e1565b5b60200101907effffffffffffffffffffffffffffffffffffffffffffffffffffffffffffff1916908160001a905350600a846103b19190610593565b9350610332565b819450505050505b919050565b6000600a8260f81c60ff1610156103f05760308260f81c6103e6919061055c565b60f81b9050610406565b60578260f81c610400919061055c565b60f81b90505b919050565b60008135905061041a81610a62565b92915050565b60008135905061042f81610a79565b92915050565b60006020828403121561044b5761044a610a3f565b5b60006104598482850161040b565b91505092915050565b60006020828403121561047857610477610a3f565b5b600061048684828501610420565b91505092915050565b600061049a826104ea565b6104a481856104f5565b93506104b48185602086016108ac565b6104bd81610a44565b840191505092915050565b600060208201905081810360008301526104e2818461048f565b905092915050565b600081519050919050565b600082825260208201905092915050565b600061051182610895565b915061051c83610895565b9250827fffffffffffffffffffffffffffffffffffffffffffffffffffffffffffffffff0382111561055157610550610983565b5b828201905092915050565b60006105678261089f565b91506105728361089f565b92508260ff0382111561058857610587610983565b5b828201905092915050565b600061059e82610895565b91506105a983610895565b9250826105b9576105b86109b2565b5b828204905092915050565b60006105cf8261089f565b91506105da8361089f565b9250826105ea576105e96109b2565b5b828204905092915050565b6000808291508390505b600185111561063f5780860481111561061b5761061a610983565b5b600185161561062a5780820291505b808102905061063885610a55565b94506105ff565b94509492505050565b600061065382610895565b915061065e83610895565b925061068b7fffffffffffffffffffffffffffffffffffffffffffffffffffffffffffffffff8484610693565b905092915050565b6000826106a3576001905061075f565b816106b1576000905061075f565b81600181146106c757600281146106d157610700565b600191505061075f565b60ff8411156106e3576106e2610983565b5b8360020a9150848211156106fa576106f9610983565b5b5061075f565b5060208310610133831016604e8410600b84101617156107355782820a9050838111156107305761072f610983565b5b61075f565b61074284848460016105f5565b9250905081840481111561075957610758610983565b5b81810290505b9392505050565b600061077182610895565b915061077c83610895565b9250817fffffffffffffffffffffffffffffffffffffffffffffffffffffffffffffffff04831182151516156107b5576107b4610983565b5b828202905092915050565b60006107cb8261089f565b91506107d68361089f565b92508160ff04831182151516156107f0576107ef610983565b5b828202905092915050565b600061080682610895565b915061081183610895565b92508282101561082457610823610983565b5b828203905092915050565b600061083a8261089f565b91506108458361089f565b92508282101561085857610857610983565b5b828203905092915050565b600061086e82610875565b9050919050565b600073ffffffffffffffffffffffffffffffffffffffff82169050919050565b6000819050919050565b600060ff82169050919050565b60005b838110156108ca5780820151818401526020810190506108af565b838111156108d9576000848401525b50505050565b60006108ea82610895565b915060008214156108fe576108fd610983565b5b600182039050919050565b600061091482610895565b91507fffffffffffffffffffffffffffffffffffffffffffffffffffffffffffffffff82141561094757610946610983565b5b600182019050919050565b600061095d82610895565b915061096883610895565b925082610978576109776109b2565b5b828206905092915050565b7f4e487b7100000000000000000000000000000000000000000000000000000000600052601160045260246000fd5b7f4e487b7100000000000000000000000000000000000000000000000000000000600052601260045260246000fd5b7f4e487b7100000000000000000000000000000000000000000000000000000000600052603260045260246000fd5b7f4e487b7100000000000000000000000000000000000000000000000000000000600052604160045260246000fd5b600080fd5b6000601f19601f8301169050919050565b60008160011c9050919050565b610a6b81610863565b8114610a7657600080fd5b50565b610a8281610895565b8114610a8d57600080fd5b5056fea26469706673582212203dbed255adf54c9a730c75ea35a04e1e16d7a7ca29137b97363537fce6a934a564736f6c63430008070033",
  "immutableReferences": {},
  "source": "// SPDX-License-Identifier: GPL-3.0\n\npragma solidity >=0.7.0 <0.9.0;\n\nimport \"./helpers/Utils.sol\";\n\ncontract Item {\n    Utils utils = new Utils();\n\n    enum ItemStatus {\n        AVAILABLE,\n        HIDDEN,\n        DELETED\n    }\n\n    struct ItemDetails {\n        address owner;\n        string name;\n        string collectionOrReturnAddress;\n        string description;\n        uint256 rentPerDay;\n        uint8 maxAllowableLateDays;\n        bool isAvailableForRent;\n        address[] mediaIPFSHashes;\n    }\n\n    struct RentalStartEnd {\n        uint256 start; // Unix epoch time\n        uint256 end; // Unix epoch time\n    }\n\n    address public owner;\n    ItemDetails public itemDetails;\n    ItemStatus public itemStatus;\n\n    address[] public rentalContracts;\n    uint8 public rentalContractCount;\n    RentalStartEnd[] public rentalPeriods;\n\n    address[] public renters;\n    uint8 public renterCount;\n    mapping(address => bool) public isRenter;\n\n    event itemOwnerChanged(address item, address newOwner);\n    event itemStatusChanged(address item, ItemStatus newStatus);\n    event itemDetailsChanged(address item, string property, string newDetails);\n\n    constructor(ItemDetails memory _itemDetails) {\n        itemDetails = _itemDetails;\n        owner = itemDetails.owner;\n\n        if (itemDetails.isAvailableForRent) {\n            itemStatus = ItemStatus.AVAILABLE;\n        } else {\n            itemStatus = ItemStatus.HIDDEN;\n        }\n\n        rentalContractCount = 0;\n        renterCount = 0;\n    }\n\n    modifier onlyOwner() {\n        require(msg.sender == owner);\n        _;\n    }\n\n    modifier onlyRenters() {\n        require(isRenter[msg.sender]);\n        _;\n    }\n\n    function changeOwner(address _newOwner) public onlyOwner {\n        itemDetails.owner = _newOwner;\n        owner = _newOwner;\n\n        emit itemOwnerChanged(address(this), _newOwner);\n    }\n\n    function changeItemStatus(uint8 _newStatus) public onlyOwner {\n        if (_newStatus == 0) {\n            itemDetails.isAvailableForRent = true;\n            itemStatus = ItemStatus.AVAILABLE;\n        } else if (_newStatus == 1) {\n            itemDetails.isAvailableForRent = false;\n            itemStatus = ItemStatus.HIDDEN;\n        } else if (_newStatus == 2) {\n            itemDetails.isAvailableForRent = false;\n            itemStatus = ItemStatus.DELETED;\n        }\n\n        emit itemStatusChanged(address(this), itemStatus);\n    }\n\n    function changeItemName(string memory _newName) public onlyOwner {\n        itemDetails.name = _newName;\n        emit itemDetailsChanged(address(this), \"name\", _newName);\n    }\n\n    function changeItemCollectionOrReturnAddress(string memory _newAddress)\n        public\n        onlyOwner\n    {\n        itemDetails.collectionOrReturnAddress = _newAddress;\n        emit itemDetailsChanged(\n            address(this),\n            \"collection/returnAddress\",\n            _newAddress\n        );\n    }\n\n    function changeItemDescription(string memory _newDescription)\n        public\n        onlyOwner\n    {\n        itemDetails.description = _newDescription;\n        emit itemDetailsChanged(address(this), \"description\", _newDescription);\n    }\n\n    function changeItemRentPerDay(uint256 _newRentPerDay) public onlyOwner {\n        itemDetails.rentPerDay = _newRentPerDay;\n        string memory newRentPerDay = utils.uint2str(_newRentPerDay);\n        emit itemDetailsChanged(\n            address(this),\n            \"rentPerDay\",\n            string(newRentPerDay)\n        );\n    }\n\n    function changeItemMaxAllowableLateDays(uint8 _newMaxAllowableLateDays)\n        public\n        onlyOwner\n    {\n        itemDetails.maxAllowableLateDays = _newMaxAllowableLateDays;\n        string memory newMaxAllowableLateDays = utils.uint2str(\n            _newMaxAllowableLateDays\n        );\n        emit itemDetailsChanged(\n            address(this),\n            \"maxAllowableLateDays\",\n            newMaxAllowableLateDays\n        );\n    }\n\n    function changeItemMediaIPFSHashes(address[] memory _newMediaIPFSHashes)\n        public\n        onlyOwner\n    {\n        itemDetails.mediaIPFSHashes = _newMediaIPFSHashes;\n        string memory newMediaIPFSHashes = \"\";\n        for (uint256 i = 0; i < _newMediaIPFSHashes.length; i++) {\n            newMediaIPFSHashes = string(\n                abi.encodePacked(\n                    newMediaIPFSHashes,\n                    \", \",\n                    // abi.encodePacked(_newMediaIPFSHashes[i])\n                    utils.address2str(_newMediaIPFSHashes[i])\n                )\n            );\n        }\n        emit itemDetailsChanged(\n            address(this),\n            \"mediaIPFSHashes\",\n            newMediaIPFSHashes\n        );\n    }\n\n    function addNewRenter(address _renter) public {\n        renters.push(_renter);\n        renterCount++;\n        isRenter[_renter] = true;\n    }\n\n    function handleNewRental(\n        address _newRentalContract,\n        uint256 _start,\n        uint256 _end\n    ) public onlyRenters {\n        rentalContracts.push(_newRentalContract);\n        rentalContractCount++;\n        rentalPeriods.push(RentalStartEnd({start: _start, end: _end}));\n    }\n}\n",
  "sourcePath": "/Users/jyuteo/CodeProjects/TRent/src/contracts/Item.sol",
  "compiler": {
    "name": "solc",
    "version": "0.8.7+commit.e28d00a7.Emscripten.clang"
  },
  "schemaVersion": "3.4.3",
  "updatedAt": "2021-08-22T13:57:57.682Z",
  "devdoc": {
    "kind": "dev",
    "methods": {},
    "version": 1
  },
  "userdoc": {
    "kind": "user",
    "methods": {},
    "version": 1
  }
}