{
  "contractName": "Item",
  "abi": [
    {
      "inputs": [
        {
          "components": [
            {
              "internalType": "address",
              "name": "ownerUserContract",
              "type": "address"
            },
            {
              "internalType": "address payable",
              "name": "ownerAddress",
              "type": "address"
            },
            {
              "internalType": "string",
              "name": "name",
              "type": "string"
            },
            {
              "internalType": "string",
              "name": "collectionOrReturnAddress",
              "type": "string"
            },
            {
              "internalType": "string",
              "name": "description",
              "type": "string"
            },
            {
              "internalType": "uint256",
              "name": "rentPerDay",
              "type": "uint256"
            },
            {
              "internalType": "uint8",
              "name": "maxAllowableLateDays",
              "type": "uint8"
            },
            {
              "internalType": "uint8",
              "name": "multipleForLateFees",
              "type": "uint8"
            },
            {
              "internalType": "bool",
              "name": "isAvailableForRent",
              "type": "bool"
            },
            {
              "internalType": "string[]",
              "name": "mediaIPFSHashes",
              "type": "string[]"
            }
          ],
          "internalType": "struct Item.ItemDetails",
          "name": "_itemDetails",
          "type": "tuple"
        }
      ],
      "stateMutability": "nonpayable",
      "type": "constructor"
    },
    {
      "anonymous": false,
      "inputs": [
        {
          "indexed": false,
          "internalType": "address",
          "name": "item",
          "type": "address"
        },
        {
          "indexed": false,
          "internalType": "string",
          "name": "property",
          "type": "string"
        },
        {
          "indexed": false,
          "internalType": "string",
          "name": "newDetails",
          "type": "string"
        }
      ],
      "name": "itemDetailsChanged",
      "type": "event"
    },
    {
      "anonymous": false,
      "inputs": [
        {
          "indexed": false,
          "internalType": "address",
          "name": "item",
          "type": "address"
        },
        {
          "indexed": false,
          "internalType": "address",
          "name": "newOwnerUserContract",
          "type": "address"
        },
        {
          "indexed": false,
          "internalType": "address",
          "name": "newOwnerAddress",
          "type": "address"
        }
      ],
      "name": "itemOwnerChanged",
      "type": "event"
    },
    {
      "anonymous": false,
      "inputs": [
        {
          "indexed": false,
          "internalType": "address",
          "name": "item",
          "type": "address"
        },
        {
          "indexed": false,
          "internalType": "enum Item.ItemStatus",
          "name": "newStatus",
          "type": "uint8"
        }
      ],
      "name": "itemStatusChanged",
      "type": "event"
    },
    {
      "inputs": [
        {
          "internalType": "address",
          "name": "",
          "type": "address"
        }
      ],
      "name": "isRenter",
      "outputs": [
        {
          "internalType": "bool",
          "name": "",
          "type": "bool"
        }
      ],
      "stateMutability": "view",
      "type": "function"
    },
    {
      "inputs": [],
      "name": "itemDetails",
      "outputs": [
        {
          "internalType": "address",
          "name": "ownerUserContract",
          "type": "address"
        },
        {
          "internalType": "address payable",
          "name": "ownerAddress",
          "type": "address"
        },
        {
          "internalType": "string",
          "name": "name",
          "type": "string"
        },
        {
          "internalType": "string",
          "name": "collectionOrReturnAddress",
          "type": "string"
        },
        {
          "internalType": "string",
          "name": "description",
          "type": "string"
        },
        {
          "internalType": "uint256",
          "name": "rentPerDay",
          "type": "uint256"
        },
        {
          "internalType": "uint8",
          "name": "maxAllowableLateDays",
          "type": "uint8"
        },
        {
          "internalType": "uint8",
          "name": "multipleForLateFees",
          "type": "uint8"
        },
        {
          "internalType": "bool",
          "name": "isAvailableForRent",
          "type": "bool"
        }
      ],
      "stateMutability": "view",
      "type": "function"
    },
    {
      "inputs": [],
      "name": "itemReviewCount",
      "outputs": [
        {
          "internalType": "uint8",
          "name": "",
          "type": "uint8"
        }
      ],
      "stateMutability": "view",
      "type": "function"
    },
    {
      "inputs": [
        {
          "internalType": "uint256",
          "name": "",
          "type": "uint256"
        }
      ],
      "name": "itemReviews",
      "outputs": [
        {
          "internalType": "address",
          "name": "item",
          "type": "address"
        },
        {
          "internalType": "address",
          "name": "rentalContract",
          "type": "address"
        },
        {
          "internalType": "address",
          "name": "raterUserContract",
          "type": "address"
        },
        {
          "internalType": "uint8",
          "name": "rate",
          "type": "uint8"
        },
        {
          "internalType": "string",
          "name": "review",
          "type": "string"
        },
        {
          "internalType": "enum User.Role",
          "name": "role",
          "type": "uint8"
        },
        {
          "internalType": "uint256",
          "name": "time",
          "type": "uint256"
        }
      ],
      "stateMutability": "view",
      "type": "function"
    },
    {
      "inputs": [],
      "name": "itemStatus",
      "outputs": [
        {
          "internalType": "enum Item.ItemStatus",
          "name": "",
          "type": "uint8"
        }
      ],
      "stateMutability": "view",
      "type": "function"
    },
    {
      "inputs": [],
      "name": "ownerAddress",
      "outputs": [
        {
          "internalType": "address",
          "name": "",
          "type": "address"
        }
      ],
      "stateMutability": "view",
      "type": "function"
    },
    {
      "inputs": [],
      "name": "ownerUserContract",
      "outputs": [
        {
          "internalType": "address",
          "name": "",
          "type": "address"
        }
      ],
      "stateMutability": "view",
      "type": "function"
    },
    {
      "inputs": [],
      "name": "rentalContractCount",
      "outputs": [
        {
          "internalType": "uint8",
          "name": "",
          "type": "uint8"
        }
      ],
      "stateMutability": "view",
      "type": "function"
    },
    {
      "inputs": [
        {
          "internalType": "uint256",
          "name": "",
          "type": "uint256"
        }
      ],
      "name": "rentalContracts",
      "outputs": [
        {
          "internalType": "address",
          "name": "",
          "type": "address"
        }
      ],
      "stateMutability": "view",
      "type": "function"
    },
    {
      "inputs": [
        {
          "internalType": "uint256",
          "name": "",
          "type": "uint256"
        }
      ],
      "name": "rentalPeriods",
      "outputs": [
        {
          "internalType": "uint256",
          "name": "start",
          "type": "uint256"
        },
        {
          "internalType": "uint256",
          "name": "end",
          "type": "uint256"
        }
      ],
      "stateMutability": "view",
      "type": "function"
    },
    {
      "inputs": [],
      "name": "renterCount",
      "outputs": [
        {
          "internalType": "uint8",
          "name": "",
          "type": "uint8"
        }
      ],
      "stateMutability": "view",
      "type": "function"
    },
    {
      "inputs": [
        {
          "internalType": "uint256",
          "name": "",
          "type": "uint256"
        }
      ],
      "name": "renters",
      "outputs": [
        {
          "internalType": "address",
          "name": "",
          "type": "address"
        }
      ],
      "stateMutability": "view",
      "type": "function"
    },
    {
      "inputs": [
        {
          "internalType": "address",
          "name": "_newOwnerUserContract",
          "type": "address"
        },
        {
          "internalType": "address payable",
          "name": "_newOwnerAddress",
          "type": "address"
        }
      ],
      "name": "changeOwner",
      "outputs": [],
      "stateMutability": "nonpayable",
      "type": "function"
    },
    {
      "inputs": [
        {
          "internalType": "uint8",
          "name": "_newStatus",
          "type": "uint8"
        }
      ],
      "name": "changeItemStatus",
      "outputs": [],
      "stateMutability": "nonpayable",
      "type": "function"
    },
    {
      "inputs": [
        {
          "internalType": "string",
          "name": "_newName",
          "type": "string"
        }
      ],
      "name": "changeItemName",
      "outputs": [],
      "stateMutability": "nonpayable",
      "type": "function"
    },
    {
      "inputs": [
        {
          "internalType": "string",
          "name": "_newAddress",
          "type": "string"
        }
      ],
      "name": "changeItemCollectionOrReturnAddress",
      "outputs": [],
      "stateMutability": "nonpayable",
      "type": "function"
    },
    {
      "inputs": [
        {
          "internalType": "string",
          "name": "_newDescription",
          "type": "string"
        }
      ],
      "name": "changeItemDescription",
      "outputs": [],
      "stateMutability": "nonpayable",
      "type": "function"
    },
    {
      "inputs": [
        {
          "internalType": "uint256",
          "name": "_newRentPerDay",
          "type": "uint256"
        }
      ],
      "name": "changeItemRentPerDay",
      "outputs": [],
      "stateMutability": "nonpayable",
      "type": "function"
    },
    {
      "inputs": [
        {
          "internalType": "uint8",
          "name": "_newMaxAllowableLateDays",
          "type": "uint8"
        }
      ],
      "name": "changeItemMaxAllowableLateDays",
      "outputs": [],
      "stateMutability": "nonpayable",
      "type": "function"
    },
    {
      "inputs": [
        {
          "internalType": "string[]",
          "name": "_newMediaIPFSHashes",
          "type": "string[]"
        }
      ],
      "name": "changeItemMediaIPFSHashes",
      "outputs": [],
      "stateMutability": "nonpayable",
      "type": "function"
    },
    {
      "inputs": [
        {
          "internalType": "address",
          "name": "_renter",
          "type": "address"
        }
      ],
      "name": "addNewRenter",
      "outputs": [],
      "stateMutability": "nonpayable",
      "type": "function"
    },
    {
      "inputs": [
        {
          "internalType": "address",
          "name": "_newRentalContract",
          "type": "address"
        },
        {
          "internalType": "uint256",
          "name": "_start",
          "type": "uint256"
        },
        {
          "internalType": "uint256",
          "name": "_end",
          "type": "uint256"
        }
      ],
      "name": "handleNewRental",
      "outputs": [],
      "stateMutability": "nonpayable",
      "type": "function"
    },
    {
      "inputs": [],
      "name": "getItemDetails",
      "outputs": [
        {
          "components": [
            {
              "internalType": "address",
              "name": "ownerUserContract",
              "type": "address"
            },
            {
              "internalType": "address payable",
              "name": "ownerAddress",
              "type": "address"
            },
            {
              "internalType": "string",
              "name": "name",
              "type": "string"
            },
            {
              "internalType": "string",
              "name": "collectionOrReturnAddress",
              "type": "string"
            },
            {
              "internalType": "string",
              "name": "description",
              "type": "string"
            },
            {
              "internalType": "uint256",
              "name": "rentPerDay",
              "type": "uint256"
            },
            {
              "internalType": "uint8",
              "name": "maxAllowableLateDays",
              "type": "uint8"
            },
            {
              "internalType": "uint8",
              "name": "multipleForLateFees",
              "type": "uint8"
            },
            {
              "internalType": "bool",
              "name": "isAvailableForRent",
              "type": "bool"
            },
            {
              "internalType": "string[]",
              "name": "mediaIPFSHashes",
              "type": "string[]"
            }
          ],
          "internalType": "struct Item.ItemDetails",
          "name": "",
          "type": "tuple"
        }
      ],
      "stateMutability": "view",
      "type": "function"
    },
    {
      "inputs": [
        {
          "components": [
            {
              "internalType": "address",
              "name": "item",
              "type": "address"
            },
            {
              "internalType": "address",
              "name": "rentalContract",
              "type": "address"
            },
            {
              "internalType": "address",
              "name": "raterUserContract",
              "type": "address"
            },
            {
              "internalType": "uint8",
              "name": "rate",
              "type": "uint8"
            },
            {
              "internalType": "string",
              "name": "review",
              "type": "string"
            },
            {
              "internalType": "enum User.Role",
              "name": "role",
              "type": "uint8"
            },
            {
              "internalType": "uint256",
              "name": "time",
              "type": "uint256"
            }
          ],
          "internalType": "struct User.Review",
          "name": "_review",
          "type": "tuple"
        }
      ],
      "name": "addItemReview",
      "outputs": [],
      "stateMutability": "nonpayable",
      "type": "function"
    }
  ],
  "bytecode": "0x6080604052604051620000129062000203565b604051809103906000f0801580156200002f573d6000803e3d6000fd5b50600080546001600160a01b0319166001600160a01b03929092169190911790553480156200005d57600080fd5b5060405162002d0f38038062002d0f8339810160408190526200008091620004fe565b8051600380546001600160a01b03199081166001600160a01b03938416178255602080850151600480549093169416939093179055604083015180518493620000cf9260059291019062000211565b5060608201518051620000ed91600384019160209091019062000211565b50608082015180516200010b91600484019160209091019062000211565b5060a0820151600582015560c082015160068201805460e0850151610100808701511515620100000262ff00001960ff93841690920261ffff1990941692909516919091179190911716919091179055610120820151805162000179916007840191602090910190620002a0565b5050600354600180546001600160a01b039283166001600160a01b031991821617909155600454600280549190931691161790555060095462010000900460ff1615620001d057600b805460ff19169055620001de565b600b805460ff191660011790555b50600d805460ff19908116909155601080548216905560138054909116905562000708565b61072180620025ee83390190565b8280546200021f90620006b5565b90600052602060002090601f0160209004810192826200024357600085556200028e565b82601f106200025e57805160ff19168380011785556200028e565b828001600101855582156200028e579182015b828111156200028e57825182559160200191906001019062000271565b506200029c92915062000300565b5090565b828054828255906000526020600020908101928215620002f2579160200282015b82811115620002f25782518051620002e191849160209091019062000211565b5091602001919060010190620002c1565b506200029c92915062000317565b5b808211156200029c576000815560010162000301565b808211156200029c5760006200032e828262000338565b5060010162000317565b5080546200034690620006b5565b6000825580601f1062000357575050565b601f01602090049060005260206000209081019062000377919062000300565b50565b80516001600160a01b03811681146200039257600080fd5b919050565b600082601f830112620003a957600080fd5b815160206001600160401b0380831115620003c857620003c8620006f2565b8260051b620003d983820162000682565b8481528381019087850183890186018a1015620003f557600080fd5b60009350835b87811015620004375781518681111562000413578586fd5b620004238c89838e010162000457565b8552509286019290860190600101620003fb565b50909998505050505050505050565b805180151581146200039257600080fd5b600082601f8301126200046957600080fd5b81516001600160401b03811115620004855762000485620006f2565b60206200049b601f8301601f1916820162000682565b8281528582848701011115620004b057600080fd5b60005b83811015620004d0578581018301518282018401528201620004b3565b83811115620004e25760008385840101525b5095945050505050565b805160ff811681146200039257600080fd5b6000602082840312156200051157600080fd5b81516001600160401b03808211156200052957600080fd5b9083019061014082860312156200053f57600080fd5b6200054962000656565b62000554836200037a565b815262000564602084016200037a565b60208201526040830151828111156200057c57600080fd5b6200058a8782860162000457565b604083015250606083015182811115620005a357600080fd5b620005b18782860162000457565b606083015250608083015182811115620005ca57600080fd5b620005d88782860162000457565b60808301525060a083015160a0820152620005f660c08401620004ec565b60c08201526200060960e08401620004ec565b60e08201526101006200061e81850162000446565b9082015261012083810151838111156200063757600080fd5b620006458882870162000397565b918301919091525095945050505050565b60405161014081016001600160401b03811182821017156200067c576200067c620006f2565b60405290565b604051601f8201601f191681016001600160401b0381118282101715620006ad57620006ad620006f2565b604052919050565b600181811c90821680620006ca57607f821691505b60208210811415620006ec57634e487b7160e01b600052602260045260246000fd5b50919050565b634e487b7160e01b600052604160045260246000fd5b611ed680620007186000396000f3fe608060405234801561001057600080fd5b50600436106101585760003560e01c806386941d29116100c3578063a871c2311161007c578063a871c2311461032d578063dcc3974b14610340578063dce59d1014610353578063e3d0c9d214610366578063f00d4b5d14610379578063ffd369cc1461038c57600080fd5b806386941d29146102945780638f84aa09146102a75780639bf05f06146102ba5780639e18eb76146102cd5780639f2bc40e146102e0578063a50ad3591461031357600080fd5b806363737c511161011557806363737c51146102225780636679497b1461022f5780636e309a8b146102425780637c81d1231461025557806382770a431461026a57806385a4e17c1461028757600080fd5b806321fb7ee81461015d5780634099d90e1461018a57806346f0f32f146101b057806352ab52bb146101c557806353da0206146101d857806356ca4cfb14610203575b600080fd5b61017061016b36600461182d565b61039f565b604080519283526020830191909152015b60405180910390f35b61019d61019836600461182d565b6103cd565b60405161018197969594939291906119a4565b6101c36101be36600461175e565b6104bc565b005b6101c36101d3366004611578565b61069e565b6101eb6101e636600461182d565b6107ef565b6040516001600160a01b039091168152602001610181565b6010546102109060ff1681565b60405160ff9091168152602001610181565b600d546102109060ff1681565b6101c361023d366004611846565b610819565b6101c3610250366004611675565b610906565b61025d61095e565b6040516101819190611c24565b610272610ca8565b6040516101819998979695949392919061191f565b6013546102109060ff1681565b6101c36102a2366004611675565b610e8d565b6002546101eb906001600160a01b031681565b6101c36102c83660046115ad565b610ee5565b6101c36102db36600461151b565b610f66565b6103036102ee36600461151b565b60116020526000908152604090205460ff1681565b6040519015158152602001610181565b600b546103209060ff1681565b6040516101819190611bd9565b6101c361033b366004611675565b611002565b6101eb61034e36600461182d565b61105a565b6001546101eb906001600160a01b031681565b6101c361037436600461182d565b61106a565b6101c361038736600461153f565b61113b565b6101c361039a366004611846565b6111e5565b600e81815481106103af57600080fd5b60009182526020909120600290910201805460019091015490915082565b601281815481106103dd57600080fd5b600091825260209091206006909102018054600182015460028301546003840180546001600160a01b0394851696509284169493821693600160a01b90920460ff169261042990611dd6565b80601f016020809104026020016040519081016040528092919081815260200182805461045590611dd6565b80156104a25780601f10610477576101008083540402835291602001916104a2565b820191906000526020600020905b81548152906001019060200180831161048557829003601f168201915b505050506004830154600590930154919260ff1691905087565b3360009081526011602052604090205460ff166105205760405162461bcd60e51b815260206004820152601e60248201527f4d6574686f64206973207265737472696374656420746f2052656e746572000060448201526064015b60405180910390fd5b60128054600181018255600091909152815160069091027fbb8a6a4669ba250d26cd7a459eca9d215f8307e33aebe50379bc5a3617ec3444810180546001600160a01b039384166001600160a01b03199182161782556020808601517fbb8a6a4669ba250d26cd7a459eca9d215f8307e33aebe50379bc5a3617ec344585018054918716919093161790915560408501517fbb8a6a4669ba250d26cd7a459eca9d215f8307e33aebe50379bc5a3617ec344684018054606088015160ff16600160a01b026001600160a81b0319909116929096169190911794909417909355608084015180518594929361063a937fbb8a6a4669ba250d26cd7a459eca9d215f8307e33aebe50379bc5a3617ec34479091019201906112d5565b5060a082015160048201805460ff19166001838181111561065d5761065d611e3f565b021790555060c091909101516005909101556013805460ff1690600061068283611e11565b91906101000a81548160ff021916908360ff1602179055505050565b3360009081526011602052604090205460ff166106fd5760405162461bcd60e51b815260206004820152601e60248201527f4d6574686f64206973207265737472696374656420746f2052656e74657200006044820152606401610517565b600c805460018101825560009182527fdf6966c971051c3d54ec59162606531493a51404a002842f56009d7e5cf4a8c70180546001600160a01b0319166001600160a01b038616179055600d805460ff169161075883611e11565b82546101009290920a60ff818102199093169190921691909102179055506040805180820190915291825260208201908152600e805460018101825560009190915291517fbb7b4a454dc3493923482f07822329ed19e8244eff582cc204f8554c3620c3fd600290930292830155517fbb7b4a454dc3493923482f07822329ed19e8244eff582cc204f8554c3620c3fe9091015550565b600c81815481106107ff57600080fd5b6000918252602090912001546001600160a01b0316905081565b6002546001600160a01b031633146108435760405162461bcd60e51b815260040161051790611bed565b6009805460ff191660ff831690811790915560008054604051637bb7ca8760e11b8152600481019390935290916001600160a01b039091169063f76f950e9060240160006040518083038186803b15801561089d57600080fd5b505afa1580156108b1573d6000803e3d6000fd5b505050506040513d6000823e601f3d908101601f191682016040526108d991908101906116e7565b9050600080516020611e8183398151915230826040516108fa929190611afc565b60405180910390a15050565b6002546001600160a01b031633146109305760405162461bcd60e51b815260040161051790611bed565b61093c60078383611359565b50600080516020611e818339815191523083836040516108fa93929190611a25565b604080516101408101825260008082526020820181905260609282018390528282018390526080820183905260a0820181905260c0820181905260e082018190526101008201526101208101919091526040805161014081018252600380546001600160a01b0390811683526004541660208301526005805492939192918401916109e890611dd6565b80601f0160208091040260200160405190810160405280929190818152602001828054610a1490611dd6565b8015610a615780601f10610a3657610100808354040283529160200191610a61565b820191906000526020600020905b815481529060010190602001808311610a4457829003601f168201915b50505050508152602001600382018054610a7a90611dd6565b80601f0160208091040260200160405190810160405280929190818152602001828054610aa690611dd6565b8015610af35780601f10610ac857610100808354040283529160200191610af3565b820191906000526020600020905b815481529060010190602001808311610ad657829003601f168201915b50505050508152602001600482018054610b0c90611dd6565b80601f0160208091040260200160405190810160405280929190818152602001828054610b3890611dd6565b8015610b855780601f10610b5a57610100808354040283529160200191610b85565b820191906000526020600020905b815481529060010190602001808311610b6857829003601f168201915b50505091835250506005820154602080830191909152600683015460ff80821660408086019190915261010083048216606086015262010000909204161515608084015260078401805482518185028101850190935280835260a090940193919290919060009084015b82821015610c9b578382906000526020600020018054610c0e90611dd6565b80601f0160208091040260200160405190810160405280929190818152602001828054610c3a90611dd6565b8015610c875780601f10610c5c57610100808354040283529160200191610c87565b820191906000526020600020905b815481529060010190602001808311610c6a57829003601f168201915b505050505081526020019060010190610bef565b5050505081525050905090565b60038054600454600580546001600160a01b03938416949290931692610ccd90611dd6565b80601f0160208091040260200160405190810160405280929190818152602001828054610cf990611dd6565b8015610d465780601f10610d1b57610100808354040283529160200191610d46565b820191906000526020600020905b815481529060010190602001808311610d2957829003601f168201915b505050505090806003018054610d5b90611dd6565b80601f0160208091040260200160405190810160405280929190818152602001828054610d8790611dd6565b8015610dd45780601f10610da957610100808354040283529160200191610dd4565b820191906000526020600020905b815481529060010190602001808311610db757829003601f168201915b505050505090806004018054610de990611dd6565b80601f0160208091040260200160405190810160405280929190818152602001828054610e1590611dd6565b8015610e625780601f10610e3757610100808354040283529160200191610e62565b820191906000526020600020905b815481529060010190602001808311610e4557829003601f168201915b50505050600583015460069093015491929160ff808216925061010082048116916201000090041689565b6002546001600160a01b03163314610eb75760405162461bcd60e51b815260040161051790611bed565b610ec360068383611359565b50600080516020611e818339815191523083836040516108fa93929190611a69565b6002546001600160a01b03163314610f0f5760405162461bcd60e51b815260040161051790611bed565b8051610f2290600a9060208401906113cd565b50604080518082018252600e81526d6e65774d6564696148617368657360901b60208201529051600080516020611e81833981519152906108fa9030908490611b92565b600f805460018101825560009182527f8d1108e10bcb7c27dddfc02ed9d693a074039d026cf4ea4240b40f7d581ac8020180546001600160a01b0319166001600160a01b0384161790556010805460ff1691610fc183611e11565b825460ff9182166101009390930a9283029190920219909116179055506001600160a01b03166000908152601160205260409020805460ff19166001179055565b6002546001600160a01b0316331461102c5760405162461bcd60e51b815260040161051790611bed565b61103860058383611359565b50600080516020611e818339815191523083836040516108fa93929190611abf565b600f81815481106107ff57600080fd5b6002546001600160a01b031633146110945760405162461bcd60e51b815260040161051790611bed565b600881905560008054604051637bb7ca8760e11b8152600481018490526001600160a01b039091169063f76f950e9060240160006040518083038186803b1580156110de57600080fd5b505afa1580156110f2573d6000803e3d6000fd5b505050506040513d6000823e601f3d908101601f1916820160405261111a91908101906116e7565b9050600080516020611e8183398151915230826040516108fa929190611b50565b6002546001600160a01b031633146111655760405162461bcd60e51b815260040161051790611bed565b600380546001600160a01b038481166001600160a01b031992831681179093556004805491851691831682179055600180548316841790556002805490921681179091556040805130815260208101939093528201527f391e7445162e95b0462700ab996083fc3e40222a108de81e4fbea5e9ddfdaae1906060016108fa565b6002546001600160a01b0316331461120f5760405162461bcd60e51b815260040161051790611bed565b60ff8116611242576009805462ff0000191662010000179055600b80546000919060ff19166001835b0217905550611293565b8060ff166001141561126d576009805462ff000019169055600b80546001919060ff19168280611238565b8060ff1660021415611293576009805462ff000019169055600b805460ff191660021790555b600b546040517f8c5acf85d257fc548b6710d2ceeffe7d4b9b4dc7ed2866b316815c2ab592b9f6916112ca91309160ff1690611a08565b60405180910390a150565b8280546112e190611dd6565b90600052602060002090601f0160209004810192826113035760008555611349565b82601f1061131c57805160ff1916838001178555611349565b82800160010185558215611349579182015b8281111561134957825182559160200191906001019061132e565b50611355929150611426565b5090565b82805461136590611dd6565b90600052602060002090601f0160209004810192826113875760008555611349565b82601f106113a05782800160ff19823516178555611349565b82800160010185558215611349579182015b828111156113495782358255916020019190600101906113b2565b82805482825590600052602060002090810192821561141a579160200282015b8281111561141a578251805161140a9184916020909101906112d5565b50916020019190600101906113ed565b5061135592915061143b565b5b808211156113555760008155600101611427565b8082111561135557600061144f8282611458565b5060010161143b565b50805461146490611dd6565b6000825580601f10611474575050565b601f0160209004906000526020600020908101906114929190611426565b50565b80356114a081611e6b565b919050565b8035600281106114a057600080fd5b600082601f8301126114c557600080fd5b81356114d86114d382611d7e565b611d4d565b8181528460208386010111156114ed57600080fd5b816020850160208301376000918101602001919091529392505050565b803560ff811681146114a057600080fd5b60006020828403121561152d57600080fd5b813561153881611e6b565b9392505050565b6000806040838503121561155257600080fd5b823561155d81611e6b565b9150602083013561156d81611e6b565b809150509250929050565b60008060006060848603121561158d57600080fd5b833561159881611e6b565b95602085013595506040909401359392505050565b600060208083850312156115c057600080fd5b823567ffffffffffffffff808211156115d857600080fd5b818501915085601f8301126115ec57600080fd5b8135818111156115fe576115fe611e55565b8060051b61160d858201611d4d565b8281528581019085870183870188018b101561162857600080fd5b60009350835b8581101561166557813587811115611644578586fd5b6116528d8b838c01016114b4565b855250928801929088019060010161162e565b50909a9950505050505050505050565b6000806020838503121561168857600080fd5b823567ffffffffffffffff808211156116a057600080fd5b818501915085601f8301126116b457600080fd5b8135818111156116c357600080fd5b8660208285010111156116d557600080fd5b60209290920196919550909350505050565b6000602082840312156116f957600080fd5b815167ffffffffffffffff81111561171057600080fd5b8201601f8101841361172157600080fd5b805161172f6114d382611d7e565b81815285602083850101111561174457600080fd5b611755826020830160208601611da6565b95945050505050565b60006020828403121561177057600080fd5b813567ffffffffffffffff8082111561178857600080fd5b9083019060e0828603121561179c57600080fd5b6117a4611d24565b6117ad83611495565b81526117bb60208401611495565b60208201526117cc60408401611495565b60408201526117dd6060840161150a565b60608201526080830135828111156117f457600080fd5b611800878286016114b4565b60808301525061181260a084016114a5565b60a082015260c083013560c082015280935050505092915050565b60006020828403121561183f57600080fd5b5035919050565b60006020828403121561185857600080fd5b6115388261150a565b600081518084526020808501808196508360051b8101915082860160005b858110156118a95782840389526118978483516118f3565b9885019893509084019060010161187f565b5091979650505050505050565b600381106118c6576118c6611e3f565b9052565b81835281816020850137506000828201602090810191909152601f909101601f19169091010190565b6000815180845261190b816020860160208601611da6565b601f01601f19169290920160200192915050565b6001600160a01b038a81168252891660208201526101206040820181905260009061194c8382018b6118f3565b90508281036060840152611960818a6118f3565b9050828103608084015261197481896118f3565b60a0840197909752505060ff93841660c08201529190921660e08201529015156101009091015295945050505050565b6001600160a01b03888116825287811660208301528616604082015260ff8516606082015260e0608082018190526000906119e1908301866118f3565b9050600284106119f3576119f3611e3f565b60a082019390935260c0015295945050505050565b6001600160a01b03831681526040810161153860208301846118b6565b60018060a01b038416815260606020820152600b60608201526a3232b9b1b934b83a34b7b760a91b608082015260a06040820152600061175560a0830184866118ca565b60018060a01b038416815260606020820152601860608201527f636f6c6c656374696f6e2f72657475726e416464726573730000000000000000608082015260a06040820152600061175560a0830184866118ca565b60018060a01b03841681526060602082015260046060820152636e616d6560e01b608082015260a06040820152600061175560a0830184866118ca565b60018060a01b03831681526060602082015260146060820152736d6178416c6c6f7761626c654c6174654461797360601b608082015260a060408201526000611b4860a08301846118f3565b949350505050565b60018060a01b038316815260606020820152600a60608201526972656e7450657244617960b01b608082015260a060408201526000611b4860a08301846118f3565b60018060a01b038316815260606020820152600f60608201526e6d656469614950465348617368657360881b608082015260a060408201526000611b4860a08301846118f3565b60208101611be782846118b6565b92915050565b6020808252601d908201527f4d6574686f64206973207265737472696374656420746f204f776e6572000000604082015260600190565b60208152611c3e6020820183516001600160a01b03169052565b60006020830151611c5a60408401826001600160a01b03169052565b506040830151610140806060850152611c776101608501836118f3565b91506060850151601f1980868503016080870152611c9584836118f3565b935060808701519150808685030160a0870152611cb284836118f3565b935060a087015160c087015260c08701519150611cd460e087018360ff169052565b60e08701519150610100611cec8188018460ff169052565b8701519150610120611d018782018415159052565b870151868503909101838701529050611d1a8382611861565b9695505050505050565b60405160e0810167ffffffffffffffff81118282101715611d4757611d47611e55565b60405290565b604051601f8201601f1916810167ffffffffffffffff81118282101715611d7657611d76611e55565b604052919050565b600067ffffffffffffffff821115611d9857611d98611e55565b50601f01601f191660200190565b60005b83811015611dc1578181015183820152602001611da9565b83811115611dd0576000848401525b50505050565b600181811c90821680611dea57607f821691505b60208210811415611e0b57634e487b7160e01b600052602260045260246000fd5b50919050565b600060ff821660ff811415611e3657634e487b7160e01b600052601160045260246000fd5b60010192915050565b634e487b7160e01b600052602160045260246000fd5b634e487b7160e01b600052604160045260246000fd5b6001600160a01b038116811461149257600080fdfe1fb119ae646ad419061c26b2c9f00687535e680f4cabbaa1a12df632a4668054a2646970667358221220e6a9d3fa0069cb79a63903d4855309f38e9bb16f8c4bc0269dcb6588ad0dd1dd64736f6c63430008070033608060405234801561001057600080fd5b50610701806100206000396000f3fe608060405234801561001057600080fd5b506004361061004c5760003560e01c806326d27337146100515780634a58a14a1461007a5780638dfd0b031461009b578063f76f950e146100ae575b600080fd5b61006461005f366004610395565b6100c1565b6040516100719190610400565b60405180910390f35b61008d6100883660046103de565b610208565b604051908152602001610071565b61008d6100a93660046103c5565b610246565b6100646100bc3660046103c5565b610256565b60408051602880825260608281019093526000919060208201818036833701905050905060005b60148110156102015760006100fe8260136105f3565b6101099060086105b3565b61011490600261050b565b610127906001600160a01b038716610492565b60f81b9050600060108260f81c61013e91906104a6565b60f81b905060008160f81c601061015591906105d2565b8360f81c610163919061060a565b60f81b90506101718261035f565b8561017d8660026105b3565b8151811061018d5761018d61069f565b60200101906001600160f81b031916908160001a9053506101ad8161035f565b856101b98660026105b3565b6101c4906001610455565b815181106101d4576101d461069f565b60200101906001600160f81b031916908160001a90535050505080806101f990610644565b9150506100e8565b5092915050565b60008061021584846105f3565b905060006018603c6102278185610492565b6102319190610492565b61023b9190610492565b925050505b92915050565b600061024082633b9aca006105b3565b60608161027a5750506040805180820190915260018152600360fc1b602082015290565b8160005b81156102a4578061028e81610644565b915061029d9050600a83610492565b915061027e565b60008167ffffffffffffffff8111156102bf576102bf6106b5565b6040519080825280601f01601f1916602001820160405280156102e9576020820181803683370190505b508593509050815b831561035657610302600a8561065f565b61030d906030610455565b60f81b8261031a8361062d565b9250828151811061032d5761032d61069f565b60200101906001600160f81b031916908160001a90535061034f600a85610492565b93506102f1565b50949350505050565b6000600a60f883901c10156103865761037d60f883901c603061046d565b60f81b92915050565b61037d60f883901c605761046d565b6000602082840312156103a757600080fd5b81356001600160a01b03811681146103be57600080fd5b9392505050565b6000602082840312156103d757600080fd5b5035919050565b600080604083850312156103f157600080fd5b50508035926020909101359150565b600060208083528351808285015260005b8181101561042d57858101830151858201604001528201610411565b8181111561043f576000604083870101525b50601f01601f1916929092016040019392505050565b6000821982111561046857610468610673565b500190565b600060ff821660ff84168060ff0382111561048a5761048a610673565b019392505050565b6000826104a1576104a1610689565b500490565b600060ff8316806104b9576104b9610689565b8060ff84160491505092915050565b600181815b808511156105035781600019048211156104e9576104e9610673565b808516156104f657918102915b93841c93908002906104cd565b509250929050565b60006103be838360008261052157506001610240565b8161052e57506000610240565b8160018114610544576002811461054e5761056a565b6001915050610240565b60ff84111561055f5761055f610673565b50506001821b610240565b5060208310610133831016604e8410600b841016171561058d575081810a610240565b61059783836104c8565b80600019048211156105ab576105ab610673565b029392505050565b60008160001904831182151516156105cd576105cd610673565b500290565b600060ff821660ff84168160ff04811182151516156105ab576105ab610673565b60008282101561060557610605610673565b500390565b600060ff821660ff84168082101561062457610624610673565b90039392505050565b60008161063c5761063c610673565b506000190190565b600060001982141561065857610658610673565b5060010190565b60008261066e5761066e610689565b500690565b634e487b7160e01b600052601160045260246000fd5b634e487b7160e01b600052601260045260246000fd5b634e487b7160e01b600052603260045260246000fd5b634e487b7160e01b600052604160045260246000fdfea26469706673582212201013252d1d487a7ff2270fa35371ae3720cfb07e886273c8aeb31fddf14f2b0164736f6c63430008070033",
  "immutableReferences": {},
  "source": "// SPDX-License-Identifier: GPL-3.0\n\npragma solidity >=0.7.0 <0.9.0;\n\nimport \"./helpers/Utils.sol\";\nimport \"./User.sol\";\n\n// import \"./helpers/Structs.sol\";\n\ncontract Item {\n    Utils utils = new Utils();\n\n    enum ItemStatus {\n        AVAILABLE,\n        HIDDEN,\n        DELETED\n    }\n\n    struct ItemDetails {\n        address ownerUserContract;\n        address payable ownerAddress;\n        string name;\n        string collectionOrReturnAddress;\n        string description;\n        uint256 rentPerDay; // in gwei\n        uint8 maxAllowableLateDays;\n        uint8 multipleForLateFees;\n        bool isAvailableForRent;\n        string[] mediaIPFSHashes;\n    }\n\n    struct RentalStartEnd {\n        uint256 start; // Unix epoch time\n        uint256 end; // Unix epoch time\n    }\n\n    address public ownerUserContract;\n    address public ownerAddress;\n    ItemDetails public itemDetails;\n    ItemStatus public itemStatus;\n\n    address[] public rentalContracts;\n    uint8 public rentalContractCount;\n    RentalStartEnd[] public rentalPeriods;\n\n    address[] public renters;\n    uint8 public renterCount;\n    mapping(address => bool) public isRenter;\n\n    User.Review[] public itemReviews;\n    uint8 public itemReviewCount;\n\n    event itemOwnerChanged(\n        address item,\n        address newOwnerUserContract,\n        address newOwnerAddress\n    );\n    event itemStatusChanged(address item, ItemStatus newStatus);\n    event itemDetailsChanged(address item, string property, string newDetails);\n\n    constructor(ItemDetails memory _itemDetails) {\n        itemDetails = _itemDetails;\n        ownerUserContract = itemDetails.ownerUserContract;\n        ownerAddress = itemDetails.ownerAddress;\n\n        if (itemDetails.isAvailableForRent) {\n            itemStatus = ItemStatus.AVAILABLE;\n        } else {\n            itemStatus = ItemStatus.HIDDEN;\n        }\n\n        rentalContractCount = 0;\n        renterCount = 0;\n        itemReviewCount = 0;\n    }\n\n    modifier onlyOwner() {\n        require(msg.sender == ownerAddress, \"Method is restricted to Owner\");\n        _;\n    }\n\n    modifier onlyRenters() {\n        require(isRenter[msg.sender], \"Method is restricted to Renter\");\n        _;\n    }\n\n    function changeOwner(\n        address _newOwnerUserContract,\n        address payable _newOwnerAddress\n    ) public onlyOwner {\n        itemDetails.ownerUserContract = _newOwnerUserContract;\n        itemDetails.ownerAddress = _newOwnerAddress;\n        ownerUserContract = _newOwnerUserContract;\n        ownerAddress = _newOwnerAddress;\n\n        emit itemOwnerChanged(\n            address(this),\n            _newOwnerUserContract,\n            _newOwnerAddress\n        );\n    }\n\n    function changeItemStatus(uint8 _newStatus) public onlyOwner {\n        if (_newStatus == 0) {\n            itemDetails.isAvailableForRent = true;\n            itemStatus = ItemStatus.AVAILABLE;\n        } else if (_newStatus == 1) {\n            itemDetails.isAvailableForRent = false;\n            itemStatus = ItemStatus.HIDDEN;\n        } else if (_newStatus == 2) {\n            itemDetails.isAvailableForRent = false;\n            itemStatus = ItemStatus.DELETED;\n        }\n\n        emit itemStatusChanged(address(this), itemStatus);\n    }\n\n    function changeItemName(string calldata _newName) public onlyOwner {\n        itemDetails.name = _newName;\n        emit itemDetailsChanged(address(this), \"name\", _newName);\n    }\n\n    function changeItemCollectionOrReturnAddress(string calldata _newAddress)\n        public\n        onlyOwner\n    {\n        itemDetails.collectionOrReturnAddress = _newAddress;\n        emit itemDetailsChanged(\n            address(this),\n            \"collection/returnAddress\",\n            _newAddress\n        );\n    }\n\n    function changeItemDescription(string calldata _newDescription)\n        public\n        onlyOwner\n    {\n        itemDetails.description = _newDescription;\n        emit itemDetailsChanged(address(this), \"description\", _newDescription);\n    }\n\n    function changeItemRentPerDay(uint256 _newRentPerDay) public onlyOwner {\n        itemDetails.rentPerDay = _newRentPerDay;\n        string memory newRentPerDay = utils.uint2str(_newRentPerDay);\n        emit itemDetailsChanged(\n            address(this),\n            \"rentPerDay\",\n            string(newRentPerDay)\n        );\n    }\n\n    function changeItemMaxAllowableLateDays(uint8 _newMaxAllowableLateDays)\n        public\n        onlyOwner\n    {\n        itemDetails.maxAllowableLateDays = _newMaxAllowableLateDays;\n        string memory newMaxAllowableLateDays = utils.uint2str(\n            _newMaxAllowableLateDays\n        );\n        emit itemDetailsChanged(\n            address(this),\n            \"maxAllowableLateDays\",\n            newMaxAllowableLateDays\n        );\n    }\n\n    function changeItemMediaIPFSHashes(string[] memory _newMediaIPFSHashes)\n        public\n        onlyOwner\n    {\n        itemDetails.mediaIPFSHashes = _newMediaIPFSHashes;\n        string memory newMediaIPFSHashes = \"newMediaHashes\";\n\n        emit itemDetailsChanged(\n            address(this),\n            \"mediaIPFSHashes\",\n            newMediaIPFSHashes\n        );\n    }\n\n    function addNewRenter(address _renter) public {\n        renters.push(_renter);\n        renterCount++;\n        isRenter[_renter] = true;\n    }\n\n    function handleNewRental(\n        address _newRentalContract,\n        uint256 _start,\n        uint256 _end\n    ) public onlyRenters {\n        rentalContracts.push(_newRentalContract);\n        rentalContractCount++;\n        rentalPeriods.push(RentalStartEnd({start: _start, end: _end}));\n    }\n\n    function getItemDetails() public view returns (ItemDetails memory) {\n        return itemDetails;\n    }\n\n    function addItemReview(User.Review memory _review) public onlyRenters {\n        itemReviews.push(_review);\n        itemReviewCount++;\n    }\n}\n",
  "sourcePath": "/Users/jyuteo/CodeProjects/TRent/src/contracts/Item.sol",
  "compiler": {
    "name": "solc",
    "version": "0.8.7+commit.e28d00a7.Emscripten.clang"
  },
  "schemaVersion": "3.4.3",
  "updatedAt": "2021-09-06T15:21:27.228Z",
  "devdoc": {
    "kind": "dev",
    "methods": {},
    "version": 1
  },
  "userdoc": {
    "kind": "user",
    "methods": {},
    "version": 1
  }
}