{
  "contractName": "Item",
  "abi": [
    {
      "inputs": [
        {
          "components": [
            {
              "internalType": "address",
              "name": "ownerUserContract",
              "type": "address"
            },
            {
              "internalType": "address payable",
              "name": "ownerAddress",
              "type": "address"
            },
            {
              "internalType": "string",
              "name": "name",
              "type": "string"
            },
            {
              "internalType": "string",
              "name": "collectionOrReturnAddress",
              "type": "string"
            },
            {
              "internalType": "string",
              "name": "description",
              "type": "string"
            },
            {
              "internalType": "uint256",
              "name": "rentPerDay",
              "type": "uint256"
            },
            {
              "internalType": "uint8",
              "name": "maxAllowableLateDays",
              "type": "uint8"
            },
            {
              "internalType": "uint8",
              "name": "multipleForLateFees",
              "type": "uint8"
            },
            {
              "internalType": "bool",
              "name": "isAvailableForRent",
              "type": "bool"
            },
            {
              "internalType": "string[]",
              "name": "mediaIPFSHashes",
              "type": "string[]"
            }
          ],
          "internalType": "struct Item.ItemDetails",
          "name": "_itemDetails",
          "type": "tuple"
        }
      ],
      "stateMutability": "nonpayable",
      "type": "constructor"
    },
    {
      "anonymous": false,
      "inputs": [
        {
          "indexed": false,
          "internalType": "address",
          "name": "item",
          "type": "address"
        },
        {
          "indexed": false,
          "internalType": "string",
          "name": "property",
          "type": "string"
        },
        {
          "indexed": false,
          "internalType": "string",
          "name": "newDetails",
          "type": "string"
        }
      ],
      "name": "itemDetailsChanged",
      "type": "event"
    },
    {
      "anonymous": false,
      "inputs": [
        {
          "indexed": false,
          "internalType": "address",
          "name": "item",
          "type": "address"
        },
        {
          "indexed": false,
          "internalType": "address",
          "name": "newOwnerUserContract",
          "type": "address"
        },
        {
          "indexed": false,
          "internalType": "address",
          "name": "newOwnerAddress",
          "type": "address"
        }
      ],
      "name": "itemOwnerChanged",
      "type": "event"
    },
    {
      "anonymous": false,
      "inputs": [
        {
          "indexed": false,
          "internalType": "address",
          "name": "item",
          "type": "address"
        },
        {
          "indexed": false,
          "internalType": "enum Item.ItemStatus",
          "name": "newStatus",
          "type": "uint8"
        }
      ],
      "name": "itemStatusChanged",
      "type": "event"
    },
    {
      "inputs": [
        {
          "internalType": "address",
          "name": "",
          "type": "address"
        }
      ],
      "name": "isRenter",
      "outputs": [
        {
          "internalType": "bool",
          "name": "",
          "type": "bool"
        }
      ],
      "stateMutability": "view",
      "type": "function"
    },
    {
      "inputs": [],
      "name": "itemDetails",
      "outputs": [
        {
          "internalType": "address",
          "name": "ownerUserContract",
          "type": "address"
        },
        {
          "internalType": "address payable",
          "name": "ownerAddress",
          "type": "address"
        },
        {
          "internalType": "string",
          "name": "name",
          "type": "string"
        },
        {
          "internalType": "string",
          "name": "collectionOrReturnAddress",
          "type": "string"
        },
        {
          "internalType": "string",
          "name": "description",
          "type": "string"
        },
        {
          "internalType": "uint256",
          "name": "rentPerDay",
          "type": "uint256"
        },
        {
          "internalType": "uint8",
          "name": "maxAllowableLateDays",
          "type": "uint8"
        },
        {
          "internalType": "uint8",
          "name": "multipleForLateFees",
          "type": "uint8"
        },
        {
          "internalType": "bool",
          "name": "isAvailableForRent",
          "type": "bool"
        }
      ],
      "stateMutability": "view",
      "type": "function"
    },
    {
      "inputs": [],
      "name": "itemStatus",
      "outputs": [
        {
          "internalType": "enum Item.ItemStatus",
          "name": "",
          "type": "uint8"
        }
      ],
      "stateMutability": "view",
      "type": "function"
    },
    {
      "inputs": [],
      "name": "ownerAddress",
      "outputs": [
        {
          "internalType": "address",
          "name": "",
          "type": "address"
        }
      ],
      "stateMutability": "view",
      "type": "function"
    },
    {
      "inputs": [],
      "name": "ownerUserContract",
      "outputs": [
        {
          "internalType": "address",
          "name": "",
          "type": "address"
        }
      ],
      "stateMutability": "view",
      "type": "function"
    },
    {
      "inputs": [],
      "name": "rentalContractCount",
      "outputs": [
        {
          "internalType": "uint8",
          "name": "",
          "type": "uint8"
        }
      ],
      "stateMutability": "view",
      "type": "function"
    },
    {
      "inputs": [
        {
          "internalType": "uint256",
          "name": "",
          "type": "uint256"
        }
      ],
      "name": "rentalContracts",
      "outputs": [
        {
          "internalType": "address",
          "name": "",
          "type": "address"
        }
      ],
      "stateMutability": "view",
      "type": "function"
    },
    {
      "inputs": [
        {
          "internalType": "uint256",
          "name": "",
          "type": "uint256"
        }
      ],
      "name": "rentalPeriods",
      "outputs": [
        {
          "internalType": "uint256",
          "name": "start",
          "type": "uint256"
        },
        {
          "internalType": "uint256",
          "name": "end",
          "type": "uint256"
        }
      ],
      "stateMutability": "view",
      "type": "function"
    },
    {
      "inputs": [],
      "name": "renterCount",
      "outputs": [
        {
          "internalType": "uint8",
          "name": "",
          "type": "uint8"
        }
      ],
      "stateMutability": "view",
      "type": "function"
    },
    {
      "inputs": [
        {
          "internalType": "uint256",
          "name": "",
          "type": "uint256"
        }
      ],
      "name": "renters",
      "outputs": [
        {
          "internalType": "address",
          "name": "",
          "type": "address"
        }
      ],
      "stateMutability": "view",
      "type": "function"
    },
    {
      "inputs": [
        {
          "internalType": "address",
          "name": "_newOwnerUserContract",
          "type": "address"
        },
        {
          "internalType": "address payable",
          "name": "_newOwnerAddress",
          "type": "address"
        }
      ],
      "name": "changeOwner",
      "outputs": [],
      "stateMutability": "nonpayable",
      "type": "function"
    },
    {
      "inputs": [
        {
          "internalType": "uint8",
          "name": "_newStatus",
          "type": "uint8"
        }
      ],
      "name": "changeItemStatus",
      "outputs": [],
      "stateMutability": "nonpayable",
      "type": "function"
    },
    {
      "inputs": [
        {
          "internalType": "string",
          "name": "_newName",
          "type": "string"
        }
      ],
      "name": "changeItemName",
      "outputs": [],
      "stateMutability": "nonpayable",
      "type": "function"
    },
    {
      "inputs": [
        {
          "internalType": "string",
          "name": "_newAddress",
          "type": "string"
        }
      ],
      "name": "changeItemCollectionOrReturnAddress",
      "outputs": [],
      "stateMutability": "nonpayable",
      "type": "function"
    },
    {
      "inputs": [
        {
          "internalType": "string",
          "name": "_newDescription",
          "type": "string"
        }
      ],
      "name": "changeItemDescription",
      "outputs": [],
      "stateMutability": "nonpayable",
      "type": "function"
    },
    {
      "inputs": [
        {
          "internalType": "uint256",
          "name": "_newRentPerDay",
          "type": "uint256"
        }
      ],
      "name": "changeItemRentPerDay",
      "outputs": [],
      "stateMutability": "nonpayable",
      "type": "function"
    },
    {
      "inputs": [
        {
          "internalType": "uint8",
          "name": "_newMaxAllowableLateDays",
          "type": "uint8"
        }
      ],
      "name": "changeItemMaxAllowableLateDays",
      "outputs": [],
      "stateMutability": "nonpayable",
      "type": "function"
    },
    {
      "inputs": [
        {
          "internalType": "string[]",
          "name": "_newMediaIPFSHashes",
          "type": "string[]"
        }
      ],
      "name": "changeItemMediaIPFSHashes",
      "outputs": [],
      "stateMutability": "nonpayable",
      "type": "function"
    },
    {
      "inputs": [
        {
          "internalType": "address",
          "name": "_renter",
          "type": "address"
        }
      ],
      "name": "addNewRenter",
      "outputs": [],
      "stateMutability": "nonpayable",
      "type": "function"
    },
    {
      "inputs": [
        {
          "internalType": "address",
          "name": "_newRentalContract",
          "type": "address"
        },
        {
          "internalType": "uint256",
          "name": "_start",
          "type": "uint256"
        },
        {
          "internalType": "uint256",
          "name": "_end",
          "type": "uint256"
        }
      ],
      "name": "handleNewRental",
      "outputs": [],
      "stateMutability": "nonpayable",
      "type": "function"
    },
    {
      "inputs": [],
      "name": "getItemDetails",
      "outputs": [
        {
          "components": [
            {
              "internalType": "address",
              "name": "ownerUserContract",
              "type": "address"
            },
            {
              "internalType": "address payable",
              "name": "ownerAddress",
              "type": "address"
            },
            {
              "internalType": "string",
              "name": "name",
              "type": "string"
            },
            {
              "internalType": "string",
              "name": "collectionOrReturnAddress",
              "type": "string"
            },
            {
              "internalType": "string",
              "name": "description",
              "type": "string"
            },
            {
              "internalType": "uint256",
              "name": "rentPerDay",
              "type": "uint256"
            },
            {
              "internalType": "uint8",
              "name": "maxAllowableLateDays",
              "type": "uint8"
            },
            {
              "internalType": "uint8",
              "name": "multipleForLateFees",
              "type": "uint8"
            },
            {
              "internalType": "bool",
              "name": "isAvailableForRent",
              "type": "bool"
            },
            {
              "internalType": "string[]",
              "name": "mediaIPFSHashes",
              "type": "string[]"
            }
          ],
          "internalType": "struct Item.ItemDetails",
          "name": "",
          "type": "tuple"
        }
      ],
      "stateMutability": "view",
      "type": "function"
    }
  ],
  "bytecode": "0x60806040526040516200001290620001fb565b604051809103906000f0801580156200002f573d6000803e3d6000fd5b50600080546001600160a01b0319166001600160a01b03929092169190911790553480156200005d57600080fd5b5060405162002668380380620026688339810160408190526200008091620004f6565b8051600380546001600160a01b03199081166001600160a01b03938416178255602080850151600480549093169416939093179055604083015180518493620000cf9260059291019062000209565b5060608201518051620000ed91600384019160209091019062000209565b50608082015180516200010b91600484019160209091019062000209565b5060a0820151600582015560c082015160068201805460e0850151610100808701511515620100000262ff00001960ff93841690920261ffff199094169290951691909117919091171691909117905561012082015180516200017991600784019160209091019062000298565b5050600354600180546001600160a01b039283166001600160a01b031991821617909155600454600280549190931691161790555060095462010000900460ff1615620001d057600b805460ff19169055620001de565b600b805460ff191660011790555b50600d805460ff1990811690915560108054909116905562000700565b6106698062001fff83390190565b8280546200021790620006ad565b90600052602060002090601f0160209004810192826200023b576000855562000286565b82601f106200025657805160ff191683800117855562000286565b8280016001018555821562000286579182015b828111156200028657825182559160200191906001019062000269565b5062000294929150620002f8565b5090565b828054828255906000526020600020908101928215620002ea579160200282015b82811115620002ea5782518051620002d991849160209091019062000209565b5091602001919060010190620002b9565b50620002949291506200030f565b5b80821115620002945760008155600101620002f9565b808211156200029457600062000326828262000330565b506001016200030f565b5080546200033e90620006ad565b6000825580601f106200034f575050565b601f0160209004906000526020600020908101906200036f9190620002f8565b50565b80516001600160a01b03811681146200038a57600080fd5b919050565b600082601f830112620003a157600080fd5b815160206001600160401b0380831115620003c057620003c0620006ea565b8260051b620003d18382016200067a565b8481528381019087850183890186018a1015620003ed57600080fd5b60009350835b878110156200042f578151868111156200040b578586fd5b6200041b8c89838e01016200044f565b8552509286019290860190600101620003f3565b50909998505050505050505050565b805180151581146200038a57600080fd5b600082601f8301126200046157600080fd5b81516001600160401b038111156200047d576200047d620006ea565b602062000493601f8301601f191682016200067a565b8281528582848701011115620004a857600080fd5b60005b83811015620004c8578581018301518282018401528201620004ab565b83811115620004da5760008385840101525b5095945050505050565b805160ff811681146200038a57600080fd5b6000602082840312156200050957600080fd5b81516001600160401b03808211156200052157600080fd5b9083019061014082860312156200053757600080fd5b620005416200064e565b6200054c8362000372565b81526200055c6020840162000372565b60208201526040830151828111156200057457600080fd5b62000582878286016200044f565b6040830152506060830151828111156200059b57600080fd5b620005a9878286016200044f565b606083015250608083015182811115620005c257600080fd5b620005d0878286016200044f565b60808301525060a083015160a0820152620005ee60c08401620004e4565b60c08201526200060160e08401620004e4565b60e0820152610100620006168185016200043e565b9082015261012083810151838111156200062f57600080fd5b6200063d888287016200038f565b918301919091525095945050505050565b60405161014081016001600160401b0381118282101715620006745762000674620006ea565b60405290565b604051601f8201601f191681016001600160401b0381118282101715620006a557620006a5620006ea565b604052919050565b600181811c90821680620006c257607f821691505b60208210811415620006e457634e487b7160e01b600052602260045260246000fd5b50919050565b634e487b7160e01b600052604160045260246000fd5b6118ef80620007106000396000f3fe608060405234801561001057600080fd5b50600436106101375760003560e01c80638f84aa09116100b8578063a871c2311161007c578063a871c231146102c6578063dcc3974b146102d9578063dce59d10146102ec578063e3d0c9d2146102ff578063f00d4b5d14610312578063ffd369cc1461032557600080fd5b80638f84aa09146102405780639bf05f06146102535780639e18eb76146102665780639f2bc40e14610279578063a50ad359146102ac57600080fd5b80636679497b116100ff5780636679497b146101d55780636e309a8b146101e85780637c81d123146101fb57806382770a431461021057806386941d291461022d57600080fd5b806321fb7ee81461013c57806352ab52bb1461016957806353da02061461017e57806356ca4cfb146101a957806363737c51146101c8575b600080fd5b61014f61014a366004611307565b610338565b604080519283526020830191909152015b60405180910390f35b61017c6101773660046110df565b610366565b005b61019161018c366004611307565b610474565b6040516001600160a01b039091168152602001610160565b6010546101b69060ff1681565b60405160ff9091168152602001610160565b600d546101b69060ff1681565b61017c6101e3366004611320565b61049e565b61017c6101f636600461121e565b610578565b6102036105bd565b604051610160919061167c565b610218610907565b60405161016099989796959493929190611412565b61017c61023b36600461121e565b610aec565b600254610191906001600160a01b031681565b61017c610261366004611114565b610b31565b61017c610274366004611082565b610b9f565b61029c610287366004611082565b60116020526000908152604090205460ff1681565b6040519015158152602001610160565b600b546102b99060ff1681565b6040516101609190611668565b61017c6102d436600461121e565b610c3b565b6101916102e7366004611307565b610c80565b600154610191906001600160a01b031681565b61017c61030d366004611307565b610c90565b61017c6103203660046110a6565b610d4e565b61017c610333366004611320565b610de5565b600e818154811061034857600080fd5b60009182526020909120600290910201805460019091015490915082565b3360009081526011602052604090205460ff1661038257600080fd5b600c805460018101825560009182527fdf6966c971051c3d54ec59162606531493a51404a002842f56009d7e5cf4a8c70180546001600160a01b0319166001600160a01b038616179055600d805460ff16916103dd83611840565b82546101009290920a60ff818102199093169190921691909102179055506040805180820190915291825260208201908152600e805460018101825560009190915291517fbb7b4a454dc3493923482f07822329ed19e8244eff582cc204f8554c3620c3fd600290930292830155517fbb7b4a454dc3493923482f07822329ed19e8244eff582cc204f8554c3620c3fe9091015550565b600c818154811061048457600080fd5b6000918252602090912001546001600160a01b0316905081565b6002546001600160a01b031633146104b557600080fd5b6009805460ff191660ff831690811790915560008054604051637bb7ca8760e11b8152600481019390935290916001600160a01b039091169063f76f950e9060240160006040518083038186803b15801561050f57600080fd5b505afa158015610523573d6000803e3d6000fd5b505050506040513d6000823e601f3d908101601f1916820160405261054b9190810190611290565b905060008051602061189a833981519152308260405161056c92919061158b565b60405180910390a15050565b6002546001600160a01b0316331461058f57600080fd5b61059b60078383610ec2565b5060008051602061189a83398151915230838360405161056c939291906114b4565b604080516101408101825260008082526020820181905260609282018390528282018390526080820183905260a0820181905260c0820181905260e082018190526101008201526101208101919091526040805161014081018252600380546001600160a01b03908116835260045416602083015260058054929391929184019161064790611805565b80601f016020809104026020016040519081016040528092919081815260200182805461067390611805565b80156106c05780601f10610695576101008083540402835291602001916106c0565b820191906000526020600020905b8154815290600101906020018083116106a357829003601f168201915b505050505081526020016003820180546106d990611805565b80601f016020809104026020016040519081016040528092919081815260200182805461070590611805565b80156107525780601f1061072757610100808354040283529160200191610752565b820191906000526020600020905b81548152906001019060200180831161073557829003601f168201915b5050505050815260200160048201805461076b90611805565b80601f016020809104026020016040519081016040528092919081815260200182805461079790611805565b80156107e45780601f106107b9576101008083540402835291602001916107e4565b820191906000526020600020905b8154815290600101906020018083116107c757829003601f168201915b50505091835250506005820154602080830191909152600683015460ff80821660408086019190915261010083048216606086015262010000909204161515608084015260078401805482518185028101850190935280835260a090940193919290919060009084015b828210156108fa57838290600052602060002001805461086d90611805565b80601f016020809104026020016040519081016040528092919081815260200182805461089990611805565b80156108e65780601f106108bb576101008083540402835291602001916108e6565b820191906000526020600020905b8154815290600101906020018083116108c957829003601f168201915b50505050508152602001906001019061084e565b5050505081525050905090565b60038054600454600580546001600160a01b0393841694929093169261092c90611805565b80601f016020809104026020016040519081016040528092919081815260200182805461095890611805565b80156109a55780601f1061097a576101008083540402835291602001916109a5565b820191906000526020600020905b81548152906001019060200180831161098857829003601f168201915b5050505050908060030180546109ba90611805565b80601f01602080910402602001604051908101604052809291908181526020018280546109e690611805565b8015610a335780601f10610a0857610100808354040283529160200191610a33565b820191906000526020600020905b815481529060010190602001808311610a1657829003601f168201915b505050505090806004018054610a4890611805565b80601f0160208091040260200160405190810160405280929190818152602001828054610a7490611805565b8015610ac15780601f10610a9657610100808354040283529160200191610ac1565b820191906000526020600020905b815481529060010190602001808311610aa457829003601f168201915b50505050600583015460069093015491929160ff808216925061010082048116916201000090041689565b6002546001600160a01b03163314610b0357600080fd5b610b0f60068383610ec2565b5060008051602061189a83398151915230838360405161056c939291906114f8565b6002546001600160a01b03163314610b4857600080fd5b8051610b5b90600a906020840190610f46565b50604080518082018252600e81526d6e65774d6564696148617368657360901b6020820152905160008051602061189a8339815191529061056c9030908490611621565b600f805460018101825560009182527f8d1108e10bcb7c27dddfc02ed9d693a074039d026cf4ea4240b40f7d581ac8020180546001600160a01b0319166001600160a01b0384161790556010805460ff1691610bfa83611840565b825460ff9182166101009390930a9283029190920219909116179055506001600160a01b03166000908152601160205260409020805460ff19166001179055565b6002546001600160a01b03163314610c5257600080fd5b610c5e60058383610ec2565b5060008051602061189a83398151915230838360405161056c9392919061154e565b600f818154811061048457600080fd5b6002546001600160a01b03163314610ca757600080fd5b600881905560008054604051637bb7ca8760e11b8152600481018490526001600160a01b039091169063f76f950e9060240160006040518083038186803b158015610cf157600080fd5b505afa158015610d05573d6000803e3d6000fd5b505050506040513d6000823e601f3d908101601f19168201604052610d2d9190810190611290565b905060008051602061189a833981519152308260405161056c9291906115df565b6002546001600160a01b03163314610d6557600080fd5b600380546001600160a01b038481166001600160a01b031992831681179093556004805491851691831682179055600180548316841790556002805490921681179091556040805130815260208101939093528201527f391e7445162e95b0462700ab996083fc3e40222a108de81e4fbea5e9ddfdaae19060600161056c565b6002546001600160a01b03163314610dfc57600080fd5b60ff8116610e2f576009805462ff0000191662010000179055600b80546000919060ff19166001835b0217905550610e80565b8060ff1660011415610e5a576009805462ff000019169055600b80546001919060ff19168280610e25565b8060ff1660021415610e80576009805462ff000019169055600b805460ff191660021790555b600b546040517f8c5acf85d257fc548b6710d2ceeffe7d4b9b4dc7ed2866b316815c2ab592b9f691610eb791309160ff1690611497565b60405180910390a150565b828054610ece90611805565b90600052602060002090601f016020900481019282610ef05760008555610f36565b82601f10610f095782800160ff19823516178555610f36565b82800160010185558215610f36579182015b82811115610f36578235825591602001919060010190610f1b565b50610f42929150610f9f565b5090565b828054828255906000526020600020908101928215610f93579160200282015b82811115610f935782518051610f83918491602090910190610fb4565b5091602001919060010190610f66565b50610f42929150611028565b5b80821115610f425760008155600101610fa0565b828054610fc090611805565b90600052602060002090601f016020900481019282610fe25760008555610f36565b82601f10610ffb57805160ff1916838001178555610f36565b82800160010185558215610f36579182015b82811115610f3657825182559160200191906001019061100d565b80821115610f4257600061103c8282611045565b50600101611028565b50805461105190611805565b6000825580601f10611061575050565b601f01602090049060005260206000209081019061107f9190610f9f565b50565b60006020828403121561109457600080fd5b813561109f81611884565b9392505050565b600080604083850312156110b957600080fd5b82356110c481611884565b915060208301356110d481611884565b809150509250929050565b6000806000606084860312156110f457600080fd5b83356110ff81611884565b95602085013595506040909401359392505050565b6000602080838503121561112757600080fd5b823567ffffffffffffffff8082111561113f57600080fd5b818501915085601f83011261115357600080fd5b8135818111156111655761116561186e565b8060051b61117485820161177c565b8281528581019085870183870188018b101561118f57600080fd5b600093505b84841015611210578035868111156111ab57600080fd5b8701603f81018c136111bc57600080fd5b8881013560406111d36111ce836117ad565b61177c565b8281528e828486010111156111e757600080fd5b828285018d83013760009281018c01929092525084525060019390930192918701918701611194565b509998505050505050505050565b6000806020838503121561123157600080fd5b823567ffffffffffffffff8082111561124957600080fd5b818501915085601f83011261125d57600080fd5b81358181111561126c57600080fd5b86602082850101111561127e57600080fd5b60209290920196919550909350505050565b6000602082840312156112a257600080fd5b815167ffffffffffffffff8111156112b957600080fd5b8201601f810184136112ca57600080fd5b80516112d86111ce826117ad565b8181528560208385010111156112ed57600080fd5b6112fe8260208301602086016117d5565b95945050505050565b60006020828403121561131957600080fd5b5035919050565b60006020828403121561133257600080fd5b813560ff8116811461109f57600080fd5b600082825180855260208086019550808260051b84010181860160005b8481101561138e57601f1986840301895261137c8383516113e6565b98840198925090830190600101611360565b5090979650505050505050565b600381106113b957634e487b7160e01b600052602160045260246000fd5b9052565b81835281816020850137506000828201602090810191909152601f909101601f19169091010190565b600081518084526113fe8160208601602086016117d5565b601f01601f19169290920160200192915050565b6001600160a01b038a81168252891660208201526101206040820181905260009061143f8382018b6113e6565b90508281036060840152611453818a6113e6565b9050828103608084015261146781896113e6565b60a0840197909752505060ff93841660c08201529190921660e08201529015156101009091015295945050505050565b6001600160a01b03831681526040810161109f602083018461139b565b60018060a01b038416815260606020820152600b60608201526a3232b9b1b934b83a34b7b760a91b608082015260a0604082015260006112fe60a0830184866113bd565b60018060a01b038416815260606020820152601860608201527f636f6c6c656374696f6e2f72657475726e416464726573730000000000000000608082015260a0604082015260006112fe60a0830184866113bd565b60018060a01b03841681526060602082015260046060820152636e616d6560e01b608082015260a0604082015260006112fe60a0830184866113bd565b60018060a01b03831681526060602082015260146060820152736d6178416c6c6f7761626c654c6174654461797360601b608082015260a0604082015260006115d760a08301846113e6565b949350505050565b60018060a01b038316815260606020820152600a60608201526972656e7450657244617960b01b608082015260a0604082015260006115d760a08301846113e6565b60018060a01b038316815260606020820152600f60608201526e6d656469614950465348617368657360881b608082015260a0604082015260006115d760a08301846113e6565b60208101611676828461139b565b92915050565b602081526116966020820183516001600160a01b03169052565b600060208301516116b260408401826001600160a01b03169052565b5060408301516101408060608501526116cf6101608501836113e6565b91506060850151601f19808685030160808701526116ed84836113e6565b935060808701519150808685030160a087015261170a84836113e6565b935060a087015160c087015260c0870151915061172c60e087018360ff169052565b60e087015191506101006117448188018460ff169052565b87015191506101206117598782018415159052565b8701518685039091018387015290506117728382611343565b9695505050505050565b604051601f8201601f1916810167ffffffffffffffff811182821017156117a5576117a561186e565b604052919050565b600067ffffffffffffffff8211156117c7576117c761186e565b50601f01601f191660200190565b60005b838110156117f05781810151838201526020016117d8565b838111156117ff576000848401525b50505050565b600181811c9082168061181957607f821691505b6020821081141561183a57634e487b7160e01b600052602260045260246000fd5b50919050565b600060ff821660ff81141561186557634e487b7160e01b600052601160045260246000fd5b60010192915050565b634e487b7160e01b600052604160045260246000fd5b6001600160a01b038116811461107f57600080fdfe1fb119ae646ad419061c26b2c9f00687535e680f4cabbaa1a12df632a4668054a264697066735822122014e2a9772d684b6476ef0392c75b5f21ec402d9ce725d894f2da6fd6db45d0c364736f6c63430008070033608060405234801561001057600080fd5b50610649806100206000396000f3fe608060405234801561001057600080fd5b50600436106100365760003560e01c806326d273371461003b578063f76f950e14610064575b600080fd5b61004e6100493660046102fd565b610077565b60405161005b9190610346565b60405180910390f35b61004e61007236600461032d565b6101be565b60408051602880825260608281019093526000919060208201818036833701905050905060005b60148110156101b75760006100b482601361053b565b6100bf9060086104fb565b6100ca906002610451565b6100dd906001600160a01b0387166103d8565b60f81b9050600060108260f81c6100f491906103ec565b60f81b905060008160f81c601061010b919061051a565b8360f81c6101199190610552565b60f81b9050610127826102c7565b856101338660026104fb565b81518110610143576101436105e7565b60200101906001600160f81b031916908160001a905350610163816102c7565b8561016f8660026104fb565b61017a90600161039b565b8151811061018a5761018a6105e7565b60200101906001600160f81b031916908160001a90535050505080806101af9061058c565b91505061009e565b5092915050565b6060816101e25750506040805180820190915260018152600360fc1b602082015290565b8160005b811561020c57806101f68161058c565b91506102059050600a836103d8565b91506101e6565b60008167ffffffffffffffff811115610227576102276105fd565b6040519080825280601f01601f191660200182016040528015610251576020820181803683370190505b508593509050815b83156102be5761026a600a856105a7565b61027590603061039b565b60f81b8261028283610575565b92508281518110610295576102956105e7565b60200101906001600160f81b031916908160001a9053506102b7600a856103d8565b9350610259565b50949350505050565b6000600a60f883901c10156102ee576102e560f883901c60306103b3565b60f81b92915050565b6102e560f883901c60576103b3565b60006020828403121561030f57600080fd5b81356001600160a01b038116811461032657600080fd5b9392505050565b60006020828403121561033f57600080fd5b5035919050565b600060208083528351808285015260005b8181101561037357858101830151858201604001528201610357565b81811115610385576000604083870101525b50601f01601f1916929092016040019392505050565b600082198211156103ae576103ae6105bb565b500190565b600060ff821660ff84168060ff038211156103d0576103d06105bb565b019392505050565b6000826103e7576103e76105d1565b500490565b600060ff8316806103ff576103ff6105d1565b8060ff84160491505092915050565b600181815b8085111561044957816000190482111561042f5761042f6105bb565b8085161561043c57918102915b93841c9390800290610413565b509250929050565b60006103268383600082610467575060016104f5565b81610474575060006104f5565b816001811461048a5760028114610494576104b0565b60019150506104f5565b60ff8411156104a5576104a56105bb565b50506001821b6104f5565b5060208310610133831016604e8410600b84101617156104d3575081810a6104f5565b6104dd838361040e565b80600019048211156104f1576104f16105bb565b0290505b92915050565b6000816000190483118215151615610515576105156105bb565b500290565b600060ff821660ff84168160ff04811182151516156104f1576104f16105bb565b60008282101561054d5761054d6105bb565b500390565b600060ff821660ff84168082101561056c5761056c6105bb565b90039392505050565b600081610584576105846105bb565b506000190190565b60006000198214156105a0576105a06105bb565b5060010190565b6000826105b6576105b66105d1565b500690565b634e487b7160e01b600052601160045260246000fd5b634e487b7160e01b600052601260045260246000fd5b634e487b7160e01b600052603260045260246000fd5b634e487b7160e01b600052604160045260246000fdfea26469706673582212202eee08da6fb358cb68fb4a5f1c458c0a667c1412ed0eac24ae776c80af7a4e5864736f6c63430008070033",
  "immutableReferences": {},
  "source": "// SPDX-License-Identifier: GPL-3.0\n\npragma solidity >=0.7.0 <0.9.0;\n\nimport \"./helpers/Utils.sol\";\n\n// import \"./helpers/Structs.sol\";\n\ncontract Item {\n    Utils utils = new Utils();\n\n    enum ItemStatus {\n        AVAILABLE,\n        HIDDEN,\n        DELETED\n    }\n\n    struct ItemDetails {\n        address ownerUserContract;\n        address payable ownerAddress;\n        string name;\n        string collectionOrReturnAddress;\n        string description;\n        uint256 rentPerDay; // in Wei\n        uint8 maxAllowableLateDays;\n        uint8 multipleForLateFees;\n        bool isAvailableForRent;\n        string[] mediaIPFSHashes;\n    }\n\n    struct RentalStartEnd {\n        uint256 start; // Unix epoch time\n        uint256 end; // Unix epoch time\n    }\n\n    address public ownerUserContract;\n    address public ownerAddress;\n    ItemDetails public itemDetails;\n    ItemStatus public itemStatus;\n\n    address[] public rentalContracts;\n    uint8 public rentalContractCount;\n    RentalStartEnd[] public rentalPeriods;\n\n    address[] public renters;\n    uint8 public renterCount;\n    mapping(address => bool) public isRenter;\n\n    event itemOwnerChanged(\n        address item,\n        address newOwnerUserContract,\n        address newOwnerAddress\n    );\n    event itemStatusChanged(address item, ItemStatus newStatus);\n    event itemDetailsChanged(address item, string property, string newDetails);\n\n    constructor(ItemDetails memory _itemDetails) {\n        itemDetails = _itemDetails;\n        ownerUserContract = itemDetails.ownerUserContract;\n        ownerAddress = itemDetails.ownerAddress;\n\n        if (itemDetails.isAvailableForRent) {\n            itemStatus = ItemStatus.AVAILABLE;\n        } else {\n            itemStatus = ItemStatus.HIDDEN;\n        }\n\n        rentalContractCount = 0;\n        renterCount = 0;\n    }\n\n    modifier onlyOwner() {\n        require(msg.sender == ownerAddress);\n        _;\n    }\n\n    modifier onlyRenters() {\n        require(isRenter[msg.sender]);\n        _;\n    }\n\n    function changeOwner(\n        address _newOwnerUserContract,\n        address payable _newOwnerAddress\n    ) public onlyOwner {\n        itemDetails.ownerUserContract = _newOwnerUserContract;\n        itemDetails.ownerAddress = _newOwnerAddress;\n        ownerUserContract = _newOwnerUserContract;\n        ownerAddress = _newOwnerAddress;\n\n        emit itemOwnerChanged(\n            address(this),\n            _newOwnerUserContract,\n            _newOwnerAddress\n        );\n    }\n\n    function changeItemStatus(uint8 _newStatus) public onlyOwner {\n        if (_newStatus == 0) {\n            itemDetails.isAvailableForRent = true;\n            itemStatus = ItemStatus.AVAILABLE;\n        } else if (_newStatus == 1) {\n            itemDetails.isAvailableForRent = false;\n            itemStatus = ItemStatus.HIDDEN;\n        } else if (_newStatus == 2) {\n            itemDetails.isAvailableForRent = false;\n            itemStatus = ItemStatus.DELETED;\n        }\n\n        emit itemStatusChanged(address(this), itemStatus);\n    }\n\n    function changeItemName(string calldata _newName) public onlyOwner {\n        itemDetails.name = _newName;\n        emit itemDetailsChanged(address(this), \"name\", _newName);\n    }\n\n    function changeItemCollectionOrReturnAddress(string calldata _newAddress)\n        public\n        onlyOwner\n    {\n        itemDetails.collectionOrReturnAddress = _newAddress;\n        emit itemDetailsChanged(\n            address(this),\n            \"collection/returnAddress\",\n            _newAddress\n        );\n    }\n\n    function changeItemDescription(string calldata _newDescription)\n        public\n        onlyOwner\n    {\n        itemDetails.description = _newDescription;\n        emit itemDetailsChanged(address(this), \"description\", _newDescription);\n    }\n\n    function changeItemRentPerDay(uint256 _newRentPerDay) public onlyOwner {\n        itemDetails.rentPerDay = _newRentPerDay;\n        string memory newRentPerDay = utils.uint2str(_newRentPerDay);\n        emit itemDetailsChanged(\n            address(this),\n            \"rentPerDay\",\n            string(newRentPerDay)\n        );\n    }\n\n    function changeItemMaxAllowableLateDays(uint8 _newMaxAllowableLateDays)\n        public\n        onlyOwner\n    {\n        itemDetails.maxAllowableLateDays = _newMaxAllowableLateDays;\n        string memory newMaxAllowableLateDays = utils.uint2str(\n            _newMaxAllowableLateDays\n        );\n        emit itemDetailsChanged(\n            address(this),\n            \"maxAllowableLateDays\",\n            newMaxAllowableLateDays\n        );\n    }\n\n    function changeItemMediaIPFSHashes(string[] memory _newMediaIPFSHashes)\n        public\n        onlyOwner\n    {\n        itemDetails.mediaIPFSHashes = _newMediaIPFSHashes;\n        string memory newMediaIPFSHashes = \"newMediaHashes\";\n\n        emit itemDetailsChanged(\n            address(this),\n            \"mediaIPFSHashes\",\n            newMediaIPFSHashes\n        );\n    }\n\n    function addNewRenter(address _renter) public {\n        renters.push(_renter);\n        renterCount++;\n        isRenter[_renter] = true;\n    }\n\n    function handleNewRental(\n        address _newRentalContract,\n        uint256 _start,\n        uint256 _end\n    ) public onlyRenters {\n        rentalContracts.push(_newRentalContract);\n        rentalContractCount++;\n        rentalPeriods.push(RentalStartEnd({start: _start, end: _end}));\n    }\n\n    function getItemDetails() public view returns (ItemDetails memory) {\n        return itemDetails;\n    }\n}\n",
  "sourcePath": "/Users/jyuteo/CodeProjects/TRent/src/contracts/Item.sol",
  "compiler": {
    "name": "solc",
    "version": "0.8.7+commit.e28d00a7.Emscripten.clang"
  },
  "schemaVersion": "3.4.3",
  "updatedAt": "2021-09-05T02:59:50.313Z",
  "devdoc": {
    "kind": "dev",
    "methods": {},
    "version": 1
  },
  "userdoc": {
    "kind": "user",
    "methods": {},
    "version": 1
  }
}