{
  "contractName": "Item",
  "abi": [
    {
      "inputs": [
        {
          "components": [
            {
              "internalType": "address",
              "name": "owner",
              "type": "address"
            },
            {
              "internalType": "string",
              "name": "name",
              "type": "string"
            },
            {
              "internalType": "string",
              "name": "collectionOrReturnAddress",
              "type": "string"
            },
            {
              "internalType": "string",
              "name": "description",
              "type": "string"
            },
            {
              "internalType": "uint256",
              "name": "rentPerDay",
              "type": "uint256"
            },
            {
              "internalType": "uint8",
              "name": "maxAllowableLateDays",
              "type": "uint8"
            },
            {
              "internalType": "bool",
              "name": "isAvailableForRent",
              "type": "bool"
            },
            {
              "internalType": "address[]",
              "name": "mediaIPFSHashes",
              "type": "address[]"
            }
          ],
          "internalType": "struct Item.ItemDetails",
          "name": "_itemDetails",
          "type": "tuple"
        }
      ],
      "stateMutability": "nonpayable",
      "type": "constructor"
    },
    {
      "anonymous": false,
      "inputs": [
        {
          "indexed": false,
          "internalType": "address",
          "name": "item",
          "type": "address"
        },
        {
          "indexed": false,
          "internalType": "string",
          "name": "property",
          "type": "string"
        },
        {
          "indexed": false,
          "internalType": "string",
          "name": "newDetails",
          "type": "string"
        }
      ],
      "name": "itemDetailsChanged",
      "type": "event"
    },
    {
      "anonymous": false,
      "inputs": [
        {
          "indexed": false,
          "internalType": "address",
          "name": "item",
          "type": "address"
        },
        {
          "indexed": false,
          "internalType": "address",
          "name": "newOwner",
          "type": "address"
        }
      ],
      "name": "itemOwnerChanged",
      "type": "event"
    },
    {
      "anonymous": false,
      "inputs": [
        {
          "indexed": false,
          "internalType": "address",
          "name": "item",
          "type": "address"
        },
        {
          "indexed": false,
          "internalType": "enum Item.ItemStatus",
          "name": "newStatus",
          "type": "uint8"
        }
      ],
      "name": "itemStatusChanged",
      "type": "event"
    },
    {
      "inputs": [
        {
          "internalType": "address",
          "name": "",
          "type": "address"
        }
      ],
      "name": "isRenter",
      "outputs": [
        {
          "internalType": "bool",
          "name": "",
          "type": "bool"
        }
      ],
      "stateMutability": "view",
      "type": "function"
    },
    {
      "inputs": [],
      "name": "itemDetails",
      "outputs": [
        {
          "internalType": "address",
          "name": "owner",
          "type": "address"
        },
        {
          "internalType": "string",
          "name": "name",
          "type": "string"
        },
        {
          "internalType": "string",
          "name": "collectionOrReturnAddress",
          "type": "string"
        },
        {
          "internalType": "string",
          "name": "description",
          "type": "string"
        },
        {
          "internalType": "uint256",
          "name": "rentPerDay",
          "type": "uint256"
        },
        {
          "internalType": "uint8",
          "name": "maxAllowableLateDays",
          "type": "uint8"
        },
        {
          "internalType": "bool",
          "name": "isAvailableForRent",
          "type": "bool"
        }
      ],
      "stateMutability": "view",
      "type": "function"
    },
    {
      "inputs": [],
      "name": "itemStatus",
      "outputs": [
        {
          "internalType": "enum Item.ItemStatus",
          "name": "",
          "type": "uint8"
        }
      ],
      "stateMutability": "view",
      "type": "function"
    },
    {
      "inputs": [],
      "name": "owner",
      "outputs": [
        {
          "internalType": "address",
          "name": "",
          "type": "address"
        }
      ],
      "stateMutability": "view",
      "type": "function"
    },
    {
      "inputs": [],
      "name": "rentalContractCount",
      "outputs": [
        {
          "internalType": "uint8",
          "name": "",
          "type": "uint8"
        }
      ],
      "stateMutability": "view",
      "type": "function"
    },
    {
      "inputs": [
        {
          "internalType": "uint256",
          "name": "",
          "type": "uint256"
        }
      ],
      "name": "rentalContracts",
      "outputs": [
        {
          "internalType": "address",
          "name": "",
          "type": "address"
        }
      ],
      "stateMutability": "view",
      "type": "function"
    },
    {
      "inputs": [
        {
          "internalType": "uint256",
          "name": "",
          "type": "uint256"
        }
      ],
      "name": "rentalPeriods",
      "outputs": [
        {
          "internalType": "uint256",
          "name": "start",
          "type": "uint256"
        },
        {
          "internalType": "uint256",
          "name": "end",
          "type": "uint256"
        }
      ],
      "stateMutability": "view",
      "type": "function"
    },
    {
      "inputs": [],
      "name": "renterCount",
      "outputs": [
        {
          "internalType": "uint8",
          "name": "",
          "type": "uint8"
        }
      ],
      "stateMutability": "view",
      "type": "function"
    },
    {
      "inputs": [
        {
          "internalType": "uint256",
          "name": "",
          "type": "uint256"
        }
      ],
      "name": "renters",
      "outputs": [
        {
          "internalType": "address",
          "name": "",
          "type": "address"
        }
      ],
      "stateMutability": "view",
      "type": "function"
    },
    {
      "inputs": [
        {
          "internalType": "address",
          "name": "_newOwner",
          "type": "address"
        }
      ],
      "name": "changeOwner",
      "outputs": [],
      "stateMutability": "nonpayable",
      "type": "function"
    },
    {
      "inputs": [
        {
          "internalType": "uint8",
          "name": "_newStatus",
          "type": "uint8"
        }
      ],
      "name": "changeItemStatus",
      "outputs": [],
      "stateMutability": "nonpayable",
      "type": "function"
    },
    {
      "inputs": [
        {
          "internalType": "string",
          "name": "_newName",
          "type": "string"
        }
      ],
      "name": "changeItemName",
      "outputs": [],
      "stateMutability": "nonpayable",
      "type": "function"
    },
    {
      "inputs": [
        {
          "internalType": "string",
          "name": "_newAddress",
          "type": "string"
        }
      ],
      "name": "changeItemCollectionOrReturnAddress",
      "outputs": [],
      "stateMutability": "nonpayable",
      "type": "function"
    },
    {
      "inputs": [
        {
          "internalType": "string",
          "name": "_newDescription",
          "type": "string"
        }
      ],
      "name": "changeItemDescription",
      "outputs": [],
      "stateMutability": "nonpayable",
      "type": "function"
    },
    {
      "inputs": [
        {
          "internalType": "uint256",
          "name": "_newRentPerDay",
          "type": "uint256"
        }
      ],
      "name": "changeItemRentPerDay",
      "outputs": [],
      "stateMutability": "nonpayable",
      "type": "function"
    },
    {
      "inputs": [
        {
          "internalType": "uint8",
          "name": "_newMaxAllowableLateDays",
          "type": "uint8"
        }
      ],
      "name": "changeItemMaxAllowableLateDays",
      "outputs": [],
      "stateMutability": "nonpayable",
      "type": "function"
    },
    {
      "inputs": [
        {
          "internalType": "address[]",
          "name": "_newMediaIPFSHashes",
          "type": "address[]"
        }
      ],
      "name": "changeItemMediaIPFSHashes",
      "outputs": [],
      "stateMutability": "nonpayable",
      "type": "function"
    },
    {
      "inputs": [
        {
          "internalType": "address",
          "name": "_renter",
          "type": "address"
        }
      ],
      "name": "addNewRenter",
      "outputs": [],
      "stateMutability": "nonpayable",
      "type": "function"
    },
    {
      "inputs": [
        {
          "internalType": "address",
          "name": "_newRentalContract",
          "type": "address"
        },
        {
          "internalType": "uint256",
          "name": "_start",
          "type": "uint256"
        },
        {
          "internalType": "uint256",
          "name": "_end",
          "type": "uint256"
        }
      ],
      "name": "handleNewRental",
      "outputs": [],
      "stateMutability": "nonpayable",
      "type": "function"
    }
  ],
  "bytecode": "0x60806040526040516200001290620001bf565b604051809103906000f0801580156200002f573d6000803e3d6000fd5b50600080546001600160a01b0319166001600160a01b03929092169190911790553480156200005d57600080fd5b5060405162001fe138038062001fe1833981016040819052620000809162000437565b8051600280546001600160a01b0319166001600160a01b039092169190911781556020808301518051849392620000bd92600392910190620001cd565b5060408201518051620000db916002840191602090910190620001cd565b5060608201518051620000f9916003840191602090910190620001cd565b506080820151600482015560a082015160058201805460c085015115156101000261ffff1990911660ff9093169290921791909117905560e082015180516200014d9160068401916020909101906200025c565b5050600254600180546001600160a01b0319166001600160a01b039092169190911790555060075460ff610100909104161562000194576009805460ff19169055620001a2565b6009805460ff191660011790555b50600b805460ff19908116909155600e8054909116905562000616565b610669806200197883390190565b828054620001db90620005c3565b90600052602060002090601f016020900481019282620001ff57600085556200024a565b82601f106200021a57805160ff19168380011785556200024a565b828001600101855582156200024a579182015b828111156200024a5782518255916020019190600101906200022d565b5062000258929150620002b4565b5090565b8280548282559060005260206000209081019282156200024a579160200282015b828111156200024a57825182546001600160a01b0319166001600160a01b039091161782556020909201916001909101906200027d565b5b80821115620002585760008155600101620002b5565b80516001600160a01b0381168114620002e357600080fd5b919050565b600082601f830112620002fa57600080fd5b815160206001600160401b0382111562000318576200031862000600565b8160051b6200032982820162000590565b8381528281019086840183880185018910156200034557600080fd5b600093505b8584101562000373576200035e81620002cb565b8352600193909301929184019184016200034a565b50979650505050505050565b80518015158114620002e357600080fd5b600082601f830112620003a257600080fd5b81516001600160401b03811115620003be57620003be62000600565b6020620003d4601f8301601f1916820162000590565b8281528582848701011115620003e957600080fd5b60005b8381101562000409578581018301518282018401528201620003ec565b838111156200041b5760008385840101525b5095945050505050565b805160ff81168114620002e357600080fd5b6000602082840312156200044a57600080fd5b81516001600160401b03808211156200046257600080fd5b9083019061010082860312156200047857600080fd5b6200048262000564565b6200048d83620002cb565b8152602083015182811115620004a257600080fd5b620004b08782860162000390565b602083015250604083015182811115620004c957600080fd5b620004d78782860162000390565b604083015250606083015182811115620004f057600080fd5b620004fe8782860162000390565b606083015250608083015160808201526200051c60a0840162000425565b60a08201526200052f60c084016200037f565b60c082015260e0830151828111156200054757600080fd5b6200055587828601620002e8565b60e08301525095945050505050565b60405161010081016001600160401b03811182821017156200058a576200058a62000600565b60405290565b604051601f8201601f191681016001600160401b0381118282101715620005bb57620005bb62000600565b604052919050565b600181811c90821680620005d857607f821691505b60208210811415620005fa57634e487b7160e01b600052602260045260246000fd5b50919050565b634e487b7160e01b600052604160045260246000fd5b61135280620006266000396000f3fe608060405234801561001057600080fd5b50600436106101215760003560e01c806386941d29116100ad578063a6f9dae111610071578063a6f9dae114610299578063a871c231146102ac578063dcc3974b146102bf578063e3d0c9d2146102d2578063ffd369cc146102e557600080fd5b806386941d29146102135780638da5cb5b146102265780639e18eb76146102395780639f2bc40e1461024c578063a50ad3591461027f57600080fd5b806356ca4cfb116100f457806356ca4cfb146101a657806363737c51146101c55780636679497b146101d25780636e309a8b146101e557806382770a43146101f857600080fd5b806306669aea1461012657806321fb7ee81461013b57806352ab52bb1461016857806353da02061461017b575b600080fd5b610139610134366004610d45565b6102f8565b005b61014e610149366004610ec7565b61044c565b604080519283526020830191909152015b60405180910390f35b610139610176366004610d12565b61047a565b61018e610189366004610ec7565b610588565b6040516001600160a01b03909116815260200161015f565b600e546101b39060ff1681565b60405160ff909116815260200161015f565b600b546101b39060ff1681565b6101396101e0366004610ee0565b6105b2565b6101396101f3366004610dba565b61068c565b6102006106d1565b60405161015f9796959493929190610fd4565b610139610221366004610dba565b6108a7565b60015461018e906001600160a01b031681565b610139610247366004610cf0565b6108ec565b61026f61025a366004610cf0565b600f6020526000908152604090205460ff1681565b604051901515815260200161015f565b60095461028c9060ff1681565b60405161015f9190611200565b6101396102a7366004610cf0565b610988565b6101396102ba366004610dba565b610a07565b61018e6102cd366004610ec7565b610a4c565b6101396102e0366004610ec7565b610a5c565b6101396102f3366004610ee0565b610b1a565b6001546001600160a01b0316331461030f57600080fd5b61031b60088383610be8565b50604080516020810190915260008082525b8281101561041f5760005482906001600160a01b03166326d2733786868581811061035a5761035a6112d0565b905060200201602081019061036f9190610cf0565b6040516001600160e01b031960e084901b1681526001600160a01b03909116600482015260240160006040518083038186803b1580156103ae57600080fd5b505afa1580156103c2573d6000803e3d6000fd5b505050506040513d6000823e601f3d908101601f191682016040526103ea9190810190610e1a565b6040516020016103fb929190610f7a565b604051602081830303815290604052915080806104179061127f565b91505061032d565b506000805160206112fd833981519152308260405161043f9291906111b9565b60405180910390a1505050565b600c818154811061045c57600080fd5b60009182526020909120600290910201805460019091015490915082565b336000908152600f602052604090205460ff1661049657600080fd5b600a805460018101825560009182527fc65a7bb8d6351c1cf70c95a316cc6a92839c986682d98bc35f958f4883f9d2a80180546001600160a01b0319166001600160a01b038616179055600b805460ff16916104f18361129a565b82546101009290920a60ff818102199093169190921691909102179055506040805180820190915291825260208201908152600c805460018101825560009190915291517fdf6966c971051c3d54ec59162606531493a51404a002842f56009d7e5cf4a8c7600290930292830155517fdf6966c971051c3d54ec59162606531493a51404a002842f56009d7e5cf4a8c89091015550565b600a818154811061059857600080fd5b6000918252602090912001546001600160a01b0316905081565b6001546001600160a01b031633146105c957600080fd5b6007805460ff191660ff831690811790915560008054604051637bb7ca8760e11b8152600481019390935290916001600160a01b039091169063f76f950e9060240160006040518083038186803b15801561062357600080fd5b505afa158015610637573d6000803e3d6000fd5b505050506040513d6000823e601f3d908101601f1916820160405261065f9190810190610e1a565b90506000805160206112fd8339815191523082604051610680929190611123565b60405180910390a15050565b6001546001600160a01b031633146106a357600080fd5b6106af60058383610c4b565b506000805160206112fd83398151915230838360405161068093929190611043565b60028054600380546001600160a01b0390921692916106ef90611244565b80601f016020809104026020016040519081016040528092919081815260200182805461071b90611244565b80156107685780601f1061073d57610100808354040283529160200191610768565b820191906000526020600020905b81548152906001019060200180831161074b57829003601f168201915b50505050509080600201805461077d90611244565b80601f01602080910402602001604051908101604052809291908181526020018280546107a990611244565b80156107f65780601f106107cb576101008083540402835291602001916107f6565b820191906000526020600020905b8154815290600101906020018083116107d957829003601f168201915b50505050509080600301805461080b90611244565b80601f016020809104026020016040519081016040528092919081815260200182805461083790611244565b80156108845780601f1061085957610100808354040283529160200191610884565b820191906000526020600020905b81548152906001019060200180831161086757829003601f168201915b50505050600483015460059093015491929160ff80821692506101009091041687565b6001546001600160a01b031633146108be57600080fd5b6108ca60048383610c4b565b506000805160206112fd83398151915230838360405161068093929190611090565b600d805460018101825560009182527fd7b6990105719101dabeb77144f2a3385c8033acd3af97e9423a695e81ad1eb50180546001600160a01b0319166001600160a01b038416179055600e805460ff16916109478361129a565b825460ff9182166101009390930a9283029190920219909116179055506001600160a01b03166000908152600f60205260409020805460ff19166001179055565b6001546001600160a01b0316331461099f57600080fd5b600280546001600160a01b0383166001600160a01b0319918216811790925560018054909116821790556040805130815260208101929092527fdc9230f080d0a42c0cbdad257f4d42957e2b7bee402bec3d8dbf5b51da448c4e91015b60405180910390a150565b6001546001600160a01b03163314610a1e57600080fd5b610a2a60038383610c4b565b506000805160206112fd833981519152308383604051610680939291906110e6565b600d818154811061059857600080fd5b6001546001600160a01b03163314610a7357600080fd5b600681905560008054604051637bb7ca8760e11b8152600481018490526001600160a01b039091169063f76f950e9060240160006040518083038186803b158015610abd57600080fd5b505afa158015610ad1573d6000803e3d6000fd5b505050506040513d6000823e601f3d908101601f19168201604052610af99190810190610e1a565b90506000805160206112fd8339815191523082604051610680929190611177565b6001546001600160a01b03163314610b3157600080fd5b60ff8116610b62576007805461ff001916610100179055600980546000919060ff19166001835b0217905550610bb1565b8060ff1660011415610b8c576007805461ff0019169055600980546001919060ff19168280610b58565b8060ff1660021415610bb1576007805461ff00191690556009805460ff191660021790555b6009546040517f8c5acf85d257fc548b6710d2ceeffe7d4b9b4dc7ed2866b316815c2ab592b9f6916109fc91309160ff1690610fb7565b828054828255906000526020600020908101928215610c3b579160200282015b82811115610c3b5781546001600160a01b0319166001600160a01b03843516178255602090920191600190910190610c08565b50610c47929150610cbf565b5090565b828054610c5790611244565b90600052602060002090601f016020900481019282610c795760008555610c3b565b82601f10610c925782800160ff19823516178555610c3b565b82800160010185558215610c3b579182015b82811115610c3b578235825591602001919060010190610ca4565b5b80821115610c475760008155600101610cc0565b80356001600160a01b0381168114610ceb57600080fd5b919050565b600060208284031215610d0257600080fd5b610d0b82610cd4565b9392505050565b600080600060608486031215610d2757600080fd5b610d3084610cd4565b95602085013595506040909401359392505050565b60008060208385031215610d5857600080fd5b823567ffffffffffffffff80821115610d7057600080fd5b818501915085601f830112610d8457600080fd5b813581811115610d9357600080fd5b8660208260051b8501011115610da857600080fd5b60209290920196919550909350505050565b60008060208385031215610dcd57600080fd5b823567ffffffffffffffff80821115610de557600080fd5b818501915085601f830112610df957600080fd5b813581811115610e0857600080fd5b866020828501011115610da857600080fd5b600060208284031215610e2c57600080fd5b815167ffffffffffffffff80821115610e4457600080fd5b818401915084601f830112610e5857600080fd5b815181811115610e6a57610e6a6112e6565b604051601f8201601f19908116603f01168101908382118183101715610e9257610e926112e6565b81604052828152876020848701011115610eab57600080fd5b610ebc836020830160208801611214565b979650505050505050565b600060208284031215610ed957600080fd5b5035919050565b600060208284031215610ef257600080fd5b813560ff81168114610d0b57600080fd5b60038110610f2157634e487b7160e01b600052602160045260246000fd5b9052565b81835281816020850137506000828201602090810191909152601f909101601f19169091010190565b60008151808452610f66816020860160208601611214565b601f01601f19169290920160200192915050565b60008351610f8c818460208801611214565b61016160f51b9083019081528351610fab816002840160208801611214565b01600201949350505050565b6001600160a01b038316815260408101610d0b6020830184610f03565b6001600160a01b038816815260e060208201819052600090610ff890830189610f4e565b828103604084015261100a8189610f4e565b9050828103606084015261101e8188610f4e565b6080840196909652505060ff9290921660a0830152151560c090910152949350505050565b60018060a01b038416815260606020820152600b60608201526a3232b9b1b934b83a34b7b760a91b608082015260a06040820152600061108760a083018486610f25565b95945050505050565b60018060a01b038416815260606020820152601860608201527f636f6c6c656374696f6e2f72657475726e416464726573730000000000000000608082015260a06040820152600061108760a083018486610f25565b60018060a01b03841681526060602082015260046060820152636e616d6560e01b608082015260a06040820152600061108760a083018486610f25565b60018060a01b03831681526060602082015260146060820152736d6178416c6c6f7761626c654c6174654461797360601b608082015260a06040820152600061116f60a0830184610f4e565b949350505050565b60018060a01b038316815260606020820152600a60608201526972656e7450657244617960b01b608082015260a06040820152600061116f60a0830184610f4e565b60018060a01b038316815260606020820152600f60608201526e6d656469614950465348617368657360881b608082015260a06040820152600061116f60a0830184610f4e565b6020810161120e8284610f03565b92915050565b60005b8381101561122f578181015183820152602001611217565b8381111561123e576000848401525b50505050565b600181811c9082168061125857607f821691505b6020821081141561127957634e487b7160e01b600052602260045260246000fd5b50919050565b6000600019821415611293576112936112ba565b5060010190565b600060ff821660ff8114156112b1576112b16112ba565b60010192915050565b634e487b7160e01b600052601160045260246000fd5b634e487b7160e01b600052603260045260246000fd5b634e487b7160e01b600052604160045260246000fdfe1fb119ae646ad419061c26b2c9f00687535e680f4cabbaa1a12df632a4668054a26469706673582212200e526b5c557abbc73ce2e572e84dc758f265a2a8f84ca2ffe4974e16ac60c91d64736f6c63430008070033608060405234801561001057600080fd5b50610649806100206000396000f3fe608060405234801561001057600080fd5b50600436106100365760003560e01c806326d273371461003b578063f76f950e14610064575b600080fd5b61004e6100493660046102fd565b610077565b60405161005b9190610346565b60405180910390f35b61004e61007236600461032d565b6101be565b60408051602880825260608281019093526000919060208201818036833701905050905060005b60148110156101b75760006100b482601361053b565b6100bf9060086104fb565b6100ca906002610451565b6100dd906001600160a01b0387166103d8565b60f81b9050600060108260f81c6100f491906103ec565b60f81b905060008160f81c601061010b919061051a565b8360f81c6101199190610552565b60f81b9050610127826102c7565b856101338660026104fb565b81518110610143576101436105e7565b60200101906001600160f81b031916908160001a905350610163816102c7565b8561016f8660026104fb565b61017a90600161039b565b8151811061018a5761018a6105e7565b60200101906001600160f81b031916908160001a90535050505080806101af9061058c565b91505061009e565b5092915050565b6060816101e25750506040805180820190915260018152600360fc1b602082015290565b8160005b811561020c57806101f68161058c565b91506102059050600a836103d8565b91506101e6565b60008167ffffffffffffffff811115610227576102276105fd565b6040519080825280601f01601f191660200182016040528015610251576020820181803683370190505b508593509050815b83156102be5761026a600a856105a7565b61027590603061039b565b60f81b8261028283610575565b92508281518110610295576102956105e7565b60200101906001600160f81b031916908160001a9053506102b7600a856103d8565b9350610259565b50949350505050565b6000600a60f883901c10156102ee576102e560f883901c60306103b3565b60f81b92915050565b6102e560f883901c60576103b3565b60006020828403121561030f57600080fd5b81356001600160a01b038116811461032657600080fd5b9392505050565b60006020828403121561033f57600080fd5b5035919050565b600060208083528351808285015260005b8181101561037357858101830151858201604001528201610357565b81811115610385576000604083870101525b50601f01601f1916929092016040019392505050565b600082198211156103ae576103ae6105bb565b500190565b600060ff821660ff84168060ff038211156103d0576103d06105bb565b019392505050565b6000826103e7576103e76105d1565b500490565b600060ff8316806103ff576103ff6105d1565b8060ff84160491505092915050565b600181815b8085111561044957816000190482111561042f5761042f6105bb565b8085161561043c57918102915b93841c9390800290610413565b509250929050565b60006103268383600082610467575060016104f5565b81610474575060006104f5565b816001811461048a5760028114610494576104b0565b60019150506104f5565b60ff8411156104a5576104a56105bb565b50506001821b6104f5565b5060208310610133831016604e8410600b84101617156104d3575081810a6104f5565b6104dd838361040e565b80600019048211156104f1576104f16105bb565b0290505b92915050565b6000816000190483118215151615610515576105156105bb565b500290565b600060ff821660ff84168160ff04811182151516156104f1576104f16105bb565b60008282101561054d5761054d6105bb565b500390565b600060ff821660ff84168082101561056c5761056c6105bb565b90039392505050565b600081610584576105846105bb565b506000190190565b60006000198214156105a0576105a06105bb565b5060010190565b6000826105b6576105b66105d1565b500690565b634e487b7160e01b600052601160045260246000fd5b634e487b7160e01b600052601260045260246000fd5b634e487b7160e01b600052603260045260246000fd5b634e487b7160e01b600052604160045260246000fdfea26469706673582212202eee08da6fb358cb68fb4a5f1c458c0a667c1412ed0eac24ae776c80af7a4e5864736f6c63430008070033",
  "immutableReferences": {},
  "source": "// SPDX-License-Identifier: GPL-3.0\n\npragma solidity >=0.7.0 <0.9.0;\n\nimport \"./helpers/Utils.sol\";\n\ncontract Item {\n    Utils utils = new Utils();\n\n    enum ItemStatus {\n        AVAILABLE,\n        HIDDEN,\n        DELETED\n    }\n\n    struct ItemDetails {\n        address owner;\n        string name;\n        string collectionOrReturnAddress;\n        string description;\n        uint256 rentPerDay;\n        uint8 maxAllowableLateDays;\n        bool isAvailableForRent;\n        address[] mediaIPFSHashes;\n    }\n\n    struct RentalStartEnd {\n        uint256 start; // Unix epoch time\n        uint256 end; // Unix epoch time\n    }\n\n    address public owner;\n    ItemDetails public itemDetails;\n    ItemStatus public itemStatus;\n\n    address[] public rentalContracts;\n    uint8 public rentalContractCount;\n    RentalStartEnd[] public rentalPeriods;\n\n    address[] public renters;\n    uint8 public renterCount;\n    mapping(address => bool) public isRenter;\n\n    event itemOwnerChanged(address item, address newOwner);\n    event itemStatusChanged(address item, ItemStatus newStatus);\n    event itemDetailsChanged(address item, string property, string newDetails);\n\n    constructor(ItemDetails memory _itemDetails) {\n        itemDetails = _itemDetails;\n        owner = itemDetails.owner;\n\n        if (itemDetails.isAvailableForRent) {\n            itemStatus = ItemStatus.AVAILABLE;\n        } else {\n            itemStatus = ItemStatus.HIDDEN;\n        }\n\n        rentalContractCount = 0;\n        renterCount = 0;\n    }\n\n    modifier onlyOwner() {\n        require(msg.sender == owner);\n        _;\n    }\n\n    modifier onlyRenters() {\n        require(isRenter[msg.sender]);\n        _;\n    }\n\n    function changeOwner(address _newOwner) public onlyOwner {\n        itemDetails.owner = _newOwner;\n        owner = _newOwner;\n\n        emit itemOwnerChanged(address(this), _newOwner);\n    }\n\n    function changeItemStatus(uint8 _newStatus) public onlyOwner {\n        if (_newStatus == 0) {\n            itemDetails.isAvailableForRent = true;\n            itemStatus = ItemStatus.AVAILABLE;\n        } else if (_newStatus == 1) {\n            itemDetails.isAvailableForRent = false;\n            itemStatus = ItemStatus.HIDDEN;\n        } else if (_newStatus == 2) {\n            itemDetails.isAvailableForRent = false;\n            itemStatus = ItemStatus.DELETED;\n        }\n\n        emit itemStatusChanged(address(this), itemStatus);\n    }\n\n    function changeItemName(string calldata _newName) public onlyOwner {\n        itemDetails.name = _newName;\n        emit itemDetailsChanged(address(this), \"name\", _newName);\n    }\n\n    function changeItemCollectionOrReturnAddress(string calldata _newAddress)\n        public\n        onlyOwner\n    {\n        itemDetails.collectionOrReturnAddress = _newAddress;\n        emit itemDetailsChanged(\n            address(this),\n            \"collection/returnAddress\",\n            _newAddress\n        );\n    }\n\n    function changeItemDescription(string calldata _newDescription)\n        public\n        onlyOwner\n    {\n        itemDetails.description = _newDescription;\n        emit itemDetailsChanged(address(this), \"description\", _newDescription);\n    }\n\n    function changeItemRentPerDay(uint256 _newRentPerDay) public onlyOwner {\n        itemDetails.rentPerDay = _newRentPerDay;\n        string memory newRentPerDay = utils.uint2str(_newRentPerDay);\n        emit itemDetailsChanged(\n            address(this),\n            \"rentPerDay\",\n            string(newRentPerDay)\n        );\n    }\n\n    function changeItemMaxAllowableLateDays(uint8 _newMaxAllowableLateDays)\n        public\n        onlyOwner\n    {\n        itemDetails.maxAllowableLateDays = _newMaxAllowableLateDays;\n        string memory newMaxAllowableLateDays = utils.uint2str(\n            _newMaxAllowableLateDays\n        );\n        emit itemDetailsChanged(\n            address(this),\n            \"maxAllowableLateDays\",\n            newMaxAllowableLateDays\n        );\n    }\n\n    function changeItemMediaIPFSHashes(address[] calldata _newMediaIPFSHashes)\n        public\n        onlyOwner\n    {\n        itemDetails.mediaIPFSHashes = _newMediaIPFSHashes;\n        string memory newMediaIPFSHashes = \"\";\n        for (uint256 i = 0; i < _newMediaIPFSHashes.length; i++) {\n            newMediaIPFSHashes = string(\n                abi.encodePacked(\n                    newMediaIPFSHashes,\n                    \", \",\n                    // abi.encodePacked(_newMediaIPFSHashes[i])\n                    utils.address2str(_newMediaIPFSHashes[i])\n                )\n            );\n        }\n        emit itemDetailsChanged(\n            address(this),\n            \"mediaIPFSHashes\",\n            newMediaIPFSHashes\n        );\n    }\n\n    function addNewRenter(address _renter) public {\n        renters.push(_renter);\n        renterCount++;\n        isRenter[_renter] = true;\n    }\n\n    function handleNewRental(\n        address _newRentalContract,\n        uint256 _start,\n        uint256 _end\n    ) public onlyRenters {\n        rentalContracts.push(_newRentalContract);\n        rentalContractCount++;\n        rentalPeriods.push(RentalStartEnd({start: _start, end: _end}));\n    }\n}\n",
  "sourcePath": "/Users/jyuteo/CodeProjects/TRent/src/contracts/Item.sol",
  "compiler": {
    "name": "solc",
    "version": "0.8.7+commit.e28d00a7.Emscripten.clang"
  },
  "schemaVersion": "3.4.3",
  "updatedAt": "2021-08-23T14:58:11.497Z",
  "devdoc": {
    "kind": "dev",
    "methods": {},
    "version": 1
  },
  "userdoc": {
    "kind": "user",
    "methods": {},
    "version": 1
  }
}