{
  "contractName": "ItemContractCreator",
  "abi": [
    {
      "inputs": [
        {
          "components": [
            {
              "internalType": "address",
              "name": "ownerUserContract",
              "type": "address"
            },
            {
              "internalType": "address payable",
              "name": "ownerAddress",
              "type": "address"
            },
            {
              "internalType": "string",
              "name": "name",
              "type": "string"
            },
            {
              "internalType": "string",
              "name": "collectionOrReturnAddress",
              "type": "string"
            },
            {
              "internalType": "string",
              "name": "description",
              "type": "string"
            },
            {
              "internalType": "uint256",
              "name": "rentPerDay",
              "type": "uint256"
            },
            {
              "internalType": "uint8",
              "name": "maxAllowableLateDays",
              "type": "uint8"
            },
            {
              "internalType": "uint8",
              "name": "multipleForLateFees",
              "type": "uint8"
            },
            {
              "internalType": "bool",
              "name": "isAvailableForRent",
              "type": "bool"
            },
            {
              "internalType": "string[]",
              "name": "mediaIPFSHashes",
              "type": "string[]"
            }
          ],
          "internalType": "struct Structs.ItemDetails",
          "name": "_itemDetails",
          "type": "tuple"
        }
      ],
      "name": "createItemContract",
      "outputs": [
        {
          "internalType": "contract Item",
          "name": "",
          "type": "address"
        }
      ],
      "stateMutability": "nonpayable",
      "type": "function"
    }
  ],
  "bytecode": "0x608060405234801561001057600080fd5b506125f1806100206000396000f3fe60806040523480156200001157600080fd5b50600436106200002e5760003560e01c80636fa70e8a1462000033575b600080fd5b6200004a62000044366004620000b5565b62000066565b6040516001600160a01b03909116815260200160405180910390f35b6000816040516200007790620000a7565b62000083919062000266565b604051809103906000f080158015620000a0573d6000803e3d6000fd5b5092915050565b6121f080620003cc83390190565b600060208284031215620000c857600080fd5b813567ffffffffffffffff811115620000e057600080fd5b82016101408185031215620000f457600080fd5b9392505050565b80356001600160a01b03811681146200011357600080fd5b919050565b6000808335601e198436030181126200013057600080fd5b830160208101925035905067ffffffffffffffff8111156200015157600080fd5b8036038313156200016157600080fd5b9250929050565b81835281816020850137506000828201602090810191909152601f909101601f19169091010190565b803560ff811681146200011357600080fd5b803580151581146200011357600080fd5b6000808335601e19843603018112620001cc57600080fd5b830160208101925035905067ffffffffffffffff811115620001ed57600080fd5b8060051b36038313156200016157600080fd5b60008383855260208086019550808560051b8301018460005b878110156200025957848303601f1901895262000237828862000118565b6200024485828462000168565b9a86019a945050509083019060010162000219565b5090979650505050505050565b602081526200028a602082016200027d84620000fb565b6001600160a01b03169052565b60006200029a60208401620000fb565b6001600160a01b038116604084015250620002b9604084018462000118565b610140806060860152620002d36101608601838562000168565b9250620002e4606087018762000118565b9250601f19808786030160808801526200030085858462000168565b945062000311608089018962000118565b94509150808786030160a08801526200032c85858462000168565b945060a088013560c08801526200034660c0890162000191565b60ff811660e089015293506200035f60e0890162000191565b93506101009150620003758288018560ff169052565b62000382828901620001a3565b93506101209150620003978288018515159052565b620003a582890189620001b4565b9450915080878603018388015250620003c084848362000200565b97965050505050505056fe60806040523480156200001157600080fd5b50604051620021f0380380620021f0833981016040819052620000349162000514565b8051600380546001600160a01b03199081166001600160a01b039384161782556020808501516004805490931694169390931790556040830151805184936200008392600592910190620001b7565b5060608201518051620000a1916003840191602090910190620001b7565b5060808201518051620000bf916004840191602090910190620001b7565b5060a0820151600582015560c082015160068201805460e0850151610100808701511515620100000262ff00001960ff93841690920261ffff199094169290951691909117919091171691909117905561012082015180516200012d91600784019160209091019062000246565b5050600354600180546001600160a01b039283166001600160a01b031991821617909155600454600280549190931691161790555060095462010000900460ff16156200018457600b805460ff1916905562000192565b600b805460ff191660011790555b50600d805460ff199081169091556010805482169055601380549091169055620006a9565b828054620001c5906200066c565b90600052602060002090601f016020900481019282620001e9576000855562000234565b82601f106200020457805160ff191683800117855562000234565b8280016001018555821562000234579182015b828111156200023457825182559160200191906001019062000217565b5062000242929150620002a6565b5090565b82805482825590600052602060002090810192821562000298579160200282015b8281111562000298578251805162000287918491602090910190620001b7565b509160200191906001019062000267565b5062000242929150620002bd565b5b80821115620002425760008155600101620002a7565b8082111562000242576000620002d48282620002de565b50600101620002bd565b508054620002ec906200066c565b6000825580601f10620002fd575050565b601f0160209004906000526020600020908101906200031d9190620002a6565b50565b634e487b7160e01b600052604160045260246000fd5b60405161014081016001600160401b03811182821017156200035c576200035c62000320565b60405290565b604051601f8201601f191681016001600160401b03811182821017156200038d576200038d62000320565b604052919050565b80516001600160a01b0381168114620003ad57600080fd5b919050565b600082601f830112620003c457600080fd5b81516001600160401b03811115620003e057620003e062000320565b6020620003f6601f8301601f1916820162000362565b82815285828487010111156200040b57600080fd5b60005b838110156200042b5785810183015182820184015282016200040e565b838111156200043d5760008385840101525b5095945050505050565b805160ff81168114620003ad57600080fd5b80518015158114620003ad57600080fd5b600082601f8301126200047c57600080fd5b815160206001600160401b03808311156200049b576200049b62000320565b8260051b620004ac83820162000362565b9384528581018301938381019088861115620004c757600080fd5b84880192505b858310156200050857825184811115620004e75760008081fd5b620004f78a87838c0101620003b2565b8352509184019190840190620004cd565b98975050505050505050565b6000602082840312156200052757600080fd5b81516001600160401b03808211156200053f57600080fd5b9083019061014082860312156200055557600080fd5b6200055f62000336565b6200056a8362000395565b81526200057a6020840162000395565b60208201526040830151828111156200059257600080fd5b620005a087828601620003b2565b604083015250606083015182811115620005b957600080fd5b620005c787828601620003b2565b606083015250608083015182811115620005e057600080fd5b620005ee87828601620003b2565b60808301525060a083015160a08201526200060c60c0840162000447565b60c08201526200061f60e0840162000447565b60e08201526101006200063481850162000459565b9082015261012083810151838111156200064d57600080fd5b6200065b888287016200046a565b918301919091525095945050505050565b600181811c908216806200068157607f821691505b60208210811415620006a357634e487b7160e01b600052602260045260246000fd5b50919050565b611b3780620006b96000396000f3fe60806040526004361061012a5760003560e01c806386941d29116100ab578063a871c2311161006f578063a871c2311461037a578063dcc3974b1461039a578063dce59d10146103ba578063e3d0c9d2146103da578063f00d4b5d146103fa578063ffd369cc1461041a57600080fd5b806386941d29146102b35780638f84aa09146102d35780639bf05f06146102f35780639f2bc40e14610313578063a50ad3591461035357600080fd5b806363737c51116100f257806363737c51146102155780636679497b1461022f5780636e309a8b1461024f57806382770a431461026f57806385a4e17c1461029957600080fd5b806321fb7ee81461012f5780634099d90e14610169578063461a33a21461019c57806353da0206146101b157806356ca4cfb146101e9575b600080fd5b34801561013b57600080fd5b5061014f61014a3660046110f2565b61043a565b604080519283526020830191909152015b60405180910390f35b34801561017557600080fd5b506101896101843660046110f2565b610468565b604051610160979695949392919061117d565b6101af6101aa36600461120c565b610557565b005b3480156101bd57600080fd5b506101d16101cc3660046110f2565b610832565b6040516001600160a01b039091168152602001610160565b3480156101f557600080fd5b506010546102039060ff1681565b60405160ff9091168152602001610160565b34801561022157600080fd5b50600d546102039060ff1681565b34801561023b57600080fd5b506101af61024a36600461127a565b61085c565b34801561025b57600080fd5b506101af61026a36600461129c565b610949565b34801561027b57600080fd5b506102846109a1565b6040516101609998979695949392919061130e565b3480156102a557600080fd5b506013546102039060ff1681565b3480156102bf57600080fd5b506101af6102ce36600461129c565b610b86565b3480156102df57600080fd5b506002546101d1906001600160a01b031681565b3480156102ff57600080fd5b506101af61030e366004611402565b610bde565b34801561031f57600080fd5b5061034361032e366004611509565b60116020526000908152604090205460ff1681565b6040519015158152602001610160565b34801561035f57600080fd5b50600b5461036d9060ff1681565b604051610160919061153a565b34801561038657600080fd5b506101af61039536600461129c565b610c5f565b3480156103a657600080fd5b506101d16103b53660046110f2565b610cb7565b3480156103c657600080fd5b506001546101d1906001600160a01b031681565b3480156103e657600080fd5b506101af6103f53660046110f2565b610cc7565b34801561040657600080fd5b506101af61041536600461154e565b610d98565b34801561042657600080fd5b506101af61043536600461127a565b610e42565b600e818154811061044a57600080fd5b60009182526020909120600290910201805460019091015490915082565b6012818154811061047857600080fd5b600091825260209091206006909102018054600182015460028301546003840180546001600160a01b0394851696509284169493821693600160a01b90920460ff16926104c490611587565b80601f01602080910402602001604051908101604052809291908181526020018280546104f090611587565b801561053d5780601f106105125761010080835404028352916020019161053d565b820191906000526020600020905b81548152906001019060200180831161052057829003601f168201915b505050506004830154600590930154919260ff1691905087565b336001600160a01b038716146105c55760405162461bcd60e51b815260206004820152602860248201527f52656e746572206164647265737320646f6573206e6f74206d61746368206d73604482015267339739b2b73232b960c11b60648201526084015b60405180910390fd5b6040516358eed61360e01b8152600090819081906358eed613906105fe9030906003908e908e908e908e908e908e908e906004016116bb565b602060405180830381600087803b15801561061857600080fd5b505af115801561062c573d6000803e3d6000fd5b505050506040513d601f19601f8201168201806040525081019061065091906117ee565b600c805460018082019092557fdf6966c971051c3d54ec59162606531493a51404a002842f56009d7e5cf4a8c70180546001600160a01b0319166001600160a01b0384161790556040805180820190915287815260208101878152600e80549384018155600090815291517fbb7b4a454dc3493923482f07822329ed19e8244eff582cc204f8554c3620c3fd600290940293840155517fbb7b4a454dc3493923482f07822329ed19e8244eff582cc204f8554c3620c3fe90920191909155600d805492935060ff90921691906107258361180b565b82546101009290920a60ff818102199093169183160217909155600f805460018181019092557f8d1108e10bcb7c27dddfc02ed9d693a074039d026cf4ea4240b40f7d581ac8020180546001600160a01b0319166001600160a01b038d169081179091556000908152601160205260408120805460ff19169092179091556010805490921692506107b58361180b565b82546101009290920a60ff81810219909316919092169190910217905550600254604080516001600160a01b0384811682523060208301528b8116828401529092166060830152517f47ec9c568066b8352b75c1e8edbbb40eae7e46b13f7541b69f7a51a37f4618919181900360800190a1505050505050505050565b600c818154811061084257600080fd5b6000918252602090912001546001600160a01b0316905081565b6002546001600160a01b031633146108865760405162461bcd60e51b81526004016105bc90611839565b6009805460ff191660ff831690811790915560008054604051637bb7ca8760e11b8152600481019390935290916001600160a01b039091169063f76f950e9060240160006040518083038186803b1580156108e057600080fd5b505afa1580156108f4573d6000803e3d6000fd5b505050506040513d6000823e601f3d908101601f1916820160405261091c9190810190611870565b9050600080516020611ae2833981519152308260405161093d9291906118e7565b60405180910390a15050565b6002546001600160a01b031633146109735760405162461bcd60e51b81526004016105bc90611839565b61097f60078383610f32565b50600080516020611ae283398151915230838360405161093d93929190611964565b60038054600454600580546001600160a01b039384169492909316926109c690611587565b80601f01602080910402602001604051908101604052809291908181526020018280546109f290611587565b8015610a3f5780601f10610a1457610100808354040283529160200191610a3f565b820191906000526020600020905b815481529060010190602001808311610a2257829003601f168201915b505050505090806003018054610a5490611587565b80601f0160208091040260200160405190810160405280929190818152602001828054610a8090611587565b8015610acd5780601f10610aa257610100808354040283529160200191610acd565b820191906000526020600020905b815481529060010190602001808311610ab057829003601f168201915b505050505090806004018054610ae290611587565b80601f0160208091040260200160405190810160405280929190818152602001828054610b0e90611587565b8015610b5b5780601f10610b3057610100808354040283529160200191610b5b565b820191906000526020600020905b815481529060010190602001808311610b3e57829003601f168201915b50505050600583015460069093015491929160ff808216925061010082048116916201000090041689565b6002546001600160a01b03163314610bb05760405162461bcd60e51b81526004016105bc90611839565b610bbc60068383610f32565b50600080516020611ae283398151915230838360405161093d939291906119a8565b6002546001600160a01b03163314610c085760405162461bcd60e51b81526004016105bc90611839565b8051610c1b90600a906020840190610fb6565b50604080518082018252600e81526d6e65774d6564696148617368657360901b60208201529051600080516020611ae28339815191529061093d90309084906119fe565b6002546001600160a01b03163314610c895760405162461bcd60e51b81526004016105bc90611839565b610c9560058383610f32565b50600080516020611ae283398151915230838360405161093d93929190611a45565b600f818154811061084257600080fd5b6002546001600160a01b03163314610cf15760405162461bcd60e51b81526004016105bc90611839565b600881905560008054604051637bb7ca8760e11b8152600481018490526001600160a01b039091169063f76f950e9060240160006040518083038186803b158015610d3b57600080fd5b505afa158015610d4f573d6000803e3d6000fd5b505050506040513d6000823e601f3d908101601f19168201604052610d779190810190611870565b9050600080516020611ae2833981519152308260405161093d929190611a82565b6002546001600160a01b03163314610dc25760405162461bcd60e51b81526004016105bc90611839565b600380546001600160a01b038481166001600160a01b031992831681179093556004805491851691831682179055600180548316841790556002805490921681179091556040805130815260208101939093528201527f391e7445162e95b0462700ab996083fc3e40222a108de81e4fbea5e9ddfdaae19060600161093d565b6002546001600160a01b03163314610e6c5760405162461bcd60e51b81526004016105bc90611839565b60ff8116610e9f576009805462ff0000191662010000179055600b80546000919060ff19166001835b0217905550610ef0565b8060ff1660011415610eca576009805462ff000019169055600b80546001919060ff19168280610e95565b8060ff1660021415610ef0576009805462ff000019169055600b805460ff191660021790555b600b546040517f8c5acf85d257fc548b6710d2ceeffe7d4b9b4dc7ed2866b316815c2ab592b9f691610f2791309160ff1690611ac4565b60405180910390a150565b828054610f3e90611587565b90600052602060002090601f016020900481019282610f605760008555610fa6565b82601f10610f795782800160ff19823516178555610fa6565b82800160010185558215610fa6579182015b82811115610fa6578235825591602001919060010190610f8b565b50610fb292915061100f565b5090565b828054828255906000526020600020908101928215611003579160200282015b828111156110035782518051610ff3918491602090910190611024565b5091602001919060010190610fd6565b50610fb2929150611098565b5b80821115610fb25760008155600101611010565b82805461103090611587565b90600052602060002090601f0160209004810192826110525760008555610fa6565b82601f1061106b57805160ff1916838001178555610fa6565b82800160010185558215610fa6579182015b82811115610fa657825182559160200191906001019061107d565b80821115610fb25760006110ac82826110b5565b50600101611098565b5080546110c190611587565b6000825580601f106110d1575050565b601f0160209004906000526020600020908101906110ef919061100f565b50565b60006020828403121561110457600080fd5b5035919050565b60005b8381101561112657818101518382015260200161110e565b83811115611135576000848401525b50505050565b6000815180845261115381602086016020860161110b565b601f01601f19169290920160200192915050565b634e487b7160e01b600052602160045260246000fd5b6001600160a01b03888116825287811660208301528616604082015260ff8516606082015260e0608082018190526000906111ba9083018661113b565b9050600284106111cc576111cc611167565b60a082019390935260c0015295945050505050565b6001600160a01b03811681146110ef57600080fd5b803560ff8116811461120757600080fd5b919050565b600080600080600080600060e0888a03121561122757600080fd5b8735611232816111e1565b96506020880135611242816111e1565b955060408801359450606088013593506080880135925060a0880135915061126c60c089016111f6565b905092959891949750929550565b60006020828403121561128c57600080fd5b611295826111f6565b9392505050565b600080602083850312156112af57600080fd5b823567ffffffffffffffff808211156112c757600080fd5b818501915085601f8301126112db57600080fd5b8135818111156112ea57600080fd5b8660208285010111156112fc57600080fd5b60209290920196919550909350505050565b6001600160a01b038a81168252891660208201526101206040820181905260009061133b8382018b61113b565b9050828103606084015261134f818a61113b565b90508281036080840152611363818961113b565b60a0840197909752505060ff93841660c08201529190921660e08201529015156101009091015295945050505050565b634e487b7160e01b600052604160045260246000fd5b604051601f8201601f1916810167ffffffffffffffff811182821017156113d2576113d2611393565b604052919050565b600067ffffffffffffffff8211156113f4576113f4611393565b50601f01601f191660200190565b6000602080838503121561141557600080fd5b823567ffffffffffffffff8082111561142d57600080fd5b818501915085601f83011261144157600080fd5b81358181111561145357611453611393565b8060051b6114628582016113a9565b918252838101850191858101908984111561147c57600080fd5b86860192505b838310156114fc5782358581111561149a5760008081fd5b8601603f81018b136114ac5760008081fd5b8781013560406114c36114be836113da565b6113a9565b8281528d828486010111156114d85760008081fd5b828285018c83013760009281018b0192909252508352509186019190860190611482565b9998505050505050505050565b60006020828403121561151b57600080fd5b8135611295816111e1565b6003811061153657611536611167565b9052565b602081016115488284611526565b92915050565b6000806040838503121561156157600080fd5b823561156c816111e1565b9150602083013561157c816111e1565b809150509250929050565b600181811c9082168061159b57607f821691505b602082108114156115bc57634e487b7160e01b600052602260045260246000fd5b50919050565b8054600090600181811c90808316806115dc57607f831692505b60208084108214156115fe57634e487b7160e01b600052602260045260246000fd5b83885260208801828015611619576001811461162a57611655565b60ff19871682528282019750611655565b60008981526020902060005b8781101561164f57815484820152908601908401611636565b83019850505b5050505050505092915050565b600081548084526020808501808196508360051b81019150856000528260002060005b858110156116ae57828403895261169c84836115c2565b98850198935060019182019101611685565b5091979650505050505050565b6001600160a01b038a81168252610120602083018190528a5482169083015260018a015416610140808301919091526101608201526000611703610260830160028c016115c2565b61011f19808483030161018085015261171f8260038e016115c2565b915080848303016101a08501526117398260048e016115c2565b60058d01546101c086015260068d015460ff81166101e0870152909250600881901c60ff16610200860152611779610220860160ff8360101c1615159052565b50838203016102408401526117918160078d01611662565b9150506117a9604083018a6001600160a01b03169052565b6001600160a01b03881660608301528660808301528560a08301528460c08301528360e08301526117e061010083018460ff169052565b9a9950505050505050505050565b60006020828403121561180057600080fd5b8151611295816111e1565b600060ff821660ff81141561183057634e487b7160e01b600052601160045260246000fd5b60010192915050565b6020808252601d908201527f4d6574686f64206973207265737472696374656420746f204f776e6572000000604082015260600190565b60006020828403121561188257600080fd5b815167ffffffffffffffff81111561189957600080fd5b8201601f810184136118aa57600080fd5b80516118b86114be826113da565b8181528560208385010111156118cd57600080fd5b6118de82602083016020860161110b565b95945050505050565b60018060a01b03831681526060602082015260146060820152736d6178416c6c6f7761626c654c6174654461797360601b608082015260a06040820152600061193360a083018461113b565b949350505050565b81835281816020850137506000828201602090810191909152601f909101601f19169091010190565b60018060a01b038416815260606020820152600b60608201526a3232b9b1b934b83a34b7b760a91b608082015260a0604082015260006118de60a08301848661193b565b60018060a01b038416815260606020820152601860608201527f636f6c6c656374696f6e2f72657475726e416464726573730000000000000000608082015260a0604082015260006118de60a08301848661193b565b60018060a01b038316815260606020820152600f60608201526e6d656469614950465348617368657360881b608082015260a06040820152600061193360a083018461113b565b60018060a01b03841681526060602082015260046060820152636e616d6560e01b608082015260a0604082015260006118de60a08301848661193b565b60018060a01b038316815260606020820152600a60608201526972656e7450657244617960b01b608082015260a06040820152600061193360a083018461113b565b6001600160a01b038316815260408101611295602083018461152656fe1fb119ae646ad419061c26b2c9f00687535e680f4cabbaa1a12df632a4668054a26469706673582212208c5c793228374b746791d17fc3ceb670c825ff5e8120f2cd333dabf37a39165f64736f6c63430008090033a26469706673582212209cc0509f65a4c6907e7ba5376732f308864dd47cd5533bbbec2dbd10f0785dc164736f6c63430008090033",
  "immutableReferences": {},
  "source": "// SPDX-License-Identifier: GPL-3.0\n\npragma solidity >=0.7.0 <0.9.0;\n\nimport \"../helpers/Structs.sol\";\nimport \"../Item.sol\";\n\ncontract ItemContractCreator {\n    function createItemContract(Structs.ItemDetails calldata _itemDetails)\n        public\n        returns (Item)\n    {\n        return new Item(_itemDetails);\n    }\n}\n",
  "sourcePath": "/Users/jyuteo/CodeProjects/TRent/src/contracts/factory/ItemContractCreator.sol",
  "compiler": {
    "name": "solc",
    "version": "0.8.9+commit.e5eed63a.Emscripten.clang"
  },
  "schemaVersion": "3.4.3",
  "updatedAt": "2021-10-03T12:56:10.585Z",
  "networkType": "ethereum",
  "devdoc": {
    "kind": "dev",
    "methods": {},
    "version": 1
  },
  "userdoc": {
    "kind": "user",
    "methods": {},
    "version": 1
  }
}