{
  "contractName": "RentalContractCreator",
  "abi": [
    {
      "inputs": [
        {
          "internalType": "address",
          "name": "_itemContract",
          "type": "address"
        },
        {
          "components": [
            {
              "internalType": "address",
              "name": "ownerUserContract",
              "type": "address"
            },
            {
              "internalType": "address payable",
              "name": "ownerAddress",
              "type": "address"
            },
            {
              "internalType": "string",
              "name": "name",
              "type": "string"
            },
            {
              "internalType": "string",
              "name": "collectionOrReturnAddress",
              "type": "string"
            },
            {
              "internalType": "string",
              "name": "description",
              "type": "string"
            },
            {
              "internalType": "uint256",
              "name": "rentPerDay",
              "type": "uint256"
            },
            {
              "internalType": "uint8",
              "name": "maxAllowableLateDays",
              "type": "uint8"
            },
            {
              "internalType": "uint8",
              "name": "multipleForLateFees",
              "type": "uint8"
            },
            {
              "internalType": "bool",
              "name": "isAvailableForRent",
              "type": "bool"
            },
            {
              "internalType": "string[]",
              "name": "mediaIPFSHashes",
              "type": "string[]"
            }
          ],
          "internalType": "struct Structs.ItemDetails",
          "name": "_itemDetails",
          "type": "tuple"
        },
        {
          "internalType": "address",
          "name": "_renterUserContract",
          "type": "address"
        },
        {
          "internalType": "address payable",
          "name": "_renterAddress",
          "type": "address"
        },
        {
          "internalType": "uint256",
          "name": "_rentalFees",
          "type": "uint256"
        },
        {
          "internalType": "uint256",
          "name": "_renterDeposit",
          "type": "uint256"
        },
        {
          "internalType": "uint256",
          "name": "_start",
          "type": "uint256"
        },
        {
          "internalType": "uint256",
          "name": "_end",
          "type": "uint256"
        },
        {
          "internalType": "uint8",
          "name": "_numInstallment",
          "type": "uint8"
        }
      ],
      "name": "createRentalContract",
      "outputs": [
        {
          "internalType": "contract Rental",
          "name": "",
          "type": "address"
        }
      ],
      "stateMutability": "nonpayable",
      "type": "function"
    }
  ],
  "bytecode": "0x608060405234801561001057600080fd5b50614c76806100206000396000f3fe60806040523480156200001157600080fd5b50600436106200002e5760003560e01c806358eed6131462000033575b600080fd5b6200004a62000044366004620002b4565b62000066565b6040516001600160a01b03909116815260200160405180910390f35b60008989898989898989896040516200007f90620000bf565b62000093999897969594939291906200052b565b604051809103906000f080158015620000b0573d6000803e3d6000fd5b509a9950505050505050505050565b6145bb806200068683390190565b6001600160a01b0381168114620000e357600080fd5b50565b8035620000f381620000cd565b919050565b634e487b7160e01b600052604160045260246000fd5b604051610140810167ffffffffffffffff81118282101715620001355762000135620000f8565b60405290565b604051601f8201601f1916810167ffffffffffffffff81118282101715620001675762000167620000f8565b604052919050565b600082601f8301126200018157600080fd5b813567ffffffffffffffff8111156200019e576200019e620000f8565b620001b3601f8201601f19166020016200013b565b818152846020838601011115620001c957600080fd5b816020850160208301376000918101602001919091529392505050565b803560ff81168114620000f357600080fd5b80358015158114620000f357600080fd5b600082601f8301126200021b57600080fd5b8135602067ffffffffffffffff808311156200023b576200023b620000f8565b8260051b6200024c8382016200013b565b93845285810183019383810190888611156200026757600080fd5b84880192505b85831015620002a857823584811115620002875760008081fd5b620002978a87838c01016200016f565b83525091840191908401906200026d565b98975050505050505050565b60008060008060008060008060006101208a8c031215620002d457600080fd5b620002e08a35620000cd565b8935985060208a013567ffffffffffffffff808211156200030057600080fd5b908b0190610140828e0312156200031657600080fd5b620003206200010e565b6200032b83620000e6565b81526200033b60208401620000e6565b60208201526040830135828111156200035357600080fd5b620003618f8286016200016f565b6040830152506060830135828111156200037a57600080fd5b620003888f8286016200016f565b606083015250608083013582811115620003a157600080fd5b620003af8f8286016200016f565b60808301525060a083013560a0820152620003cd60c08401620001e6565b60c0820152620003e060e08401620001e6565b60e0820152620003f46101008401620001f8565b610100820152610120830135828111156200040e57600080fd5b6200041c8f82860162000209565b6101208301525099506200043691505060408b01620000e6565b96506200044660608b01620000e6565b955060808a0135945060a08a0135935060c08a0135925060e08a01359150620004736101008b01620001e6565b90509295985092959850929598565b6000815180845260005b81811015620004aa576020818501810151868301820152016200048c565b81811115620004bd576000602083870101525b50601f01601f19169290920160200192915050565b600081518084526020808501808196508360051b8101915082860160005b858110156200051e5782840389526200050b84835162000482565b98850198935090840190600101620004f0565b5091979650505050505050565b6001600160a01b038a81168252610120602083018190528a519091168282015260009060208b01516101406200056b818601836001600160a01b03169052565b60408d0151915080610160860152506200058a61026085018262000482565b905060608c015161011f198086840301610180870152620005ac838362000482565b925060808e0151915080868403016101a0870152620005cc838362000482565b925060a08e01516101c087015260c08e01519150620005f16101e087018360ff169052565b60e08e015160ff16610200870152610100808f01511515610220880152938e01518684039091016102408701529290506200062d8284620004d2565b6001600160a01b038d16604087015293506001600160a01b038b1660608601528960808601528860a08601528760c08601528660e0860152620006748186018760ff169052565b5050509a995050505050505050505056fe6080604052604051620000129062000281565b604051809103906000f0801580156200002f573d6000803e3d6000fd5b50600080546001600160a01b0319166001600160a01b03929092169190911790556012805461ff001916610300179055604051620045bb38819003908190833981016040819052620000819162000491565b600054604051638dfd0b0360e01b8152600481018690526001600160a01b0390911690638dfd0b039060240160206040518083038186803b158015620000c657600080fd5b505afa158015620000db573d6000803e3d6000fd5b505050506040513d601f19601f820116820180604052508101906200010191906200065e565b34146200016a5760405162461bcd60e51b815260206004820152602d60248201527f56616c7565207472616e736665726564206973206c657373207468616e20726560448201526c1c5d5a5c995908185b5bdd5b9d609a1b606482015260840160405180910390fd5b600180546001600160a01b03808c166001600160a01b03199092169190911790915560a089015160025560c08901516003805460e08c015160ff9081166101000261ffff199092169316929092179190911780825560208b0151600e8054919094166201000090810262010000600160b01b03199092169190911790935560009262ff00001990911690830217905550600480546001600160a01b039889166001600160a01b031990911617905560038054969097166301000000026301000000600160b81b0319909616959095179095556005919091556006556007929092556009829055600e805460ff909216610100810261ffff1990931617919091179055600b5550506000600a819055600d5562000678565b6107268062003e9583390190565b6001600160a01b0381168114620002a557600080fd5b50565b8051620002b5816200028f565b919050565b634e487b7160e01b600052604160045260246000fd5b60405161014081016001600160401b0381118282101715620002f657620002f6620002ba565b60405290565b604051601f8201601f191681016001600160401b0381118282101715620003275762000327620002ba565b604052919050565b600082601f8301126200034157600080fd5b81516001600160401b038111156200035d576200035d620002ba565b602062000373601f8301601f19168201620002fc565b82815285828487010111156200038857600080fd5b60005b83811015620003a85785810183015182820184015282016200038b565b83811115620003ba5760008385840101525b5095945050505050565b805160ff81168114620002b557600080fd5b80518015158114620002b557600080fd5b600082601f830112620003f957600080fd5b815160206001600160401b0380831115620004185762000418620002ba565b8260051b62000429838201620002fc565b93845285810183019383810190888611156200044457600080fd5b84880192505b858310156200048557825184811115620004645760008081fd5b620004748a87838c01016200032f565b83525091840191908401906200044a565b98975050505050505050565b60008060008060008060008060006101208a8c031215620004b157600080fd5b8951620004be816200028f565b60208b01519099506001600160401b0380821115620004dc57600080fd5b908b0190610140828e031215620004f257600080fd5b620004fc620002d0565b6200050783620002a8565b81526200051760208401620002a8565b60208201526040830151828111156200052f57600080fd5b6200053d8f8286016200032f565b6040830152506060830151828111156200055657600080fd5b620005648f8286016200032f565b6060830152506080830151828111156200057d57600080fd5b6200058b8f8286016200032f565b60808301525060a083015160a0820152620005a960c08401620003c4565b60c0820152620005bc60e08401620003c4565b60e0820152620005d06101008401620003d6565b61010082015261012083015182811115620005ea57600080fd5b620005f88f828601620003e7565b6101208301525099506200061291505060408b01620002a8565b96506200062260608b01620002a8565b955060808a0151945060a08a0151935060c08a0151925060e08a015191506200064f6101008b01620003c4565b90509295985092959850929598565b6000602082840312156200067157600080fd5b5051919050565b61380d80620006886000396000f3fe60806040526004361061021a5760003560e01c80638f84aa0911610123578063baa75f39116100ab578063e11093051161006f578063e1109305146105d7578063efbe1c1c146105ed578063f030486014610603578063fe55029d14610619578063ff3522cf1461062f57600080fd5b8063baa75f3914610572578063be9a655514610585578063c7abd0921461059b578063cbfbb5a3146105b0578063d46c9fc7146105b857600080fd5b8063a28889e1116100f2578063a28889e1146104f0578063a2d1d11c1461050a578063a49f74b514610520578063a6bc220114610533578063a8237b871461055257600080fd5b80638f84aa091461046d57806395afe398146104935780639c29a3ed146104a95780639e6aadc3146104c957600080fd5b80635bf31d4d116101a65780637b1aa45f116101755780637b1aa45f146103e357806385411c8e146103f9578063881f227c1461040c5780638b3a16a21461041f5780638d76f9401461043557600080fd5b80635bf31d4d14610350578063676b9683146103815780636b84c4921461039b57806378cbf3f8146103ae57600080fd5b806331d019b7116101ed57806331d019b7146102b75780633d99b56a146102e45780633fe8351a146103045780634f4687ea14610317578063559ec80d1461033b57600080fd5b8063034cc2a01461021f57806307e353e9146102415780630f5bd7a2146102775780631334c10114610297575b600080fd5b34801561022b57600080fd5b5061023f61023a366004612fdd565b610649565b005b34801561024d57600080fd5b5061026161025c366004613007565b610795565b60405161026e919061306d565b60405180910390f35b34801561028357600080fd5b5061023f610292366004612fdd565b610841565b3480156102a357600080fd5b5061023f6102b2366004613080565b61097a565b3480156102c357600080fd5b506003546102d79062010000900460ff1681565b60405161026e91906130d3565b3480156102f057600080fd5b506102616102ff366004613007565b610a64565b61023f610312366004613007565b610a74565b34801561032357600080fd5b5061032d60095481565b60405190815260200161026e565b34801561034757600080fd5b5061023f610d50565b34801561035c57600080fd5b5060125461036f90610100900460ff1681565b60405160ff909116815260200161026e565b34801561038d57600080fd5b50600e5461036f9060ff1681565b61023f6103a9366004613237565b61159e565b3480156103ba57600080fd5b506103ce6103c9366004612fdd565b611887565b60405161026e999897969594939291906132ea565b3480156103ef57600080fd5b5061032d600f5481565b61023f610407366004613366565b6119ef565b61023f61041a366004612fdd565b611bfe565b34801561042b57600080fd5b5061032d600d5481565b34801561044157600080fd5b50600154610455906001600160a01b031681565b6040516001600160a01b03909116815260200161026e565b34801561047957600080fd5b50600e54610455906201000090046001600160a01b031681565b34801561049f57600080fd5b5061032d60055481565b3480156104b557600080fd5b5061023f6104c43660046133ab565b612304565b3480156104d557600080fd5b5060035461045590630100000090046001600160a01b031681565b3480156104fc57600080fd5b5060125461036f9060ff1681565b34801561051657600080fd5b5061032d600a5481565b61023f61052e366004613237565b612419565b34801561053f57600080fd5b5060035461036f90610100900460ff1681565b34801561055e57600080fd5b50600454610455906001600160a01b031681565b61023f610580366004613007565b6126fb565b34801561059157600080fd5b5061032d60065481565b3480156105a757600080fd5b5061023f612901565b61023f612c3b565b3480156105c457600080fd5b50600e5461036f90610100900460ff1681565b3480156105e357600080fd5b5061032d60025481565b3480156105f957600080fd5b5061032d60075481565b34801561060f57600080fd5b5061032d600c5481565b34801561062557600080fd5b5061032d600b5481565b34801561063b57600080fd5b5060035461036f9060ff1681565b60ff81166000908152601160205260409020600e546201000090046001600160a01b03163314156106955760405162461bcd60e51b815260040161068c906133e8565b60405180910390fd5b600354630100000090046001600160a01b03163314156106c75760405162461bcd60e51b815260040161068c90613432565b33600090815260088201602052604090205460ff16156106f95760405162461bcd60e51b815260040161068c9061347d565b336000908152600b8201602052604090205460ff161561072b5760405162461bcd60e51b815260040161068c9061347d565b60ff821660009081526011602090815260408083206009810180548552600a8201845282852080546001600160a01b031916339081179091558552600b8201909352908320805460ff191660011790558154909290919061078b836134da565b9190505550505050565b600881815481106107a557600080fd5b9060005260206000200160009150905080546107c0906134f5565b80601f01602080910402602001604051908101604052809291908181526020018280546107ec906134f5565b80156108395780601f1061080e57610100808354040283529160200191610839565b820191906000526020600020905b81548152906001019060200180831161081c57829003601f168201915b505050505081565b60ff81166000908152601160205260409020600e546201000090046001600160a01b03163314156108845760405162461bcd60e51b815260040161068c906133e8565b600354630100000090046001600160a01b03163314156108b65760405162461bcd60e51b815260040161068c90613432565b33600090815260088201602052604090205460ff16156108e85760405162461bcd60e51b815260040161068c9061347d565b336000908152600b8201602052604090205460ff161561091a5760405162461bcd60e51b815260040161068c9061347d565b60ff82166000908152601160209081526040808320600681018054855260078201845282852080546001600160a01b03191633908117909155855260088201909352908320805460ff191660011790558154909290919061078b836134da565b6003546001600160a01b0382811663010000009092041614806109b05750600e546001600160a01b038281166201000090920416145b610a085760405162461bcd60e51b815260206004820152602360248201527f496e76616c6964207573657220746f2062652073657420617320646973686f6e604482015262195cdd60ea1b606482015260840161068c565b6000819050806001600160a01b031663922b57fa6040518163ffffffff1660e01b8152600401600060405180830381600087803b158015610a4857600080fd5b505af1158015610a5c573d6000803e3d6000fd5b505050505050565b601081815481106107a557600080fd5b600354630100000090046001600160a01b03163314610aa55760405162461bcd60e51b815260040161068c90613530565b6007544211610b0d5760405162461bcd60e51b815260206004820152602e60248201527f556e61626c6520746f20706179206c6174652066656573206265666f7265207260448201526d656e74616c20656e64206461746560901b606482015260840161068c565b60035460005460075460405163252c50a560e11b8152600481019190915242602482015260ff909216916001600160a01b0390911690634a58a14a9060440160206040518083038186803b158015610b6457600080fd5b505afa158015610b78573d6000803e3d6000fd5b505050506040513d601f19601f82011682018060405250810190610b9c9190613567565b1115610c105760405162461bcd60e51b815260206004820152603e60248201527f556e61626c6520746f20706179206c6174652066656573206c6174657220746860448201527f616e206d6178696d756d20616c6c6f7761626c65206c61746520646179730000606482015260840161068c565b600054604051638dfd0b0360e01b8152600481018390526001600160a01b0390911690638dfd0b039060240160206040518083038186803b158015610c5457600080fd5b505afa158015610c68573d6000803e3d6000fd5b505050506040513d601f19601f82011682018060405250810190610c8c9190613567565b3414610cf35760405162461bcd60e51b815260206004820152603060248201527f56616c7565207472616e736665726564206973206e6f7420657571616c20746f60448201526f081c995c5d5a5c995908185b5bdd5b9d60821b606482015260840161068c565b600154600454604080516001600160a01b0393841681523060208201529290911690820152606081018290527fc7e341db620c84a8460b51bfba67b47879276b655ea7960928e38c956cd85344906080015b60405180910390a150565b600e546201000090046001600160a01b03163314610d805760405162461bcd60e51b815260040161068c90613580565b600260035462010000900460ff166005811115610d9f57610d9f6130a9565b1480610dc75750600460035462010000900460ff166005811115610dc557610dc56130a9565b145b80610dee5750600560035462010000900460ff166005811115610dec57610dec6130a9565b145b610e435760405162461bcd60e51b815260206004820152603260248201526000805160206137b883398151915260448201527172656e742072656e74616c2073746174757360701b606482015260840161068c565b6000600f541180610e5657506000600554115b610ea25760405162461bcd60e51b815260206004820152601d60248201527f4e6f2072656d61696e696e67206465706f73697420746f20636c61696d000000604482015260640161068c565b600260035462010000900460ff166005811115610ec157610ec16130a9565b148015610ece5750600b54155b80610ef55750600460035462010000900460ff166005811115610ef357610ef36130a9565b145b80610f1c5750600560035462010000900460ff166005811115610f1a57610f1a6130a9565b145b610f815760405162461bcd60e51b815260206004820152603060248201527f52656e74616c206665657320686173206e6f74206265656e2066756c6c79207360448201526f32ba3a3632b210313c903932b73a32b960811b606482015260840161068c565b600954600a54148015610fb05750600260035462010000900460ff166005811115610fae57610fae6130a9565b145b80610fd75750600460035462010000900460ff166005811115610fd557610fd56130a9565b145b80610ffe5750600560035462010000900460ff166005811115610ffc57610ffc6130a9565b145b61100757600080fd5b600954600d541480156110365750600260035462010000900460ff166005811115611034576110346130a9565b145b8061105d5750600460035462010000900460ff16600581111561105b5761105b6130a9565b145b806110845750600560035462010000900460ff166005811115611082576110826130a9565b145b6110e85760405162461bcd60e51b815260206004820152602f60248201527f52656e74616c206665657320686173206e6f74206265656e2066756c6c79206360448201526e3630b4b6b2b210313c9037bbb732b960891b606482015260840161068c565b600460035462010000900460ff166005811115611107576111076130a9565b141561128e57600e54600054600f54604051638dfd0b0360e01b81526001600160a01b03620100009094048416936108fc931691638dfd0b0391611152919060040190815260200190565b60206040518083038186803b15801561116a57600080fd5b505afa15801561117e573d6000803e3d6000fd5b505050506040513d601f19601f820116820180604052508101906111a29190613567565b6040518115909202916000818181858888f193505050501580156111ca573d6000803e3d6000fd5b50600e54600054600554604051638dfd0b0360e01b81526001600160a01b03620100009094048416936108fc931691638dfd0b0391611210919060040190815260200190565b60206040518083038186803b15801561122857600080fd5b505afa15801561123c573d6000803e3d6000fd5b505050506040513d601f19601f820116820180604052508101906112609190613567565b6040518115909202916000818181858888f19350505050158015611288573d6000803e3d6000fd5b50611536565b600560035462010000900460ff1660058111156112ad576112ad6130a9565b14156113b857600354600054600f54604051638dfd0b0360e01b81526001600160a01b0363010000009094048416936108fc931691638dfd0b03916112f9919060040190815260200190565b60206040518083038186803b15801561131157600080fd5b505afa158015611325573d6000803e3d6000fd5b505050506040513d601f19601f820116820180604052508101906113499190613567565b6040518115909202916000818181858888f19350505050158015611371573d6000803e3d6000fd5b50600354600054600554604051638dfd0b0360e01b81526001600160a01b0363010000009094048416936108fc931691638dfd0b0391611210919060040190815260200190565b600e54600054600f54604051638dfd0b0360e01b81526001600160a01b03620100009094048416936108fc931691638dfd0b03916113fd919060040190815260200190565b60206040518083038186803b15801561141557600080fd5b505afa158015611429573d6000803e3d6000fd5b505050506040513d601f19601f8201168201806040525081019061144d9190613567565b6040518115909202916000818181858888f19350505050158015611475573d6000803e3d6000fd5b50600354600054600554604051638dfd0b0360e01b81526001600160a01b0363010000009094048416936108fc931691638dfd0b03916114bc919060040190815260200190565b60206040518083038186803b1580156114d457600080fd5b505afa1580156114e8573d6000803e3d6000fd5b505050506040513d601f19601f8201168201806040525081019061150c9190613567565b6040518115909202916000818181858888f19350505050158015611534573d6000803e3d6000fd5b505b4715611544576115446135b7565b600380546203000062ff000019909116179055600154604080516001600160a01b0390921682523060208301527f6a5d55ef84f2d6da57cc86de121fc1c7a8392770ff8f357998e87beb5c310491910160405180910390a1565b600354630100000090046001600160a01b031633146115cf5760405162461bcd60e51b815260040161068c90613530565b600054604051638dfd0b0360e01b8152600481018490526001600160a01b0390911690638dfd0b039060240160206040518083038186803b15801561161357600080fd5b505afa158015611627573d6000803e3d6000fd5b505050506040513d601f19601f8201168201806040525081019061164b9190613567565b34146116695760405162461bcd60e51b815260040161068c906135cd565b600160035462010000900460ff166005811115611688576116886130a9565b146116a55760405162461bcd60e51b815260040161068c9061361a565b600f5483106117285760405162461bcd60e51b815260206004820152604360248201527f436f6d70656e736174696f6e207265717565737465642062792072656e74657260448201527f206d757374206265206c6f776572207468616e206f776e65722773206465706f6064820152621cda5d60ea1b608482015260a40161068c565b600081600281111561173c5761173c6130a9565b146117805760405162461bcd60e51b8152602060048201526014602482015273496e76616c69642064697370757465207479706560601b604482015260640161068c565b6003805462ff000019166205000017905560125460ff166000908152601160209081526040909120875190916117ba9183918a0190612e91565b5085516117d09060018301906020890190612e91565b5084516117e69060028301906020880190612f15565b5060038101849055600481018390554260058201556000600682018190556009820155600c81018054336001600160a01b03198216811783558492916001600160a81b03191660ff60a01b1990911617600160a01b83600281111561184d5761184d6130a9565b02179055506012805460ff169060006118658361366d565b91906101000a81548160ff021916908360ff1602179055505050505050505050565b6011602052600090815260409020805481906118a2906134f5565b80601f01602080910402602001604051908101604052809291908181526020018280546118ce906134f5565b801561191b5780601f106118f05761010080835404028352916020019161191b565b820191906000526020600020905b8154815290600101906020018083116118fe57829003601f168201915b505050505090806001018054611930906134f5565b80601f016020809104026020016040519081016040528092919081815260200182805461195c906134f5565b80156119a95780601f1061197e576101008083540402835291602001916119a9565b820191906000526020600020905b81548152906001019060200180831161198c57829003601f168201915b5050505060038301546004840154600585015460068601546009870154600c9097015495969395929450909290916001600160a01b03811690600160a01b900460ff1689565b600e546201000090046001600160a01b03163314611a1f5760405162461bcd60e51b815260040161068c90613580565b600054604051638dfd0b0360e01b8152600481018390526001600160a01b0390911690638dfd0b039060240160206040518083038186803b158015611a6357600080fd5b505afa158015611a77573d6000803e3d6000fd5b505050506040513d601f19601f82011682018060405250810190611a9b9190613567565b3414611aff5760405162461bcd60e51b815260206004820152602d60248201527f56616c7565207472616e736665726564206973206c657373207468616e20726560448201526c1c5d5a5c995908185b5bdd5b9d609a1b606482015260840161068c565b600060035462010000900460ff166005811115611b1e57611b1e6130a9565b14611b6b5760405162461bcd60e51b815260206004820181905260248201527f496e76616c69642072656e74616c2073746174757320666f72206d6574686f64604482015260640161068c565b600f8190558151611b83906010906020850190612f15565b506003805462ff000019166201000090811791829055600154600e54600f546040517f638a6fc620f125e2c5fd9c4a087a87f135f8c70a914ad7251ba015a126a6b7c295611bf2956001600160a01b039586169563010000008304811695829004169392910460ff169061368d565b60405180910390a15050565b60ff81166000908152601160205260409020600c8101546001600160a01b03163314611c7d5760405162461bcd60e51b815260206004820152602860248201527f4f6e6c79206469737075746520637265617465722063616e207265736f6c7665604482015267206469737075746560c01b606482015260840161068c565b600460035462010000900460ff166005811115611c9c57611c9c6130a9565b1480611cc45750600560035462010000900460ff166005811115611cc257611cc26130a9565b145b611d2d5760405162461bcd60e51b815260206004820152603460248201527f556e61626c6520746f207265736f6c7665206469737075746520776974682063604482015273757272656e742072656e74616c2073746174757360601b606482015260840161068c565b60ff80831660009081526011602052604090206012549091611d569161010090041660186136cb565b611d6190603c6136cb565b611d6c90603c6136cb565b60ff168160050154611d7e91906136f4565b421015611d8a57600080fd5b600481015460098201546006830154600091600a91611da991906136f4565b611db3919061370c565b611dbe90600661372e565b836006015411156120715760005b8360060154811015611ecf576000611de384612e73565b60008381526007870160205260408082205491549051638dfd0b0360e01b8152600481018490529293506001600160a01b03918216926108fc9290911690638dfd0b039060240160206040518083038186803b158015611e4257600080fd5b505afa158015611e56573d6000803e3d6000fd5b505050506040513d601f19601f82011682018060405250810190611e7a9190613567565b6040518115909202916000818181858888f19350505050158015611ea2573d6000803e3d6000fd5b50611ead81846136f4565b9250611eb9818561374d565b9350508080611ec7906134da565b915050611dcc565b50600c8301546000546003850154604051638dfd0b0360e01b815260048101919091526001600160a01b03928316926108fc921690638dfd0b039060240160206040518083038186803b158015611f2557600080fd5b505afa158015611f39573d6000803e3d6000fd5b505050506040513d601f19601f82011682018060405250810190611f5d9190613567565b6040518115909202916000818181858888f19350505050158015611f85573d6000803e3d6000fd5b50600354600c8401546001600160a01b039081166301000000909204161415611fc2578260030154600f54611fba919061374d565b600f55611fd8565b8260030154600554611fd4919061374d565b6005555b6000600c840154600160a01b900460ff166002811115611ffa57611ffa6130a9565b141561202057600e5461201b906201000090046001600160a01b031661097a565b612064565b6001600c840154600160a01b900460ff166002811115612042576120426130a9565b14156120645760035461206490630100000090046001600160a01b031661097a565b61206c610d50565b612179565b60005b836009015481101561217757600061208b84612e73565b6000838152600a870160205260408082205491549051638dfd0b0360e01b8152600481018490529293506001600160a01b03918216926108fc9290911690638dfd0b039060240160206040518083038186803b1580156120ea57600080fd5b505afa1580156120fe573d6000803e3d6000fd5b505050506040513d601f19601f820116820180604052508101906121229190613567565b6040518115909202916000818181858888f1935050505015801561214a573d6000803e3d6000fd5b5061215581846136f4565b9250612161818561374d565b935050808061216f906134da565b915050612074565b505b808360040154612189919061374d565b8214612197576121976135b7565b600c830154600054604051638dfd0b0360e01b8152600481018590526001600160a01b03928316926108fc921690638dfd0b039060240160206040518083038186803b1580156121e657600080fd5b505afa1580156121fa573d6000803e3d6000fd5b505050506040513d601f19601f8201168201806040525081019061221e9190613567565b6040518115909202916000818181858888f19350505050158015612246573d6000803e3d6000fd5b506000600c840154600160a01b900460ff166002811115612269576122696130a9565b141561228d57600380546001919062ff0000191662010000835b02179055506122fd565b6001600c840154600160a01b900460ff1660028111156122af576122af6130a9565b14156122cd57600380546002919062ff000019166201000083612283565b6002600c840154600160a01b900460ff1660028111156122ef576122ef6130a9565b14156122fd576122fd610d50565b5050505050565b600354630100000090046001600160a01b031633146123355760405162461bcd60e51b815260040161068c90613530565b600b54156123975760405162461bcd60e51b815260206004820152602960248201527f416c6c2066656573206861766520746f2062652070616964206265666f72652060448201526872657475726e696e6760b81b606482015260840161068c565b80516123aa906008906020840190612f15565b506003805462ff00001916620200001790819055600154600e546040517f6c3b74d4fe02e9013f2662b52aee484a1cfa6dfbe0616f21ef00227ba5c91ad293610d45936001600160a01b0390811693630100000083048216936201000091829004909216920460ff1690613764565b600e546201000090046001600160a01b031633146124495760405162461bcd60e51b815260040161068c90613580565b600054604051638dfd0b0360e01b8152600481018490526001600160a01b0390911690638dfd0b039060240160206040518083038186803b15801561248d57600080fd5b505afa1580156124a1573d6000803e3d6000fd5b505050506040513d601f19601f820116820180604052508101906124c59190613567565b34146124e35760405162461bcd60e51b815260040161068c906135cd565b600260035462010000900460ff166005811115612502576125026130a9565b1461251f5760405162461bcd60e51b815260040161068c9061361a565b60055483106125a25760405162461bcd60e51b815260206004820152604360248201527f436f6d70656e736174696f6e20726571756573746564206279206f776e65722060448201527f6d757374206265206c6f776572207468616e2072656e7465722773206465706f6064820152621cda5d60ea1b608482015260a40161068c565b60018160028111156125b6576125b66130a9565b14806125d3575060028160028111156125d1576125d16130a9565b145b6126175760405162461bcd60e51b8152602060048201526015602482015274496e76616c6964206469737470757465207479706560581b604482015260640161068c565b6003805462ff000019166204000017905560125460ff166000908152601160209081526040909120875190916126519183918a0190612e91565b5085516126679060018301906020890190612e91565b50845161267d9060028301906020880190612f15565b5060038101849055600481018390554260058201556000600682018190556009820155600c810180546001600160a01b031916331790558160028111156126c6576126c66130a9565b600c820154600160a01b900460ff1660028111156126e6576126e66130a9565b50506012805460ff169060006118658361366d565b600354630100000090046001600160a01b0316331461272c5760405162461bcd60e51b815260040161068c90613530565b600e54819060ff61010090910416600114156127cb57600b54600054604051638dfd0b0360e01b8152600481018490526001600160a01b0390911690638dfd0b039060240160206040518083038186803b15801561278957600080fd5b505afa15801561279d573d6000803e3d6000fd5b505050506040513d601f19601f820116820180604052508101906127c19190613567565b146127cb57600080fd5b600054604051638dfd0b0360e01b8152600481018490526001600160a01b0390911690638dfd0b039060240160206040518083038186803b15801561280f57600080fd5b505afa158015612823573d6000803e3d6000fd5b505050506040513d601f19601f820116820180604052508101906128479190613567565b34146128655760405162461bcd60e51b815260040161068c906135cd565b81600a600082825461287791906136f4565b9250508190555081600b6000828254612890919061374d565b9091555050600e8054610100900460ff169060016128ad8361379a565b91906101000a81548160ff021916908360ff16021790555050600b54600a546128d691906136f4565b600954146128e6576128e66135b7565b81600c60008282546128f891906136f4565b90915550505050565b600e546201000090046001600160a01b031633146129315760405162461bcd60e51b815260040161068c90613580565b6000600c541161298d5760405162461bcd60e51b815260206004820152602160248201527f5468657265206973206e6f20636c61696d61626c652072656e74616c206665656044820152607360f81b606482015260840161068c565b600460035462010000900460ff1660058111156129ac576129ac6130a9565b1415612a2c5760405162461bcd60e51b815260206004820152605560248201526000805160206137b883398151915260448201527f72656e742072656e74616c207374617475732c2072656e74616c20737461747560648201527473206973204f4e204f574e4552204449535055544560581b608482015260a40161068c565b600560035462010000900460ff166005811115612a4b57612a4b6130a9565b1415612acc5760405162461bcd60e51b815260206004820152605660248201526000805160206137b883398151915260448201527f72656e742072656e74616c207374617475732c2072656e74616c20737461747560648201527573206973204f4e2052454e544552204449535055544560501b608482015260a40161068c565b6003805462010000900460ff166005811115612aea57612aea6130a9565b1415612b5d5760405162461bcd60e51b815260206004820152604860248201526000805160206137b883398151915260448201527f72656e742072656e74616c207374617475732c2072656e74616c2073746174756064820152671cc81a5cc811539160c21b608482015260a40161068c565b600e54600054600c54604051638dfd0b0360e01b81526001600160a01b03620100009094048416936108fc931691638dfd0b0391612ba2919060040190815260200190565b60206040518083038186803b158015612bba57600080fd5b505afa158015612bce573d6000803e3d6000fd5b505050506040513d601f19601f82011682018060405250810190612bf29190613567565b6040518115909202916000818181858888f19350505050158015612c1a573d6000803e3d6000fd5b50600c54600d6000828254612c2f91906136f4565b90915550506000600c55565b600e546201000090046001600160a01b03163314612c6b5760405162461bcd60e51b815260040161068c90613580565b600354612c7c9060ff1660186136cb565b612c8790603c6136cb565b612c9290603c6136cb565b60ff16600754612ca291906136f4565b4211612d165760405162461bcd60e51b815260206004820152603a60248201527f556e61626c6520746f20736574746c652072656e74616c206265666f7265206d60448201527f6178696d756d20616c6c6f7761626c65206c6174652064617973000000000000606482015260840161068c565b600160035462010000900460ff166005811115612d3557612d356130a9565b14612d9d5760405162461bcd60e51b815260206004820152603260248201527f556e61626c6520746f20736574746c652072656e74616c20776974682063757260448201527172656e742072656e74616c2073746174757360701b606482015260840161068c565b6001546040516001620b258d60e21b03198152600260048201526001600160a01b0390911690819063ffd369cc90602401600060405180830381600087803b158015612de857600080fd5b505af1158015612dfc573d6000803e3d6000fd5b5050600e546040516001600160a01b03620100009092049190911692504780156108fc029250906000818181858888f19350505050158015612e42573d6000803e3d6000fd5b50600354612e5f90630100000090046001600160a01b031661097a565b506003805462ff0000191662030000179055565b6000612e8060648361370c565b612e8b90600561372e565b92915050565b828054612e9d906134f5565b90600052602060002090601f016020900481019282612ebf5760008555612f05565b82601f10612ed857805160ff1916838001178555612f05565b82800160010185558215612f05579182015b82811115612f05578251825591602001919060010190612eea565b50612f11929150612f6e565b5090565b828054828255906000526020600020908101928215612f62579160200282015b82811115612f625782518051612f52918491602090910190612e91565b5091602001919060010190612f35565b50612f11929150612f83565b5b80821115612f115760008155600101612f6f565b80821115612f11576000612f978282612fa0565b50600101612f83565b508054612fac906134f5565b6000825580601f10612fbc575050565b601f016020900490600052602060002090810190612fda9190612f6e565b50565b600060208284031215612fef57600080fd5b813560ff8116811461300057600080fd5b9392505050565b60006020828403121561301957600080fd5b5035919050565b6000815180845260005b818110156130465760208185018101518683018201520161302a565b81811115613058576000602083870101525b50601f01601f19169290920160200192915050565b6020815260006130006020830184613020565b60006020828403121561309257600080fd5b81356001600160a01b038116811461300057600080fd5b634e487b7160e01b600052602160045260246000fd5b600681106130cf576130cf6130a9565b9052565b60208101612e8b82846130bf565b634e487b7160e01b600052604160045260246000fd5b604051601f8201601f1916810167ffffffffffffffff81118282101715613120576131206130e1565b604052919050565b600082601f83011261313957600080fd5b813567ffffffffffffffff811115613153576131536130e1565b613166601f8201601f19166020016130f7565b81815284602083860101111561317b57600080fd5b816020850160208301376000918101602001919091529392505050565b600082601f8301126131a957600080fd5b8135602067ffffffffffffffff808311156131c6576131c66130e1565b8260051b6131d58382016130f7565b93845285810183019383810190888611156131ef57600080fd5b84880192505b8583101561322b5782358481111561320d5760008081fd5b61321b8a87838c0101613128565b83525091840191908401906131f5565b98975050505050505050565b60008060008060008060c0878903121561325057600080fd5b863567ffffffffffffffff8082111561326857600080fd5b6132748a838b01613128565b9750602089013591508082111561328a57600080fd5b6132968a838b01613128565b965060408901359150808211156132ac57600080fd5b506132b989828a01613198565b945050606087013592506080870135915060a0870135600381106132dc57600080fd5b809150509295509295509295565b60006101208083526132fe8184018d613020565b90508281036020840152613312818c613020565b9150508860408301528760608301528660808301528560a08301528460c083015260018060a01b03841660e083015260038310613351576133516130a9565b826101008301529a9950505050505050505050565b6000806040838503121561337957600080fd5b823567ffffffffffffffff81111561339057600080fd5b61339c85828601613198565b95602094909401359450505050565b6000602082840312156133bd57600080fd5b813567ffffffffffffffff8111156133d457600080fd5b6133e084828501613198565b949350505050565b6020808252602a908201527f4f776e6572206973206e6f7420656c696769626c6520746f20766f746520666f6040820152697220646973707574657360b01b606082015260800190565b6020808252602b908201527f52656e746572206973206e6f7420656c696769626c6520746f20766f7465206660408201526a6f7220646973707574657360a81b606082015260800190565b60208082526027908201527f557365722068617320616c726561647920766f74656420666f722074686973206040820152666469737075746560c81b606082015260800190565b634e487b7160e01b600052601160045260246000fd5b60006000198214156134ee576134ee6134c4565b5060010190565b600181811c9082168061350957607f821691505b6020821081141561352a57634e487b7160e01b600052602260045260246000fd5b50919050565b6020808252601e908201527f4d6574686f64206973207265737472696374656420746f2052656e7465720000604082015260600190565b60006020828403121561357957600080fd5b5051919050565b6020808252601d908201527f4d6574686f64206973207265737472696374656420746f204f776e6572000000604082015260600190565b634e487b7160e01b600052600160045260246000fd5b6020808252602d908201527f56616c7565207472616e736665726564206e6f7420657175616c20746f20726560408201526c1c5d5a5c995908185b5bdd5b9d609a1b606082015260800190565b60208082526033908201527f556e61626c6520746f20637265617465206469737075746520776974682063756040820152727272656e742072656e74616c2073746174757360681b606082015260800190565b600060ff821660ff811415613684576136846134c4565b60010192915050565b6001600160a01b0386811682528581166020830152841660408201526060810183905260a081016136c160808301846130bf565b9695505050505050565b600060ff821660ff84168160ff04811182151516156136ec576136ec6134c4565b029392505050565b60008219821115613707576137076134c4565b500190565b60008261372957634e487b7160e01b600052601260045260246000fd5b500490565b6000816000190483118215151615613748576137486134c4565b500290565b60008282101561375f5761375f6134c4565b500390565b6001600160a01b0385811682528481166020830152831660408201526080810161379160608301846130bf565b95945050505050565b600060ff8216806137ad576137ad6134c4565b600019019291505056fe556e61626c6520746f20636c61696d207061796d656e74207769746820637572a2646970667358221220473527ed086d89434a9d65c02f5e30d79095ff92e0d517638cb74f211d04f75364736f6c63430008090033608060405234801561001057600080fd5b50610706806100206000396000f3fe608060405234801561001057600080fd5b506004361061004c5760003560e01c806326d27337146100515780634a58a14a1461007a5780638dfd0b031461009b578063f76f950e146100ae575b600080fd5b61006461005f366004610395565b6100c1565b60405161007191906103c5565b60405180910390f35b61008d61008836600461041a565b610208565b604051908152602001610071565b61008d6100a936600461043c565b610246565b6100646100bc36600461043c565b610256565b60408051602880825260608281019093526000919060208201818036833701905050905060005b60148110156102015760006100fe826013610481565b610109906008610498565b61011490600261059b565b610127906001600160a01b0387166105bd565b60f81b9050600060108260f81c61013e91906105d1565b60f81b905060008160f81c601061015591906105f3565b8360f81c6101639190610614565b60f81b90506101718261035f565b8561017d866002610498565b8151811061018d5761018d610637565b60200101906001600160f81b031916908160001a9053506101ad8161035f565b856101b9866002610498565b6101c490600161064d565b815181106101d4576101d4610637565b60200101906001600160f81b031916908160001a90535050505080806101f990610665565b9150506100e8565b5092915050565b6000806102158484610481565b905060006018603c61022781856105bd565b61023191906105bd565b61023b91906105bd565b925050505b92915050565b600061024082633b9aca00610498565b60608161027a5750506040805180820190915260018152600360fc1b602082015290565b8160005b81156102a4578061028e81610665565b915061029d9050600a836105bd565b915061027e565b60008167ffffffffffffffff8111156102bf576102bf610455565b6040519080825280601f01601f1916602001820160405280156102e9576020820181803683370190505b508593509050815b831561035657610302600a85610680565b61030d90603061064d565b60f81b8261031a83610694565b9250828151811061032d5761032d610637565b60200101906001600160f81b031916908160001a90535061034f600a856105bd565b93506102f1565b50949350505050565b6000600a60f883901c10156103865761037d60f883901c60306106ab565b60f81b92915050565b61037d60f883901c60576106ab565b6000602082840312156103a757600080fd5b81356001600160a01b03811681146103be57600080fd5b9392505050565b600060208083528351808285015260005b818110156103f2578581018301518582016040015282016103d6565b81811115610404576000604083870101525b50601f01601f1916929092016040019392505050565b6000806040838503121561042d57600080fd5b50508035926020909101359150565b60006020828403121561044e57600080fd5b5035919050565b634e487b7160e01b600052604160045260246000fd5b634e487b7160e01b600052601160045260246000fd5b6000828210156104935761049361046b565b500390565b60008160001904831182151516156104b2576104b261046b565b500290565b600181815b808511156104f25781600019048211156104d8576104d861046b565b808516156104e557918102915b93841c93908002906104bc565b509250929050565b60008261050957506001610240565b8161051657506000610240565b816001811461052c576002811461053657610552565b6001915050610240565b60ff8411156105475761054761046b565b50506001821b610240565b5060208310610133831016604e8410600b8410161715610575575081810a610240565b61057f83836104b7565b80600019048211156105935761059361046b565b029392505050565b60006103be83836104fa565b634e487b7160e01b600052601260045260246000fd5b6000826105cc576105cc6105a7565b500490565b600060ff8316806105e4576105e46105a7565b8060ff84160491505092915050565b600060ff821660ff84168160ff04811182151516156105935761059361046b565b600060ff821660ff84168082101561062e5761062e61046b565b90039392505050565b634e487b7160e01b600052603260045260246000fd5b600082198211156106605761066061046b565b500190565b60006000198214156106795761067961046b565b5060010190565b60008261068f5761068f6105a7565b500690565b6000816106a3576106a361046b565b506000190190565b600060ff821660ff84168060ff038211156106c8576106c861046b565b01939250505056fea26469706673582212202fe4f0ddd68cf9a0f4a503b74717384f1c29c712b82f8868b03d01fffb08cf9f64736f6c63430008090033a264697066735822122086b29464f199b7338fa29a05d5b34b0583f36d08460dd497437e9fdaa06a552e64736f6c63430008090033",
  "immutableReferences": {},
  "source": "// SPDX-License-Identifier: GPL-3.0\n\npragma solidity >=0.7.0 <0.9.0;\n\nimport \"../Rental.sol\";\nimport \"../helpers/Structs.sol\";\n\ncontract RentalContractCreator {\n    function createRentalContract(\n        address _itemContract,\n        Structs.ItemDetails memory _itemDetails,\n        address _renterUserContract,\n        address payable _renterAddress,\n        uint256 _rentalFees,\n        uint256 _renterDeposit,\n        uint256 _start,\n        uint256 _end,\n        uint8 _numInstallment\n    ) public returns (Rental) {\n        return\n            new Rental(\n                _itemContract,\n                _itemDetails,\n                _renterUserContract,\n                _renterAddress,\n                _rentalFees,\n                _renterDeposit,\n                _start,\n                _end,\n                _numInstallment\n            );\n    }\n}\n",
  "sourcePath": "/Users/jyuteo/CodeProjects/TRent/src/contracts/factory/RentalContractCreator.sol",
  "compiler": {
    "name": "solc",
    "version": "0.8.9+commit.e5eed63a.Emscripten.clang"
  },
  "schemaVersion": "3.4.3",
  "updatedAt": "2021-10-03T12:56:10.591Z",
  "networkType": "ethereum",
  "devdoc": {
    "kind": "dev",
    "methods": {},
    "version": 1
  },
  "userdoc": {
    "kind": "user",
    "methods": {},
    "version": 1
  }
}