{
  "contractName": "Rental",
  "abi": [
    {
      "inputs": [
        {
          "internalType": "address",
          "name": "_itemContract",
          "type": "address"
        },
        {
          "internalType": "address",
          "name": "_renterUserContract",
          "type": "address"
        },
        {
          "internalType": "address payable",
          "name": "_renterAddress",
          "type": "address"
        },
        {
          "internalType": "uint256",
          "name": "_rentalFees",
          "type": "uint256"
        },
        {
          "internalType": "uint256",
          "name": "_renterDeposit",
          "type": "uint256"
        },
        {
          "internalType": "uint256",
          "name": "_start",
          "type": "uint256"
        },
        {
          "internalType": "uint256",
          "name": "_end",
          "type": "uint256"
        },
        {
          "internalType": "uint8",
          "name": "_numInstallment",
          "type": "uint8"
        }
      ],
      "stateMutability": "payable",
      "type": "constructor"
    },
    {
      "anonymous": false,
      "inputs": [
        {
          "indexed": false,
          "internalType": "address",
          "name": "itemContract",
          "type": "address"
        },
        {
          "indexed": false,
          "internalType": "address",
          "name": "renterAddress",
          "type": "address"
        },
        {
          "indexed": false,
          "internalType": "address",
          "name": "ownerAddress",
          "type": "address"
        },
        {
          "indexed": false,
          "internalType": "uint256",
          "name": "ownerDepositInGwei",
          "type": "uint256"
        },
        {
          "indexed": false,
          "internalType": "enum Rental.RentalStatus",
          "name": "rentalStatus",
          "type": "uint8"
        }
      ],
      "name": "itemRented",
      "type": "event"
    },
    {
      "anonymous": false,
      "inputs": [
        {
          "indexed": false,
          "internalType": "address",
          "name": "itemContract",
          "type": "address"
        },
        {
          "indexed": false,
          "internalType": "address",
          "name": "renterAddress",
          "type": "address"
        },
        {
          "indexed": false,
          "internalType": "address",
          "name": "ownerAddress",
          "type": "address"
        },
        {
          "indexed": false,
          "internalType": "enum Rental.RentalStatus",
          "name": "rentalStatus",
          "type": "uint8"
        }
      ],
      "name": "itemReturned",
      "type": "event"
    },
    {
      "anonymous": false,
      "inputs": [
        {
          "indexed": false,
          "internalType": "address",
          "name": "itemContract",
          "type": "address"
        },
        {
          "indexed": false,
          "internalType": "address",
          "name": "rentalContract",
          "type": "address"
        },
        {
          "indexed": false,
          "internalType": "address",
          "name": "renterUserContract",
          "type": "address"
        },
        {
          "indexed": false,
          "internalType": "uint256",
          "name": "lateFeesInGwei",
          "type": "uint256"
        }
      ],
      "name": "lateFeesPaid",
      "type": "event"
    },
    {
      "anonymous": false,
      "inputs": [
        {
          "indexed": false,
          "internalType": "address",
          "name": "renterUserContract",
          "type": "address"
        },
        {
          "indexed": false,
          "internalType": "address",
          "name": "renterAddress",
          "type": "address"
        },
        {
          "indexed": false,
          "internalType": "address",
          "name": "rentalContract",
          "type": "address"
        },
        {
          "indexed": false,
          "internalType": "uint256",
          "name": "renterDepositInGwei",
          "type": "uint256"
        }
      ],
      "name": "rentalContractCreated",
      "type": "event"
    },
    {
      "anonymous": false,
      "inputs": [
        {
          "indexed": false,
          "internalType": "address",
          "name": "itemContract",
          "type": "address"
        },
        {
          "indexed": false,
          "internalType": "address",
          "name": "rentalContract",
          "type": "address"
        }
      ],
      "name": "rentalEnded",
      "type": "event"
    },
    {
      "inputs": [],
      "name": "claimableRentalFees",
      "outputs": [
        {
          "internalType": "uint256",
          "name": "",
          "type": "uint256"
        }
      ],
      "stateMutability": "view",
      "type": "function"
    },
    {
      "inputs": [],
      "name": "claimedRentalFees",
      "outputs": [
        {
          "internalType": "uint256",
          "name": "",
          "type": "uint256"
        }
      ],
      "stateMutability": "view",
      "type": "function"
    },
    {
      "inputs": [],
      "name": "disputeCount",
      "outputs": [
        {
          "internalType": "uint8",
          "name": "",
          "type": "uint8"
        }
      ],
      "stateMutability": "view",
      "type": "function"
    },
    {
      "inputs": [],
      "name": "disputePeriod",
      "outputs": [
        {
          "internalType": "uint8",
          "name": "",
          "type": "uint8"
        }
      ],
      "stateMutability": "view",
      "type": "function"
    },
    {
      "inputs": [
        {
          "internalType": "uint8",
          "name": "",
          "type": "uint8"
        }
      ],
      "name": "disputes",
      "outputs": [
        {
          "internalType": "string",
          "name": "title",
          "type": "string"
        },
        {
          "internalType": "string",
          "name": "description",
          "type": "string"
        },
        {
          "internalType": "uint256",
          "name": "compensationAmount",
          "type": "uint256"
        },
        {
          "internalType": "uint256",
          "name": "totalIncentive",
          "type": "uint256"
        },
        {
          "internalType": "uint256",
          "name": "startTime",
          "type": "uint256"
        },
        {
          "internalType": "uint256",
          "name": "approvalCount",
          "type": "uint256"
        },
        {
          "internalType": "uint256",
          "name": "rejectionCount",
          "type": "uint256"
        },
        {
          "internalType": "address payable",
          "name": "creator",
          "type": "address"
        }
      ],
      "stateMutability": "view",
      "type": "function"
    },
    {
      "inputs": [],
      "name": "end",
      "outputs": [
        {
          "internalType": "uint256",
          "name": "",
          "type": "uint256"
        }
      ],
      "stateMutability": "view",
      "type": "function"
    },
    {
      "inputs": [],
      "name": "item",
      "outputs": [
        {
          "internalType": "contract Item",
          "name": "",
          "type": "address"
        }
      ],
      "stateMutability": "view",
      "type": "function"
    },
    {
      "inputs": [],
      "name": "itemContract",
      "outputs": [
        {
          "internalType": "address",
          "name": "",
          "type": "address"
        }
      ],
      "stateMutability": "view",
      "type": "function"
    },
    {
      "inputs": [],
      "name": "itemDetails",
      "outputs": [
        {
          "internalType": "address",
          "name": "ownerUserContract",
          "type": "address"
        },
        {
          "internalType": "address payable",
          "name": "ownerAddress",
          "type": "address"
        },
        {
          "internalType": "string",
          "name": "name",
          "type": "string"
        },
        {
          "internalType": "string",
          "name": "collectionOrReturnAddress",
          "type": "string"
        },
        {
          "internalType": "string",
          "name": "description",
          "type": "string"
        },
        {
          "internalType": "uint256",
          "name": "rentPerDay",
          "type": "uint256"
        },
        {
          "internalType": "uint8",
          "name": "maxAllowableLateDays",
          "type": "uint8"
        },
        {
          "internalType": "uint8",
          "name": "multipleForLateFees",
          "type": "uint8"
        },
        {
          "internalType": "bool",
          "name": "isAvailableForRent",
          "type": "bool"
        }
      ],
      "stateMutability": "view",
      "type": "function"
    },
    {
      "inputs": [],
      "name": "maxAllowableLateDays",
      "outputs": [
        {
          "internalType": "uint8",
          "name": "",
          "type": "uint8"
        }
      ],
      "stateMutability": "view",
      "type": "function"
    },
    {
      "inputs": [],
      "name": "multipleForLateFees",
      "outputs": [
        {
          "internalType": "uint8",
          "name": "",
          "type": "uint8"
        }
      ],
      "stateMutability": "view",
      "type": "function"
    },
    {
      "inputs": [],
      "name": "numInstallment",
      "outputs": [
        {
          "internalType": "uint8",
          "name": "",
          "type": "uint8"
        }
      ],
      "stateMutability": "view",
      "type": "function"
    },
    {
      "inputs": [],
      "name": "ownerAddress",
      "outputs": [
        {
          "internalType": "address payable",
          "name": "",
          "type": "address"
        }
      ],
      "stateMutability": "view",
      "type": "function"
    },
    {
      "inputs": [],
      "name": "ownerDeposit",
      "outputs": [
        {
          "internalType": "uint256",
          "name": "",
          "type": "uint256"
        }
      ],
      "stateMutability": "view",
      "type": "function"
    },
    {
      "inputs": [
        {
          "internalType": "uint256",
          "name": "",
          "type": "uint256"
        }
      ],
      "name": "ownerProofOfTransfer",
      "outputs": [
        {
          "internalType": "string",
          "name": "",
          "type": "string"
        }
      ],
      "stateMutability": "view",
      "type": "function"
    },
    {
      "inputs": [],
      "name": "ownerUserContract",
      "outputs": [
        {
          "internalType": "address",
          "name": "",
          "type": "address"
        }
      ],
      "stateMutability": "view",
      "type": "function"
    },
    {
      "inputs": [],
      "name": "paidRentalFees",
      "outputs": [
        {
          "internalType": "uint256",
          "name": "",
          "type": "uint256"
        }
      ],
      "stateMutability": "view",
      "type": "function"
    },
    {
      "inputs": [],
      "name": "remainingNumInstallment",
      "outputs": [
        {
          "internalType": "uint8",
          "name": "",
          "type": "uint8"
        }
      ],
      "stateMutability": "view",
      "type": "function"
    },
    {
      "inputs": [],
      "name": "remainingRentalFees",
      "outputs": [
        {
          "internalType": "uint256",
          "name": "",
          "type": "uint256"
        }
      ],
      "stateMutability": "view",
      "type": "function"
    },
    {
      "inputs": [],
      "name": "rentPerDay",
      "outputs": [
        {
          "internalType": "uint256",
          "name": "",
          "type": "uint256"
        }
      ],
      "stateMutability": "view",
      "type": "function"
    },
    {
      "inputs": [],
      "name": "rentalFees",
      "outputs": [
        {
          "internalType": "uint256",
          "name": "",
          "type": "uint256"
        }
      ],
      "stateMutability": "view",
      "type": "function"
    },
    {
      "inputs": [],
      "name": "rentalStatus",
      "outputs": [
        {
          "internalType": "enum Rental.RentalStatus",
          "name": "",
          "type": "uint8"
        }
      ],
      "stateMutability": "view",
      "type": "function"
    },
    {
      "inputs": [],
      "name": "renterAddress",
      "outputs": [
        {
          "internalType": "address payable",
          "name": "",
          "type": "address"
        }
      ],
      "stateMutability": "view",
      "type": "function"
    },
    {
      "inputs": [],
      "name": "renterDeposit",
      "outputs": [
        {
          "internalType": "uint256",
          "name": "",
          "type": "uint256"
        }
      ],
      "stateMutability": "view",
      "type": "function"
    },
    {
      "inputs": [
        {
          "internalType": "uint256",
          "name": "",
          "type": "uint256"
        }
      ],
      "name": "renterProofOfReturn",
      "outputs": [
        {
          "internalType": "string",
          "name": "",
          "type": "string"
        }
      ],
      "stateMutability": "view",
      "type": "function"
    },
    {
      "inputs": [],
      "name": "renterUserContract",
      "outputs": [
        {
          "internalType": "address",
          "name": "",
          "type": "address"
        }
      ],
      "stateMutability": "view",
      "type": "function"
    },
    {
      "inputs": [],
      "name": "start",
      "outputs": [
        {
          "internalType": "uint256",
          "name": "",
          "type": "uint256"
        }
      ],
      "stateMutability": "view",
      "type": "function"
    },
    {
      "inputs": [
        {
          "internalType": "string[]",
          "name": "_ownerProofOfTransfer",
          "type": "string[]"
        },
        {
          "internalType": "uint256",
          "name": "_ownerDeposit",
          "type": "uint256"
        }
      ],
      "name": "uploadOwnerProofOfTransferAndPayDeposit",
      "outputs": [],
      "stateMutability": "payable",
      "type": "function"
    },
    {
      "inputs": [
        {
          "internalType": "string[]",
          "name": "_renterProofOfReturn",
          "type": "string[]"
        }
      ],
      "name": "uploadRenterProofOfReturn",
      "outputs": [],
      "stateMutability": "nonpayable",
      "type": "function"
    },
    {
      "inputs": [
        {
          "internalType": "uint256",
          "name": "_amount",
          "type": "uint256"
        }
      ],
      "name": "payRentalInstallment",
      "outputs": [],
      "stateMutability": "payable",
      "type": "function"
    },
    {
      "inputs": [],
      "name": "claimRentalFees",
      "outputs": [],
      "stateMutability": "nonpayable",
      "type": "function"
    },
    {
      "inputs": [],
      "name": "settleDeposit",
      "outputs": [],
      "stateMutability": "nonpayable",
      "type": "function"
    },
    {
      "inputs": [
        {
          "internalType": "uint256",
          "name": "_lateFees",
          "type": "uint256"
        }
      ],
      "name": "payLateFees",
      "outputs": [],
      "stateMutability": "payable",
      "type": "function"
    },
    {
      "inputs": [],
      "name": "settleRentalAfterFiveLateDays",
      "outputs": [],
      "stateMutability": "payable",
      "type": "function"
    },
    {
      "inputs": [
        {
          "internalType": "string",
          "name": "_title",
          "type": "string"
        },
        {
          "internalType": "string",
          "name": "_description",
          "type": "string"
        },
        {
          "internalType": "string[]",
          "name": "_mediaIPFSHashes",
          "type": "string[]"
        },
        {
          "internalType": "uint256",
          "name": "_compensationAmount",
          "type": "uint256"
        },
        {
          "internalType": "uint256",
          "name": "_totalIncentive",
          "type": "uint256"
        }
      ],
      "name": "createOwnerDispute",
      "outputs": [],
      "stateMutability": "payable",
      "type": "function"
    },
    {
      "inputs": [
        {
          "internalType": "string",
          "name": "_title",
          "type": "string"
        },
        {
          "internalType": "string",
          "name": "_description",
          "type": "string"
        },
        {
          "internalType": "string[]",
          "name": "_mediaIPFSHashes",
          "type": "string[]"
        },
        {
          "internalType": "uint256",
          "name": "_compensationAmount",
          "type": "uint256"
        },
        {
          "internalType": "uint256",
          "name": "_totalIncentive",
          "type": "uint256"
        }
      ],
      "name": "createRenterDispute",
      "outputs": [],
      "stateMutability": "payable",
      "type": "function"
    },
    {
      "inputs": [
        {
          "internalType": "uint8",
          "name": "_disputeIndex",
          "type": "uint8"
        }
      ],
      "name": "approveDispute",
      "outputs": [],
      "stateMutability": "nonpayable",
      "type": "function"
    },
    {
      "inputs": [
        {
          "internalType": "uint8",
          "name": "_disputeIndex",
          "type": "uint8"
        }
      ],
      "name": "rejectDispute",
      "outputs": [],
      "stateMutability": "nonpayable",
      "type": "function"
    },
    {
      "inputs": [
        {
          "internalType": "uint8",
          "name": "_disputeIndex",
          "type": "uint8"
        }
      ],
      "name": "resolveDispute",
      "outputs": [],
      "stateMutability": "payable",
      "type": "function"
    }
  ],
  "bytecode": "0x608060405260405162000012906200045f565b604051809103906000f0801580156200002f573d6000803e3d6000fd5b50600080546001600160a01b0319166001600160a01b0392909216919091179055601c805461ff0019166103001790556040516200432e3881900390819083398101604081905262000081916200074f565b600054604051638dfd0b0360e01b8152600481018690526001600160a01b0390911690638dfd0b039060240160206040518083038186803b158015620000c657600080fd5b505afa158015620000db573d6000803e3d6000fd5b505050506040513d601f19601f8201168201806040525081019062000101919062000935565b34146200016a5760405162461bcd60e51b815260206004820152602d60248201527f56616c7565207472616e736665726564206973206c657373207468616e20726560448201526c1c5d5a5c995908185b5bdd5b9d609a1b606482015260840160405180910390fd5b600180546001600160a01b038a166001600160a01b03199182168117909255600280549091168217905560408051637c81d12360e01b81529051637c81d12391600480820192600092909190829003018186803b158015620001cb57600080fd5b505afa158015620001e0573d6000803e3d6000fd5b505050506040513d6000823e601f3d908101601f191682016040526200020a9190810190620007dd565b8051600380546001600160a01b03199081166001600160a01b039384161782556020808501516004805490931694169390931790556040830151805191926200025a92600592909101906200046d565b5060608201518051620002789160038401916020909101906200046d565b5060808201518051620002969160048401916020909101906200046d565b5060a0820151600582015560c082015160068201805460e0850151610100808701511515620100000262ff00001960ff93841690920261ffff1990941692909516919091179190911716919091179055610120820151805162000304916007840191602090910190620004fc565b5050600854600b5550600954600c805461010080840460ff90811690910261ffff1990921693169290921791909117808255600354601880546001600160a01b0319166001600160a01b03928316179055600454601780546201000092909316820262010000600160b01b0319909316929092179091556000929162ff0000191690830217905550600d80546001600160a01b0319166001600160a01b03898116918217909255600c80546301000000600160b81b0319166301000000938a16938402179055600e869055600f859055601084905560128790556017805461ffff191660ff85169081176101009091021790556014879055600060138190556016556040805191825260208201929092523091810191909152606081018590527ff2ba2250ad19f9c3d940ca2bec423c98f22d51baf1bbbf35e1d7ec34f8afb9219060800160405180910390a1505050505050505062000a17565b6107218062003c0d83390190565b8280546200047b90620009ae565b90600052602060002090601f0160209004810192826200049f5760008555620004ea565b82601f10620004ba57805160ff1916838001178555620004ea565b82800160010185558215620004ea579182015b82811115620004ea578251825591602001919060010190620004cd565b50620004f89291506200055c565b5090565b8280548282559060005260206000209081019282156200054e579160200282015b828111156200054e57825180516200053d9184916020909101906200046d565b50916020019190600101906200051d565b50620004f892915062000573565b5b80821115620004f857600081556001016200055d565b80821115620004f85760006200058a828262000594565b5060010162000573565b508054620005a290620009ae565b6000825580601f10620005b3575050565b601f016020900490600052602060002090810190620005d391906200055c565b50565b8051620005e38162000a01565b919050565b600082601f830112620005fa57600080fd5b815160206001600160401b0380831115620006195762000619620009eb565b8260051b6200062a8382016200097b565b8481528381019087850183890186018a10156200064657600080fd5b60009350835b87811015620006885781518681111562000664578586fd5b620006748c89838e0101620006a8565b85525092860192908601906001016200064c565b50909998505050505050505050565b80518015158114620005e357600080fd5b600082601f830112620006ba57600080fd5b81516001600160401b03811115620006d657620006d6620009eb565b6020620006ec601f8301601f191682016200097b565b82815285828487010111156200070157600080fd5b60005b838110156200072157858101830151828201840152820162000704565b83811115620007335760008385840101525b5095945050505050565b805160ff81168114620005e357600080fd5b600080600080600080600080610100898b0312156200076d57600080fd5b88516200077a8162000a01565b60208a01519098506200078d8162000a01565b60408a0151909750620007a08162000a01565b80965050606089015194506080890151935060a0890151925060c08901519150620007ce60e08a016200073d565b90509295985092959890939650565b600060208284031215620007f057600080fd5b81516001600160401b03808211156200080857600080fd5b9083019061014082860312156200081e57600080fd5b620008286200094f565b6200083383620005d6565b81526200084360208401620005d6565b60208201526040830151828111156200085b57600080fd5b6200086987828601620006a8565b6040830152506060830151828111156200088257600080fd5b6200089087828601620006a8565b606083015250608083015182811115620008a957600080fd5b620008b787828601620006a8565b60808301525060a083015160a0820152620008d560c084016200073d565b60c0820152620008e860e084016200073d565b60e0820152610100620008fd81850162000697565b9082015261012083810151838111156200091657600080fd5b6200092488828701620005e8565b918301919091525095945050505050565b6000602082840312156200094857600080fd5b5051919050565b60405161014081016001600160401b0381118282101715620009755762000975620009eb565b60405290565b604051601f8201601f191681016001600160401b0381118282101715620009a657620009a6620009eb565b604052919050565b600181811c90821680620009c357607f821691505b60208210811415620009e557634e487b7160e01b600052602260045260246000fd5b50919050565b634e487b7160e01b600052604160045260246000fd5b6001600160a01b0381168114620005d357600080fd5b6131e68062000a276000396000f3fe6080604052600436106102305760003560e01c80638f84aa091161012e578063c7abd092116100ab578063efbe1c1c1161006f578063efbe1c1c1461062c578063f030486014610642578063f2a4a82e14610658578063fe55029d14610678578063ff3522cf1461068e57600080fd5b8063c7abd092146105ba578063cbfbb5a3146105cf578063d46c9fc7146105d7578063dce59d10146105f6578063e11093051461061657600080fd5b8063a2d1d11c116100f2578063a2d1d11c1461053c578063a6bc220114610552578063a8237b8714610571578063baa75f3914610591578063be9a6555146105a457600080fd5b80638f84aa091461049f57806395afe398146104c55780639c29a3ed146104db5780639e6aadc3146104fb578063a28889e11461052257600080fd5b80635bf31d4d116101bc57806383f41da31161018057806383f41da31461041857806385411c8e1461042b578063881f227c1461043e5780638b3a16a2146104515780638d76f9401461046757600080fd5b80635bf31d4d14610359578063676b96831461038a57806378cbf3f8146103a45780637b1aa45f146103d857806382770a43146103ee57600080fd5b80633246f3c4116102035780633246f3c4146102da5780633d99b56a146102ed5780633fe8351a1461030d5780634f4687ea14610320578063559ec80d1461034457600080fd5b8063034cc2a01461023557806307e353e9146102575780630f5bd7a21461028d57806331d019b7146102ad575b600080fd5b34801561024157600080fd5b50610255610250366004612bda565b6106a8565b005b34801561026357600080fd5b50610277610272366004612ba8565b6107f4565b6040516102849190612d7a565b60405180910390f35b34801561029957600080fd5b506102556102a8366004612bda565b6108a0565b3480156102b957600080fd5b50600c546102cd9062010000900460ff1681565b6040516102849190612d6c565b6102556102e8366004612b0e565b6109d9565b3480156102f957600080fd5b50610277610308366004612ba8565b610c3c565b61025561031b366004612ba8565b610c4c565b34801561032c57600080fd5b5061033660125481565b604051908152602001610284565b34801561035057600080fd5b50610255610f20565b34801561036557600080fd5b50601c5461037890610100900460ff1681565b60405160ff9091168152602001610284565b34801561039657600080fd5b506017546103789060ff1681565b3480156103b057600080fd5b506103c46103bf366004612bda565b6112ff565b604051610284989796959493929190612d8d565b3480156103e457600080fd5b5061033660195481565b3480156103fa57600080fd5b5061040361145b565b60405161028499989796959493929190612ce7565b610255610426366004612b0e565b611640565b610255610439366004612ac9565b6117e1565b61025561044c366004612bda565b6119f0565b34801561045d57600080fd5b5061033660165481565b34801561047357600080fd5b50600154610487906001600160a01b031681565b6040516001600160a01b039091168152602001610284565b3480156104ab57600080fd5b50601754610487906201000090046001600160a01b031681565b3480156104d157600080fd5b50610336600e5481565b3480156104e757600080fd5b506102556104f6366004612a8c565b611fda565b34801561050757600080fd5b50600c5461048790630100000090046001600160a01b031681565b34801561052e57600080fd5b50601c546103789060ff1681565b34801561054857600080fd5b5061033660135481565b34801561055e57600080fd5b50600c5461037890610100900460ff1681565b34801561057d57600080fd5b50600d54610487906001600160a01b031681565b61025561059f366004612ba8565b6120ef565b3480156105b057600080fd5b50610336600f5481565b3480156105c657600080fd5b506102556122f5565b610255612630565b3480156105e357600080fd5b5060175461037890610100900460ff1681565b34801561060257600080fd5b50601854610487906001600160a01b031681565b34801561062257600080fd5b50610336600b5481565b34801561063857600080fd5b5061033660105481565b34801561064e57600080fd5b5061033660155481565b34801561066457600080fd5b50600254610487906001600160a01b031681565b34801561068457600080fd5b5061033660145481565b34801561069a57600080fd5b50600c546103789060ff1681565b60ff81166000908152601b602052604090206017546201000090046001600160a01b03163314156106f45760405162461bcd60e51b81526004016106eb90612e8b565b60405180910390fd5b600c54630100000090046001600160a01b03163314156107265760405162461bcd60e51b81526004016106eb90612ed5565b33600090815260088201602052604090205460ff16156107585760405162461bcd60e51b81526004016106eb90612df1565b336000908152600b8201602052604090205460ff161561078a5760405162461bcd60e51b81526004016106eb90612df1565b60ff82166000908152601b602090815260408083206009810180548552600a8201845282852080546001600160a01b031916339081179091558552600b8201909352908320805460ff19166001179055815490929091906107ea836130fd565b9190505550505050565b6011818154811061080457600080fd5b90600052602060002001600091509050805461081f906130c2565b80601f016020809104026020016040519081016040528092919081815260200182805461084b906130c2565b80156108985780601f1061086d57610100808354040283529160200191610898565b820191906000526020600020905b81548152906001019060200180831161087b57829003601f168201915b505050505081565b60ff81166000908152601b602052604090206017546201000090046001600160a01b03163314156108e35760405162461bcd60e51b81526004016106eb90612e8b565b600c54630100000090046001600160a01b03163314156109155760405162461bcd60e51b81526004016106eb90612ed5565b33600090815260088201602052604090205460ff16156109475760405162461bcd60e51b81526004016106eb90612df1565b336000908152600b8201602052604090205460ff16156109795760405162461bcd60e51b81526004016106eb90612df1565b60ff82166000908152601b60209081526040808320600681018054855260078201845282852080546001600160a01b03191633908117909155855260088201909352908320805460ff19166001179055815490929091906107ea836130fd565b600c54630100000090046001600160a01b03163314610a0a5760405162461bcd60e51b81526004016106eb90612f20565b600054604051638dfd0b0360e01b8152600481018390526001600160a01b0390911690638dfd0b039060240160206040518083038186803b158015610a4e57600080fd5b505afa158015610a62573d6000803e3d6000fd5b505050506040513d601f19601f82011682018060405250810190610a869190612bc1565b3414610aa45760405162461bcd60e51b81526004016106eb90612f8e565b6001600c5462010000900460ff166005811115610ac357610ac3613164565b14610ae05760405162461bcd60e51b81526004016106eb90612e38565b6019548210610b635760405162461bcd60e51b815260206004820152604360248201527f436f6d70656e736174696f6e207265717565737465642062792072656e74657260448201527f206d757374206265206c6f776572207468616e206f776e65722773206465706f6064820152621cda5d60ea1b608482015260a4016106eb565b600c80546005919062ff0000191662010000835b0217905550601c5460ff166000908152601b6020908152604090912086519091610ba591839189019061282f565b508451610bbb906001830190602088019061282f565b508351610bd190600283019060208701906128b3565b50600381018390556004810182905542600582015560006006820181905560098201819055600c820180546001600160a01b03191633179055601c805460ff1691610c1b83613118565b91906101000a81548160ff021916908360ff16021790555050505050505050565b601a818154811061080457600080fd5b600c54630100000090046001600160a01b03163314610c7d5760405162461bcd60e51b81526004016106eb90612f20565b6010544211610ce55760405162461bcd60e51b815260206004820152602e60248201527f556e61626c6520746f20706179206c6174652066656573206265666f7265207260448201526d656e74616c20656e64206461746560901b60648201526084016106eb565b60005460105460405163252c50a560e11b815260048101919091524260248201526005916001600160a01b031690634a58a14a9060440160206040518083038186803b158015610d3457600080fd5b505afa158015610d48573d6000803e3d6000fd5b505050506040513d601f19601f82011682018060405250810190610d6c9190612bc1565b1115610de05760405162461bcd60e51b815260206004820152603960248201527f556e61626c6520746f20706179206c617465206665657320352064617973206c60448201527f61746572207468616e2072656e74616c20656e6420646174650000000000000060648201526084016106eb565b600054604051638dfd0b0360e01b8152600481018390526001600160a01b0390911690638dfd0b039060240160206040518083038186803b158015610e2457600080fd5b505afa158015610e38573d6000803e3d6000fd5b505050506040513d601f19601f82011682018060405250810190610e5c9190612bc1565b3414610ec35760405162461bcd60e51b815260206004820152603060248201527f56616c7565207472616e736665726564206973206e6f7420657571616c20746f60448201526f081c995c5d5a5c995908185b5bdd5b9d60821b60648201526084016106eb565b600154600d54604080516001600160a01b0393841681523060208201529290911690820152606081018290527fc7e341db620c84a8460b51bfba67b47879276b655ea7960928e38c956cd85344906080015b60405180910390a150565b6017546201000090046001600160a01b03163314610f505760405162461bcd60e51b81526004016106eb90612f57565b6002600c5462010000900460ff166005811115610f6f57610f6f613164565b14610fc55760405162461bcd60e51b8152602060048201526032602482015260008051602061319183398151915260448201527172656e742072656e74616c2073746174757360701b60648201526084016106eb565b60006019541180610fd857506000600e54115b6110245760405162461bcd60e51b815260206004820152601d60248201527f4e6f2072656d61696e696e67206465706f73697420746f20636c61696d00000060448201526064016106eb565b6014541561108d5760405162461bcd60e51b815260206004820152603060248201527f52656e74616c206665657320686173206e6f74206265656e2066756c6c79207360448201526f32ba3a3632b210313c903932b73a32b960811b60648201526084016106eb565b6012546013541461109d57600080fd5b601254601654146111085760405162461bcd60e51b815260206004820152602f60248201527f52656e74616c206665657320686173206e6f74206265656e2066756c6c79206360448201526e3630b4b6b2b210313c9037bbb732b960891b60648201526084016106eb565b601954156111cf57601754600054601954604051638dfd0b0360e01b81526001600160a01b03620100009094048416936108fc931691638dfd0b0391611155919060040190815260200190565b60206040518083038186803b15801561116d57600080fd5b505afa158015611181573d6000803e3d6000fd5b505050506040513d601f19601f820116820180604052508101906111a59190612bc1565b6040518115909202916000818181858888f193505050501580156111cd573d6000803e3d6000fd5b505b600e541561129757600c54600054600e54604051638dfd0b0360e01b81526001600160a01b0363010000009094048416936108fc931691638dfd0b039161121d919060040190815260200190565b60206040518083038186803b15801561123557600080fd5b505afa158015611249573d6000803e3d6000fd5b505050506040513d601f19601f8201168201806040525081019061126d9190612bc1565b6040518115909202916000818181858888f19350505050158015611295573d6000803e3d6000fd5b505b47156112a5576112a5613138565b600c80546203000062ff000019909116179055600154604080516001600160a01b0390921682523060208301527f6a5d55ef84f2d6da57cc86de121fc1c7a8392770ff8f357998e87beb5c310491910160405180910390a1565b601b6020526000908152604090208054819061131a906130c2565b80601f0160208091040260200160405190810160405280929190818152602001828054611346906130c2565b80156113935780601f1061136857610100808354040283529160200191611393565b820191906000526020600020905b81548152906001019060200180831161137657829003601f168201915b5050505050908060010180546113a8906130c2565b80601f01602080910402602001604051908101604052809291908181526020018280546113d4906130c2565b80156114215780601f106113f657610100808354040283529160200191611421565b820191906000526020600020905b81548152906001019060200180831161140457829003601f168201915b50505060038401546004850154600586015460068701546009880154600c909801549697939692955090935091906001600160a01b031688565b60038054600454600580546001600160a01b03938416949290931692611480906130c2565b80601f01602080910402602001604051908101604052809291908181526020018280546114ac906130c2565b80156114f95780601f106114ce576101008083540402835291602001916114f9565b820191906000526020600020905b8154815290600101906020018083116114dc57829003601f168201915b50505050509080600301805461150e906130c2565b80601f016020809104026020016040519081016040528092919081815260200182805461153a906130c2565b80156115875780601f1061155c57610100808354040283529160200191611587565b820191906000526020600020905b81548152906001019060200180831161156a57829003601f168201915b50505050509080600401805461159c906130c2565b80601f01602080910402602001604051908101604052809291908181526020018280546115c8906130c2565b80156116155780601f106115ea57610100808354040283529160200191611615565b820191906000526020600020905b8154815290600101906020018083116115f857829003601f168201915b50505050600583015460069093015491929160ff808216925061010082048116916201000090041689565b6017546201000090046001600160a01b031633146116705760405162461bcd60e51b81526004016106eb90612f57565b600054604051638dfd0b0360e01b8152600481018390526001600160a01b0390911690638dfd0b039060240160206040518083038186803b1580156116b457600080fd5b505afa1580156116c8573d6000803e3d6000fd5b505050506040513d601f19601f820116820180604052508101906116ec9190612bc1565b341461170a5760405162461bcd60e51b81526004016106eb90612f8e565b6002600c5462010000900460ff16600581111561172957611729613164565b146117465760405162461bcd60e51b81526004016106eb90612e38565b600e5482106117c95760405162461bcd60e51b815260206004820152604360248201527f436f6d70656e736174696f6e20726571756573746564206279206f776e65722060448201527f6d757374206265206c6f776572207468616e2072656e7465722773206465706f6064820152621cda5d60ea1b608482015260a4016106eb565b600c80546004919062ff000019166201000083610b77565b6017546201000090046001600160a01b031633146118115760405162461bcd60e51b81526004016106eb90612f57565b600054604051638dfd0b0360e01b8152600481018390526001600160a01b0390911690638dfd0b039060240160206040518083038186803b15801561185557600080fd5b505afa158015611869573d6000803e3d6000fd5b505050506040513d601f19601f8201168201806040525081019061188d9190612bc1565b34146118f15760405162461bcd60e51b815260206004820152602d60248201527f56616c7565207472616e736665726564206973206c657373207468616e20726560448201526c1c5d5a5c995908185b5bdd5b9d609a1b60648201526084016106eb565b6000600c5462010000900460ff16600581111561191057611910613164565b1461195d5760405162461bcd60e51b815260206004820181905260248201527f496e76616c69642072656e74616c2073746174757320666f72206d6574686f6460448201526064016106eb565b6019819055815161197590601a9060208501906128b3565b50600c805462ff0000191662010000908117918290556001546017546019546040517f638a6fc620f125e2c5fd9c4a087a87f135f8c70a914ad7251ba015a126a6b7c2956119e4956001600160a01b039586169563010000008304811695829004169392910460ff1690612ca9565b60405180910390a15050565b60ff81166000908152601b60205260409020600c8101546001600160a01b03163314611a6f5760405162461bcd60e51b815260206004820152602860248201527f4f6e6c79206469737075746520637265617465722063616e207265736f6c7665604482015267206469737075746560c01b60648201526084016106eb565b6004600c5462010000900460ff166005811115611a8e57611a8e613164565b1480611ab657506005600c5462010000900460ff166005811115611ab457611ab4613164565b145b611b1f5760405162461bcd60e51b815260206004820152603460248201527f556e61626c6520746f207265736f6c7665206469737075746520776974682063604482015273757272656e742072656e74616c2073746174757360601b60648201526084016106eb565b60ff8083166000908152601b60205260409020601c549091611b48916101009004166018613065565b611b5390603c613065565b611b5e90603c613065565b60ff168160050154611b70919061300c565b421015611b7c57600080fd5b600481015460098201546006830154600091600a91611b9b919061300c565b611ba59190613024565b611bb0906006613046565b83600601541115611d925760005b8360060154811015611cc1576000611bd584612811565b60008381526007870160205260408082205491549051638dfd0b0360e01b8152600481018490529293506001600160a01b03918216926108fc9290911690638dfd0b039060240160206040518083038186803b158015611c3457600080fd5b505afa158015611c48573d6000803e3d6000fd5b505050506040513d601f19601f82011682018060405250810190611c6c9190612bc1565b6040518115909202916000818181858888f19350505050158015611c94573d6000803e3d6000fd5b50611c9f818461300c565b9250611cab818561308e565b9350508080611cb9906130fd565b915050611bbe565b50600c8301546000546003850154604051638dfd0b0360e01b815260048101919091526001600160a01b03928316926108fc921690638dfd0b039060240160206040518083038186803b158015611d1757600080fd5b505afa158015611d2b573d6000803e3d6000fd5b505050506040513d601f19601f82011682018060405250810190611d4f9190612bc1565b6040518115909202916000818181858888f19350505050158015611d77573d6000803e3d6000fd5b508260030154600e54611d8a919061308e565b600e55611e9a565b60005b8360090154811015611e98576000611dac84612811565b6000838152600a870160205260408082205491549051638dfd0b0360e01b8152600481018490529293506001600160a01b03918216926108fc9290911690638dfd0b039060240160206040518083038186803b158015611e0b57600080fd5b505afa158015611e1f573d6000803e3d6000fd5b505050506040513d601f19601f82011682018060405250810190611e439190612bc1565b6040518115909202916000818181858888f19350505050158015611e6b573d6000803e3d6000fd5b50611e76818461300c565b9250611e82818561308e565b9350508080611e90906130fd565b915050611d95565b505b808360040154611eaa919061308e565b8214611eb857611eb8613138565b600c830154600054604051638dfd0b0360e01b8152600481018590526001600160a01b03928316926108fc921690638dfd0b039060240160206040518083038186803b158015611f0757600080fd5b505afa158015611f1b573d6000803e3d6000fd5b505050506040513d601f19601f82011682018060405250810190611f3f9190612bc1565b6040518115909202916000818181858888f19350505050158015611f67573d6000803e3d6000fd5b50600c8054908401546001600160a01b039081166301000000909204161415611fa057600c805462ff0000191662010000179055611fd3565b601754600c8401546001600160a01b0390811662010000909204161415611fd357600c805462ff00001916620200001790555b5050505050565b600c54630100000090046001600160a01b0316331461200b5760405162461bcd60e51b81526004016106eb90612f20565b6014541561206d5760405162461bcd60e51b815260206004820152602960248201527f416c6c2066656573206861766520746f2062652070616964206265666f72652060448201526872657475726e696e6760b81b60648201526084016106eb565b80516120809060119060208401906128b3565b50600c805462ff000019166202000017908190556001546017546040517f6c3b74d4fe02e9013f2662b52aee484a1cfa6dfbe0616f21ef00227ba5c91ad293610f15936001600160a01b0390811693630100000083048216936201000091829004909216920460ff1690612c73565b600c54630100000090046001600160a01b031633146121205760405162461bcd60e51b81526004016106eb90612f20565b601754819060ff61010090910416600114156121bf57601454600054604051638dfd0b0360e01b8152600481018490526001600160a01b0390911690638dfd0b039060240160206040518083038186803b15801561217d57600080fd5b505afa158015612191573d6000803e3d6000fd5b505050506040513d601f19601f820116820180604052508101906121b59190612bc1565b146121bf57600080fd5b600054604051638dfd0b0360e01b8152600481018490526001600160a01b0390911690638dfd0b039060240160206040518083038186803b15801561220357600080fd5b505afa158015612217573d6000803e3d6000fd5b505050506040513d601f19601f8201168201806040525081019061223b9190612bc1565b34146122595760405162461bcd60e51b81526004016106eb90612f8e565b816013600082825461226b919061300c565b925050819055508160146000828254612284919061308e565b909155505060178054610100900460ff169060016122a1836130a5565b91906101000a81548160ff021916908360ff160217905550506014546013546122ca919061300c565b601254146122da576122da613138565b81601560008282546122ec919061300c565b90915550505050565b6017546201000090046001600160a01b031633146123255760405162461bcd60e51b81526004016106eb90612f57565b6000601554116123815760405162461bcd60e51b815260206004820152602160248201527f5468657265206973206e6f20636c61696d61626c652072656e74616c206665656044820152607360f81b60648201526084016106eb565b6004600c5462010000900460ff1660058111156123a0576123a0613164565b14156124205760405162461bcd60e51b8152602060048201526055602482015260008051602061319183398151915260448201527f72656e742072656e74616c207374617475732c2072656e74616c20737461747560648201527473206973204f4e204f574e4552204449535055544560581b608482015260a4016106eb565b6005600c5462010000900460ff16600581111561243f5761243f613164565b14156124c05760405162461bcd60e51b8152602060048201526056602482015260008051602061319183398151915260448201527f72656e742072656e74616c207374617475732c2072656e74616c20737461747560648201527573206973204f4e2052454e544552204449535055544560501b608482015260a4016106eb565b6003600c5462010000900460ff1660058111156124df576124df613164565b14156125525760405162461bcd60e51b8152602060048201526048602482015260008051602061319183398151915260448201527f72656e742072656e74616c207374617475732c2072656e74616c2073746174756064820152671cc81a5cc811539160c21b608482015260a4016106eb565b601754600054601554604051638dfd0b0360e01b81526001600160a01b03620100009094048416936108fc931691638dfd0b0391612597919060040190815260200190565b60206040518083038186803b1580156125af57600080fd5b505afa1580156125c3573d6000803e3d6000fd5b505050506040513d601f19601f820116820180604052508101906125e79190612bc1565b6040518115909202916000818181858888f1935050505015801561260f573d6000803e3d6000fd5b5060155460166000828254612624919061300c565b90915550506000601555565b6017546201000090046001600160a01b031633146126605760405162461bcd60e51b81526004016106eb90612f57565b601054612670906206978061300c565b42116126d15760405162461bcd60e51b815260206004820152602a60248201527f556e61626c6520746f20736574746c652072656e74616c206265666f72652035604482015269206c617465206461797360b01b60648201526084016106eb565b6001600c5462010000900460ff1660058111156126f0576126f0613164565b146127585760405162461bcd60e51b815260206004820152603260248201527f556e61626c6520746f20736574746c652072656e74616c20776974682063757260448201527172656e742072656e74616c2073746174757360701b60648201526084016106eb565b600c80546203000062ff000019909116179055600280546040516001620b258d60e21b0319815260048101929092526001600160a01b03169063ffd369cc90602401600060405180830381600087803b1580156127b457600080fd5b505af11580156127c8573d6000803e3d6000fd5b50506017546040516001600160a01b03620100009092049190911692504780156108fc029250906000818181858888f1935050505015801561280e573d6000803e3d6000fd5b50565b600061281e606483613024565b612829906005613046565b92915050565b82805461283b906130c2565b90600052602060002090601f01602090048101928261285d57600085556128a3565b82601f1061287657805160ff19168380011785556128a3565b828001600101855582156128a3579182015b828111156128a3578251825591602001919060010190612888565b506128af92915061290c565b5090565b828054828255906000526020600020908101928215612900579160200282015b8281111561290057825180516128f091849160209091019061282f565b50916020019190600101906128d3565b506128af929150612921565b5b808211156128af576000815560010161290d565b808211156128af576000612935828261293e565b50600101612921565b50805461294a906130c2565b6000825580601f1061295a575050565b601f01602090049060005260206000209081019061280e919061290c565b600082601f83011261298957600080fd5b8135602067ffffffffffffffff808311156129a6576129a661317a565b8260051b6129b5838201612fdb565b8481528381019087850183890186018a10156129d057600080fd5b60009350835b87811015612a0d578135868111156129ec578586fd5b6129fa8c89838e0101612a1c565b85525092860192908601906001016129d6565b50909998505050505050505050565b600082601f830112612a2d57600080fd5b813567ffffffffffffffff811115612a4757612a4761317a565b612a5a601f8201601f1916602001612fdb565b818152846020838601011115612a6f57600080fd5b816020850160208301376000918101602001919091529392505050565b600060208284031215612a9e57600080fd5b813567ffffffffffffffff811115612ab557600080fd5b612ac184828501612978565b949350505050565b60008060408385031215612adc57600080fd5b823567ffffffffffffffff811115612af357600080fd5b612aff85828601612978565b95602094909401359450505050565b600080600080600060a08688031215612b2657600080fd5b853567ffffffffffffffff80821115612b3e57600080fd5b612b4a89838a01612a1c565b96506020880135915080821115612b6057600080fd5b612b6c89838a01612a1c565b95506040880135915080821115612b8257600080fd5b50612b8f88828901612978565b9598949750949560608101359550608001359392505050565b600060208284031215612bba57600080fd5b5035919050565b600060208284031215612bd357600080fd5b5051919050565b600060208284031215612bec57600080fd5b813560ff81168114612bfd57600080fd5b9392505050565b60068110612c2257634e487b7160e01b600052602160045260246000fd5b9052565b6000815180845260005b81811015612c4c57602081850181015186830182015201612c30565b81811115612c5e576000602083870101525b50601f01601f19169290920160200192915050565b6001600160a01b03858116825284811660208301528316604082015260808101612ca06060830184612c04565b95945050505050565b6001600160a01b0386811682528581166020830152841660408201526060810183905260a08101612cdd6080830184612c04565b9695505050505050565b6001600160a01b038a811682528916602082015261012060408201819052600090612d148382018b612c26565b90508281036060840152612d28818a612c26565b90508281036080840152612d3c8189612c26565b60a0840197909752505060ff93841660c08201529190921660e08201529015156101009091015295945050505050565b602081016128298284612c04565b602081526000612bfd6020830184612c26565b6000610100808352612da18184018c612c26565b90508281036020840152612db5818b612c26565b604084019990995250506060810195909552608085019390935260a084019190915260c08301526001600160a01b031660e09091015292915050565b60208082526027908201527f557365722068617320616c726561647920766f74656420666f722074686973206040820152666469737075746560c81b606082015260800190565b60208082526033908201527f556e61626c6520746f20637265617465206469737075746520776974682063756040820152727272656e742072656e74616c2073746174757360681b606082015260800190565b6020808252602a908201527f4f776e6572206973206e6f7420656c696769626c6520746f20766f746520666f6040820152697220646973707574657360b01b606082015260800190565b6020808252602b908201527f52656e746572206973206e6f7420656c696769626c6520746f20766f7465206660408201526a6f7220646973707574657360a81b606082015260800190565b6020808252601e908201527f4d6574686f64206973207265737472696374656420746f2052656e7465720000604082015260600190565b6020808252601d908201527f4d6574686f64206973207265737472696374656420746f204f776e6572000000604082015260600190565b6020808252602d908201527f56616c7565207472616e736665726564206e6f7420657175616c20746f20726560408201526c1c5d5a5c995908185b5bdd5b9d609a1b606082015260800190565b604051601f8201601f1916810167ffffffffffffffff811182821017156130045761300461317a565b604052919050565b6000821982111561301f5761301f61314e565b500190565b60008261304157634e487b7160e01b600052601260045260246000fd5b500490565b60008160001904831182151516156130605761306061314e565b500290565b600060ff821660ff84168160ff04811182151516156130865761308661314e565b029392505050565b6000828210156130a0576130a061314e565b500390565b600060ff8216806130b8576130b861314e565b6000190192915050565b600181811c908216806130d657607f821691505b602082108114156130f757634e487b7160e01b600052602260045260246000fd5b50919050565b60006000198214156131115761311161314e565b5060010190565b600060ff821660ff81141561312f5761312f61314e565b60010192915050565b634e487b7160e01b600052600160045260246000fd5b634e487b7160e01b600052601160045260246000fd5b634e487b7160e01b600052602160045260246000fd5b634e487b7160e01b600052604160045260246000fdfe556e61626c6520746f20636c61696d207061796d656e74207769746820637572a26469706673582212203138077de8111e5677a06599d1ecd794a978c6ab186839f981a90b208af5e7fe64736f6c63430008070033608060405234801561001057600080fd5b50610701806100206000396000f3fe608060405234801561001057600080fd5b506004361061004c5760003560e01c806326d27337146100515780634a58a14a1461007a5780638dfd0b031461009b578063f76f950e146100ae575b600080fd5b61006461005f366004610395565b6100c1565b6040516100719190610400565b60405180910390f35b61008d6100883660046103de565b610208565b604051908152602001610071565b61008d6100a93660046103c5565b610246565b6100646100bc3660046103c5565b610256565b60408051602880825260608281019093526000919060208201818036833701905050905060005b60148110156102015760006100fe8260136105f3565b6101099060086105b3565b61011490600261050b565b610127906001600160a01b038716610492565b60f81b9050600060108260f81c61013e91906104a6565b60f81b905060008160f81c601061015591906105d2565b8360f81c610163919061060a565b60f81b90506101718261035f565b8561017d8660026105b3565b8151811061018d5761018d61069f565b60200101906001600160f81b031916908160001a9053506101ad8161035f565b856101b98660026105b3565b6101c4906001610455565b815181106101d4576101d461069f565b60200101906001600160f81b031916908160001a90535050505080806101f990610644565b9150506100e8565b5092915050565b60008061021584846105f3565b905060006018603c6102278185610492565b6102319190610492565b61023b9190610492565b925050505b92915050565b600061024082633b9aca006105b3565b60608161027a5750506040805180820190915260018152600360fc1b602082015290565b8160005b81156102a4578061028e81610644565b915061029d9050600a83610492565b915061027e565b60008167ffffffffffffffff8111156102bf576102bf6106b5565b6040519080825280601f01601f1916602001820160405280156102e9576020820181803683370190505b508593509050815b831561035657610302600a8561065f565b61030d906030610455565b60f81b8261031a8361062d565b9250828151811061032d5761032d61069f565b60200101906001600160f81b031916908160001a90535061034f600a85610492565b93506102f1565b50949350505050565b6000600a60f883901c10156103865761037d60f883901c603061046d565b60f81b92915050565b61037d60f883901c605761046d565b6000602082840312156103a757600080fd5b81356001600160a01b03811681146103be57600080fd5b9392505050565b6000602082840312156103d757600080fd5b5035919050565b600080604083850312156103f157600080fd5b50508035926020909101359150565b600060208083528351808285015260005b8181101561042d57858101830151858201604001528201610411565b8181111561043f576000604083870101525b50601f01601f1916929092016040019392505050565b6000821982111561046857610468610673565b500190565b600060ff821660ff84168060ff0382111561048a5761048a610673565b019392505050565b6000826104a1576104a1610689565b500490565b600060ff8316806104b9576104b9610689565b8060ff84160491505092915050565b600181815b808511156105035781600019048211156104e9576104e9610673565b808516156104f657918102915b93841c93908002906104cd565b509250929050565b60006103be838360008261052157506001610240565b8161052e57506000610240565b8160018114610544576002811461054e5761056a565b6001915050610240565b60ff84111561055f5761055f610673565b50506001821b610240565b5060208310610133831016604e8410600b841016171561058d575081810a610240565b61059783836104c8565b80600019048211156105ab576105ab610673565b029392505050565b60008160001904831182151516156105cd576105cd610673565b500290565b600060ff821660ff84168160ff04811182151516156105ab576105ab610673565b60008282101561060557610605610673565b500390565b600060ff821660ff84168082101561062457610624610673565b90039392505050565b60008161063c5761063c610673565b506000190190565b600060001982141561065857610658610673565b5060010190565b60008261066e5761066e610689565b500690565b634e487b7160e01b600052601160045260246000fd5b634e487b7160e01b600052601260045260246000fd5b634e487b7160e01b600052603260045260246000fd5b634e487b7160e01b600052604160045260246000fdfea26469706673582212201013252d1d487a7ff2270fa35371ae3720cfb07e886273c8aeb31fddf14f2b0164736f6c63430008070033",
  "immutableReferences": {},
  "source": "// SPDX-License-Identifier: GPL-3.0\n\npragma solidity >=0.7.0 <0.9.0;\n\nimport \"./Item.sol\";\nimport \"./helpers/Utils.sol\";\n\ncontract Rental {\n    Utils utils = new Utils();\n\n    enum RentalStatus {\n        CREATED,\n        RENTED,\n        RETURNED,\n        END,\n        OWNERDISPUTE,\n        RENTERDISPUTE\n    }\n\n    struct Dispute {\n        string title;\n        string description;\n        string[] mediaIPFSHashes;\n        uint256 compensationAmount; // a value less than owner deposit and renter deposit\n        uint256 totalIncentive; // user has to pay the amount of incentive as deposit when open a dispute\n        uint256 startTime;\n        uint256 approvalCount;\n        mapping(uint256 => address payable) approversList;\n        mapping(address => bool) isApprover;\n        uint256 rejectionCount;\n        mapping(uint256 => address payable) rejectersList;\n        mapping(address => bool) isRejecter;\n        address payable creator;\n    }\n\n    //--All fees unit are in gwei--//\n\n    address public itemContract;\n    Item public item;\n    Item.ItemDetails public itemDetails;\n    uint256 public rentPerDay;\n    uint8 public maxAllowableLateDays;\n    uint8 public multipleForLateFees;\n\n    RentalStatus public rentalStatus;\n    address payable public renterAddress;\n    address public renterUserContract;\n    uint256 public renterDeposit;\n    uint256 public start;\n    uint256 public end;\n    string[] public renterProofOfReturn; // IPFS hashes\n\n    uint256 public rentalFees;\n    uint256 public paidRentalFees;\n    uint256 public remainingRentalFees;\n    uint256 public claimableRentalFees;\n    uint256 public claimedRentalFees;\n    uint8 public numInstallment;\n    uint8 public remainingNumInstallment;\n\n    address payable public ownerAddress;\n    address public ownerUserContract;\n    uint256 public ownerDeposit;\n    string[] public ownerProofOfTransfer; // IPFS hashes\n\n    mapping(uint8 => Dispute) public disputes;\n    uint8 public disputeCount;\n    uint8 public disputePeriod = 3; // dispute will last for 3 days\n\n    event rentalContractCreated(\n        address renterUserContract,\n        address renterAddress,\n        address rentalContract,\n        uint256 renterDepositInGwei\n    );\n\n    event itemRented(\n        address itemContract,\n        address renterAddress,\n        address ownerAddress,\n        uint256 ownerDepositInGwei,\n        RentalStatus rentalStatus\n    );\n\n    event itemReturned(\n        address itemContract,\n        address renterAddress,\n        address ownerAddress,\n        RentalStatus rentalStatus\n    );\n\n    event rentalEnded(address itemContract, address rentalContract);\n\n    event lateFeesPaid(\n        address itemContract,\n        address rentalContract,\n        address renterUserContract,\n        uint256 lateFeesInGwei\n    );\n\n    constructor(\n        address _itemContract,\n        address _renterUserContract,\n        address payable _renterAddress,\n        uint256 _rentalFees,\n        uint256 _renterDeposit,\n        uint256 _start,\n        uint256 _end,\n        uint8 _numInstallment\n    ) payable {\n        require(\n            msg.value == utils.gweiToWei(_renterDeposit),\n            \"Value transfered is less than required amount\"\n        );\n\n        itemContract = _itemContract;\n        item = Item(_itemContract);\n        itemDetails = item.getItemDetails();\n        rentPerDay = itemDetails.rentPerDay;\n        maxAllowableLateDays = itemDetails.maxAllowableLateDays;\n        multipleForLateFees = itemDetails.multipleForLateFees;\n        ownerUserContract = itemDetails.ownerUserContract;\n        ownerAddress = itemDetails.ownerAddress;\n\n        rentalStatus = RentalStatus.CREATED;\n        renterUserContract = _renterUserContract;\n        renterAddress = _renterAddress;\n        renterDeposit = _renterDeposit;\n        start = _start;\n        end = _end;\n\n        rentalFees = _rentalFees;\n        numInstallment = _numInstallment;\n        remainingNumInstallment = _numInstallment;\n        remainingRentalFees = _rentalFees;\n        paidRentalFees = 0;\n        claimedRentalFees = 0;\n\n        emit rentalContractCreated(\n            _renterUserContract,\n            _renterAddress,\n            address(this),\n            _renterDeposit\n        );\n    }\n\n    modifier onlyOwner() {\n        require(msg.sender == ownerAddress, \"Method is restricted to Owner\");\n        _;\n    }\n\n    modifier onlyRenter() {\n        require(msg.sender == renterAddress, \"Method is restricted to Renter\");\n        _;\n    }\n\n    modifier correctFinalInstallmentValue(uint256 _amount) {\n        if (remainingNumInstallment == 1) {\n            require(utils.gweiToWei(_amount) == remainingRentalFees);\n        }\n        _;\n    }\n\n    modifier validVoter(Dispute storage _dispute) {\n        require(\n            msg.sender != ownerAddress,\n            \"Owner is not eligible to vote for disputes\"\n        );\n        require(\n            msg.sender != renterAddress,\n            \"Renter is not eligible to vote for disputes\"\n        );\n        require(\n            !_dispute.isApprover[msg.sender],\n            \"User has already voted for this dispute\"\n        );\n        require(\n            !_dispute.isRejecter[msg.sender],\n            \"User has already voted for this dispute\"\n        );\n        _;\n    }\n\n    modifier onlyDisputeCreator(Dispute storage _dispute) {\n        require(\n            msg.sender == _dispute.creator,\n            \"Only dispute creater can resolve dispute\"\n        );\n        _;\n    }\n\n    function uploadOwnerProofOfTransferAndPayDeposit(\n        string[] memory _ownerProofOfTransfer,\n        uint256 _ownerDeposit\n    ) public payable onlyOwner {\n        require(\n            msg.value == utils.gweiToWei(_ownerDeposit),\n            \"Value transfered is less than required amount\"\n        );\n        require(\n            rentalStatus == RentalStatus.CREATED,\n            \"Invalid rental status for method\"\n        );\n\n        ownerDeposit = _ownerDeposit;\n        ownerProofOfTransfer = _ownerProofOfTransfer;\n        rentalStatus = RentalStatus.RENTED;\n\n        emit itemRented(\n            itemContract,\n            renterAddress,\n            ownerAddress,\n            ownerDeposit,\n            rentalStatus\n        );\n    }\n\n    function uploadRenterProofOfReturn(string[] memory _renterProofOfReturn)\n        public\n        onlyRenter\n    {\n        require(\n            remainingRentalFees == 0,\n            \"All fees have to be paid before returning\"\n        );\n\n        renterProofOfReturn = _renterProofOfReturn;\n        rentalStatus = RentalStatus.RETURNED;\n\n        emit itemReturned(\n            itemContract,\n            renterAddress,\n            ownerAddress,\n            rentalStatus\n        );\n    }\n\n    function payRentalInstallment(uint256 _amount)\n        public\n        payable\n        onlyRenter\n        correctFinalInstallmentValue(_amount)\n    {\n        require(\n            msg.value == utils.gweiToWei(_amount),\n            \"Value transfered not equal to required amount\"\n        );\n        paidRentalFees += _amount;\n        remainingRentalFees -= _amount;\n        remainingNumInstallment--;\n        assert(rentalFees == paidRentalFees + remainingRentalFees);\n\n        claimableRentalFees += _amount;\n    }\n\n    function claimRentalFees() public onlyOwner {\n        require(claimableRentalFees > 0, \"There is no claimable rental fees\");\n        require(\n            rentalStatus != RentalStatus.OWNERDISPUTE,\n            \"Unable to claim payment with current rental status, rental status is ON OWNER DISPUTE\"\n        );\n        require(\n            rentalStatus != RentalStatus.RENTERDISPUTE,\n            \"Unable to claim payment with current rental status, rental status is ON RENTER DISPUTE\"\n        );\n        require(\n            rentalStatus != RentalStatus.END,\n            \"Unable to claim payment with current rental status, rental status is END\"\n        );\n\n        ownerAddress.transfer(utils.gweiToWei(claimableRentalFees));\n        claimedRentalFees += claimableRentalFees;\n        claimableRentalFees = 0;\n    }\n\n    // claim owner's deposit and return renter's deposit\n    function settleDeposit() public onlyOwner {\n        require(\n            rentalStatus == RentalStatus.RETURNED,\n            \"Unable to claim payment with current rental status\"\n        );\n        require(\n            ownerDeposit > 0 || renterDeposit > 0,\n            \"No remaining deposit to claim\"\n        );\n        require(\n            remainingRentalFees == 0,\n            \"Rental fees has not been fully settled by renter\"\n        );\n        require(paidRentalFees == rentalFees);\n        require(\n            claimedRentalFees == rentalFees,\n            \"Rental fees has not been fully claimed by owner\"\n        );\n\n        if (ownerDeposit > 0) {\n            ownerAddress.transfer(utils.gweiToWei(ownerDeposit));\n        }\n\n        if (renterDeposit > 0) {\n            renterAddress.transfer(utils.gweiToWei(renterDeposit));\n        }\n\n        assert(address(this).balance == 0);\n        rentalStatus = RentalStatus.END;\n\n        emit rentalEnded(itemContract, address(this));\n    }\n\n    function payLateFees(uint256 _lateFees) public payable onlyRenter {\n        require(\n            block.timestamp > end,\n            \"Unable to pay late fees before rental end date\"\n        );\n        require(\n            utils.getDaysBetween(end, block.timestamp) <= 5,\n            \"Unable to pay late fees 5 days later than rental end date\"\n        );\n        require(\n            msg.value == utils.gweiToWei(_lateFees),\n            \"Value transfered is not euqal to required amount\"\n        );\n\n        emit lateFeesPaid(\n            itemContract,\n            address(this),\n            renterUserContract,\n            _lateFees\n        );\n    }\n\n    function settleRentalAfterFiveLateDays() public payable onlyOwner {\n        require(\n            block.timestamp > end + 5 * 24 * 60 * 60,\n            \"Unable to settle rental before 5 late days\"\n        );\n        require(\n            rentalStatus == RentalStatus.RENTED,\n            \"Unable to settle rental with current rental status\"\n        );\n\n        rentalStatus = RentalStatus.END;\n        item.changeItemStatus(2); // DELETED\n\n        // transfer all balance in the contract to owner\n        ownerAddress.transfer(address(this).balance);\n    }\n\n    // status == returned: if owner thinks that prove of return is fake\n    // or if owner thinks that item is damaged\n    function createOwnerDispute(\n        string memory _title,\n        string memory _description,\n        string[] memory _mediaIPFSHashes,\n        uint256 _compensationAmount,\n        uint256 _totalIncentive\n    ) public payable onlyOwner {\n        require(\n            msg.value == utils.gweiToWei(_totalIncentive),\n            \"Value transfered not equal to required amount\"\n        );\n        require(\n            rentalStatus == RentalStatus.RETURNED,\n            \"Unable to create dispute with current rental status\"\n        );\n        require(\n            _compensationAmount < renterDeposit,\n            \"Compensation requested by owner must be lower than renter's deposit\"\n        );\n\n        rentalStatus = RentalStatus.OWNERDISPUTE;\n\n        Dispute storage newDispute = disputes[disputeCount];\n        newDispute.title = _title;\n        newDispute.description = _description;\n        newDispute.mediaIPFSHashes = _mediaIPFSHashes;\n        newDispute.compensationAmount = _compensationAmount;\n        newDispute.totalIncentive = _totalIncentive;\n        newDispute.startTime = block.timestamp;\n        newDispute.approvalCount = 0;\n        newDispute.rejectionCount = 0;\n        newDispute.creator = payable(msg.sender);\n\n        disputeCount++;\n    }\n\n    // status == rented: if renter thinks that prove of transfer is fake\n    function createRenterDispute(\n        string memory _title,\n        string memory _description,\n        string[] memory _mediaIPFSHashes,\n        uint256 _compensationAmount,\n        uint256 _totalIncentive\n    ) public payable onlyRenter {\n        require(\n            msg.value == utils.gweiToWei(_totalIncentive),\n            \"Value transfered not equal to required amount\"\n        );\n        require(\n            rentalStatus == RentalStatus.RENTED,\n            \"Unable to create dispute with current rental status\"\n        );\n        require(\n            _compensationAmount < ownerDeposit,\n            \"Compensation requested by renter must be lower than owner's deposit\"\n        );\n\n        rentalStatus = RentalStatus.RENTERDISPUTE;\n\n        Dispute storage newDispute = disputes[disputeCount];\n        newDispute.title = _title;\n        newDispute.description = _description;\n        newDispute.mediaIPFSHashes = _mediaIPFSHashes;\n        newDispute.compensationAmount = _compensationAmount;\n        newDispute.totalIncentive = _totalIncentive;\n        newDispute.startTime = block.timestamp;\n        newDispute.approvalCount = 0;\n        newDispute.rejectionCount = 0;\n        newDispute.creator = payable(msg.sender);\n\n        disputeCount++;\n    }\n\n    function approveDispute(uint8 _disputeIndex)\n        public\n        validVoter(disputes[_disputeIndex])\n    {\n        Dispute storage dispute = disputes[_disputeIndex];\n\n        dispute.approversList[dispute.approvalCount] = payable(msg.sender);\n        dispute.isApprover[msg.sender] = true;\n        dispute.approvalCount++;\n    }\n\n    function rejectDispute(uint8 _disputeIndex)\n        public\n        validVoter(disputes[_disputeIndex])\n    {\n        Dispute storage dispute = disputes[_disputeIndex];\n\n        dispute.rejectersList[dispute.rejectionCount] = payable(msg.sender);\n        dispute.isRejecter[msg.sender] = true;\n        dispute.rejectionCount++;\n    }\n\n    function resolveDispute(uint8 _disputeIndex)\n        public\n        payable\n        onlyDisputeCreator(disputes[_disputeIndex])\n    {\n        require(\n            rentalStatus == RentalStatus.OWNERDISPUTE ||\n                rentalStatus == RentalStatus.RENTERDISPUTE,\n            \"Unable to resolve dispute with current rental status\"\n        );\n        Dispute storage dispute = disputes[_disputeIndex];\n        require(\n            block.timestamp >= dispute.startTime + disputePeriod * 24 * 60 * 60\n        );\n\n        uint256 remainingIncentive = dispute.totalIncentive;\n        uint256 paidIncentive = 0;\n\n        // if dispute is approved\n        if (\n            dispute.approvalCount >\n            ((dispute.approvalCount + dispute.rejectionCount) / 10) * 6\n        ) {\n            // pay incentive to voters who accepted the dispute\n            for (uint256 i; i < dispute.approvalCount; i++) {\n                uint256 payoutIncentive = calculatePayoutIncentive(\n                    remainingIncentive\n                );\n                dispute.approversList[i].transfer(\n                    utils.gweiToWei(payoutIncentive)\n                );\n                paidIncentive = paidIncentive + payoutIncentive;\n                remainingIncentive = remainingIncentive - payoutIncentive;\n            }\n            // pay compensation to dispute creator with renter deposit\n            dispute.creator.transfer(\n                utils.gweiToWei(dispute.compensationAmount)\n            );\n            renterDeposit = renterDeposit - dispute.compensationAmount;\n        }\n        // if dispute is rejected\n        else {\n            // pay incentive to voters who rejected the dispute\n            for (uint256 i; i < dispute.rejectionCount; i++) {\n                uint256 payoutIncentive = calculatePayoutIncentive(\n                    remainingIncentive\n                );\n                dispute.rejectersList[i].transfer(\n                    utils.gweiToWei(payoutIncentive)\n                );\n                paidIncentive = paidIncentive + payoutIncentive;\n                remainingIncentive = remainingIncentive - payoutIncentive;\n            }\n        }\n\n        assert(remainingIncentive == dispute.totalIncentive - paidIncentive);\n        // return remaining incentive to dispute creater\n        dispute.creator.transfer(utils.gweiToWei(remainingIncentive));\n\n        if (dispute.creator == renterAddress) {\n            rentalStatus = RentalStatus.RENTED;\n        } else if (dispute.creator == ownerAddress) {\n            rentalStatus = RentalStatus.RETURNED;\n        }\n    }\n\n    //----------------------------------helpers-------------------------------------//\n    function calculatePayoutIncentive(uint256 _incentive)\n        internal\n        pure\n        returns (uint256)\n    {\n        return (_incentive / 100) * 5;\n    }\n}\n",
  "sourcePath": "/Users/jyuteo/CodeProjects/TRent/src/contracts/Rental.sol",
  "compiler": {
    "name": "solc",
    "version": "0.8.7+commit.e28d00a7.Emscripten.clang"
  },
  "schemaVersion": "3.4.3",
  "updatedAt": "2021-09-06T15:21:27.256Z",
  "devdoc": {
    "kind": "dev",
    "methods": {},
    "version": 1
  },
  "userdoc": {
    "kind": "user",
    "methods": {},
    "version": 1
  }
}