{
  "contractName": "Rental",
  "abi": [
    {
      "inputs": [
        {
          "internalType": "address",
          "name": "_itemContract",
          "type": "address"
        },
        {
          "internalType": "address",
          "name": "_renterUserContract",
          "type": "address"
        },
        {
          "internalType": "address payable",
          "name": "_renterAddress",
          "type": "address"
        },
        {
          "internalType": "uint256",
          "name": "_rentalFees",
          "type": "uint256"
        },
        {
          "internalType": "uint256",
          "name": "_renterDeposit",
          "type": "uint256"
        },
        {
          "internalType": "uint256",
          "name": "_start",
          "type": "uint256"
        },
        {
          "internalType": "uint256",
          "name": "_end",
          "type": "uint256"
        },
        {
          "internalType": "uint8",
          "name": "_numInstallment",
          "type": "uint8"
        }
      ],
      "stateMutability": "payable",
      "type": "constructor"
    },
    {
      "anonymous": false,
      "inputs": [
        {
          "indexed": false,
          "internalType": "address",
          "name": "itemContract",
          "type": "address"
        },
        {
          "indexed": false,
          "internalType": "address",
          "name": "renterAddress",
          "type": "address"
        },
        {
          "indexed": false,
          "internalType": "address",
          "name": "ownerAddress",
          "type": "address"
        },
        {
          "indexed": false,
          "internalType": "uint256",
          "name": "ownerDeposit",
          "type": "uint256"
        },
        {
          "indexed": false,
          "internalType": "enum Rental.RentalStatus",
          "name": "rentalStatus",
          "type": "uint8"
        }
      ],
      "name": "itemRented",
      "type": "event"
    },
    {
      "anonymous": false,
      "inputs": [
        {
          "indexed": false,
          "internalType": "address",
          "name": "itemContract",
          "type": "address"
        },
        {
          "indexed": false,
          "internalType": "address",
          "name": "renterAddress",
          "type": "address"
        },
        {
          "indexed": false,
          "internalType": "address",
          "name": "ownerAddress",
          "type": "address"
        },
        {
          "indexed": false,
          "internalType": "enum Rental.RentalStatus",
          "name": "rentalStatus",
          "type": "uint8"
        }
      ],
      "name": "itemReturned",
      "type": "event"
    },
    {
      "anonymous": false,
      "inputs": [
        {
          "indexed": false,
          "internalType": "address",
          "name": "itemContract",
          "type": "address"
        },
        {
          "indexed": false,
          "internalType": "address",
          "name": "rentalContract",
          "type": "address"
        },
        {
          "indexed": false,
          "internalType": "address",
          "name": "renterUserContract",
          "type": "address"
        },
        {
          "indexed": false,
          "internalType": "uint256",
          "name": "lateFees",
          "type": "uint256"
        }
      ],
      "name": "lateFeesPaid",
      "type": "event"
    },
    {
      "anonymous": false,
      "inputs": [
        {
          "indexed": false,
          "internalType": "address",
          "name": "renterUserContract",
          "type": "address"
        },
        {
          "indexed": false,
          "internalType": "address",
          "name": "renterAddress",
          "type": "address"
        },
        {
          "indexed": false,
          "internalType": "address",
          "name": "rentalContract",
          "type": "address"
        },
        {
          "indexed": false,
          "internalType": "uint256",
          "name": "renterDeposit",
          "type": "uint256"
        }
      ],
      "name": "rentalContractCreated",
      "type": "event"
    },
    {
      "anonymous": false,
      "inputs": [
        {
          "indexed": false,
          "internalType": "address",
          "name": "itemContract",
          "type": "address"
        },
        {
          "indexed": false,
          "internalType": "address",
          "name": "rentalContract",
          "type": "address"
        }
      ],
      "name": "rentalEnded",
      "type": "event"
    },
    {
      "inputs": [],
      "name": "claimableRentalFees",
      "outputs": [
        {
          "internalType": "uint256",
          "name": "",
          "type": "uint256"
        }
      ],
      "stateMutability": "view",
      "type": "function"
    },
    {
      "inputs": [],
      "name": "claimedRentalFees",
      "outputs": [
        {
          "internalType": "uint256",
          "name": "",
          "type": "uint256"
        }
      ],
      "stateMutability": "view",
      "type": "function"
    },
    {
      "inputs": [],
      "name": "end",
      "outputs": [
        {
          "internalType": "uint256",
          "name": "",
          "type": "uint256"
        }
      ],
      "stateMutability": "view",
      "type": "function"
    },
    {
      "inputs": [],
      "name": "item",
      "outputs": [
        {
          "internalType": "contract Item",
          "name": "",
          "type": "address"
        }
      ],
      "stateMutability": "view",
      "type": "function"
    },
    {
      "inputs": [],
      "name": "itemContract",
      "outputs": [
        {
          "internalType": "address",
          "name": "",
          "type": "address"
        }
      ],
      "stateMutability": "view",
      "type": "function"
    },
    {
      "inputs": [],
      "name": "itemDetails",
      "outputs": [
        {
          "internalType": "address",
          "name": "ownerUserContract",
          "type": "address"
        },
        {
          "internalType": "address payable",
          "name": "ownerAddress",
          "type": "address"
        },
        {
          "internalType": "string",
          "name": "name",
          "type": "string"
        },
        {
          "internalType": "string",
          "name": "collectionOrReturnAddress",
          "type": "string"
        },
        {
          "internalType": "string",
          "name": "description",
          "type": "string"
        },
        {
          "internalType": "uint256",
          "name": "rentPerDay",
          "type": "uint256"
        },
        {
          "internalType": "uint8",
          "name": "maxAllowableLateDays",
          "type": "uint8"
        },
        {
          "internalType": "uint8",
          "name": "multipleForLateFees",
          "type": "uint8"
        },
        {
          "internalType": "bool",
          "name": "isAvailableForRent",
          "type": "bool"
        },
        {
          "internalType": "string",
          "name": "mediaIPFSHashes",
          "type": "string"
        }
      ],
      "stateMutability": "view",
      "type": "function"
    },
    {
      "inputs": [],
      "name": "maxAllowableLateDays",
      "outputs": [
        {
          "internalType": "uint8",
          "name": "",
          "type": "uint8"
        }
      ],
      "stateMutability": "view",
      "type": "function"
    },
    {
      "inputs": [],
      "name": "multipleForLateFees",
      "outputs": [
        {
          "internalType": "uint8",
          "name": "",
          "type": "uint8"
        }
      ],
      "stateMutability": "view",
      "type": "function"
    },
    {
      "inputs": [],
      "name": "numInstallment",
      "outputs": [
        {
          "internalType": "uint8",
          "name": "",
          "type": "uint8"
        }
      ],
      "stateMutability": "view",
      "type": "function"
    },
    {
      "inputs": [],
      "name": "ownerAddress",
      "outputs": [
        {
          "internalType": "address payable",
          "name": "",
          "type": "address"
        }
      ],
      "stateMutability": "view",
      "type": "function"
    },
    {
      "inputs": [],
      "name": "ownerDeposit",
      "outputs": [
        {
          "internalType": "uint256",
          "name": "",
          "type": "uint256"
        }
      ],
      "stateMutability": "view",
      "type": "function"
    },
    {
      "inputs": [
        {
          "internalType": "uint256",
          "name": "",
          "type": "uint256"
        }
      ],
      "name": "ownerProofOfTransfer",
      "outputs": [
        {
          "internalType": "string",
          "name": "",
          "type": "string"
        }
      ],
      "stateMutability": "view",
      "type": "function"
    },
    {
      "inputs": [],
      "name": "ownerUserContract",
      "outputs": [
        {
          "internalType": "address",
          "name": "",
          "type": "address"
        }
      ],
      "stateMutability": "view",
      "type": "function"
    },
    {
      "inputs": [],
      "name": "paidRentalFees",
      "outputs": [
        {
          "internalType": "uint256",
          "name": "",
          "type": "uint256"
        }
      ],
      "stateMutability": "view",
      "type": "function"
    },
    {
      "inputs": [],
      "name": "remainingNumInstallment",
      "outputs": [
        {
          "internalType": "uint8",
          "name": "",
          "type": "uint8"
        }
      ],
      "stateMutability": "view",
      "type": "function"
    },
    {
      "inputs": [],
      "name": "remainingRentalFees",
      "outputs": [
        {
          "internalType": "uint256",
          "name": "",
          "type": "uint256"
        }
      ],
      "stateMutability": "view",
      "type": "function"
    },
    {
      "inputs": [],
      "name": "rentPerDay",
      "outputs": [
        {
          "internalType": "uint256",
          "name": "",
          "type": "uint256"
        }
      ],
      "stateMutability": "view",
      "type": "function"
    },
    {
      "inputs": [],
      "name": "rentalFees",
      "outputs": [
        {
          "internalType": "uint256",
          "name": "",
          "type": "uint256"
        }
      ],
      "stateMutability": "view",
      "type": "function"
    },
    {
      "inputs": [],
      "name": "rentalStatus",
      "outputs": [
        {
          "internalType": "enum Rental.RentalStatus",
          "name": "",
          "type": "uint8"
        }
      ],
      "stateMutability": "view",
      "type": "function"
    },
    {
      "inputs": [],
      "name": "renterAddress",
      "outputs": [
        {
          "internalType": "address payable",
          "name": "",
          "type": "address"
        }
      ],
      "stateMutability": "view",
      "type": "function"
    },
    {
      "inputs": [],
      "name": "renterDeposit",
      "outputs": [
        {
          "internalType": "uint256",
          "name": "",
          "type": "uint256"
        }
      ],
      "stateMutability": "view",
      "type": "function"
    },
    {
      "inputs": [
        {
          "internalType": "uint256",
          "name": "",
          "type": "uint256"
        }
      ],
      "name": "renterProofOfReturn",
      "outputs": [
        {
          "internalType": "string",
          "name": "",
          "type": "string"
        }
      ],
      "stateMutability": "view",
      "type": "function"
    },
    {
      "inputs": [],
      "name": "renterUserContract",
      "outputs": [
        {
          "internalType": "address",
          "name": "",
          "type": "address"
        }
      ],
      "stateMutability": "view",
      "type": "function"
    },
    {
      "inputs": [],
      "name": "start",
      "outputs": [
        {
          "internalType": "uint256",
          "name": "",
          "type": "uint256"
        }
      ],
      "stateMutability": "view",
      "type": "function"
    },
    {
      "inputs": [
        {
          "internalType": "string[]",
          "name": "_ownerProofOfTransfer",
          "type": "string[]"
        },
        {
          "internalType": "uint256",
          "name": "_ownerDeposit",
          "type": "uint256"
        }
      ],
      "name": "uploadOwnerProofOfTransferAndPayDeposit",
      "outputs": [],
      "stateMutability": "payable",
      "type": "function"
    },
    {
      "inputs": [
        {
          "internalType": "string[]",
          "name": "_renterProofOfReturn",
          "type": "string[]"
        }
      ],
      "name": "uploadRenterProofOfReturn",
      "outputs": [],
      "stateMutability": "nonpayable",
      "type": "function"
    },
    {
      "inputs": [
        {
          "internalType": "uint256",
          "name": "_amount",
          "type": "uint256"
        }
      ],
      "name": "payRentalInstallment",
      "outputs": [],
      "stateMutability": "payable",
      "type": "function"
    },
    {
      "inputs": [],
      "name": "claimRentalFees",
      "outputs": [],
      "stateMutability": "nonpayable",
      "type": "function"
    },
    {
      "inputs": [],
      "name": "settleDeposit",
      "outputs": [],
      "stateMutability": "nonpayable",
      "type": "function"
    },
    {
      "inputs": [
        {
          "internalType": "uint256",
          "name": "_lateFees",
          "type": "uint256"
        }
      ],
      "name": "payLateFees",
      "outputs": [],
      "stateMutability": "payable",
      "type": "function"
    },
    {
      "inputs": [
        {
          "internalType": "uint256",
          "name": "_time1",
          "type": "uint256"
        },
        {
          "internalType": "uint256",
          "name": "_time2",
          "type": "uint256"
        }
      ],
      "name": "getDaysBetween",
      "outputs": [
        {
          "internalType": "uint256",
          "name": "",
          "type": "uint256"
        }
      ],
      "stateMutability": "pure",
      "type": "function"
    }
  ],
  "bytecode": "0x60806040526040516200208d3803806200208d8339810160408190526200002691620004f1565b833414620000905760405162461bcd60e51b815260206004820152602d60248201527f56616c7565207472616e736665726564206973206c657373207468616e20726560448201526c1c5d5a5c995908185b5bdd5b9d609a1b606482015260840160405180910390fd5b600080546001600160a01b038a166001600160a01b03199182168117835560018054909216811790915560408051637c81d12360e01b815290519192637c81d12392600480840193829003018186803b158015620000ed57600080fd5b505afa15801562000102573d6000803e3d6000fd5b505050506040513d6000823e601f3d908101601f191682016040526200012c91908101906200057f565b8051600280546001600160a01b03199081166001600160a01b039384161782556020808501516003805490931694169390931790556040830151805191926200017c926004929091019062000381565b50606082015180516200019a91600384019160209091019062000381565b5060808201518051620001b891600484019160209091019062000381565b5060a0820151600582015560c082015160068201805460e0850151610100808701511515620100000262ff00001960ff93841690920261ffff199094169290951691909117919091171691909117905561012082015180516200022691600784019160209091019062000381565b5050600754600a5550600854600b805461010080840460ff90811690910261ffff1990921693169290921791909117808255600254601780546001600160a01b0319166001600160a01b03928316179055600354601680546201000092909316820262010000600160b01b0319909316929092179091556000929162ff0000191690830217905550600c80546001600160a01b0319166001600160a01b03898116918217909255600b80546301000000600160b81b0319166301000000938a16938402179055600d869055600e859055600f84905560118790556016805461ffff191660ff85169081176101009091021790556013879055600060128190556015556040805191825260208201929092523091810191909152606081018590527ff2ba2250ad19f9c3d940ca2bec423c98f22d51baf1bbbf35e1d7ec34f8afb9219060800160405180910390a15050505050505050620007a2565b8280546200038f9062000736565b90600052602060002090601f016020900481019282620003b35760008555620003fe565b82601f10620003ce57805160ff1916838001178555620003fe565b82800160010185558215620003fe579182015b82811115620003fe578251825591602001919060010190620003e1565b506200040c92915062000410565b5090565b5b808211156200040c576000815560010162000411565b8051620004348162000789565b919050565b805180151581146200043457600080fd5b600082601f8301126200045c57600080fd5b81516001600160401b0381111562000478576200047862000773565b60206200048e601f8301601f1916820162000703565b8281528582848701011115620004a357600080fd5b60005b83811015620004c3578581018301518282018401528201620004a6565b83811115620004d55760008385840101525b5095945050505050565b805160ff811681146200043457600080fd5b600080600080600080600080610100898b0312156200050f57600080fd5b88516200051c8162000789565b60208a01519098506200052f8162000789565b60408a0151909750620005428162000789565b80965050606089015194506080890151935060a0890151925060c089015191506200057060e08a01620004df565b90509295985092959890939650565b6000602082840312156200059257600080fd5b81516001600160401b0380821115620005aa57600080fd5b908301906101408286031215620005c057600080fd5b620005ca620006d7565b620005d58362000427565b8152620005e56020840162000427565b6020820152604083015182811115620005fd57600080fd5b6200060b878286016200044a565b6040830152506060830151828111156200062457600080fd5b62000632878286016200044a565b6060830152506080830151828111156200064b57600080fd5b62000659878286016200044a565b60808301525060a083015160a08201526200067760c08401620004df565b60c08201526200068a60e08401620004df565b60e08201526101006200069f81850162000439565b908201526101208381015183811115620006b857600080fd5b620006c6888287016200044a565b918301919091525095945050505050565b60405161014081016001600160401b0381118282101715620006fd57620006fd62000773565b60405290565b604051601f8201601f191681016001600160401b03811182821017156200072e576200072e62000773565b604052919050565b600181811c908216806200074b57607f821691505b602082108114156200076d57634e487b7160e01b600052602260045260246000fd5b50919050565b634e487b7160e01b600052604160045260246000fd5b6001600160a01b03811681146200079f57600080fd5b50565b6118db80620007b26000396000f3fe6080604052600436106101d85760003560e01c80639c29a3ed11610102578063d46c9fc711610095578063f030486011610064578063f03048601461051d578063f2a4a82e14610533578063fe55029d14610553578063ff3522cf1461056957600080fd5b8063d46c9fc7146104b2578063dce59d10146104d1578063e1109305146104f1578063efbe1c1c1461050757600080fd5b8063a8237b87116100d1578063a8237b8714610454578063baa75f3914610474578063be9a655514610487578063c7abd0921461049d57600080fd5b80639c29a3ed146103d85780639e6aadc3146103f8578063a2d1d11c1461041f578063a6bc22011461043557600080fd5b8063676b96831161017a5780638b3a16a2116101495780638b3a16a21461034e5780638d76f940146103645780638f84aa091461039c57806395afe398146103c257600080fd5b8063676b9683146102ce5780637b1aa45f146102fa57806382770a431461031057806385411c8e1461033b57600080fd5b80633fe8351a116101b65780633fe8351a146102605780634a58a14a146102755780634f4687ea146102a3578063559ec80d146102b957600080fd5b806307e353e9146101dd57806331d019b7146102135780633d99b56a14610240575b600080fd5b3480156101e957600080fd5b506101fd6101f83660046114d1565b610583565b60405161020a9190611699565b60405180910390f35b34801561021f57600080fd5b50600b546102339062010000900460ff1681565b60405161020a919061168b565b34801561024c57600080fd5b506101fd61025b3660046114d1565b61062f565b61027361026e3660046114d1565b61063f565b005b34801561028157600080fd5b506102956102903660046114ea565b610708565b60405190815260200161020a565b3480156102af57600080fd5b5061029560115481565b3480156102c557600080fd5b50610273610746565b3480156102da57600080fd5b506016546102e89060ff1681565b60405160ff909116815260200161020a565b34801561030657600080fd5b5061029560185481565b34801561031c57600080fd5b506103256109f4565b60405161020a9a999897969594939291906115ef565b61027361034936600461148c565b610c6c565b34801561035a57600080fd5b5061029560155481565b34801561037057600080fd5b50600054610384906001600160a01b031681565b6040516001600160a01b03909116815260200161020a565b3480156103a857600080fd5b50601654610384906201000090046001600160a01b031681565b3480156103ce57600080fd5b50610295600d5481565b3480156103e457600080fd5b506102736103f336600461144f565b610e01565b34801561040457600080fd5b50600b5461038490630100000090046001600160a01b031681565b34801561042b57600080fd5b5061029560125481565b34801561044157600080fd5b50600b546102e890610100900460ff1681565b34801561046057600080fd5b50600c54610384906001600160a01b031681565b6102736104823660046114d1565b610f10565b34801561049357600080fd5b50610295600e5481565b3480156104a957600080fd5b50610273611066565b3480156104be57600080fd5b506016546102e890610100900460ff1681565b3480156104dd57600080fd5b50601754610384906001600160a01b031681565b3480156104fd57600080fd5b50610295600a5481565b34801561051357600080fd5b50610295600f5481565b34801561052957600080fd5b5061029560145481565b34801561053f57600080fd5b50600154610384906001600160a01b031681565b34801561055f57600080fd5b5061029560135481565b34801561057557600080fd5b50600b546102e89060ff1681565b6010818154811061059357600080fd5b9060005260206000200160009150905080546105ae90611812565b80601f01602080910402602001604051908101604052809291908181526020018280546105da90611812565b80156106275780601f106105fc57610100808354040283529160200191610627565b820191906000526020600020905b81548152906001019060200180831161060a57829003601f168201915b505050505081565b6019818154811061059357600080fd5b600b54630100000090046001600160a01b031633146106795760405162461bcd60e51b815260040161067090611705565b60405180910390fd5b600f544211801561069657506005610693600f5442610708565b11155b61069f57600080fd5b8034146106ab57600080fd5b600054600c54604080516001600160a01b0393841681523060208201529290911690820152606081018290527fc7e341db620c84a8460b51bfba67b47879276b655ea7960928e38c956cd85344906080015b60405180910390a150565b60008061071584846117de565b905060006018603c61072781856117bc565b61073191906117bc565b61073b91906117bc565b925050505b92915050565b6016546201000090046001600160a01b031633146107765760405162461bcd60e51b81526004016106709061173c565b6002600b5462010000900460ff16600581111561079557610795611879565b146107b25760405162461bcd60e51b8152600401610670906116b3565b600060185411806107c557506000600d54115b6108115760405162461bcd60e51b815260206004820152601d60248201527f4e6f2072656d61696e696e67206465706f73697420746f20636c61696d0000006044820152606401610670565b6013541561087a5760405162461bcd60e51b815260206004820152603060248201527f52656e74616c206665657320686173206e6f74206265656e2066756c6c79207360448201526f32ba3a3632b210313c903932b73a32b960811b6064820152608401610670565b6011546012541461088a57600080fd5b601154601554146108f55760405162461bcd60e51b815260206004820152602f60248201527f52656e74616c206665657320686173206e6f74206265656e2066756c6c79206360448201526e3630b4b6b2b210313c9037bbb732b960891b6064820152608401610670565b6018541561094057601654601854604051620100009092046001600160a01b0316916108fc82150291906000818181858888f1935050505015801561093e573d6000803e3d6000fd5b505b600d541561098c57600b54600d5460405163010000009092046001600160a01b0316916108fc82150291906000818181858888f1935050505015801561098a573d6000803e3d6000fd5b505b471561099a5761099a61184d565b600b80546203000062ff000019909116179055600054604080516001600160a01b0390921682523060208301527f6a5d55ef84f2d6da57cc86de121fc1c7a8392770ff8f357998e87beb5c310491910160405180910390a1565b60028054600354600480546001600160a01b03938416949290931692610a1990611812565b80601f0160208091040260200160405190810160405280929190818152602001828054610a4590611812565b8015610a925780601f10610a6757610100808354040283529160200191610a92565b820191906000526020600020905b815481529060010190602001808311610a7557829003601f168201915b505050505090806003018054610aa790611812565b80601f0160208091040260200160405190810160405280929190818152602001828054610ad390611812565b8015610b205780601f10610af557610100808354040283529160200191610b20565b820191906000526020600020905b815481529060010190602001808311610b0357829003601f168201915b505050505090806004018054610b3590611812565b80601f0160208091040260200160405190810160405280929190818152602001828054610b6190611812565b8015610bae5780601f10610b8357610100808354040283529160200191610bae565b820191906000526020600020905b815481529060010190602001808311610b9157829003601f168201915b50505050600583015460068401546007850180549495929460ff808416955061010084048116946201000090940416929190610be990611812565b80601f0160208091040260200160405190810160405280929190818152602001828054610c1590611812565b8015610c625780601f10610c3757610100808354040283529160200191610c62565b820191906000526020600020905b815481529060010190602001808311610c4557829003601f168201915b505050505090508a565b6016546201000090046001600160a01b03163314610c9c5760405162461bcd60e51b81526004016106709061173c565b80341015610d025760405162461bcd60e51b815260206004820152602d60248201527f56616c7565207472616e736665726564206973206c657373207468616e20726560448201526c1c5d5a5c995908185b5bdd5b9d609a1b6064820152608401610670565b6000600b5462010000900460ff166005811115610d2157610d21611879565b14610d6e5760405162461bcd60e51b815260206004820181905260248201527f496e76616c69642072656e74616c2073746174757320666f72206d6574686f646044820152606401610670565b60188190558151610d8690601990602085019061120b565b50600b805462ff0000191662010000908117918290556000546016546018546040517f638a6fc620f125e2c5fd9c4a087a87f135f8c70a914ad7251ba015a126a6b7c295610df5956001600160a01b039586169563010000008304811695829004169392910460ff16906115b1565b60405180910390a15050565b600b54630100000090046001600160a01b03163314610e325760405162461bcd60e51b815260040161067090611705565b60135415610e8e5760405162461bcd60e51b815260206004820152602360248201527f536574746c6520616c6c207061796d656e74206265666f72652072657475726e604482015262696e6760e81b6064820152608401610670565b8051610ea190601090602084019061120b565b50600b805462ff000019166202000017908190556000546016546040517f6c3b74d4fe02e9013f2662b52aee484a1cfa6dfbe0616f21ef00227ba5c91ad2936106fd936001600160a01b0390811693630100000083048216936201000091829004909216920460ff169061157b565b600b54630100000090046001600160a01b03163314610f415760405162461bcd60e51b815260040161067090611705565b601654819060ff6101009091041660011415610f65576013548114610f6557600080fd5b813414610fca5760405162461bcd60e51b815260206004820152602d60248201527f56616c7565207472616e736665726564206e6f7420657175616c20746f20726560448201526c1c5d5a5c995908185b5bdd5b9d609a1b6064820152608401610670565b8160126000828254610fdc91906117a4565b925050819055508160136000828254610ff591906117de565b909155505060168054610100900460ff16906001611012836117f5565b91906101000a81548160ff021916908360ff1602179055505060135460125461103b91906117a4565b6011541461104b5761104b61184d565b816014600082825461105d91906117a4565b90915550505050565b6016546201000090046001600160a01b031633146110965760405162461bcd60e51b81526004016106709061173c565b6000601454116110f25760405162461bcd60e51b815260206004820152602160248201527f5468657265206973206e6f20636c61696d61626c652072656e74616c206665656044820152607360f81b6064820152608401610670565b6004600b5462010000900460ff16600581111561111157611111611879565b141561112f5760405162461bcd60e51b8152600401610670906116b3565b6005600b5462010000900460ff16600581111561114e5761114e611879565b141561116c5760405162461bcd60e51b8152600401610670906116b3565b6003600b5462010000900460ff16600581111561118b5761118b611879565b14156111a95760405162461bcd60e51b8152600401610670906116b3565b601654601454604051620100009092046001600160a01b0316916108fc82150291906000818181858888f193505050501580156111ea573d6000803e3d6000fd5b50601454601560008282546111ff91906117a4565b90915550506000601455565b828054828255906000526020600020908101928215611258579160200282015b828111156112585782518051611248918491602090910190611268565b509160200191906001019061122b565b506112649291506112e8565b5090565b82805461127490611812565b90600052602060002090601f01602090048101928261129657600085556112dc565b82601f106112af57805160ff19168380011785556112dc565b828001600101855582156112dc579182015b828111156112dc5782518255916020019190600101906112c1565b50611264929150611305565b808211156112645760006112fc828261131a565b506001016112e8565b5b808211156112645760008155600101611306565b50805461132690611812565b6000825580601f10611336575050565b601f0160209004906000526020600020908101906113549190611305565b50565b6000601f838184011261136957600080fd5b8235602067ffffffffffffffff808311156113865761138661188f565b8260051b611395838201611773565b84815283810190888501838a0186018b10156113b057600080fd5b600093505b86841015611441578035858111156113cc57600080fd5b8a01603f81018c136113dd57600080fd5b868101356040878211156113f3576113f361188f565b611404828c01601f19168a01611773565b8281528e8284860101111561141857600080fd5b828285018b83013760009281018a019290925250845250600193909301929185019185016113b5565b509998505050505050505050565b60006020828403121561146157600080fd5b813567ffffffffffffffff81111561147857600080fd5b61148484828501611357565b949350505050565b6000806040838503121561149f57600080fd5b823567ffffffffffffffff8111156114b657600080fd5b6114c285828601611357565b95602094909401359450505050565b6000602082840312156114e357600080fd5b5035919050565b600080604083850312156114fd57600080fd5b50508035926020909101359150565b6006811061152a57634e487b7160e01b600052602160045260246000fd5b9052565b6000815180845260005b8181101561155457602081850181015186830182015201611538565b81811115611566576000602083870101525b50601f01601f19169290920160200192915050565b6001600160a01b038581168252848116602083015283166040820152608081016115a8606083018461150c565b95945050505050565b6001600160a01b0386811682528581166020830152841660408201526060810183905260a081016115e5608083018461150c565b9695505050505050565b6001600160a01b038b811682528a1660208201526101406040820181905260009061161c8382018c61152e565b90508281036060840152611630818b61152e565b90508281036080840152611644818a61152e565b90508760a084015260ff871660c084015260ff861660e084015284151561010084015282810361012084015261167a818561152e565b9d9c50505050505050505050505050565b60208101610740828461150c565b6020815260006116ac602083018461152e565b9392505050565b60208082526032908201527f556e61626c6520746f20636c61696d207061796d656e7420776974682063757260408201527172656e742072656e74616c2073746174757360701b606082015260800190565b6020808252601e908201527f4d6574686f64206973207265737472696374656420746f2052656e7465720000604082015260600190565b6020808252601d908201527f4d6574686f64206973207265737472696374656420746f204f776e6572000000604082015260600190565b604051601f8201601f1916810167ffffffffffffffff8111828210171561179c5761179c61188f565b604052919050565b600082198211156117b7576117b7611863565b500190565b6000826117d957634e487b7160e01b600052601260045260246000fd5b500490565b6000828210156117f0576117f0611863565b500390565b600060ff82168061180857611808611863565b6000190192915050565b600181811c9082168061182657607f821691505b6020821081141561184757634e487b7160e01b600052602260045260246000fd5b50919050565b634e487b7160e01b600052600160045260246000fd5b634e487b7160e01b600052601160045260246000fd5b634e487b7160e01b600052602160045260246000fd5b634e487b7160e01b600052604160045260246000fdfea26469706673582212204899a75e6103140ab72f934a0a0cd108129bb658c9253a71cfa46a8d4042ffba64736f6c63430008070033",
  "immutableReferences": {},
  "source": "// SPDX-License-Identifier: GPL-3.0\n\npragma solidity >=0.7.0 <0.9.0;\n\nimport \"./Item.sol\";\n\ncontract Rental {\n    enum RentalStatus {\n        CREATED,\n        RENTED,\n        RETURNED,\n        END,\n        OWNERDISPUTEOPENED,\n        RENTERDISPUTEOPENED\n    }\n\n    address public itemContract;\n    Item public item;\n    Item.ItemDetails public itemDetails;\n    uint256 public rentPerDay;\n    uint8 public maxAllowableLateDays;\n    uint8 public multipleForLateFees;\n\n    RentalStatus public rentalStatus;\n    address payable public renterAddress;\n    address public renterUserContract;\n    uint256 public renterDeposit;\n    uint256 public start;\n    uint256 public end;\n    string[] public renterProofOfReturn; // IPFS hashes\n\n    uint256 public rentalFees;\n    uint256 public paidRentalFees;\n    uint256 public remainingRentalFees;\n    uint256 public claimableRentalFees;\n    uint256 public claimedRentalFees;\n    uint8 public numInstallment;\n    uint8 public remainingNumInstallment;\n\n    address payable public ownerAddress;\n    address public ownerUserContract;\n    uint256 public ownerDeposit;\n    string[] public ownerProofOfTransfer; // IPFS hashes\n\n    event rentalContractCreated(\n        address renterUserContract,\n        address renterAddress,\n        address rentalContract,\n        uint256 renterDeposit\n    );\n\n    event itemRented(\n        address itemContract,\n        address renterAddress,\n        address ownerAddress,\n        uint256 ownerDeposit,\n        RentalStatus rentalStatus\n    );\n\n    event itemReturned(\n        address itemContract,\n        address renterAddress,\n        address ownerAddress,\n        RentalStatus rentalStatus\n    );\n\n    event rentalEnded(address itemContract, address rentalContract);\n\n    event lateFeesPaid(\n        address itemContract,\n        address rentalContract,\n        address renterUserContract,\n        uint256 lateFees\n    );\n\n    constructor(\n        address _itemContract,\n        address _renterUserContract,\n        address payable _renterAddress,\n        uint256 _rentalFees,\n        uint256 _renterDeposit,\n        uint256 _start,\n        uint256 _end,\n        uint8 _numInstallment\n    ) payable {\n        require(\n            msg.value == _renterDeposit,\n            \"Value transfered is less than required amount\"\n        );\n\n        itemContract = _itemContract;\n        item = Item(_itemContract);\n        itemDetails = item.getItemDetails();\n        rentPerDay = itemDetails.rentPerDay;\n        maxAllowableLateDays = itemDetails.maxAllowableLateDays;\n        multipleForLateFees = itemDetails.multipleForLateFees;\n        ownerUserContract = itemDetails.ownerUserContract;\n        ownerAddress = itemDetails.ownerAddress;\n\n        rentalStatus = RentalStatus.CREATED;\n        renterUserContract = _renterUserContract;\n        renterAddress = _renterAddress;\n        renterDeposit = _renterDeposit;\n        start = _start;\n        end = _end;\n\n        rentalFees = _rentalFees;\n        numInstallment = _numInstallment;\n        remainingNumInstallment = _numInstallment;\n        remainingRentalFees = _rentalFees;\n        paidRentalFees = 0;\n        claimedRentalFees = 0;\n\n        emit rentalContractCreated(\n            _renterUserContract,\n            _renterAddress,\n            address(this),\n            _renterDeposit\n        );\n    }\n\n    modifier onlyOwner() {\n        require(msg.sender == ownerAddress, \"Method is restricted to Owner\");\n        _;\n    }\n\n    modifier onlyRenter() {\n        require(msg.sender == renterAddress, \"Method is restricted to Renter\");\n        _;\n    }\n\n    modifier correctFinalInstallmentValue(uint256 _amount) {\n        if (remainingNumInstallment == 1) {\n            require(_amount == remainingRentalFees);\n        }\n        _;\n    }\n\n    function uploadOwnerProofOfTransferAndPayDeposit(\n        string[] memory _ownerProofOfTransfer,\n        uint256 _ownerDeposit\n    ) public payable onlyOwner {\n        require(\n            msg.value >= _ownerDeposit,\n            \"Value transfered is less than required amount\"\n        );\n        require(\n            rentalStatus == RentalStatus.CREATED,\n            \"Invalid rental status for method\"\n        );\n\n        ownerDeposit = _ownerDeposit;\n        ownerProofOfTransfer = _ownerProofOfTransfer;\n        rentalStatus = RentalStatus.RENTED;\n\n        emit itemRented(\n            itemContract,\n            renterAddress,\n            ownerAddress,\n            ownerDeposit,\n            rentalStatus\n        );\n    }\n\n    function uploadRenterProofOfReturn(string[] memory _renterProofOfReturn)\n        public\n        onlyRenter\n    {\n        require(\n            remainingRentalFees == 0,\n            \"Settle all payment before returning\"\n        );\n\n        renterProofOfReturn = _renterProofOfReturn;\n        rentalStatus = RentalStatus.RETURNED;\n\n        emit itemReturned(\n            itemContract,\n            renterAddress,\n            ownerAddress,\n            rentalStatus\n        );\n    }\n\n    function payRentalInstallment(uint256 _amount)\n        public\n        payable\n        onlyRenter\n        correctFinalInstallmentValue(_amount)\n    {\n        require(\n            msg.value == _amount,\n            \"Value transfered not equal to required amount\"\n        );\n        paidRentalFees += _amount;\n        remainingRentalFees -= _amount;\n        remainingNumInstallment--;\n        assert(rentalFees == paidRentalFees + remainingRentalFees);\n\n        claimableRentalFees += _amount;\n    }\n\n    function claimRentalFees() public onlyOwner {\n        require(claimableRentalFees > 0, \"There is no claimable rental fees\");\n        require(\n            rentalStatus != RentalStatus.OWNERDISPUTEOPENED,\n            \"Unable to claim payment with current rental status\"\n        );\n        require(\n            rentalStatus != RentalStatus.RENTERDISPUTEOPENED,\n            \"Unable to claim payment with current rental status\"\n        );\n        require(\n            rentalStatus != RentalStatus.END,\n            \"Unable to claim payment with current rental status\"\n        );\n\n        ownerAddress.transfer(claimableRentalFees);\n        claimedRentalFees += claimableRentalFees;\n        claimableRentalFees = 0;\n    }\n\n    // claim owner's deposit and return renter's deposit\n    function settleDeposit() public onlyOwner {\n        require(\n            rentalStatus == RentalStatus.RETURNED,\n            \"Unable to claim payment with current rental status\"\n        );\n        require(\n            ownerDeposit > 0 || renterDeposit > 0,\n            \"No remaining deposit to claim\"\n        );\n        require(\n            remainingRentalFees == 0,\n            \"Rental fees has not been fully settled by renter\"\n        );\n        require(paidRentalFees == rentalFees);\n        require(\n            claimedRentalFees == rentalFees,\n            \"Rental fees has not been fully claimed by owner\"\n        );\n\n        if (ownerDeposit > 0) {\n            ownerAddress.transfer(ownerDeposit);\n        }\n\n        if (renterDeposit > 0) {\n            renterAddress.transfer(renterDeposit);\n        }\n\n        assert(address(this).balance == 0);\n        rentalStatus = RentalStatus.END;\n\n        emit rentalEnded(itemContract, address(this));\n    }\n\n    function payLateFees(uint256 _lateFees) public payable onlyRenter {\n        require(\n            block.timestamp > end && getDaysBetween(end, block.timestamp) <= 5\n        );\n        require(msg.value == _lateFees);\n\n        emit lateFeesPaid(\n            itemContract,\n            address(this),\n            renterUserContract,\n            _lateFees\n        );\n    }\n\n    //----------------------------------helpers-------------------------------------//\n    function getDaysBetween(uint256 _time1, uint256 _time2)\n        public\n        pure\n        returns (uint256)\n    {\n        uint256 secondsBetween = _time2 - _time1;\n        uint256 daysBetween = secondsBetween / 60 / 60 / 24;\n        return daysBetween;\n    }\n}\n",
  "sourcePath": "/Users/jyuteo/CodeProjects/TRent/src/contracts/Rental.sol",
  "compiler": {
    "name": "solc",
    "version": "0.8.7+commit.e28d00a7.Emscripten.clang"
  },
  "schemaVersion": "3.4.3",
  "updatedAt": "2021-08-30T09:09:50.625Z",
  "devdoc": {
    "kind": "dev",
    "methods": {},
    "version": 1
  },
  "userdoc": {
    "kind": "user",
    "methods": {},
    "version": 1
  }
}