{
  "contractName": "Rental",
  "abi": [
    {
      "inputs": [
        {
          "internalType": "address",
          "name": "_itemContract",
          "type": "address"
        },
        {
          "internalType": "address",
          "name": "_renterUserContract",
          "type": "address"
        },
        {
          "internalType": "address payable",
          "name": "_renterAddress",
          "type": "address"
        },
        {
          "internalType": "uint256",
          "name": "_rentalFees",
          "type": "uint256"
        },
        {
          "internalType": "uint256",
          "name": "_renterDeposit",
          "type": "uint256"
        },
        {
          "internalType": "uint256",
          "name": "_start",
          "type": "uint256"
        },
        {
          "internalType": "uint256",
          "name": "_end",
          "type": "uint256"
        },
        {
          "internalType": "uint8",
          "name": "_numInstallment",
          "type": "uint8"
        }
      ],
      "stateMutability": "payable",
      "type": "constructor"
    },
    {
      "anonymous": false,
      "inputs": [
        {
          "indexed": false,
          "internalType": "address",
          "name": "itemContract",
          "type": "address"
        },
        {
          "indexed": false,
          "internalType": "address",
          "name": "renterAddress",
          "type": "address"
        },
        {
          "indexed": false,
          "internalType": "address",
          "name": "ownerAddress",
          "type": "address"
        },
        {
          "indexed": false,
          "internalType": "uint256",
          "name": "ownerDeposit",
          "type": "uint256"
        },
        {
          "indexed": false,
          "internalType": "enum Rental.RentalStatus",
          "name": "rentalStatus",
          "type": "uint8"
        }
      ],
      "name": "itemRented",
      "type": "event"
    },
    {
      "anonymous": false,
      "inputs": [
        {
          "indexed": false,
          "internalType": "address",
          "name": "itemContract",
          "type": "address"
        },
        {
          "indexed": false,
          "internalType": "address",
          "name": "renterAddress",
          "type": "address"
        },
        {
          "indexed": false,
          "internalType": "address",
          "name": "ownerAddress",
          "type": "address"
        },
        {
          "indexed": false,
          "internalType": "enum Rental.RentalStatus",
          "name": "rentalStatus",
          "type": "uint8"
        }
      ],
      "name": "itemReturned",
      "type": "event"
    },
    {
      "anonymous": false,
      "inputs": [
        {
          "indexed": false,
          "internalType": "address",
          "name": "itemContract",
          "type": "address"
        },
        {
          "indexed": false,
          "internalType": "address",
          "name": "rentalContract",
          "type": "address"
        },
        {
          "indexed": false,
          "internalType": "address",
          "name": "renterUserContract",
          "type": "address"
        },
        {
          "indexed": false,
          "internalType": "uint256",
          "name": "lateFees",
          "type": "uint256"
        }
      ],
      "name": "lateFeesPaid",
      "type": "event"
    },
    {
      "anonymous": false,
      "inputs": [
        {
          "indexed": false,
          "internalType": "address",
          "name": "renterUserContract",
          "type": "address"
        },
        {
          "indexed": false,
          "internalType": "address",
          "name": "renterAddress",
          "type": "address"
        },
        {
          "indexed": false,
          "internalType": "address",
          "name": "rentalContract",
          "type": "address"
        },
        {
          "indexed": false,
          "internalType": "uint256",
          "name": "renterDeposit",
          "type": "uint256"
        }
      ],
      "name": "rentalContractCreated",
      "type": "event"
    },
    {
      "anonymous": false,
      "inputs": [
        {
          "indexed": false,
          "internalType": "address",
          "name": "itemContract",
          "type": "address"
        },
        {
          "indexed": false,
          "internalType": "address",
          "name": "rentalContract",
          "type": "address"
        }
      ],
      "name": "rentalEnded",
      "type": "event"
    },
    {
      "inputs": [],
      "name": "claimableRentalFees",
      "outputs": [
        {
          "internalType": "uint256",
          "name": "",
          "type": "uint256"
        }
      ],
      "stateMutability": "view",
      "type": "function"
    },
    {
      "inputs": [],
      "name": "claimedRentalFees",
      "outputs": [
        {
          "internalType": "uint256",
          "name": "",
          "type": "uint256"
        }
      ],
      "stateMutability": "view",
      "type": "function"
    },
    {
      "inputs": [],
      "name": "end",
      "outputs": [
        {
          "internalType": "uint256",
          "name": "",
          "type": "uint256"
        }
      ],
      "stateMutability": "view",
      "type": "function"
    },
    {
      "inputs": [],
      "name": "item",
      "outputs": [
        {
          "internalType": "contract Item",
          "name": "",
          "type": "address"
        }
      ],
      "stateMutability": "view",
      "type": "function"
    },
    {
      "inputs": [],
      "name": "itemContract",
      "outputs": [
        {
          "internalType": "address",
          "name": "",
          "type": "address"
        }
      ],
      "stateMutability": "view",
      "type": "function"
    },
    {
      "inputs": [],
      "name": "itemDetails",
      "outputs": [
        {
          "internalType": "address",
          "name": "ownerUserContract",
          "type": "address"
        },
        {
          "internalType": "address payable",
          "name": "ownerAddress",
          "type": "address"
        },
        {
          "internalType": "string",
          "name": "name",
          "type": "string"
        },
        {
          "internalType": "string",
          "name": "collectionOrReturnAddress",
          "type": "string"
        },
        {
          "internalType": "string",
          "name": "description",
          "type": "string"
        },
        {
          "internalType": "uint256",
          "name": "rentPerDay",
          "type": "uint256"
        },
        {
          "internalType": "uint8",
          "name": "maxAllowableLateDays",
          "type": "uint8"
        },
        {
          "internalType": "uint8",
          "name": "multipleForLateFees",
          "type": "uint8"
        },
        {
          "internalType": "bool",
          "name": "isAvailableForRent",
          "type": "bool"
        }
      ],
      "stateMutability": "view",
      "type": "function"
    },
    {
      "inputs": [],
      "name": "maxAllowableLateDays",
      "outputs": [
        {
          "internalType": "uint8",
          "name": "",
          "type": "uint8"
        }
      ],
      "stateMutability": "view",
      "type": "function"
    },
    {
      "inputs": [],
      "name": "multipleForLateFees",
      "outputs": [
        {
          "internalType": "uint8",
          "name": "",
          "type": "uint8"
        }
      ],
      "stateMutability": "view",
      "type": "function"
    },
    {
      "inputs": [],
      "name": "numInstallment",
      "outputs": [
        {
          "internalType": "uint8",
          "name": "",
          "type": "uint8"
        }
      ],
      "stateMutability": "view",
      "type": "function"
    },
    {
      "inputs": [],
      "name": "ownerAddress",
      "outputs": [
        {
          "internalType": "address payable",
          "name": "",
          "type": "address"
        }
      ],
      "stateMutability": "view",
      "type": "function"
    },
    {
      "inputs": [],
      "name": "ownerDeposit",
      "outputs": [
        {
          "internalType": "uint256",
          "name": "",
          "type": "uint256"
        }
      ],
      "stateMutability": "view",
      "type": "function"
    },
    {
      "inputs": [
        {
          "internalType": "uint256",
          "name": "",
          "type": "uint256"
        }
      ],
      "name": "ownerProofOfTransfer",
      "outputs": [
        {
          "internalType": "string",
          "name": "",
          "type": "string"
        }
      ],
      "stateMutability": "view",
      "type": "function"
    },
    {
      "inputs": [],
      "name": "ownerUserContract",
      "outputs": [
        {
          "internalType": "address",
          "name": "",
          "type": "address"
        }
      ],
      "stateMutability": "view",
      "type": "function"
    },
    {
      "inputs": [],
      "name": "paidRentalFees",
      "outputs": [
        {
          "internalType": "uint256",
          "name": "",
          "type": "uint256"
        }
      ],
      "stateMutability": "view",
      "type": "function"
    },
    {
      "inputs": [],
      "name": "remainingNumInstallment",
      "outputs": [
        {
          "internalType": "uint8",
          "name": "",
          "type": "uint8"
        }
      ],
      "stateMutability": "view",
      "type": "function"
    },
    {
      "inputs": [],
      "name": "remainingRentalFees",
      "outputs": [
        {
          "internalType": "uint256",
          "name": "",
          "type": "uint256"
        }
      ],
      "stateMutability": "view",
      "type": "function"
    },
    {
      "inputs": [],
      "name": "rentPerDay",
      "outputs": [
        {
          "internalType": "uint256",
          "name": "",
          "type": "uint256"
        }
      ],
      "stateMutability": "view",
      "type": "function"
    },
    {
      "inputs": [],
      "name": "rentalFees",
      "outputs": [
        {
          "internalType": "uint256",
          "name": "",
          "type": "uint256"
        }
      ],
      "stateMutability": "view",
      "type": "function"
    },
    {
      "inputs": [],
      "name": "rentalStatus",
      "outputs": [
        {
          "internalType": "enum Rental.RentalStatus",
          "name": "",
          "type": "uint8"
        }
      ],
      "stateMutability": "view",
      "type": "function"
    },
    {
      "inputs": [],
      "name": "renterAddress",
      "outputs": [
        {
          "internalType": "address payable",
          "name": "",
          "type": "address"
        }
      ],
      "stateMutability": "view",
      "type": "function"
    },
    {
      "inputs": [],
      "name": "renterDeposit",
      "outputs": [
        {
          "internalType": "uint256",
          "name": "",
          "type": "uint256"
        }
      ],
      "stateMutability": "view",
      "type": "function"
    },
    {
      "inputs": [
        {
          "internalType": "uint256",
          "name": "",
          "type": "uint256"
        }
      ],
      "name": "renterProofOfReturn",
      "outputs": [
        {
          "internalType": "string",
          "name": "",
          "type": "string"
        }
      ],
      "stateMutability": "view",
      "type": "function"
    },
    {
      "inputs": [],
      "name": "renterUserContract",
      "outputs": [
        {
          "internalType": "address",
          "name": "",
          "type": "address"
        }
      ],
      "stateMutability": "view",
      "type": "function"
    },
    {
      "inputs": [],
      "name": "start",
      "outputs": [
        {
          "internalType": "uint256",
          "name": "",
          "type": "uint256"
        }
      ],
      "stateMutability": "view",
      "type": "function"
    },
    {
      "inputs": [
        {
          "internalType": "string[]",
          "name": "_ownerProofOfTransfer",
          "type": "string[]"
        },
        {
          "internalType": "uint256",
          "name": "_ownerDeposit",
          "type": "uint256"
        }
      ],
      "name": "uploadOwnerProofOfTransferAndPayDeposit",
      "outputs": [],
      "stateMutability": "payable",
      "type": "function"
    },
    {
      "inputs": [
        {
          "internalType": "string[]",
          "name": "_renterProofOfReturn",
          "type": "string[]"
        }
      ],
      "name": "uploadRenterProofOfReturn",
      "outputs": [],
      "stateMutability": "nonpayable",
      "type": "function"
    },
    {
      "inputs": [
        {
          "internalType": "uint256",
          "name": "_amount",
          "type": "uint256"
        }
      ],
      "name": "payRentalInstallment",
      "outputs": [],
      "stateMutability": "payable",
      "type": "function"
    },
    {
      "inputs": [],
      "name": "claimRentalFees",
      "outputs": [],
      "stateMutability": "nonpayable",
      "type": "function"
    },
    {
      "inputs": [],
      "name": "settleDeposit",
      "outputs": [],
      "stateMutability": "nonpayable",
      "type": "function"
    },
    {
      "inputs": [
        {
          "internalType": "uint256",
          "name": "_lateFees",
          "type": "uint256"
        }
      ],
      "name": "payLateFees",
      "outputs": [],
      "stateMutability": "payable",
      "type": "function"
    }
  ],
  "bytecode": "0x60806040526040516200222538038062002225833981016040819052620000269162000663565b833414620000905760405162461bcd60e51b815260206004820152602d60248201527f56616c7565207472616e736665726564206973206c657373207468616e20726560448201526c1c5d5a5c995908185b5bdd5b9d609a1b606482015260840160405180910390fd5b600080546001600160a01b038a166001600160a01b03199182168117835560018054909216811790915560408051637c81d12360e01b815290519192637c81d12392600480840193829003018186803b158015620000ed57600080fd5b505afa15801562000102573d6000803e3d6000fd5b505050506040513d6000823e601f3d908101601f191682016040526200012c9190810190620006f1565b8051600280546001600160a01b03199081166001600160a01b039384161782556020808501516003805490931694169390931790556040830151805191926200017c926004929091019062000381565b50606082015180516200019a91600384019160209091019062000381565b5060808201518051620001b891600484019160209091019062000381565b5060a0820151600582015560c082015160068201805460e0850151610100808701511515620100000262ff00001960ff93841690920261ffff199094169290951691909117919091171691909117905561012082015180516200022691600784019160209091019062000410565b5050600754600a5550600854600b805461010080840460ff90811690910261ffff1990921693169290921791909117808255600254601780546001600160a01b0319166001600160a01b03928316179055600354601680546201000092909316820262010000600160b01b0319909316929092179091556000929162ff0000191690830217905550600c80546001600160a01b0319166001600160a01b03898116918217909255600b80546301000000600160b81b0319166301000000938a16938402179055600d869055600e859055600f84905560118790556016805461ffff191660ff85169081176101009091021790556013879055600060128190556015556040805191825260208201929092523091810191909152606081018590527ff2ba2250ad19f9c3d940ca2bec423c98f22d51baf1bbbf35e1d7ec34f8afb9219060800160405180910390a1505050505050505062000911565b8280546200038f90620008a8565b90600052602060002090601f016020900481019282620003b35760008555620003fe565b82601f10620003ce57805160ff1916838001178555620003fe565b82800160010185558215620003fe579182015b82811115620003fe578251825591602001919060010190620003e1565b506200040c92915062000470565b5090565b82805482825590600052602060002090810192821562000462579160200282015b828111156200046257825180516200045191849160209091019062000381565b509160200191906001019062000431565b506200040c92915062000487565b5b808211156200040c576000815560010162000471565b808211156200040c5760006200049e8282620004a8565b5060010162000487565b508054620004b690620008a8565b6000825580601f10620004c7575050565b601f016020900490600052602060002090810190620004e7919062000470565b50565b8051620004f781620008fb565b919050565b600082601f8301126200050e57600080fd5b815160206001600160401b03808311156200052d576200052d620008e5565b8260051b6200053e83820162000875565b8481528381019087850183890186018a10156200055a57600080fd5b60009350835b878110156200059c5781518681111562000578578586fd5b620005888c89838e0101620005bc565b855250928601929086019060010162000560565b50909998505050505050505050565b80518015158114620004f757600080fd5b600082601f830112620005ce57600080fd5b81516001600160401b03811115620005ea57620005ea620008e5565b602062000600601f8301601f1916820162000875565b82815285828487010111156200061557600080fd5b60005b838110156200063557858101830151828201840152820162000618565b83811115620006475760008385840101525b5095945050505050565b805160ff81168114620004f757600080fd5b600080600080600080600080610100898b0312156200068157600080fd5b88516200068e81620008fb565b60208a0151909850620006a181620008fb565b60408a0151909750620006b481620008fb565b80965050606089015194506080890151935060a0890151925060c08901519150620006e260e08a0162000651565b90509295985092959890939650565b6000602082840312156200070457600080fd5b81516001600160401b03808211156200071c57600080fd5b9083019061014082860312156200073257600080fd5b6200073c62000849565b6200074783620004ea565b81526200075760208401620004ea565b60208201526040830151828111156200076f57600080fd5b6200077d87828601620005bc565b6040830152506060830151828111156200079657600080fd5b620007a487828601620005bc565b606083015250608083015182811115620007bd57600080fd5b620007cb87828601620005bc565b60808301525060a083015160a0820152620007e960c0840162000651565b60c0820152620007fc60e0840162000651565b60e082015261010062000811818501620005ab565b9082015261012083810151838111156200082a57600080fd5b6200083888828701620004fc565b918301919091525095945050505050565b60405161014081016001600160401b03811182821017156200086f576200086f620008e5565b60405290565b604051601f8201601f191681016001600160401b0381118282101715620008a057620008a0620008e5565b604052919050565b600181811c90821680620008bd57607f821691505b60208210811415620008df57634e487b7160e01b600052602260045260246000fd5b50919050565b634e487b7160e01b600052604160045260246000fd5b6001600160a01b0381168114620004e757600080fd5b61190480620009216000396000f3fe6080604052600436106101cd5760003560e01c80639e6aadc3116100f7578063d46c9fc711610095578063f030486011610064578063f0304860146104f1578063f2a4a82e14610507578063fe55029d14610527578063ff3522cf1461053d57600080fd5b8063d46c9fc714610486578063dce59d10146104a5578063e1109305146104c5578063efbe1c1c146104db57600080fd5b8063a8237b87116100d1578063a8237b8714610428578063baa75f3914610448578063be9a65551461045b578063c7abd0921461047157600080fd5b80639e6aadc3146103cc578063a2d1d11c146103f3578063a6bc22011461040957600080fd5b80637b1aa45f1161016f5780638d76f9401161013e5780638d76f940146103385780638f84aa091461037057806395afe398146103965780639c29a3ed146103ac57600080fd5b80637b1aa45f146102cf57806382770a43146102e557806385411c8e1461030f5780638b3a16a21461032257600080fd5b80633fe8351a116101ab5780633fe8351a146102555780634f4687ea1461026a578063559ec80d1461028e578063676b9683146102a357600080fd5b806307e353e9146101d257806331d019b7146102085780633d99b56a14610235575b600080fd5b3480156101de57600080fd5b506101f26101ed366004611565565b610557565b6040516101ff91906116f4565b60405180910390f35b34801561021457600080fd5b50600b546102289062010000900460ff1681565b6040516101ff91906116e6565b34801561024157600080fd5b506101f2610250366004611565565b610603565b610268610263366004611565565b610613565b005b34801561027657600080fd5b5061028060115481565b6040519081526020016101ff565b34801561029a57600080fd5b506102686106dc565b3480156102af57600080fd5b506016546102bd9060ff1681565b60405160ff90911681526020016101ff565b3480156102db57600080fd5b5061028060185481565b3480156102f157600080fd5b506102fa6109c3565b6040516101ff99989796959493929190611661565b61026861031d366004611520565b610ba8565b34801561032e57600080fd5b5061028060155481565b34801561034457600080fd5b50600054610358906001600160a01b031681565b6040516001600160a01b0390911681526020016101ff565b34801561037c57600080fd5b50601654610358906201000090046001600160a01b031681565b3480156103a257600080fd5b50610280600d5481565b3480156103b857600080fd5b506102686103c73660046114e3565b610d3d565b3480156103d857600080fd5b50600b5461035890630100000090046001600160a01b031681565b3480156103ff57600080fd5b5061028060125481565b34801561041557600080fd5b50600b546102bd90610100900460ff1681565b34801561043457600080fd5b50600c54610358906001600160a01b031681565b610268610456366004611565565b610e4c565b34801561046757600080fd5b50610280600e5481565b34801561047d57600080fd5b50610268610fa2565b34801561049257600080fd5b506016546102bd90610100900460ff1681565b3480156104b157600080fd5b50601754610358906001600160a01b031681565b3480156104d157600080fd5b50610280600a5481565b3480156104e757600080fd5b50610280600f5481565b3480156104fd57600080fd5b5061028060145481565b34801561051357600080fd5b50600154610358906001600160a01b031681565b34801561053357600080fd5b5061028060135481565b34801561054957600080fd5b50600b546102bd9060ff1681565b6010818154811061056757600080fd5b9060005260206000200160009150905080546105829061181b565b80601f01602080910402602001604051908101604052809291908181526020018280546105ae9061181b565b80156105fb5780601f106105d0576101008083540402835291602001916105fb565b820191906000526020600020905b8154815290600101906020018083116105de57829003601f168201915b505050505081565b6019818154811061056757600080fd5b600b54630100000090046001600160a01b0316331461064d5760405162461bcd60e51b81526004016106449061170e565b60405180910390fd5b600f544211801561066a57506005610667600f5442611261565b11155b61067357600080fd5b80341461067f57600080fd5b600054600c54604080516001600160a01b0393841681523060208201529290911690820152606081018290527fc7e341db620c84a8460b51bfba67b47879276b655ea7960928e38c956cd85344906080015b60405180910390a150565b6016546201000090046001600160a01b0316331461070c5760405162461bcd60e51b815260040161064490611745565b6002600b5462010000900460ff16600581111561072b5761072b611882565b146107815760405162461bcd60e51b815260206004820152603260248201526000805160206118af83398151915260448201527172656e742072656e74616c2073746174757360701b6064820152608401610644565b6000601854118061079457506000600d54115b6107e05760405162461bcd60e51b815260206004820152601d60248201527f4e6f2072656d61696e696e67206465706f73697420746f20636c61696d0000006044820152606401610644565b601354156108495760405162461bcd60e51b815260206004820152603060248201527f52656e74616c206665657320686173206e6f74206265656e2066756c6c79207360448201526f32ba3a3632b210313c903932b73a32b960811b6064820152608401610644565b6011546012541461085957600080fd5b601154601554146108c45760405162461bcd60e51b815260206004820152602f60248201527f52656e74616c206665657320686173206e6f74206265656e2066756c6c79206360448201526e3630b4b6b2b210313c9037bbb732b960891b6064820152608401610644565b6018541561090f57601654601854604051620100009092046001600160a01b0316916108fc82150291906000818181858888f1935050505015801561090d573d6000803e3d6000fd5b505b600d541561095b57600b54600d5460405163010000009092046001600160a01b0316916108fc82150291906000818181858888f19350505050158015610959573d6000803e3d6000fd5b505b471561096957610969611856565b600b80546203000062ff000019909116179055600054604080516001600160a01b0390921682523060208301527f6a5d55ef84f2d6da57cc86de121fc1c7a8392770ff8f357998e87beb5c310491910160405180910390a1565b60028054600354600480546001600160a01b039384169492909316926109e89061181b565b80601f0160208091040260200160405190810160405280929190818152602001828054610a149061181b565b8015610a615780601f10610a3657610100808354040283529160200191610a61565b820191906000526020600020905b815481529060010190602001808311610a4457829003601f168201915b505050505090806003018054610a769061181b565b80601f0160208091040260200160405190810160405280929190818152602001828054610aa29061181b565b8015610aef5780601f10610ac457610100808354040283529160200191610aef565b820191906000526020600020905b815481529060010190602001808311610ad257829003601f168201915b505050505090806004018054610b049061181b565b80601f0160208091040260200160405190810160405280929190818152602001828054610b309061181b565b8015610b7d5780601f10610b5257610100808354040283529160200191610b7d565b820191906000526020600020905b815481529060010190602001808311610b6057829003601f168201915b50505050600583015460069093015491929160ff808216925061010082048116916201000090041689565b6016546201000090046001600160a01b03163314610bd85760405162461bcd60e51b815260040161064490611745565b80341015610c3e5760405162461bcd60e51b815260206004820152602d60248201527f56616c7565207472616e736665726564206973206c657373207468616e20726560448201526c1c5d5a5c995908185b5bdd5b9d609a1b6064820152608401610644565b6000600b5462010000900460ff166005811115610c5d57610c5d611882565b14610caa5760405162461bcd60e51b815260206004820181905260248201527f496e76616c69642072656e74616c2073746174757320666f72206d6574686f646044820152606401610644565b60188190558151610cc290601990602085019061129f565b50600b805462ff0000191662010000908117918290556000546016546018546040517f638a6fc620f125e2c5fd9c4a087a87f135f8c70a914ad7251ba015a126a6b7c295610d31956001600160a01b039586169563010000008304811695829004169392910460ff1690611623565b60405180910390a15050565b600b54630100000090046001600160a01b03163314610d6e5760405162461bcd60e51b81526004016106449061170e565b60135415610dca5760405162461bcd60e51b815260206004820152602360248201527f536574746c6520616c6c207061796d656e74206265666f72652072657475726e604482015262696e6760e81b6064820152608401610644565b8051610ddd90601090602084019061129f565b50600b805462ff000019166202000017908190556000546016546040517f6c3b74d4fe02e9013f2662b52aee484a1cfa6dfbe0616f21ef00227ba5c91ad2936106d1936001600160a01b0390811693630100000083048216936201000091829004909216920460ff16906115ed565b600b54630100000090046001600160a01b03163314610e7d5760405162461bcd60e51b81526004016106449061170e565b601654819060ff6101009091041660011415610ea1576013548114610ea157600080fd5b813414610f065760405162461bcd60e51b815260206004820152602d60248201527f56616c7565207472616e736665726564206e6f7420657175616c20746f20726560448201526c1c5d5a5c995908185b5bdd5b9d609a1b6064820152608401610644565b8160126000828254610f1891906117ad565b925050819055508160136000828254610f3191906117e7565b909155505060168054610100900460ff16906001610f4e836117fe565b91906101000a81548160ff021916908360ff16021790555050601354601254610f7791906117ad565b60115414610f8757610f87611856565b8160146000828254610f9991906117ad565b90915550505050565b6016546201000090046001600160a01b03163314610fd25760405162461bcd60e51b815260040161064490611745565b60006014541161102e5760405162461bcd60e51b815260206004820152602160248201527f5468657265206973206e6f20636c61696d61626c652072656e74616c206665656044820152607360f81b6064820152608401610644565b6004600b5462010000900460ff16600581111561104d5761104d611882565b14156110cd5760405162461bcd60e51b815260206004820152605560248201526000805160206118af83398151915260448201527f72656e742072656e74616c207374617475732c2072656e74616c20737461747560648201527473206973204f4e204f574e4552204449535055544560581b608482015260a401610644565b6005600b5462010000900460ff1660058111156110ec576110ec611882565b141561116d5760405162461bcd60e51b815260206004820152605660248201526000805160206118af83398151915260448201527f72656e742072656e74616c207374617475732c2072656e74616c20737461747560648201527573206973204f4e2052454e544552204449535055544560501b608482015260a401610644565b6003600b5462010000900460ff16600581111561118c5761118c611882565b14156111ff5760405162461bcd60e51b815260206004820152604860248201526000805160206118af83398151915260448201527f72656e742072656e74616c207374617475732c2072656e74616c2073746174756064820152671cc81a5cc811539160c21b608482015260a401610644565b601654601454604051620100009092046001600160a01b0316916108fc82150291906000818181858888f19350505050158015611240573d6000803e3d6000fd5b506014546015600082825461125591906117ad565b90915550506000601455565b60008061126e84846117e7565b905060006018603c61128081856117c5565b61128a91906117c5565b61129491906117c5565b925050505b92915050565b8280548282559060005260206000209081019282156112ec579160200282015b828111156112ec57825180516112dc9184916020909101906112fc565b50916020019190600101906112bf565b506112f892915061137c565b5090565b8280546113089061181b565b90600052602060002090601f01602090048101928261132a5760008555611370565b82601f1061134357805160ff1916838001178555611370565b82800160010185558215611370579182015b82811115611370578251825591602001919060010190611355565b506112f8929150611399565b808211156112f857600061139082826113ae565b5060010161137c565b5b808211156112f8576000815560010161139a565b5080546113ba9061181b565b6000825580601f106113ca575050565b601f0160209004906000526020600020908101906113e89190611399565b50565b6000601f83818401126113fd57600080fd5b8235602067ffffffffffffffff8083111561141a5761141a611898565b8260051b61142983820161177c565b84815283810190888501838a0186018b101561144457600080fd5b600093505b868410156114d55780358581111561146057600080fd5b8a01603f81018c1361147157600080fd5b8681013560408782111561148757611487611898565b611498828c01601f19168a0161177c565b8281528e828486010111156114ac57600080fd5b828285018b83013760009281018a01929092525084525060019390930192918501918501611449565b509998505050505050505050565b6000602082840312156114f557600080fd5b813567ffffffffffffffff81111561150c57600080fd5b611518848285016113eb565b949350505050565b6000806040838503121561153357600080fd5b823567ffffffffffffffff81111561154a57600080fd5b611556858286016113eb565b95602094909401359450505050565b60006020828403121561157757600080fd5b5035919050565b6006811061159c57634e487b7160e01b600052602160045260246000fd5b9052565b6000815180845260005b818110156115c6576020818501810151868301820152016115aa565b818111156115d8576000602083870101525b50601f01601f19169290920160200192915050565b6001600160a01b0385811682528481166020830152831660408201526080810161161a606083018461157e565b95945050505050565b6001600160a01b0386811682528581166020830152841660408201526060810183905260a08101611657608083018461157e565b9695505050505050565b6001600160a01b038a81168252891660208201526101206040820181905260009061168e8382018b6115a0565b905082810360608401526116a2818a6115a0565b905082810360808401526116b681896115a0565b60a0840197909752505060ff93841660c08201529190921660e08201529015156101009091015295945050505050565b60208101611299828461157e565b60208152600061170760208301846115a0565b9392505050565b6020808252601e908201527f4d6574686f64206973207265737472696374656420746f2052656e7465720000604082015260600190565b6020808252601d908201527f4d6574686f64206973207265737472696374656420746f204f776e6572000000604082015260600190565b604051601f8201601f1916810167ffffffffffffffff811182821017156117a5576117a5611898565b604052919050565b600082198211156117c0576117c061186c565b500190565b6000826117e257634e487b7160e01b600052601260045260246000fd5b500490565b6000828210156117f9576117f961186c565b500390565b600060ff8216806118115761181161186c565b6000190192915050565b600181811c9082168061182f57607f821691505b6020821081141561185057634e487b7160e01b600052602260045260246000fd5b50919050565b634e487b7160e01b600052600160045260246000fd5b634e487b7160e01b600052601160045260246000fd5b634e487b7160e01b600052602160045260246000fd5b634e487b7160e01b600052604160045260246000fdfe556e61626c6520746f20636c61696d207061796d656e74207769746820637572a26469706673582212204511ddf7aac1af73dcd69aca9981a75cff5af20a87839fe8c55d85bf7eec283164736f6c63430008070033",
  "immutableReferences": {},
  "source": "// SPDX-License-Identifier: GPL-3.0\n\npragma solidity >=0.7.0 <0.9.0;\n\nimport \"./Item.sol\";\n\ncontract Rental {\n    enum RentalStatus {\n        CREATED,\n        RENTED,\n        RETURNED,\n        END,\n        OWNERDISPUTEOPENED,\n        RENTERDISPUTEOPENED\n    }\n\n    address public itemContract;\n    Item public item;\n    Item.ItemDetails public itemDetails;\n    uint256 public rentPerDay;\n    uint8 public maxAllowableLateDays;\n    uint8 public multipleForLateFees;\n\n    RentalStatus public rentalStatus;\n    address payable public renterAddress;\n    address public renterUserContract;\n    uint256 public renterDeposit;\n    uint256 public start;\n    uint256 public end;\n    string[] public renterProofOfReturn; // IPFS hashes\n\n    uint256 public rentalFees;\n    uint256 public paidRentalFees;\n    uint256 public remainingRentalFees;\n    uint256 public claimableRentalFees;\n    uint256 public claimedRentalFees;\n    uint8 public numInstallment;\n    uint8 public remainingNumInstallment;\n\n    address payable public ownerAddress;\n    address public ownerUserContract;\n    uint256 public ownerDeposit;\n    string[] public ownerProofOfTransfer; // IPFS hashes\n\n    event rentalContractCreated(\n        address renterUserContract,\n        address renterAddress,\n        address rentalContract,\n        uint256 renterDeposit\n    );\n\n    event itemRented(\n        address itemContract,\n        address renterAddress,\n        address ownerAddress,\n        uint256 ownerDeposit,\n        RentalStatus rentalStatus\n    );\n\n    event itemReturned(\n        address itemContract,\n        address renterAddress,\n        address ownerAddress,\n        RentalStatus rentalStatus\n    );\n\n    event rentalEnded(address itemContract, address rentalContract);\n\n    event lateFeesPaid(\n        address itemContract,\n        address rentalContract,\n        address renterUserContract,\n        uint256 lateFees\n    );\n\n    constructor(\n        address _itemContract,\n        address _renterUserContract,\n        address payable _renterAddress,\n        uint256 _rentalFees,\n        uint256 _renterDeposit,\n        uint256 _start,\n        uint256 _end,\n        uint8 _numInstallment\n    ) payable {\n        require(\n            msg.value == _renterDeposit,\n            \"Value transfered is less than required amount\"\n        );\n\n        itemContract = _itemContract;\n        item = Item(_itemContract);\n        itemDetails = item.getItemDetails();\n        rentPerDay = itemDetails.rentPerDay;\n        maxAllowableLateDays = itemDetails.maxAllowableLateDays;\n        multipleForLateFees = itemDetails.multipleForLateFees;\n        ownerUserContract = itemDetails.ownerUserContract;\n        ownerAddress = itemDetails.ownerAddress;\n\n        rentalStatus = RentalStatus.CREATED;\n        renterUserContract = _renterUserContract;\n        renterAddress = _renterAddress;\n        renterDeposit = _renterDeposit;\n        start = _start;\n        end = _end;\n\n        rentalFees = _rentalFees;\n        numInstallment = _numInstallment;\n        remainingNumInstallment = _numInstallment;\n        remainingRentalFees = _rentalFees;\n        paidRentalFees = 0;\n        claimedRentalFees = 0;\n\n        emit rentalContractCreated(\n            _renterUserContract,\n            _renterAddress,\n            address(this),\n            _renterDeposit\n        );\n    }\n\n    modifier onlyOwner() {\n        require(msg.sender == ownerAddress, \"Method is restricted to Owner\");\n        _;\n    }\n\n    modifier onlyRenter() {\n        require(msg.sender == renterAddress, \"Method is restricted to Renter\");\n        _;\n    }\n\n    modifier correctFinalInstallmentValue(uint256 _amount) {\n        if (remainingNumInstallment == 1) {\n            require(_amount == remainingRentalFees);\n        }\n        _;\n    }\n\n    function uploadOwnerProofOfTransferAndPayDeposit(\n        string[] memory _ownerProofOfTransfer,\n        uint256 _ownerDeposit\n    ) public payable onlyOwner {\n        require(\n            msg.value >= _ownerDeposit,\n            \"Value transfered is less than required amount\"\n        );\n        require(\n            rentalStatus == RentalStatus.CREATED,\n            \"Invalid rental status for method\"\n        );\n\n        ownerDeposit = _ownerDeposit;\n        ownerProofOfTransfer = _ownerProofOfTransfer;\n        rentalStatus = RentalStatus.RENTED;\n\n        emit itemRented(\n            itemContract,\n            renterAddress,\n            ownerAddress,\n            ownerDeposit,\n            rentalStatus\n        );\n    }\n\n    function uploadRenterProofOfReturn(string[] memory _renterProofOfReturn)\n        public\n        onlyRenter\n    {\n        require(\n            remainingRentalFees == 0,\n            \"Settle all payment before returning\"\n        );\n\n        renterProofOfReturn = _renterProofOfReturn;\n        rentalStatus = RentalStatus.RETURNED;\n\n        emit itemReturned(\n            itemContract,\n            renterAddress,\n            ownerAddress,\n            rentalStatus\n        );\n    }\n\n    function payRentalInstallment(uint256 _amount)\n        public\n        payable\n        onlyRenter\n        correctFinalInstallmentValue(_amount)\n    {\n        require(\n            msg.value == _amount,\n            \"Value transfered not equal to required amount\"\n        );\n        paidRentalFees += _amount;\n        remainingRentalFees -= _amount;\n        remainingNumInstallment--;\n        assert(rentalFees == paidRentalFees + remainingRentalFees);\n\n        claimableRentalFees += _amount;\n    }\n\n    function claimRentalFees() public onlyOwner {\n        require(claimableRentalFees > 0, \"There is no claimable rental fees\");\n        require(\n            rentalStatus != RentalStatus.OWNERDISPUTEOPENED,\n            \"Unable to claim payment with current rental status, rental status is ON OWNER DISPUTE\"\n        );\n        require(\n            rentalStatus != RentalStatus.RENTERDISPUTEOPENED,\n            \"Unable to claim payment with current rental status, rental status is ON RENTER DISPUTE\"\n        );\n        require(\n            rentalStatus != RentalStatus.END,\n            \"Unable to claim payment with current rental status, rental status is END\"\n        );\n\n        ownerAddress.transfer(claimableRentalFees);\n        claimedRentalFees += claimableRentalFees;\n        claimableRentalFees = 0;\n    }\n\n    // claim owner's deposit and return renter's deposit\n    function settleDeposit() public onlyOwner {\n        require(\n            rentalStatus == RentalStatus.RETURNED,\n            \"Unable to claim payment with current rental status\"\n        );\n        require(\n            ownerDeposit > 0 || renterDeposit > 0,\n            \"No remaining deposit to claim\"\n        );\n        require(\n            remainingRentalFees == 0,\n            \"Rental fees has not been fully settled by renter\"\n        );\n        require(paidRentalFees == rentalFees);\n        require(\n            claimedRentalFees == rentalFees,\n            \"Rental fees has not been fully claimed by owner\"\n        );\n\n        if (ownerDeposit > 0) {\n            ownerAddress.transfer(ownerDeposit);\n        }\n\n        if (renterDeposit > 0) {\n            renterAddress.transfer(renterDeposit);\n        }\n\n        assert(address(this).balance == 0);\n        rentalStatus = RentalStatus.END;\n\n        emit rentalEnded(itemContract, address(this));\n    }\n\n    function payLateFees(uint256 _lateFees) public payable onlyRenter {\n        require(\n            block.timestamp > end && getDaysBetween(end, block.timestamp) <= 5\n        );\n        require(msg.value == _lateFees);\n\n        emit lateFeesPaid(\n            itemContract,\n            address(this),\n            renterUserContract,\n            _lateFees\n        );\n    }\n\n    //----------------------------------helpers-------------------------------------//\n    function getDaysBetween(uint256 _time1, uint256 _time2)\n        internal\n        pure\n        returns (uint256)\n    {\n        uint256 secondsBetween = _time2 - _time1;\n        uint256 daysBetween = secondsBetween / 60 / 60 / 24;\n        return daysBetween;\n    }\n\n    function toWei(uint256 _ether) internal pure returns (uint256) {\n        return _ether * 10**18;\n    }\n\n    function toEther(uint256 _wei) internal pure returns (uint256) {\n        return _wei / 10**18;\n    }\n}\n",
  "sourcePath": "/Users/jyuteo/CodeProjects/TRent/src/contracts/Rental.sol",
  "compiler": {
    "name": "solc",
    "version": "0.8.7+commit.e28d00a7.Emscripten.clang"
  },
  "schemaVersion": "3.4.3",
  "updatedAt": "2021-09-05T07:10:41.885Z",
  "devdoc": {
    "kind": "dev",
    "methods": {},
    "version": 1
  },
  "userdoc": {
    "kind": "user",
    "methods": {},
    "version": 1
  }
}