{
  "contractName": "User",
  "abi": [
    {
      "inputs": [
        {
          "internalType": "address",
          "name": "_userAddress",
          "type": "address"
        },
        {
          "internalType": "string",
          "name": "_username",
          "type": "string"
        },
        {
          "internalType": "string",
          "name": "_deliveryAddress",
          "type": "string"
        }
      ],
      "stateMutability": "nonpayable",
      "type": "constructor"
    },
    {
      "anonymous": false,
      "inputs": [
        {
          "indexed": true,
          "internalType": "address",
          "name": "userAccount",
          "type": "address"
        },
        {
          "indexed": false,
          "internalType": "string",
          "name": "newDeliveryAddress",
          "type": "string"
        }
      ],
      "name": "deliveryAddressChanged",
      "type": "event"
    },
    {
      "anonymous": false,
      "inputs": [
        {
          "indexed": true,
          "internalType": "address",
          "name": "from",
          "type": "address"
        },
        {
          "indexed": false,
          "internalType": "uint8",
          "name": "rate",
          "type": "uint8"
        },
        {
          "indexed": false,
          "internalType": "uint8",
          "name": "ratingCount",
          "type": "uint8"
        }
      ],
      "name": "newReviewInput",
      "type": "event"
    },
    {
      "anonymous": false,
      "inputs": [
        {
          "indexed": true,
          "internalType": "address",
          "name": "userAccount",
          "type": "address"
        },
        {
          "indexed": false,
          "internalType": "string",
          "name": "newUsername",
          "type": "string"
        }
      ],
      "name": "usernameChanged",
      "type": "event"
    },
    {
      "inputs": [],
      "name": "borrowingCount",
      "outputs": [
        {
          "internalType": "uint8",
          "name": "",
          "type": "uint8"
        }
      ],
      "stateMutability": "view",
      "type": "function"
    },
    {
      "inputs": [],
      "name": "deliveryAddress",
      "outputs": [
        {
          "internalType": "string",
          "name": "",
          "type": "string"
        }
      ],
      "stateMutability": "view",
      "type": "function"
    },
    {
      "inputs": [],
      "name": "isDishonestUser",
      "outputs": [
        {
          "internalType": "bool",
          "name": "",
          "type": "bool"
        }
      ],
      "stateMutability": "view",
      "type": "function"
    },
    {
      "inputs": [],
      "name": "lendingCount",
      "outputs": [
        {
          "internalType": "uint8",
          "name": "",
          "type": "uint8"
        }
      ],
      "stateMutability": "view",
      "type": "function"
    },
    {
      "inputs": [
        {
          "internalType": "uint256",
          "name": "",
          "type": "uint256"
        }
      ],
      "name": "rentalHistories",
      "outputs": [
        {
          "internalType": "address",
          "name": "item",
          "type": "address"
        },
        {
          "internalType": "address",
          "name": "rental",
          "type": "address"
        },
        {
          "internalType": "enum User.Role",
          "name": "role",
          "type": "uint8"
        },
        {
          "internalType": "bool",
          "name": "hasRated",
          "type": "bool"
        },
        {
          "internalType": "uint256",
          "name": "start",
          "type": "uint256"
        },
        {
          "internalType": "uint256",
          "name": "end",
          "type": "uint256"
        }
      ],
      "stateMutability": "view",
      "type": "function"
    },
    {
      "inputs": [],
      "name": "rentalHistoryCount",
      "outputs": [
        {
          "internalType": "uint8",
          "name": "",
          "type": "uint8"
        }
      ],
      "stateMutability": "view",
      "type": "function"
    },
    {
      "inputs": [
        {
          "internalType": "address",
          "name": "",
          "type": "address"
        }
      ],
      "name": "rentalIndexInRentalHistory",
      "outputs": [
        {
          "internalType": "uint8",
          "name": "",
          "type": "uint8"
        }
      ],
      "stateMutability": "view",
      "type": "function"
    },
    {
      "inputs": [],
      "name": "reviewCount",
      "outputs": [
        {
          "internalType": "uint8",
          "name": "",
          "type": "uint8"
        }
      ],
      "stateMutability": "view",
      "type": "function"
    },
    {
      "inputs": [
        {
          "internalType": "uint256",
          "name": "",
          "type": "uint256"
        }
      ],
      "name": "reviews",
      "outputs": [
        {
          "internalType": "address",
          "name": "item",
          "type": "address"
        },
        {
          "internalType": "address",
          "name": "rentalContract",
          "type": "address"
        },
        {
          "internalType": "address",
          "name": "raterUserContract",
          "type": "address"
        },
        {
          "internalType": "uint8",
          "name": "rate",
          "type": "uint8"
        },
        {
          "internalType": "string",
          "name": "review",
          "type": "string"
        },
        {
          "internalType": "enum User.Role",
          "name": "role",
          "type": "uint8"
        },
        {
          "internalType": "uint256",
          "name": "time",
          "type": "uint256"
        }
      ],
      "stateMutability": "view",
      "type": "function"
    },
    {
      "inputs": [],
      "name": "userAddress",
      "outputs": [
        {
          "internalType": "address",
          "name": "",
          "type": "address"
        }
      ],
      "stateMutability": "view",
      "type": "function"
    },
    {
      "inputs": [],
      "name": "username",
      "outputs": [
        {
          "internalType": "string",
          "name": "",
          "type": "string"
        }
      ],
      "stateMutability": "view",
      "type": "function"
    },
    {
      "inputs": [
        {
          "internalType": "string",
          "name": "_newUsername",
          "type": "string"
        }
      ],
      "name": "changeUsername",
      "outputs": [],
      "stateMutability": "nonpayable",
      "type": "function"
    },
    {
      "inputs": [
        {
          "internalType": "string",
          "name": "_newDeliveryAddress",
          "type": "string"
        }
      ],
      "name": "changeDeliveryAddress",
      "outputs": [],
      "stateMutability": "nonpayable",
      "type": "function"
    },
    {
      "inputs": [
        {
          "internalType": "uint8",
          "name": "_index",
          "type": "uint8"
        }
      ],
      "name": "setRentalHisotryHasRated",
      "outputs": [],
      "stateMutability": "nonpayable",
      "type": "function"
    },
    {
      "inputs": [
        {
          "internalType": "address",
          "name": "_item",
          "type": "address"
        },
        {
          "internalType": "address",
          "name": "_rental",
          "type": "address"
        },
        {
          "internalType": "uint256",
          "name": "_start",
          "type": "uint256"
        },
        {
          "internalType": "uint256",
          "name": "_end",
          "type": "uint256"
        }
      ],
      "name": "addNewLending",
      "outputs": [],
      "stateMutability": "nonpayable",
      "type": "function"
    },
    {
      "inputs": [
        {
          "internalType": "address",
          "name": "_item",
          "type": "address"
        },
        {
          "internalType": "address",
          "name": "_rental",
          "type": "address"
        },
        {
          "internalType": "uint256",
          "name": "_start",
          "type": "uint256"
        },
        {
          "internalType": "uint256",
          "name": "_end",
          "type": "uint256"
        }
      ],
      "name": "addNewBorrowing",
      "outputs": [],
      "stateMutability": "nonpayable",
      "type": "function"
    },
    {
      "inputs": [
        {
          "internalType": "address",
          "name": "_item",
          "type": "address"
        },
        {
          "internalType": "address",
          "name": "_rentalContract",
          "type": "address"
        },
        {
          "internalType": "address",
          "name": "_raterUserContract",
          "type": "address"
        },
        {
          "internalType": "uint8",
          "name": "_rate",
          "type": "uint8"
        },
        {
          "internalType": "string",
          "name": "_review",
          "type": "string"
        },
        {
          "internalType": "enum User.Role",
          "name": "_role",
          "type": "uint8"
        }
      ],
      "name": "inputReview",
      "outputs": [],
      "stateMutability": "nonpayable",
      "type": "function"
    },
    {
      "inputs": [],
      "name": "getRatingsSum",
      "outputs": [
        {
          "internalType": "uint256",
          "name": "",
          "type": "uint256"
        }
      ],
      "stateMutability": "view",
      "type": "function"
    },
    {
      "inputs": [],
      "name": "setAsDishonest",
      "outputs": [],
      "stateMutability": "nonpayable",
      "type": "function"
    }
  ],
  "bytecode": "0x60806040523480156200001157600080fd5b50604051620014b4380380620014b483398101604081905262000034916200020e565b600180546001600160a01b0319166001600160a01b0385161790558151620000649060029060208501906200009b565b5080516200007a9060039060208401906200009b565b50506005805460ff1916905550506007805463ffffffff19169055620002d5565b828054620000a99062000298565b90600052602060002090601f016020900481019282620000cd576000855562000118565b82601f10620000e857805160ff191683800117855562000118565b8280016001018555821562000118579182015b8281111562000118578251825591602001919060010190620000fb565b50620001269291506200012a565b5090565b5b808211156200012657600081556001016200012b565b634e487b7160e01b600052604160045260246000fd5b600082601f8301126200016957600080fd5b81516001600160401b038082111562000186576200018662000141565b604051601f8301601f19908116603f01168101908282118183101715620001b157620001b162000141565b81604052838152602092508683858801011115620001ce57600080fd5b600091505b83821015620001f25785820183015181830184015290820190620001d3565b83821115620002045760008385830101525b9695505050505050565b6000806000606084860312156200022457600080fd5b83516001600160a01b03811681146200023c57600080fd5b60208501519093506001600160401b03808211156200025a57600080fd5b620002688783880162000157565b935060408601519150808211156200027f57600080fd5b506200028e8682870162000157565b9150509250925092565b600181811c90821680620002ad57607f821691505b60208210811415620002cf57634e487b7160e01b600052602260045260246000fd5b50919050565b6111cf80620002e56000396000f3fe608060405234801561001057600080fd5b50600436106101215760003560e01c8063922b57fa116100ad578063c2bd811911610071578063c2bd81191461026d578063e4128fb314610275578063e83ddcea146102a0578063e85e79b6146102c6578063eff5924f146102eb57600080fd5b8063922b57fa14610207578063927584b91461021f57806395578e5814610235578063a934899514610248578063b35ddf941461025b57600080fd5b806361fac54d116100f457806361fac54d14610196578063683ab917146101ab57806377c846af146101be578063886f1bb9146101d157806390f1af6c146101e457600080fd5b80632254df251461012657806326f2d18b1461014f57806332cc4e811461016457806350d9de1d14610183575b600080fd5b60075461013a906301000000900460ff1681565b60405190151581526020015b60405180910390f35b61016261015d366004610d5e565b6102f8565b005b6005546101719060ff1681565b60405160ff9091168152602001610146565b6007546101719062010000900460ff1681565b61019e610338565b6040516101469190610dcf565b6101626101b9366004610e40565b6103c6565b6101626101cc366004610ee6565b610798565b6101626101df366004610ee6565b610803565b6101716101f2366004610f28565b60006020819052908152604090205460ff1681565b6101626007805463ff00000019166301000000179055565b610227610862565b604051908152602001610146565b610162610243366004610f45565b6108c9565b610162610256366004610f45565b610a92565b60075461017190610100900460ff1681565b61019e610ae7565b600154610288906001600160a01b031681565b6040516001600160a01b039091168152602001610146565b6102b36102ae366004610f8b565b610af4565b6040516101469796959493929190610fdc565b6102d96102d4366004610f8b565b610be3565b6040516101469695949392919061103a565b6007546101719060ff1681565b600060048260ff16815481106103105761031061107c565b60009182526020909120600160049092020101805460ff60a81b1916600160a81b1790555050565b6002805461034590611092565b80601f016020809104026020016040519081016040528092919081815260200182805461037190611092565b80156103be5780601f10610393576101008083540402835291602001916103be565b820191906000526020600020905b8154815290600101906020018083116103a157829003601f168201915b505050505081565b6001546001600160a01b03163314156103de57600080fd5b60405163243c6bdb60e21b81526001600160a01b03888116600483015286916000918316906390f1af6c9060240160206040518083038186803b15801561042457600080fd5b505afa158015610438573d6000803e3d6000fd5b505050506040513d601f19601f8201168201806040525081019061045c91906110c7565b6040516326f2d18b60e01b815260ff821660048201529091506001600160a01b038316906326f2d18b90602401600060405180830381600087803b1580156104a357600080fd5b505af11580156104b7573d6000803e3d6000fd5b5050505060006040518060e001604052808b6001600160a01b031681526020018a6001600160a01b03168152602001896001600160a01b031681526020018860ff16815260200187878080601f01602080910402602001604051908101604052809392919081815260200183838082843760009201919091525050509082525060200185600181111561054c5761054c610fa4565b815242602091820152600680546001810182556000829052835191027ff652222313e28459528d920b65115c16c04f3efc82aaedc97be59f3f377c0d3f810180546001600160a01b039384166001600160a01b0319918216178255858501517ff652222313e28459528d920b65115c16c04f3efc82aaedc97be59f3f377c0d40840180549186169190921617905560408501517ff652222313e28459528d920b65115c16c04f3efc82aaedc97be59f3f377c0d4183018054606088015160ff16600160a01b026001600160a81b0319909116929095169190911793909317909255608084015180519495508594929361066c937ff652222313e28459528d920b65115c16c04f3efc82aaedc97be59f3f377c0d4290930192910190610c3f565b5060a082015160048201805460ff19166001838181111561068f5761068f610fa4565b021790555060c091909101516005909101556007805460ff169060006106b4836110fa565b91906101000a81548160ff021916908360ff16021790555050826001600160a01b031663e4128fb36040518163ffffffff1660e01b815260040160206040518083038186803b15801561070657600080fd5b505afa15801561071a573d6000803e3d6000fd5b505050506040513d601f19601f8201168201806040525081019061073e919061111a565b6007546040805160ff808c16825290921660208301526001600160a01b0392909216917f55b429f465f51ece29c8e23ac4a440fd26a290daa27c5cb884f632c15c1b9fdf910160405180910390a250505050505050505050565b6001546001600160a01b031633146107af57600080fd5b6107bb60028383610cc3565b50336001600160a01b03167ff07516e9449b46121f3f7f7cb800fb5f90f7ee9e442a5479e8e3bab929d71b7783836040516107f7929190611137565b60405180910390a25050565b6001546001600160a01b0316331461081a57600080fd5b61082660038383610cc3565b50336001600160a01b03167ff01f8beedc6b4ff8605063d6b438798f7caa71e19ea3097a733f57c40072a32083836040516107f7929190611137565b600080805b60075460ff168110156108c357600681815481106108875761088761107c565b60009182526020909120600690910201600201546108af90600160a01b900460ff1683611166565b9150806108bb8161117e565b915050610867565b50919050565b6040805160c0810182526001600160a01b03808716825285166020820152600091810182815260006020820152604081018590526060018390526007805491925061010090910460ff1690600161091f836110fa565b82546101009290920a60ff818102199093169190921691909102179055506004805460018181018355600083905283517f8a35acfbc15ff81a39ae7d344fd709f28e8600b4aa8c65c6b64bfe7fe36bd19b9290930291820180546001600160a01b03199081166001600160a01b0395861617825560208601517f8a35acfbc15ff81a39ae7d344fd709f28e8600b4aa8c65c6b64bfe7fe36bd19c909401805491821694909516938417855560408601518695929490936001600160a81b03199092161790600160a01b9084908111156109fa576109fa610fa4565b02179055506060820151600182018054911515600160a81b0260ff60a81b199092169190911790556080820151600282015560a090910151600390910155600580546001600160a01b0387166000908152602081905260408120805460ff191660ff93841617905582549091169190610a72836110fa565b91906101000a81548160ff021916908360ff160217905550505050505050565b6040805160c0810182526001600160a01b03868116825285166020820152600191810191909152600060608201526080810183905260a081018290526007805462010000900460ff1690600261091f836110fa565b6003805461034590611092565b60068181548110610b0457600080fd5b600091825260209091206006909102018054600182015460028301546003840180546001600160a01b0394851696509284169493821693600160a01b90920460ff1692610b5090611092565b80601f0160208091040260200160405190810160405280929190818152602001828054610b7c90611092565b8015610bc95780601f10610b9e57610100808354040283529160200191610bc9565b820191906000526020600020905b815481529060010190602001808311610bac57829003601f168201915b505050506004830154600590930154919260ff1691905087565b60048181548110610bf357600080fd5b600091825260209091206004909102018054600182015460028301546003909301546001600160a01b0392831694509181169260ff600160a01b8304811693600160a81b909304169186565b828054610c4b90611092565b90600052602060002090601f016020900481019282610c6d5760008555610cb3565b82601f10610c8657805160ff1916838001178555610cb3565b82800160010185558215610cb3579182015b82811115610cb3578251825591602001919060010190610c98565b50610cbf929150610d37565b5090565b828054610ccf90611092565b90600052602060002090601f016020900481019282610cf15760008555610cb3565b82601f10610d0a5782800160ff19823516178555610cb3565b82800160010185558215610cb3579182015b82811115610cb3578235825591602001919060010190610d1c565b5b80821115610cbf5760008155600101610d38565b60ff81168114610d5b57600080fd5b50565b600060208284031215610d7057600080fd5b8135610d7b81610d4c565b9392505050565b6000815180845260005b81811015610da857602081850181015186830182015201610d8c565b81811115610dba576000602083870101525b50601f01601f19169290920160200192915050565b602081526000610d7b6020830184610d82565b6001600160a01b0381168114610d5b57600080fd5b60008083601f840112610e0957600080fd5b50813567ffffffffffffffff811115610e2157600080fd5b602083019150836020828501011115610e3957600080fd5b9250929050565b600080600080600080600060c0888a031215610e5b57600080fd5b8735610e6681610de2565b96506020880135610e7681610de2565b95506040880135610e8681610de2565b94506060880135610e9681610d4c565b9350608088013567ffffffffffffffff811115610eb257600080fd5b610ebe8a828b01610df7565b90945092505060a088013560028110610ed657600080fd5b8091505092959891949750929550565b60008060208385031215610ef957600080fd5b823567ffffffffffffffff811115610f1057600080fd5b610f1c85828601610df7565b90969095509350505050565b600060208284031215610f3a57600080fd5b8135610d7b81610de2565b60008060008060808587031215610f5b57600080fd5b8435610f6681610de2565b93506020850135610f7681610de2565b93969395505050506040820135916060013590565b600060208284031215610f9d57600080fd5b5035919050565b634e487b7160e01b600052602160045260246000fd5b60028110610fd857634e487b7160e01b600052602160045260246000fd5b9052565b6001600160a01b03888116825287811660208301528616604082015260ff8516606082015260e06080820181905260009061101990830186610d82565b905061102860a0830185610fba565b8260c083015298975050505050505050565b6001600160a01b0387811682528616602082015260c0810161105f6040830187610fba565b9315156060820152608081019290925260a0909101529392505050565b634e487b7160e01b600052603260045260246000fd5b600181811c908216806110a657607f821691505b602082108114156108c357634e487b7160e01b600052602260045260246000fd5b6000602082840312156110d957600080fd5b8151610d7b81610d4c565b634e487b7160e01b600052601160045260246000fd5b600060ff821660ff811415611111576111116110e4565b60010192915050565b60006020828403121561112c57600080fd5b8151610d7b81610de2565b60208152816020820152818360408301376000818301604090810191909152601f909201601f19160101919050565b60008219821115611179576111796110e4565b500190565b6000600019821415611192576111926110e4565b506001019056fea2646970667358221220c3165700867c0d43ce7591d6636abb9bf27d9a9c581c3935dbc49a0f21e7fa2a64736f6c63430008090033",
  "immutableReferences": {},
  "source": "// SPDX-License-Identifier: GPL-3.0\n\npragma solidity >=0.7.0 <0.9.0;\n\n// import \"./Item.sol\";\nimport \"./Rental.sol\";\n\ncontract User {\n    enum Role {\n        OWNER,\n        RENTER\n    }\n\n    struct RentalHistory {\n        address item; // address of the deployed smart contract for the item\n        address rental; // address of the deployed rental contract\n        Role role;\n        bool hasRated; // rate the opposite role in the contact\n        uint256 start; // Unix epoch time\n        uint256 end; // Unix epoch time\n    }\n\n    struct Review {\n        address item;\n        address rentalContract;\n        address raterUserContract;\n        uint8 rate;\n        string review;\n        Role role; // role of the rater\n        uint256 time;\n    }\n\n    mapping(address => uint8) public rentalIndexInRentalHistory;\n\n    address public userAddress;\n    string public username;\n    string public deliveryAddress;\n\n    RentalHistory[] public rentalHistories;\n    uint8 public rentalHistoryCount;\n    Review[] public reviews;\n    uint8 public reviewCount;\n    uint8 public lendingCount;\n    uint8 public borrowingCount;\n    bool public isDishonestUser;\n\n    event usernameChanged(address indexed userAccount, string newUsername);\n    event deliveryAddressChanged(\n        address indexed userAccount,\n        string newDeliveryAddress\n    );\n    event newReviewInput(address indexed from, uint8 rate, uint8 ratingCount);\n\n    constructor(\n        address _userAddress,\n        string memory _username,\n        string memory _deliveryAddress\n    ) {\n        userAddress = _userAddress;\n        username = _username;\n        deliveryAddress = _deliveryAddress;\n\n        rentalHistoryCount = 0;\n        reviewCount = 0;\n        lendingCount = 0;\n        borrowingCount = 0;\n        isDishonestUser = false;\n    }\n\n    modifier onlyUser() {\n        require(msg.sender == userAddress);\n        _;\n    }\n\n    modifier restricted() {\n        require(msg.sender != userAddress);\n        _;\n    }\n\n    function changeUsername(string calldata _newUsername) public onlyUser {\n        username = _newUsername;\n        emit usernameChanged(msg.sender, _newUsername);\n    }\n\n    function changeDeliveryAddress(string calldata _newDeliveryAddress)\n        public\n        onlyUser\n    {\n        deliveryAddress = _newDeliveryAddress;\n        emit deliveryAddressChanged(msg.sender, _newDeliveryAddress);\n    }\n\n    function setRentalHisotryHasRated(uint8 _index) public {\n        RentalHistory storage history = rentalHistories[_index];\n        history.hasRated = true;\n    }\n\n    // lending: user is owner\n    function addNewLending(\n        address _item,\n        address _rental,\n        uint256 _start,\n        uint256 _end\n    ) public {\n        RentalHistory memory history = RentalHistory({\n            item: _item,\n            rental: _rental,\n            role: Role.OWNER,\n            hasRated: false,\n            start: _start,\n            end: _end\n        });\n\n        lendingCount++;\n        rentalHistories.push(history);\n        rentalIndexInRentalHistory[_item] = rentalHistoryCount;\n        rentalHistoryCount++;\n    }\n\n    // borrowing: user is renter\n    function addNewBorrowing(\n        address _item,\n        address _rental,\n        uint256 _start,\n        uint256 _end\n    ) public {\n        RentalHistory memory history = RentalHistory({\n            item: _item,\n            rental: _rental,\n            role: Role.RENTER,\n            hasRated: false,\n            start: _start,\n            end: _end\n        });\n\n        borrowingCount++;\n        rentalHistories.push(history);\n        rentalIndexInRentalHistory[_item] = rentalHistoryCount;\n        rentalHistoryCount++;\n    }\n\n    function inputReview(\n        address _item,\n        address _rentalContract,\n        address _raterUserContract,\n        uint8 _rate,\n        string calldata _review,\n        Role _role // role of rater\n    ) public restricted {\n        // Item item = Item(_item);\n        User rater = User(_raterUserContract);\n        // Rental rental = Rental(_rentalContract);\n        uint8 rentalIndexOfRater = rater.rentalIndexInRentalHistory(_item);\n        rater.setRentalHisotryHasRated(rentalIndexOfRater);\n\n        Review memory newReview = Review({\n            item: _item,\n            rentalContract: _rentalContract,\n            rate: _rate,\n            raterUserContract: _raterUserContract,\n            review: _review,\n            role: _role,\n            time: block.timestamp\n        });\n\n        reviews.push(newReview);\n        reviewCount++;\n\n        // if (_role == Role.RENTER) {\n        //     item.addItemReview(newReview);\n        // }\n\n        emit newReviewInput(rater.userAddress(), _rate, reviewCount);\n    }\n\n    function getRatingsSum() public view returns (uint256) {\n        uint256 sum = 0;\n        for (uint256 i = 0; i < reviewCount; i++) {\n            sum += reviews[i].rate;\n        }\n        return sum;\n    }\n\n    function setAsDishonest() public {\n        isDishonestUser = true;\n    }\n}\n",
  "sourcePath": "/Users/jyuteo/CodeProjects/TRent/src/contracts/User.sol",
  "compiler": {
    "name": "solc",
    "version": "0.8.9+commit.e5eed63a.Emscripten.clang"
  },
  "schemaVersion": "3.4.3",
  "updatedAt": "2021-10-03T12:19:37.896Z",
  "devdoc": {
    "kind": "dev",
    "methods": {},
    "version": 1
  },
  "userdoc": {
    "kind": "user",
    "methods": {},
    "version": 1
  }
}