{
  "contractName": "User",
  "abi": [
    {
      "inputs": [
        {
          "internalType": "address",
          "name": "_userAddress",
          "type": "address"
        },
        {
          "internalType": "string",
          "name": "_username",
          "type": "string"
        },
        {
          "internalType": "string",
          "name": "_deliveryAddress",
          "type": "string"
        }
      ],
      "stateMutability": "nonpayable",
      "type": "constructor"
    },
    {
      "anonymous": false,
      "inputs": [
        {
          "indexed": true,
          "internalType": "address",
          "name": "userAccount",
          "type": "address"
        },
        {
          "indexed": false,
          "internalType": "string",
          "name": "newDeliveryAddress",
          "type": "string"
        }
      ],
      "name": "deliveryAddressChanged",
      "type": "event"
    },
    {
      "anonymous": false,
      "inputs": [
        {
          "indexed": true,
          "internalType": "address",
          "name": "from",
          "type": "address"
        },
        {
          "indexed": false,
          "internalType": "uint8",
          "name": "rate",
          "type": "uint8"
        },
        {
          "indexed": false,
          "internalType": "uint8",
          "name": "ratingCount",
          "type": "uint8"
        }
      ],
      "name": "newRatingInput",
      "type": "event"
    },
    {
      "anonymous": false,
      "inputs": [
        {
          "indexed": true,
          "internalType": "address",
          "name": "userAccount",
          "type": "address"
        },
        {
          "indexed": false,
          "internalType": "string",
          "name": "newUsername",
          "type": "string"
        }
      ],
      "name": "usernameChanged",
      "type": "event"
    },
    {
      "inputs": [],
      "name": "borrowingCount",
      "outputs": [
        {
          "internalType": "uint8",
          "name": "",
          "type": "uint8"
        }
      ],
      "stateMutability": "view",
      "type": "function"
    },
    {
      "inputs": [],
      "name": "deliveryAddress",
      "outputs": [
        {
          "internalType": "string",
          "name": "",
          "type": "string"
        }
      ],
      "stateMutability": "view",
      "type": "function"
    },
    {
      "inputs": [],
      "name": "isDishonestUser",
      "outputs": [
        {
          "internalType": "bool",
          "name": "",
          "type": "bool"
        }
      ],
      "stateMutability": "view",
      "type": "function"
    },
    {
      "inputs": [],
      "name": "lendingCount",
      "outputs": [
        {
          "internalType": "uint8",
          "name": "",
          "type": "uint8"
        }
      ],
      "stateMutability": "view",
      "type": "function"
    },
    {
      "inputs": [],
      "name": "ratingCount",
      "outputs": [
        {
          "internalType": "uint8",
          "name": "",
          "type": "uint8"
        }
      ],
      "stateMutability": "view",
      "type": "function"
    },
    {
      "inputs": [
        {
          "internalType": "uint256",
          "name": "",
          "type": "uint256"
        }
      ],
      "name": "ratings",
      "outputs": [
        {
          "internalType": "address",
          "name": "item",
          "type": "address"
        },
        {
          "internalType": "address",
          "name": "rater",
          "type": "address"
        },
        {
          "internalType": "uint8",
          "name": "rate",
          "type": "uint8"
        },
        {
          "internalType": "string",
          "name": "review",
          "type": "string"
        },
        {
          "internalType": "enum User.Role",
          "name": "role",
          "type": "uint8"
        },
        {
          "internalType": "uint256",
          "name": "time",
          "type": "uint256"
        }
      ],
      "stateMutability": "view",
      "type": "function"
    },
    {
      "inputs": [
        {
          "internalType": "uint256",
          "name": "",
          "type": "uint256"
        }
      ],
      "name": "rentalHistories",
      "outputs": [
        {
          "internalType": "address",
          "name": "item",
          "type": "address"
        },
        {
          "internalType": "address",
          "name": "rental",
          "type": "address"
        },
        {
          "internalType": "enum User.Role",
          "name": "role",
          "type": "uint8"
        },
        {
          "internalType": "bool",
          "name": "hasRated",
          "type": "bool"
        },
        {
          "internalType": "uint256",
          "name": "start",
          "type": "uint256"
        },
        {
          "internalType": "uint256",
          "name": "end",
          "type": "uint256"
        }
      ],
      "stateMutability": "view",
      "type": "function"
    },
    {
      "inputs": [],
      "name": "rentalHistoryCount",
      "outputs": [
        {
          "internalType": "uint8",
          "name": "",
          "type": "uint8"
        }
      ],
      "stateMutability": "view",
      "type": "function"
    },
    {
      "inputs": [
        {
          "internalType": "address",
          "name": "",
          "type": "address"
        }
      ],
      "name": "rentalIndexInRentalHistory",
      "outputs": [
        {
          "internalType": "uint8",
          "name": "",
          "type": "uint8"
        }
      ],
      "stateMutability": "view",
      "type": "function"
    },
    {
      "inputs": [],
      "name": "userAddress",
      "outputs": [
        {
          "internalType": "address",
          "name": "",
          "type": "address"
        }
      ],
      "stateMutability": "view",
      "type": "function"
    },
    {
      "inputs": [],
      "name": "username",
      "outputs": [
        {
          "internalType": "string",
          "name": "",
          "type": "string"
        }
      ],
      "stateMutability": "view",
      "type": "function"
    },
    {
      "inputs": [
        {
          "internalType": "string",
          "name": "_newUsername",
          "type": "string"
        }
      ],
      "name": "changeUsername",
      "outputs": [],
      "stateMutability": "nonpayable",
      "type": "function"
    },
    {
      "inputs": [
        {
          "internalType": "string",
          "name": "_newDeliveryAddress",
          "type": "string"
        }
      ],
      "name": "changeDeliveryAddress",
      "outputs": [],
      "stateMutability": "nonpayable",
      "type": "function"
    },
    {
      "inputs": [
        {
          "internalType": "uint8",
          "name": "_index",
          "type": "uint8"
        }
      ],
      "name": "setRentalHisotryHasRated",
      "outputs": [],
      "stateMutability": "nonpayable",
      "type": "function"
    },
    {
      "inputs": [
        {
          "internalType": "address",
          "name": "_item",
          "type": "address"
        },
        {
          "internalType": "address",
          "name": "_rental",
          "type": "address"
        },
        {
          "internalType": "uint256",
          "name": "_start",
          "type": "uint256"
        },
        {
          "internalType": "uint256",
          "name": "_end",
          "type": "uint256"
        }
      ],
      "name": "addNewLending",
      "outputs": [],
      "stateMutability": "nonpayable",
      "type": "function"
    },
    {
      "inputs": [
        {
          "internalType": "address",
          "name": "_item",
          "type": "address"
        },
        {
          "internalType": "address",
          "name": "_rental",
          "type": "address"
        },
        {
          "internalType": "uint256",
          "name": "_start",
          "type": "uint256"
        },
        {
          "internalType": "uint256",
          "name": "_end",
          "type": "uint256"
        }
      ],
      "name": "addNewBorrowing",
      "outputs": [],
      "stateMutability": "nonpayable",
      "type": "function"
    },
    {
      "inputs": [
        {
          "internalType": "address",
          "name": "_item",
          "type": "address"
        },
        {
          "internalType": "address",
          "name": "_raterUserContract",
          "type": "address"
        },
        {
          "internalType": "uint8",
          "name": "_rate",
          "type": "uint8"
        },
        {
          "internalType": "string",
          "name": "_review",
          "type": "string"
        },
        {
          "internalType": "enum User.Role",
          "name": "_role",
          "type": "uint8"
        }
      ],
      "name": "inputRating",
      "outputs": [],
      "stateMutability": "nonpayable",
      "type": "function"
    },
    {
      "inputs": [],
      "name": "getRatingsSum",
      "outputs": [
        {
          "internalType": "uint256",
          "name": "",
          "type": "uint256"
        }
      ],
      "stateMutability": "view",
      "type": "function"
    }
  ],
  "bytecode": "0x60806040523480156200001157600080fd5b5060405162001499380380620014998339810160408190526200003491620001f8565b600180546001600160a01b0319166001600160a01b0385161790558151620000649060029060208501906200009b565b5080516200007a9060039060208401906200009b565b50506005805460ff1916905550506007805463ffffffff19169055620002d5565b828054620000a99062000282565b90600052602060002090601f016020900481019282620000cd576000855562000118565b82601f10620000e857805160ff191683800117855562000118565b8280016001018555821562000118579182015b8281111562000118578251825591602001919060010190620000fb565b50620001269291506200012a565b5090565b5b808211156200012657600081556001016200012b565b600082601f8301126200015357600080fd5b81516001600160401b0380821115620001705762000170620002bf565b604051601f8301601f19908116603f011681019082821181831017156200019b576200019b620002bf565b81604052838152602092508683858801011115620001b857600080fd5b600091505b83821015620001dc5785820183015181830184015290820190620001bd565b83821115620001ee5760008385830101525b9695505050505050565b6000806000606084860312156200020e57600080fd5b83516001600160a01b03811681146200022657600080fd5b60208501519093506001600160401b03808211156200024457600080fd5b620002528783880162000141565b935060408601519150808211156200026957600080fd5b50620002788682870162000141565b9150509250925092565b600181811c908216806200029757607f821691505b60208210811415620002b957634e487b7160e01b600052602260045260246000fd5b50919050565b634e487b7160e01b600052604160045260246000fd5b6111b480620002e56000396000f3fe608060405234801561001057600080fd5b50600436106101165760003560e01c8063886f1bb9116100a2578063a934899511610071578063a934899514610257578063b35ddf941461026a578063c2bd81191461027c578063e4128fb314610284578063e85e79b6146102af57600080fd5b8063886f1bb9146101f857806390f1af6c1461020b578063927584b91461022e57806395578e581461024457600080fd5b806350d9de1d116100e957806350d9de1d146101855780635d30e84d1461019857806361fac54d146101bd57806373ddea79146101d257806377c846af146101e557600080fd5b80632254df251461011b578063248640811461014457806326f2d18b1461016357806332cc4e8114610178575b600080fd5b60075461012f906301000000900460ff1681565b60405190151581526020015b60405180910390f35b6007546101519060ff1681565b60405160ff909116815260200161013b565b610176610171366004610f0b565b6102d4565b005b6005546101519060ff1681565b6007546101519062010000900460ff1681565b6101ab6101a6366004610ef2565b610314565b60405161013b96959493929190610ff6565b6101c56103fa565b60405161013b919061107a565b6101766101e0366004610e1e565b610488565b6101766101f3366004610eb0565b610889565b610176610206366004610eb0565b6108f4565b610151610219366004610d97565b60006020819052908152604090205460ff1681565b610236610953565b60405190815260200161013b565b610176610252366004610dd8565b6109ba565b610176610265366004610dd8565b610b83565b60075461015190610100900460ff1681565b6101c5610bd8565b600154610297906001600160a01b031681565b6040516001600160a01b03909116815260200161013b565b6102c26102bd366004610ef2565b610be5565b60405161013b96959493929190610fb4565b600060048260ff16815481106102ec576102ec611141565b60009182526020909120600160049092020101805460ff60a81b1916600160a81b1790555050565b6006818154811061032457600080fd5b60009182526020909120600590910201805460018201546002830180546001600160a01b03938416955092821693600160a01b90920460ff1692610367906110a5565b80601f0160208091040260200160405190810160405280929190818152602001828054610393906110a5565b80156103e05780601f106103b5576101008083540402835291602001916103e0565b820191906000526020600020905b8154815290600101906020018083116103c357829003601f168201915b505050506003830154600490930154919260ff1691905086565b60028054610407906110a5565b80601f0160208091040260200160405190810160405280929190818152602001828054610433906110a5565b80156104805780601f1061045557610100808354040283529160200191610480565b820191906000526020600020905b81548152906001019060200180831161046357829003601f168201915b505050505081565b6001546001600160a01b03163314156104a057600080fd5b60405163243c6bdb60e21b81526001600160a01b03878116600483015286916000918316906390f1af6c9060240160206040518083038186803b1580156104e657600080fd5b505afa1580156104fa573d6000803e3d6000fd5b505050506040513d601f19601f8201168201806040525081019061051e9190610f28565b6040516326f2d18b60e01b815260ff821660048201529091506001600160a01b038316906326f2d18b90602401600060405180830381600087803b15801561056557600080fd5b505af1158015610579573d6000803e3d6000fd5b5050505060006040518060c001604052808a6001600160a01b03168152602001846001600160a01b031663e4128fb36040518163ffffffff1660e01b815260040160206040518083038186803b1580156105d257600080fd5b505afa1580156105e6573d6000803e3d6000fd5b505050506040513d601f19601f8201168201806040525081019061060a9190610dbb565b6001600160a01b031681526020018860ff16815260200187878080601f01602080910402602001604051908101604052809392919081815260200183838082843760009201919091525050509082525060200185600181111561066f5761066f61112b565b8152426020918201526006805460018101825560009190915282517ff652222313e28459528d920b65115c16c04f3efc82aaedc97be59f3f377c0d3f600590920291820180546001600160a01b0319166001600160a01b03928316178155848401517ff652222313e28459528d920b65115c16c04f3efc82aaedc97be59f3f377c0d40840180546040880151929094166001600160a81b031990941693909317600160a01b60ff9092169190910217909155606084015180519495508594919361075e937ff652222313e28459528d920b65115c16c04f3efc82aaedc97be59f3f377c0d410192910190610c41565b50608082015160038201805460ff1916600183818111156107815761078161112b565b021790555060a091909101516004909101556007805460ff169060006107a6836110f5565b91906101000a81548160ff021916908360ff16021790555050826001600160a01b031663e4128fb36040518163ffffffff1660e01b815260040160206040518083038186803b1580156107f857600080fd5b505afa15801561080c573d6000803e3d6000fd5b505050506040513d601f19601f820116820180604052508101906108309190610dbb565b6007546040805160ff808c16825290921660208301526001600160a01b0392909216917f90a85869adb958b6374cf98f2a24b28f0db723127744011d6363487d50cef161910160405180910390a2505050505050505050565b6001546001600160a01b031633146108a057600080fd5b6108ac60028383610cc5565b50336001600160a01b03167ff07516e9449b46121f3f7f7cb800fb5f90f7ee9e442a5479e8e3bab929d71b7783836040516108e892919061104b565b60405180910390a25050565b6001546001600160a01b0316331461090b57600080fd5b61091760038383610cc5565b50336001600160a01b03167ff01f8beedc6b4ff8605063d6b438798f7caa71e19ea3097a733f57c40072a32083836040516108e892919061104b565b600080805b60075460ff168110156109b4576006818154811061097857610978611141565b60009182526020909120600590910201600101546109a090600160a01b900460ff168361108d565b9150806109ac816110da565b915050610958565b50919050565b6040805160c0810182526001600160a01b03808716825285166020820152600091810182815260006020820152604081018590526060018390526007805491925061010090910460ff16906001610a10836110f5565b82546101009290920a60ff818102199093169190921691909102179055506004805460018181018355600083905283517f8a35acfbc15ff81a39ae7d344fd709f28e8600b4aa8c65c6b64bfe7fe36bd19b9290930291820180546001600160a01b03199081166001600160a01b0395861617825560208601517f8a35acfbc15ff81a39ae7d344fd709f28e8600b4aa8c65c6b64bfe7fe36bd19c909401805491821694909516938417855560408601518695929490936001600160a81b03199092161790600160a01b908490811115610aeb57610aeb61112b565b02179055506060820151600182018054911515600160a81b0260ff60a81b199092169190911790556080820151600282015560a090910151600390910155600580546001600160a01b0387166000908152602081905260408120805460ff191660ff93841617905582549091169190610b63836110f5565b91906101000a81548160ff021916908360ff160217905550505050505050565b6040805160c0810182526001600160a01b03868116825285166020820152600191810191909152600060608201526080810183905260a081018290526007805462010000900460ff16906002610a10836110f5565b60038054610407906110a5565b60048181548110610bf557600080fd5b600091825260209091206004909102018054600182015460028301546003909301546001600160a01b0392831694509181169260ff600160a01b8304811693600160a81b909304169186565b828054610c4d906110a5565b90600052602060002090601f016020900481019282610c6f5760008555610cb5565b82601f10610c8857805160ff1916838001178555610cb5565b82800160010185558215610cb5579182015b82811115610cb5578251825591602001919060010190610c9a565b50610cc1929150610d39565b5090565b828054610cd1906110a5565b90600052602060002090601f016020900481019282610cf35760008555610cb5565b82601f10610d0c5782800160ff19823516178555610cb5565b82800160010185558215610cb5579182015b82811115610cb5578235825591602001919060010190610d1e565b5b80821115610cc15760008155600101610d3a565b60008083601f840112610d6057600080fd5b50813567ffffffffffffffff811115610d7857600080fd5b602083019150836020828501011115610d9057600080fd5b9250929050565b600060208284031215610da957600080fd5b8135610db481611157565b9392505050565b600060208284031215610dcd57600080fd5b8151610db481611157565b60008060008060808587031215610dee57600080fd5b8435610df981611157565b93506020850135610e0981611157565b93969395505050506040820135916060013590565b60008060008060008060a08789031215610e3757600080fd5b8635610e4281611157565b95506020870135610e5281611157565b94506040870135610e628161116f565b9350606087013567ffffffffffffffff811115610e7e57600080fd5b610e8a89828a01610d4e565b909450925050608087013560028110610ea257600080fd5b809150509295509295509295565b60008060208385031215610ec357600080fd5b823567ffffffffffffffff811115610eda57600080fd5b610ee685828601610d4e565b90969095509350505050565b600060208284031215610f0457600080fd5b5035919050565b600060208284031215610f1d57600080fd5b8135610db48161116f565b600060208284031215610f3a57600080fd5b8151610db48161116f565b60028110610f6357634e487b7160e01b600052602160045260246000fd5b9052565b6000815180845260005b81811015610f8d57602081850181015186830182015201610f71565b81811115610f9f576000602083870101525b50601f01601f19169290920160200192915050565b6001600160a01b0387811682528616602082015260c08101610fd96040830187610f45565b9315156060820152608081019290925260a0909101529392505050565b6001600160a01b0387811682528616602082015260ff8516604082015260c06060820181905260009061102b90830186610f67565b905061103a6080830185610f45565b8260a0830152979650505050505050565b60208152816020820152818360408301376000818301604090810191909152601f909201601f19160101919050565b602081526000610db46020830184610f67565b600082198211156110a0576110a0611115565b500190565b600181811c908216806110b957607f821691505b602082108114156109b457634e487b7160e01b600052602260045260246000fd5b60006000198214156110ee576110ee611115565b5060010190565b600060ff821660ff81141561110c5761110c611115565b60010192915050565b634e487b7160e01b600052601160045260246000fd5b634e487b7160e01b600052602160045260246000fd5b634e487b7160e01b600052603260045260246000fd5b6001600160a01b038116811461116c57600080fd5b50565b60ff8116811461116c57600080fdfea264697066735822122079029f050ca8f6cb3ad1a9c4b3089e3af04c89b21e66579fc868e4a73325877164736f6c63430008070033",
  "immutableReferences": {},
  "source": "// SPDX-License-Identifier: GPL-3.0\n\npragma solidity >=0.7.0 <0.9.0;\n\ncontract User {\n    enum Role {\n        OWNER,\n        RENTER\n    }\n\n    struct RentalHistory {\n        address item; // address of the deployed smart contract for the item\n        address rental; // address of the deployed rental contract\n        Role role;\n        bool hasRated; // rate the opposite role in the contact\n        uint256 start; // Unix epoch time\n        uint256 end; // Unix epoch time\n    }\n\n    struct Rating {\n        address item;\n        address rater;\n        uint8 rate;\n        string review;\n        Role role; // role of the rater\n        uint256 time;\n    }\n\n    mapping(address => uint8) public rentalIndexInRentalHistory;\n\n    address public userAddress;\n    string public username;\n    string public deliveryAddress;\n\n    RentalHistory[] public rentalHistories;\n    uint8 public rentalHistoryCount;\n    Rating[] public ratings;\n    uint8 public ratingCount;\n    uint8 public lendingCount;\n    uint8 public borrowingCount;\n    bool public isDishonestUser;\n\n    event usernameChanged(address indexed userAccount, string newUsername);\n    event deliveryAddressChanged(\n        address indexed userAccount,\n        string newDeliveryAddress\n    );\n    event newRatingInput(address indexed from, uint8 rate, uint8 ratingCount);\n\n    constructor(\n        address _userAddress,\n        string memory _username,\n        string memory _deliveryAddress\n    ) {\n        userAddress = _userAddress;\n        username = _username;\n        deliveryAddress = _deliveryAddress;\n\n        rentalHistoryCount = 0;\n        ratingCount = 0;\n        lendingCount = 0;\n        borrowingCount = 0;\n        isDishonestUser = false;\n    }\n\n    modifier onlyUser() {\n        require(msg.sender == userAddress);\n        _;\n    }\n\n    modifier restricted() {\n        require(msg.sender != userAddress);\n        _;\n    }\n\n    function changeUsername(string calldata _newUsername) public onlyUser {\n        username = _newUsername;\n        emit usernameChanged(msg.sender, _newUsername);\n    }\n\n    function changeDeliveryAddress(string calldata _newDeliveryAddress)\n        public\n        onlyUser\n    {\n        deliveryAddress = _newDeliveryAddress;\n        emit deliveryAddressChanged(msg.sender, _newDeliveryAddress);\n    }\n\n    function setRentalHisotryHasRated(uint8 _index) public {\n        RentalHistory storage history = rentalHistories[_index];\n        history.hasRated = true;\n    }\n\n    // lending: user is owner\n    function addNewLending(\n        address _item,\n        address _rental,\n        uint256 _start,\n        uint256 _end\n    ) public {\n        RentalHistory memory history = RentalHistory({\n            item: _item,\n            rental: _rental,\n            role: Role.OWNER,\n            hasRated: false,\n            start: _start,\n            end: _end\n        });\n\n        lendingCount++;\n        rentalHistories.push(history);\n        rentalIndexInRentalHistory[_item] = rentalHistoryCount;\n        rentalHistoryCount++;\n    }\n\n    // borrowing: user is renter\n    function addNewBorrowing(\n        address _item,\n        address _rental,\n        uint256 _start,\n        uint256 _end\n    ) public {\n        RentalHistory memory history = RentalHistory({\n            item: _item,\n            rental: _rental,\n            role: Role.RENTER,\n            hasRated: false,\n            start: _start,\n            end: _end\n        });\n\n        borrowingCount++;\n        rentalHistories.push(history);\n        rentalIndexInRentalHistory[_item] = rentalHistoryCount;\n        rentalHistoryCount++;\n    }\n\n    function inputRating(\n        address _item,\n        address _raterUserContract,\n        uint8 _rate,\n        string calldata _review,\n        Role _role // role of rater\n    ) public restricted {\n        User rater = User(_raterUserContract);\n        uint8 rentalIndexOfRater = rater.rentalIndexInRentalHistory(_item);\n        rater.setRentalHisotryHasRated(rentalIndexOfRater);\n\n        Rating memory newRating = Rating({\n            item: _item,\n            rate: _rate,\n            rater: rater.userAddress(),\n            review: _review,\n            role: _role,\n            time: block.timestamp\n        });\n\n        ratings.push(newRating);\n        ratingCount++;\n\n        emit newRatingInput(rater.userAddress(), _rate, ratingCount);\n    }\n\n    function getRatingsSum() public view returns (uint256) {\n        uint256 sum = 0;\n        for (uint256 i = 0; i < ratingCount; i++) {\n            sum += ratings[i].rate;\n        }\n        return sum;\n    }\n}\n",
  "sourcePath": "/Users/jyuteo/CodeProjects/TRent/src/contracts/User.sol",
  "compiler": {
    "name": "solc",
    "version": "0.8.7+commit.e28d00a7.Emscripten.clang"
  },
  "schemaVersion": "3.4.3",
  "updatedAt": "2021-08-23T14:59:37.892Z",
  "devdoc": {
    "kind": "dev",
    "methods": {},
    "version": 1
  },
  "userdoc": {
    "kind": "user",
    "methods": {},
    "version": 1
  }
}