{
  "contractName": "User",
  "abi": [
    {
      "inputs": [
        {
          "internalType": "address",
          "name": "_userAddress",
          "type": "address"
        },
        {
          "internalType": "string",
          "name": "_username",
          "type": "string"
        },
        {
          "internalType": "string",
          "name": "_deliveryAddress",
          "type": "string"
        }
      ],
      "stateMutability": "nonpayable",
      "type": "constructor"
    },
    {
      "anonymous": false,
      "inputs": [
        {
          "indexed": true,
          "internalType": "address",
          "name": "userAccount",
          "type": "address"
        },
        {
          "indexed": false,
          "internalType": "string",
          "name": "newDeliveryAddress",
          "type": "string"
        }
      ],
      "name": "deliveryAddressChanged",
      "type": "event"
    },
    {
      "anonymous": false,
      "inputs": [
        {
          "indexed": true,
          "internalType": "address",
          "name": "from",
          "type": "address"
        },
        {
          "indexed": false,
          "internalType": "uint8",
          "name": "rate",
          "type": "uint8"
        },
        {
          "indexed": false,
          "internalType": "uint8",
          "name": "ratingCount",
          "type": "uint8"
        }
      ],
      "name": "newRatingInput",
      "type": "event"
    },
    {
      "anonymous": false,
      "inputs": [
        {
          "indexed": true,
          "internalType": "address",
          "name": "userAccount",
          "type": "address"
        },
        {
          "indexed": false,
          "internalType": "string",
          "name": "newUsername",
          "type": "string"
        }
      ],
      "name": "usernameChanged",
      "type": "event"
    },
    {
      "inputs": [],
      "name": "borrowingCount",
      "outputs": [
        {
          "internalType": "uint8",
          "name": "",
          "type": "uint8"
        }
      ],
      "stateMutability": "view",
      "type": "function"
    },
    {
      "inputs": [],
      "name": "deliveryAddress",
      "outputs": [
        {
          "internalType": "string",
          "name": "",
          "type": "string"
        }
      ],
      "stateMutability": "view",
      "type": "function"
    },
    {
      "inputs": [],
      "name": "isDishonestUser",
      "outputs": [
        {
          "internalType": "bool",
          "name": "",
          "type": "bool"
        }
      ],
      "stateMutability": "view",
      "type": "function"
    },
    {
      "inputs": [],
      "name": "lendingCount",
      "outputs": [
        {
          "internalType": "uint8",
          "name": "",
          "type": "uint8"
        }
      ],
      "stateMutability": "view",
      "type": "function"
    },
    {
      "inputs": [],
      "name": "ratingCount",
      "outputs": [
        {
          "internalType": "uint8",
          "name": "",
          "type": "uint8"
        }
      ],
      "stateMutability": "view",
      "type": "function"
    },
    {
      "inputs": [
        {
          "internalType": "uint256",
          "name": "",
          "type": "uint256"
        }
      ],
      "name": "ratings",
      "outputs": [
        {
          "internalType": "address",
          "name": "item",
          "type": "address"
        },
        {
          "internalType": "address",
          "name": "rater",
          "type": "address"
        },
        {
          "internalType": "uint8",
          "name": "rate",
          "type": "uint8"
        },
        {
          "internalType": "string",
          "name": "review",
          "type": "string"
        },
        {
          "internalType": "enum User.Role",
          "name": "role",
          "type": "uint8"
        }
      ],
      "stateMutability": "view",
      "type": "function"
    },
    {
      "inputs": [
        {
          "internalType": "uint256",
          "name": "",
          "type": "uint256"
        }
      ],
      "name": "rentalHistories",
      "outputs": [
        {
          "internalType": "address",
          "name": "item",
          "type": "address"
        },
        {
          "internalType": "address",
          "name": "rental",
          "type": "address"
        },
        {
          "internalType": "enum User.Role",
          "name": "role",
          "type": "uint8"
        },
        {
          "internalType": "bool",
          "name": "hasRated",
          "type": "bool"
        },
        {
          "internalType": "uint256",
          "name": "start",
          "type": "uint256"
        },
        {
          "internalType": "uint256",
          "name": "end",
          "type": "uint256"
        }
      ],
      "stateMutability": "view",
      "type": "function"
    },
    {
      "inputs": [],
      "name": "rentalHistoryCount",
      "outputs": [
        {
          "internalType": "uint8",
          "name": "",
          "type": "uint8"
        }
      ],
      "stateMutability": "view",
      "type": "function"
    },
    {
      "inputs": [],
      "name": "userAddress",
      "outputs": [
        {
          "internalType": "address",
          "name": "",
          "type": "address"
        }
      ],
      "stateMutability": "view",
      "type": "function"
    },
    {
      "inputs": [],
      "name": "username",
      "outputs": [
        {
          "internalType": "string",
          "name": "",
          "type": "string"
        }
      ],
      "stateMutability": "view",
      "type": "function"
    },
    {
      "inputs": [
        {
          "internalType": "string",
          "name": "_newUsername",
          "type": "string"
        }
      ],
      "name": "setUsername",
      "outputs": [],
      "stateMutability": "nonpayable",
      "type": "function"
    },
    {
      "inputs": [
        {
          "internalType": "string",
          "name": "_newDeliveryAddress",
          "type": "string"
        }
      ],
      "name": "setDeliveryAddress",
      "outputs": [],
      "stateMutability": "nonpayable",
      "type": "function"
    },
    {
      "inputs": [
        {
          "internalType": "uint8",
          "name": "index",
          "type": "uint8"
        }
      ],
      "name": "setRentalHisotryHasRated",
      "outputs": [],
      "stateMutability": "nonpayable",
      "type": "function"
    },
    {
      "inputs": [
        {
          "internalType": "address",
          "name": "_item",
          "type": "address"
        },
        {
          "internalType": "address",
          "name": "_rental",
          "type": "address"
        },
        {
          "internalType": "uint256",
          "name": "_start",
          "type": "uint256"
        },
        {
          "internalType": "uint256",
          "name": "_end",
          "type": "uint256"
        }
      ],
      "name": "addNewLending",
      "outputs": [],
      "stateMutability": "nonpayable",
      "type": "function"
    },
    {
      "inputs": [
        {
          "internalType": "address",
          "name": "_item",
          "type": "address"
        },
        {
          "internalType": "address",
          "name": "_rental",
          "type": "address"
        },
        {
          "internalType": "uint256",
          "name": "_start",
          "type": "uint256"
        },
        {
          "internalType": "uint256",
          "name": "_end",
          "type": "uint256"
        }
      ],
      "name": "addNewBorrowing",
      "outputs": [],
      "stateMutability": "nonpayable",
      "type": "function"
    },
    {
      "inputs": [
        {
          "internalType": "address",
          "name": "_item",
          "type": "address"
        },
        {
          "internalType": "address",
          "name": "_rater",
          "type": "address"
        },
        {
          "internalType": "uint8",
          "name": "_rate",
          "type": "uint8"
        },
        {
          "internalType": "string",
          "name": "_review",
          "type": "string"
        },
        {
          "internalType": "enum User.Role",
          "name": "_role",
          "type": "uint8"
        },
        {
          "internalType": "uint8",
          "name": "_index",
          "type": "uint8"
        }
      ],
      "name": "inputRating",
      "outputs": [],
      "stateMutability": "nonpayable",
      "type": "function"
    },
    {
      "inputs": [],
      "name": "getRatingsSum",
      "outputs": [
        {
          "internalType": "uint256",
          "name": "",
          "type": "uint256"
        }
      ],
      "stateMutability": "view",
      "type": "function"
    }
  ],
  "bytecode": "0x60806040523480156200001157600080fd5b5060405162001e1238038062001e12833981810160405281019062000037919062000282565b826000806101000a81548173ffffffffffffffffffffffffffffffffffffffff021916908373ffffffffffffffffffffffffffffffffffffffff16021790555081600190805190602001906200008f9291906200013d565b508060029080519060200190620000a89291906200013d565b506000600460006101000a81548160ff021916908360ff1602179055506000600660006101000a81548160ff021916908360ff1602179055506000600660016101000a81548160ff021916908360ff1602179055506000600660026101000a81548160ff021916908360ff1602179055506000600660036101000a81548160ff021916908315150217905550505050620004ee565b8280546200014b90620003e5565b90600052602060002090601f0160209004810192826200016f5760008555620001bb565b82601f106200018a57805160ff1916838001178555620001bb565b82800160010185558215620001bb579182015b82811115620001ba5782518255916020019190600101906200019d565b5b509050620001ca9190620001ce565b5090565b5b80821115620001e9576000816000905550600101620001cf565b5090565b600062000204620001fe8462000345565b6200031c565b905082815260208101848484011115620002235762000222620004b4565b5b62000230848285620003af565b509392505050565b6000815190506200024981620004d4565b92915050565b600082601f830112620002675762000266620004af565b5b815162000279848260208601620001ed565b91505092915050565b6000806000606084860312156200029e576200029d620004be565b5b6000620002ae8682870162000238565b935050602084015167ffffffffffffffff811115620002d257620002d1620004b9565b5b620002e0868287016200024f565b925050604084015167ffffffffffffffff811115620003045762000303620004b9565b5b62000312868287016200024f565b9150509250925092565b6000620003286200033b565b90506200033682826200041b565b919050565b6000604051905090565b600067ffffffffffffffff82111562000363576200036262000480565b5b6200036e82620004c3565b9050602081019050919050565b600062000388826200038f565b9050919050565b600073ffffffffffffffffffffffffffffffffffffffff82169050919050565b60005b83811015620003cf578082015181840152602081019050620003b2565b83811115620003df576000848401525b50505050565b60006002820490506001821680620003fe57607f821691505b6020821081141562000415576200041462000451565b5b50919050565b6200042682620004c3565b810181811067ffffffffffffffff8211171562000448576200044762000480565b5b80604052505050565b7f4e487b7100000000000000000000000000000000000000000000000000000000600052602260045260246000fd5b7f4e487b7100000000000000000000000000000000000000000000000000000000600052604160045260246000fd5b600080fd5b600080fd5b600080fd5b600080fd5b6000601f19601f8301169050919050565b620004df816200037b565b8114620004eb57600080fd5b50565b61191480620004fe6000396000f3fe608060405234801561001057600080fd5b506004361061010b5760003560e01c806395578e58116100a2578063e4128fb311610071578063e4128fb314610288578063e5568317146102a6578063e85e79b6146102c2578063ed59313a146102f7578063fab564df146103135761010b565b806395578e5814610214578063a934899514610230578063b35ddf941461024c578063c2bd81191461026a5761010b565b806350d9de1d116100de57806350d9de1d146101865780635d30e84d146101a457806361fac54d146101d8578063927584b9146101f65761010b565b80632254df2514610110578063248640811461012e57806326f2d18b1461014c57806332cc4e8114610168575b600080fd5b61011861032f565b604051610125919061146f565b60405180910390f35b610136610342565b60405161014391906114c7565b60405180910390f35b610166600480360381019061016191906112e8565b610355565b005b61017061039f565b60405161017d91906114c7565b60405180910390f35b61018e6103b2565b60405161019b91906114c7565b60405180910390f35b6101be60048036038101906101b991906112bb565b6103c5565b6040516101cf959493929190611415565b60405180910390f35b6101e06104ed565b6040516101ed919061148a565b60405180910390f35b6101fe61057b565b60405161020b91906114ac565b60405180910390f35b61022e60048036038101906102299190611162565b6105fd565b005b61024a60048036038101906102459190611162565b610807565b005b610254610a10565b60405161026191906114c7565b60405180910390f35b610272610a23565b60405161027f919061148a565b60405180910390f35b610290610ab1565b60405161029d9190611399565b60405180910390f35b6102c060048036038101906102bb9190611272565b610ad5565b005b6102dc60048036038101906102d791906112bb565b610b95565b6040516102ee969594939291906113b4565b60405180910390f35b610311600480360381019061030c9190611272565b610c3b565b005b61032d600480360381019061032891906111c9565b610cfb565b005b600660039054906101000a900460ff1681565b600660009054906101000a900460ff1681565b600060038260ff168154811061036e5761036d6117f2565b5b9060005260206000209060040201905060018160010160156101000a81548160ff0219169083151502179055505050565b600460009054906101000a900460ff1681565b600660029054906101000a900460ff1681565b600581815481106103d557600080fd5b90600052602060002090600402016000915090508060000160009054906101000a900473ffffffffffffffffffffffffffffffffffffffff16908060010160009054906101000a900473ffffffffffffffffffffffffffffffffffffffff16908060010160149054906101000a900460ff16908060020180546104579061168f565b80601f01602080910402602001604051908101604052809291908181526020018280546104839061168f565b80156104d05780601f106104a5576101008083540402835291602001916104d0565b820191906000526020600020905b8154815290600101906020018083116104b357829003601f168201915b5050505050908060030160009054906101000a900460ff16905085565b600180546104fa9061168f565b80601f01602080910402602001604051908101604052809291908181526020018280546105269061168f565b80156105735780601f1061054857610100808354040283529160200191610573565b820191906000526020600020905b81548152906001019060200180831161055657829003601f168201915b505050505081565b6000806000905060005b600660009054906101000a900460ff1660ff168110156105f557600581815481106105b3576105b26117f2565b5b906000526020600020906004020160010160149054906101000a900460ff1660ff16826105e0919061157d565b915080806105ed906116f2565b915050610585565b508091505090565b6004600081819054906101000a900460ff168092919061061c9061173b565b91906101000a81548160ff021916908360ff160217905550506006600181819054906101000a900460ff16809291906106549061173b565b91906101000a81548160ff021916908360ff1602179055505060006040518060c001604052808673ffffffffffffffffffffffffffffffffffffffff1681526020018573ffffffffffffffffffffffffffffffffffffffff168152602001600060018111156106c6576106c5611794565b5b8152602001600015158152602001848152602001838152509050600381908060018154018082558091505060019003906000526020600020906004020160009091909190915060008201518160000160006101000a81548173ffffffffffffffffffffffffffffffffffffffff021916908373ffffffffffffffffffffffffffffffffffffffff16021790555060208201518160010160006101000a81548173ffffffffffffffffffffffffffffffffffffffff021916908373ffffffffffffffffffffffffffffffffffffffff16021790555060408201518160010160146101000a81548160ff021916908360018111156107c5576107c4611794565b5b021790555060608201518160010160156101000a81548160ff0219169083151502179055506080820151816002015560a0820151816003015550505050505050565b6004600081819054906101000a900460ff16809291906108269061173b565b91906101000a81548160ff021916908360ff160217905550506006600281819054906101000a900460ff168092919061085e9061173b565b91906101000a81548160ff021916908360ff1602179055505060006040518060c001604052808673ffffffffffffffffffffffffffffffffffffffff1681526020018573ffffffffffffffffffffffffffffffffffffffff1681526020016001808111156108cf576108ce611794565b5b8152602001600015158152602001848152602001838152509050600381908060018154018082558091505060019003906000526020600020906004020160009091909190915060008201518160000160006101000a81548173ffffffffffffffffffffffffffffffffffffffff021916908373ffffffffffffffffffffffffffffffffffffffff16021790555060208201518160010160006101000a81548173ffffffffffffffffffffffffffffffffffffffff021916908373ffffffffffffffffffffffffffffffffffffffff16021790555060408201518160010160146101000a81548160ff021916908360018111156109ce576109cd611794565b5b021790555060608201518160010160156101000a81548160ff0219169083151502179055506080820151816002015560a0820151816003015550505050505050565b600660019054906101000a900460ff1681565b60028054610a309061168f565b80601f0160208091040260200160405190810160405280929190818152602001828054610a5c9061168f565b8015610aa95780601f10610a7e57610100808354040283529160200191610aa9565b820191906000526020600020905b815481529060010190602001808311610a8c57829003601f168201915b505050505081565b60008054906101000a900473ffffffffffffffffffffffffffffffffffffffff1681565b60008054906101000a900473ffffffffffffffffffffffffffffffffffffffff1673ffffffffffffffffffffffffffffffffffffffff163373ffffffffffffffffffffffffffffffffffffffff1614610b2d57600080fd5b8060029080519060200190610b43929190610ffb565b503373ffffffffffffffffffffffffffffffffffffffff167ff01f8beedc6b4ff8605063d6b438798f7caa71e19ea3097a733f57c40072a32082604051610b8a919061148a565b60405180910390a250565b60038181548110610ba557600080fd5b90600052602060002090600402016000915090508060000160009054906101000a900473ffffffffffffffffffffffffffffffffffffffff16908060010160009054906101000a900473ffffffffffffffffffffffffffffffffffffffff16908060010160149054906101000a900460ff16908060010160159054906101000a900460ff16908060020154908060030154905086565b60008054906101000a900473ffffffffffffffffffffffffffffffffffffffff1673ffffffffffffffffffffffffffffffffffffffff163373ffffffffffffffffffffffffffffffffffffffff1614610c9357600080fd5b8060019080519060200190610ca9929190610ffb565b503373ffffffffffffffffffffffffffffffffffffffff167ff07516e9449b46121f3f7f7cb800fb5f90f7ee9e442a5479e8e3bab929d71b7782604051610cf0919061148a565b60405180910390a250565b60008054906101000a900473ffffffffffffffffffffffffffffffffffffffff1673ffffffffffffffffffffffffffffffffffffffff163373ffffffffffffffffffffffffffffffffffffffff161415610d5457600080fd5b60008590508073ffffffffffffffffffffffffffffffffffffffff166326f2d18b836040518263ffffffff1660e01b8152600401610d9291906114c7565b600060405180830381600087803b158015610dac57600080fd5b505af1158015610dc0573d6000803e3d6000fd5b5050505060006040518060a001604052808973ffffffffffffffffffffffffffffffffffffffff1681526020018873ffffffffffffffffffffffffffffffffffffffff1681526020018760ff168152602001868152602001856001811115610e2b57610e2a611794565b5b8152509050600581908060018154018082558091505060019003906000526020600020906004020160009091909190915060008201518160000160006101000a81548173ffffffffffffffffffffffffffffffffffffffff021916908373ffffffffffffffffffffffffffffffffffffffff16021790555060208201518160010160006101000a81548173ffffffffffffffffffffffffffffffffffffffff021916908373ffffffffffffffffffffffffffffffffffffffff16021790555060408201518160010160146101000a81548160ff021916908360ff1602179055506060820151816002019080519060200190610f27929190610ffb565b5060808201518160030160006101000a81548160ff02191690836001811115610f5357610f52611794565b5b021790555050506006600081819054906101000a900460ff1680929190610f799061173b565b91906101000a81548160ff021916908360ff160217905550508673ffffffffffffffffffffffffffffffffffffffff167f90a85869adb958b6374cf98f2a24b28f0db723127744011d6363487d50cef16187600660009054906101000a900460ff16604051610fe99291906114e2565b60405180910390a25050505050505050565b8280546110079061168f565b90600052602060002090601f0160209004810192826110295760008555611070565b82601f1061104257805160ff1916838001178555611070565b82800160010185558215611070579182015b8281111561106f578251825591602001919060010190611054565b5b50905061107d9190611081565b5090565b5b8082111561109a576000816000905550600101611082565b5090565b60006110b16110ac84611530565b61150b565b9050828152602081018484840111156110cd576110cc611855565b5b6110d884828561164d565b509392505050565b6000813590506110ef81611889565b92915050565b600081359050611104816118a0565b92915050565b600082601f83011261111f5761111e611850565b5b813561112f84826020860161109e565b91505092915050565b600081359050611147816118b0565b92915050565b60008135905061115c816118c7565b92915050565b6000806000806080858703121561117c5761117b61185f565b5b600061118a878288016110e0565b945050602061119b878288016110e0565b93505060406111ac87828801611138565b92505060606111bd87828801611138565b91505092959194509250565b60008060008060008060c087890312156111e6576111e561185f565b5b60006111f489828a016110e0565b965050602061120589828a016110e0565b955050604061121689828a0161114d565b945050606087013567ffffffffffffffff8111156112375761123661185a565b5b61124389828a0161110a565b935050608061125489828a016110f5565b92505060a061126589828a0161114d565b9150509295509295509295565b6000602082840312156112885761128761185f565b5b600082013567ffffffffffffffff8111156112a6576112a561185a565b5b6112b28482850161110a565b91505092915050565b6000602082840312156112d1576112d061185f565b5b60006112df84828501611138565b91505092915050565b6000602082840312156112fe576112fd61185f565b5b600061130c8482850161114d565b91505092915050565b61131e816115d3565b82525050565b61132d816115e5565b82525050565b61133c8161163b565b82525050565b600061134d82611561565b611357818561156c565b935061136781856020860161165c565b61137081611864565b840191505092915050565b61138481611624565b82525050565b6113938161162e565b82525050565b60006020820190506113ae6000830184611315565b92915050565b600060c0820190506113c96000830189611315565b6113d66020830188611315565b6113e36040830187611333565b6113f06060830186611324565b6113fd608083018561137b565b61140a60a083018461137b565b979650505050505050565b600060a08201905061142a6000830188611315565b6114376020830187611315565b611444604083018661138a565b81810360608301526114568185611342565b90506114656080830184611333565b9695505050505050565b60006020820190506114846000830184611324565b92915050565b600060208201905081810360008301526114a48184611342565b905092915050565b60006020820190506114c1600083018461137b565b92915050565b60006020820190506114dc600083018461138a565b92915050565b60006040820190506114f7600083018561138a565b611504602083018461138a565b9392505050565b6000611515611526565b905061152182826116c1565b919050565b6000604051905090565b600067ffffffffffffffff82111561154b5761154a611821565b5b61155482611864565b9050602081019050919050565b600081519050919050565b600082825260208201905092915050565b600061158882611624565b915061159383611624565b9250827fffffffffffffffffffffffffffffffffffffffffffffffffffffffffffffffff038211156115c8576115c7611765565b5b828201905092915050565b60006115de82611604565b9050919050565b60008115159050919050565b60008190506115ff82611875565b919050565b600073ffffffffffffffffffffffffffffffffffffffff82169050919050565b6000819050919050565b600060ff82169050919050565b6000611646826115f1565b9050919050565b82818337600083830152505050565b60005b8381101561167a57808201518184015260208101905061165f565b83811115611689576000848401525b50505050565b600060028204905060018216806116a757607f821691505b602082108114156116bb576116ba6117c3565b5b50919050565b6116ca82611864565b810181811067ffffffffffffffff821117156116e9576116e8611821565b5b80604052505050565b60006116fd82611624565b91507fffffffffffffffffffffffffffffffffffffffffffffffffffffffffffffffff8214156117305761172f611765565b5b600182019050919050565b60006117468261162e565b915060ff82141561175a57611759611765565b5b600182019050919050565b7f4e487b7100000000000000000000000000000000000000000000000000000000600052601160045260246000fd5b7f4e487b7100000000000000000000000000000000000000000000000000000000600052602160045260246000fd5b7f4e487b7100000000000000000000000000000000000000000000000000000000600052602260045260246000fd5b7f4e487b7100000000000000000000000000000000000000000000000000000000600052603260045260246000fd5b7f4e487b7100000000000000000000000000000000000000000000000000000000600052604160045260246000fd5b600080fd5b600080fd5b600080fd5b600080fd5b6000601f19601f8301169050919050565b6002811061188657611885611794565b5b50565b611892816115d3565b811461189d57600080fd5b50565b600281106118ad57600080fd5b50565b6118b981611624565b81146118c457600080fd5b50565b6118d08161162e565b81146118db57600080fd5b5056fea26469706673582212205f8ab77d6a817194aadabb48d8bb91a516d2d41719786e1b2b98240a3118e09a64736f6c63430008070033",
  "immutableReferences": {},
  "source": "// SPDX-License-Identifier: GPL-3.0\n\npragma solidity >=0.7.0 <0.9.0;\n\ncontract User {\n    enum Role {\n        OWNER,\n        RENTER\n    }\n\n    struct RentalHistory {\n        address item; // address of the deployed smart contract for the item\n        address rental; // address of the deployed rental contract\n        Role role;\n        bool hasRated; // rate the opposite role in the contact\n        uint256 start; // Unix epoch time\n        uint256 end; // Unix epoch time\n    }\n\n    struct Rating {\n        address item;\n        address rater;\n        uint8 rate;\n        string review;\n        Role role; // role of the rater\n    }\n\n    address public userAddress;\n    string public username;\n    string public deliveryAddress;\n\n    RentalHistory[] public rentalHistories;\n    uint8 public rentalHistoryCount;\n    Rating[] public ratings;\n    uint8 public ratingCount;\n    uint8 public lendingCount;\n    uint8 public borrowingCount;\n    bool public isDishonestUser;\n\n    event usernameChanged(address indexed userAccount, string newUsername);\n    event deliveryAddressChanged(\n        address indexed userAccount,\n        string newDeliveryAddress\n    );\n    event newRatingInput(address indexed from, uint8 rate, uint8 ratingCount);\n\n    constructor(\n        address _userAddress,\n        string memory _username,\n        string memory _deliveryAddress\n    ) {\n        userAddress = _userAddress;\n        username = _username;\n        deliveryAddress = _deliveryAddress;\n\n        rentalHistoryCount = 0;\n        ratingCount = 0;\n        lendingCount = 0;\n        borrowingCount = 0;\n        isDishonestUser = false;\n    }\n\n    modifier onlyUser() {\n        require(msg.sender == userAddress);\n        _;\n    }\n\n    modifier restricted() {\n        require(msg.sender != userAddress);\n        _;\n    }\n\n    // function getUserAddress() public view returns (address) {\n    //     return userAddress;\n    // }\n\n    // function getUsername() public view returns (string memory) {\n    //     return username;\n    // }\n\n    // function getDeliveryAddress() public view returns (string memory) {\n    //     return deliveryAddress;\n    // }\n\n    function setUsername(string memory _newUsername) public onlyUser {\n        username = _newUsername;\n        emit usernameChanged(msg.sender, _newUsername);\n    }\n\n    function setDeliveryAddress(string memory _newDeliveryAddress)\n        public\n        onlyUser\n    {\n        deliveryAddress = _newDeliveryAddress;\n        emit deliveryAddressChanged(msg.sender, _newDeliveryAddress);\n    }\n\n    function setRentalHisotryHasRated(uint8 index) public {\n        RentalHistory storage history = rentalHistories[index];\n        history.hasRated = true;\n    }\n\n    // lending: user is owner\n    function addNewLending(\n        address _item,\n        address _rental,\n        uint256 _start,\n        uint256 _end\n    ) public {\n        rentalHistoryCount++;\n        lendingCount++;\n\n        RentalHistory memory history = RentalHistory({\n            item: _item,\n            rental: _rental,\n            role: Role.OWNER,\n            hasRated: false,\n            start: _start,\n            end: _end\n        });\n\n        rentalHistories.push(history);\n    }\n\n    // borrowing: user is renter\n    function addNewBorrowing(\n        address _item,\n        address _rental,\n        uint256 _start,\n        uint256 _end\n    ) public {\n        rentalHistoryCount++;\n        borrowingCount++;\n\n        RentalHistory memory history = RentalHistory({\n            item: _item,\n            rental: _rental,\n            role: Role.RENTER,\n            hasRated: false,\n            start: _start,\n            end: _end\n        });\n\n        rentalHistories.push(history);\n    }\n\n    function inputRating(\n        address _item,\n        address _rater,\n        uint8 _rate,\n        string memory _review,\n        Role _role,\n        uint8 _index\n    ) public restricted {\n        User rater = User(_rater);\n        rater.setRentalHisotryHasRated(_index);\n\n        Rating memory newRating = Rating({\n            item: _item,\n            rate: _rate,\n            rater: _rater,\n            review: _review,\n            role: _role\n        });\n\n        ratings.push(newRating);\n        ratingCount++;\n\n        emit newRatingInput(_rater, _rate, ratingCount);\n    }\n\n    function getRatingsSum() public view returns (uint256) {\n        uint256 sum = 0;\n        for (uint256 i = 0; i < ratingCount; i++) {\n            sum += ratings[i].rate;\n        }\n        return sum;\n    }\n}\n",
  "sourcePath": "/Users/jyuteo/CodeProjects/TRent/src/contracts/User.sol",
  "compiler": {
    "name": "solc",
    "version": "0.8.7+commit.e28d00a7.Emscripten.clang"
  },
  "schemaVersion": "3.4.3",
  "updatedAt": "2021-08-17T13:50:23.553Z",
  "devdoc": {
    "kind": "dev",
    "methods": {},
    "version": 1
  },
  "userdoc": {
    "kind": "user",
    "methods": {},
    "version": 1
  }
}