{
  "contractName": "User",
  "abi": [
    {
      "inputs": [
        {
          "internalType": "address",
          "name": "_userAddress",
          "type": "address"
        },
        {
          "internalType": "string",
          "name": "_username",
          "type": "string"
        },
        {
          "internalType": "string",
          "name": "_deliveryAddress",
          "type": "string"
        }
      ],
      "stateMutability": "nonpayable",
      "type": "constructor"
    },
    {
      "anonymous": false,
      "inputs": [
        {
          "indexed": true,
          "internalType": "address",
          "name": "userAccount",
          "type": "address"
        },
        {
          "indexed": false,
          "internalType": "string",
          "name": "newDeliveryAddress",
          "type": "string"
        }
      ],
      "name": "deliveryAddressChanged",
      "type": "event"
    },
    {
      "anonymous": false,
      "inputs": [
        {
          "indexed": true,
          "internalType": "address",
          "name": "from",
          "type": "address"
        },
        {
          "indexed": false,
          "internalType": "uint8",
          "name": "rate",
          "type": "uint8"
        },
        {
          "indexed": false,
          "internalType": "uint8",
          "name": "ratingCount",
          "type": "uint8"
        }
      ],
      "name": "newRatingInput",
      "type": "event"
    },
    {
      "anonymous": false,
      "inputs": [
        {
          "indexed": true,
          "internalType": "address",
          "name": "userAccount",
          "type": "address"
        },
        {
          "indexed": false,
          "internalType": "string",
          "name": "newUsername",
          "type": "string"
        }
      ],
      "name": "usernameChanged",
      "type": "event"
    },
    {
      "inputs": [],
      "name": "borrowingCount",
      "outputs": [
        {
          "internalType": "uint8",
          "name": "",
          "type": "uint8"
        }
      ],
      "stateMutability": "view",
      "type": "function"
    },
    {
      "inputs": [],
      "name": "deliveryAddress",
      "outputs": [
        {
          "internalType": "string",
          "name": "",
          "type": "string"
        }
      ],
      "stateMutability": "view",
      "type": "function"
    },
    {
      "inputs": [],
      "name": "isDishonestUser",
      "outputs": [
        {
          "internalType": "bool",
          "name": "",
          "type": "bool"
        }
      ],
      "stateMutability": "view",
      "type": "function"
    },
    {
      "inputs": [],
      "name": "lendingCount",
      "outputs": [
        {
          "internalType": "uint8",
          "name": "",
          "type": "uint8"
        }
      ],
      "stateMutability": "view",
      "type": "function"
    },
    {
      "inputs": [],
      "name": "ratingCount",
      "outputs": [
        {
          "internalType": "uint8",
          "name": "",
          "type": "uint8"
        }
      ],
      "stateMutability": "view",
      "type": "function"
    },
    {
      "inputs": [
        {
          "internalType": "uint256",
          "name": "",
          "type": "uint256"
        }
      ],
      "name": "ratings",
      "outputs": [
        {
          "internalType": "address",
          "name": "item",
          "type": "address"
        },
        {
          "internalType": "address",
          "name": "rater",
          "type": "address"
        },
        {
          "internalType": "uint8",
          "name": "rate",
          "type": "uint8"
        },
        {
          "internalType": "string",
          "name": "review",
          "type": "string"
        },
        {
          "internalType": "enum User.Role",
          "name": "role",
          "type": "uint8"
        },
        {
          "internalType": "uint256",
          "name": "time",
          "type": "uint256"
        }
      ],
      "stateMutability": "view",
      "type": "function"
    },
    {
      "inputs": [
        {
          "internalType": "uint256",
          "name": "",
          "type": "uint256"
        }
      ],
      "name": "rentalHistories",
      "outputs": [
        {
          "internalType": "address",
          "name": "item",
          "type": "address"
        },
        {
          "internalType": "address",
          "name": "rental",
          "type": "address"
        },
        {
          "internalType": "enum User.Role",
          "name": "role",
          "type": "uint8"
        },
        {
          "internalType": "bool",
          "name": "hasRated",
          "type": "bool"
        },
        {
          "internalType": "uint256",
          "name": "start",
          "type": "uint256"
        },
        {
          "internalType": "uint256",
          "name": "end",
          "type": "uint256"
        }
      ],
      "stateMutability": "view",
      "type": "function"
    },
    {
      "inputs": [],
      "name": "rentalHistoryCount",
      "outputs": [
        {
          "internalType": "uint8",
          "name": "",
          "type": "uint8"
        }
      ],
      "stateMutability": "view",
      "type": "function"
    },
    {
      "inputs": [
        {
          "internalType": "address",
          "name": "",
          "type": "address"
        }
      ],
      "name": "rentalIndexInRentalHistory",
      "outputs": [
        {
          "internalType": "uint8",
          "name": "",
          "type": "uint8"
        }
      ],
      "stateMutability": "view",
      "type": "function"
    },
    {
      "inputs": [],
      "name": "userAddress",
      "outputs": [
        {
          "internalType": "address",
          "name": "",
          "type": "address"
        }
      ],
      "stateMutability": "view",
      "type": "function"
    },
    {
      "inputs": [],
      "name": "username",
      "outputs": [
        {
          "internalType": "string",
          "name": "",
          "type": "string"
        }
      ],
      "stateMutability": "view",
      "type": "function"
    },
    {
      "inputs": [
        {
          "internalType": "string",
          "name": "_newUsername",
          "type": "string"
        }
      ],
      "name": "changeUsername",
      "outputs": [],
      "stateMutability": "nonpayable",
      "type": "function"
    },
    {
      "inputs": [
        {
          "internalType": "string",
          "name": "_newDeliveryAddress",
          "type": "string"
        }
      ],
      "name": "changeDeliveryAddress",
      "outputs": [],
      "stateMutability": "nonpayable",
      "type": "function"
    },
    {
      "inputs": [
        {
          "internalType": "uint8",
          "name": "_index",
          "type": "uint8"
        }
      ],
      "name": "setRentalHisotryHasRated",
      "outputs": [],
      "stateMutability": "nonpayable",
      "type": "function"
    },
    {
      "inputs": [
        {
          "internalType": "address",
          "name": "_item",
          "type": "address"
        },
        {
          "internalType": "address",
          "name": "_rental",
          "type": "address"
        },
        {
          "internalType": "uint256",
          "name": "_start",
          "type": "uint256"
        },
        {
          "internalType": "uint256",
          "name": "_end",
          "type": "uint256"
        }
      ],
      "name": "addNewLending",
      "outputs": [],
      "stateMutability": "nonpayable",
      "type": "function"
    },
    {
      "inputs": [
        {
          "internalType": "address",
          "name": "_item",
          "type": "address"
        },
        {
          "internalType": "address",
          "name": "_rental",
          "type": "address"
        },
        {
          "internalType": "uint256",
          "name": "_start",
          "type": "uint256"
        },
        {
          "internalType": "uint256",
          "name": "_end",
          "type": "uint256"
        }
      ],
      "name": "addNewBorrowing",
      "outputs": [],
      "stateMutability": "nonpayable",
      "type": "function"
    },
    {
      "inputs": [
        {
          "internalType": "address",
          "name": "_item",
          "type": "address"
        },
        {
          "internalType": "address",
          "name": "_raterUserContract",
          "type": "address"
        },
        {
          "internalType": "uint8",
          "name": "_rate",
          "type": "uint8"
        },
        {
          "internalType": "string",
          "name": "_review",
          "type": "string"
        },
        {
          "internalType": "enum User.Role",
          "name": "_role",
          "type": "uint8"
        }
      ],
      "name": "inputRating",
      "outputs": [],
      "stateMutability": "nonpayable",
      "type": "function"
    },
    {
      "inputs": [],
      "name": "getRatingsSum",
      "outputs": [
        {
          "internalType": "uint256",
          "name": "",
          "type": "uint256"
        }
      ],
      "stateMutability": "view",
      "type": "function"
    }
  ],
  "bytecode": "0x60806040523480156200001157600080fd5b506040516200218d3803806200218d833981810160405281019062000037919062000283565b82600160006101000a81548173ffffffffffffffffffffffffffffffffffffffff021916908373ffffffffffffffffffffffffffffffffffffffff1602179055508160029080519060200190620000909291906200013e565b508060039080519060200190620000a99291906200013e565b506000600560006101000a81548160ff021916908360ff1602179055506000600760006101000a81548160ff021916908360ff1602179055506000600760016101000a81548160ff021916908360ff1602179055506000600760026101000a81548160ff021916908360ff1602179055506000600760036101000a81548160ff021916908315150217905550505050620004ef565b8280546200014c90620003e6565b90600052602060002090601f016020900481019282620001705760008555620001bc565b82601f106200018b57805160ff1916838001178555620001bc565b82800160010185558215620001bc579182015b82811115620001bb5782518255916020019190600101906200019e565b5b509050620001cb9190620001cf565b5090565b5b80821115620001ea576000816000905550600101620001d0565b5090565b600062000205620001ff8462000346565b6200031d565b905082815260208101848484011115620002245762000223620004b5565b5b62000231848285620003b0565b509392505050565b6000815190506200024a81620004d5565b92915050565b600082601f830112620002685762000267620004b0565b5b81516200027a848260208601620001ee565b91505092915050565b6000806000606084860312156200029f576200029e620004bf565b5b6000620002af8682870162000239565b935050602084015167ffffffffffffffff811115620002d357620002d2620004ba565b5b620002e18682870162000250565b925050604084015167ffffffffffffffff811115620003055762000304620004ba565b5b620003138682870162000250565b9150509250925092565b6000620003296200033c565b90506200033782826200041c565b919050565b6000604051905090565b600067ffffffffffffffff82111562000364576200036362000481565b5b6200036f82620004c4565b9050602081019050919050565b6000620003898262000390565b9050919050565b600073ffffffffffffffffffffffffffffffffffffffff82169050919050565b60005b83811015620003d0578082015181840152602081019050620003b3565b83811115620003e0576000848401525b50505050565b60006002820490506001821680620003ff57607f821691505b6020821081141562000416576200041562000452565b5b50919050565b6200042782620004c4565b810181811067ffffffffffffffff8211171562000449576200044862000481565b5b80604052505050565b7f4e487b7100000000000000000000000000000000000000000000000000000000600052602260045260246000fd5b7f4e487b7100000000000000000000000000000000000000000000000000000000600052604160045260246000fd5b600080fd5b600080fd5b600080fd5b600080fd5b6000601f19601f8301169050919050565b620004e0816200037c565b8114620004ec57600080fd5b50565b611c8e80620004ff6000396000f3fe608060405234801561001057600080fd5b50600436106101165760003560e01c8063886f1bb9116100a2578063a934899511610071578063a9348995146102c0578063b35ddf94146102dc578063c2bd8119146102fa578063e4128fb314610318578063e85e79b61461033657610116565b8063886f1bb91461023a57806390f1af6c14610256578063927584b91461028657806395578e58146102a457610116565b806350d9de1d116100e957806350d9de1d146101915780635d30e84d146101af57806361fac54d146101e457806373ddea791461020257806377c846af1461021e57610116565b80632254df251461011b578063248640811461013957806326f2d18b1461015757806332cc4e8114610173575b600080fd5b61012361036b565b60405161013091906117e9565b60405180910390f35b61014161037e565b60405161014e9190611841565b60405180910390f35b610171600480360381019061016c9190611627565b610391565b005b61017b6103db565b6040516101889190611841565b60405180910390f35b6101996103ee565b6040516101a69190611841565b60405180910390f35b6101c960048036038101906101c491906115fa565b610401565b6040516101db96959493929190611781565b60405180910390f35b6101ec61052f565b6040516101f99190611804565b60405180910390f35b61021c6004803603810190610217919061151a565b6105bd565b005b610238600480360381019061023391906115b1565b610a56565b005b610254600480360381019061024f91906115b1565b610b18565b005b610270600480360381019061026b9190611459565b610bda565b60405161027d9190611841565b60405180910390f35b61028e610bfa565b60405161029b9190611826565b60405180910390f35b6102be60048036038101906102b991906114b3565b610c7c565b005b6102da60048036038101906102d591906114b3565b610eec565b005b6102e461115b565b6040516102f19190611841565b60405180910390f35b61030261116e565b60405161030f9190611804565b60405180910390f35b6103206111fc565b60405161032d9190611705565b60405180910390f35b610350600480360381019061034b91906115fa565b611222565b60405161036296959493929190611720565b60405180910390f35b600760039054906101000a900460ff1681565b600760009054906101000a900460ff1681565b600060048260ff16815481106103aa576103a9611b6c565b5b9060005260206000209060040201905060018160010160156101000a81548160ff0219169083151502179055505050565b600560009054906101000a900460ff1681565b600760029054906101000a900460ff1681565b6006818154811061041157600080fd5b90600052602060002090600502016000915090508060000160009054906101000a900473ffffffffffffffffffffffffffffffffffffffff16908060010160009054906101000a900473ffffffffffffffffffffffffffffffffffffffff16908060010160149054906101000a900460ff169080600201805461049390611a09565b80601f01602080910402602001604051908101604052809291908181526020018280546104bf90611a09565b801561050c5780601f106104e15761010080835404028352916020019161050c565b820191906000526020600020905b8154815290600101906020018083116104ef57829003601f168201915b5050505050908060030160009054906101000a900460ff16908060040154905086565b6002805461053c90611a09565b80601f016020809104026020016040519081016040528092919081815260200182805461056890611a09565b80156105b55780601f1061058a576101008083540402835291602001916105b5565b820191906000526020600020905b81548152906001019060200180831161059857829003601f168201915b505050505081565b600160009054906101000a900473ffffffffffffffffffffffffffffffffffffffff1673ffffffffffffffffffffffffffffffffffffffff163373ffffffffffffffffffffffffffffffffffffffff16141561061857600080fd5b600084905060008173ffffffffffffffffffffffffffffffffffffffff166390f1af6c886040518263ffffffff1660e01b81526004016106589190611705565b60206040518083038186803b15801561067057600080fd5b505afa158015610684573d6000803e3d6000fd5b505050506040513d601f19601f820116820180604052508101906106a89190611654565b90508173ffffffffffffffffffffffffffffffffffffffff166326f2d18b826040518263ffffffff1660e01b81526004016106e39190611841565b600060405180830381600087803b1580156106fd57600080fd5b505af1158015610711573d6000803e3d6000fd5b5050505060006040518060c001604052808973ffffffffffffffffffffffffffffffffffffffff1681526020018473ffffffffffffffffffffffffffffffffffffffff1663e4128fb36040518163ffffffff1660e01b815260040160206040518083038186803b15801561078457600080fd5b505afa158015610798573d6000803e3d6000fd5b505050506040513d601f19601f820116820180604052508101906107bc9190611486565b73ffffffffffffffffffffffffffffffffffffffff1681526020018760ff1681526020018681526020018560018111156107f9576107f8611b0e565b5b8152602001428152509050600681908060018154018082558091505060019003906000526020600020906005020160009091909190915060008201518160000160006101000a81548173ffffffffffffffffffffffffffffffffffffffff021916908373ffffffffffffffffffffffffffffffffffffffff16021790555060208201518160010160006101000a81548173ffffffffffffffffffffffffffffffffffffffff021916908373ffffffffffffffffffffffffffffffffffffffff16021790555060408201518160010160146101000a81548160ff021916908360ff16021790555060608201518160020190805190602001906108fb9291906112c8565b5060808201518160030160006101000a81548160ff0219169083600181111561092757610926611b0e565b5b021790555060a0820151816004015550506007600081819054906101000a900460ff168092919061095790611ab5565b91906101000a81548160ff021916908360ff160217905550508273ffffffffffffffffffffffffffffffffffffffff1663e4128fb36040518163ffffffff1660e01b815260040160206040518083038186803b1580156109b657600080fd5b505afa1580156109ca573d6000803e3d6000fd5b505050506040513d601f19601f820116820180604052508101906109ee9190611486565b73ffffffffffffffffffffffffffffffffffffffff167f90a85869adb958b6374cf98f2a24b28f0db723127744011d6363487d50cef16187600760009054906101000a900460ff16604051610a4492919061185c565b60405180910390a25050505050505050565b600160009054906101000a900473ffffffffffffffffffffffffffffffffffffffff1673ffffffffffffffffffffffffffffffffffffffff163373ffffffffffffffffffffffffffffffffffffffff1614610ab057600080fd5b8060029080519060200190610ac69291906112c8565b503373ffffffffffffffffffffffffffffffffffffffff167ff07516e9449b46121f3f7f7cb800fb5f90f7ee9e442a5479e8e3bab929d71b7782604051610b0d9190611804565b60405180910390a250565b600160009054906101000a900473ffffffffffffffffffffffffffffffffffffffff1673ffffffffffffffffffffffffffffffffffffffff163373ffffffffffffffffffffffffffffffffffffffff1614610b7257600080fd5b8060039080519060200190610b889291906112c8565b503373ffffffffffffffffffffffffffffffffffffffff167ff01f8beedc6b4ff8605063d6b438798f7caa71e19ea3097a733f57c40072a32082604051610bcf9190611804565b60405180910390a250565b60006020528060005260406000206000915054906101000a900460ff1681565b6000806000905060005b600760009054906101000a900460ff1660ff16811015610c745760068181548110610c3257610c31611b6c565b5b906000526020600020906005020160010160149054906101000a900460ff1660ff1682610c5f91906118f7565b91508080610c6c90611a6c565b915050610c04565b508091505090565b60006040518060c001604052808673ffffffffffffffffffffffffffffffffffffffff1681526020018573ffffffffffffffffffffffffffffffffffffffff16815260200160006001811115610cd557610cd4611b0e565b5b81526020016000151581526020018481526020018381525090506007600181819054906101000a900460ff1680929190610d0e90611ab5565b91906101000a81548160ff021916908360ff16021790555050600481908060018154018082558091505060019003906000526020600020906004020160009091909190915060008201518160000160006101000a81548173ffffffffffffffffffffffffffffffffffffffff021916908373ffffffffffffffffffffffffffffffffffffffff16021790555060208201518160010160006101000a81548173ffffffffffffffffffffffffffffffffffffffff021916908373ffffffffffffffffffffffffffffffffffffffff16021790555060408201518160010160146101000a81548160ff02191690836001811115610e0c57610e0b611b0e565b5b021790555060608201518160010160156101000a81548160ff0219169083151502179055506080820151816002015560a082015181600301555050600560009054906101000a900460ff166000808773ffffffffffffffffffffffffffffffffffffffff1673ffffffffffffffffffffffffffffffffffffffff16815260200190815260200160002060006101000a81548160ff021916908360ff1602179055506005600081819054906101000a900460ff1680929190610ecc90611ab5565b91906101000a81548160ff021916908360ff160217905550505050505050565b60006040518060c001604052808673ffffffffffffffffffffffffffffffffffffffff1681526020018573ffffffffffffffffffffffffffffffffffffffff168152602001600180811115610f4457610f43611b0e565b5b81526020016000151581526020018481526020018381525090506007600281819054906101000a900460ff1680929190610f7d90611ab5565b91906101000a81548160ff021916908360ff16021790555050600481908060018154018082558091505060019003906000526020600020906004020160009091909190915060008201518160000160006101000a81548173ffffffffffffffffffffffffffffffffffffffff021916908373ffffffffffffffffffffffffffffffffffffffff16021790555060208201518160010160006101000a81548173ffffffffffffffffffffffffffffffffffffffff021916908373ffffffffffffffffffffffffffffffffffffffff16021790555060408201518160010160146101000a81548160ff0219169083600181111561107b5761107a611b0e565b5b021790555060608201518160010160156101000a81548160ff0219169083151502179055506080820151816002015560a082015181600301555050600560009054906101000a900460ff166000808773ffffffffffffffffffffffffffffffffffffffff1673ffffffffffffffffffffffffffffffffffffffff16815260200190815260200160002060006101000a81548160ff021916908360ff1602179055506005600081819054906101000a900460ff168092919061113b90611ab5565b91906101000a81548160ff021916908360ff160217905550505050505050565b600760019054906101000a900460ff1681565b6003805461117b90611a09565b80601f01602080910402602001604051908101604052809291908181526020018280546111a790611a09565b80156111f45780601f106111c9576101008083540402835291602001916111f4565b820191906000526020600020905b8154815290600101906020018083116111d757829003601f168201915b505050505081565b600160009054906101000a900473ffffffffffffffffffffffffffffffffffffffff1681565b6004818154811061123257600080fd5b90600052602060002090600402016000915090508060000160009054906101000a900473ffffffffffffffffffffffffffffffffffffffff16908060010160009054906101000a900473ffffffffffffffffffffffffffffffffffffffff16908060010160149054906101000a900460ff16908060010160159054906101000a900460ff16908060020154908060030154905086565b8280546112d490611a09565b90600052602060002090601f0160209004810192826112f6576000855561133d565b82601f1061130f57805160ff191683800117855561133d565b8280016001018555821561133d579182015b8281111561133c578251825591602001919060010190611321565b5b50905061134a919061134e565b5090565b5b8082111561136757600081600090555060010161134f565b5090565b600061137e611379846118aa565b611885565b90508281526020810184848401111561139a57611399611bcf565b5b6113a58482856119c7565b509392505050565b6000813590506113bc81611c03565b92915050565b6000815190506113d181611c03565b92915050565b6000813590506113e681611c1a565b92915050565b600082601f83011261140157611400611bca565b5b813561141184826020860161136b565b91505092915050565b60008135905061142981611c2a565b92915050565b60008135905061143e81611c41565b92915050565b60008151905061145381611c41565b92915050565b60006020828403121561146f5761146e611bd9565b5b600061147d848285016113ad565b91505092915050565b60006020828403121561149c5761149b611bd9565b5b60006114aa848285016113c2565b91505092915050565b600080600080608085870312156114cd576114cc611bd9565b5b60006114db878288016113ad565b94505060206114ec878288016113ad565b93505060406114fd8782880161141a565b925050606061150e8782880161141a565b91505092959194509250565b600080600080600060a0868803121561153657611535611bd9565b5b6000611544888289016113ad565b9550506020611555888289016113ad565b94505060406115668882890161142f565b935050606086013567ffffffffffffffff81111561158757611586611bd4565b5b611593888289016113ec565b92505060806115a4888289016113d7565b9150509295509295909350565b6000602082840312156115c7576115c6611bd9565b5b600082013567ffffffffffffffff8111156115e5576115e4611bd4565b5b6115f1848285016113ec565b91505092915050565b6000602082840312156116105761160f611bd9565b5b600061161e8482850161141a565b91505092915050565b60006020828403121561163d5761163c611bd9565b5b600061164b8482850161142f565b91505092915050565b60006020828403121561166a57611669611bd9565b5b600061167884828501611444565b91505092915050565b61168a8161194d565b82525050565b6116998161195f565b82525050565b6116a8816119b5565b82525050565b60006116b9826118db565b6116c381856118e6565b93506116d38185602086016119d6565b6116dc81611bde565b840191505092915050565b6116f08161199e565b82525050565b6116ff816119a8565b82525050565b600060208201905061171a6000830184611681565b92915050565b600060c0820190506117356000830189611681565b6117426020830188611681565b61174f604083018761169f565b61175c6060830186611690565b61176960808301856116e7565b61177660a08301846116e7565b979650505050505050565b600060c0820190506117966000830189611681565b6117a36020830188611681565b6117b060408301876116f6565b81810360608301526117c281866116ae565b90506117d1608083018561169f565b6117de60a08301846116e7565b979650505050505050565b60006020820190506117fe6000830184611690565b92915050565b6000602082019050818103600083015261181e81846116ae565b905092915050565b600060208201905061183b60008301846116e7565b92915050565b600060208201905061185660008301846116f6565b92915050565b600060408201905061187160008301856116f6565b61187e60208301846116f6565b9392505050565b600061188f6118a0565b905061189b8282611a3b565b919050565b6000604051905090565b600067ffffffffffffffff8211156118c5576118c4611b9b565b5b6118ce82611bde565b9050602081019050919050565b600081519050919050565b600082825260208201905092915050565b60006119028261199e565b915061190d8361199e565b9250827fffffffffffffffffffffffffffffffffffffffffffffffffffffffffffffffff0382111561194257611941611adf565b5b828201905092915050565b60006119588261197e565b9050919050565b60008115159050919050565b600081905061197982611bef565b919050565b600073ffffffffffffffffffffffffffffffffffffffff82169050919050565b6000819050919050565b600060ff82169050919050565b60006119c08261196b565b9050919050565b82818337600083830152505050565b60005b838110156119f45780820151818401526020810190506119d9565b83811115611a03576000848401525b50505050565b60006002820490506001821680611a2157607f821691505b60208210811415611a3557611a34611b3d565b5b50919050565b611a4482611bde565b810181811067ffffffffffffffff82111715611a6357611a62611b9b565b5b80604052505050565b6000611a778261199e565b91507fffffffffffffffffffffffffffffffffffffffffffffffffffffffffffffffff821415611aaa57611aa9611adf565b5b600182019050919050565b6000611ac0826119a8565b915060ff821415611ad457611ad3611adf565b5b600182019050919050565b7f4e487b7100000000000000000000000000000000000000000000000000000000600052601160045260246000fd5b7f4e487b7100000000000000000000000000000000000000000000000000000000600052602160045260246000fd5b7f4e487b7100000000000000000000000000000000000000000000000000000000600052602260045260246000fd5b7f4e487b7100000000000000000000000000000000000000000000000000000000600052603260045260246000fd5b7f4e487b7100000000000000000000000000000000000000000000000000000000600052604160045260246000fd5b600080fd5b600080fd5b600080fd5b600080fd5b6000601f19601f8301169050919050565b60028110611c0057611bff611b0e565b5b50565b611c0c8161194d565b8114611c1757600080fd5b50565b60028110611c2757600080fd5b50565b611c338161199e565b8114611c3e57600080fd5b50565b611c4a816119a8565b8114611c5557600080fd5b5056fea2646970667358221220dd1c65ef051b92e1d7f432f70ef185c8f48f7b058cbaf50d23e065b1446821a064736f6c63430008070033",
  "immutableReferences": {},
  "source": "// SPDX-License-Identifier: GPL-3.0\n\npragma solidity >=0.7.0 <0.9.0;\n\ncontract User {\n    enum Role {\n        OWNER,\n        RENTER\n    }\n\n    struct RentalHistory {\n        address item; // address of the deployed smart contract for the item\n        address rental; // address of the deployed rental contract\n        Role role;\n        bool hasRated; // rate the opposite role in the contact\n        uint256 start; // Unix epoch time\n        uint256 end; // Unix epoch time\n    }\n\n    struct Rating {\n        address item;\n        address rater;\n        uint8 rate;\n        string review;\n        Role role; // role of the rater\n        uint256 time;\n    }\n\n    mapping(address => uint8) public rentalIndexInRentalHistory;\n\n    address public userAddress;\n    string public username;\n    string public deliveryAddress;\n\n    RentalHistory[] public rentalHistories;\n    uint8 public rentalHistoryCount;\n    Rating[] public ratings;\n    uint8 public ratingCount;\n    uint8 public lendingCount;\n    uint8 public borrowingCount;\n    bool public isDishonestUser;\n\n    event usernameChanged(address indexed userAccount, string newUsername);\n    event deliveryAddressChanged(\n        address indexed userAccount,\n        string newDeliveryAddress\n    );\n    event newRatingInput(address indexed from, uint8 rate, uint8 ratingCount);\n\n    constructor(\n        address _userAddress,\n        string memory _username,\n        string memory _deliveryAddress\n    ) {\n        userAddress = _userAddress;\n        username = _username;\n        deliveryAddress = _deliveryAddress;\n\n        rentalHistoryCount = 0;\n        ratingCount = 0;\n        lendingCount = 0;\n        borrowingCount = 0;\n        isDishonestUser = false;\n    }\n\n    modifier onlyUser() {\n        require(msg.sender == userAddress);\n        _;\n    }\n\n    modifier restricted() {\n        require(msg.sender != userAddress);\n        _;\n    }\n\n    function changeUsername(string memory _newUsername) public onlyUser {\n        username = _newUsername;\n        emit usernameChanged(msg.sender, _newUsername);\n    }\n\n    function changeDeliveryAddress(string memory _newDeliveryAddress)\n        public\n        onlyUser\n    {\n        deliveryAddress = _newDeliveryAddress;\n        emit deliveryAddressChanged(msg.sender, _newDeliveryAddress);\n    }\n\n    function setRentalHisotryHasRated(uint8 _index) public {\n        RentalHistory storage history = rentalHistories[_index];\n        history.hasRated = true;\n    }\n\n    // lending: user is owner\n    function addNewLending(\n        address _item,\n        address _rental,\n        uint256 _start,\n        uint256 _end\n    ) public {\n        RentalHistory memory history = RentalHistory({\n            item: _item,\n            rental: _rental,\n            role: Role.OWNER,\n            hasRated: false,\n            start: _start,\n            end: _end\n        });\n\n        lendingCount++;\n        rentalHistories.push(history);\n        rentalIndexInRentalHistory[_item] = rentalHistoryCount;\n        rentalHistoryCount++;\n    }\n\n    // borrowing: user is renter\n    function addNewBorrowing(\n        address _item,\n        address _rental,\n        uint256 _start,\n        uint256 _end\n    ) public {\n        RentalHistory memory history = RentalHistory({\n            item: _item,\n            rental: _rental,\n            role: Role.RENTER,\n            hasRated: false,\n            start: _start,\n            end: _end\n        });\n\n        borrowingCount++;\n        rentalHistories.push(history);\n        rentalIndexInRentalHistory[_item] = rentalHistoryCount;\n        rentalHistoryCount++;\n    }\n\n    function inputRating(\n        address _item,\n        address _raterUserContract,\n        uint8 _rate,\n        string memory _review,\n        Role _role // role of rater\n    ) public restricted {\n        User rater = User(_raterUserContract);\n        uint8 rentalIndexOfRater = rater.rentalIndexInRentalHistory(_item);\n        rater.setRentalHisotryHasRated(rentalIndexOfRater);\n\n        Rating memory newRating = Rating({\n            item: _item,\n            rate: _rate,\n            rater: rater.userAddress(),\n            review: _review,\n            role: _role,\n            time: block.timestamp\n        });\n\n        ratings.push(newRating);\n        ratingCount++;\n\n        emit newRatingInput(rater.userAddress(), _rate, ratingCount);\n    }\n\n    function getRatingsSum() public view returns (uint256) {\n        uint256 sum = 0;\n        for (uint256 i = 0; i < ratingCount; i++) {\n            sum += ratings[i].rate;\n        }\n        return sum;\n    }\n}\n",
  "sourcePath": "/Users/jyuteo/CodeProjects/TRent/src/contracts/User.sol",
  "compiler": {
    "name": "solc",
    "version": "0.8.7+commit.e28d00a7.Emscripten.clang"
  },
  "schemaVersion": "3.4.3",
  "updatedAt": "2021-08-22T13:57:57.694Z",
  "devdoc": {
    "kind": "dev",
    "methods": {},
    "version": 1
  },
  "userdoc": {
    "kind": "user",
    "methods": {},
    "version": 1
  }
}