{
  "contractName": "User",
  "abi": [
    {
      "inputs": [
        {
          "internalType": "address",
          "name": "_userAddress",
          "type": "address"
        },
        {
          "internalType": "string",
          "name": "_username",
          "type": "string"
        },
        {
          "internalType": "string",
          "name": "_deliveryAddress",
          "type": "string"
        }
      ],
      "stateMutability": "nonpayable",
      "type": "constructor"
    },
    {
      "anonymous": false,
      "inputs": [
        {
          "indexed": true,
          "internalType": "address",
          "name": "userAccount",
          "type": "address"
        },
        {
          "indexed": false,
          "internalType": "string",
          "name": "newDeliveryAddress",
          "type": "string"
        }
      ],
      "name": "deliveryAddressChanged",
      "type": "event"
    },
    {
      "anonymous": false,
      "inputs": [
        {
          "indexed": true,
          "internalType": "address",
          "name": "from",
          "type": "address"
        },
        {
          "indexed": false,
          "internalType": "uint8",
          "name": "rate",
          "type": "uint8"
        },
        {
          "indexed": false,
          "internalType": "uint8",
          "name": "ratingCount",
          "type": "uint8"
        }
      ],
      "name": "newReviewInput",
      "type": "event"
    },
    {
      "anonymous": false,
      "inputs": [
        {
          "indexed": true,
          "internalType": "address",
          "name": "userAccount",
          "type": "address"
        },
        {
          "indexed": false,
          "internalType": "string",
          "name": "newUsername",
          "type": "string"
        }
      ],
      "name": "usernameChanged",
      "type": "event"
    },
    {
      "inputs": [],
      "name": "borrowingCount",
      "outputs": [
        {
          "internalType": "uint8",
          "name": "",
          "type": "uint8"
        }
      ],
      "stateMutability": "view",
      "type": "function"
    },
    {
      "inputs": [],
      "name": "deliveryAddress",
      "outputs": [
        {
          "internalType": "string",
          "name": "",
          "type": "string"
        }
      ],
      "stateMutability": "view",
      "type": "function"
    },
    {
      "inputs": [],
      "name": "isDishonestUser",
      "outputs": [
        {
          "internalType": "bool",
          "name": "",
          "type": "bool"
        }
      ],
      "stateMutability": "view",
      "type": "function"
    },
    {
      "inputs": [],
      "name": "lendingCount",
      "outputs": [
        {
          "internalType": "uint8",
          "name": "",
          "type": "uint8"
        }
      ],
      "stateMutability": "view",
      "type": "function"
    },
    {
      "inputs": [
        {
          "internalType": "uint256",
          "name": "",
          "type": "uint256"
        }
      ],
      "name": "rentalHistories",
      "outputs": [
        {
          "internalType": "address",
          "name": "item",
          "type": "address"
        },
        {
          "internalType": "address",
          "name": "rental",
          "type": "address"
        },
        {
          "internalType": "enum User.Role",
          "name": "role",
          "type": "uint8"
        },
        {
          "internalType": "bool",
          "name": "hasRated",
          "type": "bool"
        },
        {
          "internalType": "uint256",
          "name": "start",
          "type": "uint256"
        },
        {
          "internalType": "uint256",
          "name": "end",
          "type": "uint256"
        }
      ],
      "stateMutability": "view",
      "type": "function"
    },
    {
      "inputs": [],
      "name": "rentalHistoryCount",
      "outputs": [
        {
          "internalType": "uint8",
          "name": "",
          "type": "uint8"
        }
      ],
      "stateMutability": "view",
      "type": "function"
    },
    {
      "inputs": [
        {
          "internalType": "address",
          "name": "",
          "type": "address"
        }
      ],
      "name": "rentalIndexInRentalHistory",
      "outputs": [
        {
          "internalType": "uint8",
          "name": "",
          "type": "uint8"
        }
      ],
      "stateMutability": "view",
      "type": "function"
    },
    {
      "inputs": [],
      "name": "reviewCount",
      "outputs": [
        {
          "internalType": "uint8",
          "name": "",
          "type": "uint8"
        }
      ],
      "stateMutability": "view",
      "type": "function"
    },
    {
      "inputs": [
        {
          "internalType": "uint256",
          "name": "",
          "type": "uint256"
        }
      ],
      "name": "reviews",
      "outputs": [
        {
          "internalType": "address",
          "name": "item",
          "type": "address"
        },
        {
          "internalType": "address",
          "name": "rentalContract",
          "type": "address"
        },
        {
          "internalType": "address",
          "name": "raterUserContract",
          "type": "address"
        },
        {
          "internalType": "uint8",
          "name": "rate",
          "type": "uint8"
        },
        {
          "internalType": "string",
          "name": "review",
          "type": "string"
        },
        {
          "internalType": "enum User.Role",
          "name": "role",
          "type": "uint8"
        },
        {
          "internalType": "uint256",
          "name": "time",
          "type": "uint256"
        }
      ],
      "stateMutability": "view",
      "type": "function"
    },
    {
      "inputs": [],
      "name": "userAddress",
      "outputs": [
        {
          "internalType": "address",
          "name": "",
          "type": "address"
        }
      ],
      "stateMutability": "view",
      "type": "function"
    },
    {
      "inputs": [],
      "name": "username",
      "outputs": [
        {
          "internalType": "string",
          "name": "",
          "type": "string"
        }
      ],
      "stateMutability": "view",
      "type": "function"
    },
    {
      "inputs": [
        {
          "internalType": "string",
          "name": "_newUsername",
          "type": "string"
        }
      ],
      "name": "changeUsername",
      "outputs": [],
      "stateMutability": "nonpayable",
      "type": "function"
    },
    {
      "inputs": [
        {
          "internalType": "string",
          "name": "_newDeliveryAddress",
          "type": "string"
        }
      ],
      "name": "changeDeliveryAddress",
      "outputs": [],
      "stateMutability": "nonpayable",
      "type": "function"
    },
    {
      "inputs": [
        {
          "internalType": "uint8",
          "name": "_index",
          "type": "uint8"
        }
      ],
      "name": "setRentalHisotryHasRated",
      "outputs": [],
      "stateMutability": "nonpayable",
      "type": "function"
    },
    {
      "inputs": [
        {
          "internalType": "address",
          "name": "_item",
          "type": "address"
        },
        {
          "internalType": "address",
          "name": "_rental",
          "type": "address"
        },
        {
          "internalType": "uint256",
          "name": "_start",
          "type": "uint256"
        },
        {
          "internalType": "uint256",
          "name": "_end",
          "type": "uint256"
        }
      ],
      "name": "addNewLending",
      "outputs": [],
      "stateMutability": "nonpayable",
      "type": "function"
    },
    {
      "inputs": [
        {
          "internalType": "address",
          "name": "_item",
          "type": "address"
        },
        {
          "internalType": "address",
          "name": "_rental",
          "type": "address"
        },
        {
          "internalType": "uint256",
          "name": "_start",
          "type": "uint256"
        },
        {
          "internalType": "uint256",
          "name": "_end",
          "type": "uint256"
        }
      ],
      "name": "addNewBorrowing",
      "outputs": [],
      "stateMutability": "nonpayable",
      "type": "function"
    },
    {
      "inputs": [
        {
          "internalType": "address",
          "name": "_item",
          "type": "address"
        },
        {
          "internalType": "address",
          "name": "_rentalContract",
          "type": "address"
        },
        {
          "internalType": "address",
          "name": "_raterUserContract",
          "type": "address"
        },
        {
          "internalType": "uint8",
          "name": "_rate",
          "type": "uint8"
        },
        {
          "internalType": "string",
          "name": "_review",
          "type": "string"
        },
        {
          "internalType": "enum User.Role",
          "name": "_role",
          "type": "uint8"
        }
      ],
      "name": "inputReview",
      "outputs": [],
      "stateMutability": "nonpayable",
      "type": "function"
    },
    {
      "inputs": [],
      "name": "getRatingsSum",
      "outputs": [
        {
          "internalType": "uint256",
          "name": "",
          "type": "uint256"
        }
      ],
      "stateMutability": "view",
      "type": "function"
    }
  ],
  "bytecode": "0x60806040523480156200001157600080fd5b506040516200159d3803806200159d8339810160408190526200003491620001f8565b600180546001600160a01b0319166001600160a01b0385161790558151620000649060029060208501906200009b565b5080516200007a9060039060208401906200009b565b50506005805460ff1916905550506007805463ffffffff19169055620002d5565b828054620000a99062000282565b90600052602060002090601f016020900481019282620000cd576000855562000118565b82601f10620000e857805160ff191683800117855562000118565b8280016001018555821562000118579182015b8281111562000118578251825591602001919060010190620000fb565b50620001269291506200012a565b5090565b5b808211156200012657600081556001016200012b565b600082601f8301126200015357600080fd5b81516001600160401b0380821115620001705762000170620002bf565b604051601f8301601f19908116603f011681019082821181831017156200019b576200019b620002bf565b81604052838152602092508683858801011115620001b857600080fd5b600091505b83821015620001dc5785820183015181830184015290820190620001bd565b83821115620001ee5760008385830101525b9695505050505050565b6000806000606084860312156200020e57600080fd5b83516001600160a01b03811681146200022657600080fd5b60208501519093506001600160401b03808211156200024457600080fd5b620002528783880162000141565b935060408601519150808211156200026957600080fd5b50620002788682870162000141565b9150509250925092565b600181811c908216806200029757607f821691505b60208210811415620002b957634e487b7160e01b600052602260045260246000fd5b50919050565b634e487b7160e01b600052604160045260246000fd5b6112b880620002e56000396000f3fe608060405234801561001057600080fd5b50600436106101165760003560e01c8063927584b9116100a2578063c2bd811911610071578063c2bd81191461024a578063e4128fb314610252578063e83ddcea1461027d578063e85e79b6146102a3578063eff5924f146102c857600080fd5b8063927584b9146101fc57806395578e5814610212578063a934899514610225578063b35ddf941461023857600080fd5b806361fac54d116100e957806361fac54d1461018b578063683ab917146101a057806377c846af146101b3578063886f1bb9146101c657806390f1af6c146101d957600080fd5b80632254df251461011b57806326f2d18b1461014457806332cc4e811461015957806350d9de1d14610178575b600080fd5b60075461012f906301000000900460ff1681565b60405190151581526020015b60405180910390f35b610157610152366004610f87565b6102d5565b005b6005546101669060ff1681565b60405160ff909116815260200161013b565b6007546101669062010000900460ff1681565b610193610315565b60405161013b91906110ff565b6101576101ae366004610e40565b6103a3565b6101576101c1366004610f2c565b610802565b6101576101d4366004610f2c565b61086d565b6101666101e7366004610dff565b60006020819052908152604090205460ff1681565b6102046108cc565b60405190815260200161013b565b610157610220366004610ee6565b610933565b610157610233366004610ee6565b610afc565b60075461016690610100900460ff1681565b610193610b51565b600154610265906001600160a01b031681565b6040516001600160a01b03909116815260200161013b565b61029061028b366004610f6e565b610b5e565b60405161013b9796959493929190611030565b6102b66102b1366004610f6e565b610c4d565b60405161013b9695949392919061108e565b6007546101669060ff1681565b600060048260ff16815481106102ed576102ed611245565b60009182526020909120600160049092020101805460ff60a81b1916600160a81b1790555050565b60028054610322906111a9565b80601f016020809104026020016040519081016040528092919081815260200182805461034e906111a9565b801561039b5780601f106103705761010080835404028352916020019161039b565b820191906000526020600020905b81548152906001019060200180831161037e57829003601f168201915b505050505081565b6001546001600160a01b03163314156103bb57600080fd5b60405163243c6bdb60e21b81526001600160a01b03808916600483015288918791600091908316906390f1af6c9060240160206040518083038186803b15801561040457600080fd5b505afa158015610418573d6000803e3d6000fd5b505050506040513d601f19601f8201168201806040525081019061043c9190610fa4565b6040516326f2d18b60e01b815260ff821660048201529091506001600160a01b038316906326f2d18b90602401600060405180830381600087803b15801561048357600080fd5b505af1158015610497573d6000803e3d6000fd5b5050505060006040518060e001604052808c6001600160a01b031681526020018b6001600160a01b031681526020018a6001600160a01b031681526020018960ff16815260200188888080601f01602080910402602001604051908101604052809392919081815260200183838082843760009201919091525050509082525060200186600181111561052c5761052c61122f565b815242602091820152600680546001810182556000829052835191027ff652222313e28459528d920b65115c16c04f3efc82aaedc97be59f3f377c0d3f810180546001600160a01b039384166001600160a01b0319918216178255858501517ff652222313e28459528d920b65115c16c04f3efc82aaedc97be59f3f377c0d40840180549186169190921617905560408501517ff652222313e28459528d920b65115c16c04f3efc82aaedc97be59f3f377c0d4183018054606088015160ff16600160a01b026001600160a81b0319909116929095169190911793909317909255608084015180519495508594929361064c937ff652222313e28459528d920b65115c16c04f3efc82aaedc97be59f3f377c0d4290930192910190610ca9565b5060a082015160048201805460ff19166001838181111561066f5761066f61122f565b021790555060c091909101516005909101556007805460ff16906000610694836111f9565b91906101000a81548160ff021916908360ff160217905550506001808111156106bf576106bf61122f565b8560018111156106d1576106d161122f565b1415610736576040516346f0f32f60e01b81526001600160a01b038516906346f0f32f90610703908490600401611112565b600060405180830381600087803b15801561071d57600080fd5b505af1158015610731573d6000803e3d6000fd5b505050505b826001600160a01b031663e4128fb36040518163ffffffff1660e01b815260040160206040518083038186803b15801561076f57600080fd5b505afa158015610783573d6000803e3d6000fd5b505050506040513d601f19601f820116820180604052508101906107a79190610e23565b6007546040805160ff808d16825290921660208301526001600160a01b0392909216917f55b429f465f51ece29c8e23ac4a440fd26a290daa27c5cb884f632c15c1b9fdf910160405180910390a25050505050505050505050565b6001546001600160a01b0316331461081957600080fd5b61082560028383610d2d565b50336001600160a01b03167ff07516e9449b46121f3f7f7cb800fb5f90f7ee9e442a5479e8e3bab929d71b7783836040516108619291906110d0565b60405180910390a25050565b6001546001600160a01b0316331461088457600080fd5b61089060038383610d2d565b50336001600160a01b03167ff01f8beedc6b4ff8605063d6b438798f7caa71e19ea3097a733f57c40072a32083836040516108619291906110d0565b600080805b60075460ff1681101561092d57600681815481106108f1576108f1611245565b600091825260209091206006909102016002015461091990600160a01b900460ff1683611191565b915080610925816111de565b9150506108d1565b50919050565b6040805160c0810182526001600160a01b03808716825285166020820152600091810182815260006020820152604081018590526060018390526007805491925061010090910460ff16906001610989836111f9565b82546101009290920a60ff818102199093169190921691909102179055506004805460018181018355600083905283517f8a35acfbc15ff81a39ae7d344fd709f28e8600b4aa8c65c6b64bfe7fe36bd19b9290930291820180546001600160a01b03199081166001600160a01b0395861617825560208601517f8a35acfbc15ff81a39ae7d344fd709f28e8600b4aa8c65c6b64bfe7fe36bd19c909401805491821694909516938417855560408601518695929490936001600160a81b03199092161790600160a01b908490811115610a6457610a6461122f565b02179055506060820151600182018054911515600160a81b0260ff60a81b199092169190911790556080820151600282015560a090910151600390910155600580546001600160a01b0387166000908152602081905260408120805460ff191660ff93841617905582549091169190610adc836111f9565b91906101000a81548160ff021916908360ff160217905550505050505050565b6040805160c0810182526001600160a01b03868116825285166020820152600191810191909152600060608201526080810183905260a081018290526007805462010000900460ff16906002610989836111f9565b60038054610322906111a9565b60068181548110610b6e57600080fd5b600091825260209091206006909102018054600182015460028301546003840180546001600160a01b0394851696509284169493821693600160a01b90920460ff1692610bba906111a9565b80601f0160208091040260200160405190810160405280929190818152602001828054610be6906111a9565b8015610c335780601f10610c0857610100808354040283529160200191610c33565b820191906000526020600020905b815481529060010190602001808311610c1657829003601f168201915b505050506004830154600590930154919260ff1691905087565b60048181548110610c5d57600080fd5b600091825260209091206004909102018054600182015460028301546003909301546001600160a01b0392831694509181169260ff600160a01b8304811693600160a81b909304169186565b828054610cb5906111a9565b90600052602060002090601f016020900481019282610cd75760008555610d1d565b82601f10610cf057805160ff1916838001178555610d1d565b82800160010185558215610d1d579182015b82811115610d1d578251825591602001919060010190610d02565b50610d29929150610da1565b5090565b828054610d39906111a9565b90600052602060002090601f016020900481019282610d5b5760008555610d1d565b82601f10610d745782800160ff19823516178555610d1d565b82800160010185558215610d1d579182015b82811115610d1d578235825591602001919060010190610d86565b5b80821115610d295760008155600101610da2565b60008083601f840112610dc857600080fd5b50813567ffffffffffffffff811115610de057600080fd5b602083019150836020828501011115610df857600080fd5b9250929050565b600060208284031215610e1157600080fd5b8135610e1c8161125b565b9392505050565b600060208284031215610e3557600080fd5b8151610e1c8161125b565b600080600080600080600060c0888a031215610e5b57600080fd5b8735610e668161125b565b96506020880135610e768161125b565b95506040880135610e868161125b565b94506060880135610e9681611273565b9350608088013567ffffffffffffffff811115610eb257600080fd5b610ebe8a828b01610db6565b90945092505060a088013560028110610ed657600080fd5b8091505092959891949750929550565b60008060008060808587031215610efc57600080fd5b8435610f078161125b565b93506020850135610f178161125b565b93969395505050506040820135916060013590565b60008060208385031215610f3f57600080fd5b823567ffffffffffffffff811115610f5657600080fd5b610f6285828601610db6565b90969095509350505050565b600060208284031215610f8057600080fd5b5035919050565b600060208284031215610f9957600080fd5b8135610e1c81611273565b600060208284031215610fb657600080fd5b8151610e1c81611273565b60028110610fdf57634e487b7160e01b600052602160045260246000fd5b9052565b6000815180845260005b8181101561100957602081850181015186830182015201610fed565b8181111561101b576000602083870101525b50601f01601f19169290920160200192915050565b6001600160a01b03888116825287811660208301528616604082015260ff8516606082015260e06080820181905260009061106d90830186610fe3565b905061107c60a0830185610fc1565b8260c083015298975050505050505050565b6001600160a01b0387811682528616602082015260c081016110b36040830187610fc1565b9315156060820152608081019290925260a0909101529392505050565b60208152816020820152818360408301376000818301604090810191909152601f909201601f19160101919050565b602081526000610e1c6020830184610fe3565b60208152600060018060a01b038084511660208401528060208501511660408401528060408501511660608401525060ff6060840151166080830152608083015160e060a0840152611168610100840182610fe3565b905060a084015161117c60c0850182610fc1565b5060c084015160e08401528091505092915050565b600082198211156111a4576111a4611219565b500190565b600181811c908216806111bd57607f821691505b6020821081141561092d57634e487b7160e01b600052602260045260246000fd5b60006000198214156111f2576111f2611219565b5060010190565b600060ff821660ff81141561121057611210611219565b60010192915050565b634e487b7160e01b600052601160045260246000fd5b634e487b7160e01b600052602160045260246000fd5b634e487b7160e01b600052603260045260246000fd5b6001600160a01b038116811461127057600080fd5b50565b60ff8116811461127057600080fdfea2646970667358221220d452a1b1a4f1d2c7e05f0b70fa0fb8f60964d68191bb3583890a3e0f6c16ce6664736f6c63430008070033",
  "immutableReferences": {},
  "source": "// SPDX-License-Identifier: GPL-3.0\n\npragma solidity >=0.7.0 <0.9.0;\n\nimport \"./Item.sol\";\nimport \"./Rental.sol\";\n\ncontract User {\n    enum Role {\n        OWNER,\n        RENTER\n    }\n\n    struct RentalHistory {\n        address item; // address of the deployed smart contract for the item\n        address rental; // address of the deployed rental contract\n        Role role;\n        bool hasRated; // rate the opposite role in the contact\n        uint256 start; // Unix epoch time\n        uint256 end; // Unix epoch time\n    }\n\n    struct Review {\n        address item;\n        address rentalContract;\n        address raterUserContract;\n        uint8 rate;\n        string review;\n        Role role; // role of the rater\n        uint256 time;\n    }\n\n    mapping(address => uint8) public rentalIndexInRentalHistory;\n\n    address public userAddress;\n    string public username;\n    string public deliveryAddress;\n\n    RentalHistory[] public rentalHistories;\n    uint8 public rentalHistoryCount;\n    Review[] public reviews;\n    uint8 public reviewCount;\n    uint8 public lendingCount;\n    uint8 public borrowingCount;\n    bool public isDishonestUser;\n\n    event usernameChanged(address indexed userAccount, string newUsername);\n    event deliveryAddressChanged(\n        address indexed userAccount,\n        string newDeliveryAddress\n    );\n    event newReviewInput(address indexed from, uint8 rate, uint8 ratingCount);\n\n    constructor(\n        address _userAddress,\n        string memory _username,\n        string memory _deliveryAddress\n    ) {\n        userAddress = _userAddress;\n        username = _username;\n        deliveryAddress = _deliveryAddress;\n\n        rentalHistoryCount = 0;\n        reviewCount = 0;\n        lendingCount = 0;\n        borrowingCount = 0;\n        isDishonestUser = false;\n    }\n\n    modifier onlyUser() {\n        require(msg.sender == userAddress);\n        _;\n    }\n\n    modifier restricted() {\n        require(msg.sender != userAddress);\n        _;\n    }\n\n    function changeUsername(string calldata _newUsername) public onlyUser {\n        username = _newUsername;\n        emit usernameChanged(msg.sender, _newUsername);\n    }\n\n    function changeDeliveryAddress(string calldata _newDeliveryAddress)\n        public\n        onlyUser\n    {\n        deliveryAddress = _newDeliveryAddress;\n        emit deliveryAddressChanged(msg.sender, _newDeliveryAddress);\n    }\n\n    function setRentalHisotryHasRated(uint8 _index) public {\n        RentalHistory storage history = rentalHistories[_index];\n        history.hasRated = true;\n    }\n\n    // lending: user is owner\n    function addNewLending(\n        address _item,\n        address _rental,\n        uint256 _start,\n        uint256 _end\n    ) public {\n        RentalHistory memory history = RentalHistory({\n            item: _item,\n            rental: _rental,\n            role: Role.OWNER,\n            hasRated: false,\n            start: _start,\n            end: _end\n        });\n\n        lendingCount++;\n        rentalHistories.push(history);\n        rentalIndexInRentalHistory[_item] = rentalHistoryCount;\n        rentalHistoryCount++;\n    }\n\n    // borrowing: user is renter\n    function addNewBorrowing(\n        address _item,\n        address _rental,\n        uint256 _start,\n        uint256 _end\n    ) public {\n        RentalHistory memory history = RentalHistory({\n            item: _item,\n            rental: _rental,\n            role: Role.RENTER,\n            hasRated: false,\n            start: _start,\n            end: _end\n        });\n\n        borrowingCount++;\n        rentalHistories.push(history);\n        rentalIndexInRentalHistory[_item] = rentalHistoryCount;\n        rentalHistoryCount++;\n    }\n\n    function inputReview(\n        address _item,\n        address _rentalContract,\n        address _raterUserContract,\n        uint8 _rate,\n        string calldata _review,\n        Role _role // role of rater\n    ) public restricted {\n        Item item = Item(_item);\n        User rater = User(_raterUserContract);\n        // Rental rental = Rental(_rentalContract);\n        uint8 rentalIndexOfRater = rater.rentalIndexInRentalHistory(_item);\n        rater.setRentalHisotryHasRated(rentalIndexOfRater);\n\n        Review memory newReview = Review({\n            item: _item,\n            rentalContract: _rentalContract,\n            rate: _rate,\n            raterUserContract: _raterUserContract,\n            review: _review,\n            role: _role,\n            time: block.timestamp\n        });\n\n        reviews.push(newReview);\n        reviewCount++;\n\n        if (_role == Role.RENTER) {\n            item.addItemReview(newReview);\n        }\n\n        emit newReviewInput(rater.userAddress(), _rate, reviewCount);\n    }\n\n    function getRatingsSum() public view returns (uint256) {\n        uint256 sum = 0;\n        for (uint256 i = 0; i < reviewCount; i++) {\n            sum += reviews[i].rate;\n        }\n        return sum;\n    }\n}\n",
  "sourcePath": "/Users/jyuteo/CodeProjects/TRent/src/contracts/User.sol",
  "compiler": {
    "name": "solc",
    "version": "0.8.7+commit.e28d00a7.Emscripten.clang"
  },
  "schemaVersion": "3.4.3",
  "updatedAt": "2021-09-06T15:21:27.283Z",
  "devdoc": {
    "kind": "dev",
    "methods": {},
    "version": 1
  },
  "userdoc": {
    "kind": "user",
    "methods": {},
    "version": 1
  }
}