{
  "contractName": "Utils",
  "abi": [
    {
      "inputs": [
        {
          "internalType": "uint256",
          "name": "_i",
          "type": "uint256"
        }
      ],
      "name": "uint2str",
      "outputs": [
        {
          "internalType": "string",
          "name": "str",
          "type": "string"
        }
      ],
      "stateMutability": "pure",
      "type": "function"
    },
    {
      "inputs": [
        {
          "internalType": "address",
          "name": "x",
          "type": "address"
        }
      ],
      "name": "address2str",
      "outputs": [
        {
          "internalType": "string",
          "name": "",
          "type": "string"
        }
      ],
      "stateMutability": "pure",
      "type": "function"
    }
  ],
  "bytecode": "0x608060405234801561001057600080fd5b50610ac6806100206000396000f3fe608060405234801561001057600080fd5b50600436106100365760003560e01c806326d273371461003b578063f76f950e1461006b575b600080fd5b61005560048036038101906100509190610435565b61009b565b60405161006291906104c8565b60405180910390f35b61008560048036038101906100809190610462565b61025e565b60405161009291906104c8565b60405180910390f35b60606000602867ffffffffffffffff8111156100ba576100b9610a10565b5b6040519080825280601f01601f1916602001820160405280156100ec5781602001600182028036833780820191505090505b50905060005b601481101561025457600081601361010a91906107fb565b60086101169190610766565b60026101229190610648565b8573ffffffffffffffffffffffffffffffffffffffff166101439190610593565b60f81b9050600060108260f81c61015a91906105c4565b60f81b905060008160f81c601061017191906107c0565b8360f81c61017f919061082f565b60f81b905061018d826103c5565b8585600261019b9190610766565b815181106101ac576101ab6109e1565b5b60200101907effffffffffffffffffffffffffffffffffffffffffffffffffffffffffffff1916908160001a9053506101e4816103c5565b8560018660026101f49190610766565b6101fe9190610506565b8151811061020f5761020e6109e1565b5b60200101907effffffffffffffffffffffffffffffffffffffffffffffffffffffffffffff1916908160001a905350505050808061024c90610909565b9150506100f2565b5080915050919050565b606060008214156102a6576040518060400160405280600181526020017f300000000000000000000000000000000000000000000000000000000000000081525090506103c0565b600082905060005b600082146102d85780806102c190610909565b915050600a826102d19190610593565b91506102ae565b60008167ffffffffffffffff8111156102f4576102f3610a10565b5b6040519080825280601f01601f1916602001820160405280156103265781602001600182028036833780820191505090505b50905060008290508593505b600084146103b857600a846103479190610952565b60306103539190610506565b60f81b8282610361906108df565b92508281518110610375576103746109e1565b5b60200101907effffffffffffffffffffffffffffffffffffffffffffffffffffffffffffff1916908160001a905350600a846103b19190610593565b9350610332565b819450505050505b919050565b6000600a8260f81c60ff1610156103f05760308260f81c6103e6919061055c565b60f81b9050610406565b60578260f81c610400919061055c565b60f81b90505b919050565b60008135905061041a81610a62565b92915050565b60008135905061042f81610a79565b92915050565b60006020828403121561044b5761044a610a3f565b5b60006104598482850161040b565b91505092915050565b60006020828403121561047857610477610a3f565b5b600061048684828501610420565b91505092915050565b600061049a826104ea565b6104a481856104f5565b93506104b48185602086016108ac565b6104bd81610a44565b840191505092915050565b600060208201905081810360008301526104e2818461048f565b905092915050565b600081519050919050565b600082825260208201905092915050565b600061051182610895565b915061051c83610895565b9250827fffffffffffffffffffffffffffffffffffffffffffffffffffffffffffffffff0382111561055157610550610983565b5b828201905092915050565b60006105678261089f565b91506105728361089f565b92508260ff0382111561058857610587610983565b5b828201905092915050565b600061059e82610895565b91506105a983610895565b9250826105b9576105b86109b2565b5b828204905092915050565b60006105cf8261089f565b91506105da8361089f565b9250826105ea576105e96109b2565b5b828204905092915050565b6000808291508390505b600185111561063f5780860481111561061b5761061a610983565b5b600185161561062a5780820291505b808102905061063885610a55565b94506105ff565b94509492505050565b600061065382610895565b915061065e83610895565b925061068b7fffffffffffffffffffffffffffffffffffffffffffffffffffffffffffffffff8484610693565b905092915050565b6000826106a3576001905061075f565b816106b1576000905061075f565b81600181146106c757600281146106d157610700565b600191505061075f565b60ff8411156106e3576106e2610983565b5b8360020a9150848211156106fa576106f9610983565b5b5061075f565b5060208310610133831016604e8410600b84101617156107355782820a9050838111156107305761072f610983565b5b61075f565b61074284848460016105f5565b9250905081840481111561075957610758610983565b5b81810290505b9392505050565b600061077182610895565b915061077c83610895565b9250817fffffffffffffffffffffffffffffffffffffffffffffffffffffffffffffffff04831182151516156107b5576107b4610983565b5b828202905092915050565b60006107cb8261089f565b91506107d68361089f565b92508160ff04831182151516156107f0576107ef610983565b5b828202905092915050565b600061080682610895565b915061081183610895565b92508282101561082457610823610983565b5b828203905092915050565b600061083a8261089f565b91506108458361089f565b92508282101561085857610857610983565b5b828203905092915050565b600061086e82610875565b9050919050565b600073ffffffffffffffffffffffffffffffffffffffff82169050919050565b6000819050919050565b600060ff82169050919050565b60005b838110156108ca5780820151818401526020810190506108af565b838111156108d9576000848401525b50505050565b60006108ea82610895565b915060008214156108fe576108fd610983565b5b600182039050919050565b600061091482610895565b91507fffffffffffffffffffffffffffffffffffffffffffffffffffffffffffffffff82141561094757610946610983565b5b600182019050919050565b600061095d82610895565b915061096883610895565b925082610978576109776109b2565b5b828206905092915050565b7f4e487b7100000000000000000000000000000000000000000000000000000000600052601160045260246000fd5b7f4e487b7100000000000000000000000000000000000000000000000000000000600052601260045260246000fd5b7f4e487b7100000000000000000000000000000000000000000000000000000000600052603260045260246000fd5b7f4e487b7100000000000000000000000000000000000000000000000000000000600052604160045260246000fd5b600080fd5b6000601f19601f8301169050919050565b60008160011c9050919050565b610a6b81610863565b8114610a7657600080fd5b50565b610a8281610895565b8114610a8d57600080fd5b5056fea26469706673582212203dbed255adf54c9a730c75ea35a04e1e16d7a7ca29137b97363537fce6a934a564736f6c63430008070033",
  "immutableReferences": {},
  "source": "// SPDX-License-Identifier: GPL-3.0\n\npragma solidity >=0.7.0 <0.9.0;\n\ncontract Utils {\n    function uint2str(uint256 _i) public pure returns (string memory str) {\n        if (_i == 0) {\n            return \"0\";\n        }\n        uint256 j = _i;\n        uint256 length;\n        while (j != 0) {\n            length++;\n            j /= 10;\n        }\n        bytes memory bstr = new bytes(length);\n        uint256 k = length;\n        j = _i;\n        while (j != 0) {\n            bstr[--k] = bytes1(uint8(48 + (j % 10)));\n            j /= 10;\n        }\n        str = string(bstr);\n    }\n\n    function address2str(address x) public pure returns (string memory) {\n        bytes memory s = new bytes(40);\n        for (uint256 i = 0; i < 20; i++) {\n            bytes1 b = bytes1(uint8(uint256(uint160(x)) / (2**(8 * (19 - i)))));\n            bytes1 hi = bytes1(uint8(b) / 16);\n            bytes1 lo = bytes1(uint8(b) - 16 * uint8(hi));\n            s[2 * i] = char(hi);\n            s[2 * i + 1] = char(lo);\n        }\n        return string(s);\n    }\n\n    function char(bytes1 b) internal pure returns (bytes1 c) {\n        if (uint8(b) < 10) return bytes1(uint8(b) + 0x30);\n        else return bytes1(uint8(b) + 0x57);\n    }\n}\n",
  "sourcePath": "/Users/jyuteo/CodeProjects/TRent/src/contracts/helpers/Utils.sol",
  "compiler": {
    "name": "solc",
    "version": "0.8.7+commit.e28d00a7.Emscripten.clang"
  },
  "schemaVersion": "3.4.3",
  "updatedAt": "2021-08-22T13:57:57.700Z",
  "devdoc": {
    "kind": "dev",
    "methods": {},
    "version": 1
  },
  "userdoc": {
    "kind": "user",
    "methods": {},
    "version": 1
  }
}