{
  "contractName": "ContractFactory",
  "abi": [
    {
      "inputs": [],
      "stateMutability": "nonpayable",
      "type": "constructor"
    },
    {
      "anonymous": false,
      "inputs": [
        {
          "indexed": false,
          "internalType": "address",
          "name": "newAdminAddress",
          "type": "address"
        }
      ],
      "name": "adminChanged",
      "type": "event"
    },
    {
      "anonymous": false,
      "inputs": [
        {
          "indexed": false,
          "internalType": "address",
          "name": "itemOwnerAddress",
          "type": "address"
        },
        {
          "indexed": false,
          "internalType": "address",
          "name": "itemContract",
          "type": "address"
        }
      ],
      "name": "itemContractCreated",
      "type": "event"
    },
    {
      "anonymous": false,
      "inputs": [
        {
          "indexed": false,
          "internalType": "address",
          "name": "userAddress",
          "type": "address"
        },
        {
          "indexed": false,
          "internalType": "address",
          "name": "userContract",
          "type": "address"
        }
      ],
      "name": "userContractCreated",
      "type": "event"
    },
    {
      "inputs": [],
      "name": "admin",
      "outputs": [
        {
          "internalType": "address",
          "name": "",
          "type": "address"
        }
      ],
      "stateMutability": "view",
      "type": "function"
    },
    {
      "inputs": [
        {
          "internalType": "uint256",
          "name": "",
          "type": "uint256"
        }
      ],
      "name": "itemContracts",
      "outputs": [
        {
          "internalType": "address",
          "name": "",
          "type": "address"
        }
      ],
      "stateMutability": "view",
      "type": "function"
    },
    {
      "inputs": [],
      "name": "itemCount",
      "outputs": [
        {
          "internalType": "uint256",
          "name": "",
          "type": "uint256"
        }
      ],
      "stateMutability": "view",
      "type": "function"
    },
    {
      "inputs": [
        {
          "internalType": "address",
          "name": "",
          "type": "address"
        }
      ],
      "name": "userContractForUser",
      "outputs": [
        {
          "internalType": "address",
          "name": "",
          "type": "address"
        }
      ],
      "stateMutability": "view",
      "type": "function"
    },
    {
      "inputs": [
        {
          "internalType": "uint256",
          "name": "",
          "type": "uint256"
        }
      ],
      "name": "userContracts",
      "outputs": [
        {
          "internalType": "address",
          "name": "",
          "type": "address"
        }
      ],
      "stateMutability": "view",
      "type": "function"
    },
    {
      "inputs": [],
      "name": "userCount",
      "outputs": [
        {
          "internalType": "uint256",
          "name": "",
          "type": "uint256"
        }
      ],
      "stateMutability": "view",
      "type": "function"
    },
    {
      "inputs": [
        {
          "internalType": "address",
          "name": "_userAddress",
          "type": "address"
        },
        {
          "internalType": "string",
          "name": "_username",
          "type": "string"
        },
        {
          "internalType": "string",
          "name": "_deliveryAddress",
          "type": "string"
        }
      ],
      "name": "createUserContractForNewUser",
      "outputs": [],
      "stateMutability": "nonpayable",
      "type": "function"
    },
    {
      "inputs": [
        {
          "components": [
            {
              "internalType": "address",
              "name": "ownerUserContract",
              "type": "address"
            },
            {
              "internalType": "address payable",
              "name": "ownerAddress",
              "type": "address"
            },
            {
              "internalType": "string",
              "name": "name",
              "type": "string"
            },
            {
              "internalType": "string",
              "name": "collectionOrReturnAddress",
              "type": "string"
            },
            {
              "internalType": "string",
              "name": "description",
              "type": "string"
            },
            {
              "internalType": "uint256",
              "name": "rentPerDay",
              "type": "uint256"
            },
            {
              "internalType": "uint8",
              "name": "maxAllowableLateDays",
              "type": "uint8"
            },
            {
              "internalType": "uint8",
              "name": "multipleForLateFees",
              "type": "uint8"
            },
            {
              "internalType": "bool",
              "name": "isAvailableForRent",
              "type": "bool"
            },
            {
              "internalType": "string[]",
              "name": "mediaIPFSHashes",
              "type": "string[]"
            }
          ],
          "internalType": "struct Structs.ItemDetails",
          "name": "_itemDetails",
          "type": "tuple"
        }
      ],
      "name": "createItemContract",
      "outputs": [],
      "stateMutability": "nonpayable",
      "type": "function"
    }
  ],
  "bytecode": "0x608060405234801561001057600080fd5b50600080546001600160a01b03191633179055610a01806100326000396000f3fe608060405234801561001057600080fd5b50600436106100885760003560e01c8063936b67251161005b578063936b6725146100f2578063cd93c74d1461011b578063d072d7be1461012e578063f851a4401461014157600080fd5b806307973ccf1461008d5780632e3d1477146100a95780636bfb0d01146100d45780636fa70e8a146100dd575b600080fd5b61009660025481565b6040519081526020015b60405180910390f35b6100bc6100b7366004610556565b610154565b6040516001600160a01b0390911681526020016100a0565b61009660045481565b6100f06100eb36600461056f565b61017e565b005b6100bc6101003660046105da565b6005602052600090815260409020546001600160a01b031681565b6100bc610129366004610556565b610318565b6100f061013c366004610640565b610328565b6000546100bc906001600160a01b031681565b6003818154811061016457600080fd5b6000918252602090912001546001600160a01b0316905081565b3361018f60408301602084016105da565b6001600160a01b0316146101f55760405162461bcd60e51b815260206004820152602260248201527f4d6574686f64206973207265737472696374656420746f206974656d204f776e60448201526132b960f11b60648201526084015b60405180910390fd5b6040516337d3874560e11b815260009081908190636fa70e8a9061021d9086906004016107f9565b602060405180830381600087803b15801561023757600080fd5b505af115801561024b573d6000803e3d6000fd5b505050506040513d601f19601f8201168201806040525081019061026f9190610941565b6003805460018101825560009182527fc2575a0e9e593c00f959f8c92f12db2869c3395a3b0502d05e2516446f71f85b0180546001600160a01b0319166001600160a01b038416179055600480549293508392916102cc8361095e565b9091555050604080513381526001600160a01b03831660208201527f7379fa3640d5306b2f58ed7095b1c06028b5a430af35578de16d50db415b706b910160405180910390a150505050565b6001818154811061016457600080fd5b6001600160a01b0385811660009081526005602052604090205416156103905760405162461bcd60e51b815260206004820152601b60248201527f55736572206164647265737320616c726561647920657869737473000000000060448201526064016101ec565b6001600160a01b038516331461040e5760405162461bcd60e51b815260206004820152603860248201527f55736572732063616e206f6e6c7920637265617465206e6577206163636f756e60448201527f742077697468207468656972206f776e2061646472657373000000000000000060648201526084016101ec565b6040516368b9404f60e01b8152600090819081906368b9404f9061043e908a908a908a908a908a90600401610987565b602060405180830381600087803b15801561045857600080fd5b505af115801561046c573d6000803e3d6000fd5b505050506040513d601f19601f820116820180604052508101906104909190610941565b600180548082019091557fb10e2d527612073b26eecdfd717e6a320cf44b4afac2b0732d9fcbe2b7fa0cf60180546001600160a01b038084166001600160a01b031992831681179093558a1660009081526005602052604081208054909216909217905560028054929350906105058361095e565b9091555050604080516001600160a01b03808a168252831660208201527f3ae452c9d717870a928bfb2c4f7f6b7c239bfb392b9d6c0cdcf53e3fa8e76201910160405180910390a150505050505050565b60006020828403121561056857600080fd5b5035919050565b60006020828403121561058157600080fd5b813567ffffffffffffffff81111561059857600080fd5b820161014081850312156105ab57600080fd5b9392505050565b6001600160a01b03811681146105c757600080fd5b50565b80356105d5816105b2565b919050565b6000602082840312156105ec57600080fd5b81356105ab816105b2565b60008083601f84011261060957600080fd5b50813567ffffffffffffffff81111561062157600080fd5b60208301915083602082850101111561063957600080fd5b9250929050565b60008060008060006060868803121561065857600080fd5b8535610663816105b2565b9450602086013567ffffffffffffffff8082111561068057600080fd5b61068c89838a016105f7565b909650945060408801359150808211156106a557600080fd5b506106b2888289016105f7565b969995985093965092949392505050565b6000808335601e198436030181126106da57600080fd5b830160208101925035905067ffffffffffffffff8111156106fa57600080fd5b80360383131561063957600080fd5b81835281816020850137506000828201602090810191909152601f909101601f19169091010190565b803560ff811681146105d557600080fd5b803580151581146105d557600080fd5b6000808335601e1984360301811261076a57600080fd5b830160208101925035905067ffffffffffffffff81111561078a57600080fd5b8060051b360383131561063957600080fd5b81835260006020808501808196508560051b810191508460005b878110156107ec5782840389526107cd82886106c3565b6107d8868284610709565b9a87019a95505050908401906001016107b6565b5091979650505050505050565b6020815261081a6020820161080d846105ca565b6001600160a01b03169052565b6000610828602084016105ca565b6001600160a01b03811660408401525061084560408401846106c3565b61014080606086015261085d61016086018385610709565b925061086c60608701876106c3565b9250601f1980878603016080880152610886858584610709565b945061089560808901896106c3565b94509150808786030160a08801526108ae858584610709565b945060a088013560c08801526108c660c08901610732565b60ff811660e089015293506108dd60e08901610732565b935061010091506108f28288018560ff169052565b6108fd828901610743565b935061012091506109118288018515159052565b61091d82890189610753565b945091508087860301838801525061093684848361079c565b979650505050505050565b60006020828403121561095357600080fd5b81516105ab816105b2565b600060001982141561098057634e487b7160e01b600052601160045260246000fd5b5060010190565b6001600160a01b03861681526060602082018190526000906109ac9083018688610709565b82810360408401526109bf818587610709565b9897505050505050505056fea2646970667358221220608bce2cc6d1fc62f0cd099992ac9a0439a95c122a9e9bc75853f5f6fe8d5fea64736f6c63430008090033",
  "immutableReferences": {},
  "source": "// SPDX-License-Identifier: GPL-3.0\n\npragma solidity >=0.7.0 <0.9.0;\n\nimport \"../User.sol\";\nimport \"../Item.sol\";\nimport \"./UserContractCreator.sol\";\nimport \"./ItemContractCreator.sol\";\nimport \"../helpers/Structs.sol\";\n\ncontract ContractFactory {\n    address public admin;\n\n    address[] public userContracts;\n    uint256 public userCount;\n\n    address[] public itemContracts;\n    uint256 public itemCount;\n\n    // map user address to User contract\n    mapping(address => address) public userContractForUser;\n\n    event adminChanged(address newAdminAddress);\n    event userContractCreated(address userAddress, address userContract);\n    event itemContractCreated(address itemOwnerAddress, address itemContract);\n\n    constructor() {\n        admin = msg.sender;\n    }\n\n    modifier notItemOwner(address itemOwnerAddress) {\n        require(\n            msg.sender != itemOwnerAddress,\n            \"Method is not available for item Owner\"\n        );\n        _;\n    }\n\n    function createUserContractForNewUser(\n        address _userAddress,\n        string calldata _username,\n        string calldata _deliveryAddress\n    ) public {\n        require(\n            userContractForUser[_userAddress] == address(0x0),\n            \"User address already exists\"\n        );\n        require(\n            _userAddress == msg.sender,\n            \"Users can only create new account with their own address\"\n        );\n\n        UserContractCreator userContractCreator;\n        User newUserContract = userContractCreator.createUserContract(\n            _userAddress,\n            _username,\n            _deliveryAddress\n        );\n        userContracts.push(address(newUserContract));\n        userContractForUser[_userAddress] = address(newUserContract);\n        userCount++;\n\n        emit userContractCreated(_userAddress, address(newUserContract));\n    }\n\n    function createItemContract(Structs.ItemDetails calldata _itemDetails)\n        public\n    {\n        require(\n            _itemDetails.ownerAddress == msg.sender,\n            \"Method is restricted to item Owner\"\n        );\n        ItemContractCreator itemContractCreator;\n        Item newItemContract = itemContractCreator.createItemContract(\n            _itemDetails\n        );\n        address newItemContractAddress = address(newItemContract);\n        itemContracts.push(newItemContractAddress);\n        itemCount++;\n\n        emit itemContractCreated(msg.sender, newItemContractAddress);\n    }\n}\n",
  "sourcePath": "/Users/jyuteo/CodeProjects/TRent/smart-contracts/src/contracts/factory/ContractFactory.sol",
  "compiler": {
    "name": "solc",
    "version": "0.8.9+commit.e5eed63a.Emscripten.clang"
  },
  "schemaVersion": "3.4.3",
  "updatedAt": "2021-10-04T03:15:34.172Z",
  "devdoc": {
    "kind": "dev",
    "methods": {},
    "version": 1
  },
  "userdoc": {
    "kind": "user",
    "methods": {},
    "version": 1
  }
}