{
  "contractName": "Item",
  "abi": [
    {
      "inputs": [
        {
          "components": [
            {
              "internalType": "address",
              "name": "ownerUserContract",
              "type": "address"
            },
            {
              "internalType": "address payable",
              "name": "ownerAddress",
              "type": "address"
            },
            {
              "internalType": "string",
              "name": "name",
              "type": "string"
            },
            {
              "internalType": "string",
              "name": "description",
              "type": "string"
            },
            {
              "internalType": "string",
              "name": "collectionOrReturnAddress",
              "type": "string"
            },
            {
              "internalType": "uint256",
              "name": "rentPerDay",
              "type": "uint256"
            },
            {
              "internalType": "uint8",
              "name": "maxAllowableLateDays",
              "type": "uint8"
            },
            {
              "internalType": "uint8",
              "name": "multipleForLateFees",
              "type": "uint8"
            },
            {
              "internalType": "bool",
              "name": "isAvailableForRent",
              "type": "bool"
            },
            {
              "internalType": "string[]",
              "name": "imageIPFSUrl",
              "type": "string[]"
            }
          ],
          "internalType": "struct Structs.ItemDetails",
          "name": "_itemDetails",
          "type": "tuple"
        }
      ],
      "stateMutability": "nonpayable",
      "type": "constructor"
    },
    {
      "anonymous": false,
      "inputs": [
        {
          "indexed": false,
          "internalType": "address",
          "name": "item",
          "type": "address"
        },
        {
          "indexed": false,
          "internalType": "string",
          "name": "property",
          "type": "string"
        },
        {
          "indexed": false,
          "internalType": "string",
          "name": "newDetails",
          "type": "string"
        }
      ],
      "name": "itemDetailsChanged",
      "type": "event"
    },
    {
      "anonymous": false,
      "inputs": [
        {
          "indexed": false,
          "internalType": "address",
          "name": "item",
          "type": "address"
        },
        {
          "indexed": false,
          "internalType": "address",
          "name": "newOwnerUserContract",
          "type": "address"
        },
        {
          "indexed": false,
          "internalType": "address",
          "name": "newOwnerAddress",
          "type": "address"
        }
      ],
      "name": "itemOwnerChanged",
      "type": "event"
    },
    {
      "anonymous": false,
      "inputs": [
        {
          "indexed": false,
          "internalType": "address",
          "name": "item",
          "type": "address"
        },
        {
          "indexed": false,
          "internalType": "enum Item.ItemStatus",
          "name": "newStatus",
          "type": "uint8"
        }
      ],
      "name": "itemStatusChanged",
      "type": "event"
    },
    {
      "anonymous": false,
      "inputs": [
        {
          "indexed": true,
          "internalType": "address",
          "name": "from",
          "type": "address"
        },
        {
          "indexed": false,
          "internalType": "uint8",
          "name": "rate",
          "type": "uint8"
        },
        {
          "indexed": false,
          "internalType": "uint8",
          "name": "reviewCount",
          "type": "uint8"
        }
      ],
      "name": "newReviewInput",
      "type": "event"
    },
    {
      "inputs": [
        {
          "internalType": "address",
          "name": "",
          "type": "address"
        }
      ],
      "name": "isRenter",
      "outputs": [
        {
          "internalType": "bool",
          "name": "",
          "type": "bool"
        }
      ],
      "stateMutability": "view",
      "type": "function"
    },
    {
      "inputs": [],
      "name": "itemDetails",
      "outputs": [
        {
          "internalType": "address",
          "name": "ownerUserContract",
          "type": "address"
        },
        {
          "internalType": "address payable",
          "name": "ownerAddress",
          "type": "address"
        },
        {
          "internalType": "string",
          "name": "name",
          "type": "string"
        },
        {
          "internalType": "string",
          "name": "description",
          "type": "string"
        },
        {
          "internalType": "string",
          "name": "collectionOrReturnAddress",
          "type": "string"
        },
        {
          "internalType": "uint256",
          "name": "rentPerDay",
          "type": "uint256"
        },
        {
          "internalType": "uint8",
          "name": "maxAllowableLateDays",
          "type": "uint8"
        },
        {
          "internalType": "uint8",
          "name": "multipleForLateFees",
          "type": "uint8"
        },
        {
          "internalType": "bool",
          "name": "isAvailableForRent",
          "type": "bool"
        }
      ],
      "stateMutability": "view",
      "type": "function"
    },
    {
      "inputs": [],
      "name": "itemStatus",
      "outputs": [
        {
          "internalType": "enum Item.ItemStatus",
          "name": "",
          "type": "uint8"
        }
      ],
      "stateMutability": "view",
      "type": "function"
    },
    {
      "inputs": [],
      "name": "ownerAddress",
      "outputs": [
        {
          "internalType": "address",
          "name": "",
          "type": "address"
        }
      ],
      "stateMutability": "view",
      "type": "function"
    },
    {
      "inputs": [],
      "name": "ownerUserContract",
      "outputs": [
        {
          "internalType": "address",
          "name": "",
          "type": "address"
        }
      ],
      "stateMutability": "view",
      "type": "function"
    },
    {
      "inputs": [],
      "name": "rentalContractCount",
      "outputs": [
        {
          "internalType": "uint8",
          "name": "",
          "type": "uint8"
        }
      ],
      "stateMutability": "view",
      "type": "function"
    },
    {
      "inputs": [
        {
          "internalType": "uint256",
          "name": "",
          "type": "uint256"
        }
      ],
      "name": "rentalContracts",
      "outputs": [
        {
          "internalType": "address",
          "name": "",
          "type": "address"
        }
      ],
      "stateMutability": "view",
      "type": "function"
    },
    {
      "inputs": [
        {
          "internalType": "uint256",
          "name": "",
          "type": "uint256"
        }
      ],
      "name": "rentalPeriods",
      "outputs": [
        {
          "internalType": "uint256",
          "name": "start",
          "type": "uint256"
        },
        {
          "internalType": "uint256",
          "name": "end",
          "type": "uint256"
        }
      ],
      "stateMutability": "view",
      "type": "function"
    },
    {
      "inputs": [],
      "name": "renterCount",
      "outputs": [
        {
          "internalType": "uint8",
          "name": "",
          "type": "uint8"
        }
      ],
      "stateMutability": "view",
      "type": "function"
    },
    {
      "inputs": [
        {
          "internalType": "uint256",
          "name": "",
          "type": "uint256"
        }
      ],
      "name": "renters",
      "outputs": [
        {
          "internalType": "address",
          "name": "",
          "type": "address"
        }
      ],
      "stateMutability": "view",
      "type": "function"
    },
    {
      "inputs": [],
      "name": "reviewCount",
      "outputs": [
        {
          "internalType": "uint8",
          "name": "",
          "type": "uint8"
        }
      ],
      "stateMutability": "view",
      "type": "function"
    },
    {
      "inputs": [
        {
          "internalType": "uint256",
          "name": "",
          "type": "uint256"
        }
      ],
      "name": "reviews",
      "outputs": [
        {
          "internalType": "address",
          "name": "rentalContract",
          "type": "address"
        },
        {
          "internalType": "address",
          "name": "raterUserContract",
          "type": "address"
        },
        {
          "internalType": "uint8",
          "name": "rate",
          "type": "uint8"
        },
        {
          "internalType": "string",
          "name": "review",
          "type": "string"
        },
        {
          "internalType": "uint256",
          "name": "time",
          "type": "uint256"
        }
      ],
      "stateMutability": "view",
      "type": "function"
    },
    {
      "inputs": [
        {
          "internalType": "uint256",
          "name": "",
          "type": "uint256"
        }
      ],
      "name": "reviewsTimestamps",
      "outputs": [
        {
          "internalType": "uint256",
          "name": "",
          "type": "uint256"
        }
      ],
      "stateMutability": "view",
      "type": "function"
    },
    {
      "inputs": [],
      "name": "getItemDetails",
      "outputs": [
        {
          "components": [
            {
              "internalType": "address",
              "name": "ownerUserContract",
              "type": "address"
            },
            {
              "internalType": "address payable",
              "name": "ownerAddress",
              "type": "address"
            },
            {
              "internalType": "string",
              "name": "name",
              "type": "string"
            },
            {
              "internalType": "string",
              "name": "description",
              "type": "string"
            },
            {
              "internalType": "string",
              "name": "collectionOrReturnAddress",
              "type": "string"
            },
            {
              "internalType": "uint256",
              "name": "rentPerDay",
              "type": "uint256"
            },
            {
              "internalType": "uint8",
              "name": "maxAllowableLateDays",
              "type": "uint8"
            },
            {
              "internalType": "uint8",
              "name": "multipleForLateFees",
              "type": "uint8"
            },
            {
              "internalType": "bool",
              "name": "isAvailableForRent",
              "type": "bool"
            },
            {
              "internalType": "string[]",
              "name": "imageIPFSUrl",
              "type": "string[]"
            }
          ],
          "internalType": "struct Structs.ItemDetails",
          "name": "",
          "type": "tuple"
        }
      ],
      "stateMutability": "view",
      "type": "function"
    },
    {
      "inputs": [],
      "name": "getOwnerUserContract",
      "outputs": [
        {
          "internalType": "address",
          "name": "",
          "type": "address"
        }
      ],
      "stateMutability": "view",
      "type": "function"
    },
    {
      "inputs": [
        {
          "internalType": "address",
          "name": "_newOwnerUserContract",
          "type": "address"
        },
        {
          "internalType": "address payable",
          "name": "_newOwnerAddress",
          "type": "address"
        }
      ],
      "name": "changeOwner",
      "outputs": [],
      "stateMutability": "nonpayable",
      "type": "function"
    },
    {
      "inputs": [
        {
          "internalType": "uint8",
          "name": "_newStatus",
          "type": "uint8"
        }
      ],
      "name": "changeItemStatus",
      "outputs": [],
      "stateMutability": "nonpayable",
      "type": "function"
    },
    {
      "inputs": [
        {
          "internalType": "string",
          "name": "_newName",
          "type": "string"
        }
      ],
      "name": "changeItemName",
      "outputs": [],
      "stateMutability": "nonpayable",
      "type": "function"
    },
    {
      "inputs": [
        {
          "internalType": "string",
          "name": "_newAddress",
          "type": "string"
        }
      ],
      "name": "changeItemCollectionOrReturnAddress",
      "outputs": [],
      "stateMutability": "nonpayable",
      "type": "function"
    },
    {
      "inputs": [
        {
          "internalType": "string",
          "name": "_newDescription",
          "type": "string"
        }
      ],
      "name": "changeItemDescription",
      "outputs": [],
      "stateMutability": "nonpayable",
      "type": "function"
    },
    {
      "inputs": [
        {
          "internalType": "uint256",
          "name": "_newRentPerDay",
          "type": "uint256"
        }
      ],
      "name": "changeItemRentPerDay",
      "outputs": [],
      "stateMutability": "nonpayable",
      "type": "function"
    },
    {
      "inputs": [
        {
          "internalType": "uint8",
          "name": "_newMaxAllowableLateDays",
          "type": "uint8"
        }
      ],
      "name": "changeItemMaxAllowableLateDays",
      "outputs": [],
      "stateMutability": "nonpayable",
      "type": "function"
    },
    {
      "inputs": [
        {
          "internalType": "string[]",
          "name": "_newimageIPFSUrl",
          "type": "string[]"
        }
      ],
      "name": "changeItemImageIPFSUrl",
      "outputs": [],
      "stateMutability": "nonpayable",
      "type": "function"
    },
    {
      "inputs": [
        {
          "internalType": "address",
          "name": "_newRentalContract",
          "type": "address"
        },
        {
          "internalType": "uint256",
          "name": "_start",
          "type": "uint256"
        },
        {
          "internalType": "uint256",
          "name": "_end",
          "type": "uint256"
        },
        {
          "internalType": "address",
          "name": "_renterAddress",
          "type": "address"
        }
      ],
      "name": "handleNewRental",
      "outputs": [],
      "stateMutability": "nonpayable",
      "type": "function"
    },
    {
      "inputs": [
        {
          "internalType": "address",
          "name": "_rentalContract",
          "type": "address"
        },
        {
          "internalType": "address",
          "name": "_raterUserContract",
          "type": "address"
        },
        {
          "internalType": "uint8",
          "name": "_rate",
          "type": "uint8"
        },
        {
          "internalType": "string",
          "name": "_review",
          "type": "string"
        }
      ],
      "name": "inputReview",
      "outputs": [],
      "stateMutability": "nonpayable",
      "type": "function"
    },
    {
      "inputs": [],
      "name": "getRatingsSum",
      "outputs": [
        {
          "internalType": "uint256",
          "name": "",
          "type": "uint256"
        }
      ],
      "stateMutability": "view",
      "type": "function"
    }
  ],
  "bytecode": "0x60806040523480156200001157600080fd5b50604051620025eb380380620025eb83398101604081905262000034916200050c565b8051600280546001600160a01b03199081166001600160a01b039384161782556020808501516003805490931694169390931790556040830151805184936200008392600492910190620001af565b5060608201518051620000a1916003840191602090910190620001af565b5060808201518051620000bf916004840191602090910190620001af565b5060a0820151600582015560c082015160068201805460e0850151610100808701511515620100000262ff00001960ff93841690920261ffff199094169290951691909117919091171691909117905561012082015180516200012d9160078401916020909101906200023e565b5050600254600080546001600160a01b039283166001600160a01b031991821617909155600354600180549190931691161790555060085462010000900460ff16156200018457600a805460ff1916905562000192565b600a805460ff191660011790555b50600c805460ff19908116909155601180549091169055620006a1565b828054620001bd9062000664565b90600052602060002090601f016020900481019282620001e157600085556200022c565b82601f10620001fc57805160ff19168380011785556200022c565b828001600101855582156200022c579182015b828111156200022c5782518255916020019190600101906200020f565b506200023a9291506200029e565b5090565b82805482825590600052602060002090810192821562000290579160200282015b828111156200029057825180516200027f918491602090910190620001af565b50916020019190600101906200025f565b506200023a929150620002b5565b5b808211156200023a57600081556001016200029f565b808211156200023a576000620002cc8282620002d6565b50600101620002b5565b508054620002e49062000664565b6000825580601f10620002f5575050565b601f0160209004906000526020600020908101906200031591906200029e565b50565b634e487b7160e01b600052604160045260246000fd5b60405161014081016001600160401b038111828210171562000354576200035462000318565b60405290565b604051601f8201601f191681016001600160401b038111828210171562000385576200038562000318565b604052919050565b80516001600160a01b0381168114620003a557600080fd5b919050565b600082601f830112620003bc57600080fd5b81516001600160401b03811115620003d857620003d862000318565b6020620003ee601f8301601f191682016200035a565b82815285828487010111156200040357600080fd5b60005b838110156200042357858101830151828201840152820162000406565b83811115620004355760008385840101525b5095945050505050565b805160ff81168114620003a557600080fd5b80518015158114620003a557600080fd5b600082601f8301126200047457600080fd5b815160206001600160401b038083111562000493576200049362000318565b8260051b620004a48382016200035a565b9384528581018301938381019088861115620004bf57600080fd5b84880192505b858310156200050057825184811115620004df5760008081fd5b620004ef8a87838c0101620003aa565b8352509184019190840190620004c5565b98975050505050505050565b6000602082840312156200051f57600080fd5b81516001600160401b03808211156200053757600080fd5b9083019061014082860312156200054d57600080fd5b620005576200032e565b62000562836200038d565b815262000572602084016200038d565b60208201526040830151828111156200058a57600080fd5b6200059887828601620003aa565b604083015250606083015182811115620005b157600080fd5b620005bf87828601620003aa565b606083015250608083015182811115620005d857600080fd5b620005e687828601620003aa565b60808301525060a083015160a08201526200060460c084016200043f565b60c08201526200061760e084016200043f565b60e08201526101006200062c81850162000451565b9082015261012083810151838111156200064557600080fd5b620006538882870162000462565b918301919091525095945050505050565b600181811c908216806200067957607f821691505b602082108114156200069b57634e487b7160e01b600052602260045260246000fd5b50919050565b611f3a80620006b16000396000f3fe608060405234801561001057600080fd5b506004361061018e5760003560e01c80638f84aa09116100de578063dcc3974b11610097578063e83ddcea11610071578063e83ddcea1461039f578063eff5924f146103c3578063f00d4b5d146103d0578063ffd369cc146103e357600080fd5b8063dcc3974b14610366578063dce59d1014610379578063e3d0c9d21461038c57600080fd5b80638f84aa09146102d8578063927584b9146102eb5780639f2bc40e146102f3578063a50ad35914610326578063a871c23114610340578063c39c7c1a1461035357600080fd5b80636679497b1161014b578063746a17aa11610125578063746a17aa146102805780637c81d1231461029357806382770a43146102a857806386941d29146102c557600080fd5b80636679497b146102395780636e309a8b1461024c5780636f18c1c21461025f57600080fd5b806321fb7ee8146101935780632d54131a146101c0578063327425c9146101e557806353da0206146101fa57806356ca4cfb1461020d57806363737c511461022c575b600080fd5b6101a66101a1366004611557565b6103f6565b604080519283526020830191909152015b60405180910390f35b6000546001600160a01b03165b6040516001600160a01b0390911681526020016101b7565b6101f86101f33660046115df565b610424565b005b6101cd610208366004611557565b6104bb565b600f5461021a9060ff1681565b60405160ff90911681526020016101b7565b600c5461021a9060ff1681565b6101f86102473660046116fc565b6104e5565b6101f861025a366004611767565b6105be565b61027261026d366004611557565b610616565b6040519081526020016101b7565b6101f861028e3660046117be565b610637565b61029b6107b4565b6040516101b791906118b9565b6102b0610afe565b6040516101b7999897969594939291906119b9565b6101f86102d3366004611767565b610ce3565b6001546101cd906001600160a01b031681565b610272610d3b565b610316610301366004611a3e565b60106020526000908152604090205460ff1681565b60405190151581526020016101b7565b600a546103339060ff1681565b6040516101b79190611a7d565b6101f861034e366004611767565b610da2565b6101f8610361366004611a91565b610dfa565b6101cd610374366004611557565b611070565b6000546101cd906001600160a01b031681565b6101f861039a366004611557565b611080565b6103b26103ad366004611557565b61114b565b6040516101b7959493929190611b0b565b60115461021a9060ff1681565b6101f86103de366004611b52565b611227565b6101f86103f13660046116fc565b6112d1565b600d818154811061040657600080fd5b60009182526020909120600290910201805460019091015490915082565b6001546001600160a01b031633146104575760405162461bcd60e51b815260040161044e90611b8b565b60405180910390fd5b805161046a906009906020840190611397565b50604080518082018252600f81526e1b995dd25b5859d952541194d55c9b608a1b60208201529051600080516020611ee5833981519152906104af9030908490611bc2565b60405180910390a15050565b600b81815481106104cb57600080fd5b6000918252602090912001546001600160a01b0316905081565b6001546001600160a01b0316331461050f5760405162461bcd60e51b815260040161044e90611b8b565b6008805460ff191660ff8316908117909155604051637bb7ca8760e11b8152600481019190915260009073__Utils_________________________________9063f76f950e90602401600060405180830381865af4158015610575573d6000803e3d6000fd5b505050506040513d6000823e601f3d908101601f1916820160405261059d9190810190611c0e565b9050600080516020611ee583398151915230826040516104af929190611c85565b6001546001600160a01b031633146105e85760405162461bcd60e51b815260040161044e90611b8b565b6105f4600583836113f4565b50600080516020611ee58339815191523083836040516104af93929190611cfa565b6013818154811061062657600080fd5b600091825260209091200154905081565b600b805460018101825560009182527f0175b7a638427703f0dbe7bb9bbf987a2551717b34e79f33b5b1008d1fa01db90180546001600160a01b0319166001600160a01b038716179055600c805460ff169161069283611d54565b82546101009290920a60ff8181021990931691831602179091556040805180820182528681526020808201878152600d805460018181018355600092835294517fd7b6990105719101dabeb77144f2a3385c8033acd3af97e9423a695e81ad1eb560029092029182015591517fd7b6990105719101dabeb77144f2a3385c8033acd3af97e9423a695e81ad1eb690920191909155600e80548085019091557fbb7b4a454dc3493923482f07822329ed19e8244eff582cc204f8554c3620c3fd0180546001600160a01b0319166001600160a01b03891690811790915581526010909152918220805460ff19169091179055600f8054909216925061079583611d54565b91906101000a81548160ff021916908360ff1602179055505050505050565b604080516101408101825260008082526020820181905260609282018390528282018390526080820183905260a0820181905260c0820181905260e082018190526101008201526101208101919091526040805161014081018252600280546001600160a01b03908116835260035416602083015260048054929391929184019161083e90611d74565b80601f016020809104026020016040519081016040528092919081815260200182805461086a90611d74565b80156108b75780601f1061088c576101008083540402835291602001916108b7565b820191906000526020600020905b81548152906001019060200180831161089a57829003601f168201915b505050505081526020016003820180546108d090611d74565b80601f01602080910402602001604051908101604052809291908181526020018280546108fc90611d74565b80156109495780601f1061091e57610100808354040283529160200191610949565b820191906000526020600020905b81548152906001019060200180831161092c57829003601f168201915b5050505050815260200160048201805461096290611d74565b80601f016020809104026020016040519081016040528092919081815260200182805461098e90611d74565b80156109db5780601f106109b0576101008083540402835291602001916109db565b820191906000526020600020905b8154815290600101906020018083116109be57829003601f168201915b50505091835250506005820154602080830191909152600683015460ff80821660408086019190915261010083048216606086015262010000909204161515608084015260078401805482518185028101850190935280835260a090940193919290919060009084015b82821015610af1578382906000526020600020018054610a6490611d74565b80601f0160208091040260200160405190810160405280929190818152602001828054610a9090611d74565b8015610add5780601f10610ab257610100808354040283529160200191610add565b820191906000526020600020905b815481529060010190602001808311610ac057829003601f168201915b505050505081526020019060010190610a45565b5050505081525050905090565b60028054600354600480546001600160a01b03938416949290931692610b2390611d74565b80601f0160208091040260200160405190810160405280929190818152602001828054610b4f90611d74565b8015610b9c5780601f10610b7157610100808354040283529160200191610b9c565b820191906000526020600020905b815481529060010190602001808311610b7f57829003601f168201915b505050505090806003018054610bb190611d74565b80601f0160208091040260200160405190810160405280929190818152602001828054610bdd90611d74565b8015610c2a5780601f10610bff57610100808354040283529160200191610c2a565b820191906000526020600020905b815481529060010190602001808311610c0d57829003601f168201915b505050505090806004018054610c3f90611d74565b80601f0160208091040260200160405190810160405280929190818152602001828054610c6b90611d74565b8015610cb85780601f10610c8d57610100808354040283529160200191610cb8565b820191906000526020600020905b815481529060010190602001808311610c9b57829003601f168201915b50505050600583015460069093015491929160ff808216925061010082048116916201000090041689565b6001546001600160a01b03163314610d0d5760405162461bcd60e51b815260040161044e90611b8b565b610d19600683836113f4565b50600080516020611ee58339815191523083836040516104af93929190611da9565b600080805b60115460ff16811015610d9c5760128181548110610d6057610d60611dff565b6000918252602090912060049091020160010154610d8890600160a01b900460ff1683611e15565b915080610d9481611e2d565b915050610d40565b50919050565b6001546001600160a01b03163314610dcc5760405162461bcd60e51b815260040161044e90611b8b565b610dd8600483836113f4565b50600080516020611ee58339815191523083836040516104af93929190611e48565b3360009081526010602052604090205460ff16610e595760405162461bcd60e51b815260206004820152601e60248201527f4d6574686f64206973207265737472696374656420746f2052656e7465720000604482015260640161044e565b60006040518060a00160405280876001600160a01b03168152602001866001600160a01b031681526020018560ff16815260200184848080601f01602080910402602001604051908101604052809392919081815260200183838082843760009201829052509385525050426020938401525060128054600181018255915282517fbb8a6a4669ba250d26cd7a459eca9d215f8307e33aebe50379bc5a3617ec3444600490920291820180546001600160a01b0319166001600160a01b03928316178155848401517fbb8a6a4669ba250d26cd7a459eca9d215f8307e33aebe50379bc5a3617ec3445840180546040880151929094166001600160a81b031990941693909317600160a01b60ff90921691909102179091556060840151805194955085949193610fae937fbb8a6a4669ba250d26cd7a459eca9d215f8307e33aebe50379bc5a3617ec34460192910190611474565b5060809190910151600390910155601380546001810182556000918252427f66de8ffda797e3de9c05e8fc57b3bf0ec28a930d40b0d285d93c06501cf6a090909101556011805460ff169161100283611d54565b82546101009290920a60ff8181021990931691831602179091556011546040805188841681529190921660208201526001600160a01b03881692507f55b429f465f51ece29c8e23ac4a440fd26a290daa27c5cb884f632c15c1b9fdf910160405180910390a2505050505050565b600e81815481106104cb57600080fd5b6001546001600160a01b031633146110aa5760405162461bcd60e51b815260040161044e90611b8b565b6007819055604051637bb7ca8760e11b81526004810182905260009073__Utils_________________________________9063f76f950e90602401600060405180830381865af4158015611102573d6000803e3d6000fd5b505050506040513d6000823e601f3d908101601f1916820160405261112a9190810190611c0e565b9050600080516020611ee583398151915230826040516104af929190611e85565b6012818154811061115b57600080fd5b60009182526020909120600490910201805460018201546002830180546001600160a01b03938416955092821693600160a01b90920460ff169261119e90611d74565b80601f01602080910402602001604051908101604052809291908181526020018280546111ca90611d74565b80156112175780601f106111ec57610100808354040283529160200191611217565b820191906000526020600020905b8154815290600101906020018083116111fa57829003601f168201915b5050505050908060030154905085565b6001546001600160a01b031633146112515760405162461bcd60e51b815260040161044e90611b8b565b600280546001600160a01b038481166001600160a01b031992831681179093556003805491851691831682179055600080548316841790556001805490921681179091556040805130815260208101939093528201527f391e7445162e95b0462700ab996083fc3e40222a108de81e4fbea5e9ddfdaae1906060016104af565b60ff8116611304576008805462ff0000191662010000179055600a80546000919060ff19166001835b0217905550611355565b8060ff166001141561132f576008805462ff000019169055600a80546001919060ff191682806112fa565b8060ff1660021415611355576008805462ff000019169055600a805460ff191660021790555b600a546040517f8c5acf85d257fc548b6710d2ceeffe7d4b9b4dc7ed2866b316815c2ab592b9f69161138c91309160ff1690611ec7565b60405180910390a150565b8280548282559060005260206000209081019282156113e4579160200282015b828111156113e457825180516113d4918491602090910190611474565b50916020019190600101906113b7565b506113f09291506114e8565b5090565b82805461140090611d74565b90600052602060002090601f0160209004810192826114225760008555611468565b82601f1061143b5782800160ff19823516178555611468565b82800160010185558215611468579182015b8281111561146857823582559160200191906001019061144d565b506113f0929150611505565b82805461148090611d74565b90600052602060002090601f0160209004810192826114a25760008555611468565b82601f106114bb57805160ff1916838001178555611468565b82800160010185558215611468579182015b828111156114685782518255916020019190600101906114cd565b808211156113f05760006114fc828261151a565b506001016114e8565b5b808211156113f05760008155600101611506565b50805461152690611d74565b6000825580601f10611536575050565b601f0160209004906000526020600020908101906115549190611505565b50565b60006020828403121561156957600080fd5b5035919050565b634e487b7160e01b600052604160045260246000fd5b604051601f8201601f1916810167ffffffffffffffff811182821017156115af576115af611570565b604052919050565b600067ffffffffffffffff8211156115d1576115d1611570565b50601f01601f191660200190565b600060208083850312156115f257600080fd5b823567ffffffffffffffff8082111561160a57600080fd5b818501915085601f83011261161e57600080fd5b81358181111561163057611630611570565b8060051b61163f858201611586565b918252838101850191858101908984111561165957600080fd5b86860192505b838310156116d9578235858111156116775760008081fd5b8601603f81018b136116895760008081fd5b8781013560406116a061169b836115b7565b611586565b8281528d828486010111156116b55760008081fd5b828285018c83013760009281018b019290925250835250918601919086019061165f565b9998505050505050505050565b803560ff811681146116f757600080fd5b919050565b60006020828403121561170e57600080fd5b611717826116e6565b9392505050565b60008083601f84011261173057600080fd5b50813567ffffffffffffffff81111561174857600080fd5b60208301915083602082850101111561176057600080fd5b9250929050565b6000806020838503121561177a57600080fd5b823567ffffffffffffffff81111561179157600080fd5b61179d8582860161171e565b90969095509350505050565b6001600160a01b038116811461155457600080fd5b600080600080608085870312156117d457600080fd5b84356117df816117a9565b9350602085013592506040850135915060608501356117fd816117a9565b939692955090935050565b60005b8381101561182357818101518382015260200161180b565b83811115611832576000848401525b50505050565b60008151808452611850816020860160208601611808565b601f01601f19169290920160200192915050565b600081518084526020808501808196508360051b8101915082860160005b858110156118ac57828403895261189a848351611838565b98850198935090840190600101611882565b5091979650505050505050565b602081526118d36020820183516001600160a01b03169052565b600060208301516118ef60408401826001600160a01b03169052565b50604083015161014080606085015261190c610160850183611838565b91506060850151601f198086850301608087015261192a8483611838565b935060808701519150808685030160a08701526119478483611838565b935060a087015160c087015260c0870151915061196960e087018360ff169052565b60e087015191506101006119818188018460ff169052565b87015191506101206119968782018415159052565b8701518685039091018387015290506119af8382611864565b9695505050505050565b6001600160a01b038a8116825289166020820152610120604082018190526000906119e68382018b611838565b905082810360608401526119fa818a611838565b90508281036080840152611a0e8189611838565b60a0840197909752505060ff93841660c08201529190921660e08201529015156101009091015295945050505050565b600060208284031215611a5057600080fd5b8135611717816117a9565b60038110611a7957634e487b7160e01b600052602160045260246000fd5b9052565b60208101611a8b8284611a5b565b92915050565b600080600080600060808688031215611aa957600080fd5b8535611ab4816117a9565b94506020860135611ac4816117a9565b9350611ad2604087016116e6565b9250606086013567ffffffffffffffff811115611aee57600080fd5b611afa8882890161171e565b969995985093965092949392505050565b6001600160a01b0386811682528516602082015260ff8416604082015260a060608201819052600090611b4090830185611838565b90508260808301529695505050505050565b60008060408385031215611b6557600080fd5b8235611b70816117a9565b91506020830135611b80816117a9565b809150509250929050565b6020808252601d908201527f4d6574686f64206973207265737472696374656420746f204f776e6572000000604082015260600190565b60018060a01b038316815260606020820152600c60608201526b1a5b5859d952541194d55c9b60a21b608082015260a060408201526000611c0660a0830184611838565b949350505050565b600060208284031215611c2057600080fd5b815167ffffffffffffffff811115611c3757600080fd5b8201601f81018413611c4857600080fd5b8051611c5661169b826115b7565b818152856020838501011115611c6b57600080fd5b611c7c826020830160208601611808565b95945050505050565b60018060a01b03831681526060602082015260146060820152736d6178416c6c6f7761626c654c6174654461797360601b608082015260a060408201526000611c0660a0830184611838565b81835281816020850137506000828201602090810191909152601f909101601f19169091010190565b60018060a01b038416815260606020820152600b60608201526a3232b9b1b934b83a34b7b760a91b608082015260a060408201526000611c7c60a083018486611cd1565b634e487b7160e01b600052601160045260246000fd5b600060ff821660ff811415611d6b57611d6b611d3e565b60010192915050565b600181811c90821680611d8857607f821691505b60208210811415610d9c57634e487b7160e01b600052602260045260246000fd5b60018060a01b038416815260606020820152601860608201527f636f6c6c656374696f6e2f72657475726e416464726573730000000000000000608082015260a060408201526000611c7c60a083018486611cd1565b634e487b7160e01b600052603260045260246000fd5b60008219821115611e2857611e28611d3e565b500190565b6000600019821415611e4157611e41611d3e565b5060010190565b60018060a01b03841681526060602082015260046060820152636e616d6560e01b608082015260a060408201526000611c7c60a083018486611cd1565b60018060a01b038316815260606020820152600a60608201526972656e7450657244617960b01b608082015260a060408201526000611c0660a0830184611838565b6001600160a01b0383168152604081016117176020830184611a5b56fe1fb119ae646ad419061c26b2c9f00687535e680f4cabbaa1a12df632a4668054a2646970667358221220cadca1afe333fbc680a4818855803feba6e7c4b9b7a4495aeef16fbf70e847f364736f6c634300080b0033",
  "immutableReferences": {},
  "source": "// SPDX-License-Identifier: GPL-3.0\n\npragma solidity >=0.7.0 <0.9.0;\n\nimport \"./helpers/Utils.sol\";\nimport \"./helpers/Structs.sol\";\nimport \"./User.sol\";\nimport \"./Rental.sol\";\n\ncontract Item {\n    using Utils for *;\n\n    enum ItemStatus {\n        AVAILABLE,\n        HIDDEN,\n        DELETED\n    }\n\n    struct RentalStartEnd {\n        uint256 start; // Unix epoch time\n        uint256 end; // Unix epoch time\n    }\n\n    struct Review {\n        address rentalContract;\n        address raterUserContract;\n        uint8 rate;\n        string review;\n        uint256 time;\n    }\n\n    address public ownerUserContract;\n    address public ownerAddress;\n    Structs.ItemDetails public itemDetails;\n    ItemStatus public itemStatus;\n\n    address[] public rentalContracts;\n    uint8 public rentalContractCount;\n    RentalStartEnd[] public rentalPeriods;\n\n    address[] public renters;\n    uint8 public renterCount;\n    mapping(address => bool) public isRenter;\n\n    uint8 public reviewCount;\n    Review[] public reviews;\n    uint256[] public reviewsTimestamps;\n\n    event itemOwnerChanged(\n        address item,\n        address newOwnerUserContract,\n        address newOwnerAddress\n    );\n    event itemStatusChanged(address item, ItemStatus newStatus);\n    event itemDetailsChanged(address item, string property, string newDetails);\n    event newReviewInput(address indexed from, uint8 rate, uint8 reviewCount);\n\n    constructor(Structs.ItemDetails memory _itemDetails) {\n        itemDetails = _itemDetails;\n        ownerUserContract = itemDetails.ownerUserContract;\n        ownerAddress = itemDetails.ownerAddress;\n\n        if (itemDetails.isAvailableForRent) {\n            itemStatus = ItemStatus.AVAILABLE;\n        } else {\n            itemStatus = ItemStatus.HIDDEN;\n        }\n\n        rentalContractCount = 0;\n        reviewCount = 0;\n    }\n\n    modifier onlyOwner() {\n        require(msg.sender == ownerAddress, \"Method is restricted to Owner\");\n        _;\n    }\n\n    modifier onlyRenter() {\n        require(isRenter[msg.sender], \"Method is restricted to Renter\");\n        _;\n    }\n\n    function getItemDetails() public view returns (Structs.ItemDetails memory) {\n        return itemDetails;\n    }\n\n    function getOwnerUserContract() public view returns (address) {\n        return ownerUserContract;\n    }\n\n    function changeOwner(\n        address _newOwnerUserContract,\n        address payable _newOwnerAddress\n    ) public onlyOwner {\n        itemDetails.ownerUserContract = _newOwnerUserContract;\n        itemDetails.ownerAddress = _newOwnerAddress;\n        ownerUserContract = _newOwnerUserContract;\n        ownerAddress = _newOwnerAddress;\n\n        emit itemOwnerChanged(\n            address(this),\n            _newOwnerUserContract,\n            _newOwnerAddress\n        );\n    }\n\n    function changeItemStatus(uint8 _newStatus) public {\n        if (_newStatus == 0) {\n            itemDetails.isAvailableForRent = true;\n            itemStatus = ItemStatus.AVAILABLE;\n        } else if (_newStatus == 1) {\n            itemDetails.isAvailableForRent = false;\n            itemStatus = ItemStatus.HIDDEN;\n        } else if (_newStatus == 2) {\n            itemDetails.isAvailableForRent = false;\n            itemStatus = ItemStatus.DELETED;\n        }\n\n        emit itemStatusChanged(address(this), itemStatus);\n    }\n\n    function changeItemName(string calldata _newName) public onlyOwner {\n        itemDetails.name = _newName;\n        emit itemDetailsChanged(address(this), \"name\", _newName);\n    }\n\n    function changeItemCollectionOrReturnAddress(string calldata _newAddress)\n        public\n        onlyOwner\n    {\n        itemDetails.collectionOrReturnAddress = _newAddress;\n        emit itemDetailsChanged(\n            address(this),\n            \"collection/returnAddress\",\n            _newAddress\n        );\n    }\n\n    function changeItemDescription(string calldata _newDescription)\n        public\n        onlyOwner\n    {\n        itemDetails.description = _newDescription;\n        emit itemDetailsChanged(address(this), \"description\", _newDescription);\n    }\n\n    function changeItemRentPerDay(uint256 _newRentPerDay) public onlyOwner {\n        itemDetails.rentPerDay = _newRentPerDay;\n        string memory newRentPerDay = Utils.uint2str(_newRentPerDay);\n        emit itemDetailsChanged(\n            address(this),\n            \"rentPerDay\",\n            string(newRentPerDay)\n        );\n    }\n\n    function changeItemMaxAllowableLateDays(uint8 _newMaxAllowableLateDays)\n        public\n        onlyOwner\n    {\n        itemDetails.maxAllowableLateDays = _newMaxAllowableLateDays;\n        string memory newMaxAllowableLateDays = Utils.uint2str(\n            _newMaxAllowableLateDays\n        );\n        emit itemDetailsChanged(\n            address(this),\n            \"maxAllowableLateDays\",\n            newMaxAllowableLateDays\n        );\n    }\n\n    function changeItemImageIPFSUrl(string[] memory _newimageIPFSUrl)\n        public\n        onlyOwner\n    {\n        itemDetails.imageIPFSUrl = _newimageIPFSUrl;\n        string memory newImageIPFSUrl = \"newImageIPFSUrl\";\n\n        emit itemDetailsChanged(address(this), \"imageIPFSUrl\", newImageIPFSUrl);\n    }\n\n    function handleNewRental(\n        address _newRentalContract,\n        uint256 _start,\n        uint256 _end,\n        address _renterAddress\n    ) public {\n        rentalContracts.push(address(_newRentalContract));\n        rentalContractCount++;\n\n        rentalPeriods.push(RentalStartEnd({start: _start, end: _end}));\n\n        renters.push(_renterAddress);\n        isRenter[_renterAddress] = true;\n        renterCount++;\n    }\n\n    function inputReview(\n        address _rentalContract,\n        address _raterUserContract,\n        uint8 _rate,\n        string calldata _review\n    ) public onlyRenter {\n        Review memory newReview = Review({\n            rentalContract: _rentalContract,\n            rate: _rate,\n            raterUserContract: _raterUserContract,\n            review: _review,\n            time: block.timestamp\n        });\n\n        reviews.push(newReview);\n        reviewsTimestamps.push(block.timestamp);\n        reviewCount++;\n\n        emit newReviewInput(_raterUserContract, _rate, reviewCount);\n    }\n\n    function getRatingsSum() public view returns (uint256) {\n        uint256 sum = 0;\n        for (uint256 i = 0; i < reviewCount; i++) {\n            sum += reviews[i].rate;\n        }\n        return sum;\n    }\n}\n",
  "sourcePath": "/Users/jyuteo/CodeProjects/TRent/smart-contracts/src/contracts/Item.sol",
  "compiler": {
    "name": "solc",
    "version": "0.8.11+commit.d7f03943.Emscripten.clang"
  },
  "schemaVersion": "3.4.3",
  "updatedAt": "2022-02-04T02:45:57.924Z",
  "devdoc": {
    "kind": "dev",
    "methods": {},
    "version": 1
  },
  "userdoc": {
    "kind": "user",
    "methods": {},
    "version": 1
  }
}