{
  "contractName": "RentalContractCreator",
  "abi": [
    {
      "anonymous": false,
      "inputs": [
        {
          "indexed": false,
          "internalType": "address",
          "name": "rentalContract",
          "type": "address"
        },
        {
          "indexed": false,
          "internalType": "address",
          "name": "itemContract",
          "type": "address"
        },
        {
          "indexed": false,
          "internalType": "address",
          "name": "renterAddress",
          "type": "address"
        }
      ],
      "name": "rentalContractCreated",
      "type": "event"
    },
    {
      "inputs": [],
      "name": "rentalContractCount",
      "outputs": [
        {
          "internalType": "uint8",
          "name": "",
          "type": "uint8"
        }
      ],
      "stateMutability": "view",
      "type": "function",
      "constant": true
    },
    {
      "inputs": [
        {
          "internalType": "uint256",
          "name": "",
          "type": "uint256"
        }
      ],
      "name": "rentalContracts",
      "outputs": [
        {
          "internalType": "address",
          "name": "",
          "type": "address"
        }
      ],
      "stateMutability": "view",
      "type": "function",
      "constant": true
    },
    {
      "inputs": [
        {
          "internalType": "address",
          "name": "_itemContract",
          "type": "address"
        },
        {
          "components": [
            {
              "internalType": "address",
              "name": "ownerUserContract",
              "type": "address"
            },
            {
              "internalType": "address payable",
              "name": "ownerAddress",
              "type": "address"
            },
            {
              "internalType": "string",
              "name": "name",
              "type": "string"
            },
            {
              "internalType": "string",
              "name": "description",
              "type": "string"
            },
            {
              "internalType": "string",
              "name": "collectionOrReturnAddress",
              "type": "string"
            },
            {
              "internalType": "uint256",
              "name": "rentPerDay",
              "type": "uint256"
            },
            {
              "internalType": "uint8",
              "name": "maxAllowableLateDays",
              "type": "uint8"
            },
            {
              "internalType": "uint8",
              "name": "multipleForLateFees",
              "type": "uint8"
            },
            {
              "internalType": "bool",
              "name": "isAvailableForRent",
              "type": "bool"
            },
            {
              "internalType": "string[]",
              "name": "imageIPFSUrl",
              "type": "string[]"
            }
          ],
          "internalType": "struct Structs.ItemDetails",
          "name": "_itemDetails",
          "type": "tuple"
        },
        {
          "internalType": "address",
          "name": "_renterUserContract",
          "type": "address"
        },
        {
          "internalType": "address payable",
          "name": "_renterAddress",
          "type": "address"
        },
        {
          "internalType": "uint256",
          "name": "_rentalFees",
          "type": "uint256"
        },
        {
          "internalType": "uint256",
          "name": "_renterDeposit",
          "type": "uint256"
        },
        {
          "internalType": "uint256",
          "name": "_start",
          "type": "uint256"
        },
        {
          "internalType": "uint256",
          "name": "_end",
          "type": "uint256"
        }
      ],
      "name": "createRentalContract",
      "outputs": [],
      "stateMutability": "payable",
      "type": "function",
      "payable": true
    }
  ],
  "bytecode": "0x608060405234801561001057600080fd5b50612357806100206000396000f3fe608060405260043610620000385760003560e01c806353da0206146200003d57806363737c51146200007f578063b6cf16ca14620000ae575b600080fd5b3480156200004a57600080fd5b50620000626200005c36600462000540565b620000c7565b6040516001600160a01b0390911681526020015b60405180910390f35b3480156200008c57600080fd5b506001546200009b9060ff1681565b60405160ff909116815260200162000076565b620000c5620000bf36600462000741565b620000f2565b005b60008181548110620000d857600080fd5b6000918252602090912001546001600160a01b0316905081565b336001600160a01b03861614620001615760405162461bcd60e51b815260206004820152602860248201527f52656e746572206164647265737320646f6573206e6f74206d61746368206d73604482015267339739b2b73232b960c11b60648201526084015b60405180910390fd5b604051638dfd0b0360e01b81526004810184905273__Utils_________________________________90638dfd0b0390602401602060405180830381865af4158015620001b2573d6000803e3d6000fd5b505050506040513d601f19601f82011682018060405250810190620001d89190620008f8565b34146200023e5760405162461bcd60e51b815260206004820152602d60248201527f56616c7565207472616e736665726564206973206e6f7420657175616c20726560448201526c1c5d5a5c995908185b5bdd5b9d609a1b606482015260840162000158565b6000348989898989898989604051620002579062000532565b6200026a989796959493929190620009bb565b6040518091039082f090508015801562000288573d6000803e3d6000fd5b5060008054600180820183558280527f290decd9548b62a8d60345a988386fc84ba6bc95484008f6362f93160ef3e56390910180546001600160a01b0319166001600160a01b038516179055805492935060ff9092169190620002eb8362000b02565b825460ff9182166101009390930a928302919092021990911617905550604051633a350bd560e11b81526001600160a01b038281166004830152602482018590526044820184905287811660648301528a919082169063746a17aa90608401600060405180830381600087803b1580156200036557600080fd5b505af11580156200037a573d6000803e3d6000fd5b505050506000816001600160a01b0316632d54131a6040518163ffffffff1660e01b8152600401602060405180830381865afa158015620003bf573d6000803e3d6000fd5b505050506040513d601f19601f82011682018060405250810190620003e5919062000b31565b90506000819050806001600160a01b0316634b6f55028d86858e8b8b6040518763ffffffff1660e01b8152600401620004249695949392919062000b58565b600060405180830381600087803b1580156200043f57600080fd5b505af115801562000454573d6000803e3d6000fd5b5050505060008a9050806001600160a01b031663c06220878e87868f8c8c6040518763ffffffff1660e01b8152600401620004959695949392919062000b58565b600060405180830381600087803b158015620004b057600080fd5b505af1158015620004c5573d6000803e3d6000fd5b505050507f8cfb345d1540d2cae0c2c3b02e8dd02f1e236234c5fbe4302c99e8a49a5aa3c4858e8c6040516200051b939291906001600160a01b0393841681529183166020830152909116604082015260600190565b60405180910390a150505050505050505050505050565b61178f8062000b9383390190565b6000602082840312156200055357600080fd5b5035919050565b6001600160a01b03811681146200057057600080fd5b50565b803562000580816200055a565b919050565b634e487b7160e01b600052604160045260246000fd5b604051610140810167ffffffffffffffff81118282101715620005c257620005c262000585565b60405290565b604051601f8201601f1916810167ffffffffffffffff81118282101715620005f457620005f462000585565b604052919050565b600082601f8301126200060e57600080fd5b813567ffffffffffffffff8111156200062b576200062b62000585565b62000640601f8201601f1916602001620005c8565b8181528460208386010111156200065657600080fd5b816020850160208301376000918101602001919091529392505050565b803560ff811681146200058057600080fd5b803580151581146200058057600080fd5b600082601f830112620006a857600080fd5b8135602067ffffffffffffffff80831115620006c857620006c862000585565b8260051b620006d9838201620005c8565b9384528581018301938381019088861115620006f457600080fd5b84880192505b858310156200073557823584811115620007145760008081fd5b620007248a87838c0101620005fc565b8352509184019190840190620006fa565b98975050505050505050565b600080600080600080600080610100808a8c0312156200076057600080fd5b89356200076d816200055a565b985060208a013567ffffffffffffffff808211156200078b57600080fd5b908b0190610140828e031215620007a157600080fd5b620007ab6200059b565b620007b68362000573565b8152620007c66020840162000573565b6020820152604083013582811115620007de57600080fd5b620007ec8f828601620005fc565b6040830152506060830135828111156200080557600080fd5b620008138f828601620005fc565b6060830152506080830135828111156200082c57600080fd5b6200083a8f828601620005fc565b60808301525060a083013560a08201526200085860c0840162000673565b60c08201526200086b60e0840162000673565b60e08201526200087d84840162000685565b84820152610120935083830135828111156200089857600080fd5b620008a68f82860162000696565b8583015250809a5050505050620008c060408a0162000573565b9550620008d060608a0162000573565b979a969950949760808101359660a0820135965060c0820135955060e0909101359350915050565b6000602082840312156200090b57600080fd5b5051919050565b6000815180845260005b818110156200093a576020818501810151868301820152016200091c565b818111156200094d576000602083870101525b50601f01601f19169290920160200192915050565b600081518084526020808501808196508360051b8101915082860160005b85811015620009ae5782840389526200099b84835162000912565b9885019893509084019060010162000980565b5091979650505050505050565b6001600160a01b0389811682526101006020830181905289519091168282015260009060208a0151610120620009fb818601836001600160a01b03169052565b60408c015161014086810152915062000a1961024086018362000912565b915060608c015160ff19808785030161016088015262000a3a848362000912565b935060808e01519150808785030161018088015262000a5a848362000912565b935060a08e01516101a088015260c08e0151915062000a7f6101c088018360ff169052565b60e08e015160ff166101e0880152938d01511515610200870152508b015184820390920161022085015262000ab5818362000962565b9250505062000acf60408301896001600160a01b03169052565b6001600160a01b03969096166060820152608081019490945260a084019290925260c083015260e0909101529392505050565b600060ff821660ff81141562000b2857634e487b7160e01b600052601160045260246000fd5b60010192915050565b60006020828403121562000b4457600080fd5b815162000b51816200055a565b9392505050565b6001600160a01b0396871681529486166020860152928516604085015293166060830152608082019290925260a081019190915260c0019056fe60806040526040516200178f3803806200178f83398101604081905262000026916200038e565b604051638dfd0b0360e01b81526004810184905273__Utils_________________________________90638dfd0b0390602401602060405180830381865af415801562000077573d6000803e3d6000fd5b505050506040513d601f19601f820116820180604052508101906200009d919062000548565b3414620001065760405162461bcd60e51b815260206004820152602d60248201527f56616c7565207472616e736665726564206e6f7420657175616c20746f20726560448201526c1c5d5a5c995908185b5bdd5b9d609a1b606482015260840160405180910390fd5b600080546001600160a01b03199081166001600160a01b039a8b161790915560a0880151600155602090970151600a80548916918a1691909117905560028054968916610100026001600160a81b0319909716969096179095556003805494909716939095169290921790945560045560059190915560065560085542600d5562000562565b6001600160a01b0381168114620001a257600080fd5b50565b8051620001b2816200018c565b919050565b634e487b7160e01b600052604160045260246000fd5b60405161014081016001600160401b0381118282101715620001f357620001f3620001b7565b60405290565b604051601f8201601f191681016001600160401b0381118282101715620002245762000224620001b7565b604052919050565b600082601f8301126200023e57600080fd5b81516001600160401b038111156200025a576200025a620001b7565b602062000270601f8301601f19168201620001f9565b82815285828487010111156200028557600080fd5b60005b83811015620002a557858101830151828201840152820162000288565b83811115620002b75760008385840101525b5095945050505050565b805160ff81168114620001b257600080fd5b80518015158114620001b257600080fd5b600082601f830112620002f657600080fd5b815160206001600160401b0380831115620003155762000315620001b7565b8260051b62000326838201620001f9565b93845285810183019383810190888611156200034157600080fd5b84880192505b858310156200038257825184811115620003615760008081fd5b620003718a87838c01016200022c565b835250918401919084019062000347565b98975050505050505050565b600080600080600080600080610100808a8c031215620003ad57600080fd5b8951620003ba816200018c565b60208b01519099506001600160401b0380821115620003d857600080fd5b908b0190610140828e031215620003ee57600080fd5b620003f8620001cd565b6200040383620001a5565b81526200041360208401620001a5565b60208201526040830151828111156200042b57600080fd5b620004398f8286016200022c565b6040830152506060830151828111156200045257600080fd5b620004608f8286016200022c565b6060830152506080830151828111156200047957600080fd5b620004878f8286016200022c565b60808301525060a083015160a0820152620004a560c08401620002c1565b60c0820152620004b860e08401620002c1565b60e0820152620004ca848401620002d3565b8482015261012093508383015182811115620004e557600080fd5b620004f38f828601620002e4565b8583015250809a50505050506200050d60408a01620001a5565b95506200051d60608a01620001a5565b94506080890151935060a0890151925060c0890151915060e089015190509295985092959890939650565b6000602082840312156200055b57600080fd5b5051919050565b61121d80620005726000396000f3fe60806040526004361061019c5760003560e01c80638f84aa09116100ec578063c3efc7341161008a578063e110930511610064578063e110930514610409578063e1439c6b1461041f578063eb144c1d1461043d578063efbe1c1c1461045357600080fd5b8063c3efc734146103d3578063c803b303146103eb578063cbfbb5a31461040157600080fd5b80639b306fdc116100c65780639b306fdc146103745780639e6aadc314610387578063b4f12ae7146103a7578063be9a6555146103bd57600080fd5b80638f84aa091461031e57806395afe3981461033e57806398c720121461035457600080fd5b80635d02789c1161015957806373ef94f91161013357806373ef94f9146102bd5780637b1aa45f146102d35780637c6fadcd146102e95780638d76f940146102fe57600080fd5b80635d02789c146102575780636922fb891461026d5780636f9fb98a146102aa57600080fd5b8063022576f0146101a157806331d019b7146101b65780634c94ffcb146101e65780634f4687ea1461020a578063558bd2e014610220578063559ec80d14610242575b600080fd5b6101b46101af366004610f02565b610469565b005b3480156101c257600080fd5b506002546101d09060ff1681565b6040516101dd9190610f31565b60405180910390f35b3480156101f257600080fd5b506101fc600f5481565b6040519081526020016101dd565b34801561021657600080fd5b506101fc60085481565b34801561022c57600080fd5b506102356106b6565b6040516101dd9190610f59565b34801561024e57600080fd5b506101b4610744565b34801561026357600080fd5b506101fc60115481565b34801561027957600080fd5b506002546102929061010090046001600160a01b031681565b6040516001600160a01b0390911681526020016101dd565b3480156102b657600080fd5b50476101fc565b3480156102c957600080fd5b506101fc60095481565b3480156102df57600080fd5b506101fc600b5481565b3480156102f557600080fd5b506102356109ae565b34801561030a57600080fd5b50600054610292906001600160a01b031681565b34801561032a57600080fd5b50600a54610292906001600160a01b031681565b34801561034a57600080fd5b506101fc60045481565b34801561036057600080fd5b506101b461036f366004611051565b6109bb565b6101b461038236600461108e565b610af9565b34801561039357600080fd5b50600354610292906001600160a01b031681565b3480156103b357600080fd5b506101fc60105481565b3480156103c957600080fd5b506101fc60055481565b3480156103df57600080fd5b5060025460ff166101d0565b3480156103f757600080fd5b506101fc600e5481565b6101b4610c9e565b34801561041557600080fd5b506101fc60015481565b34801561042b57600080fd5b506003546001600160a01b0316610292565b34801561044957600080fd5b506101fc600d5481565b34801561045f57600080fd5b506101fc60065481565b6003546001600160a01b031633146104c85760405162461bcd60e51b815260206004820152601e60248201527f4d6574686f64206973207265737472696374656420746f2052656e746572000060448201526064015b60405180910390fd5b604051638dfd0b0360e01b81526004810182905273__Utils_________________________________90638dfd0b0390602401602060405180830381865af4158015610518573d6000803e3d6000fd5b505050506040513d601f19601f8201168201806040525081019061053c91906110d3565b341461055a5760405162461bcd60e51b81526004016104bf906110ec565b600854604051638dfd0b0360e01b8152600481019190915273__Utils_________________________________90638dfd0b0390602401602060405180830381865af41580156105ae573d6000803e3d6000fd5b505050506040513d601f19601f820116820180604052508101906105d291906110d3565b34101561062f5760405162461bcd60e51b815260206004820152602560248201527f52656e74616c2070616964206c657373207468616e20726571756972656420616044820152641b5bdd5b9d60da1b60648201526084016104bf565b600160025460ff16600381111561064857610648610f1b565b146106955760405162461bcd60e51b815260206004820181905260248201527f496e76616c69642072656e74616c2073746174757320666f72206d6574686f6460448201526064016104bf565b42600f8190555080600960008282546106ae9190611139565b909155505050565b600780546106c39061115f565b80601f01602080910402602001604051908101604052809291908181526020018280546106ef9061115f565b801561073c5780601f106107115761010080835404028352916020019161073c565b820191906000526020600020905b81548152906001019060200180831161071f57829003601f168201915b505050505081565b600a546001600160a01b0316331461076e5760405162461bcd60e51b81526004016104bf9061119a565b6002805460ff16600381111561078657610786610f1b565b148015610797575060085460095410155b6107fe5760405162461bcd60e51b815260206004820152603260248201527f556e61626c6520746f20636c61696d207061796d656e7420776974682063757260448201527172656e742072656e74616c2073746174757360701b60648201526084016104bf565b6000600b54118061081157506000600454115b61085d5760405162461bcd60e51b815260206004820152601d60248201527f4e6f2072656d61696e696e67206465706f73697420746f20636c61696d00000060448201526064016104bf565b60035460048054604051638dfd0b0360e01b8152918201526001600160a01b03909116906108fc9073__Utils_________________________________90638dfd0b0390602401602060405180830381865af41580156108c1573d6000803e3d6000fd5b505050506040513d601f19601f820116820180604052508101906108e591906110d3565b6040518115909202916000818181858888f1935050505015801561090d573d6000803e3d6000fd5b50600a546040516001600160a01b03909116904780156108fc02916000818181858888f19350505050158015610947573d6000803e3d6000fd5b504715610956576109566111d1565b6002805460ff1916600317905542601155600054604080516001600160a01b0390921682523060208301527f6a5d55ef84f2d6da57cc86de121fc1c7a8392770ff8f357998e87beb5c310491910160405180910390a1565b600c80546106c39061115f565b6003546001600160a01b03163314610a155760405162461bcd60e51b815260206004820152601e60248201527f4d6574686f64206973207265737472696374656420746f2052656e746572000060448201526064016104bf565b6008546009541015610a7e5760405162461bcd60e51b815260206004820152602c60248201527f52656e74616c2066656573206861766520746f2062652070616964206265666f60448201526b72652072657475726e696e6760a01b60648201526084016104bf565b8051610a91906007906020840190610e69565b506002805460ff19168117905542601055600054600354600a54604080516001600160a01b039485168152928416602084015292168183015290517f2b7164dceeb2fccf197390bacb5fa0bceed217160220dd6b0e32124ab71fe8e09181900360600190a150565b600a546001600160a01b03163314610b235760405162461bcd60e51b81526004016104bf9061119a565b604051638dfd0b0360e01b81526004810182905273__Utils_________________________________90638dfd0b0390602401602060405180830381865af4158015610b73573d6000803e3d6000fd5b505050506040513d601f19601f82011682018060405250810190610b9791906110d3565b3414610bb55760405162461bcd60e51b81526004016104bf906110ec565b600060025460ff166003811115610bce57610bce610f1b565b14610c1b5760405162461bcd60e51b815260206004820181905260248201527f496e76616c69642072656e74616c2073746174757320666f72206d6574686f6460448201526064016104bf565b600b8190558151610c3390600c906020850190610e69565b506002805460ff1916600117905542600e55600054600354600a54604080516001600160a01b039485168152928416602084015292168183015290517fbee4505063610f2c2522d8c40dc9c857aeceb46a2fcecc7051c9d28a42312e23916060908290030190a15050565b600a546001600160a01b03163314610cc85760405162461bcd60e51b81526004016104bf9061119a565b600160025460ff166003811115610ce157610ce1610f1b565b14610d495760405162461bcd60e51b815260206004820152603260248201527f556e61626c6520746f20736574746c652072656e74616c20776974682063757260448201527172656e742072656e74616c2073746174757360701b60648201526084016104bf565b6000546040516001620b258d60e21b03198152600260048201526001600160a01b0390911690819063ffd369cc90602401600060405180830381600087803b158015610d9457600080fd5b505af1158015610da8573d6000803e3d6000fd5b5050600a546040516001600160a01b0390911692504780156108fc029250906000818181858888f19350505050158015610de6573d6000803e3d6000fd5b506000600260019054906101000a90046001600160a01b03169050806001600160a01b031663922b57fa6040518163ffffffff1660e01b8152600401600060405180830381600087803b158015610e3c57600080fd5b505af1158015610e50573d6000803e3d6000fd5b50506002805460ff191660031790555050426011555050565b828054610e759061115f565b90600052602060002090601f016020900481019282610e975760008555610edd565b82601f10610eb057805160ff1916838001178555610edd565b82800160010185558215610edd579182015b82811115610edd578251825591602001919060010190610ec2565b50610ee9929150610eed565b5090565b5b80821115610ee95760008155600101610eee565b600060208284031215610f1457600080fd5b5035919050565b634e487b7160e01b600052602160045260246000fd5b6020810160048310610f5357634e487b7160e01b600052602160045260246000fd5b91905290565b600060208083528351808285015260005b81811015610f8657858101830151858201604001528201610f6a565b81811115610f98576000604083870101525b50601f01601f1916929092016040019392505050565b634e487b7160e01b600052604160045260246000fd5b600082601f830112610fd557600080fd5b813567ffffffffffffffff80821115610ff057610ff0610fae565b604051601f8301601f19908116603f0116810190828211818310171561101857611018610fae565b8160405283815286602085880101111561103157600080fd5b836020870160208301376000602085830101528094505050505092915050565b60006020828403121561106357600080fd5b813567ffffffffffffffff81111561107a57600080fd5b61108684828501610fc4565b949350505050565b600080604083850312156110a157600080fd5b823567ffffffffffffffff8111156110b857600080fd5b6110c485828601610fc4565b95602094909401359450505050565b6000602082840312156110e557600080fd5b5051919050565b6020808252602d908201527f56616c7565207472616e736665726564206e6f7420657175616c20746f20726560408201526c1c5d5a5c995908185b5bdd5b9d609a1b606082015260800190565b6000821982111561115a57634e487b7160e01b600052601160045260246000fd5b500190565b600181811c9082168061117357607f821691505b6020821081141561119457634e487b7160e01b600052602260045260246000fd5b50919050565b6020808252601d908201527f4d6574686f64206973207265737472696374656420746f204f776e6572000000604082015260600190565b634e487b7160e01b600052600160045260246000fdfea2646970667358221220a3ba8d8cdac05aeb60704c3241de535eb1b1ee260d71eb526369d0479eddaeaa64736f6c634300080b0033a2646970667358221220fbb5b957c905a3443ddf0ce109074982351bfa1428fd0ae3ba699e3b90b532f364736f6c634300080b0033",
  "immutableReferences": {},
  "source": "// SPDX-License-Identifier: GPL-3.0\n\npragma solidity >=0.7.0 <0.9.0;\n\nimport \"../Rental.sol\";\nimport \"../Item.sol\";\nimport \"../User.sol\";\nimport \"../helpers/Structs.sol\";\nimport \"../helpers/Utils.sol\";\n\ncontract RentalContractCreator {\n    using Utils for *;\n\n    address[] public rentalContracts;\n    uint8 public rentalContractCount;\n\n    event rentalContractCreated(\n        address rentalContract,\n        address itemContract,\n        address renterAddress\n    );\n\n    function createRentalContract(\n        address _itemContract,\n        Structs.ItemDetails memory _itemDetails,\n        address _renterUserContract,\n        address payable _renterAddress,\n        uint256 _rentalFees,\n        uint256 _renterDeposit,\n        uint256 _start,\n        uint256 _end\n    ) public payable {\n        require(\n            msg.sender == _renterAddress,\n            \"Renter address does not match msg.sender\"\n        );\n        require(\n            msg.value == Utils.gweiToWei(_renterDeposit),\n            \"Value transfered is not equal required amount\"\n        );\n\n        Rental newRentalContract = (new Rental){value: msg.value}(\n            _itemContract,\n            _itemDetails,\n            _renterUserContract,\n            _renterAddress,\n            _rentalFees,\n            _renterDeposit,\n            _start,\n            _end\n        );\n\n        rentalContracts.push(address(newRentalContract));\n        rentalContractCount++;\n\n        Item item = Item(_itemContract);\n        item.handleNewRental(\n            address(newRentalContract),\n            _start,\n            _end,\n            _renterAddress\n        );\n\n        address ownerUserContract = item.getOwnerUserContract();\n        User owner = User(ownerUserContract);\n        owner.addNewLending(\n            _itemContract,\n            address(newRentalContract),\n            ownerUserContract,\n            _renterUserContract,\n            _start,\n            _end\n        );\n\n        User renter = User(_renterUserContract);\n        renter.addNewBorrowing(\n            _itemContract,\n            address(newRentalContract),\n            ownerUserContract,\n            _renterUserContract,\n            _start,\n            _end\n        );\n\n        emit rentalContractCreated(\n            address(newRentalContract),\n            _itemContract,\n            _renterAddress\n        );\n    }\n}\n",
  "sourcePath": "/Users/jyuteo/CodeProjects/TRent/smart-contracts/src/contracts/factory/RentalContractCreator.sol",
  "compiler": {
    "name": "solc",
    "version": "0.8.11+commit.d7f03943.Emscripten.clang"
  },
  "schemaVersion": "3.4.3",
  "updatedAt": "2022-02-04T02:46:02.877Z",
  "networkType": "ethereum",
  "devdoc": {
    "kind": "dev",
    "methods": {},
    "version": 1
  },
  "userdoc": {
    "kind": "user",
    "methods": {},
    "version": 1
  }
}