{
  "contractName": "Rental",
  "abi": [
    {
      "inputs": [
        {
          "internalType": "address",
          "name": "_itemContract",
          "type": "address"
        },
        {
          "components": [
            {
              "internalType": "address",
              "name": "ownerUserContract",
              "type": "address"
            },
            {
              "internalType": "address payable",
              "name": "ownerAddress",
              "type": "address"
            },
            {
              "internalType": "string",
              "name": "name",
              "type": "string"
            },
            {
              "internalType": "string",
              "name": "collectionOrReturnAddress",
              "type": "string"
            },
            {
              "internalType": "string",
              "name": "description",
              "type": "string"
            },
            {
              "internalType": "uint256",
              "name": "rentPerDay",
              "type": "uint256"
            },
            {
              "internalType": "uint8",
              "name": "maxAllowableLateDays",
              "type": "uint8"
            },
            {
              "internalType": "uint8",
              "name": "multipleForLateFees",
              "type": "uint8"
            },
            {
              "internalType": "bool",
              "name": "isAvailableForRent",
              "type": "bool"
            },
            {
              "internalType": "string[]",
              "name": "mediaIPFSHashes",
              "type": "string[]"
            }
          ],
          "internalType": "struct Structs.ItemDetails",
          "name": "_itemDetails",
          "type": "tuple"
        },
        {
          "internalType": "address",
          "name": "_renterUserContract",
          "type": "address"
        },
        {
          "internalType": "address payable",
          "name": "_renterAddress",
          "type": "address"
        },
        {
          "internalType": "uint256",
          "name": "_rentalFees",
          "type": "uint256"
        },
        {
          "internalType": "uint256",
          "name": "_renterDeposit",
          "type": "uint256"
        },
        {
          "internalType": "uint256",
          "name": "_start",
          "type": "uint256"
        },
        {
          "internalType": "uint256",
          "name": "_end",
          "type": "uint256"
        },
        {
          "internalType": "uint8",
          "name": "_numInstallment",
          "type": "uint8"
        }
      ],
      "stateMutability": "payable",
      "type": "constructor"
    },
    {
      "anonymous": false,
      "inputs": [
        {
          "indexed": false,
          "internalType": "address",
          "name": "itemContract",
          "type": "address"
        },
        {
          "indexed": false,
          "internalType": "address",
          "name": "renterAddress",
          "type": "address"
        },
        {
          "indexed": false,
          "internalType": "address",
          "name": "ownerAddress",
          "type": "address"
        },
        {
          "indexed": false,
          "internalType": "uint256",
          "name": "ownerDepositInGwei",
          "type": "uint256"
        },
        {
          "indexed": false,
          "internalType": "enum Rental.RentalStatus",
          "name": "rentalStatus",
          "type": "uint8"
        }
      ],
      "name": "itemRented",
      "type": "event"
    },
    {
      "anonymous": false,
      "inputs": [
        {
          "indexed": false,
          "internalType": "address",
          "name": "itemContract",
          "type": "address"
        },
        {
          "indexed": false,
          "internalType": "address",
          "name": "renterAddress",
          "type": "address"
        },
        {
          "indexed": false,
          "internalType": "address",
          "name": "ownerAddress",
          "type": "address"
        },
        {
          "indexed": false,
          "internalType": "enum Rental.RentalStatus",
          "name": "rentalStatus",
          "type": "uint8"
        }
      ],
      "name": "itemReturned",
      "type": "event"
    },
    {
      "anonymous": false,
      "inputs": [
        {
          "indexed": false,
          "internalType": "address",
          "name": "itemContract",
          "type": "address"
        },
        {
          "indexed": false,
          "internalType": "address",
          "name": "rentalContract",
          "type": "address"
        },
        {
          "indexed": false,
          "internalType": "address",
          "name": "renterUserContract",
          "type": "address"
        },
        {
          "indexed": false,
          "internalType": "uint256",
          "name": "lateFeesInGwei",
          "type": "uint256"
        }
      ],
      "name": "lateFeesPaid",
      "type": "event"
    },
    {
      "anonymous": false,
      "inputs": [
        {
          "indexed": false,
          "internalType": "address",
          "name": "itemContract",
          "type": "address"
        },
        {
          "indexed": false,
          "internalType": "address",
          "name": "rentalContract",
          "type": "address"
        }
      ],
      "name": "rentalEnded",
      "type": "event"
    },
    {
      "inputs": [],
      "name": "claimableRentalFees",
      "outputs": [
        {
          "internalType": "uint256",
          "name": "",
          "type": "uint256"
        }
      ],
      "stateMutability": "view",
      "type": "function"
    },
    {
      "inputs": [],
      "name": "claimedRentalFees",
      "outputs": [
        {
          "internalType": "uint256",
          "name": "",
          "type": "uint256"
        }
      ],
      "stateMutability": "view",
      "type": "function"
    },
    {
      "inputs": [],
      "name": "disputeCount",
      "outputs": [
        {
          "internalType": "uint8",
          "name": "",
          "type": "uint8"
        }
      ],
      "stateMutability": "view",
      "type": "function"
    },
    {
      "inputs": [],
      "name": "disputePeriod",
      "outputs": [
        {
          "internalType": "uint8",
          "name": "",
          "type": "uint8"
        }
      ],
      "stateMutability": "view",
      "type": "function"
    },
    {
      "inputs": [
        {
          "internalType": "uint8",
          "name": "",
          "type": "uint8"
        }
      ],
      "name": "disputes",
      "outputs": [
        {
          "internalType": "string",
          "name": "title",
          "type": "string"
        },
        {
          "internalType": "string",
          "name": "description",
          "type": "string"
        },
        {
          "internalType": "uint256",
          "name": "compensationAmount",
          "type": "uint256"
        },
        {
          "internalType": "uint256",
          "name": "totalIncentive",
          "type": "uint256"
        },
        {
          "internalType": "uint256",
          "name": "startTime",
          "type": "uint256"
        },
        {
          "internalType": "uint256",
          "name": "approvalCount",
          "type": "uint256"
        },
        {
          "internalType": "uint256",
          "name": "rejectionCount",
          "type": "uint256"
        },
        {
          "internalType": "address payable",
          "name": "creator",
          "type": "address"
        },
        {
          "internalType": "enum Rental.DisputeType",
          "name": "disputeType",
          "type": "uint8"
        }
      ],
      "stateMutability": "view",
      "type": "function"
    },
    {
      "inputs": [],
      "name": "end",
      "outputs": [
        {
          "internalType": "uint256",
          "name": "",
          "type": "uint256"
        }
      ],
      "stateMutability": "view",
      "type": "function"
    },
    {
      "inputs": [],
      "name": "itemContract",
      "outputs": [
        {
          "internalType": "address",
          "name": "",
          "type": "address"
        }
      ],
      "stateMutability": "view",
      "type": "function"
    },
    {
      "inputs": [],
      "name": "maxAllowableLateDays",
      "outputs": [
        {
          "internalType": "uint8",
          "name": "",
          "type": "uint8"
        }
      ],
      "stateMutability": "view",
      "type": "function"
    },
    {
      "inputs": [],
      "name": "multipleForLateFees",
      "outputs": [
        {
          "internalType": "uint8",
          "name": "",
          "type": "uint8"
        }
      ],
      "stateMutability": "view",
      "type": "function"
    },
    {
      "inputs": [],
      "name": "numInstallment",
      "outputs": [
        {
          "internalType": "uint8",
          "name": "",
          "type": "uint8"
        }
      ],
      "stateMutability": "view",
      "type": "function"
    },
    {
      "inputs": [],
      "name": "ownerAddress",
      "outputs": [
        {
          "internalType": "address payable",
          "name": "",
          "type": "address"
        }
      ],
      "stateMutability": "view",
      "type": "function"
    },
    {
      "inputs": [],
      "name": "ownerDeposit",
      "outputs": [
        {
          "internalType": "uint256",
          "name": "",
          "type": "uint256"
        }
      ],
      "stateMutability": "view",
      "type": "function"
    },
    {
      "inputs": [
        {
          "internalType": "uint256",
          "name": "",
          "type": "uint256"
        }
      ],
      "name": "ownerProofOfTransfer",
      "outputs": [
        {
          "internalType": "string",
          "name": "",
          "type": "string"
        }
      ],
      "stateMutability": "view",
      "type": "function"
    },
    {
      "inputs": [],
      "name": "paidRentalFees",
      "outputs": [
        {
          "internalType": "uint256",
          "name": "",
          "type": "uint256"
        }
      ],
      "stateMutability": "view",
      "type": "function"
    },
    {
      "inputs": [],
      "name": "remainingNumInstallment",
      "outputs": [
        {
          "internalType": "uint8",
          "name": "",
          "type": "uint8"
        }
      ],
      "stateMutability": "view",
      "type": "function"
    },
    {
      "inputs": [],
      "name": "remainingRentalFees",
      "outputs": [
        {
          "internalType": "uint256",
          "name": "",
          "type": "uint256"
        }
      ],
      "stateMutability": "view",
      "type": "function"
    },
    {
      "inputs": [],
      "name": "rentPerDay",
      "outputs": [
        {
          "internalType": "uint256",
          "name": "",
          "type": "uint256"
        }
      ],
      "stateMutability": "view",
      "type": "function"
    },
    {
      "inputs": [],
      "name": "rentalFees",
      "outputs": [
        {
          "internalType": "uint256",
          "name": "",
          "type": "uint256"
        }
      ],
      "stateMutability": "view",
      "type": "function"
    },
    {
      "inputs": [],
      "name": "rentalStatus",
      "outputs": [
        {
          "internalType": "enum Rental.RentalStatus",
          "name": "",
          "type": "uint8"
        }
      ],
      "stateMutability": "view",
      "type": "function"
    },
    {
      "inputs": [],
      "name": "renterAddress",
      "outputs": [
        {
          "internalType": "address payable",
          "name": "",
          "type": "address"
        }
      ],
      "stateMutability": "view",
      "type": "function"
    },
    {
      "inputs": [],
      "name": "renterDeposit",
      "outputs": [
        {
          "internalType": "uint256",
          "name": "",
          "type": "uint256"
        }
      ],
      "stateMutability": "view",
      "type": "function"
    },
    {
      "inputs": [
        {
          "internalType": "uint256",
          "name": "",
          "type": "uint256"
        }
      ],
      "name": "renterProofOfReturn",
      "outputs": [
        {
          "internalType": "string",
          "name": "",
          "type": "string"
        }
      ],
      "stateMutability": "view",
      "type": "function"
    },
    {
      "inputs": [],
      "name": "renterUserContract",
      "outputs": [
        {
          "internalType": "address",
          "name": "",
          "type": "address"
        }
      ],
      "stateMutability": "view",
      "type": "function"
    },
    {
      "inputs": [],
      "name": "start",
      "outputs": [
        {
          "internalType": "uint256",
          "name": "",
          "type": "uint256"
        }
      ],
      "stateMutability": "view",
      "type": "function"
    },
    {
      "inputs": [],
      "name": "getRenterAddress",
      "outputs": [
        {
          "internalType": "address",
          "name": "",
          "type": "address"
        }
      ],
      "stateMutability": "view",
      "type": "function"
    },
    {
      "inputs": [
        {
          "internalType": "string[]",
          "name": "_ownerProofOfTransfer",
          "type": "string[]"
        },
        {
          "internalType": "uint256",
          "name": "_ownerDeposit",
          "type": "uint256"
        }
      ],
      "name": "uploadOwnerProofOfTransferAndPayDeposit",
      "outputs": [],
      "stateMutability": "payable",
      "type": "function"
    },
    {
      "inputs": [
        {
          "internalType": "string[]",
          "name": "_renterProofOfReturn",
          "type": "string[]"
        }
      ],
      "name": "uploadRenterProofOfReturn",
      "outputs": [],
      "stateMutability": "nonpayable",
      "type": "function"
    },
    {
      "inputs": [
        {
          "internalType": "uint256",
          "name": "_amount",
          "type": "uint256"
        }
      ],
      "name": "payRentalInstallment",
      "outputs": [],
      "stateMutability": "payable",
      "type": "function"
    },
    {
      "inputs": [],
      "name": "claimRentalFees",
      "outputs": [],
      "stateMutability": "nonpayable",
      "type": "function"
    },
    {
      "inputs": [],
      "name": "settleDeposit",
      "outputs": [],
      "stateMutability": "nonpayable",
      "type": "function"
    },
    {
      "inputs": [
        {
          "internalType": "uint256",
          "name": "_lateFees",
          "type": "uint256"
        }
      ],
      "name": "payLateFees",
      "outputs": [],
      "stateMutability": "payable",
      "type": "function"
    },
    {
      "inputs": [
        {
          "internalType": "address",
          "name": "_userAddress",
          "type": "address"
        }
      ],
      "name": "setUserAsDishonest",
      "outputs": [],
      "stateMutability": "nonpayable",
      "type": "function"
    },
    {
      "inputs": [],
      "name": "settleRentalAfterFiveLateDays",
      "outputs": [],
      "stateMutability": "payable",
      "type": "function"
    },
    {
      "inputs": [
        {
          "internalType": "string",
          "name": "_title",
          "type": "string"
        },
        {
          "internalType": "string",
          "name": "_description",
          "type": "string"
        },
        {
          "internalType": "string[]",
          "name": "_mediaIPFSHashes",
          "type": "string[]"
        },
        {
          "internalType": "uint256",
          "name": "_compensationAmount",
          "type": "uint256"
        },
        {
          "internalType": "uint256",
          "name": "_totalIncentive",
          "type": "uint256"
        },
        {
          "internalType": "enum Rental.DisputeType",
          "name": "_disputeType",
          "type": "uint8"
        }
      ],
      "name": "createOwnerDispute",
      "outputs": [],
      "stateMutability": "payable",
      "type": "function"
    },
    {
      "inputs": [
        {
          "internalType": "string",
          "name": "_title",
          "type": "string"
        },
        {
          "internalType": "string",
          "name": "_description",
          "type": "string"
        },
        {
          "internalType": "string[]",
          "name": "_mediaIPFSHashes",
          "type": "string[]"
        },
        {
          "internalType": "uint256",
          "name": "_compensationAmount",
          "type": "uint256"
        },
        {
          "internalType": "uint256",
          "name": "_totalIncentive",
          "type": "uint256"
        },
        {
          "internalType": "enum Rental.DisputeType",
          "name": "_disputeType",
          "type": "uint8"
        }
      ],
      "name": "createRenterDispute",
      "outputs": [],
      "stateMutability": "payable",
      "type": "function"
    },
    {
      "inputs": [
        {
          "internalType": "uint8",
          "name": "_disputeIndex",
          "type": "uint8"
        }
      ],
      "name": "approveDispute",
      "outputs": [],
      "stateMutability": "nonpayable",
      "type": "function"
    },
    {
      "inputs": [
        {
          "internalType": "uint8",
          "name": "_disputeIndex",
          "type": "uint8"
        }
      ],
      "name": "rejectDispute",
      "outputs": [],
      "stateMutability": "nonpayable",
      "type": "function"
    },
    {
      "inputs": [
        {
          "internalType": "uint8",
          "name": "_disputeIndex",
          "type": "uint8"
        }
      ],
      "name": "resolveDispute",
      "outputs": [],
      "stateMutability": "payable",
      "type": "function"
    }
  ],
  "bytecode": "0x608060408190526012805461ff00191661030017905562003d673881900390819083398101604081905262000034916200034d565b600180546001600160a01b03808c166001600160a01b03199092169190911790915560a089015160025560c08901516003805460e08c015160ff9081166101000261ffff199092169316929092179190911780825560208b0151600e8054919094166201000090810262010000600160b01b03199092169190911790935560009262ff00001990911690830217905550600480546001600160a01b039889166001600160a01b031990911617905560038054969097166301000000026301000000600160b81b0319909616959095179095556005919091556006556007929092556009829055600e805460ff909216610100810261ffff1990931617919091179055600b5550506000600a819055600d556200051a565b6001600160a01b03811681146200016157600080fd5b50565b805162000171816200014b565b919050565b634e487b7160e01b600052604160045260246000fd5b60405161014081016001600160401b0381118282101715620001b257620001b262000176565b60405290565b604051601f8201601f191681016001600160401b0381118282101715620001e357620001e362000176565b604052919050565b600082601f830112620001fd57600080fd5b81516001600160401b0381111562000219576200021962000176565b60206200022f601f8301601f19168201620001b8565b82815285828487010111156200024457600080fd5b60005b838110156200026457858101830151828201840152820162000247565b83811115620002765760008385840101525b5095945050505050565b805160ff811681146200017157600080fd5b805180151581146200017157600080fd5b600082601f830112620002b557600080fd5b815160206001600160401b0380831115620002d457620002d462000176565b8260051b620002e5838201620001b8565b93845285810183019383810190888611156200030057600080fd5b84880192505b858310156200034157825184811115620003205760008081fd5b620003308a87838c0101620001eb565b835250918401919084019062000306565b98975050505050505050565b60008060008060008060008060006101208a8c0312156200036d57600080fd5b89516200037a816200014b565b60208b01519099506001600160401b03808211156200039857600080fd5b908b0190610140828e031215620003ae57600080fd5b620003b86200018c565b620003c38362000164565b8152620003d36020840162000164565b6020820152604083015182811115620003eb57600080fd5b620003f98f828601620001eb565b6040830152506060830151828111156200041257600080fd5b620004208f828601620001eb565b6060830152506080830151828111156200043957600080fd5b620004478f828601620001eb565b60808301525060a083015160a08201526200046560c0840162000280565b60c08201526200047860e0840162000280565b60e08201526200048c610100840162000292565b61010082015261012083015182811115620004a657600080fd5b620004b48f828601620002a3565b610120830152509950620004ce91505060408b0162000164565b9650620004de60608b0162000164565b955060808a0151945060a08a0151935060c08a0151925060e08a015191506200050b6101008b0162000280565b90509295985092959850929598565b61383d806200052a6000396000f3fe6080604052600436106102255760003560e01c806395afe39811610123578063be9a6555116100ab578063e1439c6b1161006f578063e1439c6b146105f8578063efbe1c1c1461061d578063f030486014610633578063fe55029d14610649578063ff3522cf1461065f57600080fd5b8063be9a655514610590578063c7abd092146105a6578063cbfbb5a3146105bb578063d46c9fc7146105c3578063e1109305146105e257600080fd5b8063a2d1d11c116100f2578063a2d1d11c14610515578063a49f74b51461052b578063a6bc22011461053e578063a8237b871461055d578063baa75f391461057d57600080fd5b806395afe3981461049e5780639c29a3ed146104b45780639e6aadc3146104d4578063a28889e1146104fb57600080fd5b80635bf31d4d116101b157806385411c8e1161017557806385411c8e14610404578063881f227c146104175780638b3a16a21461042a5780638d76f940146104405780638f84aa091461047857600080fd5b80635bf31d4d1461035b578063676b96831461038c5780636b84c492146103a657806378cbf3f8146103b95780637b1aa45f146103ee57600080fd5b806331d019b7116101f857806331d019b7146102c25780633d99b56a146102ef5780633fe8351a1461030f5780634f4687ea14610322578063559ec80d1461034657600080fd5b8063034cc2a01461022a57806307e353e91461024c5780630f5bd7a2146102825780631334c101146102a2575b600080fd5b34801561023657600080fd5b5061024a61024536600461300d565b610679565b005b34801561025857600080fd5b5061026c610267366004613037565b6107c5565b604051610279919061309d565b60405180910390f35b34801561028e57600080fd5b5061024a61029d36600461300d565b610871565b3480156102ae57600080fd5b5061024a6102bd3660046130b0565b6109aa565b3480156102ce57600080fd5b506003546102e29062010000900460ff1681565b6040516102799190613103565b3480156102fb57600080fd5b5061026c61030a366004613037565b610a94565b61024a61031d366004613037565b610aa4565b34801561032e57600080fd5b5061033860095481565b604051908152602001610279565b34801561035257600080fd5b5061024a610d80565b34801561036757600080fd5b5060125461037a90610100900460ff1681565b60405160ff9091168152602001610279565b34801561039857600080fd5b50600e5461037a9060ff1681565b61024a6103b4366004613267565b6115ce565b3480156103c557600080fd5b506103d96103d436600461300d565b6118b7565b6040516102799998979695949392919061331a565b3480156103fa57600080fd5b50610338600f5481565b61024a610412366004613396565b611a1f565b61024a61042536600461300d565b611c2e565b34801561043657600080fd5b50610338600d5481565b34801561044c57600080fd5b50600154610460906001600160a01b031681565b6040516001600160a01b039091168152602001610279565b34801561048457600080fd5b50600e54610460906201000090046001600160a01b031681565b3480156104aa57600080fd5b5061033860055481565b3480156104c057600080fd5b5061024a6104cf3660046133db565b612334565b3480156104e057600080fd5b5060035461046090630100000090046001600160a01b031681565b34801561050757600080fd5b5060125461037a9060ff1681565b34801561052157600080fd5b50610338600a5481565b61024a610539366004613267565b612449565b34801561054a57600080fd5b5060035461037a90610100900460ff1681565b34801561056957600080fd5b50600454610460906001600160a01b031681565b61024a61058b366004613037565b61272b565b34801561059c57600080fd5b5061033860065481565b3480156105b257600080fd5b5061024a612931565b61024a612c6b565b3480156105cf57600080fd5b50600e5461037a90610100900460ff1681565b3480156105ee57600080fd5b5061033860025481565b34801561060457600080fd5b50600354630100000090046001600160a01b0316610460565b34801561062957600080fd5b5061033860075481565b34801561063f57600080fd5b50610338600c5481565b34801561065557600080fd5b50610338600b5481565b34801561066b57600080fd5b5060035461037a9060ff1681565b60ff81166000908152601160205260409020600e546201000090046001600160a01b03163314156106c55760405162461bcd60e51b81526004016106bc90613418565b60405180910390fd5b600354630100000090046001600160a01b03163314156106f75760405162461bcd60e51b81526004016106bc90613462565b33600090815260088201602052604090205460ff16156107295760405162461bcd60e51b81526004016106bc906134ad565b336000908152600b8201602052604090205460ff161561075b5760405162461bcd60e51b81526004016106bc906134ad565b60ff821660009081526011602090815260408083206009810180548552600a8201845282852080546001600160a01b031916339081179091558552600b8201909352908320805460ff19166001179055815490929091906107bb8361350a565b9190505550505050565b600881815481106107d557600080fd5b9060005260206000200160009150905080546107f090613525565b80601f016020809104026020016040519081016040528092919081815260200182805461081c90613525565b80156108695780601f1061083e57610100808354040283529160200191610869565b820191906000526020600020905b81548152906001019060200180831161084c57829003601f168201915b505050505081565b60ff81166000908152601160205260409020600e546201000090046001600160a01b03163314156108b45760405162461bcd60e51b81526004016106bc90613418565b600354630100000090046001600160a01b03163314156108e65760405162461bcd60e51b81526004016106bc90613462565b33600090815260088201602052604090205460ff16156109185760405162461bcd60e51b81526004016106bc906134ad565b336000908152600b8201602052604090205460ff161561094a5760405162461bcd60e51b81526004016106bc906134ad565b60ff82166000908152601160209081526040808320600681018054855260078201845282852080546001600160a01b03191633908117909155855260088201909352908320805460ff19166001179055815490929091906107bb8361350a565b6003546001600160a01b0382811663010000009092041614806109e05750600e546001600160a01b038281166201000090920416145b610a385760405162461bcd60e51b815260206004820152602360248201527f496e76616c6964207573657220746f2062652073657420617320646973686f6e604482015262195cdd60ea1b60648201526084016106bc565b6000819050806001600160a01b031663922b57fa6040518163ffffffff1660e01b8152600401600060405180830381600087803b158015610a7857600080fd5b505af1158015610a8c573d6000803e3d6000fd5b505050505050565b601081815481106107d557600080fd5b600354630100000090046001600160a01b03163314610ad55760405162461bcd60e51b81526004016106bc90613560565b6007544211610b3d5760405162461bcd60e51b815260206004820152602e60248201527f556e61626c6520746f20706179206c6174652066656573206265666f7265207260448201526d656e74616c20656e64206461746560901b60648201526084016106bc565b60035460005460075460405163252c50a560e11b8152600481019190915242602482015260ff909216916001600160a01b0390911690634a58a14a9060440160206040518083038186803b158015610b9457600080fd5b505afa158015610ba8573d6000803e3d6000fd5b505050506040513d601f19601f82011682018060405250810190610bcc9190613597565b1115610c405760405162461bcd60e51b815260206004820152603e60248201527f556e61626c6520746f20706179206c6174652066656573206c6174657220746860448201527f616e206d6178696d756d20616c6c6f7761626c65206c6174652064617973000060648201526084016106bc565b600054604051638dfd0b0360e01b8152600481018390526001600160a01b0390911690638dfd0b039060240160206040518083038186803b158015610c8457600080fd5b505afa158015610c98573d6000803e3d6000fd5b505050506040513d601f19601f82011682018060405250810190610cbc9190613597565b3414610d235760405162461bcd60e51b815260206004820152603060248201527f56616c7565207472616e736665726564206973206e6f7420657571616c20746f60448201526f081c995c5d5a5c995908185b5bdd5b9d60821b60648201526084016106bc565b600154600454604080516001600160a01b0393841681523060208201529290911690820152606081018290527fc7e341db620c84a8460b51bfba67b47879276b655ea7960928e38c956cd85344906080015b60405180910390a150565b600e546201000090046001600160a01b03163314610db05760405162461bcd60e51b81526004016106bc906135b0565b600260035462010000900460ff166005811115610dcf57610dcf6130d9565b1480610df75750600460035462010000900460ff166005811115610df557610df56130d9565b145b80610e1e5750600560035462010000900460ff166005811115610e1c57610e1c6130d9565b145b610e735760405162461bcd60e51b815260206004820152603260248201526000805160206137e883398151915260448201527172656e742072656e74616c2073746174757360701b60648201526084016106bc565b6000600f541180610e8657506000600554115b610ed25760405162461bcd60e51b815260206004820152601d60248201527f4e6f2072656d61696e696e67206465706f73697420746f20636c61696d00000060448201526064016106bc565b600260035462010000900460ff166005811115610ef157610ef16130d9565b148015610efe5750600b54155b80610f255750600460035462010000900460ff166005811115610f2357610f236130d9565b145b80610f4c5750600560035462010000900460ff166005811115610f4a57610f4a6130d9565b145b610fb15760405162461bcd60e51b815260206004820152603060248201527f52656e74616c206665657320686173206e6f74206265656e2066756c6c79207360448201526f32ba3a3632b210313c903932b73a32b960811b60648201526084016106bc565b600954600a54148015610fe05750600260035462010000900460ff166005811115610fde57610fde6130d9565b145b806110075750600460035462010000900460ff166005811115611005576110056130d9565b145b8061102e5750600560035462010000900460ff16600581111561102c5761102c6130d9565b145b61103757600080fd5b600954600d541480156110665750600260035462010000900460ff166005811115611064576110646130d9565b145b8061108d5750600460035462010000900460ff16600581111561108b5761108b6130d9565b145b806110b45750600560035462010000900460ff1660058111156110b2576110b26130d9565b145b6111185760405162461bcd60e51b815260206004820152602f60248201527f52656e74616c206665657320686173206e6f74206265656e2066756c6c79206360448201526e3630b4b6b2b210313c9037bbb732b960891b60648201526084016106bc565b600460035462010000900460ff166005811115611137576111376130d9565b14156112be57600e54600054600f54604051638dfd0b0360e01b81526001600160a01b03620100009094048416936108fc931691638dfd0b0391611182919060040190815260200190565b60206040518083038186803b15801561119a57600080fd5b505afa1580156111ae573d6000803e3d6000fd5b505050506040513d601f19601f820116820180604052508101906111d29190613597565b6040518115909202916000818181858888f193505050501580156111fa573d6000803e3d6000fd5b50600e54600054600554604051638dfd0b0360e01b81526001600160a01b03620100009094048416936108fc931691638dfd0b0391611240919060040190815260200190565b60206040518083038186803b15801561125857600080fd5b505afa15801561126c573d6000803e3d6000fd5b505050506040513d601f19601f820116820180604052508101906112909190613597565b6040518115909202916000818181858888f193505050501580156112b8573d6000803e3d6000fd5b50611566565b600560035462010000900460ff1660058111156112dd576112dd6130d9565b14156113e857600354600054600f54604051638dfd0b0360e01b81526001600160a01b0363010000009094048416936108fc931691638dfd0b0391611329919060040190815260200190565b60206040518083038186803b15801561134157600080fd5b505afa158015611355573d6000803e3d6000fd5b505050506040513d601f19601f820116820180604052508101906113799190613597565b6040518115909202916000818181858888f193505050501580156113a1573d6000803e3d6000fd5b50600354600054600554604051638dfd0b0360e01b81526001600160a01b0363010000009094048416936108fc931691638dfd0b0391611240919060040190815260200190565b600e54600054600f54604051638dfd0b0360e01b81526001600160a01b03620100009094048416936108fc931691638dfd0b039161142d919060040190815260200190565b60206040518083038186803b15801561144557600080fd5b505afa158015611459573d6000803e3d6000fd5b505050506040513d601f19601f8201168201806040525081019061147d9190613597565b6040518115909202916000818181858888f193505050501580156114a5573d6000803e3d6000fd5b50600354600054600554604051638dfd0b0360e01b81526001600160a01b0363010000009094048416936108fc931691638dfd0b03916114ec919060040190815260200190565b60206040518083038186803b15801561150457600080fd5b505afa158015611518573d6000803e3d6000fd5b505050506040513d601f19601f8201168201806040525081019061153c9190613597565b6040518115909202916000818181858888f19350505050158015611564573d6000803e3d6000fd5b505b4715611574576115746135e7565b600380546203000062ff000019909116179055600154604080516001600160a01b0390921682523060208301527f6a5d55ef84f2d6da57cc86de121fc1c7a8392770ff8f357998e87beb5c310491910160405180910390a1565b600354630100000090046001600160a01b031633146115ff5760405162461bcd60e51b81526004016106bc90613560565b600054604051638dfd0b0360e01b8152600481018490526001600160a01b0390911690638dfd0b039060240160206040518083038186803b15801561164357600080fd5b505afa158015611657573d6000803e3d6000fd5b505050506040513d601f19601f8201168201806040525081019061167b9190613597565b34146116995760405162461bcd60e51b81526004016106bc906135fd565b600160035462010000900460ff1660058111156116b8576116b86130d9565b146116d55760405162461bcd60e51b81526004016106bc9061364a565b600f5483106117585760405162461bcd60e51b815260206004820152604360248201527f436f6d70656e736174696f6e207265717565737465642062792072656e74657260448201527f206d757374206265206c6f776572207468616e206f776e65722773206465706f6064820152621cda5d60ea1b608482015260a4016106bc565b600081600281111561176c5761176c6130d9565b146117b05760405162461bcd60e51b8152602060048201526014602482015273496e76616c69642064697370757465207479706560601b60448201526064016106bc565b6003805462ff000019166205000017905560125460ff166000908152601160209081526040909120875190916117ea9183918a0190612ec1565b5085516118009060018301906020890190612ec1565b5084516118169060028301906020880190612f45565b5060038101849055600481018390554260058201556000600682018190556009820155600c81018054336001600160a01b03198216811783558492916001600160a81b03191660ff60a01b1990911617600160a01b83600281111561187d5761187d6130d9565b02179055506012805460ff169060006118958361369d565b91906101000a81548160ff021916908360ff1602179055505050505050505050565b6011602052600090815260409020805481906118d290613525565b80601f01602080910402602001604051908101604052809291908181526020018280546118fe90613525565b801561194b5780601f106119205761010080835404028352916020019161194b565b820191906000526020600020905b81548152906001019060200180831161192e57829003601f168201915b50505050509080600101805461196090613525565b80601f016020809104026020016040519081016040528092919081815260200182805461198c90613525565b80156119d95780601f106119ae576101008083540402835291602001916119d9565b820191906000526020600020905b8154815290600101906020018083116119bc57829003601f168201915b5050505060038301546004840154600585015460068601546009870154600c9097015495969395929450909290916001600160a01b03811690600160a01b900460ff1689565b600e546201000090046001600160a01b03163314611a4f5760405162461bcd60e51b81526004016106bc906135b0565b600054604051638dfd0b0360e01b8152600481018390526001600160a01b0390911690638dfd0b039060240160206040518083038186803b158015611a9357600080fd5b505afa158015611aa7573d6000803e3d6000fd5b505050506040513d601f19601f82011682018060405250810190611acb9190613597565b3414611b2f5760405162461bcd60e51b815260206004820152602d60248201527f56616c7565207472616e736665726564206973206c657373207468616e20726560448201526c1c5d5a5c995908185b5bdd5b9d609a1b60648201526084016106bc565b600060035462010000900460ff166005811115611b4e57611b4e6130d9565b14611b9b5760405162461bcd60e51b815260206004820181905260248201527f496e76616c69642072656e74616c2073746174757320666f72206d6574686f6460448201526064016106bc565b600f8190558151611bb3906010906020850190612f45565b506003805462ff000019166201000090811791829055600154600e54600f546040517f638a6fc620f125e2c5fd9c4a087a87f135f8c70a914ad7251ba015a126a6b7c295611c22956001600160a01b039586169563010000008304811695829004169392910460ff16906136bd565b60405180910390a15050565b60ff81166000908152601160205260409020600c8101546001600160a01b03163314611cad5760405162461bcd60e51b815260206004820152602860248201527f4f6e6c79206469737075746520637265617465722063616e207265736f6c7665604482015267206469737075746560c01b60648201526084016106bc565b600460035462010000900460ff166005811115611ccc57611ccc6130d9565b1480611cf45750600560035462010000900460ff166005811115611cf257611cf26130d9565b145b611d5d5760405162461bcd60e51b815260206004820152603460248201527f556e61626c6520746f207265736f6c7665206469737075746520776974682063604482015273757272656e742072656e74616c2073746174757360601b60648201526084016106bc565b60ff80831660009081526011602052604090206012549091611d869161010090041660186136fb565b611d9190603c6136fb565b611d9c90603c6136fb565b60ff168160050154611dae9190613724565b421015611dba57600080fd5b600481015460098201546006830154600091600a91611dd99190613724565b611de3919061373c565b611dee90600661375e565b836006015411156120a15760005b8360060154811015611eff576000611e1384612ea3565b60008381526007870160205260408082205491549051638dfd0b0360e01b8152600481018490529293506001600160a01b03918216926108fc9290911690638dfd0b039060240160206040518083038186803b158015611e7257600080fd5b505afa158015611e86573d6000803e3d6000fd5b505050506040513d601f19601f82011682018060405250810190611eaa9190613597565b6040518115909202916000818181858888f19350505050158015611ed2573d6000803e3d6000fd5b50611edd8184613724565b9250611ee9818561377d565b9350508080611ef79061350a565b915050611dfc565b50600c8301546000546003850154604051638dfd0b0360e01b815260048101919091526001600160a01b03928316926108fc921690638dfd0b039060240160206040518083038186803b158015611f5557600080fd5b505afa158015611f69573d6000803e3d6000fd5b505050506040513d601f19601f82011682018060405250810190611f8d9190613597565b6040518115909202916000818181858888f19350505050158015611fb5573d6000803e3d6000fd5b50600354600c8401546001600160a01b039081166301000000909204161415611ff2578260030154600f54611fea919061377d565b600f55612008565b8260030154600554612004919061377d565b6005555b6000600c840154600160a01b900460ff16600281111561202a5761202a6130d9565b141561205057600e5461204b906201000090046001600160a01b03166109aa565b612094565b6001600c840154600160a01b900460ff166002811115612072576120726130d9565b14156120945760035461209490630100000090046001600160a01b03166109aa565b61209c610d80565b6121a9565b60005b83600901548110156121a75760006120bb84612ea3565b6000838152600a870160205260408082205491549051638dfd0b0360e01b8152600481018490529293506001600160a01b03918216926108fc9290911690638dfd0b039060240160206040518083038186803b15801561211a57600080fd5b505afa15801561212e573d6000803e3d6000fd5b505050506040513d601f19601f820116820180604052508101906121529190613597565b6040518115909202916000818181858888f1935050505015801561217a573d6000803e3d6000fd5b506121858184613724565b9250612191818561377d565b935050808061219f9061350a565b9150506120a4565b505b8083600401546121b9919061377d565b82146121c7576121c76135e7565b600c830154600054604051638dfd0b0360e01b8152600481018590526001600160a01b03928316926108fc921690638dfd0b039060240160206040518083038186803b15801561221657600080fd5b505afa15801561222a573d6000803e3d6000fd5b505050506040513d601f19601f8201168201806040525081019061224e9190613597565b6040518115909202916000818181858888f19350505050158015612276573d6000803e3d6000fd5b506000600c840154600160a01b900460ff166002811115612299576122996130d9565b14156122bd57600380546001919062ff0000191662010000835b021790555061232d565b6001600c840154600160a01b900460ff1660028111156122df576122df6130d9565b14156122fd57600380546002919062ff0000191662010000836122b3565b6002600c840154600160a01b900460ff16600281111561231f5761231f6130d9565b141561232d5761232d610d80565b5050505050565b600354630100000090046001600160a01b031633146123655760405162461bcd60e51b81526004016106bc90613560565b600b54156123c75760405162461bcd60e51b815260206004820152602960248201527f416c6c2066656573206861766520746f2062652070616964206265666f72652060448201526872657475726e696e6760b81b60648201526084016106bc565b80516123da906008906020840190612f45565b506003805462ff00001916620200001790819055600154600e546040517f6c3b74d4fe02e9013f2662b52aee484a1cfa6dfbe0616f21ef00227ba5c91ad293610d75936001600160a01b0390811693630100000083048216936201000091829004909216920460ff1690613794565b600e546201000090046001600160a01b031633146124795760405162461bcd60e51b81526004016106bc906135b0565b600054604051638dfd0b0360e01b8152600481018490526001600160a01b0390911690638dfd0b039060240160206040518083038186803b1580156124bd57600080fd5b505afa1580156124d1573d6000803e3d6000fd5b505050506040513d601f19601f820116820180604052508101906124f59190613597565b34146125135760405162461bcd60e51b81526004016106bc906135fd565b600260035462010000900460ff166005811115612532576125326130d9565b1461254f5760405162461bcd60e51b81526004016106bc9061364a565b60055483106125d25760405162461bcd60e51b815260206004820152604360248201527f436f6d70656e736174696f6e20726571756573746564206279206f776e65722060448201527f6d757374206265206c6f776572207468616e2072656e7465722773206465706f6064820152621cda5d60ea1b608482015260a4016106bc565b60018160028111156125e6576125e66130d9565b148061260357506002816002811115612601576126016130d9565b145b6126475760405162461bcd60e51b8152602060048201526015602482015274496e76616c6964206469737470757465207479706560581b60448201526064016106bc565b6003805462ff000019166204000017905560125460ff166000908152601160209081526040909120875190916126819183918a0190612ec1565b5085516126979060018301906020890190612ec1565b5084516126ad9060028301906020880190612f45565b5060038101849055600481018390554260058201556000600682018190556009820155600c810180546001600160a01b031916331790558160028111156126f6576126f66130d9565b600c820154600160a01b900460ff166002811115612716576127166130d9565b50506012805460ff169060006118958361369d565b600354630100000090046001600160a01b0316331461275c5760405162461bcd60e51b81526004016106bc90613560565b600e54819060ff61010090910416600114156127fb57600b54600054604051638dfd0b0360e01b8152600481018490526001600160a01b0390911690638dfd0b039060240160206040518083038186803b1580156127b957600080fd5b505afa1580156127cd573d6000803e3d6000fd5b505050506040513d601f19601f820116820180604052508101906127f19190613597565b146127fb57600080fd5b600054604051638dfd0b0360e01b8152600481018490526001600160a01b0390911690638dfd0b039060240160206040518083038186803b15801561283f57600080fd5b505afa158015612853573d6000803e3d6000fd5b505050506040513d601f19601f820116820180604052508101906128779190613597565b34146128955760405162461bcd60e51b81526004016106bc906135fd565b81600a60008282546128a79190613724565b9250508190555081600b60008282546128c0919061377d565b9091555050600e8054610100900460ff169060016128dd836137ca565b91906101000a81548160ff021916908360ff16021790555050600b54600a546129069190613724565b60095414612916576129166135e7565b81600c60008282546129289190613724565b90915550505050565b600e546201000090046001600160a01b031633146129615760405162461bcd60e51b81526004016106bc906135b0565b6000600c54116129bd5760405162461bcd60e51b815260206004820152602160248201527f5468657265206973206e6f20636c61696d61626c652072656e74616c206665656044820152607360f81b60648201526084016106bc565b600460035462010000900460ff1660058111156129dc576129dc6130d9565b1415612a5c5760405162461bcd60e51b815260206004820152605560248201526000805160206137e883398151915260448201527f72656e742072656e74616c207374617475732c2072656e74616c20737461747560648201527473206973204f4e204f574e4552204449535055544560581b608482015260a4016106bc565b600560035462010000900460ff166005811115612a7b57612a7b6130d9565b1415612afc5760405162461bcd60e51b815260206004820152605660248201526000805160206137e883398151915260448201527f72656e742072656e74616c207374617475732c2072656e74616c20737461747560648201527573206973204f4e2052454e544552204449535055544560501b608482015260a4016106bc565b6003805462010000900460ff166005811115612b1a57612b1a6130d9565b1415612b8d5760405162461bcd60e51b815260206004820152604860248201526000805160206137e883398151915260448201527f72656e742072656e74616c207374617475732c2072656e74616c2073746174756064820152671cc81a5cc811539160c21b608482015260a4016106bc565b600e54600054600c54604051638dfd0b0360e01b81526001600160a01b03620100009094048416936108fc931691638dfd0b0391612bd2919060040190815260200190565b60206040518083038186803b158015612bea57600080fd5b505afa158015612bfe573d6000803e3d6000fd5b505050506040513d601f19601f82011682018060405250810190612c229190613597565b6040518115909202916000818181858888f19350505050158015612c4a573d6000803e3d6000fd5b50600c54600d6000828254612c5f9190613724565b90915550506000600c55565b600e546201000090046001600160a01b03163314612c9b5760405162461bcd60e51b81526004016106bc906135b0565b600354612cac9060ff1660186136fb565b612cb790603c6136fb565b612cc290603c6136fb565b60ff16600754612cd29190613724565b4211612d465760405162461bcd60e51b815260206004820152603a60248201527f556e61626c6520746f20736574746c652072656e74616c206265666f7265206d60448201527f6178696d756d20616c6c6f7761626c65206c617465206461797300000000000060648201526084016106bc565b600160035462010000900460ff166005811115612d6557612d656130d9565b14612dcd5760405162461bcd60e51b815260206004820152603260248201527f556e61626c6520746f20736574746c652072656e74616c20776974682063757260448201527172656e742072656e74616c2073746174757360701b60648201526084016106bc565b6001546040516001620b258d60e21b03198152600260048201526001600160a01b0390911690819063ffd369cc90602401600060405180830381600087803b158015612e1857600080fd5b505af1158015612e2c573d6000803e3d6000fd5b5050600e546040516001600160a01b03620100009092049190911692504780156108fc029250906000818181858888f19350505050158015612e72573d6000803e3d6000fd5b50600354612e8f90630100000090046001600160a01b03166109aa565b506003805462ff0000191662030000179055565b6000612eb060648361373c565b612ebb90600561375e565b92915050565b828054612ecd90613525565b90600052602060002090601f016020900481019282612eef5760008555612f35565b82601f10612f0857805160ff1916838001178555612f35565b82800160010185558215612f35579182015b82811115612f35578251825591602001919060010190612f1a565b50612f41929150612f9e565b5090565b828054828255906000526020600020908101928215612f92579160200282015b82811115612f925782518051612f82918491602090910190612ec1565b5091602001919060010190612f65565b50612f41929150612fb3565b5b80821115612f415760008155600101612f9f565b80821115612f41576000612fc78282612fd0565b50600101612fb3565b508054612fdc90613525565b6000825580601f10612fec575050565b601f01602090049060005260206000209081019061300a9190612f9e565b50565b60006020828403121561301f57600080fd5b813560ff8116811461303057600080fd5b9392505050565b60006020828403121561304957600080fd5b5035919050565b6000815180845260005b818110156130765760208185018101518683018201520161305a565b81811115613088576000602083870101525b50601f01601f19169290920160200192915050565b6020815260006130306020830184613050565b6000602082840312156130c257600080fd5b81356001600160a01b038116811461303057600080fd5b634e487b7160e01b600052602160045260246000fd5b600681106130ff576130ff6130d9565b9052565b60208101612ebb82846130ef565b634e487b7160e01b600052604160045260246000fd5b604051601f8201601f1916810167ffffffffffffffff8111828210171561315057613150613111565b604052919050565b600082601f83011261316957600080fd5b813567ffffffffffffffff81111561318357613183613111565b613196601f8201601f1916602001613127565b8181528460208386010111156131ab57600080fd5b816020850160208301376000918101602001919091529392505050565b600082601f8301126131d957600080fd5b8135602067ffffffffffffffff808311156131f6576131f6613111565b8260051b613205838201613127565b938452858101830193838101908886111561321f57600080fd5b84880192505b8583101561325b5782358481111561323d5760008081fd5b61324b8a87838c0101613158565b8352509184019190840190613225565b98975050505050505050565b60008060008060008060c0878903121561328057600080fd5b863567ffffffffffffffff8082111561329857600080fd5b6132a48a838b01613158565b975060208901359150808211156132ba57600080fd5b6132c68a838b01613158565b965060408901359150808211156132dc57600080fd5b506132e989828a016131c8565b945050606087013592506080870135915060a08701356003811061330c57600080fd5b809150509295509295509295565b600061012080835261332e8184018d613050565b90508281036020840152613342818c613050565b9150508860408301528760608301528660808301528560a08301528460c083015260018060a01b03841660e083015260038310613381576133816130d9565b826101008301529a9950505050505050505050565b600080604083850312156133a957600080fd5b823567ffffffffffffffff8111156133c057600080fd5b6133cc858286016131c8565b95602094909401359450505050565b6000602082840312156133ed57600080fd5b813567ffffffffffffffff81111561340457600080fd5b613410848285016131c8565b949350505050565b6020808252602a908201527f4f776e6572206973206e6f7420656c696769626c6520746f20766f746520666f6040820152697220646973707574657360b01b606082015260800190565b6020808252602b908201527f52656e746572206973206e6f7420656c696769626c6520746f20766f7465206660408201526a6f7220646973707574657360a81b606082015260800190565b60208082526027908201527f557365722068617320616c726561647920766f74656420666f722074686973206040820152666469737075746560c81b606082015260800190565b634e487b7160e01b600052601160045260246000fd5b600060001982141561351e5761351e6134f4565b5060010190565b600181811c9082168061353957607f821691505b6020821081141561355a57634e487b7160e01b600052602260045260246000fd5b50919050565b6020808252601e908201527f4d6574686f64206973207265737472696374656420746f2052656e7465720000604082015260600190565b6000602082840312156135a957600080fd5b5051919050565b6020808252601d908201527f4d6574686f64206973207265737472696374656420746f204f776e6572000000604082015260600190565b634e487b7160e01b600052600160045260246000fd5b6020808252602d908201527f56616c7565207472616e736665726564206e6f7420657175616c20746f20726560408201526c1c5d5a5c995908185b5bdd5b9d609a1b606082015260800190565b60208082526033908201527f556e61626c6520746f20637265617465206469737075746520776974682063756040820152727272656e742072656e74616c2073746174757360681b606082015260800190565b600060ff821660ff8114156136b4576136b46134f4565b60010192915050565b6001600160a01b0386811682528581166020830152841660408201526060810183905260a081016136f160808301846130ef565b9695505050505050565b600060ff821660ff84168160ff048111821515161561371c5761371c6134f4565b029392505050565b60008219821115613737576137376134f4565b500190565b60008261375957634e487b7160e01b600052601260045260246000fd5b500490565b6000816000190483118215151615613778576137786134f4565b500290565b60008282101561378f5761378f6134f4565b500390565b6001600160a01b038581168252848116602083015283166040820152608081016137c160608301846130ef565b95945050505050565b600060ff8216806137dd576137dd6134f4565b600019019291505056fe556e61626c6520746f20636c61696d207061796d656e74207769746820637572a264697066735822122013ba51c17a4181bd057e4d0c2d81f9db06c00bb1caa86b7f7527db2a6d9d9c1864736f6c63430008090033",
  "immutableReferences": {},
  "source": "// SPDX-License-Identifier: GPL-3.0\n\npragma solidity >=0.7.0 <0.9.0;\n\nimport \"./User.sol\";\nimport \"./Item.sol\";\nimport \"./helpers/Utils.sol\";\nimport \"./helpers/Structs.sol\";\n\ncontract Rental {\n    Utils utils;\n\n    enum RentalStatus {\n        CREATED,\n        RENTED,\n        RETURNED,\n        END,\n        OWNERDISPUTE,\n        RENTERDISPUTE\n    }\n\n    enum DisputeType {\n        FakeOwnerProof,\n        FakeRenterProof,\n        ItemDamaged\n    }\n\n    struct Dispute {\n        string title;\n        string description;\n        string[] mediaIPFSHashes;\n        uint256 compensationAmount; // a value less than owner deposit and renter deposit\n        uint256 totalIncentive; // user has to pay the amount of incentive as deposit when open a dispute\n        uint256 startTime;\n        uint256 approvalCount;\n        mapping(uint256 => address payable) approversList;\n        mapping(address => bool) isApprover;\n        uint256 rejectionCount;\n        mapping(uint256 => address payable) rejectersList;\n        mapping(address => bool) isRejecter;\n        address payable creator;\n        DisputeType disputeType;\n    }\n\n    //--All fees unit are in gwei--//\n\n    address public itemContract;\n    uint256 public rentPerDay;\n    uint8 public maxAllowableLateDays;\n    uint8 public multipleForLateFees;\n\n    RentalStatus public rentalStatus;\n    address payable public renterAddress;\n    address public renterUserContract;\n    uint256 public renterDeposit;\n    uint256 public start;\n    uint256 public end;\n    string[] public renterProofOfReturn; // IPFS hashes\n\n    uint256 public rentalFees;\n    uint256 public paidRentalFees;\n    uint256 public remainingRentalFees;\n    uint256 public claimableRentalFees;\n    uint256 public claimedRentalFees;\n    uint8 public numInstallment;\n    uint8 public remainingNumInstallment;\n\n    address payable public ownerAddress;\n    uint256 public ownerDeposit;\n    string[] public ownerProofOfTransfer; // IPFS hashes\n\n    mapping(uint8 => Dispute) public disputes;\n    uint8 public disputeCount;\n    uint8 public disputePeriod = 3; // dispute will last for 3 days\n\n    event itemRented(\n        address itemContract,\n        address renterAddress,\n        address ownerAddress,\n        uint256 ownerDepositInGwei,\n        RentalStatus rentalStatus\n    );\n\n    event itemReturned(\n        address itemContract,\n        address renterAddress,\n        address ownerAddress,\n        RentalStatus rentalStatus\n    );\n\n    event rentalEnded(address itemContract, address rentalContract);\n\n    event lateFeesPaid(\n        address itemContract,\n        address rentalContract,\n        address renterUserContract,\n        uint256 lateFeesInGwei\n    );\n\n    constructor(\n        address _itemContract,\n        Structs.ItemDetails memory _itemDetails,\n        address _renterUserContract,\n        address payable _renterAddress,\n        uint256 _rentalFees,\n        uint256 _renterDeposit,\n        uint256 _start,\n        uint256 _end,\n        uint8 _numInstallment\n    ) payable {\n        // require(\n        //     msg.value == utils.gweiToWei(_renterDeposit),\n        //     \"Value transfered is less than required amount\"\n        // );\n\n        itemContract = _itemContract;\n        rentPerDay = _itemDetails.rentPerDay;\n        maxAllowableLateDays = _itemDetails.maxAllowableLateDays;\n        multipleForLateFees = _itemDetails.multipleForLateFees;\n        ownerAddress = _itemDetails.ownerAddress;\n\n        rentalStatus = RentalStatus.CREATED;\n        renterUserContract = _renterUserContract;\n        renterAddress = _renterAddress;\n        renterDeposit = _renterDeposit;\n        start = _start;\n        end = _end;\n\n        rentalFees = _rentalFees;\n        numInstallment = _numInstallment;\n        remainingNumInstallment = _numInstallment;\n        remainingRentalFees = _rentalFees;\n        paidRentalFees = 0;\n        claimedRentalFees = 0;\n    }\n\n    modifier onlyOwner() {\n        require(msg.sender == ownerAddress, \"Method is restricted to Owner\");\n        _;\n    }\n\n    modifier onlyRenter() {\n        require(msg.sender == renterAddress, \"Method is restricted to Renter\");\n        _;\n    }\n\n    modifier correctFinalInstallmentValue(uint256 _amount) {\n        if (remainingNumInstallment == 1) {\n            require(utils.gweiToWei(_amount) == remainingRentalFees);\n        }\n        _;\n    }\n\n    modifier validVoter(Dispute storage _dispute) {\n        require(\n            msg.sender != ownerAddress,\n            \"Owner is not eligible to vote for disputes\"\n        );\n        require(\n            msg.sender != renterAddress,\n            \"Renter is not eligible to vote for disputes\"\n        );\n        require(\n            !_dispute.isApprover[msg.sender],\n            \"User has already voted for this dispute\"\n        );\n        require(\n            !_dispute.isRejecter[msg.sender],\n            \"User has already voted for this dispute\"\n        );\n        _;\n    }\n\n    modifier onlyDisputeCreator(Dispute storage _dispute) {\n        require(\n            msg.sender == _dispute.creator,\n            \"Only dispute creater can resolve dispute\"\n        );\n        _;\n    }\n\n    function getRenterAddress() public view returns (address) {\n        return renterAddress;\n    }\n\n    function uploadOwnerProofOfTransferAndPayDeposit(\n        string[] memory _ownerProofOfTransfer,\n        uint256 _ownerDeposit\n    ) public payable onlyOwner {\n        require(\n            msg.value == utils.gweiToWei(_ownerDeposit),\n            \"Value transfered is less than required amount\"\n        );\n        require(\n            rentalStatus == RentalStatus.CREATED,\n            \"Invalid rental status for method\"\n        );\n\n        ownerDeposit = _ownerDeposit;\n        ownerProofOfTransfer = _ownerProofOfTransfer;\n        rentalStatus = RentalStatus.RENTED;\n\n        emit itemRented(\n            itemContract,\n            renterAddress,\n            ownerAddress,\n            ownerDeposit,\n            rentalStatus\n        );\n    }\n\n    function uploadRenterProofOfReturn(string[] memory _renterProofOfReturn)\n        public\n        onlyRenter\n    {\n        require(\n            remainingRentalFees == 0,\n            \"All fees have to be paid before returning\"\n        );\n\n        renterProofOfReturn = _renterProofOfReturn;\n        rentalStatus = RentalStatus.RETURNED;\n\n        emit itemReturned(\n            itemContract,\n            renterAddress,\n            ownerAddress,\n            rentalStatus\n        );\n    }\n\n    function payRentalInstallment(uint256 _amount)\n        public\n        payable\n        onlyRenter\n        correctFinalInstallmentValue(_amount)\n    {\n        require(\n            msg.value == utils.gweiToWei(_amount),\n            \"Value transfered not equal to required amount\"\n        );\n        paidRentalFees += _amount;\n        remainingRentalFees -= _amount;\n        remainingNumInstallment--;\n        assert(rentalFees == paidRentalFees + remainingRentalFees);\n\n        claimableRentalFees += _amount;\n    }\n\n    function claimRentalFees() public onlyOwner {\n        require(claimableRentalFees > 0, \"There is no claimable rental fees\");\n        require(\n            rentalStatus != RentalStatus.OWNERDISPUTE,\n            \"Unable to claim payment with current rental status, rental status is ON OWNER DISPUTE\"\n        );\n        require(\n            rentalStatus != RentalStatus.RENTERDISPUTE,\n            \"Unable to claim payment with current rental status, rental status is ON RENTER DISPUTE\"\n        );\n        require(\n            rentalStatus != RentalStatus.END,\n            \"Unable to claim payment with current rental status, rental status is END\"\n        );\n\n        ownerAddress.transfer(utils.gweiToWei(claimableRentalFees));\n        claimedRentalFees += claimableRentalFees;\n        claimableRentalFees = 0;\n    }\n\n    // claim owner's deposit and return renter's deposit\n    function settleDeposit() public onlyOwner {\n        require(\n            rentalStatus == RentalStatus.RETURNED ||\n                rentalStatus == RentalStatus.OWNERDISPUTE ||\n                rentalStatus == RentalStatus.RENTERDISPUTE,\n            \"Unable to claim payment with current rental status\"\n        );\n        require(\n            ownerDeposit > 0 || renterDeposit > 0,\n            \"No remaining deposit to claim\"\n        );\n        require(\n            (rentalStatus == RentalStatus.RETURNED &&\n                remainingRentalFees == 0) ||\n                rentalStatus == RentalStatus.OWNERDISPUTE ||\n                rentalStatus == RentalStatus.RENTERDISPUTE,\n            \"Rental fees has not been fully settled by renter\"\n        );\n        require(\n            (paidRentalFees == rentalFees &&\n                rentalStatus == RentalStatus.RETURNED) ||\n                rentalStatus == RentalStatus.OWNERDISPUTE ||\n                rentalStatus == RentalStatus.RENTERDISPUTE\n        );\n        require(\n            (claimedRentalFees == rentalFees &&\n                rentalStatus == RentalStatus.RETURNED) ||\n                rentalStatus == RentalStatus.OWNERDISPUTE ||\n                rentalStatus == RentalStatus.RENTERDISPUTE,\n            \"Rental fees has not been fully claimed by owner\"\n        );\n\n        if (rentalStatus == RentalStatus.OWNERDISPUTE) {\n            // owner gets all deposit if renter is dishonest\n            ownerAddress.transfer(utils.gweiToWei(ownerDeposit));\n            ownerAddress.transfer(utils.gweiToWei(renterDeposit));\n        } else if (rentalStatus == RentalStatus.RENTERDISPUTE) {\n            // renter gets all deposit if owner is dishonest\n            renterAddress.transfer(utils.gweiToWei(ownerDeposit));\n            renterAddress.transfer(utils.gweiToWei(renterDeposit));\n        } else {\n            ownerAddress.transfer(utils.gweiToWei(ownerDeposit));\n            renterAddress.transfer(utils.gweiToWei(renterDeposit));\n        }\n\n        assert(address(this).balance == 0);\n        rentalStatus = RentalStatus.END;\n\n        emit rentalEnded(itemContract, address(this));\n    }\n\n    function payLateFees(uint256 _lateFees) public payable onlyRenter {\n        require(\n            block.timestamp > end,\n            \"Unable to pay late fees before rental end date\"\n        );\n        require(\n            utils.getDaysBetween(end, block.timestamp) <= maxAllowableLateDays,\n            \"Unable to pay late fees later than maximum allowable late days\"\n        );\n        require(\n            msg.value == utils.gweiToWei(_lateFees),\n            \"Value transfered is not euqal to required amount\"\n        );\n\n        emit lateFeesPaid(\n            itemContract,\n            address(this),\n            renterUserContract,\n            _lateFees\n        );\n    }\n\n    function setUserAsDishonest(address _userAddress) public {\n        require(\n            _userAddress == renterAddress || _userAddress == ownerAddress,\n            \"Invalid user to be set as dishonest\"\n        );\n        User user = User(_userAddress);\n        user.setAsDishonest();\n    }\n\n    function settleRentalAfterFiveLateDays() public payable onlyOwner {\n        require(\n            block.timestamp > end + (maxAllowableLateDays * 24 * 60 * 60),\n            \"Unable to settle rental before maximum allowable late days\"\n        );\n        require(\n            rentalStatus == RentalStatus.RENTED,\n            \"Unable to settle rental with current rental status\"\n        );\n\n        // change item status\n        Item item = Item(itemContract);\n        item.changeItemStatus(2); // DELETED\n\n        // transfer all balance in the contract to owner\n        ownerAddress.transfer(address(this).balance);\n\n        // set renter as dishonest user\n        setUserAsDishonest(renterAddress);\n\n        rentalStatus = RentalStatus.END;\n    }\n\n    // status == returned: if owner thinks that prove of return is fake\n    // or if owner thinks that item is damaged\n    function createOwnerDispute(\n        string memory _title,\n        string memory _description,\n        string[] memory _mediaIPFSHashes,\n        uint256 _compensationAmount,\n        uint256 _totalIncentive,\n        DisputeType _disputeType\n    ) public payable onlyOwner {\n        require(\n            msg.value == utils.gweiToWei(_totalIncentive),\n            \"Value transfered not equal to required amount\"\n        );\n        require(\n            rentalStatus == RentalStatus.RETURNED,\n            \"Unable to create dispute with current rental status\"\n        );\n        require(\n            _compensationAmount < renterDeposit,\n            \"Compensation requested by owner must be lower than renter's deposit\"\n        );\n        require(\n            _disputeType == DisputeType.FakeRenterProof ||\n                _disputeType == DisputeType.ItemDamaged,\n            \"Invalid distpute type\"\n        );\n\n        rentalStatus = RentalStatus.OWNERDISPUTE;\n\n        Dispute storage newDispute = disputes[disputeCount];\n        newDispute.title = _title;\n        newDispute.description = _description;\n        newDispute.mediaIPFSHashes = _mediaIPFSHashes;\n        newDispute.compensationAmount = _compensationAmount;\n        newDispute.totalIncentive = _totalIncentive;\n        newDispute.startTime = block.timestamp;\n        newDispute.approvalCount = 0;\n        newDispute.rejectionCount = 0;\n        newDispute.creator = payable(msg.sender);\n        newDispute.disputeType == _disputeType;\n\n        disputeCount++;\n    }\n\n    // status == rented: if renter thinks that prove of transfer is fake\n    function createRenterDispute(\n        string memory _title,\n        string memory _description,\n        string[] memory _mediaIPFSHashes,\n        uint256 _compensationAmount,\n        uint256 _totalIncentive,\n        DisputeType _disputeType\n    ) public payable onlyRenter {\n        require(\n            msg.value == utils.gweiToWei(_totalIncentive),\n            \"Value transfered not equal to required amount\"\n        );\n        require(\n            rentalStatus == RentalStatus.RENTED,\n            \"Unable to create dispute with current rental status\"\n        );\n        require(\n            _compensationAmount < ownerDeposit,\n            \"Compensation requested by renter must be lower than owner's deposit\"\n        );\n        require(\n            _disputeType == DisputeType.FakeOwnerProof,\n            \"Invalid dispute type\"\n        );\n\n        rentalStatus = RentalStatus.RENTERDISPUTE;\n\n        Dispute storage newDispute = disputes[disputeCount];\n        newDispute.title = _title;\n        newDispute.description = _description;\n        newDispute.mediaIPFSHashes = _mediaIPFSHashes;\n        newDispute.compensationAmount = _compensationAmount;\n        newDispute.totalIncentive = _totalIncentive;\n        newDispute.startTime = block.timestamp;\n        newDispute.approvalCount = 0;\n        newDispute.rejectionCount = 0;\n        newDispute.creator = payable(msg.sender);\n        newDispute.disputeType = _disputeType;\n\n        disputeCount++;\n    }\n\n    function approveDispute(uint8 _disputeIndex)\n        public\n        validVoter(disputes[_disputeIndex])\n    {\n        Dispute storage dispute = disputes[_disputeIndex];\n\n        dispute.approversList[dispute.approvalCount] = payable(msg.sender);\n        dispute.isApprover[msg.sender] = true;\n        dispute.approvalCount++;\n    }\n\n    function rejectDispute(uint8 _disputeIndex)\n        public\n        validVoter(disputes[_disputeIndex])\n    {\n        Dispute storage dispute = disputes[_disputeIndex];\n\n        dispute.rejectersList[dispute.rejectionCount] = payable(msg.sender);\n        dispute.isRejecter[msg.sender] = true;\n        dispute.rejectionCount++;\n    }\n\n    function resolveDispute(uint8 _disputeIndex)\n        public\n        payable\n        onlyDisputeCreator(disputes[_disputeIndex])\n    {\n        require(\n            rentalStatus == RentalStatus.OWNERDISPUTE ||\n                rentalStatus == RentalStatus.RENTERDISPUTE,\n            \"Unable to resolve dispute with current rental status\"\n        );\n        Dispute storage dispute = disputes[_disputeIndex];\n        require(\n            block.timestamp >= dispute.startTime + disputePeriod * 24 * 60 * 60\n        );\n\n        uint256 remainingIncentive = dispute.totalIncentive;\n        uint256 paidIncentive = 0;\n\n        // if dispute is approved\n        if (\n            dispute.approvalCount >\n            ((dispute.approvalCount + dispute.rejectionCount) / 10) * 6\n        ) {\n            // pay incentive to voters who accepted the dispute\n            for (uint256 i; i < dispute.approvalCount; i++) {\n                uint256 payoutIncentive = calculatePayoutIncentive(\n                    remainingIncentive\n                );\n                dispute.approversList[i].transfer(\n                    utils.gweiToWei(payoutIncentive)\n                );\n                paidIncentive = paidIncentive + payoutIncentive;\n                remainingIncentive = remainingIncentive - payoutIncentive;\n            }\n\n            // pay compensation to dispute creator with the other party's deposit\n            dispute.creator.transfer(\n                utils.gweiToWei(dispute.compensationAmount)\n            );\n            if (dispute.creator == renterAddress) {\n                ownerDeposit = ownerDeposit - dispute.compensationAmount;\n            } else {\n                renterDeposit = renterDeposit - dispute.compensationAmount;\n            }\n\n            // set dishonest user\n            if (dispute.disputeType == DisputeType.FakeOwnerProof) {\n                setUserAsDishonest(ownerAddress);\n            } else if (dispute.disputeType == DisputeType.FakeRenterProof) {\n                setUserAsDishonest(renterAddress);\n            }\n\n            settleDeposit();\n        }\n        // if dispute is rejected\n        else {\n            // pay incentive to voters who rejected the dispute\n            for (uint256 i; i < dispute.rejectionCount; i++) {\n                uint256 payoutIncentive = calculatePayoutIncentive(\n                    remainingIncentive\n                );\n                dispute.rejectersList[i].transfer(\n                    utils.gweiToWei(payoutIncentive)\n                );\n                paidIncentive = paidIncentive + payoutIncentive;\n                remainingIncentive = remainingIncentive - payoutIncentive;\n            }\n        }\n\n        // return remaining incentive to dispute creator\n        assert(remainingIncentive == dispute.totalIncentive - paidIncentive);\n        dispute.creator.transfer(utils.gweiToWei(remainingIncentive));\n\n        if (dispute.disputeType == DisputeType.FakeOwnerProof) {\n            rentalStatus = RentalStatus.RENTED;\n        } else if (dispute.disputeType == DisputeType.FakeRenterProof) {\n            rentalStatus = RentalStatus.RETURNED;\n        } else if (dispute.disputeType == DisputeType.ItemDamaged) {\n            settleDeposit();\n        }\n    }\n\n    // ----------------------------------helpers-------------------------------------//\n    // first person who votes correctly will get 5% of the remaining incentive\n    function calculatePayoutIncentive(uint256 _incentive)\n        internal\n        pure\n        returns (uint256)\n    {\n        return (_incentive / 100) * 5;\n    }\n}\n",
  "sourcePath": "/Users/jyuteo/CodeProjects/TRent/smart-contracts/src/contracts/Rental.sol",
  "compiler": {
    "name": "solc",
    "version": "0.8.9+commit.e5eed63a.Emscripten.clang"
  },
  "schemaVersion": "3.4.3",
  "updatedAt": "2021-10-05T15:37:25.460Z",
  "networkType": "ethereum",
  "devdoc": {
    "kind": "dev",
    "methods": {},
    "version": 1
  },
  "userdoc": {
    "kind": "user",
    "methods": {},
    "version": 1
  }
}