{
  "contractName": "Rental",
  "abi": [
    {
      "inputs": [
        {
          "internalType": "address",
          "name": "_itemContract",
          "type": "address"
        },
        {
          "components": [
            {
              "internalType": "address",
              "name": "ownerUserContract",
              "type": "address"
            },
            {
              "internalType": "address payable",
              "name": "ownerAddress",
              "type": "address"
            },
            {
              "internalType": "string",
              "name": "name",
              "type": "string"
            },
            {
              "internalType": "string",
              "name": "collectionOrReturnAddress",
              "type": "string"
            },
            {
              "internalType": "string",
              "name": "description",
              "type": "string"
            },
            {
              "internalType": "uint256",
              "name": "rentPerDay",
              "type": "uint256"
            },
            {
              "internalType": "uint8",
              "name": "maxAllowableLateDays",
              "type": "uint8"
            },
            {
              "internalType": "uint8",
              "name": "multipleForLateFees",
              "type": "uint8"
            },
            {
              "internalType": "bool",
              "name": "isAvailableForRent",
              "type": "bool"
            },
            {
              "internalType": "string[]",
              "name": "mediaIPFSHashes",
              "type": "string[]"
            }
          ],
          "internalType": "struct Structs.ItemDetails",
          "name": "_itemDetails",
          "type": "tuple"
        },
        {
          "internalType": "address",
          "name": "_renterUserContractAddress",
          "type": "address"
        },
        {
          "internalType": "address payable",
          "name": "_renterAddress",
          "type": "address"
        },
        {
          "internalType": "uint256",
          "name": "_rentalFees",
          "type": "uint256"
        },
        {
          "internalType": "uint256",
          "name": "_renterDeposit",
          "type": "uint256"
        },
        {
          "internalType": "uint256",
          "name": "_start",
          "type": "uint256"
        },
        {
          "internalType": "uint256",
          "name": "_end",
          "type": "uint256"
        }
      ],
      "stateMutability": "payable",
      "type": "constructor"
    },
    {
      "anonymous": false,
      "inputs": [
        {
          "indexed": false,
          "internalType": "address",
          "name": "itemContract",
          "type": "address"
        },
        {
          "indexed": false,
          "internalType": "address",
          "name": "renterAddress",
          "type": "address"
        },
        {
          "indexed": false,
          "internalType": "address",
          "name": "ownerAddress",
          "type": "address"
        }
      ],
      "name": "itemRented",
      "type": "event"
    },
    {
      "anonymous": false,
      "inputs": [
        {
          "indexed": false,
          "internalType": "address",
          "name": "itemContract",
          "type": "address"
        },
        {
          "indexed": false,
          "internalType": "address",
          "name": "renterAddress",
          "type": "address"
        },
        {
          "indexed": false,
          "internalType": "address",
          "name": "ownerAddress",
          "type": "address"
        }
      ],
      "name": "itemReturned",
      "type": "event"
    },
    {
      "anonymous": false,
      "inputs": [
        {
          "indexed": false,
          "internalType": "address",
          "name": "itemContract",
          "type": "address"
        },
        {
          "indexed": false,
          "internalType": "address",
          "name": "rentalContract",
          "type": "address"
        }
      ],
      "name": "rentalEnded",
      "type": "event"
    },
    {
      "inputs": [],
      "name": "end",
      "outputs": [
        {
          "internalType": "uint256",
          "name": "",
          "type": "uint256"
        }
      ],
      "stateMutability": "view",
      "type": "function"
    },
    {
      "inputs": [],
      "name": "itemContract",
      "outputs": [
        {
          "internalType": "address",
          "name": "",
          "type": "address"
        }
      ],
      "stateMutability": "view",
      "type": "function"
    },
    {
      "inputs": [],
      "name": "ownerAddress",
      "outputs": [
        {
          "internalType": "address payable",
          "name": "",
          "type": "address"
        }
      ],
      "stateMutability": "view",
      "type": "function"
    },
    {
      "inputs": [],
      "name": "ownerDeposit",
      "outputs": [
        {
          "internalType": "uint256",
          "name": "",
          "type": "uint256"
        }
      ],
      "stateMutability": "view",
      "type": "function"
    },
    {
      "inputs": [
        {
          "internalType": "uint256",
          "name": "",
          "type": "uint256"
        }
      ],
      "name": "ownerProofOfTransfer",
      "outputs": [
        {
          "internalType": "string",
          "name": "",
          "type": "string"
        }
      ],
      "stateMutability": "view",
      "type": "function"
    },
    {
      "inputs": [],
      "name": "rentPerDay",
      "outputs": [
        {
          "internalType": "uint256",
          "name": "",
          "type": "uint256"
        }
      ],
      "stateMutability": "view",
      "type": "function"
    },
    {
      "inputs": [],
      "name": "rentalFees",
      "outputs": [
        {
          "internalType": "uint256",
          "name": "",
          "type": "uint256"
        }
      ],
      "stateMutability": "view",
      "type": "function"
    },
    {
      "inputs": [],
      "name": "rentalFeesPaid",
      "outputs": [
        {
          "internalType": "uint256",
          "name": "",
          "type": "uint256"
        }
      ],
      "stateMutability": "view",
      "type": "function"
    },
    {
      "inputs": [],
      "name": "rentalStatus",
      "outputs": [
        {
          "internalType": "enum Rental.RentalStatus",
          "name": "",
          "type": "uint8"
        }
      ],
      "stateMutability": "view",
      "type": "function"
    },
    {
      "inputs": [],
      "name": "renterAddress",
      "outputs": [
        {
          "internalType": "address payable",
          "name": "",
          "type": "address"
        }
      ],
      "stateMutability": "view",
      "type": "function"
    },
    {
      "inputs": [],
      "name": "renterDeposit",
      "outputs": [
        {
          "internalType": "uint256",
          "name": "",
          "type": "uint256"
        }
      ],
      "stateMutability": "view",
      "type": "function"
    },
    {
      "inputs": [
        {
          "internalType": "uint256",
          "name": "",
          "type": "uint256"
        }
      ],
      "name": "renterProofOfReturn",
      "outputs": [
        {
          "internalType": "string",
          "name": "",
          "type": "string"
        }
      ],
      "stateMutability": "view",
      "type": "function"
    },
    {
      "inputs": [],
      "name": "renterUserContractAddress",
      "outputs": [
        {
          "internalType": "address",
          "name": "",
          "type": "address"
        }
      ],
      "stateMutability": "view",
      "type": "function"
    },
    {
      "inputs": [],
      "name": "start",
      "outputs": [
        {
          "internalType": "uint256",
          "name": "",
          "type": "uint256"
        }
      ],
      "stateMutability": "view",
      "type": "function"
    },
    {
      "inputs": [],
      "name": "getRenterAddress",
      "outputs": [
        {
          "internalType": "address",
          "name": "",
          "type": "address"
        }
      ],
      "stateMutability": "view",
      "type": "function"
    },
    {
      "inputs": [],
      "name": "getContractBalance",
      "outputs": [
        {
          "internalType": "uint256",
          "name": "",
          "type": "uint256"
        }
      ],
      "stateMutability": "view",
      "type": "function"
    },
    {
      "inputs": [],
      "name": "getRentalStatus",
      "outputs": [
        {
          "internalType": "enum Rental.RentalStatus",
          "name": "",
          "type": "uint8"
        }
      ],
      "stateMutability": "view",
      "type": "function"
    },
    {
      "inputs": [
        {
          "internalType": "string[]",
          "name": "_ownerProofOfTransfer",
          "type": "string[]"
        },
        {
          "internalType": "uint256",
          "name": "_ownerDeposit",
          "type": "uint256"
        }
      ],
      "name": "uploadOwnerProofOfTransferAndPayDeposit",
      "outputs": [],
      "stateMutability": "payable",
      "type": "function"
    },
    {
      "inputs": [
        {
          "internalType": "string[]",
          "name": "_renterProofOfReturn",
          "type": "string[]"
        }
      ],
      "name": "uploadRenterProofOfReturn",
      "outputs": [],
      "stateMutability": "nonpayable",
      "type": "function"
    },
    {
      "inputs": [
        {
          "internalType": "uint256",
          "name": "_amount",
          "type": "uint256"
        }
      ],
      "name": "payRentalIncludingLateFees",
      "outputs": [],
      "stateMutability": "payable",
      "type": "function"
    },
    {
      "inputs": [],
      "name": "settleDeposit",
      "outputs": [],
      "stateMutability": "nonpayable",
      "type": "function"
    },
    {
      "inputs": [],
      "name": "settleRentalAfterFiveLateDays",
      "outputs": [],
      "stateMutability": "payable",
      "type": "function"
    }
  ],
  "bytecode": "0x6080604052604051620018223803806200182283398101604081905262000026916200038a565b604051638dfd0b0360e01b81526004810184905273__Utils_________________________________90638dfd0b0390602401602060405180830381865af415801562000077573d6000803e3d6000fd5b505050506040513d601f19601f820116820180604052508101906200009d919062000544565b3414620001065760405162461bcd60e51b815260206004820152602d60248201527f56616c7565207472616e736665726564206e6f7420657175616c20746f20726560448201526c1c5d5a5c995908185b5bdd5b9d609a1b606482015260840160405180910390fd5b600080546001600160a01b03199081166001600160a01b039a8b161790915560a0880151600155602090970151600a80548916918a1691909117905560028054968916610100026001600160a81b031990971696909617909555600380549490971693909516929092179094556004556005919091556006556008556200055e565b6001600160a01b03811681146200019e57600080fd5b50565b8051620001ae8162000188565b919050565b634e487b7160e01b600052604160045260246000fd5b60405161014081016001600160401b0381118282101715620001ef57620001ef620001b3565b60405290565b604051601f8201601f191681016001600160401b0381118282101715620002205762000220620001b3565b604052919050565b600082601f8301126200023a57600080fd5b81516001600160401b03811115620002565762000256620001b3565b60206200026c601f8301601f19168201620001f5565b82815285828487010111156200028157600080fd5b60005b83811015620002a157858101830151828201840152820162000284565b83811115620002b35760008385840101525b5095945050505050565b805160ff81168114620001ae57600080fd5b80518015158114620001ae57600080fd5b600082601f830112620002f257600080fd5b815160206001600160401b0380831115620003115762000311620001b3565b8260051b62000322838201620001f5565b93845285810183019383810190888611156200033d57600080fd5b84880192505b858310156200037e578251848111156200035d5760008081fd5b6200036d8a87838c010162000228565b835250918401919084019062000343565b98975050505050505050565b600080600080600080600080610100808a8c031215620003a957600080fd5b8951620003b68162000188565b60208b01519099506001600160401b0380821115620003d457600080fd5b908b0190610140828e031215620003ea57600080fd5b620003f4620001c9565b620003ff83620001a1565b81526200040f60208401620001a1565b60208201526040830151828111156200042757600080fd5b620004358f82860162000228565b6040830152506060830151828111156200044e57600080fd5b6200045c8f82860162000228565b6060830152506080830151828111156200047557600080fd5b620004838f82860162000228565b60808301525060a083015160a0820152620004a160c08401620002bd565b60c0820152620004b460e08401620002bd565b60e0820152620004c6848401620002cf565b8482015261012093508383015182811115620004e157600080fd5b620004ef8f828601620002e0565b8583015250809a50505050506200050960408a01620001a1565b95506200051960608a01620001a1565b94506080890151935060a0890151925060c0890151915060e089015190509295985092959890939650565b6000602082840312156200055757600080fd5b5051919050565b6112b4806200056e6000396000f3fe6080604052600436106101355760003560e01c80638d76f940116100ab578063be9a65551161006f578063be9a65551461032a578063c3efc73414610340578063cbfbb5a314610358578063e110930514610360578063e1439c6b14610376578063efbe1c1c1461039457600080fd5b80638d76f940146102945780638f84aa09146102b457806395afe398146102d45780639c29a3ed146102ea5780639e6aadc31461030a57600080fd5b8063559ec80d116100fd578063559ec80d146101f05780636922fb89146102055780636f9fb98a1461024257806373ef94f9146102555780637b1aa45f1461026b57806385411c8e1461028157600080fd5b8063022576f01461013a57806307e353e91461014f57806331d019b7146101855780633d99b56a146101ac5780634f4687ea146101cc575b600080fd5b61014d610148366004610f00565b6103aa565b005b34801561015b57600080fd5b5061016f61016a366004610f00565b6105f0565b60405161017c9190610f19565b60405180910390f35b34801561019157600080fd5b5060025461019f9060ff1681565b60405161017c9190610f84565b3480156101b857600080fd5b5061016f6101c7366004610f00565b61069c565b3480156101d857600080fd5b506101e260085481565b60405190815260200161017c565b3480156101fc57600080fd5b5061014d6106ac565b34801561021157600080fd5b5060025461022a9061010090046001600160a01b031681565b6040516001600160a01b03909116815260200161017c565b34801561024e57600080fd5b50476101e2565b34801561026157600080fd5b506101e260095481565b34801561027757600080fd5b506101e2600b5481565b61014d61028f3660046110e8565b610912565b3480156102a057600080fd5b5060005461022a906001600160a01b031681565b3480156102c057600080fd5b50600a5461022a906001600160a01b031681565b3480156102e057600080fd5b506101e260045481565b3480156102f657600080fd5b5061014d61030536600461112d565b610ab3565b34801561031657600080fd5b5060035461022a906001600160a01b031681565b34801561033657600080fd5b506101e260055481565b34801561034c57600080fd5b5060025460ff1661019f565b61014d610bed565b34801561036c57600080fd5b506101e260015481565b34801561038257600080fd5b506003546001600160a01b031661022a565b3480156103a057600080fd5b506101e260065481565b6003546001600160a01b031633146104095760405162461bcd60e51b815260206004820152601e60248201527f4d6574686f64206973207265737472696374656420746f2052656e746572000060448201526064015b60405180910390fd5b604051638dfd0b0360e01b81526004810182905273__Utils_________________________________90638dfd0b0390602401602060405180830381865af4158015610459573d6000803e3d6000fd5b505050506040513d601f19601f8201168201806040525081019061047d919061116a565b341461049b5760405162461bcd60e51b815260040161040090611183565b600854604051638dfd0b0360e01b8152600481019190915273__Utils_________________________________90638dfd0b0390602401602060405180830381865af41580156104ef573d6000803e3d6000fd5b505050506040513d601f19601f82011682018060405250810190610513919061116a565b3410156105705760405162461bcd60e51b815260206004820152602560248201527f52656e74616c2070616964206c657373207468616e20726571756972656420616044820152641b5bdd5b9d60da1b6064820152608401610400565b600160025460ff16600381111561058957610589610f6e565b146105d65760405162461bcd60e51b815260206004820181905260248201527f496e76616c69642072656e74616c2073746174757320666f72206d6574686f646044820152606401610400565b80600960008282546105e891906111d0565b909155505050565b6007818154811061060057600080fd5b90600052602060002001600091509050805461061b906111f6565b80601f0160208091040260200160405190810160405280929190818152602001828054610647906111f6565b80156106945780601f1061066957610100808354040283529160200191610694565b820191906000526020600020905b81548152906001019060200180831161067757829003601f168201915b505050505081565b600c818154811061060057600080fd5b600a546001600160a01b031633146106d65760405162461bcd60e51b815260040161040090611231565b6002805460ff1660038111156106ee576106ee610f6e565b1480156106ff575060085460095410155b6107665760405162461bcd60e51b815260206004820152603260248201527f556e61626c6520746f20636c61696d207061796d656e7420776974682063757260448201527172656e742072656e74616c2073746174757360701b6064820152608401610400565b6000600b54118061077957506000600454115b6107c55760405162461bcd60e51b815260206004820152601d60248201527f4e6f2072656d61696e696e67206465706f73697420746f20636c61696d0000006044820152606401610400565b60035460048054604051638dfd0b0360e01b8152918201526001600160a01b03909116906108fc9073__Utils_________________________________90638dfd0b0390602401602060405180830381865af4158015610829573d6000803e3d6000fd5b505050506040513d601f19601f8201168201806040525081019061084d919061116a565b6040518115909202916000818181858888f19350505050158015610875573d6000803e3d6000fd5b50600a546040516001600160a01b03909116904780156108fc02916000818181858888f193505050501580156108af573d6000803e3d6000fd5b5047156108be576108be611268565b6002805460ff19166003179055600054604080516001600160a01b0390921682523060208301527f6a5d55ef84f2d6da57cc86de121fc1c7a8392770ff8f357998e87beb5c310491910160405180910390a1565b600a546001600160a01b0316331461093c5760405162461bcd60e51b815260040161040090611231565b604051638dfd0b0360e01b81526004810182905273__Utils_________________________________90638dfd0b0390602401602060405180830381865af415801561098c573d6000803e3d6000fd5b505050506040513d601f19601f820116820180604052508101906109b0919061116a565b34146109ce5760405162461bcd60e51b815260040161040090611183565b600060025460ff1660038111156109e7576109e7610f6e565b14610a345760405162461bcd60e51b815260206004820181905260248201527f496e76616c69642072656e74616c2073746174757320666f72206d6574686f646044820152606401610400565b600b8190558151610a4c90600c906020850190610db4565b506002805460ff19166001179055600054600354600a54604080516001600160a01b039485168152928416602084015292168183015290517fbee4505063610f2c2522d8c40dc9c857aeceb46a2fcecc7051c9d28a42312e23916060908290030190a15050565b6003546001600160a01b03163314610b0d5760405162461bcd60e51b815260206004820152601e60248201527f4d6574686f64206973207265737472696374656420746f2052656e74657200006044820152606401610400565b6008546009541015610b765760405162461bcd60e51b815260206004820152602c60248201527f52656e74616c2066656573206861766520746f2062652070616964206265666f60448201526b72652072657475726e696e6760a01b6064820152608401610400565b8051610b89906007906020840190610db4565b506002805460ff191681179055600054600354600a54604080516001600160a01b039485168152928416602084015292168183015290517f2b7164dceeb2fccf197390bacb5fa0bceed217160220dd6b0e32124ab71fe8e09181900360600190a150565b600a546001600160a01b03163314610c175760405162461bcd60e51b815260040161040090611231565b600160025460ff166003811115610c3057610c30610f6e565b14610c985760405162461bcd60e51b815260206004820152603260248201527f556e61626c6520746f20736574746c652072656e74616c20776974682063757260448201527172656e742072656e74616c2073746174757360701b6064820152608401610400565b6000546040516001620b258d60e21b03198152600260048201526001600160a01b0390911690819063ffd369cc90602401600060405180830381600087803b158015610ce357600080fd5b505af1158015610cf7573d6000803e3d6000fd5b5050600a546040516001600160a01b0390911692504780156108fc029250906000818181858888f19350505050158015610d35573d6000803e3d6000fd5b506000600260019054906101000a90046001600160a01b03169050806001600160a01b031663922b57fa6040518163ffffffff1660e01b8152600401600060405180830381600087803b158015610d8b57600080fd5b505af1158015610d9f573d6000803e3d6000fd5b50506002805460ff1916600317905550505050565b828054828255906000526020600020908101928215610e01579160200282015b82811115610e015782518051610df1918491602090910190610e11565b5091602001919060010190610dd4565b50610e0d929150610e91565b5090565b828054610e1d906111f6565b90600052602060002090601f016020900481019282610e3f5760008555610e85565b82601f10610e5857805160ff1916838001178555610e85565b82800160010185558215610e85579182015b82811115610e85578251825591602001919060010190610e6a565b50610e0d929150610eae565b80821115610e0d576000610ea58282610ec3565b50600101610e91565b5b80821115610e0d5760008155600101610eaf565b508054610ecf906111f6565b6000825580601f10610edf575050565b601f016020900490600052602060002090810190610efd9190610eae565b50565b600060208284031215610f1257600080fd5b5035919050565b600060208083528351808285015260005b81811015610f4657858101830151858201604001528201610f2a565b81811115610f58576000604083870101525b50601f01601f1916929092016040019392505050565b634e487b7160e01b600052602160045260246000fd5b6020810160048310610fa657634e487b7160e01b600052602160045260246000fd5b91905290565b634e487b7160e01b600052604160045260246000fd5b604051601f8201601f1916810167ffffffffffffffff81118282101715610feb57610feb610fac565b604052919050565b6000601f838184011261100557600080fd5b8235602067ffffffffffffffff8083111561102257611022610fac565b8260051b611031838201610fc2565b938452868101830193838101908986111561104b57600080fd5b84890192505b858310156110db578235848111156110695760008081fd5b8901603f81018b1361107b5760008081fd5b8581013560408682111561109157611091610fac565b6110a2828b01601f19168901610fc2565b8281528d828486010111156110b75760008081fd5b828285018a8301376000928101890192909252508352509184019190840190611051565b9998505050505050505050565b600080604083850312156110fb57600080fd5b823567ffffffffffffffff81111561111257600080fd5b61111e85828601610ff3565b95602094909401359450505050565b60006020828403121561113f57600080fd5b813567ffffffffffffffff81111561115657600080fd5b61116284828501610ff3565b949350505050565b60006020828403121561117c57600080fd5b5051919050565b6020808252602d908201527f56616c7565207472616e736665726564206e6f7420657175616c20746f20726560408201526c1c5d5a5c995908185b5bdd5b9d609a1b606082015260800190565b600082198211156111f157634e487b7160e01b600052601160045260246000fd5b500190565b600181811c9082168061120a57607f821691505b6020821081141561122b57634e487b7160e01b600052602260045260246000fd5b50919050565b6020808252601d908201527f4d6574686f64206973207265737472696374656420746f204f776e6572000000604082015260600190565b634e487b7160e01b600052600160045260246000fdfea26469706673582212208215044de983e29bcf9f669c2ab37fd544d3da76247d88721ca373ecc6692f2364736f6c634300080b0033",
  "deployedBytecode": "0x6080604052600436106101355760003560e01c80638d76f940116100ab578063be9a65551161006f578063be9a65551461032a578063c3efc73414610340578063cbfbb5a314610358578063e110930514610360578063e1439c6b14610376578063efbe1c1c1461039457600080fd5b80638d76f940146102945780638f84aa09146102b457806395afe398146102d45780639c29a3ed146102ea5780639e6aadc31461030a57600080fd5b8063559ec80d116100fd578063559ec80d146101f05780636922fb89146102055780636f9fb98a1461024257806373ef94f9146102555780637b1aa45f1461026b57806385411c8e1461028157600080fd5b8063022576f01461013a57806307e353e91461014f57806331d019b7146101855780633d99b56a146101ac5780634f4687ea146101cc575b600080fd5b61014d610148366004610f00565b6103aa565b005b34801561015b57600080fd5b5061016f61016a366004610f00565b6105f0565b60405161017c9190610f19565b60405180910390f35b34801561019157600080fd5b5060025461019f9060ff1681565b60405161017c9190610f84565b3480156101b857600080fd5b5061016f6101c7366004610f00565b61069c565b3480156101d857600080fd5b506101e260085481565b60405190815260200161017c565b3480156101fc57600080fd5b5061014d6106ac565b34801561021157600080fd5b5060025461022a9061010090046001600160a01b031681565b6040516001600160a01b03909116815260200161017c565b34801561024e57600080fd5b50476101e2565b34801561026157600080fd5b506101e260095481565b34801561027757600080fd5b506101e2600b5481565b61014d61028f3660046110e8565b610912565b3480156102a057600080fd5b5060005461022a906001600160a01b031681565b3480156102c057600080fd5b50600a5461022a906001600160a01b031681565b3480156102e057600080fd5b506101e260045481565b3480156102f657600080fd5b5061014d61030536600461112d565b610ab3565b34801561031657600080fd5b5060035461022a906001600160a01b031681565b34801561033657600080fd5b506101e260055481565b34801561034c57600080fd5b5060025460ff1661019f565b61014d610bed565b34801561036c57600080fd5b506101e260015481565b34801561038257600080fd5b506003546001600160a01b031661022a565b3480156103a057600080fd5b506101e260065481565b6003546001600160a01b031633146104095760405162461bcd60e51b815260206004820152601e60248201527f4d6574686f64206973207265737472696374656420746f2052656e746572000060448201526064015b60405180910390fd5b604051638dfd0b0360e01b81526004810182905273__Utils_________________________________90638dfd0b0390602401602060405180830381865af4158015610459573d6000803e3d6000fd5b505050506040513d601f19601f8201168201806040525081019061047d919061116a565b341461049b5760405162461bcd60e51b815260040161040090611183565b600854604051638dfd0b0360e01b8152600481019190915273__Utils_________________________________90638dfd0b0390602401602060405180830381865af41580156104ef573d6000803e3d6000fd5b505050506040513d601f19601f82011682018060405250810190610513919061116a565b3410156105705760405162461bcd60e51b815260206004820152602560248201527f52656e74616c2070616964206c657373207468616e20726571756972656420616044820152641b5bdd5b9d60da1b6064820152608401610400565b600160025460ff16600381111561058957610589610f6e565b146105d65760405162461bcd60e51b815260206004820181905260248201527f496e76616c69642072656e74616c2073746174757320666f72206d6574686f646044820152606401610400565b80600960008282546105e891906111d0565b909155505050565b6007818154811061060057600080fd5b90600052602060002001600091509050805461061b906111f6565b80601f0160208091040260200160405190810160405280929190818152602001828054610647906111f6565b80156106945780601f1061066957610100808354040283529160200191610694565b820191906000526020600020905b81548152906001019060200180831161067757829003601f168201915b505050505081565b600c818154811061060057600080fd5b600a546001600160a01b031633146106d65760405162461bcd60e51b815260040161040090611231565b6002805460ff1660038111156106ee576106ee610f6e565b1480156106ff575060085460095410155b6107665760405162461bcd60e51b815260206004820152603260248201527f556e61626c6520746f20636c61696d207061796d656e7420776974682063757260448201527172656e742072656e74616c2073746174757360701b6064820152608401610400565b6000600b54118061077957506000600454115b6107c55760405162461bcd60e51b815260206004820152601d60248201527f4e6f2072656d61696e696e67206465706f73697420746f20636c61696d0000006044820152606401610400565b60035460048054604051638dfd0b0360e01b8152918201526001600160a01b03909116906108fc9073__Utils_________________________________90638dfd0b0390602401602060405180830381865af4158015610829573d6000803e3d6000fd5b505050506040513d601f19601f8201168201806040525081019061084d919061116a565b6040518115909202916000818181858888f19350505050158015610875573d6000803e3d6000fd5b50600a546040516001600160a01b03909116904780156108fc02916000818181858888f193505050501580156108af573d6000803e3d6000fd5b5047156108be576108be611268565b6002805460ff19166003179055600054604080516001600160a01b0390921682523060208301527f6a5d55ef84f2d6da57cc86de121fc1c7a8392770ff8f357998e87beb5c310491910160405180910390a1565b600a546001600160a01b0316331461093c5760405162461bcd60e51b815260040161040090611231565b604051638dfd0b0360e01b81526004810182905273__Utils_________________________________90638dfd0b0390602401602060405180830381865af415801561098c573d6000803e3d6000fd5b505050506040513d601f19601f820116820180604052508101906109b0919061116a565b34146109ce5760405162461bcd60e51b815260040161040090611183565b600060025460ff1660038111156109e7576109e7610f6e565b14610a345760405162461bcd60e51b815260206004820181905260248201527f496e76616c69642072656e74616c2073746174757320666f72206d6574686f646044820152606401610400565b600b8190558151610a4c90600c906020850190610db4565b506002805460ff19166001179055600054600354600a54604080516001600160a01b039485168152928416602084015292168183015290517fbee4505063610f2c2522d8c40dc9c857aeceb46a2fcecc7051c9d28a42312e23916060908290030190a15050565b6003546001600160a01b03163314610b0d5760405162461bcd60e51b815260206004820152601e60248201527f4d6574686f64206973207265737472696374656420746f2052656e74657200006044820152606401610400565b6008546009541015610b765760405162461bcd60e51b815260206004820152602c60248201527f52656e74616c2066656573206861766520746f2062652070616964206265666f60448201526b72652072657475726e696e6760a01b6064820152608401610400565b8051610b89906007906020840190610db4565b506002805460ff191681179055600054600354600a54604080516001600160a01b039485168152928416602084015292168183015290517f2b7164dceeb2fccf197390bacb5fa0bceed217160220dd6b0e32124ab71fe8e09181900360600190a150565b600a546001600160a01b03163314610c175760405162461bcd60e51b815260040161040090611231565b600160025460ff166003811115610c3057610c30610f6e565b14610c985760405162461bcd60e51b815260206004820152603260248201527f556e61626c6520746f20736574746c652072656e74616c20776974682063757260448201527172656e742072656e74616c2073746174757360701b6064820152608401610400565b6000546040516001620b258d60e21b03198152600260048201526001600160a01b0390911690819063ffd369cc90602401600060405180830381600087803b158015610ce357600080fd5b505af1158015610cf7573d6000803e3d6000fd5b5050600a546040516001600160a01b0390911692504780156108fc029250906000818181858888f19350505050158015610d35573d6000803e3d6000fd5b506000600260019054906101000a90046001600160a01b03169050806001600160a01b031663922b57fa6040518163ffffffff1660e01b8152600401600060405180830381600087803b158015610d8b57600080fd5b505af1158015610d9f573d6000803e3d6000fd5b50506002805460ff1916600317905550505050565b828054828255906000526020600020908101928215610e01579160200282015b82811115610e015782518051610df1918491602090910190610e11565b5091602001919060010190610dd4565b50610e0d929150610e91565b5090565b828054610e1d906111f6565b90600052602060002090601f016020900481019282610e3f5760008555610e85565b82601f10610e5857805160ff1916838001178555610e85565b82800160010185558215610e85579182015b82811115610e85578251825591602001919060010190610e6a565b50610e0d929150610eae565b80821115610e0d576000610ea58282610ec3565b50600101610e91565b5b80821115610e0d5760008155600101610eaf565b508054610ecf906111f6565b6000825580601f10610edf575050565b601f016020900490600052602060002090810190610efd9190610eae565b50565b600060208284031215610f1257600080fd5b5035919050565b600060208083528351808285015260005b81811015610f4657858101830151858201604001528201610f2a565b81811115610f58576000604083870101525b50601f01601f1916929092016040019392505050565b634e487b7160e01b600052602160045260246000fd5b6020810160048310610fa657634e487b7160e01b600052602160045260246000fd5b91905290565b634e487b7160e01b600052604160045260246000fd5b604051601f8201601f1916810167ffffffffffffffff81118282101715610feb57610feb610fac565b604052919050565b6000601f838184011261100557600080fd5b8235602067ffffffffffffffff8083111561102257611022610fac565b8260051b611031838201610fc2565b938452868101830193838101908986111561104b57600080fd5b84890192505b858310156110db578235848111156110695760008081fd5b8901603f81018b1361107b5760008081fd5b8581013560408682111561109157611091610fac565b6110a2828b01601f19168901610fc2565b8281528d828486010111156110b75760008081fd5b828285018a8301376000928101890192909252508352509184019190840190611051565b9998505050505050505050565b600080604083850312156110fb57600080fd5b823567ffffffffffffffff81111561111257600080fd5b61111e85828601610ff3565b95602094909401359450505050565b60006020828403121561113f57600080fd5b813567ffffffffffffffff81111561115657600080fd5b61116284828501610ff3565b949350505050565b60006020828403121561117c57600080fd5b5051919050565b6020808252602d908201527f56616c7565207472616e736665726564206e6f7420657175616c20746f20726560408201526c1c5d5a5c995908185b5bdd5b9d609a1b606082015260800190565b600082198211156111f157634e487b7160e01b600052601160045260246000fd5b500190565b600181811c9082168061120a57607f821691505b6020821081141561122b57634e487b7160e01b600052602260045260246000fd5b50919050565b6020808252601d908201527f4d6574686f64206973207265737472696374656420746f204f776e6572000000604082015260600190565b634e487b7160e01b600052600160045260246000fdfea26469706673582212208215044de983e29bcf9f669c2ab37fd544d3da76247d88721ca373ecc6692f2364736f6c634300080b0033",
  "immutableReferences": {},
  "source": "// SPDX-License-Identifier: GPL-3.0\n\npragma solidity >=0.7.0 <0.9.0;\n\nimport \"./User.sol\";\nimport \"./Item.sol\";\nimport \"./helpers/Utils.sol\";\nimport \"./helpers/Structs.sol\";\n\ncontract Rental {\n    using Utils for *;\n    using Structs for *;\n\n    enum RentalStatus {\n        CREATED,\n        RENTED,\n        RETURNED,\n        END\n    }\n\n    //--All fees unit are in gwei--//\n\n    address public itemContract;\n    uint256 public rentPerDay;\n\n    RentalStatus public rentalStatus;\n    address public renterUserContractAddress;\n    address payable public renterAddress;\n    uint256 public renterDeposit;\n    uint256 public start;\n    uint256 public end;\n    string[] public renterProofOfReturn; // IPFS hashes\n\n    uint256 public rentalFees;\n    uint256 public rentalFeesPaid;\n\n    address payable public ownerAddress;\n    uint256 public ownerDeposit;\n    string[] public ownerProofOfTransfer; // IPFS hashes\n\n    event itemRented(\n        address itemContract,\n        address renterAddress,\n        address ownerAddress\n    );\n\n    event itemReturned(\n        address itemContract,\n        address renterAddress,\n        address ownerAddress\n    );\n\n    event rentalEnded(address itemContract, address rentalContract);\n\n    constructor(\n        address _itemContract,\n        Structs.ItemDetails memory _itemDetails,\n        address _renterUserContractAddress,\n        address payable _renterAddress,\n        uint256 _rentalFees,\n        uint256 _renterDeposit,\n        uint256 _start,\n        uint256 _end\n    ) payable {\n        require(\n            msg.value == Utils.gweiToWei(_renterDeposit),\n            \"Value transfered not equal to required amount\"\n        );\n\n        itemContract = _itemContract;\n        rentPerDay = _itemDetails.rentPerDay;\n        ownerAddress = _itemDetails.ownerAddress;\n\n        rentalStatus = RentalStatus.CREATED;\n        renterUserContractAddress = _renterUserContractAddress;\n        renterAddress = _renterAddress;\n        renterDeposit = _renterDeposit;\n        start = _start;\n        end = _end;\n\n        rentalFees = _rentalFees;\n    }\n\n    modifier onlyOwner() {\n        require(msg.sender == ownerAddress, \"Method is restricted to Owner\");\n        _;\n    }\n\n    modifier onlyRenter() {\n        require(msg.sender == renterAddress, \"Method is restricted to Renter\");\n        _;\n    }\n\n    function getRenterAddress() public view returns (address) {\n        return renterAddress;\n    }\n\n    function getContractBalance() public view returns (uint256) {\n        return address(this).balance;\n    }\n\n    function getRentalStatus() public view returns (RentalStatus) {\n        return rentalStatus;\n    }\n\n    function uploadOwnerProofOfTransferAndPayDeposit(\n        string[] memory _ownerProofOfTransfer,\n        uint256 _ownerDeposit\n    ) public payable onlyOwner {\n        require(\n            msg.value == Utils.gweiToWei(_ownerDeposit),\n            \"Value transfered not equal to required amount\"\n        );\n        require(\n            rentalStatus == RentalStatus.CREATED,\n            \"Invalid rental status for method\"\n        );\n\n        ownerDeposit = _ownerDeposit;\n        ownerProofOfTransfer = _ownerProofOfTransfer;\n        rentalStatus = RentalStatus.RENTED;\n\n        emit itemRented(itemContract, renterAddress, ownerAddress);\n    }\n\n    function uploadRenterProofOfReturn(string[] memory _renterProofOfReturn)\n        public\n        onlyRenter\n    {\n        require(\n            rentalFeesPaid >= rentalFees,\n            \"Rental fees have to be paid before returning\"\n        );\n\n        renterProofOfReturn = _renterProofOfReturn;\n        rentalStatus = RentalStatus.RETURNED;\n\n        emit itemReturned(itemContract, renterAddress, ownerAddress);\n    }\n\n    function payRentalIncludingLateFees(uint256 _amount)\n        public\n        payable\n        onlyRenter\n    {\n        require(\n            msg.value == Utils.gweiToWei(_amount),\n            \"Value transfered not equal to required amount\"\n        );\n        require(\n            msg.value >= Utils.gweiToWei(rentalFees),\n            \"Rental paid less than required amount\"\n        );\n        require(\n            rentalStatus == RentalStatus.RENTED,\n            \"Invalid rental status for method\"\n        );\n\n        rentalFeesPaid += _amount;\n    }\n\n    // owner gets back deposit and receives rental fees paid, renter gets back deposit\n    function settleDeposit() public onlyOwner {\n        require(\n            rentalStatus == RentalStatus.RETURNED &&\n                rentalFeesPaid >= rentalFees,\n            \"Unable to claim payment with current rental status\"\n        );\n        require(\n            ownerDeposit > 0 || renterDeposit > 0,\n            \"No remaining deposit to claim\"\n        );\n\n        renterAddress.transfer(Utils.gweiToWei(renterDeposit));\n        ownerAddress.transfer(address(this).balance);\n\n        assert(address(this).balance == 0);\n        rentalStatus = RentalStatus.END;\n\n        emit rentalEnded(itemContract, address(this));\n    }\n\n    function settleRentalAfterFiveLateDays() public payable onlyOwner {\n        require(\n            rentalStatus == RentalStatus.RENTED,\n            \"Unable to settle rental with current rental status\"\n        );\n        // change item status\n        Item item = Item(itemContract);\n        item.changeItemStatus(2); // DELETED\n        // transfer all balance in the contract to owner\n        ownerAddress.transfer(address(this).balance);\n        // set renter as dishonest user\n        User user = User(renterUserContractAddress);\n        user.setAsDishonest();\n        rentalStatus = RentalStatus.END;\n    }\n}\n",
  "sourcePath": "/Users/jyuteo/CodeProjects/TRent/smart-contracts/src/contracts/Rental.sol",
  "compiler": {
    "name": "solc",
    "version": "0.8.11+commit.d7f03943.Emscripten.clang"
  },
  "schemaVersion": "3.4.3",
  "updatedAt": "2021-12-25T05:27:49.402Z",
  "devdoc": {
    "kind": "dev",
    "methods": {},
    "version": 1
  },
  "userdoc": {
    "kind": "user",
    "methods": {},
    "version": 1
  }
}