{
  "contractName": "Rental",
  "abi": [
    {
      "inputs": [
        {
          "internalType": "address",
          "name": "_itemContract",
          "type": "address"
        },
        {
          "components": [
            {
              "internalType": "address",
              "name": "ownerUserContract",
              "type": "address"
            },
            {
              "internalType": "address payable",
              "name": "ownerAddress",
              "type": "address"
            },
            {
              "internalType": "string",
              "name": "name",
              "type": "string"
            },
            {
              "internalType": "string",
              "name": "collectionOrReturnAddress",
              "type": "string"
            },
            {
              "internalType": "string",
              "name": "description",
              "type": "string"
            },
            {
              "internalType": "uint256",
              "name": "rentPerDay",
              "type": "uint256"
            },
            {
              "internalType": "uint8",
              "name": "maxAllowableLateDays",
              "type": "uint8"
            },
            {
              "internalType": "uint8",
              "name": "multipleForLateFees",
              "type": "uint8"
            },
            {
              "internalType": "bool",
              "name": "isAvailableForRent",
              "type": "bool"
            },
            {
              "internalType": "string[]",
              "name": "mediaIPFSHashes",
              "type": "string[]"
            }
          ],
          "internalType": "struct Structs.ItemDetails",
          "name": "_itemDetails",
          "type": "tuple"
        },
        {
          "internalType": "address payable",
          "name": "_renterAddress",
          "type": "address"
        },
        {
          "internalType": "uint256",
          "name": "_rentalFees",
          "type": "uint256"
        },
        {
          "internalType": "uint256",
          "name": "_renterDeposit",
          "type": "uint256"
        },
        {
          "internalType": "uint256",
          "name": "_start",
          "type": "uint256"
        },
        {
          "internalType": "uint256",
          "name": "_end",
          "type": "uint256"
        }
      ],
      "stateMutability": "payable",
      "type": "constructor"
    },
    {
      "anonymous": false,
      "inputs": [
        {
          "indexed": false,
          "internalType": "address",
          "name": "itemContract",
          "type": "address"
        },
        {
          "indexed": false,
          "internalType": "address",
          "name": "renterAddress",
          "type": "address"
        },
        {
          "indexed": false,
          "internalType": "address",
          "name": "ownerAddress",
          "type": "address"
        }
      ],
      "name": "itemRented",
      "type": "event"
    },
    {
      "anonymous": false,
      "inputs": [
        {
          "indexed": false,
          "internalType": "address",
          "name": "itemContract",
          "type": "address"
        },
        {
          "indexed": false,
          "internalType": "address",
          "name": "renterAddress",
          "type": "address"
        },
        {
          "indexed": false,
          "internalType": "address",
          "name": "ownerAddress",
          "type": "address"
        }
      ],
      "name": "itemReturned",
      "type": "event"
    },
    {
      "anonymous": false,
      "inputs": [
        {
          "indexed": false,
          "internalType": "address",
          "name": "itemContract",
          "type": "address"
        },
        {
          "indexed": false,
          "internalType": "address",
          "name": "rentalContract",
          "type": "address"
        }
      ],
      "name": "rentalEnded",
      "type": "event"
    },
    {
      "inputs": [],
      "name": "getRenterAddress",
      "outputs": [
        {
          "internalType": "address",
          "name": "",
          "type": "address"
        }
      ],
      "stateMutability": "view",
      "type": "function"
    },
    {
      "inputs": [],
      "name": "getContractBalance",
      "outputs": [
        {
          "internalType": "uint256",
          "name": "",
          "type": "uint256"
        }
      ],
      "stateMutability": "view",
      "type": "function"
    },
    {
      "inputs": [],
      "name": "getRentalStatus",
      "outputs": [
        {
          "internalType": "enum Rental.RentalStatus",
          "name": "",
          "type": "uint8"
        }
      ],
      "stateMutability": "view",
      "type": "function"
    },
    {
      "inputs": [
        {
          "internalType": "string[]",
          "name": "_ownerProofOfTransfer",
          "type": "string[]"
        },
        {
          "internalType": "uint256",
          "name": "_ownerDeposit",
          "type": "uint256"
        }
      ],
      "name": "uploadOwnerProofOfTransferAndPayDeposit",
      "outputs": [],
      "stateMutability": "payable",
      "type": "function"
    },
    {
      "inputs": [
        {
          "internalType": "string[]",
          "name": "_renterProofOfReturn",
          "type": "string[]"
        }
      ],
      "name": "uploadRenterProofOfReturn",
      "outputs": [],
      "stateMutability": "nonpayable",
      "type": "function"
    },
    {
      "inputs": [
        {
          "internalType": "uint256",
          "name": "_amount",
          "type": "uint256"
        }
      ],
      "name": "payRentalIncludingLateFees",
      "outputs": [],
      "stateMutability": "payable",
      "type": "function"
    },
    {
      "inputs": [],
      "name": "settleDeposit",
      "outputs": [],
      "stateMutability": "nonpayable",
      "type": "function"
    },
    {
      "inputs": [],
      "name": "settleRentalAfterFiveLateDays",
      "outputs": [],
      "stateMutability": "payable",
      "type": "function"
    }
  ],
  "bytecode": "0x6080604052604051620014f5380380620014f5833981016040819052620000269162000388565b604051638dfd0b0360e01b81526004810184905273__Utils_________________________________90638dfd0b039060240160206040518083038186803b1580156200007257600080fd5b505af415801562000087573d6000803e3d6000fd5b505050506040513d601f19601f82011682018060405250810190620000ad91906200052f565b3414620001165760405162461bcd60e51b815260206004820152602d60248201527f56616c7565207472616e736665726564206e6f7420657175616c20746f20726560448201526c1c5d5a5c995908185b5bdd5b9d609a1b606482015260840160405180910390fd5b600080546001600160a01b039889166001600160a01b03199182161790915560a08701516001556020909601516009805491891691909716179095556002805494909616610100026001600160a81b03199094169390931790945560039390935560045560055560075562000549565b6001600160a01b03811681146200019c57600080fd5b50565b8051620001ac8162000186565b919050565b634e487b7160e01b600052604160045260246000fd5b60405161014081016001600160401b0381118282101715620001ed57620001ed620001b1565b60405290565b604051601f8201601f191681016001600160401b03811182821017156200021e576200021e620001b1565b604052919050565b600082601f8301126200023857600080fd5b81516001600160401b03811115620002545762000254620001b1565b60206200026a601f8301601f19168201620001f3565b82815285828487010111156200027f57600080fd5b60005b838110156200029f57858101830151828201840152820162000282565b83811115620002b15760008385840101525b5095945050505050565b805160ff81168114620001ac57600080fd5b80518015158114620001ac57600080fd5b600082601f830112620002f057600080fd5b815160206001600160401b03808311156200030f576200030f620001b1565b8260051b62000320838201620001f3565b93845285810183019383810190888611156200033b57600080fd5b84880192505b858310156200037c578251848111156200035b5760008081fd5b6200036b8a87838c010162000226565b835250918401919084019062000341565b98975050505050505050565b600080600080600080600060e0888a031215620003a457600080fd5b8751620003b18162000186565b60208901519097506001600160401b0380821115620003cf57600080fd5b90890190610140828c031215620003e557600080fd5b620003ef620001c7565b620003fa836200019f565b81526200040a602084016200019f565b60208201526040830151828111156200042257600080fd5b620004308d82860162000226565b6040830152506060830151828111156200044957600080fd5b620004578d82860162000226565b6060830152506080830151828111156200047057600080fd5b6200047e8d82860162000226565b60808301525060a083015160a08201526200049c60c08401620002bb565b60c0820152620004af60e08401620002bb565b60e0820152610100620004c4818501620002cd565b908201526101208381015183811115620004dd57600080fd5b620004eb8e828701620002de565b82840152505080985050505062000505604089016200019f565b9450606088015193506080880151925060a0880151915060c0880151905092959891949750929550565b6000602082840312156200054257600080fd5b5051919050565b610f9c80620005596000396000f3fe60806040526004361061007b5760003560e01c80639c29a3ed1161004e5780639c29a3ed146100dd578063c3efc734146100fd578063cbfbb5a31461011d578063e1439c6b1461012557600080fd5b8063022576f014610080578063559ec80d146100955780636f9fb98a146100aa57806385411c8e146100ca575b600080fd5b61009361008e366004610c3d565b61015b565b005b3480156100a157600080fd5b50610093610349565b3480156100b657600080fd5b506040514781526020015b60405180910390f35b6100936100d8366004610d92565b6105c4565b3480156100e957600080fd5b506100936100f8366004610dd7565b610778565b34801561010957600080fd5b5060025460ff166040516100c19190610e2a565b6100936108b9565b34801561013157600080fd5b5060025461010090046001600160a01b03166040516001600160a01b0390911681526020016100c1565b60025461010090046001600160a01b031633146101bf5760405162461bcd60e51b815260206004820152601e60248201527f4d6574686f64206973207265737472696374656420746f2052656e746572000060448201526064015b60405180910390fd5b604051638dfd0b0360e01b81526004810182905273__Utils_________________________________90638dfd0b039060240160206040518083038186803b15801561020a57600080fd5b505af415801561021e573d6000803e3d6000fd5b505050506040513d601f19601f820116820180604052508101906102429190610e52565b34146102605760405162461bcd60e51b81526004016101b690610e6b565b600754604051638dfd0b0360e01b8152600481019190915273__Utils_________________________________90638dfd0b039060240160206040518083038186803b1580156102af57600080fd5b505af41580156102c3573d6000803e3d6000fd5b505050506040513d601f19601f820116820180604052508101906102e79190610e52565b3410156103445760405162461bcd60e51b815260206004820152602560248201527f52656e74616c2070616964206c657373207468616e20726571756972656420616044820152641b5bdd5b9d60da1b60648201526084016101b6565b600855565b6009546001600160a01b031633146103735760405162461bcd60e51b81526004016101b690610eb8565b6002805460ff16600581111561038b5761038b610e14565b14801561039b5750600754600854145b6104025760405162461bcd60e51b815260206004820152603260248201527f556e61626c6520746f20636c61696d207061796d656e7420776974682063757260448201527172656e742072656e74616c2073746174757360701b60648201526084016101b6565b6000600a54118061041557506000600354115b6104615760405162461bcd60e51b815260206004820152601d60248201527f4e6f2072656d61696e696e67206465706f73697420746f20636c61696d00000060448201526064016101b6565b600254600354604051638dfd0b0360e01b815260048101919091526101009091046001600160a01b0316906108fc9073__Utils_________________________________90638dfd0b039060240160206040518083038186803b1580156104c757600080fd5b505af41580156104db573d6000803e3d6000fd5b505050506040513d601f19601f820116820180604052508101906104ff9190610e52565b6040518115909202916000818181858888f19350505050158015610527573d6000803e3d6000fd5b506009546040516001600160a01b03909116904780156108fc02916000818181858888f19350505050158015610561573d6000803e3d6000fd5b50471561057057610570610eef565b6002805460ff19166003179055600054604080516001600160a01b0390921682523060208301527f6a5d55ef84f2d6da57cc86de121fc1c7a8392770ff8f357998e87beb5c310491910160405180910390a1565b6009546001600160a01b031633146105ee5760405162461bcd60e51b81526004016101b690610eb8565b604051638dfd0b0360e01b81526004810182905273__Utils_________________________________90638dfd0b039060240160206040518083038186803b15801561063957600080fd5b505af415801561064d573d6000803e3d6000fd5b505050506040513d601f19601f820116820180604052508101906106719190610e52565b341461068f5760405162461bcd60e51b81526004016101b690610e6b565b600060025460ff1660058111156106a8576106a8610e14565b146106f55760405162461bcd60e51b815260206004820181905260248201527f496e76616c69642072656e74616c2073746174757320666f72206d6574686f6460448201526064016101b6565b600a819055815161070d90600b906020850190610af1565b506002805460ff191660011790819055600054600954604080516001600160a01b039384168152610100909404831660208501529116908201527fbee4505063610f2c2522d8c40dc9c857aeceb46a2fcecc7051c9d28a42312e239060600160405180910390a15050565b60025461010090046001600160a01b031633146107d75760405162461bcd60e51b815260206004820152601e60248201527f4d6574686f64206973207265737472696374656420746f2052656e746572000060448201526064016101b6565b6007546008541461083f5760405162461bcd60e51b815260206004820152602c60248201527f52656e74616c2066656573206861766520746f2062652070616964206265666f60448201526b72652072657475726e696e6760a01b60648201526084016101b6565b8051610852906006906020840190610af1565b506002805460ff1916811790819055600054600954604080516001600160a01b03938416815261010090940483166020850152911682820152517f2b7164dceeb2fccf197390bacb5fa0bceed217160220dd6b0e32124ab71fe8e09181900360600190a150565b6009546001600160a01b031633146108e35760405162461bcd60e51b81526004016101b690610eb8565b6005546108f39062069780610f05565b42116109545760405162461bcd60e51b815260206004820152602a60248201527f556e61626c6520746f20736574746c652072656e74616c206265666f72652035604482015269206c617465206461797360b01b60648201526084016101b6565b600160025460ff16600581111561096d5761096d610e14565b146109d55760405162461bcd60e51b815260206004820152603260248201527f556e61626c6520746f20736574746c652072656e74616c20776974682063757260448201527172656e742072656e74616c2073746174757360701b60648201526084016101b6565b6000546040516001620b258d60e21b03198152600260048201526001600160a01b0390911690819063ffd369cc90602401600060405180830381600087803b158015610a2057600080fd5b505af1158015610a34573d6000803e3d6000fd5b50506009546040516001600160a01b0390911692504780156108fc029250906000818181858888f19350505050158015610a72573d6000803e3d6000fd5b506000600260019054906101000a90046001600160a01b03169050806001600160a01b031663922b57fa6040518163ffffffff1660e01b8152600401600060405180830381600087803b158015610ac857600080fd5b505af1158015610adc573d6000803e3d6000fd5b50506002805460ff1916600317905550505050565b828054828255906000526020600020908101928215610b3e579160200282015b82811115610b3e5782518051610b2e918491602090910190610b4e565b5091602001919060010190610b11565b50610b4a929150610bce565b5090565b828054610b5a90610f2b565b90600052602060002090601f016020900481019282610b7c5760008555610bc2565b82601f10610b9557805160ff1916838001178555610bc2565b82800160010185558215610bc2579182015b82811115610bc2578251825591602001919060010190610ba7565b50610b4a929150610beb565b80821115610b4a576000610be28282610c00565b50600101610bce565b5b80821115610b4a5760008155600101610bec565b508054610c0c90610f2b565b6000825580601f10610c1c575050565b601f016020900490600052602060002090810190610c3a9190610beb565b50565b600060208284031215610c4f57600080fd5b5035919050565b634e487b7160e01b600052604160045260246000fd5b604051601f8201601f1916810167ffffffffffffffff81118282101715610c9557610c95610c56565b604052919050565b6000601f8381840112610caf57600080fd5b8235602067ffffffffffffffff80831115610ccc57610ccc610c56565b8260051b610cdb838201610c6c565b9384528681018301938381019089861115610cf557600080fd5b84890192505b85831015610d8557823584811115610d135760008081fd5b8901603f81018b13610d255760008081fd5b85810135604086821115610d3b57610d3b610c56565b610d4c828b01601f19168901610c6c565b8281528d82848601011115610d615760008081fd5b828285018a8301376000928101890192909252508352509184019190840190610cfb565b9998505050505050505050565b60008060408385031215610da557600080fd5b823567ffffffffffffffff811115610dbc57600080fd5b610dc885828601610c9d565b95602094909401359450505050565b600060208284031215610de957600080fd5b813567ffffffffffffffff811115610e0057600080fd5b610e0c84828501610c9d565b949350505050565b634e487b7160e01b600052602160045260246000fd5b6020810160068310610e4c57634e487b7160e01b600052602160045260246000fd5b91905290565b600060208284031215610e6457600080fd5b5051919050565b6020808252602d908201527f56616c7565207472616e736665726564206e6f7420657175616c20746f20726560408201526c1c5d5a5c995908185b5bdd5b9d609a1b606082015260800190565b6020808252601d908201527f4d6574686f64206973207265737472696374656420746f204f776e6572000000604082015260600190565b634e487b7160e01b600052600160045260246000fd5b60008219821115610f2657634e487b7160e01b600052601160045260246000fd5b500190565b600181811c90821680610f3f57607f821691505b60208210811415610f6057634e487b7160e01b600052602260045260246000fd5b5091905056fea26469706673582212208a033a4bd4b02d4fe1ada6f3095ad053de1faeb47d173f6b7c06a96d8b34f6d164736f6c63430008090033",
  "deployedBytecode": "0x60806040526004361061007b5760003560e01c80639c29a3ed1161004e5780639c29a3ed146100dd578063c3efc734146100fd578063cbfbb5a31461011d578063e1439c6b1461012557600080fd5b8063022576f014610080578063559ec80d146100955780636f9fb98a146100aa57806385411c8e146100ca575b600080fd5b61009361008e366004610c3d565b61015b565b005b3480156100a157600080fd5b50610093610349565b3480156100b657600080fd5b506040514781526020015b60405180910390f35b6100936100d8366004610d92565b6105c4565b3480156100e957600080fd5b506100936100f8366004610dd7565b610778565b34801561010957600080fd5b5060025460ff166040516100c19190610e2a565b6100936108b9565b34801561013157600080fd5b5060025461010090046001600160a01b03166040516001600160a01b0390911681526020016100c1565b60025461010090046001600160a01b031633146101bf5760405162461bcd60e51b815260206004820152601e60248201527f4d6574686f64206973207265737472696374656420746f2052656e746572000060448201526064015b60405180910390fd5b604051638dfd0b0360e01b81526004810182905273__Utils_________________________________90638dfd0b039060240160206040518083038186803b15801561020a57600080fd5b505af415801561021e573d6000803e3d6000fd5b505050506040513d601f19601f820116820180604052508101906102429190610e52565b34146102605760405162461bcd60e51b81526004016101b690610e6b565b600754604051638dfd0b0360e01b8152600481019190915273__Utils_________________________________90638dfd0b039060240160206040518083038186803b1580156102af57600080fd5b505af41580156102c3573d6000803e3d6000fd5b505050506040513d601f19601f820116820180604052508101906102e79190610e52565b3410156103445760405162461bcd60e51b815260206004820152602560248201527f52656e74616c2070616964206c657373207468616e20726571756972656420616044820152641b5bdd5b9d60da1b60648201526084016101b6565b600855565b6009546001600160a01b031633146103735760405162461bcd60e51b81526004016101b690610eb8565b6002805460ff16600581111561038b5761038b610e14565b14801561039b5750600754600854145b6104025760405162461bcd60e51b815260206004820152603260248201527f556e61626c6520746f20636c61696d207061796d656e7420776974682063757260448201527172656e742072656e74616c2073746174757360701b60648201526084016101b6565b6000600a54118061041557506000600354115b6104615760405162461bcd60e51b815260206004820152601d60248201527f4e6f2072656d61696e696e67206465706f73697420746f20636c61696d00000060448201526064016101b6565b600254600354604051638dfd0b0360e01b815260048101919091526101009091046001600160a01b0316906108fc9073__Utils_________________________________90638dfd0b039060240160206040518083038186803b1580156104c757600080fd5b505af41580156104db573d6000803e3d6000fd5b505050506040513d601f19601f820116820180604052508101906104ff9190610e52565b6040518115909202916000818181858888f19350505050158015610527573d6000803e3d6000fd5b506009546040516001600160a01b03909116904780156108fc02916000818181858888f19350505050158015610561573d6000803e3d6000fd5b50471561057057610570610eef565b6002805460ff19166003179055600054604080516001600160a01b0390921682523060208301527f6a5d55ef84f2d6da57cc86de121fc1c7a8392770ff8f357998e87beb5c310491910160405180910390a1565b6009546001600160a01b031633146105ee5760405162461bcd60e51b81526004016101b690610eb8565b604051638dfd0b0360e01b81526004810182905273__Utils_________________________________90638dfd0b039060240160206040518083038186803b15801561063957600080fd5b505af415801561064d573d6000803e3d6000fd5b505050506040513d601f19601f820116820180604052508101906106719190610e52565b341461068f5760405162461bcd60e51b81526004016101b690610e6b565b600060025460ff1660058111156106a8576106a8610e14565b146106f55760405162461bcd60e51b815260206004820181905260248201527f496e76616c69642072656e74616c2073746174757320666f72206d6574686f6460448201526064016101b6565b600a819055815161070d90600b906020850190610af1565b506002805460ff191660011790819055600054600954604080516001600160a01b039384168152610100909404831660208501529116908201527fbee4505063610f2c2522d8c40dc9c857aeceb46a2fcecc7051c9d28a42312e239060600160405180910390a15050565b60025461010090046001600160a01b031633146107d75760405162461bcd60e51b815260206004820152601e60248201527f4d6574686f64206973207265737472696374656420746f2052656e746572000060448201526064016101b6565b6007546008541461083f5760405162461bcd60e51b815260206004820152602c60248201527f52656e74616c2066656573206861766520746f2062652070616964206265666f60448201526b72652072657475726e696e6760a01b60648201526084016101b6565b8051610852906006906020840190610af1565b506002805460ff1916811790819055600054600954604080516001600160a01b03938416815261010090940483166020850152911682820152517f2b7164dceeb2fccf197390bacb5fa0bceed217160220dd6b0e32124ab71fe8e09181900360600190a150565b6009546001600160a01b031633146108e35760405162461bcd60e51b81526004016101b690610eb8565b6005546108f39062069780610f05565b42116109545760405162461bcd60e51b815260206004820152602a60248201527f556e61626c6520746f20736574746c652072656e74616c206265666f72652035604482015269206c617465206461797360b01b60648201526084016101b6565b600160025460ff16600581111561096d5761096d610e14565b146109d55760405162461bcd60e51b815260206004820152603260248201527f556e61626c6520746f20736574746c652072656e74616c20776974682063757260448201527172656e742072656e74616c2073746174757360701b60648201526084016101b6565b6000546040516001620b258d60e21b03198152600260048201526001600160a01b0390911690819063ffd369cc90602401600060405180830381600087803b158015610a2057600080fd5b505af1158015610a34573d6000803e3d6000fd5b50506009546040516001600160a01b0390911692504780156108fc029250906000818181858888f19350505050158015610a72573d6000803e3d6000fd5b506000600260019054906101000a90046001600160a01b03169050806001600160a01b031663922b57fa6040518163ffffffff1660e01b8152600401600060405180830381600087803b158015610ac857600080fd5b505af1158015610adc573d6000803e3d6000fd5b50506002805460ff1916600317905550505050565b828054828255906000526020600020908101928215610b3e579160200282015b82811115610b3e5782518051610b2e918491602090910190610b4e565b5091602001919060010190610b11565b50610b4a929150610bce565b5090565b828054610b5a90610f2b565b90600052602060002090601f016020900481019282610b7c5760008555610bc2565b82601f10610b9557805160ff1916838001178555610bc2565b82800160010185558215610bc2579182015b82811115610bc2578251825591602001919060010190610ba7565b50610b4a929150610beb565b80821115610b4a576000610be28282610c00565b50600101610bce565b5b80821115610b4a5760008155600101610bec565b508054610c0c90610f2b565b6000825580601f10610c1c575050565b601f016020900490600052602060002090810190610c3a9190610beb565b50565b600060208284031215610c4f57600080fd5b5035919050565b634e487b7160e01b600052604160045260246000fd5b604051601f8201601f1916810167ffffffffffffffff81118282101715610c9557610c95610c56565b604052919050565b6000601f8381840112610caf57600080fd5b8235602067ffffffffffffffff80831115610ccc57610ccc610c56565b8260051b610cdb838201610c6c565b9384528681018301938381019089861115610cf557600080fd5b84890192505b85831015610d8557823584811115610d135760008081fd5b8901603f81018b13610d255760008081fd5b85810135604086821115610d3b57610d3b610c56565b610d4c828b01601f19168901610c6c565b8281528d82848601011115610d615760008081fd5b828285018a8301376000928101890192909252508352509184019190840190610cfb565b9998505050505050505050565b60008060408385031215610da557600080fd5b823567ffffffffffffffff811115610dbc57600080fd5b610dc885828601610c9d565b95602094909401359450505050565b600060208284031215610de957600080fd5b813567ffffffffffffffff811115610e0057600080fd5b610e0c84828501610c9d565b949350505050565b634e487b7160e01b600052602160045260246000fd5b6020810160068310610e4c57634e487b7160e01b600052602160045260246000fd5b91905290565b600060208284031215610e6457600080fd5b5051919050565b6020808252602d908201527f56616c7565207472616e736665726564206e6f7420657175616c20746f20726560408201526c1c5d5a5c995908185b5bdd5b9d609a1b606082015260800190565b6020808252601d908201527f4d6574686f64206973207265737472696374656420746f204f776e6572000000604082015260600190565b634e487b7160e01b600052600160045260246000fd5b60008219821115610f2657634e487b7160e01b600052601160045260246000fd5b500190565b600181811c90821680610f3f57607f821691505b60208210811415610f6057634e487b7160e01b600052602260045260246000fd5b5091905056fea26469706673582212208a033a4bd4b02d4fe1ada6f3095ad053de1faeb47d173f6b7c06a96d8b34f6d164736f6c63430008090033",
  "immutableReferences": {},
  "source": "// SPDX-License-Identifier: GPL-3.0\n\npragma solidity >=0.7.0 <0.9.0;\n\nimport \"./User.sol\";\nimport \"./Item.sol\";\nimport \"./helpers/Utils.sol\";\nimport \"./helpers/Structs.sol\";\n\ncontract Rental {\n    using Utils for *;\n    using Structs for *;\n\n    enum RentalStatus {\n        CREATED,\n        RENTED,\n        RETURNED,\n        END,\n        OWNERDISPUTE,\n        RENTERDISPUTE\n    }\n\n    //--All fees unit are in gwei--//\n\n    address private itemContract;\n    uint256 private rentPerDay;\n\n    RentalStatus private rentalStatus;\n    address payable private renterAddress;\n    uint256 private renterDeposit;\n    uint256 private start;\n    uint256 private end;\n    string[] private renterProofOfReturn; // IPFS hashes\n\n    uint256 private rentalFees;\n    uint256 private rentalFeesPaid;\n\n    address payable private ownerAddress;\n    uint256 private ownerDeposit;\n    string[] private ownerProofOfTransfer; // IPFS hashes\n\n    event itemRented(\n        address itemContract,\n        address renterAddress,\n        address ownerAddress\n    );\n\n    event itemReturned(\n        address itemContract,\n        address renterAddress,\n        address ownerAddress\n    );\n\n    event rentalEnded(address itemContract, address rentalContract);\n\n    constructor(\n        address _itemContract,\n        Structs.ItemDetails memory _itemDetails,\n        address payable _renterAddress,\n        uint256 _rentalFees,\n        uint256 _renterDeposit,\n        uint256 _start,\n        uint256 _end\n    ) payable {\n        require(\n            msg.value == Utils.gweiToWei(_renterDeposit),\n            \"Value transfered not equal to required amount\"\n        );\n\n        itemContract = _itemContract;\n        rentPerDay = _itemDetails.rentPerDay;\n        ownerAddress = _itemDetails.ownerAddress;\n\n        rentalStatus = RentalStatus.CREATED;\n        renterAddress = _renterAddress;\n        renterDeposit = _renterDeposit;\n        start = _start;\n        end = _end;\n\n        rentalFees = _rentalFees;\n    }\n\n    modifier onlyOwner() {\n        require(msg.sender == ownerAddress, \"Method is restricted to Owner\");\n        _;\n    }\n\n    modifier onlyRenter() {\n        require(msg.sender == renterAddress, \"Method is restricted to Renter\");\n        _;\n    }\n\n    function getRenterAddress() public view returns (address) {\n        return renterAddress;\n    }\n\n    function getContractBalance() public view returns (uint256) {\n        return address(this).balance;\n    }\n\n    function getRentalStatus() public view returns (RentalStatus) {\n        return rentalStatus;\n    }\n\n    function uploadOwnerProofOfTransferAndPayDeposit(\n        string[] memory _ownerProofOfTransfer,\n        uint256 _ownerDeposit\n    ) public payable onlyOwner {\n        require(\n            msg.value == Utils.gweiToWei(_ownerDeposit),\n            \"Value transfered not equal to required amount\"\n        );\n        require(\n            rentalStatus == RentalStatus.CREATED,\n            \"Invalid rental status for method\"\n        );\n\n        ownerDeposit = _ownerDeposit;\n        ownerProofOfTransfer = _ownerProofOfTransfer;\n        rentalStatus = RentalStatus.RENTED;\n\n        emit itemRented(itemContract, renterAddress, ownerAddress);\n    }\n\n    function uploadRenterProofOfReturn(string[] memory _renterProofOfReturn)\n        public\n        onlyRenter\n    {\n        require(\n            rentalFeesPaid == rentalFees,\n            \"Rental fees have to be paid before returning\"\n        );\n\n        renterProofOfReturn = _renterProofOfReturn;\n        rentalStatus = RentalStatus.RETURNED;\n\n        emit itemReturned(itemContract, renterAddress, ownerAddress);\n    }\n\n    function payRentalIncludingLateFees(uint256 _amount)\n        public\n        payable\n        onlyRenter\n    {\n        require(\n            msg.value == Utils.gweiToWei(_amount),\n            \"Value transfered not equal to required amount\"\n        );\n        require(\n            msg.value >= Utils.gweiToWei(rentalFees),\n            \"Rental paid less than required amount\"\n        );\n\n        rentalFeesPaid = _amount;\n    }\n\n    // owner gets back deposit and receives rental fees paid, renter gets back deposit\n    function settleDeposit() public onlyOwner {\n        require(\n            rentalStatus == RentalStatus.RETURNED &&\n                rentalFeesPaid == rentalFees,\n            \"Unable to claim payment with current rental status\"\n        );\n        require(\n            ownerDeposit > 0 || renterDeposit > 0,\n            \"No remaining deposit to claim\"\n        );\n\n        renterAddress.transfer(Utils.gweiToWei(renterDeposit));\n        ownerAddress.transfer(address(this).balance);\n\n        assert(address(this).balance == 0);\n        rentalStatus = RentalStatus.END;\n\n        emit rentalEnded(itemContract, address(this));\n    }\n\n    function settleRentalAfterFiveLateDays() public payable onlyOwner {\n        require(\n            block.timestamp > end + (5 * 24 * 60 * 60),\n            \"Unable to settle rental before 5 late days\"\n        );\n        require(\n            rentalStatus == RentalStatus.RENTED,\n            \"Unable to settle rental with current rental status\"\n        );\n        // change item status\n        Item item = Item(itemContract);\n        item.changeItemStatus(2); // DELETED\n        // transfer all balance in the contract to owner\n        ownerAddress.transfer(address(this).balance);\n        // set renter as dishonest user\n        User user = User(renterAddress);\n        user.setAsDishonest();\n        rentalStatus = RentalStatus.END;\n    }\n}\n",
  "sourcePath": "/Users/jyuteo/CodeProjects/TRent/smart-contracts/src/contracts/Rental.sol",
  "compiler": {
    "name": "solc",
    "version": "0.8.9+commit.e5eed63a.Emscripten.clang"
  },
  "schemaVersion": "3.4.3",
  "updatedAt": "2021-10-11T12:11:50.732Z",
  "networkType": "ethereum",
  "devdoc": {
    "kind": "dev",
    "methods": {},
    "version": 1
  },
  "userdoc": {
    "kind": "user",
    "methods": {},
    "version": 1
  }
}