{
  "contractName": "User",
  "abi": [
    {
      "inputs": [
        {
          "internalType": "address",
          "name": "_userAddress",
          "type": "address"
        },
        {
          "internalType": "string",
          "name": "_username",
          "type": "string"
        },
        {
          "internalType": "string",
          "name": "_deliveryAddress",
          "type": "string"
        }
      ],
      "stateMutability": "nonpayable",
      "type": "constructor"
    },
    {
      "anonymous": false,
      "inputs": [
        {
          "indexed": true,
          "internalType": "address",
          "name": "userAddress",
          "type": "address"
        },
        {
          "indexed": false,
          "internalType": "string",
          "name": "newDeliveryAddress",
          "type": "string"
        }
      ],
      "name": "deliveryAddressChanged",
      "type": "event"
    },
    {
      "anonymous": false,
      "inputs": [
        {
          "indexed": true,
          "internalType": "address",
          "name": "from",
          "type": "address"
        },
        {
          "indexed": false,
          "internalType": "uint8",
          "name": "rate",
          "type": "uint8"
        },
        {
          "indexed": false,
          "internalType": "uint8",
          "name": "reviewCount",
          "type": "uint8"
        }
      ],
      "name": "newReviewInput",
      "type": "event"
    },
    {
      "anonymous": false,
      "inputs": [
        {
          "indexed": true,
          "internalType": "address",
          "name": "userAddress",
          "type": "address"
        },
        {
          "indexed": false,
          "internalType": "string",
          "name": "newUsername",
          "type": "string"
        }
      ],
      "name": "usernameChanged",
      "type": "event"
    },
    {
      "inputs": [],
      "name": "borrowingCount",
      "outputs": [
        {
          "internalType": "uint8",
          "name": "",
          "type": "uint8"
        }
      ],
      "stateMutability": "view",
      "type": "function"
    },
    {
      "inputs": [],
      "name": "deliveryAddress",
      "outputs": [
        {
          "internalType": "string",
          "name": "",
          "type": "string"
        }
      ],
      "stateMutability": "view",
      "type": "function"
    },
    {
      "inputs": [],
      "name": "isDishonestUser",
      "outputs": [
        {
          "internalType": "bool",
          "name": "",
          "type": "bool"
        }
      ],
      "stateMutability": "view",
      "type": "function"
    },
    {
      "inputs": [],
      "name": "lendingCount",
      "outputs": [
        {
          "internalType": "uint8",
          "name": "",
          "type": "uint8"
        }
      ],
      "stateMutability": "view",
      "type": "function"
    },
    {
      "inputs": [
        {
          "internalType": "uint256",
          "name": "",
          "type": "uint256"
        }
      ],
      "name": "rentalHistories",
      "outputs": [
        {
          "internalType": "address",
          "name": "itemContract",
          "type": "address"
        },
        {
          "internalType": "address",
          "name": "rentalContract",
          "type": "address"
        },
        {
          "internalType": "enum User.Role",
          "name": "role",
          "type": "uint8"
        },
        {
          "internalType": "bool",
          "name": "hasRated",
          "type": "bool"
        },
        {
          "internalType": "uint256",
          "name": "start",
          "type": "uint256"
        },
        {
          "internalType": "uint256",
          "name": "end",
          "type": "uint256"
        }
      ],
      "stateMutability": "view",
      "type": "function"
    },
    {
      "inputs": [],
      "name": "rentalHistoryCount",
      "outputs": [
        {
          "internalType": "uint8",
          "name": "",
          "type": "uint8"
        }
      ],
      "stateMutability": "view",
      "type": "function"
    },
    {
      "inputs": [
        {
          "internalType": "address",
          "name": "",
          "type": "address"
        }
      ],
      "name": "rentalIndexInRentalHistory",
      "outputs": [
        {
          "internalType": "uint8",
          "name": "",
          "type": "uint8"
        }
      ],
      "stateMutability": "view",
      "type": "function"
    },
    {
      "inputs": [],
      "name": "reviewCount",
      "outputs": [
        {
          "internalType": "uint8",
          "name": "",
          "type": "uint8"
        }
      ],
      "stateMutability": "view",
      "type": "function"
    },
    {
      "inputs": [
        {
          "internalType": "uint256",
          "name": "",
          "type": "uint256"
        }
      ],
      "name": "reviews",
      "outputs": [
        {
          "internalType": "address",
          "name": "itemContract",
          "type": "address"
        },
        {
          "internalType": "address",
          "name": "rentalContract",
          "type": "address"
        },
        {
          "internalType": "address",
          "name": "raterUserContract",
          "type": "address"
        },
        {
          "internalType": "uint8",
          "name": "rate",
          "type": "uint8"
        },
        {
          "internalType": "string",
          "name": "review",
          "type": "string"
        },
        {
          "internalType": "enum User.Role",
          "name": "role",
          "type": "uint8"
        },
        {
          "internalType": "uint256",
          "name": "time",
          "type": "uint256"
        }
      ],
      "stateMutability": "view",
      "type": "function"
    },
    {
      "inputs": [],
      "name": "userAddress",
      "outputs": [
        {
          "internalType": "address",
          "name": "",
          "type": "address"
        }
      ],
      "stateMutability": "view",
      "type": "function"
    },
    {
      "inputs": [],
      "name": "username",
      "outputs": [
        {
          "internalType": "string",
          "name": "",
          "type": "string"
        }
      ],
      "stateMutability": "view",
      "type": "function"
    },
    {
      "inputs": [],
      "name": "getUserAddress",
      "outputs": [
        {
          "internalType": "address",
          "name": "",
          "type": "address"
        }
      ],
      "stateMutability": "view",
      "type": "function"
    },
    {
      "inputs": [],
      "name": "getDeliveryAddress",
      "outputs": [
        {
          "internalType": "string",
          "name": "",
          "type": "string"
        }
      ],
      "stateMutability": "view",
      "type": "function"
    },
    {
      "inputs": [],
      "name": "getUsername",
      "outputs": [
        {
          "internalType": "string",
          "name": "",
          "type": "string"
        }
      ],
      "stateMutability": "view",
      "type": "function"
    },
    {
      "inputs": [
        {
          "internalType": "string",
          "name": "_newUsername",
          "type": "string"
        }
      ],
      "name": "changeUsername",
      "outputs": [],
      "stateMutability": "nonpayable",
      "type": "function"
    },
    {
      "inputs": [
        {
          "internalType": "string",
          "name": "_newDeliveryAddress",
          "type": "string"
        }
      ],
      "name": "changeDeliveryAddress",
      "outputs": [],
      "stateMutability": "nonpayable",
      "type": "function"
    },
    {
      "inputs": [
        {
          "internalType": "uint8",
          "name": "_index",
          "type": "uint8"
        }
      ],
      "name": "setRentalHisotryHasRated",
      "outputs": [],
      "stateMutability": "nonpayable",
      "type": "function"
    },
    {
      "inputs": [
        {
          "internalType": "address",
          "name": "_item",
          "type": "address"
        },
        {
          "internalType": "address",
          "name": "_rental",
          "type": "address"
        },
        {
          "internalType": "uint256",
          "name": "_start",
          "type": "uint256"
        },
        {
          "internalType": "uint256",
          "name": "_end",
          "type": "uint256"
        }
      ],
      "name": "addNewLending",
      "outputs": [],
      "stateMutability": "nonpayable",
      "type": "function"
    },
    {
      "inputs": [
        {
          "internalType": "address",
          "name": "_item",
          "type": "address"
        },
        {
          "internalType": "address",
          "name": "_rental",
          "type": "address"
        },
        {
          "internalType": "uint256",
          "name": "_start",
          "type": "uint256"
        },
        {
          "internalType": "uint256",
          "name": "_end",
          "type": "uint256"
        }
      ],
      "name": "addNewBorrowing",
      "outputs": [],
      "stateMutability": "nonpayable",
      "type": "function"
    },
    {
      "inputs": [
        {
          "internalType": "address",
          "name": "_item",
          "type": "address"
        },
        {
          "internalType": "address",
          "name": "_rentalContract",
          "type": "address"
        },
        {
          "internalType": "address",
          "name": "_raterUserContract",
          "type": "address"
        },
        {
          "internalType": "uint8",
          "name": "_rate",
          "type": "uint8"
        },
        {
          "internalType": "string",
          "name": "_review",
          "type": "string"
        },
        {
          "internalType": "enum User.Role",
          "name": "_role",
          "type": "uint8"
        }
      ],
      "name": "inputReview",
      "outputs": [],
      "stateMutability": "nonpayable",
      "type": "function"
    },
    {
      "inputs": [],
      "name": "getRatingsSum",
      "outputs": [
        {
          "internalType": "uint256",
          "name": "",
          "type": "uint256"
        }
      ],
      "stateMutability": "view",
      "type": "function"
    },
    {
      "inputs": [],
      "name": "setAsDishonest",
      "outputs": [],
      "stateMutability": "nonpayable",
      "type": "function"
    }
  ],
  "bytecode": "0x60806040523480156200001157600080fd5b50604051620016103803806200161083398101604081905262000034916200020e565b600180546001600160a01b0319166001600160a01b0385161790558151620000649060029060208501906200009b565b5080516200007a9060039060208401906200009b565b50506005805460ff1916905550506007805463ffffffff19169055620002d5565b828054620000a99062000298565b90600052602060002090601f016020900481019282620000cd576000855562000118565b82601f10620000e857805160ff191683800117855562000118565b8280016001018555821562000118579182015b8281111562000118578251825591602001919060010190620000fb565b50620001269291506200012a565b5090565b5b808211156200012657600081556001016200012b565b634e487b7160e01b600052604160045260246000fd5b600082601f8301126200016957600080fd5b81516001600160401b038082111562000186576200018662000141565b604051601f8301601f19908116603f01168101908282118183101715620001b157620001b162000141565b81604052838152602092508683858801011115620001ce57600080fd5b600091505b83821015620001f25785820183015181830184015290820190620001d3565b83821115620002045760008385830101525b9695505050505050565b6000806000606084860312156200022457600080fd5b83516001600160a01b03811681146200023c57600080fd5b60208501519093506001600160401b03808211156200025a57600080fd5b620002688783880162000157565b935060408601519150808211156200027f57600080fd5b506200028e8682870162000157565b9150509250925092565b600181811c90821680620002ad57607f821691505b60208210811415620002cf57634e487b7160e01b600052602260045260246000fd5b50919050565b61132b80620002e56000396000f3fe608060405234801561001057600080fd5b50600436106101425760003560e01c8063922b57fa116100b8578063c2bd81191161007c578063c2bd81191461029e578063e4128fb3146102a6578063e83ddcea146102d1578063e85e79b6146102f7578063ebc3eee81461031c578063eff5924f1461032d57600080fd5b8063922b57fa14610238578063927584b91461025057806395578e5814610266578063a934899514610279578063b35ddf941461028c57600080fd5b806361fac54d1161010a57806361fac54d146101cc578063681f3e6d146101d4578063683ab917146101dc57806377c846af146101ef578063886f1bb91461020257806390f1af6c1461021557600080fd5b80632254df251461014757806326f2d18b1461017057806332cc4e81146101855780633733d9f5146101a457806350d9de1d146101b9575b600080fd5b60075461015b906301000000900460ff1681565b60405190151581526020015b60405180910390f35b61018361017e366004610e83565b61033a565b005b6005546101929060ff1681565b60405160ff9091168152602001610167565b6101ac61037a565b6040516101679190610ef4565b6007546101929062010000900460ff1681565b6101ac61040c565b6101ac61049a565b6101836101ea366004610f65565b6104a9565b6101836101fd36600461100b565b610897565b61018361021036600461100b565b610915565b61019261022336600461104d565b60006020819052908152604090205460ff1681565b6101836007805463ff00000019166301000000179055565b610258610987565b604051908152602001610167565b61018361027436600461106a565b6109ee565b61018361028736600461106a565b610bb7565b60075461019290610100900460ff1681565b6101ac610c0c565b6001546102b9906001600160a01b031681565b6040516001600160a01b039091168152602001610167565b6102e46102df3660046110b0565b610c19565b6040516101679796959493929190611101565b61030a6103053660046110b0565b610d08565b6040516101679695949392919061115f565b6001546001600160a01b03166102b9565b6007546101929060ff1681565b600060048260ff1681548110610352576103526111a1565b60009182526020909120600160049092020101805460ff60a81b1916600160a81b1790555050565b606060038054610389906111b7565b80601f01602080910402602001604051908101604052809291908181526020018280546103b5906111b7565b80156104025780601f106103d757610100808354040283529160200191610402565b820191906000526020600020905b8154815290600101906020018083116103e557829003601f168201915b5050505050905090565b60028054610419906111b7565b80601f0160208091040260200160405190810160405280929190818152602001828054610445906111b7565b80156104925780601f1061046757610100808354040283529160200191610492565b820191906000526020600020905b81548152906001019060200180831161047557829003601f168201915b505050505081565b606060028054610389906111b7565b6001546001600160a01b03163314156104dd5760405162461bcd60e51b81526004016104d4906111ec565b60405180910390fd5b60405163243c6bdb60e21b81526001600160a01b03888116600483015286916000918316906390f1af6c9060240160206040518083038186803b15801561052357600080fd5b505afa158015610537573d6000803e3d6000fd5b505050506040513d601f19601f8201168201806040525081019061055b9190611223565b6040516326f2d18b60e01b815260ff821660048201529091506001600160a01b038316906326f2d18b90602401600060405180830381600087803b1580156105a257600080fd5b505af11580156105b6573d6000803e3d6000fd5b5050505060006040518060e001604052808b6001600160a01b031681526020018a6001600160a01b03168152602001896001600160a01b031681526020018860ff16815260200187878080601f01602080910402602001604051908101604052809392919081815260200183838082843760009201919091525050509082525060200185600181111561064b5761064b6110c9565b815242602091820152600680546001810182556000829052835191027ff652222313e28459528d920b65115c16c04f3efc82aaedc97be59f3f377c0d3f810180546001600160a01b039384166001600160a01b0319918216178255858501517ff652222313e28459528d920b65115c16c04f3efc82aaedc97be59f3f377c0d40840180549186169190921617905560408501517ff652222313e28459528d920b65115c16c04f3efc82aaedc97be59f3f377c0d4183018054606088015160ff16600160a01b026001600160a81b0319909116929095169190911793909317909255608084015180519495508594929361076b937ff652222313e28459528d920b65115c16c04f3efc82aaedc97be59f3f377c0d4290930192910190610d64565b5060a082015160048201805460ff19166001838181111561078e5761078e6110c9565b021790555060c091909101516005909101556007805460ff169060006107b383611256565b91906101000a81548160ff021916908360ff16021790555050826001600160a01b031663e4128fb36040518163ffffffff1660e01b815260040160206040518083038186803b15801561080557600080fd5b505afa158015610819573d6000803e3d6000fd5b505050506040513d601f19601f8201168201806040525081019061083d9190611276565b6007546040805160ff808c16825290921660208301526001600160a01b0392909216917f55b429f465f51ece29c8e23ac4a440fd26a290daa27c5cb884f632c15c1b9fdf910160405180910390a250505050505050505050565b6001546001600160a01b031633146108c15760405162461bcd60e51b81526004016104d4906111ec565b6108cd60028383610de8565b50336001600160a01b03167ff07516e9449b46121f3f7f7cb800fb5f90f7ee9e442a5479e8e3bab929d71b778383604051610909929190611293565b60405180910390a25050565b6001546001600160a01b0316331461093f5760405162461bcd60e51b81526004016104d4906111ec565b61094b60038383610de8565b50336001600160a01b03167ff01f8beedc6b4ff8605063d6b438798f7caa71e19ea3097a733f57c40072a3208383604051610909929190611293565b600080805b60075460ff168110156109e857600681815481106109ac576109ac6111a1565b60009182526020909120600690910201600201546109d490600160a01b900460ff16836112c2565b9150806109e0816112da565b91505061098c565b50919050565b6040805160c0810182526001600160a01b03808716825285166020820152600091810182815260006020820152604081018590526060018390526007805491925061010090910460ff16906001610a4483611256565b82546101009290920a60ff818102199093169190921691909102179055506004805460018181018355600083905283517f8a35acfbc15ff81a39ae7d344fd709f28e8600b4aa8c65c6b64bfe7fe36bd19b9290930291820180546001600160a01b03199081166001600160a01b0395861617825560208601517f8a35acfbc15ff81a39ae7d344fd709f28e8600b4aa8c65c6b64bfe7fe36bd19c909401805491821694909516938417855560408601518695929490936001600160a81b03199092161790600160a01b908490811115610b1f57610b1f6110c9565b02179055506060820151600182018054911515600160a81b0260ff60a81b199092169190911790556080820151600282015560a090910151600390910155600580546001600160a01b0387166000908152602081905260408120805460ff191660ff93841617905582549091169190610b9783611256565b91906101000a81548160ff021916908360ff160217905550505050505050565b6040805160c0810182526001600160a01b03868116825285166020820152600191810191909152600060608201526080810183905260a081018290526007805462010000900460ff16906002610a4483611256565b60038054610419906111b7565b60068181548110610c2957600080fd5b600091825260209091206006909102018054600182015460028301546003840180546001600160a01b0394851696509284169493821693600160a01b90920460ff1692610c75906111b7565b80601f0160208091040260200160405190810160405280929190818152602001828054610ca1906111b7565b8015610cee5780601f10610cc357610100808354040283529160200191610cee565b820191906000526020600020905b815481529060010190602001808311610cd157829003601f168201915b505050506004830154600590930154919260ff1691905087565b60048181548110610d1857600080fd5b600091825260209091206004909102018054600182015460028301546003909301546001600160a01b0392831694509181169260ff600160a01b8304811693600160a81b909304169186565b828054610d70906111b7565b90600052602060002090601f016020900481019282610d925760008555610dd8565b82601f10610dab57805160ff1916838001178555610dd8565b82800160010185558215610dd8579182015b82811115610dd8578251825591602001919060010190610dbd565b50610de4929150610e5c565b5090565b828054610df4906111b7565b90600052602060002090601f016020900481019282610e165760008555610dd8565b82601f10610e2f5782800160ff19823516178555610dd8565b82800160010185558215610dd8579182015b82811115610dd8578235825591602001919060010190610e41565b5b80821115610de45760008155600101610e5d565b60ff81168114610e8057600080fd5b50565b600060208284031215610e9557600080fd5b8135610ea081610e71565b9392505050565b6000815180845260005b81811015610ecd57602081850181015186830182015201610eb1565b81811115610edf576000602083870101525b50601f01601f19169290920160200192915050565b602081526000610ea06020830184610ea7565b6001600160a01b0381168114610e8057600080fd5b60008083601f840112610f2e57600080fd5b50813567ffffffffffffffff811115610f4657600080fd5b602083019150836020828501011115610f5e57600080fd5b9250929050565b600080600080600080600060c0888a031215610f8057600080fd5b8735610f8b81610f07565b96506020880135610f9b81610f07565b95506040880135610fab81610f07565b94506060880135610fbb81610e71565b9350608088013567ffffffffffffffff811115610fd757600080fd5b610fe38a828b01610f1c565b90945092505060a088013560028110610ffb57600080fd5b8091505092959891949750929550565b6000806020838503121561101e57600080fd5b823567ffffffffffffffff81111561103557600080fd5b61104185828601610f1c565b90969095509350505050565b60006020828403121561105f57600080fd5b8135610ea081610f07565b6000806000806080858703121561108057600080fd5b843561108b81610f07565b9350602085013561109b81610f07565b93969395505050506040820135916060013590565b6000602082840312156110c257600080fd5b5035919050565b634e487b7160e01b600052602160045260246000fd5b600281106110fd57634e487b7160e01b600052602160045260246000fd5b9052565b6001600160a01b03888116825287811660208301528616604082015260ff8516606082015260e06080820181905260009061113e90830186610ea7565b905061114d60a08301856110df565b8260c083015298975050505050505050565b6001600160a01b0387811682528616602082015260c0810161118460408301876110df565b9315156060820152608081019290925260a0909101529392505050565b634e487b7160e01b600052603260045260246000fd5b600181811c908216806111cb57607f821691505b602082108114156109e857634e487b7160e01b600052602260045260246000fd5b6020808252601c908201527f696e76616c6964207573657220666f722074686973206d6574686f6400000000604082015260600190565b60006020828403121561123557600080fd5b8151610ea081610e71565b634e487b7160e01b600052601160045260246000fd5b600060ff821660ff81141561126d5761126d611240565b60010192915050565b60006020828403121561128857600080fd5b8151610ea081610f07565b60208152816020820152818360408301376000818301604090810191909152601f909201601f19160101919050565b600082198211156112d5576112d5611240565b500190565b60006000198214156112ee576112ee611240565b506001019056fea2646970667358221220b0f8f62964df848b6223c5b3494b6449c04d23e44519b9546725616c8c81911c64736f6c63430008090033",
  "immutableReferences": {},
  "source": "// SPDX-License-Identifier: GPL-3.0\n\npragma solidity >=0.7.0 <0.9.0;\n\n// import \"./Item.sol\";\nimport \"./Rental.sol\";\n\ncontract User {\n    enum Role {\n        OWNER,\n        RENTER\n    }\n\n    struct RentalHistory {\n        address itemContract; // address of the deployed smart contract for the item\n        address rentalContract; // address of the deployed rental contract\n        Role role;\n        bool hasRated; // rate the opposite role in the contact\n        uint256 start; // Unix epoch time\n        uint256 end; // Unix epoch time\n    }\n\n    struct Review {\n        address itemContract;\n        address rentalContract;\n        address raterUserContract;\n        uint8 rate;\n        string review;\n        Role role; // role of the rater\n        uint256 time;\n    }\n\n    mapping(address => uint8) public rentalIndexInRentalHistory;\n\n    address public userAddress;\n    string public username;\n    string public deliveryAddress;\n\n    RentalHistory[] public rentalHistories;\n    uint8 public rentalHistoryCount;\n    Review[] public reviews;\n    uint8 public reviewCount;\n    uint8 public lendingCount;\n    uint8 public borrowingCount;\n    bool public isDishonestUser;\n\n    event usernameChanged(address indexed userAddress, string newUsername);\n    event deliveryAddressChanged(\n        address indexed userAddress,\n        string newDeliveryAddress\n    );\n    event newReviewInput(address indexed from, uint8 rate, uint8 reviewCount);\n\n    constructor(\n        address _userAddress,\n        string memory _username,\n        string memory _deliveryAddress\n    ) {\n        userAddress = _userAddress;\n        username = _username;\n        deliveryAddress = _deliveryAddress;\n\n        rentalHistoryCount = 0;\n        reviewCount = 0;\n        lendingCount = 0;\n        borrowingCount = 0;\n        isDishonestUser = false;\n    }\n\n    modifier onlyUser() {\n        require(msg.sender == userAddress, \"invalid user for this method\");\n        _;\n    }\n\n    modifier restricted() {\n        require(msg.sender != userAddress, \"invalid user for this method\");\n        _;\n    }\n\n    function getUserAddress() public view returns (address) {\n        return userAddress;\n    }\n\n    function getDeliveryAddress() public view returns (string memory) {\n        return deliveryAddress;\n    }\n\n    function getUsername() public view returns (string memory) {\n        return username;\n    }\n\n    function changeUsername(string calldata _newUsername) public onlyUser {\n        username = _newUsername;\n        emit usernameChanged(msg.sender, _newUsername);\n    }\n\n    function changeDeliveryAddress(string calldata _newDeliveryAddress)\n        public\n        onlyUser\n    {\n        deliveryAddress = _newDeliveryAddress;\n        emit deliveryAddressChanged(msg.sender, _newDeliveryAddress);\n    }\n\n    function setRentalHisotryHasRated(uint8 _index) public {\n        RentalHistory storage history = rentalHistories[_index];\n        history.hasRated = true;\n    }\n\n    // lending: user is owner\n    function addNewLending(\n        address _item,\n        address _rental,\n        uint256 _start,\n        uint256 _end\n    ) public {\n        RentalHistory memory history = RentalHistory({\n            itemContract: _item,\n            rentalContract: _rental,\n            role: Role.OWNER,\n            hasRated: false,\n            start: _start,\n            end: _end\n        });\n\n        lendingCount++;\n        rentalHistories.push(history);\n        rentalIndexInRentalHistory[_item] = rentalHistoryCount;\n        rentalHistoryCount++;\n    }\n\n    // borrowing: user is renter\n    function addNewBorrowing(\n        address _item,\n        address _rental,\n        uint256 _start,\n        uint256 _end\n    ) public {\n        RentalHistory memory history = RentalHistory({\n            itemContract: _item,\n            rentalContract: _rental,\n            role: Role.RENTER,\n            hasRated: false,\n            start: _start,\n            end: _end\n        });\n\n        borrowingCount++;\n        rentalHistories.push(history);\n        rentalIndexInRentalHistory[_item] = rentalHistoryCount;\n        rentalHistoryCount++;\n    }\n\n    function inputReview(\n        address _item,\n        address _rentalContract,\n        address _raterUserContract,\n        uint8 _rate,\n        string calldata _review,\n        Role _role // role of rater\n    ) public restricted {\n        // Item item = Item(_item);\n        User rater = User(_raterUserContract);\n        // Rental rental = Rental(_rentalContract);\n        uint8 rentalIndexOfRater = rater.rentalIndexInRentalHistory(_item);\n        rater.setRentalHisotryHasRated(rentalIndexOfRater);\n\n        Review memory newReview = Review({\n            itemContract: _item,\n            rentalContract: _rentalContract,\n            rate: _rate,\n            raterUserContract: _raterUserContract,\n            review: _review,\n            role: _role,\n            time: block.timestamp\n        });\n\n        reviews.push(newReview);\n        reviewCount++;\n\n        // if (_role == Role.RENTER) {\n        //     item.addItemReview(newReview);\n        // }\n\n        emit newReviewInput(rater.userAddress(), _rate, reviewCount);\n    }\n\n    function getRatingsSum() public view returns (uint256) {\n        uint256 sum = 0;\n        for (uint256 i = 0; i < reviewCount; i++) {\n            sum += reviews[i].rate;\n        }\n        return sum;\n    }\n\n    function setAsDishonest() public {\n        isDishonestUser = true;\n    }\n}\n",
  "sourcePath": "/Users/jyuteo/CodeProjects/TRent/smart-contracts/src/contracts/User.sol",
  "compiler": {
    "name": "solc",
    "version": "0.8.9+commit.e5eed63a.Emscripten.clang"
  },
  "schemaVersion": "3.4.3",
  "updatedAt": "2021-10-11T12:11:50.723Z",
  "networkType": "ethereum",
  "devdoc": {
    "kind": "dev",
    "methods": {},
    "version": 1
  },
  "userdoc": {
    "kind": "user",
    "methods": {},
    "version": 1
  }
}