{
  "contractName": "Utils",
  "abi": [
    {
      "inputs": [
        {
          "internalType": "uint256",
          "name": "_i",
          "type": "uint256"
        }
      ],
      "name": "uint2str",
      "outputs": [
        {
          "internalType": "string",
          "name": "str",
          "type": "string"
        }
      ],
      "stateMutability": "pure",
      "type": "function",
      "constant": true
    },
    {
      "inputs": [
        {
          "internalType": "address",
          "name": "x",
          "type": "address"
        }
      ],
      "name": "address2str",
      "outputs": [
        {
          "internalType": "string",
          "name": "",
          "type": "string"
        }
      ],
      "stateMutability": "pure",
      "type": "function",
      "constant": true
    },
    {
      "inputs": [
        {
          "internalType": "uint256",
          "name": "_time1",
          "type": "uint256"
        },
        {
          "internalType": "uint256",
          "name": "_time2",
          "type": "uint256"
        }
      ],
      "name": "getDaysBetween",
      "outputs": [
        {
          "internalType": "uint256",
          "name": "",
          "type": "uint256"
        }
      ],
      "stateMutability": "pure",
      "type": "function",
      "constant": true
    },
    {
      "inputs": [
        {
          "internalType": "uint256",
          "name": "_gwei",
          "type": "uint256"
        }
      ],
      "name": "gweiToWei",
      "outputs": [
        {
          "internalType": "uint256",
          "name": "",
          "type": "uint256"
        }
      ],
      "stateMutability": "pure",
      "type": "function",
      "constant": true
    }
  ],
  "bytecode": "0x61072861003a600b82828239805160001a60731461002d57634e487b7160e01b600052600060045260246000fd5b30600052607381538281f3fe73000000000000000000000000000000000000000030146080604052600436106100565760003560e01c806326d273371461005b5780634a58a14a146100845780638dfd0b03146100a5578063f76f950e146100b8575b600080fd5b61006e6100693660046103b7565b6100cb565b60405161007b91906103e7565b60405180910390f35b61009761009236600461043c565b610212565b60405190815260200161007b565b6100976100b336600461045e565b610268565b61006e6100c636600461045e565b610278565b60408051602880825260608281019093526000919060208201818036833701905050905060005b601481101561020b5760006101088260136104a3565b6101139060086104ba565b61011e9060026105bd565b610131906001600160a01b0387166105df565b60f81b9050600060108260f81c61014891906105f3565b60f81b905060008160f81c601061015f9190610615565b8360f81c61016d9190610636565b60f81b905061017b82610381565b856101878660026104ba565b8151811061019757610197610659565b60200101906001600160f81b031916908160001a9053506101b781610381565b856101c38660026104ba565b6101ce90600161066f565b815181106101de576101de610659565b60200101906001600160f81b031916908160001a905350505050808061020390610687565b9150506100f2565b5092915050565b60008061021f84846104a3565b905060006018603c806102346103e8866105df565b61023e91906105df565b61024891906105df565b61025291906105df565b61025d90600161066f565b925050505b92915050565b600061026282633b9aca006104ba565b60608161029c5750506040805180820190915260018152600360fc1b602082015290565b8160005b81156102c657806102b081610687565b91506102bf9050600a836105df565b91506102a0565b60008167ffffffffffffffff8111156102e1576102e1610477565b6040519080825280601f01601f19166020018201604052801561030b576020820181803683370190505b508593509050815b831561037857610324600a856106a2565b61032f90603061066f565b60f81b8261033c836106b6565b9250828151811061034f5761034f610659565b60200101906001600160f81b031916908160001a905350610371600a856105df565b9350610313565b50949350505050565b6000600a60f883901c10156103a85761039f60f883901c60306106cd565b60f81b92915050565b61039f60f883901c60576106cd565b6000602082840312156103c957600080fd5b81356001600160a01b03811681146103e057600080fd5b9392505050565b600060208083528351808285015260005b81811015610414578581018301518582016040015282016103f8565b81811115610426576000604083870101525b50601f01601f1916929092016040019392505050565b6000806040838503121561044f57600080fd5b50508035926020909101359150565b60006020828403121561047057600080fd5b5035919050565b634e487b7160e01b600052604160045260246000fd5b634e487b7160e01b600052601160045260246000fd5b6000828210156104b5576104b561048d565b500390565b60008160001904831182151516156104d4576104d461048d565b500290565b600181815b808511156105145781600019048211156104fa576104fa61048d565b8085161561050757918102915b93841c93908002906104de565b509250929050565b60008261052b57506001610262565b8161053857506000610262565b816001811461054e576002811461055857610574565b6001915050610262565b60ff8411156105695761056961048d565b50506001821b610262565b5060208310610133831016604e8410600b8410161715610597575081810a610262565b6105a183836104d9565b80600019048211156105b5576105b561048d565b029392505050565b60006103e0838361051c565b634e487b7160e01b600052601260045260246000fd5b6000826105ee576105ee6105c9565b500490565b600060ff831680610606576106066105c9565b8060ff84160491505092915050565b600060ff821660ff84168160ff04811182151516156105b5576105b561048d565b600060ff821660ff8416808210156106505761065061048d565b90039392505050565b634e487b7160e01b600052603260045260246000fd5b600082198211156106825761068261048d565b500190565b600060001982141561069b5761069b61048d565b5060010190565b6000826106b1576106b16105c9565b500690565b6000816106c5576106c561048d565b506000190190565b600060ff821660ff84168060ff038211156106ea576106ea61048d565b01939250505056fea2646970667358221220ae43273c3289c3f12cb5bf3db456a3c0b6b508d24a97b51c22c97b99177452d464736f6c634300080b0033",
  "immutableReferences": {},
  "source": "// SPDX-License-Identifier: GPL-3.0\n\npragma solidity >=0.7.0 <0.9.0;\n\nlibrary Utils {\n    function uint2str(uint256 _i) public pure returns (string memory str) {\n        if (_i == 0) {\n            return \"0\";\n        }\n        uint256 j = _i;\n        uint256 length;\n        while (j != 0) {\n            length++;\n            j /= 10;\n        }\n        bytes memory bstr = new bytes(length);\n        uint256 k = length;\n        j = _i;\n        while (j != 0) {\n            bstr[--k] = bytes1(uint8(48 + (j % 10)));\n            j /= 10;\n        }\n        str = string(bstr);\n    }\n\n    function address2str(address x) public pure returns (string memory) {\n        bytes memory s = new bytes(40);\n        for (uint256 i = 0; i < 20; i++) {\n            bytes1 b = bytes1(uint8(uint256(uint160(x)) / (2**(8 * (19 - i)))));\n            bytes1 hi = bytes1(uint8(b) / 16);\n            bytes1 lo = bytes1(uint8(b) - 16 * uint8(hi));\n            s[2 * i] = char(hi);\n            s[2 * i + 1] = char(lo);\n        }\n        return string(s);\n    }\n\n    function char(bytes1 b) internal pure returns (bytes1 c) {\n        if (uint8(b) < 10) return bytes1(uint8(b) + 0x30);\n        else return bytes1(uint8(b) + 0x57);\n    }\n\n    function getDaysBetween(uint256 _time1, uint256 _time2)\n        public\n        pure\n        returns (uint256)\n    {\n        uint256 secondsBetween = _time2 - _time1;\n        uint256 daysBetween = 1 + secondsBetween / 1000 / 60 / 60 / 24;\n        return daysBetween;\n    }\n\n    function gweiToWei(uint256 _gwei) public pure returns (uint256) {\n        return _gwei * 10**9;\n    }\n}\n",
  "sourcePath": "/Users/jyuteo/CodeProjects/TRent/smart-contracts/src/contracts/helpers/Utils.sol",
  "compiler": {
    "name": "solc",
    "version": "0.8.11+commit.d7f03943.Emscripten.clang"
  },
  "schemaVersion": "3.4.3",
  "updatedAt": "2022-03-12T13:57:36.638Z",
  "networkType": "ethereum",
  "devdoc": {
    "kind": "dev",
    "methods": {},
    "version": 1
  },
  "userdoc": {
    "kind": "user",
    "methods": {},
    "version": 1
  }
}